:100000000C94DB180D9414140D94E9130D94BE1385
:100010000D9493130D9468130D943D130D941213C6
:100020000D94E7120C940C190C940C190C940C19E7
:100030000C940C190C940C190C940C190D942A2B7B
:100040000C940C190C940C190C940C190C940C199C
:100050000C940C190C940C190C940C190D9452114D
:100060000C940C190D947A170D9450170C940C19CC
:100070000C940C190C940C190C940C190C940C196C
:100080000C940C190C940C190C940C190C940C195C
:100090000D94A6190D941C190D945E190D94CF2C76
:1000A0000C940C190C940C190C940C190C940C193C
:1000B0000C940C190C940C190C940C190C940C192C
:1000C0000C940C190C940C190C940C190D94261703
:1000D0000D94FC160C940C190D94D2160D94A816C0
:1000E0000C940C1907634236B79BD8A71A39685687
:1000F00018AEBAAB558C1D3CB7CC5763BD6DEDFD4A
:10010000753EF6177231BF000000803F0800000006
:10011000BE922449123EABAAAA2ABECDCCCC4C3EFC
:1001200000000080BEABAAAAAA3E00000000BF00EB
:100130000000803F0000000000084178D3BB4387E7
:10014000D1133D190E3CC3BD4282AD2B3E68EC82FB
:1001500076BED98FE1A93E4C80EFFFBE01C4FF7F80
:100160003F00000000000C94FB410C9496D90C94C5
:10017000EA7E0C94B8990C9455F00D94E5210C94FA
:10018000D2A50C94F6710C946D3F0D94240F0C9431
:10019000C4A50C94A5A50C943FE60C94B9E60C9468
:1001A000022A0C94FE7A0C94C9700C947FE60C948D
:1001B00096700C9401A10C946CE60C94F9D90C94F3
:1001C000CCDD0C94485A0C9465E90C94ACEF0C947B
:1001D000C1B90C941B720C94BBE60C94AE510C94F8
:1001E0001CF60C94A0A80C9466720C9471250C94C7
:1001F000E3670C943EBD0C9455A50C94FF990C94A8
:10020000E9E00C947EA50C94EC3A0C942D1F0C9410
:10021000181A0C944CE10C94AD410C9429320C94B6
:100220008ED90C941C430C941CAF0C9479C40C9480
:1002300056BE0C94E77E0D9434100C9463BD0C9460
:100240004FBD0C941C7B0C94B6430C94BF510D9481
:100250000B1F0C94BD7A0C94B97D0C9484650C949E
:1002600083E00C94FA720C9454230D941F0D0C949B
:10027000ED6C0C94343B0C941BF00C94F4A50C9492
:1002800044DD0C94C7810C9476E10C943B1C0D94D6
:10029000A01F0D94F30E0C94117B0C949BE20C9414
:1002A0005D9F0C9460E30C94D8A30C946AC40C94E6
:1002B00026F60C946B9F0C9470E10C94A6590C9448
:1002C0009A510C94641F0C9411DA0C943D1C0D94FB
:1002D000AD0F0C94ABBE0C9450800C94391C0C9454
:1002E000331C0C9467BD0C94151A0D94720E0C946B
:1002F00097BE0C946B7B0C94D6340D9410230C9405
:1003000047E00C94FBD90C94537F0C940CDE0C94B6
:1003100048800C94823A0C94FB510C9420820C94EB
:1003200064F50C9430E00D9415150C9408E00C94D1
:10033000D0A10D944E0F0C94FB240D946B0D0C94D6
:100340001F330C944BBD0C9407DD0D949C0E0C9444
:10035000D8DF0C9491590C9474A50C948DBE0C9418
:10036000B8340C9488F00D9451220C94DA190C9442
:1003700060BE0C94FED90D94B01E0C9484740C9441
:10038000EDA00C9429F50D94170E0C945AE60C94DC
:1003900077A10C94854A0C94F3B80C94817A0C9450
:1003A00025190C94F2A50C9451E60C943ADA0D94AC
:1003B000430E0C9469740C94AF350C94DEE50C94E8
:1003C000891F0C940DA40C94877B0D94260E0C941D
:1003D00092D90C9422660C94F5D90C94EAE60D940B
:1003E00069230C94EFDD0C949E1A0D941C310C942F
:1003F000581A0C94A2D90C94D0B80C94DA360D94F7
:1004000031310C94A2990D94380F0C9474BE0C9455
:100410009AD90C94F2DD0C9447BA0C94FBA40C947A
:1004200036BD0D94A60C0C94FFE10C9492210C9413
:10043000803A0C9470270C9494430C943F1C0C94B9
:10044000B3A50C9475DA0D94FF150C9448DA0C944E
:100450000A740C944FA10C94892F0C94451C0C9495
:10046000B0710D94E40E0C9425A00C943B510C94A7
:100470006BBD0C94833A0C9433AF0C9442800C9473
:10048000A5DD0C94F3A30C94E3DD0C94E0E10C9453
:10049000841A0C94AFE60C949E7A0C94C9B80D940F
:1004A00033230C943CBE0C94CD670C940F660C94D3
:1004B000A2E00C9465350C94B1350C9487360D94FC
:1004C000042A0C9422A10C94323B0C94471C0C94EB
:1004D00054DB0C94D7710C949FF40C942FA40C94BF
:1004E000927A0C9446BE0D94AE0E0C94F1190C94B5
:1004F000DBA40C9470340C9441680C947BEF0C9446
:10050000CCA40D9405100C94B9710D94640E0C9448
:10051000EE7A0C942DA50C9400DE0C9442BD0C9444
:1005200098A50C9473DA0D94E9210C9445BD0D94B3
:10053000AE0F0C9407660C94EDE60D94580F0D94D5
:100540005A0F0C945F720D942F0F0C940E2C0C9478
:10055000351C0C9408250C94B9E00C94BEF70C944F
:10056000E4660C94091B0C94D0710C944F3A0C94D3
:1005700092BA0C943ABD0C94E2D90C9438A00D9424
:100580009B230C94DEF40D94A70C0C94F2910C9424
:1005900021670C9492E60C9422410C94B8D90C94E7
:1005A000941F0C94AB350C949EF50C9440A50C94C0
:1005B0002D230C94E9410C941A740D94D80F0D94CA
:1005C000BE0F0C945A7F0D94D10F0C9448730C9469
:1005D0000C720C9489230C94C1DF0C94BDF50C941F
:1005E00051260C946BC40C94431C0C94AD240C94B5
:1005F0001B1A0D94782A0C944EBE0C94026C0C9429
:10060000B9DD0C94FD710C9429A60D94EE0C0D949B
:10061000B8100C94BF2A0D94A50C0C94C9650C94C9
:1006200049A60C94DCAE0D9443110C943F1A0C9423
:10063000A7B90C9432BE0C94C2700C949B350C94E8
:100640000B660C94D9A40D94811F0C94D7B80C940C
:1006500012F60D94C3260C9458470D940D0F0C946C
:10066000B91F0C9400230C94D8B90C9475BD0C944C
:10067000A1BE0D94370F0C94C2B80C942F190D9491
:10068000C81E0C944D5A0C94B3350C9486440C94AB
:100690009F360C94D7510C94A0740D942E0C0C948E
:1006A000D8D90C945DBD0C94BBA10C94D25C0C9475
:1006B000D5AE0C9403720C9485510C944B800D9420
:1006C00054100C9439710D94B50E0C945FE90C9490
:1006D000BFA50C94CC190D94110D0C943C710C9485
:1006E000EFF50C94F6210C9459BD0C94FDAE0C94CE
:1006F0001BBE0C9450720C947B430C9449E10C94F7
:100700006ABE0D94AF0F0C9453A20C940BA50C94DD
:100710004A240C94C8710C9423BE0C94C16D0C94A3
:10072000411C0C9470BD0C9407710C944D1A0C94E0
:1007300071BD0C94C0F70C94FDDD0C9425A40C94B1
:10074000C12B0C94E5B80C9419510C9460510C9485
:1007500054350C94B5BE0C94371C0D94A80C0C9415
:1007600056890D94B80D0C94B0A40C941E1A0C94D8
:10077000A5E60C9428190C9445720D94FD0C0C946C
:1007800056E90C9455BD0C9436730C94D59D0C947D
:1007900034670C943AF60D94DB220C949AA40C94D2
:1007A000B8B90C94E5A00C9459440C949D730C9426
:1007B000F4190C944FE10C94A6D90C94C4F70C9442
:1007C000BE200C94ACE10C94CD350C94D2650D9404
:1007D000DB1C0C94E4400C9428BE0C943BDA0C9483
:1007E00045800C94E0650D94CA1F0C9483BE0C9454
:1007F00091360C94813A0C94FB340C94A4240C9400
:1008000010A40C949ED90C943CDE0C94BD190D944C
:10081000090F0C94EEAE0C94595A0C94333B0D9482
:100820006C100C94D6F50C9493310D94C8290C944B
:10083000F07E0C94421A0D9450260C943A720C944B
:10084000ECB80D941D0F0C9490DF0C9430BD0C94FB
:100850001E730C9448E60C94B1500C942C440C94E8
:100860008B2C0D94C2220C94F2630C949B990C94E3
:10087000AC7A0C9459BA0C945EDF0C945CA10C9485
:1008800019350C9424DA0C9451410C9443980C942F
:100890007CC40C9445280C94A5560C9443620C948B
:1008A00034A10C94C31A4E414E494E495459494EF5
:1008B00046CDCCCC3D0AD7233C17B7D13877CC2BCB
:1008C000329595E6241FB14F0A000020410000C870
:1008D0004200401C4620BCBE4CCA1B0E5AAEC59DF1
:1008E000746364696E6F70737578585B00204F464F
:1008F0004600204F4E00204259504153530053614F
:1009000076656420746F20454550524F4D00536109
:1009100076696E6720636F6E66696720746F204525
:100920004550524F4D2E2E004343533831313A201B
:10093000416C726561647920696E697469616C6982
:100940007A6564004343533831313A20496E697403
:10095000206572726F7220004343533831313A2060
:10096000496E697400484443313038303A20416C54
:10097000726561647920696E697469616C697A6510
:1009800064004465766963652053657269616C2013
:100990004E756D6265723D00204465766963652021
:1009A00049443D3078004D616E75666163747572BF
:1009B00065722049443D3078004844433130383036
:1009C0003A20496E69742E2000432C2052483D0085
:1009D000484443313038303A205374617475733D64
:1009E00000484443313038303A204E6F7420696EED
:1009F000697469616C697A6564004D7367496E76E4
:100A0000616C69640052656164526567496E766124
:100A10006C6964004D6561734D6F6465496E766104
:100A20006C6964004D6178526573697374616E63BB
:100A300065004865617465724661756C740048654F
:100A400061746572537570706C790043435338312B
:100A5000313A204572726F7220004343533831316E
:100A60003A204661696C656420746F206765742064
:100A70004552524F525F49442072656769737465ED
:100A8000722E005D20626173656C696E655B005D4E
:100A90002074564F435B0020434F325B0063637307
:100AA0003831313A2064617461206E6F7420617650
:100AB00061696C61626C6500636373383131206E0B
:100AC0006F7420696E697469616C697A656400206D
:100AD0003C3C0041433A200041433A20536572694F
:100AE000616C2075736564206279204143202D205C
:100AF00064697361626C696E672073657269616CA9
:100B0000206C6F6767696E6720616E6420636D6437
:100B10000041433A204F7574206F66206D656D6FFC
:100B200072790041433A20496E69743A200041438A
:100B30003A2044652D496E69743A200045525200AE
:100B400041433A204F4B00203E3E200041433A2093
:100B50000041433A20506F6C6C696E670041433A24
:100B600020556E6D757465000000000000000000E7
:100B7000004F4E000000000000004F4646000000FD
:100B8000000000524553540000000000544F4747F6
:100B90004C4500000048414C540000000000584FF4
:100BA0004E000000000000584F46460000000000C4
:100BB000494E4352454153450044454352454153F4
:100BC0004500454E41424C450000004449534142D6
:100BD0004C450000554E465245455A450046524543
:100BE000455A450000004155544F000000000046A2
:100BF000414E5F4F4E4C59004849474800000000A5
:100C0000004D454449554D0000004C4F5700000031
:100C1000000000484541540000000000434F4F4C85
:100C2000000000000044525900000000000053542E
:100C30004F5000000000005247420000000000003A
:100C4000485356000000000000726177007175651E
:100C50006974007377696E67006C6F636B00556E23
:100C60006B6E6F776E207375666669782000556EBF
:100C70006B6E6F776E20636D642000436F756E74CA
:100C800065723A2000444D582D4F757420496E69A5
:100C9000743A2000444D582D4F75742073746F7052
:100CA0003A200041737369676E65643A00444D5899
:100CB000206374726C3A2000693136000169333266
:100CC000000275313600037533320004693868005C
:100CD0000569386C0006753868000775386C0008BF
:100CE0007831300009313030000A44656661756C36
:100CF000742073657269616C206D6F6465204E3875
:100D000031207573656400384531002600384E3156
:100D1000000600384532002E00384E32000E0038F2
:100D20004F31003600384F32003E00374531002445
:100D300000374532002C00374F31003400374F3236
:100D4000003C00374E31000400374E32000C004D9D
:100D50004255533A204D6F646275732074656D700F
:100D60006C617465206E6F7420666F756E643A20D6
:100D7000004D4255533A20496E76616C6964207487
:100D8000656D706C6174652E002C002C002C002C9D
:100D9000004D4255533A20636F6E66696720666165
:100DA000696C65643A004D4255533A20636F6E6634
:100DB0006967206572726F72004D4255533A206325
:100DC0006F6E666967206C6F6164656420004D42D8
:100DD00055533A204F7574206F66206D656D6F72A4
:100DE00079004D4255533A20506F6C6C696E672004
:100DF0006572726F7220004D4255533A204E6F74E7
:100E000020737570706F72746564207265672074EA
:100E10007970650A004D425553443A2049676E6F18
:100E2000726564202D20657175616C207769746826
:100E3000207365747465642076616C004D4255536F
:100E40003A204164642040533A20004D42555344B7
:100E50003A204D61707065643A004D425553443AF2
:100E6000204E65737465644D61707065643A004C22
:100E70006173744B6E6F776E2076616C75653A2086
:100E800000536561726368696E67207265673A2016
:100E900000206F7574206F662072616E6765206236
:100EA00075666665722C206665746368696E670096
:100EB000646566207265672320004D425553443AAD
:100EC00020536561726368696E67207265672300ED
:100ED0003A002066726F6D207479706520004D4273
:100EE0005553443A2020676F7420002076616C3A95
:100EF0000020004D425553207265733A2000207641
:100F0000616C206E6F74206368616E6765642E206B
:100F1000436F6E74696E7565004D4255533A003AE1
:100F200020657175616C20746172676572742E0042
:100F30003D004D4255533A002076616C2063686154
:100F40006E6765642E004D4255533A00204E6F7710
:100F50003A00204C6173743A0020230020707265BF
:100F600066657463682000205265672F636F696C43
:100F7000206D75737420626520696E740020696E3F
:100F80007465726E616C2073656E64206572726F39
:100F900072202D206E6F207265672F636F696C0061
:100FA00020696E7465726E616C2073656E64206575
:100FB00072726F72202D206E6F2074656D706C617F
:100FC00074650020696E7465726E616C2073656E65
:100FD00064206572726F72202D206E6F2073746FA3
:100FE0007265004D425553443A20656E64506F6CF3
:100FF0006C20004D425553443A20506F6C6C2000D9
:10100000206E6F7420666F756E64004D4255533AC2
:101010002020706172616D20002073656E64696EBE
:10102000672063616E63656C6C6564004D42555367
:101030003A2020706172616D20002073656E64201B
:101040006572726F722E20004D4255533A20200077
:101050004164642040563A20002056616C3A2000DA
:101060004D425553443A207375666669783A0020BC
:101070006F722073756666697820004D4255533A49
:10108000204E6F2074656D706C61746520666F72A0
:1010900020004D6F746F723A2074696D656F7574BE
:1010A00000556E6B6E6F776E20636D64004D6F74CC
:1010B0006F723A20466F7263656420657865637568
:1010C00074696F6E0056454E543A20636F6E6669C0
:1010D00067206661696C65640056454E543A206924
:1010E0006E69740056454E543A2044652D496E6928
:1010F0007400204F75743A00205265713A005645CD
:101100004E543A2000206D33002066726F6D20002F
:10111000204D6178207265713A002066616E253A33
:10112000002061637469766520563A0056454E5436
:101130003A20546F74616C20563A005049443A206A
:10114000616C726561647920696E697469616C694A
:101150007A6564005049443A20496E76616C69644E
:1011600020706172616D2061727261792E002C00B5
:101170002C002C002C005049443A20636F6E6669A5
:1011800067206661696C65643A005049443A20639F
:101190006F6E666967206572726F72005049443ADB
:1011A00020636F6E666967206C6F61646564200000
:1011B0005049443A204F7574206F66206D656D6FFD
:1011C0007279005049443A2044652D496E69742073
:1011D00000203C414C4D3E0020443A0020493A005A
:1011E00020503A0020696E3A00207365743A00502E
:1011F00049443A20005049443A20496E76616C696E
:101200006420706172616D2061727261792E005389
:101210006574206F757420746F200020504944203D
:10122000616C61726D2E20002050494420616C6118
:10123000726D3A20636C6F736564005049443A20C4
:10124000556E6B6E6F776E207375666669782000D9
:101250005049443A20556E6B6E6F776E20636D6413
:10126000200020536574706F696E743A00504944D1
:101270003A200020496E7075742076616C75653A6D
:10128000005049443A200020696E697400200050E3
:10129000574D2D4F75742023002073746F700020FC
:1012A0000050574D2D4F75742023003D0050696E3E
:1012B0003A0020696E69740052656C61792D4F7532
:1012C000742023002073746F700052656C61792D57
:1012D0004F75742023003D3E003A00707562206116
:1012E0006374696F6E200069646C65006F666600E8
:1012F00068656174696E670066616E006472796921
:101300006E6700636F6F6C696E6700206973200001
:101310004F75742000556E6B6E6F776E2073756617
:101320006669782000556E6B6E6F776E20636D6412
:101330002000616374696F6E0072656C617943743B
:10134000723A200053686F770020636D643D002D72
:10135000005B305D3A2000202D202D202D20EFBB9A
:10136000BF003E003E31202D200000000000006341
:101370006D640000736574000076616C0000646544
:101380006C00004853560000524742000066616EF0
:1013900000006D6F6465006374726C0068756500B1
:1013A00000736174000074656D70007261770000F5
:1013B00020002E00696E00735F6F7574006D796890
:1013C0006F6D65004354524C2F657865633A204F2A
:1013D00075744F664D656D6F72793A2000202D3E11
:1013E00020004D5154543A2000202D3E2000456DE0
:1013F00069743A203C00202D3E20004974656D43FD
:101400006D643A2000202D3E20004974656D3A201D
:10141000003157543A204275732072657365742009
:101420006572726F72003157543A204275732052C0
:101430006573657420646F6E65003157543A2044BB
:1014400053323438322070726573656E742C20729A
:1014500065736574004932432052657365740053A7
:1014600074617475732064656666657265640A00EC
:101470002D3E005075623A20002D3E005075623AB4
:1014800020002D3E005075623A2000000000000050
:10149000636D640000736574000076616C00006425
:1014A000656C0000485356000052474200006661D8
:1014B0006E00006D6F6465006374726C0068756522
:1014C0000000736174000074656D700072617700D4
:1014D000002D3E005075623A20002D3E005075628E
:1014E0003A200053454E445354415455533A2055E5
:1014F0006E6B6E6F776E20636D64200A00000000D3
:101500000000000000004F4E000000000000004FEF
:101510004646000000000000524553540000000001
:1015200000544F47474C4500000048414C540000D0
:10153000000000584F4E000000000000584F464683
:101540000000000000494E435245415345004445C8
:1015500043524541534500454E41424C4500000031
:1015600044495341424C450000554E465245455A68
:101570004500465245455A450000004155544F002C
:101580000000000046414E5F4F4E4C59004849470D
:101590004800000000004D454449554D0000004CF6
:1015A0004F57000000000000484541540000000073
:1015B00000434F4F4C00000000004452590000000F
:1015C00000000053544F50000000000052474200FA
:1015D0000000000000485356000000000000206694
:1015E00061696C65643A004D6F64627573206F7059
:1015F00020004D423A206F6B003D004D423A20568C
:1016000043230020636D643D003D004D423A205667
:10161000435F6865617423004D423A204E6F742029
:10162000737570706F727465642072656720747969
:1016300070650A002056616C3A30780020543A00F8
:10164000205265673A3078004D423A204164647216
:101650003A00444D58000000000000444D585247E5
:1016600042570000444D5852474200000050574D29
:101670000000000000004D42555344494D00005405
:101680004845524D4F00000052454C415900000062
:101690000047524F555000000000564354454D50EE
:1016A0000000004D4255535643000000414348415D
:1016B00049455200005350494C45440000004D4FED
:1016C000544F520000000050494400000000000048
:1016D0004D425553000000000055415254425244BF
:1016E000470052454C415950574D00444D585247C0
:1016F0004257570056454E545300000000454C4594
:101700005641544F5200434F554E544552000048E5
:10171000554D0000000000004D4552435552590000
:101720000020002D3E00436F6E76657274696E670F
:1017300020002D3E0057726F6E67204173736967FA
:101740006E6D656E742000524742783A2000207614
:101750004C6576656C3A0020436F6E76563A0020F1
:10176000436F6E76533A0020486F743A00436F6CB3
:10177000643A0020436F6E76657274656420563A51
:1017800000436F6E76657274656420533A002D3E97
:101790000057726F6E672041737369676E6D656E77
:1017A0007420002D3E0057726F6E6720417373697D
:1017B000676E6D656E742000000000000000000080
:1017C000004F4E000000000000004F4646000000A1
:1017D000000000524553540000000000544F47479A
:1017E0004C4500000048414C540000000000584F98
:1017F0004E000000000000584F4646000000000068
:10180000494E435245415345004445435245415397
:101810004500454E41424C45000000444953414279
:101820004C450000554E465245455A4500465245E6
:10183000455A450000004155544F00000000004645
:10184000414E5F4F4E4C5900484947480000000048
:10185000004D454449554D0000004C4F57000000D5
:10186000000000484541540000000000434F4F4C29
:1018700000000000004452590000000000005354D2
:101880004F500000000000524742000000000000DE
:1018900048535600000000000020537566663A0069
:1018A0002041543A00206973200044656C657469D6
:1018B0006E6720636F6E662E2052414D20776173F4
:1018C0003A0053746F70706564006E6F7468696E6F
:1018D0006720746F2073746F700053746F70706939
:1018E0006E67206368616E6E656C73202E2E2E000D
:1018F00043616E206E6F7420636C65616E202D20D5
:101900006C6F636B6564004D5154543A20436F6DA6
:10191000706C6574652E2052656D6F766520746FEE
:10192000706963200024636F6D6D616E64004D51BA
:1019300054543A20436C65616E5570207265746131
:10194000696E656420746F70696320002200220054
:101950004F75744F664D656D6F727921005D200083
:101960003A5B004D5154543A005D00456D707479F6
:101970003A205B000A003A004D41433A005544507A
:10198000205379736C6F6720696E697469616C6943
:101990007A65642E0A005379736C6F6720706172E8
:1019A000616D733A002E6C6F63616C0053657276E3
:1019B000696365207265636F72643A20006D444EFE
:1019C0005320726573706F6E6465722073746172F8
:1019D0007465642E004572726F7220736574746949
:1019E0006E67207570204D444E5320726573706F82
:1019F0006E6465722100476F7420495020616464F1
:101A0000726573733A00276970205B69705B2C64A0
:101A10006E735B2C67775B2C7375626E65745D5DAE
:101A20005D5D27202D207365742073746174696374
:101A30002049500A004661696C656420746F206318
:101A40006F6E6669677572652045746865726E654C
:101A500074207573696E6720444843502E20596F77
:101A6000752063616E20736574206970206D616EEE
:101A700075616C6C792100204D41534B3A00204731
:101A8000573A0020444E533A004C6F61646564201D
:101A900066726F6D20666C6173682049503A000A67
:101AA0007573657320444843500A0053746172741F
:101AB000696E67206C616E004D5154543A20747207
:101AC0007969796E67206E656E78742062726F6BCB
:101AD0006572004D5154543A20546F6F206D616E01
:101AE0007920636F6E6E656374696F6E20657272C4
:101AF0006F72732E2052657374617274204C414E64
:101B0000002074727920616761696E20696E2035EA
:101B1000207365636F6E6473004D5154543A2066B0
:101B200061696C65642C2072633D004D5154543AD8
:101B3000204177616974696E6720666F72207265F3
:101B40007461696E656420746F7069637300636F9C
:101B50006E6E65637465642061732000202E2E2EE6
:101B60000020757365723A003A000A4D5154543A98
:101B700020417474656D7074696E6720636F6E6E5A
:101B8000656374696F6E20746F2000646973636F9E
:101B90006E6E6563746564005573696E67204D51A0
:101BA00054542070617373776F72642066726F6D26
:101BB00020636F6E666967002E6C6F63616C006DE9
:101BC000444E53206E616D65207570646174656468
:101BD0003A2000446576696365204E616D653A0080
:101BE0004D5154543A204174206C656173742064E3
:101BF0006576696365206E616D6520616E64206243
:101C0000726F6B6572204950206D75737420626528
:101C100020636F6E6669677572656400246E6F6419
:101C20006573004F4E2C4F46462C48414C542C5265
:101C30004553542C584F4E2C584F46462C544F4722
:101C4000474C450024666F726D617400656E756D5A
:101C50000024646174617479706500687376006350
:101C60006F6C6F7200302D32353500696E746567A8
:101C7000657200666C6F617400332E302E31002463
:101C8000686F6D696500757074696D652C66726545
:101C9000656865617000666638393937665F32306D
:101CA00032342D30382D3233004C696768744875F2
:101CB000622000246E616D6500526562696E642069
:101CC000737563636573732E204950206164647279
:101CD0006573733A004572726F723A207265626979
:101CE0006E64206661696C0052656E65776564207C
:101CF000737563636573732E204950206164647249
:101D00006573733A004572726F723A2072656E6540
:101D1000776564206661696C000A4E6F206C696E9D
:101D20006B00436F6E74696E756520776974682007
:101D300070726576696F75736C79206C6F6164651C
:101D40006420636F6E6669670033307320454550C9
:101D5000524F4D206973206E6F742072656C6F61F5
:101D60006465642E205265626F6F74004D51545447
:101D70003A20416363657074696E6720636F6D6DAF
:101D8000616E64732E2E2E0A004E6F204D515454F6
:101D900020636F6E66696775726564004C6F61647D
:101DA000696E6720636F6E6669672066726F6D206B
:101DB000706F7274616C2064697361626C65642E0B
:101DC0002075736520676574204F4E20746F206501
:101DD0006E61626C6500436F6E666967206973208F
:101DE00076616C696400436F6E74696E7565207707
:101DF0006974682070726576696F75736C79206C90
:101E00006F6164656420636F6E6669670053657413
:101E10007570204F5441004D5154543A20736574ED
:101E20002066697273742062726F6B65720043750D
:101E30007272656E74204C414E20636F6E666967E6
:101E40002869702C646E732C67772C7375626E65CD
:101E500074293A000A5573652074686573652063B8
:101E60006F6D6D616E64733A202768656C70272012
:101E70002D207468697320746578740A276D616316
:101E80002064653A61643A62653A65663A66653A25
:101E90003030272073657420616E642073746F7214
:101EA00065204D41432D6164647265737320696ED2
:101EB00020454550524F4D0A276970205B69705B81
:101EC0002C646E735B2C67775B2C7375626E657424
:101ED0005D5D5D5D27202D207365742073746174D2
:101EE00069632049500A277361766527202D207386
:101EF0006176652063757272656E7420636F6E66BD
:101F0000696720696E204E5652414D3B204F4E7CF2
:101F10004F4646202D20656E61626C652F646973A3
:101F200061626C65206175746F736176650A2767FD
:101F3000657427205B636F6E6669672061646472F5
:101F40005D27202D2067657420636F6E66696720AA
:101F500066726F6D207072652D636F6E666967754E
:101F60007265642055524C20616E642073746F72E8
:101F70006520616464722C204F4E7C4F4646202DB4
:101F800020656E61626C652F64697361626C6520A7
:101F9000646F776E6C6F6164206F6E207374617212
:101FA0007475700A276C6F616427202D206C6F6137
:101FB0006420636F6E6669672066726F6D204E568F
:101FC00052414D0A2770776427202D206465666989
:101FD0006E6520616E642073746F7265204D51547C
:101FE000542070617373776F72640A276F74617025
:101FF000776427202D20646566696E6520616E64B4
:102000002073746F72652048545450204150492009
:1020100070617373776F72640A276C6F67205B73EC
:10202000657269616C5F6C6F676C6576656C5D206D
:102030005B7564705F6C6F676C6576656C5D27209F
:102040002D20646566696E65206C6F67206C65760F
:10205000656C2028302E2E37290A276B696C6C2777
:10206000202D2074657374207761746368646F67D2
:102070000A27636C65617227202D20636C6561728D
:1020800020454550524F4D0A27736561726368279A
:10209000202D2073656172636820312D7769726528
:1020A000206465760A277265626F6F7427202D2081
:1020B0007265626F6F7420636F6E74726F6C6C65A3
:1020C0007200536F6674207265626F6F74696E6719
:1020D0002E2E2E00206E6577002069732000315768
:1020E000543A003157543A20536561726368696EFF
:1020F00067206465760052414D3D000A5379736C48
:102100006F6720000A312D7769726520000A6D71B2
:10211000747420000A6D6F64627573207632000A51
:102120006D6F6462757320763120282B29000A694F
:102130006E7075747320000A6974656D7320000AEF
:10214000436F6E666967757265643A00496E6974BB
:1021500069616C697A696E6720496E707574730085
:102160003157543A207365747570207265736F6CC3
:102170007574696F6E20003157543A2044533234DD
:1021800038322D313030206E6F7420707265736577
:102190006E74003157543A204453323438322D3162
:1021A00030302049324320726573746F7265640069
:1021B0003157543A204275732072657365742065F7
:1021C00072726F72003157543A2042757320526513
:1021D00073657420646F6E65003157543A20445320
:1021E000323438322D3130302070726573656E7440
:1021F0002C207265736574004572726F7220312DE8
:102200007720696E6974003157543A204453323450
:1022100038325F3130305F4932435F544F5F31575E
:102220005F42524944474520696E697400444D58E5
:102230004F75742E20467265653A00444D58696E9C
:102240002042756666657220616C6C6F63206572F2
:102250007200496E697420696E2063683A003B0021
:102260003D0050696E3A003B003D4C4F57005468AA
:1022700065726D6F3A004F6E652077697265205206
:10228000656164790A00467265653A00444D5820DC
:102290006F757420737461727465642E2043686175
:1022A0006E6E656C733A2000444D5820696E207341
:1022B0007461727465642E204368616E6E656C7320
:1022C0003A0042726F6B65727320636F6E66696766
:1022D000757265643A004170706C79696E6720634D
:1022E0006F6E666967004C6F616465642045544198
:1022F000473A004E6F2073746F72656420636F6E8F
:10230000666967004C6F616465642066726F6D205A
:10231000454550524F4D006C6F6164206661696C99
:102320006564004A534F4E20646574656374656448
:10233000004C6F6164696E6720436F6E6669672049
:1023400066726F6D20454550524F4D00436F6E666B
:102350006967206175746F736176653A000A537915
:10236000736C6F67206465627567206C6576656C59
:102370003A0053657269616C206465627567206C10
:102380006576656C3A0053617665640A005365743E
:102390002064796E616D69632049500A004F544191
:1023A0002050617373776F72642075706461746517
:1023B000640A004E6F204950206164726573730097
:1023C000205361766564004C6F6164696E672048D4
:1023D00054545020636F6E666967206F6E2073746B
:1023E00061727475703A0000000000000000000087
:1023F0004F4E000000000000004F46460000000065
:102400000000524553540000000000544F47474C11
:102410004500000048414C540000000000584F4E59
:10242000000000000000584F464600000000004930
:102430004E4352454153450044454352454153455F
:1024400000454E41424C4500000044495341424C36
:10245000450000554E465245455A450046524545B1
:102460005A450000004155544F000000000046410D
:102470004E5F4F4E4C59004849474800000000004D
:102480004D454449554D0000004C4F570000000099
:102490000000484541540000000000434F4F4C00ED
:1024A0000000000044525900000000000053544F47
:1024B00050000000000052474200000000000048A9
:1024C0005356000000000000636F756C64206E6F4F
:1024D000742070617273653A200055706461746590
:1024E000640A00454550524F4D20636C656172652A
:1024F000640A004D5154542050617373776F7264B5
:1025000020757064617465640A002B002D004554C9
:1025100061673A200047657420455441473A2000DE
:10252000485454502F312E310025733A2025730D15
:102530000A0020485454502F312E310D0A486F7331
:10254000743A2025730D0A4163636570743A202A3A
:102550002F2A0D0A436F6E6E656374696F6E3A20A1
:10256000636C6F73650D0A0025730020000D0A006F
:10257000474554006661696C656420746F20636F21
:102580006E6E6563740A004552524F523A2053658D
:10259000727665722072657475726E656420004390
:1025A0006F6E666967206E6F74206368616E676521
:1025B000640A00446F6E652E0A00436F6E66696799
:1025C0002070617273696E67206661696C65640A68
:1025D000004765742061626F7274656400676F7490
:1025E00020436F6E6669670A0068747470207265B4
:1025F00074636F64652000667265652000436F6ECA
:10260000666967205552493A20687474703A2F2FD2
:10261000002044656661756C7420636F6E6669673F
:102620002073657276657220757365643A20006C5C
:10263000617A79686F6D652E7275000A282D2943BD
:10264000414E000A282D294D455243555259000A42
:10265000282B294D554C544956454E54000A282BD9
:102660002950574D5F52454C4159000A282B294D9E
:10267000444E53000A282D29554152544252494490
:102680004745000A282B295359534C4F47000A2825
:102690002B29504944000A282D294D43503233300C
:1026A0003137000A282D294152544E4554000A283A
:1026B0002D294F5441000A282B29535049204C45BD
:1026C00044000A282B294D4F544F522043545200A6
:1026D0000A282B294143204841494552206F6E204A
:1026E00053657269616C33000A282B2943435338C0
:1026F000313120262048444331303830000A282B1D
:1027000029524553544152545F4C414E5F4F4E5FE6
:102710004D5154545F4552524F5253000A282D29AF
:102720004841524452455345542C207573696E6795
:1027300020736F6674000A282B29434F554E544569
:1027400052000A282B29444854000A282B294453B4
:10275000323438322D313030000A282B294F574976
:102760005245000A282D2949504D4F4442555300E7
:102770000A282B294D4F44425553203078303620BB
:1027800061742053657269616C3220737065656491
:102790003A39363030000A282B29414441465255F7
:1027A0004954204C4544000A282B29444D58000A1E
:1027B000282B2957697A6E657435313030000A2824
:1027C0002B294672656552616D207072696E74695D
:1027D0006E67000A282B295741544348444F47004D
:1027E0006C617A79686F6D652E7275000A436F6E41
:1027F000666967207365727665723A0032303131EE
:1028000030334C0020432B2B2076657273696F6E3A
:102810003A00666638393937665F323032342D30E7
:10282000382D3233000A4C617A79686F6D652E72EB
:1028300075204C6967687448756220636F6E7472A6
:102840006F6C6C6572200000002200250028002BB0
:10285000002E003100340002010000050108010BC8
:102860000100000A0B02090C0D0E08070304010009
:102870000000000000000000000000000000000058
:102880000000000000000000000000000012111015
:102890000000000000000000000000000000000038
:1028A0000000000000000000002100240027002A92
:1028B000002D003000330001010000040107010A6F
:1028C0000101021020200808102040102040800242
:1028D0000102010804020101020408102040808066
:1028E00040201008040201800402018040201008EA
:1028F00004020108040201010204081020408001C2
:102900000204081020408005050505070508080891
:1029100008020202020A0A08080404040401010170
:102920000101010101030303030303030304070778
:10293000070C0C0C0C0C0C0C0C0202020206060616
:1029400006060606060B0B0B0B0B0B0B0B556E73DB
:102950007065636966696564206572726F722E00C6
:1029600047454E455249435F4552524F5200494EEA
:102970005445524E414C5F4552524F5200493243EA
:102980005F4552524F520049445F4552524F5200E8
:1029900053554343455353004343533831313A2051
:1029A0000057726F6E67207061796C6164004D51E1
:1029B00054543A204354524C2F7478743A204F7533
:1029C000744F664D656D6F72793A2000202D3E2060
:1029D00041543A004368616E20747970653A004E44
:1029E0006F2073746F7265642076616C75657320F7
:1029F0002D2064656661756C743A200053617665BC
:102A00006420455441473A0053657420455441477A
:102A10003A2000556E6B6E6F776E2073756666692F
:102A2000782000556E6B6E6F776E20636D642000AA
:102A3000636C724374723A2000454F46002F004980
:102A40006E3A20002500C2B04320483D0020444893
:102A500054323220747970652E20543D00494E3A2C
:102A600000204E6F20656D697420646174612100DF
:102A700020436F756E74657220747970652E2076B0
:102A8000616C3D00494E3A0020436F756E7465726B
:102A900020747970652E20494E434F52524543545D
:102AA00020496E74657272757074206E756D626502
:102AB00072212121004952513A002D3E002000236D
:102AC000002D3E00200050656E6465643A202300AE
:102AD0003D00494E3A003D004C454741435920498D
:102AE0004E3A0020666F7220286D73293A004354D5
:102AF000524C3A205363686564756C6520636D645D
:102B00002000206D73203A0041726D656420666F6D
:102B10007220002044697361726D656400207469DD
:102B20006D653A004354524C3A205265733A002086
:102B300054533A0020543A00544845524D3A004309
:102B40006C65616E696E6720616C61726D20003D1D
:102B50000050696E3A004354524C3A20436F6D6DF9
:102B6000616E6420626C6F636B65642062792064BF
:102B70007269766572206F72206368616E6E656C33
:102B80002066726F7A656E004354524C3A204F4E65
:102B90003A416C7265616479204163746976650AB3
:102BA000004354524C3A2048414C543A416C7265AF
:102BB00061647920496E6163746976650A004354E3
:102BC000524C3A20584F4E3A2044697361626C650A
:102BD000640A004354524C3A20584F4E3A416C72AA
:102BE00065616479204163746976650A00435452D3
:102BF0004C3A20584F464620736B69707065642EBE
:102C0000205072657620636D643A004354524C3A0A
:102C1000205475726E6564206F66662066726F6DF3
:102C20003A004354524C3A20526573746F72656493
:102C30002066726F6D3A004354524C3A2049676ED9
:102C40006F7265642C206368616E6E656C20636DC5
:102C5000643D0020457865633A004354524C3A2065
:102C60004163746976653A004354524C3A204841B6
:102C70004C543A416C726561647920496E616374A9
:102C80006976650A004354524C3A20584F4E3A2018
:102C900044697361626C65640A004354524C3A2083
:102CA000584F4E3A416C7265616479204163746992
:102CB00076650A004354524C3A20584F46462073DA
:102CC0006B69707065642E205072657620636D6448
:102CD0003A004354524C3A205475726E6564206F2A
:102CE00066662066726F6D3A004354524C3A205229
:102CF0006573746F7265642066726F6D3A00435439
:102D0000524C3A204E6F7420656E6F756768206D67
:102D1000656D6F727920666F722067726F757020B3
:102D20006F7065726174696F6E00496E76616C696F
:102D3000642061726700496E76616C69642061721B
:102D400067004354524C3A20556E6B6E6F776E207D
:102D500073756666697800536B6970706564206886
:102D60006F6D696520737475666600200020537569
:102D7000623D00204974656D3D004354524C3A2039
:102D800052414D3D004354524C3A204F75744F66AA
:102D90004D656D6F72793A2000282D292000282B6F
:102DA0002920002076616C756520697320002075EC
:102DB0006E6B6E6F776E0A005D3D005B0020696E82
:102DC00076616C69640020004143544956453A00DD
:102DD000206F6B003A00206661696C6564003A0000
:102DE0005265747279696E6720564354454D502080
:102DF000434D440A005265747279696E67205643E8
:102E000020434D440A005265747279696E67206DE3
:102E10006F6462757320434D440A00526574727981
:102E2000696E6720434D440A00206572726F723DDF
:102E3000004D423A20706F6C6C696E67200020561E
:102E4000616C3A20004D423A20004D423A204E6FCC
:102E50007420737570706F7274656420726567207A
:102E6000747970650A004D423A20706F6C6C696E1F
:102E7000672064696D6D657220004D423A20496C8F
:102E80006C6567616C20617267756D656E74730A3D
:102E900000206572726F723D004D423A20706F6C77
:102EA0006C696E6720504920002D004D423A205039
:102EB000492056616C203A004D423A20706F6C6C8C
:102EC000696E6720504920004D423A20706F6C6C4B
:102ED000696E6720464D206661756C742000206520
:102EE00072726F723D004D423A20706F6C6C696E69
:102EF0006720002D004D423A20464D2056616C203F
:102F00003A004D423A20706F6C6C696E6720464DF6
:102F100020004354524C2F706F6C6C3A204F7574E4
:102F20004F664D656D6F72793A200020736563209E
:102F300072656D61696E696E6700005EBCE2613F3B
:102F4000DD83C29C7E20A3FD1F419DC3217FFCA287
:102F5000401E5F01E3BD3E6082DC237D9FC1421CB9
:102F6000FEA0E1BF5D0380DE3C62BEE0025CDF816B
:102F7000633D7C22C09E1D43A1FF4618FAA4277919
:102F80009BC584DA3866E5BB5907DB856739BAE447
:102F900006581947A5FB7826C49A653BD987045A79
:102FA000B8E6A7F91B45C6987A24F8A6441A99C72B
:102FB000257B3A6486D85B05E7B98CD2306EEDB3D9
:102FC000510F4E10F2AC2F7193CD114FADF3702E07
:102FD000CC92D38D6F31B2EC0E50AFF1134DCE9039
:102FE000722C6D33D18F0C52B0EE326C8ED0530DEB
:102FF000EFB1F0AE4C1291CF2D73CA947628ABF599
:1030000017490856B4EA6937D58B5709EBB53668C6
:103010008AD495CB2977F4AA4816E9B7550B88D6F8
:10302000346A2B7597C94A14F6A8742AC896154BAA
:10303000A9F7B6E80A54D7896B35436F6E6E65639E
:103040007465642E00436F6E6E2E2061626F727421
:103050006564003E3E2000496E76616C69642063C1
:103060006F6D6D616E640000002000230026002952
:10307000002C002F003200000100000301060109AE
:10308000013E3E3E004E6F204D414320636F6E6611
:103090006967757265643A20736574206669726D3C
:1030A000776172652773204D41430A0045455052B0
:1030B0004F4D207369676E6174757265206F6B0088
:1030C000496E697469616C697A696E67204545501B
:1030D000524F4D2E002072656164206572726F72CE
:1030E00020666F7220003E2000203C003157543A89
:1030F000003157543A206E6F7420696E6974003144
:1031000057543A20425553592074696D656F757450
:10311000003157543A204453323438325F455252CA
:103120004F525F434F4E464947003157543A203182
:103130002D776972652073686F72746564007265BB
:103140006164790024737461746500757074696DCD
:1031500065006672656568656170002473746174EA
:10316000730020457870697265640A00202D7461CF
:1031700072676574207A6F6E652D0020416C6172F4
:103180006D20457870697265640A0020636D643A49
:1031900000204375723A00205365743A0020546948
:1031A0006D65723A00204C6F636B733A0052414D6B
:1031B0003D00FF01F50111241FBECFEFD1E2DEBFBC
:1031C000CDBF00E00CBF1AE0A0E0B2E0E6E8FDE908
:1031D00002E00BBF02C007900D92A235B107D9F7EC
:1031E00022E1A2E5BAE001C01D92AD35B207E1F7D8
:1031F00018E1CAEDD8E100E006C021970109802F4F
:10320000FE010F948746C93DD10780E00807A9F762
:103210000F9458350D94B14E0C94000090E0FC01D1
:10322000E95FF64DE491F0E0EE0FFF1FE95BF74D2B
:10323000A591B4912C918F53974DFC0184918223D9
:1032400091E009F490E0892F089590E080E00895DE
:10325000DC01ED91FC910284F385E02D1994DF925D
:10326000EF92FF920F931F93CF93DF93EC010C89A2
:103270001D890115110559F01D8A1C8AC801DF91AD
:10328000CF911F910F91FF90EF90DF900895EC8503
:10329000FD858E859F85DF01A80FB91F2C912432F3
:1032A00009F055C011962C912B3709F050C00296A9
:1032B000E80FF91FF12CE12CDF01D190DD2009F49A
:1032C00046C08DE7D816E9F08FEFE81AF80AF4CF78
:1032D000198A188A2C853D852115310579F08E854E
:1032E0009F85280F391FF9012081222321F00196A3
:1032F0009F878E873EC01D861C86C0CF0FEF1FEFB5
:10330000BDCFE114F10419F11C928E859F850296C0
:103310006C857D85680F791FE881F9810684F785C2
:10332000E02DCE011995998B888B1B8A1A8AEC8522
:10333000FD858E859F85E80FF91FEE0DFF1DD2825A
:103340008E859F850396E80EF91EFF86EE862889F6
:1033500039892115310509F4BDCF8A899B89280F48
:10336000391FF9012081222309F4B2CF01969B8BEA
:103370008A8B022F220F110B81CFDC011C96ED915D
:10338000FC911D971E968D919C91E80FF91F8081ED
:10339000082E000C990B0895DC0115968D919C91D7
:1033A000009739F0DC01ED91FC910680F781E02D6A
:1033B00019940895FC01838594859C0144E035951A
:1033C00027954A95E1F756E0959587955A95E1F747
:1033D0002817390719F081E090E0089582E090E025
:1033E000089583E090E00895DC011296ED91FC9140
:1033F00013973097B9F016968D919C918430910572
:1034000041F08530910541F0039749F482E090E066
:10341000089581E090E0089581E190E0089582852B
:1034200090E0089590E080E0089585E090E00895B0
:1034300090E080E008958EE090E00895DC0112961F
:10344000ED91FC9113973097B9F016968D919C9160
:103450008430910541F08530910541F0039749F49E
:1034600082E090E0089581E090E0089581E190E0AD
:103470000895828590E0089590E080E0089584E1C9
:1034800090E00895DC01ED91FC910484F585E02D38
:1034900060E0199581E090E00895DC011496ED91CB
:1034A000FC9180E0309711F085A1817090E0089543
:1034B000CF93DF93EC016AEC72E18CEB9FE00F9409
:1034C00057166C817D814AE050E08CEB9FE00F94B1
:1034D000F81564EC72E18CEB9FE00F9457168CEBBF
:1034E0009FE00F94EB1460E08C810E94A7BDE881FF
:1034F000F9810484F585E02D60E0CE01199581E025
:1035000090E0DF91CF910895CF93DF93EC0164EECB
:1035100070E18CEB9FE00F9457168CEB9FE00F94BB
:10352000EB14E881F9810484F585E02D60E0CE019B
:10353000199581E090E0DF91CF910895CF93DF93CB
:10354000EC0164E97CE08CEB9FE00F945716EA8174
:10355000FB810280F381E02D608171818CEB9FE023
:103560000F9441168CEB9FE00F94EB14E881F981E6
:103570000484F585E02D60E0CE01199581E090E0AE
:10358000DF91CF910895EF92FF920F931F93CF9306
:10359000DF93EC018B0180915C0A90915D0A0097AA
:1035A000A9F0FC0120852F70263081F40E94F6AD31
:1035B000FC0190859F70943049F481859285DF915C
:1035C000CF911F910F91FF90EF900895EE88FF88A3
:1035D000C70101970D97D0F46DEB75E0C8010F940A
:1035E000F44A892B99F48FE2888F85E08E9DB00193
:1035F0008F9D700D112466597C4E46E050E0CE013F
:1036000049960F94083FCE014896D9CF90E080E0CC
:10361000D6CF4F925F926F927F92BF92CF92DF92FE
:10362000EF92FF920F931F93CF93DF9300D000D0C0
:10363000CDB7DEB77C01B62E8091590A882309F4F4
:10364000BDC0D70114969C9180914402891708F45B
:10365000B5C08091BA0A9091BB0ABAE06B13EFC073
:103660008659954FFC011082D70118960D911C9137
:103670000115110509F49EC0F80161857285611577
:10368000710591F445805680678070848091FC0CB0
:103690009091FD0CA091FE0CB091FF0C48165906BC
:1036A0006A067B0609F486C0D8011B964D915C9191
:1036B0001C974115510509F47DC0F70124815396EB
:1036C0008C91539790E0322F377002C09595879573
:1036D0003A95E2F780FF6EC0C22ED12CC601887FDA
:1036E0009370892B39F451968D919C91887F9370BA
:1036F000C82AD92AD8018D919C91DC01ED91FC91C9
:103700006115710509F485C00688F789E02D1995C2
:10371000019709F04FC06CE3F801808191810F940B
:10372000A9154AE050E0B601D8018D919C910F9403
:103730000815F80122818081918164E673E12223DA
:1037400011F062E673E10F945716D8011D966D9142
:103750007C911E978D919C910F94411660E2F80127
:10376000808191810F94A915D8011F966D917C914C
:1037700050978D919C910F944116F8012281808180
:10378000918167E573E1222311F061E573E10F9404
:1037900057166AE67AE0D8018D919C910F944116F4
:1037A000F80180819181DC01ED91FC91008CF18D1B
:1037B000E02D19951092BB0A1092BA0AD7011596FE
:1037C0008D919C911697009771F014963C912091E1
:1037D0004502231740F0DC01ED91FC910190F0814E
:1037E000E02D6B2D199581E090E026960FB6F894A8
:1037F000DEBF0FBECDBFDF91CF911F910F91FF9024
:10380000EF90DF90CF90BF907F906F905F904F9040
:1038100008950488F589E02D23E635E03A8329836D
:10382000D80115964D905D906D907C9018974B82C5
:103830005C826D827E82BE016F5F7F4F68CF8F3466
:1038400091050CF0BBCFBDE06B1709F4B7CF9C011D
:103850002F5F3F4F3093BB0A2093BA0A8659954F8A
:10386000FC016083ABCF0D94343D0D94343D0D9439
:10387000343D0D94343D0D94343D0D94343D0D9400
:10388000343D0D94343D0D94343D0D94343D2F92D0
:103890003F924F925F926F927F928F929F92AF92E0
:1038A000BF92CF92DF92EF92FF920F931F93CF932D
:1038B000DF93CDB7DEB7AA970FB6F894DEBF0FBE81
:1038C000CDBF5C010E8F1F8F28A339A34AA35BA332
:1038D0006CA37DA31C8A1B8ADC0118968D919C9198
:1038E00001979E8B8D8BE114F104D1F0CE014596AA
:1038F0009F938F9302979F938F9381EC95E09F9373
:103900008F93FF92EF920F94A94B0FB6F894DEBFFE
:103910000FBECDBF019721F48B899C899E8B8D8B27
:103920006B897C894AE050E08CEB9FE00F94F8159E
:103930006FE473E18CEB9FE00F9457166D897E89DD
:103940004AE050E08CEB9FE00F94F81569E473E1D6
:103950008CEB9FE00F945716FE8DFAA74AE050E0DB
:103960006F2F8CEB9FE00F940E158CEB9FE00F9464
:10397000EB1419861A861B861C861D861E861F86DA
:10398000188A8A85807F84608A87D50118968D91F0
:103990009C912D893E89281739071CF001979E8B31
:1039A0008D8B8B899C8997FF02C01C8A1B8A8B8810
:1039B0009C885401312C212C8D899E898A159B0568
:1039C0000CF46AC1BAA5B13091F1B23009F453C117
:1039D000EE24EA94FE2C0E8D1F8D28A139A14AA158
:1039E0005BA16CA17DA1CE0109960E947FA32983D2
:1039F0003A834B835C836D837E838F83988780912A
:103A0000680A9091690AFC0122813381A216B306EB
:103A100008F088C06F852E8530E050E040E0542FDC
:103A2000432F322F2227462B6D85262B33C1E09062
:103A3000680AF090690AF70182819381A816B90695
:103A400008F070C096855385018512854084A92FA2
:103A5000B0E06484712C658570E09401220D331D03
:103A6000951372C0A901440F551F240F351F200F55
:103A7000311FA20FB31F9C91F301E20FF31F1081BE
:103A8000260F371FD9010C91442009F452C0512C44
:103A9000712C612C692F70E0762F6627072E000CA1
:103AA000880B990BA30192010F941046C901772747
:103AB00066276EA37FA388A799A7612F70E0762F52
:103AC0006627072E000C880B990BA30192010F9417
:103AD0001046542F432F322F22278EA19FA1A8A535
:103AE000B9A5822B932BA42BB52B8EA39FA3A8A79C
:103AF000B9A7602F70E0762F6627072E000C880B81
:103B0000990BA30192010F9410466EA17FA188A585
:103B100099A5262B372B482B592B232B242B252BD0
:103B200009F4A0C0FFEFAF1ABF0A2FEF221A320A22
:103B300043CF212F30E050E040E0542F432F322F6D
:103B40002227492B202BE9CFC901880F991F880F05
:103B5000991F800F911FA80FB91F3C91DC01A50F81
:103B6000B11D0C91F301E80FF91FD080860F971F4C
:103B7000DC011C91442009F463C0512C712C612C90
:103B8000632F70E0762F6627072E000C880B990BA9
:103B9000A30192010F941046922F8827772766275A
:103BA0006EA37FA388A799A7602F70E0762F662762
:103BB000072E000C880B990BA30192010F9410465D
:103BC000A901332722278EA19FA1A8A5B9A5822BE1
:103BD000932BA42BB52B8EA39FA3A8A7B9A7612FC6
:103BE00070E0762F6627072E000C880B990BA30137
:103BF00092010F9410466EA17FA188A599A5622B12
:103C0000732B842B952B6EA37FA388A799A76D2D6B
:103C100070E0762F6627072E000C880B990BA30106
:103C200092010F941046542F432F322F22278EA13A
:103C30009FA1A8A5B9A5282B392B4A2B5B2B6DCFAB
:103C4000802F90E0B0E0A0E0DC0199278827B32B1B
:103C5000AC01412B8A019D011D29012B022B032B55
:103C600009F060CF2FEF3FEF4FEF50E0B501C701F4
:103C70000F94061857CF8091680A9091690ADC0169
:103C800012962D913C91A216B30608F04BCF20E07E
:103C900030E0A901B501ECCFCC2009F488C0009137
:103CA000680A1091690AD80119968D919C91892B07
:103CB00009F473C00E94D7BEF801C784D088E18898
:103CC000F2886C157D058E059F0520F46787708B43
:103CD000818B928BF801C784D088E188F2886C19B7
:103CE0007D098E099F096C3271408105910510F3A1
:103CF000F894D80114968D919C9115979A8B898B85
:103D00001996ED91FC917F01BFEFEB1AFB0A8081C0
:103D10008D8FF80190810388F489E02DD8015596A4
:103D20008C91992309F45EC09081982B9C8F90818F
:103D3000809589238B8F8B8D888F88E08F8B5C8D0E
:103D40006B8D4D8D3F89288D89899A89D701508344
:103D500047FD252F3A952083262F39F0441F00C0B8
:103D600000006083000000C0F2CF38E04D91608316
:103D70000000019761F7D8015496FC93EE93539796
:103D80004D8F3F8B288F9A8B898B78940E94D7BE5A
:103D9000F8016787708B818B928B64E473E18CEB05
:103DA0009FE00F9457168CEB9FE00F94EB1481E08B
:103DB00090E0AA960FB6F894DEBF0FBECDBFDF919C
:103DC000CF911F910F91FF90EF90DF90CF90BF9018
:103DD000AF909F908F907F906F905F904F903F90AB
:103DE0002F9008959081982B9C8F908180958923A6
:103DF0008B8F8B8D8A8F88E0898F5C8D6B8D4D8D3D
:103E0000398D2A8D89899A89D701508347FD252FBD
:103E100000C000C0208300C000C000C000C000C0BF
:103E200060830000262F3A9541F0441F000000C037
:103E300000C000C000C000C0E8CF38E04D9100C015
:103E4000608300C0019709F7D8015496FC93EE9364
:103E500053974D8F398F2A8F96CF0F931F93CF9300
:103E6000DF938C0167EC75E08CEB9FE00F94EF140F
:103E7000C091680AD091690A4C815D8170E060E070
:103E800089859A850F942144209771F089859A85B8
:103E90000F94343D8E819F8197FD03C060E00E94A6
:103EA000A7BDCE010F94343DD801ED91FC9104845F
:103EB000F585E02D60E0C801199581E090E0DF9183
:103EC000CF911F910F910895CF93DF93EC0165E897
:103ED0007CE08CEB9FE00F945716EA81FB81028017
:103EE000F381E02D608171818CEB9FE00F9441168E
:103EF0008CEB9FE00F94EB14E881F9810484F58545
:103F0000E02D62E0CE01199581E090E0DF91CF9144
:103F10000895DC01ED91FC910484F585E02D62E0CB
:103F2000199581E090E00895CF93DF93EC0167ED60
:103F300075E08CEB9FE00F94EF1440E050E0BA0185
:103F40008A819B810E9407E4E881F9810484F585D8
:103F5000E02D60E0CE0119956D858C810E9479BDC0
:103F60006D858D810E9479BD81E090E0DF91CF91D8
:103F70000895FC01828193810E94DDE621E030E01A
:103F8000823011F430E020E0C90108950F931F93AF
:103F9000CF93DF938C01D0E0C0E001151105B1F0A3
:103FA000BE016854734FC8010F94D13E892B51F460
:103FB000FE01E454F34F849190E0DF91CF911F9183
:103FC0000F9108952596C233D10539F781E090E02D
:103FD000F4CFFF920F931F93CF93DF93CDB7DEB74C
:103FE00064970FB6F894DEBF0FBECDBF8C01F62EDE
:103FF0008FE290E09A838983FE01339688E0DF01A7
:104000001D928A95E9F7F8016681FF2011F081E0A1
:104010006827D80114968C910E9479BDF801878198
:104020009085A185B285883E9340A105B10508F42D
:1040300091C060E173E18CEB9FE00F945716D801BB
:1040400014966D917C914AE050E08CEB9FE00F94C8
:10405000F8156BE073E18CEB9FE00F9457166F2D12
:1040600070E04AE050E08CEB9FE00F94F8158CEB89
:104070009FE00F94EB1462E373E1CE0101960F947D
:10408000C63EF801828193810E94DDE6FF2009F49B
:104090006DC063E073E1843151F06CEF72E1853102
:1040A00031F060EF72E18F3011F468EF72E1CE0110
:1040B0000B960F94DA3E6BED72E18CEB9FE00F9460
:1040C0005716D8011296ED91FC9113970280F38157
:1040D000E02D60817181ED91FC910288F389E02DE2
:1040E0009E012F5F3F4FAE01455F5F4FC80119959D
:1040F0004AE050E0BC018CEB9FE00F94F81569EDAD
:1041000072E18CEB9FE00F945716D8011296ED9157
:10411000FC910280F381E02D608171818CEB9FE046
:104120000F944116BE016F5F7F4F8CEB9FE00F94A1
:10413000411666ED72E18CEB9FE00F945716BE01BD
:10414000655F7F4F8CEB9FE00F9441168CEB9FE0F7
:104150000F94EB1464960FB6F894DEBF0FBECDBF7C
:10416000DF91CF911F910F91FF9008956CEE72E156
:10417000823009F49CCF67EE72E199CFAF92BF9283
:10418000CF92DF92EF92FF920F931F93CF93DF9323
:10419000CDB7DEB768970FB6F894DEBF0FBECDBFC0
:1041A000FC01098B1A8B2B8B3C8B4D8B5E8B6F8BA1
:1041B000788F82819381009709F4A1C02481358191
:1041C000232B09F49CC0CC2009F499C06F0170E046
:1041D00060E00E94EBE4192FD601ED91FC91048C74
:1041E000F58DE02DC60119955C018230910509F429
:1041F0007AC0039709F445C095E0F1E0AF16B10429
:1042000009F091E019861A861B861C861D861E867B
:104210001F86188A8A85807F892B8A87EE24EA94F4
:10422000FE2C09891A892B893C894D895E896F8901
:10423000788DCE0109960E947FA3F1E0AF16B104FC
:1042400009F453C082E0A816B10409F049C06F8593
:1042500070E0D60114968C910E94E3BD61E070E09D
:10426000C6010F94BB0B6E8570E00E94E3BD62E057
:1042700070E0C6010F94BB0B6D8570E00E94E3BD3A
:104280002FC0612F661F6627661FCE0141960E94D0
:1042900076705C01BC01D60114968C910E94E3BD3E
:1042A0006DEA72E18CEB9FE00F945716F601648182
:1042B00075814AE050E08CEB9FE00F94F8156BEAB3
:1042C00072E18CEB9FE00F9457164AE050E0B50185
:1042D0008CEB9FE00F94F8158CEB9FE00F94EB14A0
:1042E00081E090E00EC094E08DCF63E070E0C60105
:1042F0000F94BB0B688970E00E94E3BDA8CF90E0EB
:1043000080E068960FB6F894DEBF0FBECDBFDF9198
:10431000CF911F910F91FF90EF90DF90CF90BF90C2
:10432000AF900895CF93DF93EC0161EA72E18CEBDB
:104330009FE00F9457166C817D814AE050E08CEB32
:104340009FE00F94F8156FE972E18CEB9FE00F94FA
:104350005716EA81FB810280F381E02D6081718133
:104360008CEB9FE00F94411669E972E18CEB9FE0C2
:104370000F9457168CEB9FE00F94EB14E881F981B2
:10438000048CF58DE02DCE0119958130910529F031
:10439000029759F060E08C811AC063E070E0CE01B2
:1043A0000F94BB0B60E00E94A7BD60E08C810E946F
:1043B000A7BD61E070E0CE010F94BB0B60E00E94EE
:1043C000A7BD62E070E0CE010F94BB0B60E00E94DD
:1043D000A7BDE881F9810484F585E02D60E0CE0178
:1043E000199581E090E0DF91CF910895CF93DF930D
:1043F000EC016FE872E18CEB9FE00F9457166C8133
:104400007D814AE050E08CEB9FE00F94F8156DE859
:1044100072E18CEB9FE00F945716EA81FB810280DA
:10442000F381E02D608171818CEB9FE00F94411648
:1044300067E872E18CEB9FE00F9457168CEB9FE0DE
:104440000F94EB148A819B81892B09F451C08C81D4
:104450009D81892B09F04CC0E881F981048CF58D90
:10446000E02DCE0119958130910529F0029759F080
:1044700061E08C811AC063E070E0CE010F94BB0B49
:1044800061E00E94A7BD61E08C810E94A7BD61E050
:1044900070E0CE010F94BB0B61E00E94A7BD62E00B
:1044A00070E0CE010F94BB0B61E00E94A7BD80912C
:1044B000A100887F8093A10080919100887F8093E4
:1044C00091008091A10082608093A1008091910071
:1044D000826080939100E881F9810484F585E02D64
:1044E00062E0CE01199581E090E0DF91CF910895CF
:1044F00090E080E0FACFCF92DF92EF92FF920F939D
:104500001F93CF93DC011296ED91FC9160E08481C2
:1045100095810E94A8AE8C01009729F0FC0180854E
:104520008F708530D1F065EF71E185E19FE00F94E8
:10453000571685E19FE00F94EB14C12CD12C90E825
:10454000E92E9FEBF92EC701B601CF911F910F9174
:10455000FF90EF90DF90CF900895C8010E9439AF8F
:10456000813040F18630A8F1893020F565E0C8013E
:104570000E94A8AEFC0190859F709330F9F4C1842D
:10458000D284E384F484C1E060E0C8010E94A8AE54
:10459000FC0190859F70933009F561857285838554
:1045A000948520E030E0A9010F94C64487FF1FC026
:1045B000C111C9CFC12CD12C7601C5CF923049F49D
:1045C00061857285838594850F94CD446B017C0150
:1045D000DACFC0E0C12CD12C7601D6CF923039F49D
:1045E00061857285838594850F94CD44DACFC1119E
:1045F000AACFC12CD12C8FE7E82E83E4F82EA3CFCD
:10460000CF93DF93EC0163EC71E18CEB9FE00F94AF
:104610005716EA81FB810280F381E02D6081718170
:104620008CEB9FE00F94EF14EC81FD81309721F02B
:10463000808191810F94343D8C819D810F94343D14
:1046400070E060E08A819B810E94B4E31D821C823D
:1046500081E090E0DF91CF910895CF93DF93EC015B
:1046600066EE75E08CEB9FE00F944116EA81FB81CA
:104670000280F381E02D608171818CEB9FE00F94CB
:10468000EF148C819D81009711F00F94343D70E000
:1046900060E08A819B810E94B4E31D821C8281E0DC
:1046A00090E0DF91CF910895CF93DF93FC012281B9
:1046B0003381232B59F1EC016EE27BE08CEB9FE020
:1046C0000F9457164AE050E06E818CEB9FE00F94F8
:1046D0000E158CEB9FE00F94EB148C819D810F9451
:1046E000343D70E060E08A819B810E94B4E31D82CA
:1046F0001C82E881F9810484F585E02D60E0CE011B
:10470000199581E090E0DF91CF91089590E080E0ED
:10471000FACF0F931F93CF93DF938C01DC01149694
:10472000ED91FC91309709F456C0C681D78120974E
:10473000C1F1E881F981309781F18081882369F1A5
:104740006FE776E0CE010E94F6AD892B41F42FEFA2
:104750003FEFA9016FE776E0CE010E9494B764E8CD
:1047600076E0CE010E94F6AD892B41F42FEF3FEFAA
:10477000A90164E876E0CE010E9494B765EF75E088
:10478000CE010E94F6AD892B41F42FEF3FEFA90136
:1047900065EF75E0CE010E9494B70A80DB81C02DE1
:1047A000C6CF69ED70E18CEB9FE00F9457168CEB50
:1047B0009FE00F94EB14D801ED91FC910484F585F2
:1047C000E02D62E0C801199581E090E0DF91CF9182
:1047D0001F910F91089565EC70E18CEB9FE00F94B1
:1047E00057168CEB9FE00F94EB1490E080E0EECF37
:1047F0008F929F92AF92BF92CF92DF92EF92FF92F1
:104800000F931F93CF93DF93CDB7DEB760970FB6AB
:10481000F894DEBF0FBECDBFE986FA860B871C87F2
:104820002D873E874F87588B6115710511F0011157
:1048300003C090E080E0CCC07B015C01DB018D9087
:104840009C9019821A821B821C821D821E821F82EA
:1048500018868A81807F8A8369EF75E0C7010E948C
:10486000F6AD6C016EEF75E0C7010E94F6AD7C01FC
:10487000C114D10451F1F60180858F70843029F57F
:10488000818592850E94C61F182F8930B1F134F4BA
:104890008130E4F4C12CD12C760168C08A30D1F784
:1048A000B701CE0109960E94097829833A834B8388
:1048B0005C836D837E838F8398873F7009F4B9CFC3
:1048C000CE0101960E941F7215C011E0B701CE0102
:1048D00009960E94097829833A834B835C836D8310
:1048E0007E838F8398873F7009F4A3CFCE01019612
:1048F0000E94DB716B017C0139C0B701CE010996C2
:104900000E94097829833A834B835C836D837E837D
:104910008F8398873F7009F48CCF31503B3008F07B
:10492000B9CFE32FF0E08827E756FB4D8F4F0D946A
:104930008746AD24AD244A24A424A4240825FB24BE
:10494000FB24FB24A424A4242D813E814F8158857F
:10495000AAE0B0E00F945146CDCFCD80FAE0CF9ED3
:10496000600111240D2C000CEE08FF088091450217
:10497000893020F4809144028930E8F060E670E1EB
:104980008CEB9FE00F945716B4018CEB9FE00F94D3
:10499000411669E570E18CEB9FE00F9457162AE011
:1049A00030E0B701A6018CEB9FE00F94B0158CEBC3
:1049B0009FE00F94EB14D5011296ED91FC9162E00B
:1049C000848195810E94A8AE009779F581E090E0FE
:1049D00060960FB6F894DEBF0FBECDBFDF91CF91CA
:1049E0001F910F91FF90EF90DF90CF90BF90AF900D
:1049F0009F908F90089520E030E040E251E46D8177
:104A00007E818F8198850F942C450F94984772CFA3
:104A10006D817E818F8198852AE030E040E050E012
:104A20000F94324669017A01A1CFFC0120852F70D5
:104A3000263061F6B4010E94F6AD5C01009731F2B8
:104A4000DC0118968C9118978F709BEF980F92301D
:104A500008F0BCCF4501853029F416968C90169746
:104A600017969C90F50180858068808762E076E0EB
:104A7000C4010E94F6ADFC01892B61F0C186D2868B
:104A8000E386F486812F8295807F10851F70182B16
:104A900010879CCF60E570E18CEB9FE00F94571678
:104AA000D5016D917C918CEB9FE00F9441168CEBBE
:104AB0009FE00F94EB14A701960162E076E0C40139
:104AC0000E9494B762E076E0C4010E94F6ADFC015A
:104AD000892B09F47BCF1295107F90859F70192B3D
:104AE000D7CF2F923F924F925F927F928F929F9259
:104AF000AF92BF92CF92DF92EF92FF920F931F93EC
:104B0000CF93DF9300D000D01F921F92CDB7DEB7B6
:104B100009831A832B833C834D835E836F8378875D
:104B2000DC011496ED91FC910FEF1FEF3097F9F037
:104B300057014C01C288D388E114F10489F1F701CF
:104B40008081882369F1C114D10489F1B701C601BC
:104B50000E94F6ADE980FA800B811C812D813E8197
:104B60004F815885BC01C4010E94F8238C01C80103
:104B700028960FB6F894DEBF0FBECDBFDF91CF9160
:104B80001F910F91FF90EF90DF90CF90BF90AF906B
:104B90009F908F907F905F904F903F902F900895BF
:104BA000C114D10421F0D6011696CD90DC907B8003
:104BB000F12C0FEF1FEF272C312C512C412CC1145D
:104BC000D10449F165E076E0C6010E94F6AD009798
:104BD000E9F0FC0120852F702230C1F48185928597
:104BE000A385B48582159305A405B50579F4E980FC
:104BF000FA800B811C812D813E814F815885B60141
:104C0000C4010E94F8238C01FF24F394D60112966C
:104C1000CD90DC90D4CFF110AACF6BE770E185E1A5
:104C20009FE00F945716B50185E19FE00F94411660
:104C30006FE670E185E19FE00F945716672D70E0F5
:104C40004AE050E085E19FE00F94F81585E19FE090
:104C50000F94EB148CCFCF93DF93EC01EC81FD81AB
:104C600040815181052E000C660B770B22818DE56A
:104C70009CE00F94A41770E060E08A819B810E9401
:104C8000EBE4EBE5FDE082838DE59CE0918380839E
:104C900010926B0E10926D0E10926C0EDF91CF91F0
:104CA00008954F925F926F927F928F929F92AF92F0
:104CB000BF92CF92DF92EF92FF920F931F93CF9309
:104CC000DF93CDB7DEB768970FB6F894DEBF0FBE9F
:104CD000CDBF098B1A8B2B8B3C8B4D8B5E8B6F8BD7
:104CE000788FDC0112962D913C911397232B09F4B8
:104CF000DEC0CC2009F4DBC06C01ED91FC91048C8A
:104D0000F58DE02D19955C016DEA7CE08CEB9FE060
:104D10000F945716CE0141960E94A974A114B104B4
:104D200071F460E0CE0141960E947670682FF60122
:104D3000848195810F94132C81E090E0BAC0CE015C
:104D400041960E946A724C0194E0F2E0AF16B10401
:104D500059F081E1A816B10409F445C091E0A1E041
:104D6000AA16B10409F495E019861A861B861C86DA
:104D70001D861E861F86188A8A85807F892B8A87D2
:104D8000EE24EA94FE2C09891A892B893C894D89E5
:104D90005E896F89788DCE0109960E947FA363EAB0
:104DA0007CE08CEB9FE00F945716CE0109960E9491
:104DB000A974B2E0AB16B10489F0E1E1AE16B1041A
:104DC000B1F0AA94AB2809F0B7CF188963E070E07E
:104DD000C6010F94BB0B612F0F94132C6F85F60146
:104DE0008481958151C0888D8170888FBCCF0FE7F9
:104DF00010E08FEF88169806A9F0092C000CAA087D
:104E0000BB08A50194012959310941095109AFEFA6
:104E1000B0E00F9451462BE531E040E050E00F94B4
:104E20003246890163E070E0C6010F94BB0B5C0160
:104E3000288930E0D8010F949E46412C512C320134
:104E40004A94A30192010F943246622FC5010F9438
:104E5000132C64E070E0C6010F94BB0B5C01AFEF54
:104E6000B0E0A01BB10B288930E00F949E46A3014F
:104E700092010F943246622FC5010F94132C6F8557
:104E8000D60114968D919C910F94132C1E8561E090
:104E900070E0C6010F94BB0B612F0F94132C1D857E
:104EA00062E070E0C6010F94BB0B612F43CF90E02E
:104EB00080E068960FB6F894DEBF0FBECDBFDF91DD
:104EC000CF911F910F91FF90EF90DF90CF90BF9007
:104ED000AF909F908F907F906F905F904F900895CC
:104EE0000F931F93CF93DF9300D000D01F92CDB7C5
:104EF000DEB78091630A882369F068E279E085E192
:104F00009FE00F94571685E19FE00F94EB1490E01B
:104F100080E0B0C068E579E08BE09FE00F947B16FD
:104F20000E948EB88091500290915102A09152023D
:104F3000B091530289839A83AB83BC838EE09DE05A
:104F400090931B0D80931A0D1E8280E197E22E81B3
:104F50002F5F2E830197D9F71D82BE016B5F7F4FB4
:104F600080E20E9404B88C01892BF1F48D8101E06C
:104F700010E08138C9F4BE016F5F7F4F8FEF0E9450
:104F800054B81F8280E89EE32F812F5F2F83019703
:104F9000D9F7BE016B5F7F4F80E00E9404B88D811E
:104FA00080FF0CC003E010E064E479E085E19FE05D
:104FB0000F945716C8010E94D1B7A9CFBE016B5FED
:104FC0007F4F80E00E9404B8892B61F78D8184FFB8
:104FD000E9CF80911C0D0E94FAB780911A0D909133
:104FE0001B0DDC01ED91FC910190F081E02D64EF4F
:104FF000199580911A0D90911B0D0F94F32D882314
:1050000019F002E010E0D0CFBE016B5F7F4F81E06E
:105010000E9404B88C01892B39F61D811F7810611C
:105020001D8380911C0D0E94FAB780911A0D9091FA
:105030001B0DDC01ED91FC910190F081E02D61E010
:10504000199580911A0D90911B0DDC01ED91FC9149
:105050000190F081E02D612F199580911A0D9091AA
:105060001B0D0F94F32D8111CCCF81E08093630A47
:1050700081E090E027960FB6F894DEBF0FBECDBF5B
:10508000DF91CF911F910F910895EF92FF920F93AF
:105090001F93CF93DF93CDB7DEB760970FB6F89429
:1050A000DEBF0FBECDBF80915E0A8823C9F065E6E2
:1050B00079E08CEB9FE00F9457168CEB9FE00F94F8
:1050C000EB1490E080E060960FB6F894DEBF0FBE60
:1050D000CDBFDF91CF911F910F91FF90EF90089579
:1050E00069EB79E08CEB9FE00F9457160E948EB825
:1050F00080E48093310D0E948EB810E01B7F809178
:10510000310D0E94FAB762E08EE09DE00F94051029
:10511000612F8EE09DE00F94051060E08EE09DE031
:105120000F9405108EE09DE00F94F32D6AE070E07F
:1051300080E090E00E94ECBF66EA79E08CEB9FE0B3
:105140000F9457168EEF0E941FC040E150E0BC0143
:105150008CEB9FE00F94081568E979E08CEB9FE0F9
:105160000F9457168FEF0E941FC040E150E0BC0122
:105170008CEB9FE00F9408158CEB9FE00F94EB14E1
:1051800062E879E08BE09FE00F9457168BEF0E9466
:105190001FC0182F092F8CEF0E941FC0F82EE92E78
:1051A0008DEF0E941FC09F938F93EF92FF920F93FA
:1051B0001F9388E096E09F938F938E010F5F1F4FA0
:1051C0001F930F930F94794BB8018BE09FE00F94DE
:1051D000EF1481E080935E0A0FB6F894DEBF0FBE35
:1051E000CDBF81E090E06FCF4F925F926F927F9240
:1051F000AF92BF92CF92DF92EF92FF920F931F93E5
:10520000CF93DF9300D01F92CDB7DEB72B013C01C7
:1052100029833A834B835C83A6019501C801B701BA
:10522000640D751D861D971D21153105410551051C
:1052300011F00F94104629813A814B815C816217ED
:10524000730784079507D0F42415350546055705DF
:1052500030F521E0822F0F900F900F900F90DF918B
:10526000CF911F910F91FF90EF90DF90CF90BF9063
:10527000AF907F906F905F904F90089546165706BD
:105280006806790650F421E089819A81AB81BC815E
:1052900084159505A605B705E8F220E0DBCF21E0EF
:1052A0004616570668067906A8F2F7CFCF93DF9324
:1052B000EA01282FDC01ED91F0E094E0F595E79507
:1052C0009A95E1F7E258FD4F80818883FD0131977F
:1052D000E081EF70F0E0E258FD4F808189832296F3
:1052E0008A2F821B861738F3615070E0660F771F94
:1052F000460F571FFA011282DF91CF9108950F9345
:105300001F93CF93DF9365E574E18CEB9FE00F94DF
:105310007B1681E00E94FCBE0F94562C61E085E173
:105320000E94A7BD60E084E10E94A7BDC4E1D0E077
:1053300010E001E0612F85E10E9479BD10276AE04D
:1053400070E080E090E00E94ECBF219799F764E163
:1053500070E080E090E00E94ECBF0E948EB88091E7
:10536000351190913611009749F10F94412C8EE040
:105370009DE00F94F32D811121C080913511909102
:1053800036110F94922F6AE374E18CEB9FE00F9437
:105390007B16E0913511F091361100838091351123
:1053A000909136110F94A02F66E274E1811102C032
:1053B00061E174E18CEB9FE00F947B1681E0DF915B
:1053C000CF911F910F9108950F931F93182F0E9453
:1053D000DEC104C096958795779567951A95D2F7A3
:1053E0008B019C0101501109210931090E3F1F4F0A
:1053F0002F4F3F4F20F061E070E080E090E01F9180
:105400000F910895AF92BF92CF92EF92FF920F93B8
:105410001F93CF93DF9300D000D01F921F92CDB780
:10542000DEB75C0109831A832B833C834D835E8343
:105430006F83788769E373E18CEB9FE00F945716D5
:10544000CE0101960E94A974E114F10439F062E3DF
:1054500073E1C7010F94D13E009729F1F501028154
:10546000138101151105E9F0898181115CC08B81DF
:10547000813009F460C048F1823029F1082F10E032
:1054800065E173E18CEB9FE00F9457164AE050E022
:10549000B8018CEB9FE00F94F8158CEB9FE00F9414
:1054A000EB1490E080E028960FB6F894DEBF0FBEB4
:1054B000CDBFDF91CF911F910F91FF90EF90CF90D3
:1054C000BF90AF900895CC20C1F060E0CE0101966E
:1054D0000E947670892B09F447C0C8010E9448E4F5
:1054E000672B682B692BE1F480E00E94E429AB0173
:1054F000BC01C8010E9407E413C0C8010E94DDE698
:105500008E3019F050F4813059F460E0CE010196EC
:105510000E947670892B21F0E0CF83518330A8F36D
:1055200081E090E0C0CF8031D0F48E30B0F6813091
:10553000A1F28230C9F065E273E18CEB9FE00F9439
:1055400057164AE050E069818CEB9FE00F940E15EE
:105550008CEB9FE00F94EB1401E010E091CF8351AE
:10556000833008F4BACFE7CF40E050E0BA01C80179
:105570000E9407E460E0C5010E94E91FD1CF2F928D
:105580003F924F925F926F927F928F929F92AF92D3
:10559000BF92CF92DF92EF92FF920F931F93CF9320
:1055A000DF93CDB7DEB760970FB6F894DEBF0FBEBE
:1055B000CDBF6130710509F495C0DC0112966D9183
:1055C0007C916115710509F48DC04C0119821A8214
:1055D0001B821C821D821E821F8218868A81807F08
:1055E0008A8340E052E0CE0101960E94B36F60E0F2
:1055F000CE0101960E9476701C01F4018281938194
:105600000E9448E42B013C01D40117962D913D9155
:105610004D915C911A97D1010F945C462FEF30E0C9
:1056200040E050E00F94104629873A874B875C870B
:105630000E94DEC19B01AC0189859A85AB85BC8542
:105640000097A105B10509F468C0A12CB12C650132
:105650007C018D01C301B2010E94F42889874114A5
:10566000510461047104F1F1D40117968D919D915B
:105670000D90BC91A02D8D879E87AF87B88B0E941F
:10568000DEC19B01AC018D859E85AF85B8890097F1
:10569000A105B10561F0A12CB12C65017C018D0142
:1056A000C301B2010E94F428882309F451C0D40137
:1056B00012966D907C9080E00E94E429AB01BC01C1
:1056C000C3010E9407E4232869F0F40184810E9449
:1056D0000E19D40116969C91891304C061E0C4018F
:1056E0000E94E91F90E080E060960FB6F894DEBF5C
:1056F0000FBECDBFDF91CF911F910F91FF90EF9023
:10570000DF90CF90BF90AF909F908F907F906F90E1
:105710005F904F903F902F90089591E099879FCF91
:10572000B985BB23F1F060E0C4010E94E91FF401D8
:10573000828193810E94C8E8892BA1F640E050E065
:10574000BA01D40112968D919C910E9407E4CACFB0
:10575000F40184810E940E19D40116969C9189133C
:10576000DFCF232809F4BECFF40184810E940E19F3
:10577000D40116969C918913B5CFB985B111B2CFDA
:10578000ADCFCF93DF93EC0168EB72E18CEB9FE040
:105790000F9457166C817D814AE050E08CEB9FE0BE
:1057A0000F94F81562EB72E18CEB9FE00F945716A3
:1057B0008CEB9FE00F94EB1461E08C810E94A7BDFD
:1057C0006E818C810E9479BD8A819B81009729F02E
:1057D00040E050E0BA010E9407E4E881F9810484C6
:1057E000F585E02D62E0CE0119958A819B810097B5
:1057F00081F00E94C8E8181619065CF40A80DB8163
:10580000C02D80E00E94E429AB01BC01CE010E94C2
:1058100007E481E090E0DF91CF910895CF92DF928D
:10582000FF920F931F93CF93DF9300D000D01F926E
:105830001F92CDB7DEB76C01F02E1A83022F10E055
:10584000FF2029F00115110511F401E010E040E0FE
:1058500050E460E070E0F601828193810E943FE5B0
:105860000130110591F10230110541F0012B99F53C
:105870006DEA70E18CEB9FE00F9457168A818F7070
:10588000A1F1F60102811381C8010E9448E4672B4F
:10589000682B692B89F401E010E0C80128960FB647
:1058A000F894DEBF0FBECDBFDF91CF911F910F9156
:1058B000FF90DF90CF90089580E00E94E429AB0133
:1058C000BC01C8010E9407E4E6CFF1E0FF1681F0B9
:1058D00082E0F81669F061EA70E18CEB9FE00F94CA
:1058E00057168CEB9FE00F94EB1410E000E0D5CF3F
:1058F000F601C280D380C6010E9448E4672B682B62
:10590000692B49F280E00E94E429AB01BC01C60189
:105910000E9407E4C2CF2F923F924F925F926F9204
:105920007F928F929F92AF92BF92CF92DF92EF922F
:10593000FF920F931F93CF93DF93CDB7DEB72E97D0
:105940000FB6F894DEBF0FBECDBF6130710509F40C
:1059500071C14C01DC011296ED90FC9040E050E4E6
:1059600060E070E0C7010E9468E5672B682B692B37
:1059700009F460C140E050E860E070E0C7010E94B7
:1059800068E5672B682B692B89F4809127028823AF
:1059900009F450C140E050E860E070E0C7010E94A7
:1059A0003FE580912702815080932702F401E28035
:1059B000F380C7010E9448E42B013C0119821A823E
:1059C0001B821C821D821E821F8218868A81807F14
:1059D0008A8340E052E0B701CE0101960E94B36F86
:1059E00060E0CE0101960E9476709E878D87D4017B
:1059F00012968D919C910E94DDE6823011F08530E7
:105A000011F41E861D86F40186819AEC980F903160
:105A100008F0C3C121853285A90170E060E04987A3
:105A20005A876B877C87C384D484F12CE12C0E9435
:105A3000BABE9C01990F440B550B2C193D094E0918
:105A40005F09AFEFB0E00F94514629853A854B8549
:105A50005C852C193D094E095F090F9432461901E6
:105A600037FDD3C15FEF2516310411F00CF0D0C122
:105A7000411451046104710409F097C1ED84FE845E
:105A8000E218F30896EFE9169FEFF9060CF001C152
:105A9000D4011D966C911D9715968C910E9479BD2D
:105AA000F401C280D380C6010E9448E4672B682BB2
:105AB000692B41F480E00E94E429AB01BC01C601DE
:105AC0000E9407E4D40114961C9114971D966C91C2
:105AD0008EEF810F8C3028F084ED810F833008F039
