:100000000C94DF180D940D130D94E2120D94B71299
:100010000D948C120D9461120D9436120D940B12E6
:100020000D94E0110C9410190C9410190C941019E3
:100030000C9410190C9410190C9410190D94692B30
:100040000C9410190C9410190C9410190C9410198C
:100050000C9410190C9410190C9410190D944B1049
:100060000C9410190D94C3160D9499160C94101934
:100070000C9410190C9410190C9410190C9410195C
:100080000C9410190C9410190C9410190C9410194C
:100090000D94EF180D9465180D94A7180D94802FEA
:1000A0000C9410190C9410190C9410190C9410192C
:1000B0000C9410190C9410190C9410190C9410191C
:1000C0000C9410190C9410190C9410190D946F16AF
:1000D0000D9445160C9410190D941B160D94F115E2
:1000E0000C94101907634236B79BD8A71A39685683
:1000F00018AEBAAB558C1D3CB7CC5763BD6DEDFD4A
:10010000753EF6177231BF000000803F0800000006
:10011000BE922449123EABAAAA2ABECDCCCC4C3EFC
:1001200000000080BEABAAAAAA3E00000000BF00EB
:100130000000803F0000000000084178D3BB4387E7
:10014000D1133D190E3CC3BD4282AD2B3E68EC82FB
:1001500076BED98FE1A93E4C80EFFFBE01C4FF7F80
:100160003F00000000000D94250E0C944AD90C9419
:10017000EEA40C944C450D94071F0C94B81A0C94E3
:100180008C520C94B9370C94E8E00C94E5360C943E
:10019000B33B0C9474A50C94ABBB0D941E0E0C9445
:1001A000D1BC0C9491680C94C8DD0D94170C0C9480
:1001B000ACD90C944ADF0D94F60E0C94D1A30C9498
:1001C00096AE0D94630E0C946BD90C94AFAE0C9458
:1001D000D5E80C945BE00C94663C0C94D2200D9412
:1001E000940E0C94BDBB0C943FA50C94D7410C9479
:1001F000D1370C944B480C940A720C9471E10C9416
:1002000099A30C94E3360C94402D0C9499F40C941F
:10021000F5DF0C94BEE00C94CB660C94AEB50D9457
:100220001A0F0C941E3C0C94D1A00C940D250C9428
:100230007ADF0D9472230C94F0A30D94B9300C94D2
:1002400030BD0C94BCA40C9439740D94DB0C0C944C
:10025000CCA40C94F7C20D94150C0C942AD90C94D0
:10026000C9520C9404E60C940AA60C94FA7B0C94E4
:100270000EF50C94CD360C94EBBB0C94D2E20C949E
:1002800048660C94BAD90C94CB720C9460230C94ED
:100290008FDD0C946A5A0D94C80E0C944B740C9418
:1002A000E6C20C94A3510C9496660D94180C0C9411
:1002B000AC7E0C9416A50C94F8670C9461A80C9471
:1002C000C1E00C945D9F0C94BD2D0C94E1360D940F
:1002D0007D0E0C94E9230C9460400C94071D0C9443
:1002E000A3BC0C94B4230C949CA40C9421740C9483
:1002F000031D0C941F1A0D94280D0C946C750C940E
:10030000A3750C940CD90C94B9BB0C9453730C9436
:10031000B1260C94CB9F0C94A7680D94DA230C940F
:100320005B250D94F51A0C942EF70C9408D90C94B7
:10033000555A0C944D800C94BA820C940D750C9403
:100340008BEF0C94431A0C94A9440C94965D0C9476
:10035000AA240C944B360C94FE1A0D94A80E0C94FF
:10036000F71C0C94A0420C9493A50C94ECBB0C9439
:10037000DC420C94BE9F0C943E810D94870D0C942E
:1003800071A40D94D40D0C94D59D0C94011D0C9466
:1003900052520C9407220D94790E0D94590F0C941F
:1003A00087750C940B1D0C94051D0C941D750C94F5
:1003B00072E60C9417E60C94CFE80C941C1A0C947B
:1003C000D3270C9462730D94F70E0C9466A50C94CD
:1003D000B4A30C94CC710C943B810D94C01F0C946D
:1003E000D1250C943EE60C945B330C940B520C9488
:1003F00070D90C941CBD0C942DF50D94070F0C9422
:10040000F4AE0C94A7B50C94B1520C9487440C94A0
:100410005FF50C94C5320C94E5670C948DA40C9494
:10042000F1E50C9406730D94160C0C9448730C941F
:10043000DE190C9499B50C94E6660C9486360C94EF
:10044000BB300C9435A50C949D9E0C9444420C94A6
:1004500014E00C94056D0C946E440D947B1B0C946D
:1004600014D90D94A8230C94B23B0D94CA0E0C948D
:1004700028200C94EAA50C9496BC0D940E140C94B0
:10048000E2E00C9477520C94077C0D94EC1A0C94D7
:10049000511A0C94091D0C9496D90C9433190D948F
:1004A000B30D0D94432A0C9483DB0C94DD7F0D94E3
:1004B00028220C940F440C942C190C9440E60C94B4
:1004C000F5190C942AA00C94C9BC0C9469730C9473
:1004D000A39F0C948B7B0C94B09E0C94C46E0D94D3
:1004E0008F260C94E2BB0C94BC720C9497360C943F
:1004F00051340C94F12B0C94E39D0C94461A0D94FA
:100500001A1D0C94D6E50C94D0BB0C94A2DD0C946F
:100510009C7B0C943C720D94960D0C94C6E80D9443
:10052000072A0C94D4BB0C9483D90C94D3DD0C947F
:1005300080A50D94BE0E0D94810C0C9434980D94EE
:1005400002270C94CDE50C940DE20C94A2350C948A
:10055000BBE00C947A7C0C94653C0C94C5710C94B3
:10056000FF360C94DDDC0C948CF50C94717B0C94B0
:10057000D57B0C941CEF0C940C5B0C94D6DD0C9486
:10058000AD200C9434E60C94FD1C0C94F8EF0C9404
:10059000DEBB0C942AE60C94EFBC0C9438810C94CE
:1005A00008BD0D94210F0C94FB1C0C9402DF0C94DD
:1005B000ADD90C94E6A30C94B9DD0C94CD1B0C942E
:1005C000221A0D944F230C94B53B0D941A230C94CE
:1005D00029190C94EA350C94E6BB0C947D7B0C94A1
:1005E000DBBC0C94D0DE0C940FF40C94A0B50C94EE
:1005F000D8BB0C94EBEE0C9435810D9430100C9418
:10060000EE420C9405690C94639F0C94DFE50C9406
:10061000A2DF0C94BEAE0C9482F50D94A70E0C9440
:1006200004D90C94C3370C9401A50C94D4F40C9405
:1006300082280C9496F50C94B3720C94BF960C948B
:100640005C1A0C9443810C94919F0C9434F70C9495
:1006500015420C94F0BB0C94F32C0C94C5EF0C9445
:1006600010D90D94C61B0C941E980C9400D90C94B0
:100670009EBC0C948D230D94DB1A0C94C0A00C949A
:1006800068250C941D5B0C940C380C941E730C9410
:10069000E69F0D945E0C0C94C6DA0C94FD730C94DA
:1006A00069570C9417980C94E7D90D94F8140C948E
:1006B000DA7F0C94FEBC0C94CABB0D9490220C946F
:1006C000AAF50C94F8190C9418D90C94C0BB0C948E
:1006D000F9720C9470900D948D0E0C94A0740C947F
:1006E000871B0C94B7BC0D9409200C9446800C9485
:1006F000E5D90C94ADBC0C94B5A50C94E5C20C9452
:100700002D520D9424220C9402210C946DD90C943A
:1007100000730C94C1190C94BCB50D94E20D0C94AB
:10072000E2DD0D940C0E0C94342B0C94115B0C94A4
:10073000813B0D940C1B0C94DDAE0C941ADD0C94D3
:1007400063E50C94891A0C94F06D0D949E0B0C9437
:100750008D660C9459A50C9467D90D94F80E0D94E0
:100760008D1B0C94D3660C9479980C943FA00C9438
:10077000B43B0C94191A0C941F450C94CEA30C9402
:10078000DD360C944EF40C943F720C946FE60C948E
:10079000B6640C949AA40C94643C0D944A1F0C9477
:1007A00099710C9426BD0C94C6BB0C94A4660D9450
:1007B000A4300C94E41A0C94ED520C9479450C94EA
:1007C0009DAE0C9446F50D949F0E0C94DD200C9478
:1007D000CF660C94D3720C94C4E50D94DF1F0C9477
:1007E000CAB50C94B1BB0C9485A50C94607B0C9499
:1007F0002D360C947BDD0C94709F0C94D0190C94C6
:10080000B9DF0C94FF1C0C94E5BC0C94621B0C9497
:1008100007630C94C3B50C94F91C0D94A50F0C94AC
:100820001EE10C9454D90C94A0520C943D730C947A
:100830005BA40C944D9C0C94E57B0C945F7C0C9415
:1008400004250C942BE00C94DA720C94E37F0C9446
:1008500033DF0C9452E10C940F730D946D0C0C94D7
:1008600013830D9401230C94C1BC0C94784B0C940D
:1008700030F70C94B3A50C94F4C20C9412BD0C94F4
:1008800008360D94410F0C94C5DD0C94A8670D94A7
:100890008F0C0C94B5BB0D94B72A0D94EF1E0D94DC
:1008A000540E0C94F11F4E414E494E495459494E35
:1008B00046CDCCCC3D0AD7233C17B7D13877CC2BCB
:1008C000329595E6241FB14F0A000020410000C870
:1008D0004200401C4620BCBE4CCA1B0E5AAEC59DF1
:1008E000746364696E6F70737578585B00536176DA
:1008F000656420746F20454550524F4D005361761A
:10090000696E6720636F6E66696720746F20454566
:1009100050524F4D2E2E004343533831313A20412F
:100920006C726561647920696E697469616C697A59
:100930006564004343533831313A20496E6974206D
:100940006572726F7220004343533831313A204947
:100950006E697400484443313038303A20416C723B
:100960006561647920696E697469616C697A65642E
:10097000004465766963652053657269616C204E39
:10098000756D6265723D0020446576696365204936
:10099000443D3078004D616E7566616374757265B3
:1009A000722049443D307800484443313038303A71
:1009B00020496E69742E2000432C2052483D004887
:1009C0004443313038303A205374617475733D00BC
:1009D000484443313038303A204E6F7420696E6994
:1009E0007469616C697A6564004D7367496E7661FC
:1009F0006C69640052656164526567496E76616C2A
:100A00006964004D6561734D6F6465496E76616C14
:100A10006964004D6178526573697374616E6365D2
:100A2000004865617465724661756C740048656163
:100A3000746572537570706C79004343533831316B
:100A40003A204572726F7220004343533831313A75
:100A5000204661696C656420746F20676574204569
:100A600052524F525F4944207265676973746572D0
:100A70002E005D20626173656C696E655B005D20B0
:100A800074564F435B0020434F325B0063637338FF
:100A900031313A2064617461206E6F742061766137
:100AA000696C61626C6500636373383131206E6F0D
:100AB0007420696E697469616C697A656400203CB0
:100AC0003C0041433A200041433A2053657269613A
:100AD0006C2075736564206279204143202D206469
:100AE000697361626C696E672073657269616C20FD
:100AF0006C6F6767696E6720616E6420636D640068
:100B000041433A204F7574206F66206D656D6F729A
:100B1000790041433A20496E69743A200041433AD2
:100B20002044652D496E69743A20004552520041B7
:100B3000433A204F4B00203E3E200041433A2000E4
:100B400041433A20506F6C6C696E670041433A2014
:100B5000556E6D7574650000000000000000000017
:100B60004F4E000000000000004F4646000000000D
:100B70000000524553540000000000544F47474CBA
:100B80004500000048414C540000000000584F4E02
:100B9000000000000000584F4646000000000049D9
:100BA0004E43524541534500444543524541534508
:100BB00000454E41424C4500000044495341424CDF
:100BC000450000554E465245455A4500465245455A
:100BD0005A450000004155544F00000000004641B6
:100BE0004E5F4F4E4C5900484947480000000000F6
:100BF0004D454449554D0000004C4F570000000042
:100C00000000484541540000000000434F4F4C0095
:100C10000000000044525900000000000053544FEF
:100C20005000000000005247420000000000004851
:100C3000535600000000000072617700717565690D
:100C400074007377696E67006C6F636B00556E6B31
:100C50006E6F776E207375666669782000556E6BCF
:100C60006E6F776E20636D642000436F756E7465E0
:100C7000723A2000444D582D4F757420496E6974A6
:100C80003A2000444D582D4F75742073746F703A9C
:100C9000200041737369676E65643A00444D5820C3
:100CA0006374726C3A200069313600016933320096
:100CB0000275313600037533320004693868000567
:100CC00069386C0006753868000775386C0008785C
:100CD00031300009313030000A44656661756C744A
:100CE0002073657269616C206D6F6465204E3831C8
:100CF000207573656400384531002600384E310098
:100D00000600384532002E00384E32000E00384FB3
:100D100031003600384F32003E00374531002400A4
:100D2000374532002C00374F31003400374F320046
:100D30003C00374E31000400374E32000C004D426B
:100D400055533A204D6F646275732074656D706CF5
:100D5000617465206E6F7420666F756E643A200052
:100D60004D4255533A20496E76616C696420746532
:100D70006D706C6174652E002C002C002C002C0012
:100D80004D4255533A20636F6E666967206661690C
:100D90006C65643A004D4255533A20636F6E666944
:100DA00067206572726F72004D4255533A20636F2F
:100DB0006E666967206C6F6164656420004D425502
:100DC000533A204F7574206F66206D656D6F727990
:100DD000004D4255533A20506F6C6C696E67206528
:100DE00072726F7220004D4255533A204E6F74203C
:100DF000737570706F7274656420726567207479A2
:100E000070650A004D425553443A2049676E6F722F
:100E10006564202D20657175616C20776974682088
:100E20007365747465642076616C004D4255533A65
:100E3000204164642040533A20004D425553443AC7
:100E4000204D61707065643A004D425553443A201C
:100E50004E65737465644D61707065643A004C61F1
:100E600073744B6E6F776E2076616C75653A2000F7
:100E7000536561726368696E67207265673A200026
:100E8000206F7574206F662072616E6765206275D1
:100E9000666665722C206665746368696E670064B7
:100EA0006566207265672320005365617263686917
:100EB0006E672072656723003A002066726F6D20AE
:100EC0007479706520004D425553443A2020676F75
:100ED0007420002076616C3A0020004D425553206A
:100EE0007265733A20002076616C206E6F74206307
:100EF00068616E6765642E20436F6E74696E7565F8
:100F0000004D4255533A003A20657175616C20746A
:100F10006172676572742E003D004D4255533A0070
:100F20002076616C206368616E6765642E004D42B7
:100F300055533A00204E6F773A00204C6173743A53
:100F400000202300207072656665746368200020AD
:100F50005265672F636F696C206D757374206265CD
:100F600020696E740020696E7465726E616C207306
:100F7000656E64206572726F72202D206E6F207214
:100F800065672F636F696C0020696E7465726E61AE
:100F90006C2073656E64206572726F72202D206EF6
:100FA0006F2074656D706C6174650020696E746586
:100FB000726E616C2073656E64206572726F722050
:100FC0002D206E6F2073746F7265004D425553442F
:100FD0003A20656E64506F6C6C20004D425553444E
:100FE0003A20506F6C6C2000206E6F7420666F7515
:100FF0006E64004D4255533A2020706172616D203D
:10100000002073656E64696E672063616E63656C52
:101010006C6564004D4255533A2020706172616DD9
:1010200020002073656E64206572726F722E20003E
:101030004D4255533A2020004164642040563A20E6
:10104000002056616C3A20004D425553443A2073BB
:1010500075666669783A00206F72207375666669F6
:101060007820004D4255533A204E6F2074656D70C4
:101070006C61746520666F7220004D6F746F723AF8
:101080002074696D656F757400556E6B6E6F776E49
:1010900020636D64004D6F746F723A20466F726307
:1010A000656420657865637574696F6E0056454E9A
:1010B000543A20636F6E666967206661696C656487
:1010C0000056454E543A20696E69740056454E5498
:1010D0003A2044652D496E697400204F75743A00BA
:1010E000205265713A0056454E543A2000206D3327
:1010F000002066726F6D2000204D6178207265714E
:101100003A002066616E253A002061637469766555
:1011100020563A0056454E543A20546F74616C2064
:10112000563A005049443A20616C726561647920F6
:10113000696E697469616C697A6564005049443A02
:1011400020496E76616C696420706172616D206106
:10115000727261792E002C002C002C002C0050495A
:10116000443A20636F6E666967206661696C6564E6
:101170003A005049443A20636F6E66696720657291
:10118000726F72005049443A20636F6E666967203F
:101190006C6F6164656420005049443A204F757457
:1011A000206F66206D656D6F7279005049443A205A
:1011B00044652D496E69742000203C414C4D3E0031
:1011C00020443A0020493A0020503A0020696E3A03
:1011D00000207365743A005049443A200050494455
:1011E0003A20496E76616C696420706172616D208D
:1011F00061727261792E00536574206F757420746A
:101200006F20002050494420616C61726D2E2000D7
:101210002050494420616C61726D3A20636C6F7399
:101220006564005049443A20556E6B6E6F776E20AE
:1012300073756666697820005049443A20556E6B94
:101240006E6F776E20636D64200020536574706F3D
:10125000696E743A005049443A200020496E707516
:10126000742076616C75653A005049443A2000203C
:10127000696E697400200050574D2D4F75742023FE
:10128000002073746F7000200050574D2D4F7574FF
:101290002023003D0050696E3A0020696E69740099
:1012A00052656C61792D4F75742023002073746F23
:1012B000700052656C61792D4F75742023003D3E9E
:1012C000003A0070756220616374696F6E20006976
:1012D000646C65006F66660068656174696E6700BE
:1012E00066616E00647279696E6700636F6F6C6926
:1012F0006E670020697320004F75742000556E6B77
:101300006E6F776E207375666669782000556E6B18
:101310006E6F776E20636D642000616374696F6E19
:101320000072656C61794374723A200053686F777C
:101330000020636D643D002D005B305D3A2000208D
:101340002D202D202D20EFBBBF003E003E31202D53
:1013500020000000000000636D64000073657400ED
:101360000076616C000064656C0000485356000014
:10137000524742000066616E00006D6F6465006355
:1013800074726C00687565000073617400007465A8
:101390006D7000726177000020002E00696E00738E
:1013A0005F6F7574006D79686F6D65004354524CC2
:1013B0002F657865633A204F75744F664D656D6F84
:1013C00072793A2000202D3E20004D5154543A208D
:1013D00000202D3E2000456D69743A203C00202DF0
:1013E0003E20004974656D436D643A2000202D3E17
:1013F00020004974656D3A20003157543A204275F7
:1014000073207265736574206572726F7200315754
:10141000543A2042757320526573657420646F6E70
:1014200065003157543A20445332343832207072B8
:101430006573656E742C2072657365740049324360
:10144000205265736574005374617475732064650C
:101450006666657265640A002D3E005075623A202A
:10146000002D3E005075623A20002D3E00507562FE
:101470003A20000000000000636D64000073657492
:10148000000076616C000064656C000048535600F3
:1014900000524742000066616E00006D6F64650097
:1014A0006374726C00687565000073617400007489
:1014B000656D700072617700002D3E005075623AD4
:1014C00020002D3E005075623A200053454E445393
:1014D00054415455533A20556E6B6E6F776E2063AE
:1014E0006D64200A000000000000000000004F4E64
:1014F000000000000000004F464600000000000011
:10150000524553540000000000544F47474C4500DB
:10151000000048414C540000000000584F4E0000AD
:1015200000000000584F46460000000000494E43AE
:1015300052454153450044454352454153450045BA
:101540004E41424C4500000044495341424C450045
:1015500000554E465245455A4500465245455A4566
:101560000000004155544F000000000046414E5F0E
:101570004F4E4C59004849474800000000004D4577
:101580004449554D0000004C4F570000000000003A
:10159000484541540000000000434F4F4C000000FC
:1015A000000044525900000000000053544F500006
:1015B000000000005247420000000000004853565F
:1015C000000000000000206661696C65643A004D0F
:1015D0006F64627573206F7020004D423A206F6B0C
:1015E000003D004D423A205643230020636D643D88
:1015F000003D004D423A2056435F68656174230008
:101600004D423A204E6F7420737570706F7274651E
:10161000642072656720747970650A002056616CD9
:101620003A30780020543A00205265673A3078000A
:101630004D423A20416464723A00444D5800000023
:10164000000000444D58524742570000444D585244
:10165000474200000050574D0000000000004D427E
:10166000555344494D0000544845524D4F00000029
:1016700052454C41590000000047524F5550000060
:101680000000564354454D500000004D42555356FE
:10169000430000004143484149455200005350492E
:1016A0004C45440000004D4F544F52000000005084
:1016B00049440000000000004D4255530000000066
:1016C0000055415254425244470052454C415950F2
:1016D000574D00444D5852474257570056454E54B7
:1016E0005300000000454C455641544F5200434FB3
:1016F000554E544552000048554D00000000000072
:101700004D455243555259000020002D3E00436F75
:101710006E76657274696E6720002D3E0057726F99
:101720006E672041737369676E6D656E7420005239
:101730004742783A200020764C6576656C3A002066
:10174000436F6E76563A0020436F6E76533A002010
:10175000486F743A00436F6C643A0020436F6E76B2
:10176000657274656420563A00436F6E76657274D4
:10177000656420533A002D3E0057726F6E6720411A
:10178000737369676E6D656E7420002D3E0057722D
:101790006F6E672041737369676E6D656E742000AC
:1017A0000000000000000000004F4E00000000009C
:1017B00000004F4646000000000000524553540010
:1017C00000000000544F47474C4500000048414C82
:1017D000540000000000584F4E0000000000005868
:1017E0004F46460000000000494E435245415345D4
:1017F00000444543524541534500454E41424C4506
:1018000000000044495341424C450000554E4652A9
:1018100045455A4500465245455A45000000415548
:10182000544F000000000046414E5F4F4E4C59009F
:101830004849474800000000004D454449554D00C7
:1018400000004C4F57000000000000484541540084
:1018500000000000434F4F4C00000000004452596C
:1018600000000000000053544F50000000000052E0
:1018700047420000000000004853560000000000EE
:101880000020537566663A002041543A004D515489
:10189000543A20436F6D706C6574652E2052656DEF
:1018A0006F766520746F706963200024636F6D6DBF
:1018B000616E6400536B697070696E672E2E004D07
:1018C0005154543A20436C65616E557020726574B2
:1018D00061696E656420746F706963200022002264
:1018E000004F75744F664D656D6F727921005D20F4
:1018F000003A5B004D5154543A005D00456D7074E0
:10190000793A205B000A003A004D41433A005544C1
:1019100050205379736C6F6720696E697469616CCC
:10192000697A65642E0A005379736C6F6720706161
:1019300072616D733A002E6C6F63616C0053657257
:1019400076696365207265636F72643A20006D4446
:101950004E5320726573706F6E646572207374618C
:10196000727465642E004572726F722073657474B0
:10197000696E67207570204D444E532072657370F8
:101980006F6E6465722100476F7420495020616456
:1019900064726573733A00276970205B69705B2C11
:1019A000646E735B2C67775B2C7375626E65745D18
:1019B0005D5D5D27202D20736574207374617469EB
:1019C000632049500A004661696C656420746F2089
:1019D000636F6E6669677572652045746865726EBF
:1019E0006574207573696E6720444843502E2059F2
:1019F0006F752063616E20736574206970206D615E
:101A00006E75616C6C792100204D41534B3A00207A
:101A100047573A0020444E533A004C6F6164656466
:101A20002066726F6D20666C6173682049503A00C1
:101A30000A7573657320444843500A0053746172F9
:101A400074696E67206C616E004D5154543A207475
:101A5000727969796E67206E656E78742062726F34
:101A60006B6572004D5154543A20546F6F206D6174
:101A70006E7920636F6E6E656374696F6E20657238
:101A8000726F72732E2052657374617274204C41B0
:101A90004E002074727920616761696E20696E2042
:101AA00035207365636F6E6473004D5154543A2052
:101AB0006661696C65642C2072633D004D5154541D
:101AC0003A204177616974696E6720666F7220728F
:101AD000657461696E656420746F70696373006317
:101AE0006F6E6E65637465642061732000202E2E16
:101AF0002E0020757365723A003A000A4D51545415
:101B00003A20417474656D7074696E6720636F6EFE
:101B10006E656374696F6E20746F2000646973630F
:101B20006F6E6E6563746564005573696E67204DF2
:101B30005154542070617373776F72642066726FB2
:101B40006D20636F6E666967002E6C6F63616C0059
:101B50006D444E53206E616D6520757064617465CF
:101B6000643A2000446576696365204E616D653A8C
:101B7000004D5154543A204174206C6561737420B7
:101B8000646576696365206E616D6520616E6420B1
:101B900062726F6B6572204950206D75737420629C
:101BA0006520636F6E6669677572656400246E6F89
:101BB000646573004F4E2C4F46462C48414C542CC4
:101BC000524553542C584F4E2C584F46462C544F88
:101BD00047474C450024666F726D617400656E75F1
:101BE0006D002464617461747970650068737600B7
:101BF000636F6C6F7200302D32353500696E74651D
:101C000067657200666C6F617400332E302E310090
:101C100024686F6D696500757074696D652C6672F6
:101C200065656865617000373034306439625F32F1
:101C30003032342D30382D3134004C6967687448A7
:101C400075622000246E616D6500526562696E6484
:101C500020737563636573732E204950206164643B
:101C6000726573733A004572726F723A20726562E0
:101C7000696E64206661696C0052656E65776564A3
:101C800020737563636573732E204950206164640B
:101C9000726573733A004572726F723A2072656EA4
:101CA00065776564206661696C000A4E6F206C6917
:101CB0006E6B00436F6E74696E756520776974682A
:101CC0002070726576696F75736C79206C6F6164D2
:101CD000656420636F6E6669670033307320454525
:101CE00050524F4D206973206E6F742072656C6F77
:101CF000616465642E205265626F6F74004D5154AB
:101D0000543A20416363657074696E6720636F6D38
:101D10006D616E64732E2E2E0A004E6F204D51544D
:101D20005420636F6E66696775726564004C6F61FD
:101D300064696E6720636F6E6669672066726F6D97
:101D400020706F7274616C2064697361626C656489
:101D50002E2075736520676574204F4E20746F20A8
:101D6000656E61626C6500436F6E666967206973BA
:101D70002076616C696400436F6E74696E756520CE
:101D8000776974682070726576696F75736C7920F5
:101D90006C6F6164656420636F6E6669670053658C
:101DA000747570204F5441004D5154543A2073655E
:101DB000742066697273742062726F6B657200437F
:101DC000757272656E74204C414E20636F6E666949
:101DD000672869702C646E732C67772C7375626E3C
:101DE0006574293A000A5573652074686573652027
:101DF000636F6D6D616E64733A202768656C702740
:101E0000202D207468697320746578740A276D61C9
:101E1000632064653A61643A62653A65663A66656C
:101E20003A3030272073657420616E642073746FBC
:101E30007265204D41432D6164647265737320693E
:101E40006E20454550524F4D0A276970205B6970DE
:101E50005B2C646E735B2C67775B2C7375626E65AD
:101E6000745D5D5D5D27202D207365742073746142
:101E70007469632049500A277361766527202D20F5
:101E8000736176652063757272656E7420636F6E20
:101E900066696720696E204E5652414D3B204F4E79
:101EA0007C4F4646202D20656E61626C652F64690B
:101EB0007361626C65206175746F736176650A2762
:101EC00067657427205B636F6E6669672061646471
:101ED000725D27202D2067657420636F6E666967C9
:101EE0002066726F6D207072652D636F6E66696714
:101EF000757265642055524C20616E642073746F56
:101F0000726520616464722C204F4E7C4F464620DF
:101F10002D20656E61626C652F64697361626C650A
:101F200020646F776E6C6F6164206F6E20737461D4
:101F3000727475700A276C6F616427202D206C6F96
:101F4000616420636F6E6669672066726F6D204EF4
:101F50005652414D0A2770776427202D206465660C
:101F6000696E6520616E642073746F7265204D51D7
:101F700054542070617373776F72640A276F7461B1
:101F800070776427202D20646566696E6520616E18
:101F9000642073746F726520485454502041504936
:101FA0002070617373776F72640A276C6F67205BB0
:101FB00073657269616C5F6C6F676C6576656C5D8B
:101FC000205B7564705F6C6F676C6576656C5D2710
:101FD000202D20646566696E65206C6F67206C65D6
:101FE00076656C2028302E2E37290A276B696C6C99
:101FF00027202D2074657374207761746368646F83
:10200000670A27636C65617227202D20636C656108
:102010007220454550524F4D0A27736561726368BF
:1020200027202D2073656172636820312D776972D6
:1020300065206465760A277265626F6F7427202DAC
:10204000207265626F6F7420636F6E74726F6C6C58
:10205000657200536F6674207265626F6F74696E8B
:10206000672E2E2E00206E657700206973200031C8
:1020700057543A003157543A205365617263686986
:102080006E67206465760052414D3D000A537973B6
:102090006C6F6720000A312D7769726520000A6D28
:1020A00071747420000A6D6F64627573207632005B
:1020B0000A6D6F6462757320763120282B29000A1F
:1020C000696E7075747320000A6974656D73200001
:1020D0000A436F6E666967757265643A00496E6996
:1020E0007469616C697A696E6720496E7075747382
:1020F000003157543A207365747570207265736FA0
:102100006C7574696F6E20003157543A2044533215
:102110003438322D313030206E6F74207072657318
:10212000656E74003157543A204453323438322D9E
:102130003130302049324320726573746F726564A8
:10214000003157543A2042757320726573657420CC
:102150006572726F72003157543A20427573205283
:102160006573657420646F6E65003157543A20447E
:1021700053323438322D3130302070726573656ED1
:10218000742C207265736574004572726F72203111
:102190002D7720696E6974003157543A20445332C8
:1021A0003438325F3130305F4932435F544F5F31F2
:1021B000575F42524944474520696E697400444D57
:1021C000584F75742E20467265653A00444D586923
:1021D0006E2042756666657220616C6C6F63206567
:1021E000727200496E697420696E2063683A003B20
:1021F000003D0050696E3A003B003D4C4F57005483
:102200006865726D6F3A004F6E6520776972652060
:1022100052656164790A00467265653A00444D581A
:10222000206F757420737461727465642E20436826
:10223000616E6E656C733A2000444D5820696E20C3
:10224000737461727465642E204368616E6E656C90
:10225000733A0042726F6B65727320636F6E6669CA
:1022600067757265643A004170706C79696E6720B9
:10227000636F6E666967004C6F61646564204554E6
:1022800041473A004E6F2073746F72656420636F2C
:102290006E666967004C6F616465642066726F6D7D
:1022A00020454550524F4D006C6F61642066616956
:1022B0006C6564004A534F4E2064657465637465B1
:1022C00064004C6F6164696E6720436F6E66696776
:1022D0002066726F6D20454550524F4D00436F6E22
:1022E000666967206175746F736176653A000A5399
:1022F00079736C6F67206465627567206C657665BD
:102300006C3A0053657269616C2064656275672080
:102310006C6576656C3A0053617665640A005365B6
:10232000742064796E616D69632049500A004F54CE
:10233000412050617373776F7264207570646174AB
:1023400065640A004E6F20495020616472657373A2
:1023500000205361766564004C6F6164696E67208C
:102360004854545020636F6E666967206F6E207307
:102370007461727475703A00000000000000000083
:10238000004F4E000000000000004F4646000000D5
:10239000000000524553540000000000544F4747CE
:1023A0004C4500000048414C540000000000584FCC
:1023B0004E000000000000584F464600000000009C
:1023C000494E4352454153450044454352454153CC
:1023D0004500454E41424C450000004449534142AE
:1023E0004C450000554E465245455A45004652451B
:1023F000455A450000004155544F0000000000467A
:10240000414E5F4F4E4C590048494748000000007C
:10241000004D454449554D0000004C4F5700000009
:10242000000000484541540000000000434F4F4C5D
:102430000000000000445259000000000000535406
:102440004F50000000000052474200000000000012
:10245000485356000000000000636F756C64206EE6
:102460006F742070617273653A20005570646174F6
:1024700065640A00454550524F4D20636C6561729A
:1024800065640A004D5154542050617373776F7224
:102490006420757064617465640A002B002D00452A
:1024A0005461673A200047657420455441473A20FB
:1024B00000485454502F312E310025733A20257393
:1024C0000D0A0020485454502F312E310D0A486F08
:1024D00073743A2025730D0A4163636570743A2062
:1024E0002A2F2A0D0A436F6E6E656374696F6E3A08
:1024F00020636C6F73650D0A0025730020000D0AC0
:1025000000474554006661696C656420746F206300
:102510006F6E6E6563740A004552524F523A2053F3
:1025200065727665722072657475726E65642000DE
:10253000436F6E666967206E6F74206368616E67B3
:1025400065640A00446F6E652E0A00436F6E66690B
:10255000672070617273696E67206661696C65647B
:102560000A004765742061626F7274656400676F6A
:102570007420436F6E6669670A0068747470207215
:102580006574636F64652000667265652000436F43
:102590006E666967205552493A20687474703A2F04
:1025A0002F002044656661756C7420636F6E6669E8
:1025B000672073657276657220757365643A2000D2
:1025C0006C617A79686F6D652E7275000A282D2905
:1025D00043414E000A282D294D455243555259007A
:1025E0000A282B294D554C544956454E54000A286B
:1025F0002B2950574D5F52454C4159000A282B2931
:102600004D444E53000A282D2955415254425249F7
:10261000444745000A282B295359534C4F47000A79
:10262000282B29504944000A282D294D4350323384
:10263000303137000A282D294152544E4554000AA2
:10264000282D294F5441000A282B29535049204C4A
:102650004544000A282B294D4F544F5220435452D1
:10266000000A282B294143204841494552206F6EDA
:102670002053657269616C33000A282B2943435348
:1026800038313120262048444331303830000A2880
:102690002B29524553544152545F4C414E5F4F4E8B
:1026A0005F4D5154545F4552524F5253000A282DEA
:1026B000294841524452455345542C207573696E44
:1026C0006720736F6674000A282B29434F554E54B8
:1026D0004552000A282B29444854000A282B294433
:1026E00053323438322D313030000A282B294F57DD
:1026F000495245000A282D2949504D4F444255530F
:10270000000A282B294D4F4442555320307830364B
:102710002061742053657269616C32207370656545
:10272000643A39363030000A282B29414441465258
:10273000554954204C4544000A282B29444D580043
:102740000A282B2957697A6E657435313030000AB2
:10275000282B294672656552616D207072696E740E
:10276000696E67000A282B295741544348444F4754
:10277000006C617A79686F6D652E7275000A436F1F
:102780006E666967207365727665723A0032303121
:102790003130334C0020432B2B2076657273696FE8
:1027A0006E3A00373034306439625F323032342D63
:1027B00030382D3134000A4C617A79686F6D652E9E
:1027C0007275204C6967687448756220636F6E7417
:1027D000726F6C6C65722000204F464600204F4E91
:1027E0000020425950415353000000220025002888
:1027F000002B002E0031003400020100000501080A
:10280000010B0100000A0B02090C0D0E080703045E
:1028100001000000000000000000000000000000B7
:102820000000000000000000000000000000001296
:102830001110000000000000000000000000000077
:10284000000000000000000000000021002400271C
:10285000002A002D003000330001010000040107B0
:10286000010A010102102020080810204010204019
:102870008002010201080402010102040810204044
:102880008080402010080402018004020180402062
:10289000100804020108040201010204081020408B
:1028A0008001020408102040800505050507050881
:1028B000080808020202020A0A08080404040401C3
:1028C00001010101010101030303030303030304E5
:1028D0000707070C0C0C0C0C0C0C0C020202020675
:1028E000060606060606060B0B0B0B0B0B0B0B2046
:1028F0006973200044656C6574696E6720636F6E50
:10290000662E2052414D207761733A0053746F70E8
:10291000706564006E6F7468696E6720746F2073F1
:10292000746F700053746F7070696E6720636861B4
:102930006E6E656C73202E2E2E0043616E206E6FBE
:102940007420636C65616E202D206C6F636B656411
:102950000057726F6E67207061796C6164004D5131
:1029600054543A204354524C2F7478743A204F7583
:10297000744F664D656D6F72793A2000556E7370B5
:1029800065636966696564206572726F722E0047BF
:10299000454E455249435F4552524F5200494E54AD
:1029A00045524E414C5F4552524F52004932435FAF
:1029B0004552524F520049445F4552524F520053C4
:1029C000554343455353004343533831313A200074
:1029D000202D3E2041543A004368616E2074797086
:1029E000653A004E6F2073746F7265642076616C77
:1029F000756573202D2064656661756C743A2000DE
:102A0000536176656420455441473A00536574200C
:102A1000455441473A2000556E6B6E6F776E2073B8
:102A200075666669782000556E6B6E6F776E2063F1
:102A30006D642000636C724374723A2000454F4607
:102A4000002F00496E3A20002500C2B04320483DC7
:102A50000020444854323220747970652E20543D51
:102A600000494E3A00204E6F20656D697420646104
:102A70007461210020436F756E74657220747970E3
:102A8000652E2076616C3D00494E3A0020436F75FB
:102A90006E74657220747970652E20494E434F52D2
:102AA0005245435420496E74657272757074206E7D
:102AB000756D626572212121004952513A002D3E07
:102AC00000200023002D3E00200050656E646564E8
:102AD0003A2023003D00494E3A003D004C45474115
:102AE000435920494E3A00737566666978436F64AE
:102AF000653A0020666F7220286D73293A004354AE
:102B0000524C3A205363686564756C6520636D644C
:102B10002000206D73203A0041726D656420666F5D
:102B20007220002044697361726D656400207469CD
:102B30006D653A004354524C3A205265733A002076
:102B400054533A0020543A00544845524D3A0043F9
:102B50006C65616E696E6720616C61726D20003D0D
:102B60000050696E3A004354524C3A20436F6D6DE9
:102B7000616E6420626C6F636B65642062792064AF
:102B80007269766572206F72206368616E6E656C23
:102B90002066726F7A656E004354524C3A204F4E55
:102BA0003A416C7265616479204163746976650AA3
:102BB000004354524C3A2048414C543A416C72659F
:102BC00061647920496E6163746976650A004354D3
:102BD000524C3A20584F4E3A2044697361626C65FA
:102BE000640A004354524C3A20584F4E3A416C729A
:102BF00065616479204163746976650A00435452C3
:102C00004C3A20584F464620736B69707065642EAD
:102C1000205072657620636D643A004354524C3AFA
:102C2000205475726E6564206F66662066726F6DE3
:102C30003A004354524C3A20526573746F72656483
:102C40002066726F6D3A004354524C3A2049676EC9
:102C50006F7265642C206368616E6E656C20636DB5
:102C6000643D0020457865633A004354524C3A2055
:102C70004163746976653A004354524C3A204841A6
:102C80004C543A416C726561647920496E61637499
:102C90006976650A004354524C3A20584F4E3A2008
:102CA00044697361626C65640A004354524C3A2073
:102CB000584F4E3A416C7265616479204163746982
:102CC00076650A004354524C3A20584F46462073CA
:102CD0006B69707065642E205072657620636D6438
:102CE0003A004354524C3A205475726E6564206F1A
:102CF00066662066726F6D3A004354524C3A205219
:102D00006573746F7265642066726F6D3A00435428
:102D1000524C3A204E6F7420656E6F756768206D57
:102D2000656D6F727920666F722067726F757020A3
:102D30006F7065726174696F6E00496E76616C695F
:102D4000642061726700496E76616C69642061720B
:102D500067004354524C3A20556E6B6E6F776E206D
:102D600073756666697800536B6970706564206876
:102D70006F6D696520737475666600200020537559
:102D8000623D00204974656D3D004354524C3A2029
:102D900052414D3D004354524C3A204F75744F669A
:102DA0004D656D6F72793A2000282D292000282B5F
:102DB0002920002076616C756520697320002075DC
:102DC0006E6B6E6F776E0A005D3D005B0020696E72
:102DD00076616C6964002000206F6B003A00206609
:102DE00061696C6564003A005265747279696E6756
:102DF00020564354454D5020434D440A00526574BB
:102E00007279696E6720564320434D440A0052652B
:102E1000747279696E67206D6F6462757320434DBB
:102E2000440A005265747279696E6720434D440A02
:102E300000206572726F723D004D423A20706F6CD7
:102E40006C696E6720002056616C3A20004D423A52
:102E500020004D423A204E6F7420737570706F726F
:102E60007465642072656720747970650A004D424C
:102E70003A20706F6C6C696E672064696D6D657265
:102E800020004D423A20496C6C6567616C2061728C
:102E900067756D656E74730A00206572726F723D9E
:102EA000004D423A20706F6C6C696E67205049206B
:102EB000002D004D423A2050492056616C203A00C6
:102EC0004D423A20706F6C6C696E6720504920004B
:102ED0004D423A20706F6C6C696E6720464D2066DB
:102EE00061756C742000206572726F723D004D42F6
:102EF0003A20706F6C6C696E6720002D004D423A6D
:102F000020464D2056616C203A004D423A20706FA9
:102F10006C6C696E6720464D20004354524C2F70F4
:102F20006F6C6C3A204F75744F664D656D6F72799A
:102F30003A2000207365632072656D61696E696E69
:102F40006700005EBCE2613FDD83C29C7E20A3FD82
:102F50001F419DC3217FFCA2401E5F01E3BD3E6077
:102F600082DC237D9FC1421CFEA0E1BF5D0380DEA9
:102F70003C62BEE0025CDF81633D7C22C09E1D435B
:102F8000A1FF4618FAA427799BC584DA3866E5BB09
:102F90005907DB856739BAE406581947A5FB782637
:102FA000C49A653BD987045AB8E6A7F91B45C69869
:102FB0007A24F8A6441A99C7257B3A6486D85B051B
:102FC000E7B98CD2306EEDB3510F4E10F2AC2F71C9
:102FD00093CD114FADF3702ECC92D38D6F31B2ECF7
:102FE0000E50AFF1134DCE90722C6D33D18F0C5229
:102FF000B0EE326C8ED0530DEFB1F0AE4C1291CFDB
:103000002D73CA947628ABF517490856B4EA693788
:10301000D58B5709EBB536688AD495CB2977F4AAB6
:103020004816E9B7550B88D6346A2B7597C94A14E8
:10303000F6A8742AC896154BA9F7B6E80A54D7899A
:103040006B35436F6E6E65637465642E00436F6EFF
:103050006E2E2061626F72746564003E3E200049EE
:103060006E76616C696420636F6D6D616E640000E3
:103070000020002300260029002C002F0032000031
:103080000100000301060109013E3E3E004E6F2093
:103090004D414320636F6E666967757265643A20BF
:1030A000736574206669726D776172652773204D50
:1030B00041430A00454550524F4D207369676E6188
:1030C00074757265206F6B00496E697469616C6913
:1030D0007A696E6720454550524F4D2E002072652B
:1030E0006164206572726F7220666F7220003E20EC
:1030F00000203C003157543A003157543A206E6F4B
:103100007420696E6974003157543A2042555359FE
:103110002074696D656F7574003157543A204453BB
:10312000323438325F4552524F525F434F4E464918
:1031300047003157543A20312D7769726520736802
:103140006F727465640072656164790024737461E0
:10315000746500757074696D650066726565686593
:103160006170002473746174730020457870697213
:1031700065640A00202D746172676574207A6F6E31
:10318000652D0020416C61726D2045787069726513
:10319000640A0020636D643A00204375723A00208F
:1031A0005365743A002054696D65723A00204C6F83
:1031B000636B733A0052414D3D001D01D70311244A
:1031C0001FBECFEFD1E2DEBFCDBF00E00CBF1AE0E3
:1031D000A0E0B2E0E6E9FCE902E00BBF02C0079024
:1031E0000D92A033B107D9F722E1A0E3BAE001C004
:1031F0001D92AB33B207E1F718E1CEEDD8E100E064
:1032000006C021970109802FFE010F940F46CD3D86
:10321000D10780E00807A9F70F94E0340D94394EE8
:103220000C94000090E0FC01E755F74DE491F0E0CC
:10323000EE0FFF1FE751F84DA591B4912C918D59D8
:10324000974DFC018491822391E009F490E0892F4D
:10325000089590E080E00895DC01ED91FC910284F6
:10326000F385E02D1994DF92EF92FF920F931F9355
:10327000CF93DF93EC010C891D890115110559F0DD
:103280001D8A1C8AC801DF91CF911F910F91FF9079
:10329000EF90DF900895EC85FD858E859F85DF0199
:1032A000A80FB91F2C91243209F055C011962C910A
:1032B0002B3709F050C00296E80FF91FF12CE12CD2
:1032C000DF01D190DD2009F446C08DE7D816E9F082
:1032D0008FEFE81AF80AF4CF198A188A2C853D85F1
:1032E0002115310579F08E859F85280F391FF90149
:1032F0002081222321F001969F878E873EC01D8664
:103300001C86C0CF0FEF1FEFBDCFE114F10419F100
:103310001C928E859F8502966C857D85680F791F2E
:10332000E881F9810684F785E02DCE011995998B06
:10333000888B1B8A1A8AEC85FD858E859F85E80F10
:10334000F91FEE0DFF1DD2828E859F850396E80E34
:10335000F91EFF86EE86288939892115310509F481
:10336000BDCF8A899B89280F391FF901208122232B
:1033700009F4B2CF01969B8B8A8B022F220F110B7F
:1033800081CFDC011C96ED91FC911D971E968D91CD
:103390009C91E80FF91F8081082E000C990B08956D
:1033A000DC0115968D919C91009739F0DC01ED912F
:1033B000FC910680F781E02D19940895FC01838526
:1033C00094859C0144E0359527954A95E1F756E0B0
:1033D000959587955A95E1F72817390719F081E0F7
:1033E00090E0089582E090E0089583E090E00895F1
:1033F000DC011296ED91FC9113973097B9F0169677
:103400008D919C918430910541F08530910541F07A
:10341000039749F482E090E0089581E090E00895F8
:1034200081E190E00895828590E0089590E080E049
:10343000089585E090E0089590E080E008958EE0A2
:1034400090E00895DC011296ED91FC91139730976E
:10345000B9F016968D919C918430910541F085309C
:10346000910541F0039749F482E090E0089581E0EE
:1034700090E0089581E190E00895828590E00895BC
:1034800090E080E0089584E190E00895DC01ED9102
:10349000FC910484F585E02D60E0199581E090E0D1
:1034A0000895DC011496ED91FC9180E0309711F0C5
:1034B00085A1817090E00895CF92DF92EF92FF9204
:1034C0000F931F93CF93DF937C01CB018A0120914F
:1034D000A40B222389F0EB016B01C40ED51ECC1581
:1034E000DD0569F06991D701ED91FC910190F081C2
:1034F000E02DC7011995F3CF642F0F94E02EC8017A
:10350000DF91CF911F910F91FF90EF90DF90CF90BF
:103510000895CF93DF931F92CDB7DEB769832091D3
:10352000A40B2223F9F02091A20B203258F021E0C5
:1035300030E0FC013383228390E080E00F90DF9144
:10354000CF9108958091A30BE82FF0E0EE57F44F50
:10355000998190838F5F8093A30B8093A20B81E06E
:1035600090E0ECCF61E0CE0101960F94E02EF7CF12
:10357000CF93DF93EC0162EB72E182EA9FE00F945C
:10358000A0156C817D814AE050E082EA9FE00F94B3
:10359000F1146CEA72E182EA9FE00F94A01582EACE
:1035A0009FE00F94E41360E08C810E9422BCE881CC
:1035B000F9810484F585E02D60E0CE01199581E064
:1035C00090E0DF91CF910895CF93DF93EC016CEC05
:1035D00070E182EA9FE00F94A01582EA9FE00F94C9
:1035E000E413E881F9810484F585E02D60E0CE01E3
:1035F000199581E090E0DF91CF910895CF93DF930B
:10360000EC0169E872E182EA9FE00F94A0156C81F9
:103610007D814AE050E082EA9FE00F94F11467E870
:1036200072E182EA9FE00F94A015EA81FB8102809B
:10363000F381E02D6081718182EA9FE00F943A1559
:1036400061E872E182EA9FE00F94A01582EA9FE0B0
:103650000F94E413E881F981048CF58DE02DCE01FF
:1036600019958130910529F0029759F060E08C811D
:103670001AC063E070E0CE010F942B0B60E00E9453
:1036800022BC60E08C810E9422BC61E070E0CE012F
:103690000F942B0B60E00E9422BC62E070E0CE0130
:1036A0000F942B0B60E00E9422BCE881F981048416
:1036B000F585E02D60E0CE01199581E090E0DF9185
:1036C000CF910895CF93DF93EC0163E87CE082EA29
:1036D0009FE00F94A015EA81FB810280F381E02D29
:1036E0006081718182EA9FE00F943A1582EA9FE03F
:1036F0000F94E413E881F9810484F585E02D60E0FE
:10370000CE01199581E090E0DF91CF910895EF927D
:10371000FF920F931F93CF93DF93EC018B01809166
:10372000220B9091230B0097A9F0FC0120852F70AC
:10373000263081F40E94B7ADFC0190859F709430D3
:1037400049F481859285DF91CF911F910F91FF9070
:10375000EF900895EE88FF88C70101970D97D0F488
:103760006DEB75E0C8010F947C4A892B99F48FE2C8
:10377000888F85E08E9DB0018F9D700D11246E5A4B
:103780007C4E46E050E0CE0149960F94903ECE012B
:103790004896D9CF90E080E0D6CF4F925F926F925B
:1037A0007F92BF92CF92DF92EF92FF920F931F937F
:1037B000CF93DF9300D000D0CDB7DEB77C01B62E1B
:1037C0008091270B882309F4BDC0D70114969C91E2
:1037D00080914402891708F4B5C080918F0A9091B6
:1037E000900ABAE06B13EFC0815C954FFC01108228
:1037F000D70118960D911C910115110509F49EC071
:10380000F801618572856115710591F445805680D6
:10381000678070848091E20C9091E30CA091E40C9D
:10382000B091E50C481659066A067B0609F486C075
:10383000D8011B964D915C911C974115510509F4D7
:103840007DC0F701248153968C91539790E0322FDD
:10385000377002C0959587953A95E2F780FF6EC064
:10386000C22ED12CC601887F9370892B39F45196D2
:103870008D919C91887F9370C82AD92AD8018D9107
:103880009C91DC01ED91FC916115710509F485C0F5
:103890000688F789E02D1995019709F04FC06CE370
:1038A000F801808191810F94A2144AE050E0B601A2
:1038B000D8018D919C910F940114F801228180818F
:1038C00091816CE473E1222311F06AE473E10F94B7
:1038D000A015D8011D966D917C911E978D919C919C
:1038E0000F943A1560E2F801808191810F94A2143F
:1038F000D8011F966D917C9150978D919C910F945A
:103900003A15F8012281808191816FE373E12223CE
:1039100011F069E373E10F94A0156FE37AE0D80129
:103920008D919C910F943A15F80180819181DC0171
:10393000ED91FC91008CF18DE02D19951092900A7B
:1039400010928F0AD70115968D919C91169700972A
:1039500071F014963C9120914502231740F0DC0150
:10396000ED91FC910190F081E02D6B2D199581E096
:1039700090E026960FB6F894DEBF0FBECDBFDF9164
:10398000CF911F910F91FF90EF90DF90CF90BF905C
:103990007F906F905F904F9008950488F589E02D97
:1039A00023E635E03A832983D80115964D905D9042
:1039B0006D907C9018974B825C826D827E82BE01F6
:1039C0006F5F7F4F68CF8F3491050CF0BBCFBDE0A8
:1039D0006B1709F4B7CF9C012F5F3F4F3093900ACC
:1039E00020938F0A815C954FFC016083ABCF0D94CF
:1039F000BC3C0D94BC3C0D94BC3C0D94BC3C0D9463
:103A0000BC3C0D94BC3C0D94BC3C0D94BC3C0D9452
:103A1000BC3C0D94BC3C2F923F924F925F926F92B0
:103A20007F928F929F92AF92BF92CF92DF92EF924E
:103A3000FF920F931F93CF93DF93CDB7DEB7AA9773
:103A40000FB6F894DEBF0FBECDBF5C010E8F1F8F87
:103A500028A339A34AA35BA36CA37DA31C8A1B8A5A
:103A6000DC0118968D919C9101979E8B8D8BE114B2
:103A7000F104D1F0CE0145969F938F9302979F93C7
:103A80008F9381EC95E09F938F93FF92EF920F9429
:103A9000314B0FB6F894DEBF0FBECDBF019721F4B6
:103AA0008B899C899E8B8D8B6B897C894AE050E049
:103AB00082EA9FE00F94F11467E373E182EA9FE0EA
:103AC0000F94A0156D897E894AE050E082EA9FE05C
:103AD0000F94F11461E373E182EA9FE00F94A01563
:103AE000FE8DFAA74AE050E06F2F82EA9FE00F9424
:103AF000071482EA9FE00F94E41319861A861B8646
:103B00001C861D861E861F86188A8A85807F846093
:103B10008A87D50118968D919C912D893E89281709
:103B200039071CF001979E8B8D8B8B899C8997FFA1
:103B300002C01C8A1B8A8B889C885401312C212C42
:103B40008D899E898A159B050CF46AC1BAA5B1308E
:103B500091F1B23009F453C1EE24EA94FE2C0E8D9B
:103B60001F8D28A139A14AA15BA16CA17DA1CE0125
:103B700009960E9440A329833A834B835C836D831B
:103B80007E838F83988780913D0A90913E0AFC0145
:103B900022813381A216B30608F088C06F852E8576
:103BA00030E050E040E0542F432F322F2227462BA5
:103BB0006D85262B33C1E0903D0AF0903E0AF70157
:103BC00082819381A816B90608F070C09685538546
:103BD000018512854084A92FB0E06484712C65852D
:103BE00070E09401220D331D951372C0A901440F9A
:103BF000551F240F351F200F311FA20FB31F9C919B
:103C0000F301E20FF31F1081260F371FD9010C912A
:103C1000442009F452C0512C712C612C692F70E0A2
:103C2000762F6627072E000C880B990BA3019201B3
:103C30000F949845C901772766276EA37FA388A7AD
:103C400099A7612F70E0762F6627072E000C880B4E
:103C5000990BA30192010F949845542F432F322FB3
:103C600022278EA19FA1A8A5B9A5822B932BA42BB7
:103C7000B52B8EA39FA3A8A7B9A7602F70E0762FBE
:103C80006627072E000C880B990BA30192010F9455
:103C900098456EA17FA188A599A5262B372B482B87
:103CA000592B232B242B252B09F4A0C0FFEFAF1A8F
:103CB000BF0A2FEF221A320A43CF212F30E050E003
:103CC00040E0542F432F322F2227492B202BE9CFBE
:103CD000C901880F991F880F991F800F911FA80F86
:103CE000B91F3C91DC01A50FB11D0C91F301E80F48
:103CF000F91FD080860F971FDC011C91442009F426
:103D000063C0512C712C612C632F70E0762F6627D5
:103D1000072E000C880B990BA30192010F94984574
:103D2000922F8827772766276EA37FA388A799A756
:103D3000602F70E0762F6627072E000C880B990BFA
:103D4000A30192010F949845A901332722278EA140
:103D50009FA1A8A5B9A5822B932BA42BB52B8EA32D
:103D60009FA3A8A7B9A7612F70E0762F6627072E1B
:103D7000000C880B990BA30192010F9498456EA13A
:103D80007FA188A599A5622B732B842B952B6EA3FD
:103D90007FA388A799A76D2D70E0762F6627072E41
:103DA000000C880B990BA30192010F949845542F96
:103DB000432F322F22278EA19FA1A8A5B9A5282B7A
:103DC000392B4A2B5B2B6DCF802F90E0B0E0A0E029
:103DD000DC0199278827B32BAC01412B8A019D0177
:103DE0001D29012B022B032B09F060CF2FEF3FEF92
:103DF0004FEF50E0B501C7010F944F1757CF809197
:103E00003D0A90913E0ADC0112962D913C91A2163A
:103E1000B30608F04BCF20E030E0A901B501ECCFAC
:103E2000CC2009F488C000913D0A10913E0AD801C7
:103E300019968D919C91892B09F473C00E9452BDF3
:103E4000F801C784D088E188F2886C157D058E055D
:103E50009F0520F46787708B818B928BF801C78454
:103E6000D088E188F2886C197D098E099F096C322F
:103E700071408105910510F3F894D80114968D9145
:103E80009C9115979A8B898B1996ED91FC917F01E6
:103E9000BFEFEB1AFB0A80818D8FF80190810388B8
:103EA000F489E02DD80155968C91992309F45EC0D0
:103EB0009081982B9C8F9081809589238B8F8B8DFF
:103EC000888F88E08F8B5C8D6B8D4D8D3F89288D21
:103ED00089899A89D701508347FD252F3A952083F8
:103EE000262F39F0441F00C000006083000000C08E
:103EF000F2CF38E04D9160830000019761F7D8015F
:103F00005496FC93EE9353974D8F3F8B288F9A8B4B
:103F1000898B78940E9452BDF8016787708B818BE2
:103F2000928B6CE273E182EA9FE00F94A01582EA23
:103F30009FE00F94E41381E090E0AA960FB6F89406
:103F4000DEBF0FBECDBFDF91CF911F910F91FF90CC
:103F5000EF90DF90CF90BF90AF909F908F907F9029
:103F60006F905F904F903F902F9008959081982B85
:103F70009C8F9081809589238B8F8B8D8A8F88E091
:103F8000898F5C8D6B8D4D8D398D2A8D89899A89AC
:103F9000D701508347FD252F00C000C0208300C0FB
:103FA00000C000C000C000C060830000262F3A950A
:103FB00041F0441F000000C000C000C000C000C0AD
:103FC000E8CF38E04D9100C0608300C0019709F749
:103FD000D8015496FC93EE9353974D8F398F2A8FC7
:103FE00096CF0F931F93CF93DF938C0167EC75E00F
:103FF00082EA9FE00F94E813C0913D0AD0913E0AF7
:104000004C815D8170E060E089859A850F94A943B9
:10401000209771F089859A850F94BC3C8E819F8191
:1040200097FD03C060E00E9422BCCE010F94BC3C0F
:10403000D801ED91FC910484F585E02D60E0C80184
:10404000199581E090E0DF91CF911F910F91089534
:10405000CF93DF93EC0167E772E182EA9FE00F9470
:10406000A0156C817D814AE050E082EA9FE00F94C8
:10407000F11465E772E182EA9FE00F94A015EA81EE
:10408000FB810280F381E02D6081718182EA9FE0F3
:104090000F943A156FE672E182EA9FE00F94A01543
:1040A00082EA9FE00F94E4138A819B81892B09F4B3
:1040B00051C08C819D81892B09F04CC0E881F98128
:1040C000048CF58DE02DCE0119958130910529F0F4
:1040D000029759F061E08C811AC063E070E0CE0174
:1040E0000F942B0B61E00E9422BC61E08C810E9446
:1040F00022BC61E070E0CE010F942B0B61E00E94C6
:1041000022BC62E070E0CE010F942B0B61E00E94B4
:1041100022BC8091A100887F8093A10080919100B2
:10412000887F809391008091A10082608093A1009C
:1041300080919100826080939100E881F9810484EC
:10414000F585E02D62E0CE01199581E090E0DF91E8
:10415000CF91089590E080E0FACFCF93DF93EC0108
:1041600064E77CE082EA9FE00F94A015EA81FB817E
:104170000280F381E02D6081718182EA9FE00F94DB
:104180003A1582EA9FE00F94E413E881F9810484F0
:10419000F585E02D62E0CE01199581E090E0DF9198
:1041A000CF910895DC01ED91FC910484F585E02D1B
:1041B00062E0199581E090E00895CF93DF93EC01E0
:1041C00067ED75E082EA9FE00F94E81340E050E06D
:1041D000BA018A819B810E948CE3E881F981048481
:1041E000F585E02D60E0CE0119956D858C810E94EA
:1041F000F4BB6D858D810E94F4BB81E090E0DF917E
:10420000CF910895FC01828193810E9462E621E0B2
:1042100030E0823011F430E020E0C90108950F93BE
:104220001F93CF93DF938C01D0E0C0E001151105FF
:10423000B1F0BE016955734FC8010F94593E892BE7
:1042400051F4FE01E555F34F849190E0DF91CF9159
:104250001F910F9108952596C233D10539F781E05A
:1042600090E0F4CFFF920F931F93CF93DF93CDB7DE
:10427000DEB764970FB6F894DEBF0FBECDBF8C01DA
:10428000F62E8FE290E09A838983FE01339688E0D0
:10429000DF011D928A95E9F7F8016681FF2011F090
:1042A00081E06827D80114968C910E94F4BBF80134
:1042B00087819085A185B285883E9340A105B1058F
:1042C00008F491C068EF72E182EA9FE00F94A015B4
:1042D000D80114966D917C914AE050E082EA9FE00B
:1042E0000F94F11463EF72E182EA9FE00F94A0153E
:1042F0006F2D70E04AE050E082EA9FE00F94F114E5
:1043000082EA9FE00F94E4136AE173E1CE01019623
:104310000F944E3EF801828193810E9462E6FF2055
:1043200009F46DC06BEE72E1843151F064EE72E11C
:10433000853131F068ED72E18F3011F460EE72E199
:10434000CE010B960F94623E63EC72E182EA9FE02D
:104350000F94A015D8011296ED91FC91139702804D
:10436000F381E02D60817181ED91FC910288F389E8
:10437000E02D9E012F5F3F4FAE01455F5F4FC801AB
:1043800019954AE050E0BC0182EA9FE00F94F114D5
:1043900061EC72E182EA9FE00F94A015D8011296B9
:1043A000ED91FC910280F381E02D6081718182EAC0
:1043B0009FE00F943A15BE016F5F7F4F82EA9FE046
:1043C0000F943A156EEB72E182EA9FE00F94A0150C
:1043D000BE01655F7F4F82EA9FE00F943A1582EA43
:1043E0009FE00F94E41364960FB6F894DEBF0FBEFF
:1043F000CDBFDF91CF911F910F91FF90089564ED94
:1044000072E1823009F49CCF6FEC72E199CFAF92E8
:10441000BF92CF92DF92EF92FF920F931F93CF93B1
:10442000DF93CDB7DEB768970FB6F894DEBF0FBE47
:10443000CDBFFC01098B1A8B2B8B3C8B4D8B5E8B7C
:104440006F8B788F82819381009709F4A1C02481BA
:104450003581232B09F49CC0CC2009F499C06F014D
:1044600070E060E00E9470E4192FD601ED91FC919C
:10447000048CF58DE02DC60119955C018230910503
:1044800009F47AC0039709F445C095E0F1E0AF164E
:10449000B10409F091E019861A861B861C861D86D8
:1044A0001E861F86188A8A85807F892B8A87EE243C
:1044B000EA94FE2C09891A892B893C894D895E89E9
:1044C0006F89788DCE0109960E9440A3F1E0AF1666
:1044D000B10409F453C082E0A816B10409F049C040
:1044E0006F8570E0D60114968C910E945EBC61E0ED
:1044F00070E0C6010F942B0B6E8570E00E945EBCCD
:1045000062E070E0C6010F942B0B6D8570E00E9495
:104510005EBC2FC0612F661F6627661FCE014196C5
:104520000E9479715C01BC01D60114968C910E94A5
:104530005EBC65E972E182EA9FE00F94A015F60186
:10454000648175814AE050E082EA9FE00F94F114A3
:1045500063E972E182EA9FE00F94A0154AE050E01F
:10456000B50182EA9FE00F94F11482EA9FE00F9474
:10457000E41381E090E00EC094E08DCF63E070E042
:10458000C6010F942B0B688970E00E945EBCA8CF17
:1045900090E080E068960FB6F894DEBF0FBECDBF06
:1045A000DF91CF911F910F91FF90EF90DF90CF900F
:1045B000BF90AF900895CF92DF92EF92FF920F934A
:1045C0001F93CF93DC011296ED91FC9160E0848102
:1045D00095810E9469AE8C01009729F0FC018085CD
:1045E0008F708530D1F06DED71E18BEF9EE00F940F
:1045F000A0158BEF9EE00F94E413C12CD12C90E812
:10460000E92E9FEBF92EC701B601CF911F910F91B3
:10461000FF90EF90DF90CF900895C8010E94FAAE0E
:10462000813040F18630A8F1893020F565E0C8017D
:104630000E9469AEFC0190859F709330F9F4C184AB
:10464000D284E384F484C1E060E0C8010E9469AED2
:10465000FC0190859F70933009F561857285838593
:10466000948520E030E0A9010F944E4487FF1FC0DD
:10467000C111C9CFC12CD12C7601C5CF923049F4DC
:1046800061857285838594850F9455446B017C0107
:10469000DACFC0E0C12CD12C7601D6CF923039F4DC
:1046A00061857285838594850F945544DACFC11155
:1046B000AACFC12CD12C8FE7E82E83E4F82EA3CF0C
:1046C000CF93DF93EC016BEA71E182EA9FE00F94F4
:1046D000A015EA81FB810280F381E02D6081718168
:1046E00082EA9FE00F94E813EC81FD81309721F07E
:1046F000808191810F94BC3C8C819D810F94BC3C46
:1047000070E060E08A819B810E9439E31D821C82F7
:1047100081E090E0DF91CF910895CF93DF93EC019A
:1047200066EE75E082EA9FE00F943A15EA81FB811C
:104730000280F381E02D6081718182EA9FE00F9415
:10474000E8138C819D81009711F00F94BC3C70E0C0
:1047500060E08A819B810E9439E31D821C8281E096
:1047600090E0DF91CF910895CF93DF93FC012281F8
:104770003381232B59F1EC016DE17BE082EA9FE06C
:104780000F94A0154AE050E06E8182EA9FE00F94FA
:10479000071482EA9FE00F94E4138C819D810F94AB
:1047A000BC3C70E060E08A819B810E9439E31D82FD
:1047B0001C82E881F9810484F585E02D60E0CE015A
:1047C000199581E090E0DF91CF91089590E080E02D
:1047D000FACF0F931F93CF93DF938C01DC011496D4
:1047E000ED91FC91309709F456C0C681D78120978E
:1047F000C1F1E881F981309781F18081882369F1E5
:104800006FE776E0CE010E94B7AD892B41F42FEF20
:104810003FEFA9016FE776E0CE010E946BB464E838
:1048200076E0CE010E94B7AD892B41F42FEF3FEF28
:10483000A90164E876E0CE010E946BB465EF75E0F3
:10484000CE010E94B7AD892B41F42FEF3FEFA901B4
:1048500065EF75E0CE010E946BB40A80DB81C02D4C
:10486000C6CF61EC70E182EA9FE00F94A01582EA66
:104870009FE00F94E413D801ED91FC910484F58539
:10488000E02D62E0C801199581E090E0DF91CF91C1
:104890001F910F9108956DEA70E182EA9FE00F94F5
:1048A000A01582EA9FE00F94E41390E080E0EECF41
:1048B0008F929F92AF92BF92CF92DF92EF92FF9230
:1048C0000F931F93CF93DF93CDB7DEB760970FB6EB
:1048D000F894DEBF0FBECDBFE986FA860B871C8732
:1048E0002D873E874F87588B6115710511F0011197
:1048F00003C090E080E0CCC07B015C01DB018D90C7
:104900009C9019821A821B821C821D821E821F8229
:1049100018868A81807F8A8369EF75E0C7010E94CB
:10492000B7AD6C016EEF75E0C7010E94B7AD7C01B9
:10493000C114D10451F1F60180858F70843029F5BE
:10494000818592850E940F21182F8930B1F134F4AE
:104950008130E4F4C12CD12C760168C08A30D1F7C3
:10496000B701CE0109960E94EF7829833A834B83E1
:104970005C836D837E838F8398873F7009F4B9CF02
:10498000CE0101960E94227315C011E0B701CE013D
:1049900009960E94EF7829833A834B835C836D8369
:1049A0007E838F8398873F7009F4A3CFCE01019651
:1049B0000E94DE726B017C0139C0B701CE010996FD
:1049C0000E94EF7829833A834B835C836D837E83D7
:1049D0008F8398873F7009F48CCF31503B3008F0BB
:1049E000B9CFE32FF0E08827E750FB4D8F4F0D94B0
:1049F0000F460D250D25AA240425042568255B25D1
:104A00005B255B25042504252D813E814F8158853A
:104A1000AAE0B0E00F94D945CDCFCD80FAE0CF9E8B
:104A2000600111240D2C000CEE08FF088091450256
:104A3000893020F4809144028930E8F068E470E124
:104A400082EA9FE00F94A015B40182EA9FE00F94E0
:104A50003A1561E470E182EA9FE00F94A0152AE024
:104A600030E0B701A60182EA9FE00F94A91482EA20
:104A70009FE00F94E413D5011296ED91FC9162E052
:104A8000848195810E9469AE009779F581E090E07C
:104A900060960FB6F894DEBF0FBECDBFDF91CF9109
:104AA0001F910F91FF90EF90DF90CF90BF90AF904C
:104AB0009F908F90089520E030E040E251E46D81B6
:104AC0007E818F8198850F94B4440F94204772CFD4
:104AD0006D817E818F8198852AE030E040E050E052
:104AE0000F94BA4569017A01A1CFFC0120852F708E
:104AF000263061F6B4010E94B7AD5C01009731F237
:104B0000DC0118968C9118978F709BEF980F92305C
:104B100008F0BCCF4501853029F416968C90169785
:104B200017969C90F50180858068808762E076E02A
:104B3000C4010E94B7ADFC01892B61F0C186D28609
:104B4000E386F486812F8295807F10851F70182B55
:104B500010879CCF68E370E182EA9FE00F94A01574
:104B6000D5016D917C9182EA9FE00F943A1582EA1B
:104B70009FE00F94E413A701960162E076E0C40180
:104B80000E946BB462E076E0C4010E94B7ADFC0104
:104B9000892B09F47BCF1295107F90859F70192B7C
:104BA000D7CF2F923F924F925F927F928F929F9298
:104BB000AF92BF92CF92DF92EF92FF920F931F932B
:104BC000CF93DF9300D000D01F921F92CDB7DEB7F6
:104BD00009831A832B833C834D835E836F8378879D
:104BE000DC011496ED91FC910FEF1FEF3097F9F077
:104BF00057014C01C288D388E114F10489F1F7010F
:104C00008081882369F1C114D10489F1B701C601FB
:104C10000E94B7ADE980FA800B811C812D813E8115
:104C20004F815885BC01C4010E9458248C01C801E1
:104C300028960FB6F894DEBF0FBECDBFDF91CF919F
:104C40001F910F91FF90EF90DF90CF90BF90AF90AA
:104C50009F908F907F905F904F903F902F900895FE
:104C6000C114D10421F0D6011696CD90DC907B8042
:104C7000F12C0FEF1FEF272C312C512C412CC1149C
:104C8000D10449F165E076E0C6010E94B7AD009716
:104C9000E9F0FC0120852F702230C1F481859285D6
:104CA000A385B48582159305A405B50579F4E9803B
:104CB000FA800B811C812D813E814F815885B60180
:104CC000C4010E9458248C01FF24F394D60112964B
:104CD000CD90DC90D4CFF110AACF63E670E18BEFDA
:104CE0009EE00F94A015B5018BEF9EE00F943A154E
:104CF00067E570E18BEF9EE00F94A015672D70E0E3
:104D00004AE050E08BEF9EE00F94F1148BEF9EE0B1
:104D10000F94E4138CCFCF93DF93EC01EC81FD81F2
:104D200040815181052E000C660B770B228183E4B4
:104D30009CE00F94ED1670E060E08A819B810E94F8
:104D400070E4E1E4FDE0828383E49CE0918380836E
:104D50001092510E1092530E1092520EDF91CF917D
:104D600008954F925F926F927F928F929F92AF922F
:104D7000BF92CF92DF92EF92FF920F931F93CF9348
:104D8000DF93CDB7DEB768970FB6F894DEBF0FBEDE
:104D9000CDBF098B1A8B2B8B3C8B4D8B5E8B6F8B16
:104DA000788FDC0112962D913C911397232B09F4F7
:104DB000DEC0CC2009F4DBC06C01ED91FC91048CC9
:104DC000F58DE02D19955C016CE97CE082EA9FE0AD
:104DD0000F94A015CE0141960E94AC75A114B104A8
:104DE00071F460E0CE0141960E947971682FF6015E
:104DF000848195810F94522C81E090E0BAC0CE015D
:104E000041960E946D734C0194E0F2E0AF16B1043C
:104E100059F081E1A816B10409F445C091E0A1E080
:104E2000AA16B10409F495E019861A861B861C8619
:104E30001D861E861F86188A8A85807F892B8A8711
:104E4000EE24EA94FE2C09891A892B893C894D8924
:104E50005E896F89788DCE0109960E9440A362E930
:104E60007CE082EA9FE00F94A015CE0109960E9493
:104E7000AC75B2E0AB16B10489F0E1E1AE16B10455
:104E8000B1F0AA94AB2809F0B7CF188963E070E0BD
:104E9000C6010F942B0B612F0F94522C6F85F601D6
:104EA0008481958151C0888D8170888FBCCF0FE738
:104EB00010E08FEF88169806A9F0092C000CAA08BC
:104EC000BB08A50194012959310941095109AFEFE6
:104ED000B0E00F94D9452BE531E040E050E00F946D
:104EE000BA45890163E070E0C6010F942B0B5C01A9
:104EF000288930E0D8010F942646412C512C3201EC
:104F00004A94A30192010F94BA45622FC5010F94F0
:104F1000522C64E070E0C6010F942B0B5C01AFEFE4
:104F2000B0E0A01BB10B288930E00F942646A30106
:104F300092010F94BA45622FC5010F94522C6F85D0
:104F4000D60114968D919C910F94522C1E8561E090
:104F500070E0C6010F942B0B612F0F94522C1D850E
:104F600062E070E0C6010F942B0B612F43CF90E0FD
:104F700080E068960FB6F894DEBF0FBECDBFDF911C
:104F8000CF911F910F91FF90EF90DF90CF90BF9046
:104F9000AF909F908F907F906F905F904F9008950B
:104FA00081E00C9477BDEF92FF920F931F93CF9304
:104FB000DF93CDB7DEB760970FB6F894DEBF0FBEB4
:104FC000CDBF8091330A8823C9F064E579E082EA95
:104FD0009FE00F94A01582EA9FE00F94E41390E005
:104FE00080E060960FB6F894DEBF0FBECDBFDF91B4
:104FF000CF911F910F91FF90EF90089568EA79E0AB
:1050000082EA9FE00F94A0150E9465B580E480932A
:10501000170D0E9465B510E01B7F8091170D0E944F
:10502000D1B462E084EF9CE00E94891A612F84EF82
:105030009CE00E94891A60E084EF9CE00E94891A3B
:1050400084EF9CE00E94D0276AE070E080E090E06E
:105050000E9467BE65E979E082EA9FE00F94A0159F
:105060008EEF0E949ABE40E150E0BC0182EA9FE0D0
:105070000F94011467E879E082EA9FE00F94A0158D
:105080008FEF0E949ABE40E150E0BC0182EA9FE0AF
:105090000F94011482EA9FE00F94E41361E779E032
:1050A00081EF9EE00F94A0158BEF0E949ABE182FFF
:1050B000092F8CEF0E949ABEF82EE92E8DEF0E94E8
:1050C0009ABE9F938F93EF92FF920F931F9388E066
:1050D00096E09F938F938E010F5F1F4F1F930F9347
:1050E0000F94014BB80181EF9EE00F94E81381E02B
:1050F0008093330A0FB6F894DEBF0FBECDBF81E0B8
:1051000090E06FCF0F931F93CF93DF9300D000D029
:105110001F92CDB7DEB78091380A882369F067E126
:1051200079E08BEF9EE00F94A0158BEF9EE00F943B
:10513000E41390E080E0B0C067E479E081EF9EE0A6
:105140000F94C4150E9465B5809150029091510250
:10515000A0915202B091530289839A83AB83BC839E
:1051600084EF9CE09093010D8093000D1E8280E1FE
:1051700097E22E812F5F2E830197D9F71D82BE0102
:105180006B5F7F4F80E20E94DBB48C01892BF1F4CE
:105190008D8101E010E08138C9F4BE016F5F7F4F5F
:1051A0008FEF0E942BB51F8280E89EE32F812F5F37
:1051B0002F830197D9F7BE016B5F7F4F80E00E947C
:1051C000DBB48D8180FF0CC003E010E063E379E085
:1051D0008BEF9EE00F94A015C8010E94A8B4A9CF40
:1051E000BE016B5F7F4F80E00E94DBB4892B61F7CB
:1051F0008D8184FFE9CF8091020D0E94D1B480910E
:10520000000D9091010DDC01ED91FC910190F08178
:10521000E02D64EF19958091000D9091010D0E9491
:10522000D027882319F002E010E0D0CFBE016B5FD9
:105230007F4F81E00E94DBB48C01892B39F61D8100
:105240001F7810611D838091020D0E94D1B480915E
:10525000000D9091010DDC01ED91FC910190F08128
:10526000E02D61E019958091000D9091010DDC0118
:10527000ED91FC910190F081E02D612F19958091C5
:10528000000D9091010D0E94D0278111CCCF81E0BB
:105290008093380A81E090E027960FB6F894DEBF3D
:1052A0000FBECDBFDF91CF911F910F910895CF9287
:1052B000DF92EF92FF920F931F93CF93DF93D62F3E
:1052C000C42F0E9452BD6B017C0180917C0B811127
:1052D00065C081E080937C0B80937B0B9FEF909364
:1052E0007A0B1092790B9C0F9093780B8093570B4D
:1052F0008091570BDD0FD82BD093570B8091560B15
:10530000813009F07FC01092560B0E9452BD6B0194
:105310007C018091570B8093BB0080917E0B909114
:105320007F0BA091800BB091810B892B8A2B8B2B4B
:10533000A1F00E9452BD00917E0B10917F0B209135
:10534000800B3091810B6C197D098E099F0906171E
:1053500017072807390708F442C08091BC0083FD75
:10536000D8CF85EC8093BC000E9452BD6B017C01BC
:1053700080917C0B813009F447C08091790B8C17A8
:1053800010F4C091790BA8E5BBE0E7E0F1E180E023
:105390008C1751F19D9191938F5FFACF80917E0B85
:1053A00090917F0BA091800BB091810B892B8A2B60
:1053B0008B2B09F48ACF0E9452BD00917E0B109175
:1053C0007F0B2091800B3091810B6C197D098E0928
:1053D0009F09061717072807390708F076CF80912D
:1053E0007D0B0F94322FC0E01092550BC093540BDD
:1053F0008C2FDF91CF911F910F91FF90EF90DF9055
:10540000CF90089585EEAECF80917E0B90917F0B6B
:10541000A091800BB091810B892B8A2B8B2B09F4E7
:10542000A7CF0E9452BD00917E0B10917F0B20915F
:10543000800B3091810B6C197D098E099F0906172D
:1054400017072807390708F093CFC9CF4F925F920B
:105450006F927F92AF92BF92CF92DF92EF92FF92C4
:105460000F931F93CF93DF9300D01F92CDB7DEB77A
:105470002B013C0129833A834B835C83A601950170
:10548000C801B701640D751D861D971D21153105D5
:105490004105510511F00F94984529813A814B81BE
:1054A0005C816217730784079507D0F424153505CE
:1054B0004605570530F521E0822F0F900F900F9091
:1054C0000F90DF91CF911F910F91FF90EF90DF90A0
:1054D000CF90BF90AF907F906F905F904F90089566
:1054E000461657066806790650F421E089819A81AC
:1054F000AB81BC8184159505A605B705E8F220E0CF
:10550000DBCF21E04616570668067906A8F2F7CFEA
:10551000CF93DF93EA01282FDC01ED91F0E094E0D6
:10552000F595E7959A95E1F7E258FD4F80818883DC
:10553000FD013197E081EF70F0E0E258FD4F80818E
:10554000898322968A2F821B861738F3615070E078
:10555000660F771F460F571FFA011282DF91CF9116
:1055600008950F931F93CF93DF936DE374E182EA65
:105570009FE00F94C41581E00E9477BD0F94072F20
:1055800061E085E10E9422BC60E084E10E9422BCCF
:10559000C4E1D0E010E001E0612F85E10E94F4BB9E
:1055A00010276AE070E080E090E00E9467BE2197DB
:1055B00099F764E170E080E090E00E9467BE0E948D
:1055C00065B580913C1190913D11009749F10F9480
:1055D000802C84EF9CE00E94D027811121C0809113
:1055E0003C1190913D110F94D22E62E274E182EA57
:1055F0009FE00F94C415E0913C11F0913D110083A0
:1056000080913C1190913D110F94562D6EE074E104
:10561000811102C069EF73E182EA9FE00F94C41523
:1056200081E0DF91CF911F910F9108950F931F9308
:10563000182F0E9459C004C0969587957795679555
:105640001A95D2F78B019C010150110921093109EA
:105650000E3F1F4F2F4F3F4F20F061E070E080E082
:1056600090E01F910F910895AF92BF92CF92EF9269
:10567000FF920F931F93CF93DF9300D000D01F9220
:105680001F92CDB7DEB75C0109831A832B833C835D
:105690004D835E836F83788761E273E182EA9FE0E6
:1056A0000F94A015CE0101960E94AC75E114F1048F
:1056B00039F06AE173E1C7010F94593E009729F16F
:1056C000F5010281138101151105E9F0898181112C
:1056D0005CC08B81813009F460C048F1823029F1CF
:1056E000082F10E06DEF72E182EA9FE00F94A015A1
:1056F0004AE050E0B80182EA9FE00F94F11482EA98
:105700009FE00F94E41390E080E028960FB6F894A1
:10571000DEBF0FBECDBFDF91CF911F910F91FF90E4
:10572000EF90CF90BF90AF900895CC20C1F060E093
:10573000CE0101960E947971892B09F447C0C801F6
:105740000E94CDE3672B682B692BE1F480E00E9477
:10575000162BAB01BC01C8010E948CE313C0C80129
:105760000E9462E68E3019F050F4813059F460E006
:10577000CE0101960E947971892B21F0E0CF8351EF
:105780008330A8F381E090E0C0CF8031D0F48E3038
:10579000B0F68130A1F28230C9F06DE073E182EAA7
:1057A0009FE00F94A0154AE050E0698182EA9FE0F3
:1057B0000F94071482EA9FE00F94E41301E010E0D5
:1057C00091CF8351833008F4BACFE7CF40E050E067
:1057D000BA01C8010E948CE360E0C5010E94322139
:1057E000D1CF2F923F924F925F926F927F928F9282
:1057F0009F92AF92BF92CF92DF92EF92FF920F9360
:105800001F93CF93DF93CDB7DEB760970FB6F894B1
:10581000DEBF0FBECDBF6130710509F495C0DC015C
:1058200012966D917C916115710509F48DC04C0142
:1058300019821A821B821C821D821E821F82188678
:105840008A81807F8A8340E052E0CE0101960E94E7
:10585000B67060E0CE0101960E9479711C01F401DE
:10586000828193810E94CDE32B013C01D4011796E4
:105870002D913D914D915C911A97D1010F94E44582
:105880002FEF30E040E050E00F94984529873A87A9
:105890004B875C870E9459C09B01AC0189859A8522
:1058A000AB85BC850097A105B10509F468C0A12CA2
:1058B000B12C65017C018D01C301B2010E94262A31
:1058C00089874114510461047104F1F1D4011796E0
:1058D0008D919D910D90BC91A02D8D879E87AF8756
:1058E000B88B0E9459C09B01AC018D859E85AF8508
:1058F000B8890097A105B10561F0A12CB12C650113
:105900007C018D01C301B2010E94262A882309F47B
:1059100051C0D40112966D907C9080E00E94162BAD
:10592000AB01BC01C3010E948CE3232869F0F401A0
:1059300084810E941219D40116969C91891304C087
:1059400061E0C4010E94322190E080E060960FB6D1
:10595000F894DEBF0FBECDBFDF91CF911F910F91A5
:10596000FF90EF90DF90CF90BF90AF909F908F907F
:105970007F906F905F904F903F902F90089591E0AF
:1059800099879FCFB985BB23F1F060E0C4010E94E5
:105990003221F401828193810E943EE8892BA1F695
:1059A00040E050E0BA01D40112968D919C910E9482
:1059B0008CE3CACFF40184810E941219D401169697
:1059C0009C918913DFCF232809F4BECFF401848191
:1059D0000E941219D40116969C918913B5CFB985EE
:1059E000B111B2CFADCFCF93DF93EC0160EA72E19A
:1059F00082EA9FE00F94A0156C817D814AE050E01F
:105A000082EA9FE00F94F1146AE972E182EA9FE072
:105A10000F94A01582EA9FE00F94E41361E08C815B
:105A20000E9422BC6E818C810E94F4BB8A819B8182
:105A3000009729F040E050E0BA010E948CE3E88131
:105A4000F9810484F585E02D62E0CE0119958A8103
:105A50009B81009781F00E943EE8181619065CF4BD
:105A60000A80DB81C02D80E00E94162BAB01BC01B7
:105A7000CE010E948CE381E090E0DF91CF91089508
:105A8000CF92DF92FF920F931F93CF93DF9300D0BB
:105A900000D01F921F92CDB7DEB76C01F02E1A8393
:105AA000022F10E0FF2029F00115110511F401E08B
:105AB00010E040E050E460E070E0F6018281938104
:105AC0000E94C4E40130110591F10230110541F04A
:105AD000012B99F565E970E182EA9FE00F94A0152A
