:100000000C94E4140D9468110D943D110D9412118B
:100010000D94E7100D94BC100D9491100D94661082
:100020000D943B100C9415150C9415150C94151586
:100030000C9415150C9415150C9415150C9477CD7E
:100040000C9415150C9415150C9415150C94151588
:100050000C9415150C9415150C9415150D94A60EED
:100060000C9415150C9407B90C94DDB80C94151567
:100070000C9415150C9415150C9415150C94151558
:100080000C9415150C9415150C9415150C94151548
:100090000C94D7BA0C944DBA0C948FBA0C941ACF16
:1000A0000C9415150C9415150C9415150C94151528
:1000B0000C9415150C9415150C9415150C94151518
:1000C0000C9415150C9415150C9415150C94B3B8C7
:1000D0000C9489B80C9415150C945FB80C9435B831
:1000E0000C94151507634236B79BD8A71A39685682
:1000F00018AEBAAB558C1D3CB7CC5763BD6DEDFD4A
:10010000753EF6177231BF000000803F0800000006
:10011000BE922449123EABAAAA2ABECDCCCC4C3EFC
:1001200000000080BEABAAAAAA3E00000000BF00EB
:100130000000803F0000000000084178D3BB4387E7
:10014000D1133D190E3CC3BD4282AD2B3E68EC82FB
:1001500076BED98FE1A93E4C80EFFFBE01C4FF7F80
:100160003F00000000000C94B1690C94A3E70C94CC
:1001700075A80C94B05A0C9458150C9476AB0C944A
:10018000C5CC0C94FA630C9407AA0C9421FA0C9435
:100190003F290C94F8790C94E0280C947AFD0C9487
:1001A0008F770C94CA810C948D6C0C94CD1E0C949A
:1001B0001EA10D9472020D94E4020C94A73A0C94C3
:1001C000D01E0C94594E0D94FC270D94BA010C943A
:1001D000656B0C9455A80D94A5020C94D4150C9441
:1001E00083280C94827F0D9487010C943BBD0C9462
:1001F000C4AA0C945DC50D94AD020C944F210C94CF
:10020000EDA50C94DB590C9439220D94CC010C947F
:10021000DB3A0C94DBD50C94BCA70C940FC50D9461
:100220001A0A0C942D6C0D9489020C94F2630C94B0
:10023000F11C0C9410A10C9428FA0C947BE00C9403
:1002400036C40C94A52B0D94C7010C9432AA0C94BF
:1002500048AA0C94733B0C94AE2B0C94A6750C948A
:1002600092190C94E51D0C94D2BD0C94C2AB0C9465
:10027000E4150C945FAB0C946DB70C9446700C9421
:1002800028BF0C945E1F0C94B3E80C94474C0C945C
:10029000DEAA0C94EB5A0C943B3A0C9437E00C9485
:1002A00059290C9487BD0C9429680C941F6C0C94EC
:1002B000F7AC0D94AC010C943CA90C94F7AE0C94E3
:1002C000B6C50C94FF6A0C94D8150D94C2010C9419
:1002D000FA4B0C9438E40C946CFD0C94B7390C94E4
:1002E00052AA0C94FA150C9415C10C944C1D0C9444
:1002F000D0150C9490D40C94A0220C9487230C94C9
:10030000F5AC0C943D740C94BCE70C94743B0C94C9
:100310009DC80C940C2D0D94470A0C942A1E0C9425
:100320005E3B0C9444210C94FA3B0C949EA20C94DA
:1003300047770C94AD300C947FFA0C942F1D0C94DD
:100340005B4E0C94A6AB0C94854A0D94B0010C94B2
:100350001FA90C9401640C94463A0C94EDC10C94C2
:10036000D5170C9489440C9481B20C94C5AB0D94B0
:10037000B4010C940E210C949B1E0C9468FA0C94FE
:1003800019AD0C94EDA90C9486E80C94661F0C949E
:1003900086310C943B160C9431AD0C94012D0C94C9
:1003A0009A1F0C94B26B0C9410A90C9437640C94A3
:1003B000F1B20C9403AA0C9412E60C94F4710C9410
:1003C00087B60C947D760C94785B0C9491510C94C8
:1003D00039F50C9488730C947AE00D947A020C949D
:1003E0002B640D94BE010C948D1F0C9412210C945F
:1003F00081FD0C94EA640C94581D0C940C210C940F
:1004000036A50C941EAA0C9458C10C94657A0C94D1
:1004100068750C9432160C945B150D9499010C942C
:10042000D5790C94EB280C94D7170C941C3B0C94A6
:10043000523E0C94B3AA0D94EE020C94E16A0D9412
:1004400093020C948EE50C94BE630C941A160C94D3
:1004500010210C9418650C9462290D9491010C9450
:10046000A33B0C94B06B0C94A1AB0C94AA300C94ED
:100470006F590D94C8010C94BE9B0C944F280C949A
:100480005D1E0C94E5E00C94FD210C945E210C940F
:10049000EDAC0C94CD6B0C94A5590C94397A0C945A
:1004A0005E150C943D180C94362F0C94EC640C944F
:1004B00051CC0C94F3A30C946D1F0C946EAF0C9460
:1004C0001A210C940D9A0C94F3AC0C94EA480C94F9
:1004D000889F0C94B8AB0C94181D0C9417C20C9404
:1004E0008BA70C94853A0D94A6010C94F4A50C945A
:1004F0000C640C94A7A90C94426B0C940D230C94DF
:10050000E9E50C9424BD0D949D020D944A0A0C94C7
:10051000AE760C94ABA20C942AB60C94156C0C9489
:1005200055150C94051D0C9442700C94837F0C940B
:10053000EBAC0C9459D60C945F4E0C946BA90C94B4
:10054000F13A0C9498A20C94B73A0C945A1C0C945F
:10055000D25A0C94F1AC0D94B7020C94ACAD0C943F
:10056000A82B0C9424E60C9454AA0C9472280D9495
:100570008D010C9460430C94873A0C94D7B60C947C
:10058000285A0D941B0A0C94A9AB0C94BDAD0D9484
:100590009C010C94123B0C94744C0C943B1D0C94D9
:1005A000CB280C949A6B0C94182C0C94072D0C945B
:1005B000D7AA0C94BB930C9480AB0C94AE6B0C94A8
:1005C000257A0C94DFEE0C947E5B0C9449790C94A4
:1005D000633B0C9473180C94ED630C94659B0C9422
:1005E000E0150C9452160C94B4AA0C94C6180C94F2
:1005F0001BBD0C9445A70C947EEB0D947F020C94CC
:100600004E7A0C948FFD0C94D2D30C9473FD0C9401
:1006100058370C94E1A90C94772A0C9459810C94C6
:1006200080C50C94FE2C0D9495010C949A390C9471
:10063000776C0C94E4B60C9488510C94246B0C9455
:10064000A31F0C94EFAC0D9402030C94523B0C943A
:100650003AFA0C9471B50C940ABD0C941A690C9476
:100660005DA90C946E5A0C9408670C94A7180C940E
:10067000443B0C94DE4C0C9403E60C94F4590C941B
:100680006C9B0C94DEE70C94561E0C9415CC0C94C9
:10069000896B0C94F5630C94EBA10C94A3230C943C
:1006A0005C3A0C944F1F0C9424160C94EA8D0C9415
:1006B0008E430C947B5B0C94D0640C943E1D0C9484
:1006C00044E70D94F8020C9451A30C94DC150C949F
:1006D000363B0D94C1020C94686C0C949DFD0C94F7
:1006E0007BAB0C944B220C94461F0C94B9280D94B0
:1006F000DA020C94CC630C9408210C9417AA0C9485
:10070000CD390C9499BD0C9414210C9459AC0C94D3
:10071000D8A10C944B4B0C94205B0C9417F90C94BF
:1007200065210C9428A30C94941F0C9421220C9402
:1007300077E00C94C74C0C947D490C94837A0D940B
:100740000C030C9490B60C94F9AC0C946C230C94A0
:1007500039210C9451AB0C94CCA20C9412B30C9490
:1007600014440D94E7270C94E8AE0C9406E00C9426
:1007700068160C94014A0C949AA70C9449FA0C94AC
:10078000555A0C9410C90C944A700C947F390D94EE
:10079000A2010C949F5B0C94B21F0C9459E80C942A
:1007A00032C40C94B5AB0C94D9170C9417150C9457
:1007B00008A80C94D44B0C94E9160C947A800C94F1
:1007C000F4B30C9464280C9456440C94F0640C9488
:1007D000DA3B0C940A210C94B4390C9429AA0C9499
:1007E000E8C50C94789B0C94B5AA0C94BDAB0C9402
:1007F0007CE00C9495A90C9457760D94CB020C9444
:1008000076E00C94971C0C9497510C94AEA70C9422
:1008100016210C9428C50C94B44B0C94996A0C9432
:100820008C920C9454B20C940D7A0C949EC40C943B
:10083000E2A30C94FDC00C94AEA90C944FB50C949B
:10084000806F0C9496FD0C94817F0C94491D0C9440
:10085000783A0C9438160C94E8150C94042D0C94EA
:1008600092D50C94DDA90C94ED4A0C94B1200C9413
:1008700031AA0C94EE640C941FAF0C941D230C94BD
:10088000A03B0C9418210C9438F50C9443A30C94C1
:1008900036160C9411650C946A760C94CEC10C94A7
:1008A00047630C940BAB0C94112C0C94AA6B0C9416
:1008B00040A54E414E494E495459494E46CDCCCCA7
:1008C0003D0AD7233C17B7D13877CC2B329595E624
:1008D000241FB14F0A000020410000C84200401C04
:1008E0004620BCBE4CCA1B0E5AAEC59D74636469DB
:1008F0006E6F70737578585B00556E6B6E6F776EA8
:10090000207375666669782000556E6B6E6F776E22
:1009100020636D642000636C724374723A2000455A
:100920004F46002F00496E3A20003D00494E3A00E4
:100930003D004C454741435920494E3A002500C2ED
:10094000B04320483D00204448543232207479702E
:10095000652E20543D00494E3A00204E6F20656DB3
:1009600069742064617461210020436F756E746541
:100970007220747970652E2076616C3D00494E3A84
:100980000020436F756E74657220747970652E2037
:10099000494E434F525245435420496E746572721A
:1009A000757074206E756D62657221212100495247
:1009B000513A002D3E00200023002D3E0020005023
:1009C000656E6465643A2023007261770076616C1D
:1009D0000074656D70007361740068756500666110
:1009E0006E0052474200485356006D6F64650053D5
:1009F0006574436D643A0053746F726564204558A2
:100A0000543A00737566666978436F64653A0020EE
:100A1000666F7220286D73293A004354524C3A2075
:100A20005363686564756C6520636D642000206D98
:100A300073203A0041726D656420666F7220002059
:100A400044697361726D656400584F4E0048414CB3
:100A500054002074696D653A004354524C3A205258
:100A600065733A002054533A0020543A003D005038
:100A7000696E3A004354524C3A20436F6D6D616E7B
:100A80006420626C6F636B656420627920647269B4
:100A9000766572206F72206368616E6E656C206689
:100AA000726F7A656E004354524C3A204F4E3A4171
:100AB0006C7265616479204163746976650A0043EC
:100AC00054524C3A2048414C543A416C726561642E
:100AD0007920496E6163746976650A004354524C0B
:100AE0003A20584F4E3A2044697361626C65640A3B
:100AF000004354524C3A20584F4E3A416C72656153
:100B00006479204163746976650A004354524C3A13
:100B100020584F464620736B69707065642E2050D4
:100B200072657620636D643A004354524C3A205407
:100B300075726E6564206F66662066726F6D3A002E
:100B40004354524C3A20526573746F726564206648
:100B5000726F6D3A004354524C3A2049676E6F727F
:100B600065642C206368616E6E656C20636D643D06
:100B70000020457865633A004354524C3A20416363
:100B8000746976653A004354524C3A2048414C54BB
:100B90003A416C726561647920496E61637469766B
:100BA000650A004354524C3A20584F4E3A2044694B
:100BB0007361626C65640A004354524C3A20584F8A
:100BC0004E3A416C7265616479204163746976655F
:100BD0000A004354524C3A20584F464620736B69E2
:100BE000707065642E205072657620636D643A00E3
:100BF0004354524C3A205475726E6564206F666699
:100C00002066726F6D3A004354524C3A205265731D
:100C1000746F7265642066726F6D3A004354524C73
:100C20003A204E6F7420656E6F756768206D656D34
:100C30006F727920666F722067726F7570206F70A7
:100C400065726174696F6E004354524C3A20556E60
:100C50006B6E6F776E2073756666697800536B698B
:100C60007070656420686F6D696520737475666661
:100C7000002000205375623D00204974656D3D00E1
:100C80004354524C3A2052414D3D004354524C3A49
:100C9000204F75744F664D656D6F72793A2000284C
:100CA0002D292000282B2920002076616C756520D5
:100CB0006973200020756E6B6E6F776E0A005D3D64
:100CC000005B0020696E76616C6964002000206F13
:100CD0006B003A00206661696C6564003A005265F9
:100CE000747279696E67206D6F6462757320434D0D
:100CF000440A004D6F6462757320706F6C6C696E8E
:100D000067206572726F723D002056616C3A200058
:100D10004D423A20004E6F7420737570706F72747C
:100D200065642072656720747970650A00496C6C8F
:100D30006567616C20617267756D656E74730A001A
:100D40004D6F6462757320706F6C6C696E6720659F
:100D500072726F723D002D002050492056616C2048
:100D60003A004D6F6462757320706F6C6C696E67CA
:100D7000206572726F723D002D0020464D20566135
:100D80006C203A004354524C2F706F6C6C3A204FD9
:100D900075744F664D656D6F72793A2000207365EA
:100DA000632072656D61696E696E6700537461746A
:100DB00075732064656666657265640A002D3E0081
:100DC0005075623A20006374726C00454E41424C8B
:100DD0004500465245455A450044495341424C4519
:100DE000002D3E005075623A2000636D640046415C
:100DF0004E5F4F4E4C590044525900434F4F4C00E8
:100E000048454154004155544F002D3E00507562F5
:100E10003A20007365740064656C002D3E005075C7
:100E2000623A20002D3E005075623A2000556E6BEC
:100E30006E6F776E20636D64200A004F4646004F48
:100E40004E004D6F64627573206F70206661696C2F
:100E500065643A004D42206F6B003D00564323000D
:100E600020636D643D003D0056435F6865617423F7
:100E7000004E6F7420737570706F727465642072A9
:100E8000656720747970650A002056616C3A307885
:100E90000020543A00205265673A3078004164647B
:100EA000723A0020002D3E00436F6E7665727469C1
:100EB0006E6720002D3E0057726F6E67204173737E
:100EC00069676E6D656E742000524742783A200063
:100ED00020764C6576656C3A0020436F6E76563A04
:100EE0000020436F6E76533A0020486F743A0043F7
:100EF0006F6C643A0020436F6E766572746564208F
:100F0000563A00436F6E76657274656420533A00FA
:100F10002D3E0057726F6E672041737369676E6D67
:100F2000656E7420002D3E0057726F6E672041730E
:100F30007369676E6D656E74200053617665643AFF
:100F4000000000000000000000004F4E0000000004
:100F50000000004F46460000000000005245535478
:100F60000000000000544F47474C45000000484136
:100F70004C540000000000584F4E000000000000DC
:100F8000584F46460000000000494E435245415329
:100F90004500444543524541534500454E41424C6E
:100FA0004500000044495341424C450000554E461F
:100FB0005245455A4500465245455A4500000041B4
:100FC00055544F000000000046414E5F4F4E4C59B3
:100FD000004849474800000000004D454449554D30
:100FE0000000004C4F5700000000000048454154ED
:100FF0000000000000434F4F4C000000000044522E
:101000005900000000000053544F50000000000041
:101010005247420000000000004853560000000004
:10102000000020537566663A002041543A00436F31
:101030006D706C6574652E2052656D6F76652074D9
:101040006F706963200024636F6D6D616E6400537F
:101050006B697070696E672E2E00436C65616E550A
:10106000702072657461696E656420746F70696365
:101070002000220022004F75744F664D656D6F721F
:101080007921005D20003A5B000A005D00456D702B
:1010900074793A205B000A003A004D41433A00550A
:1010A0004450205379736C6F6720696E697469616D
:1010B0006C697A65642E0A005379736C6F672070CF
:1010C0006172616D733A002E6C6F63616C005365E1
:1010D0007276696365207265636F72643A20006D91
:1010E000444E5320726573706F6E64657220737422
:1010F00061727465642E004572726F72207365743C
:1011000074696E67207570204D444E53207265736C
:10111000706F6E6465722100476F742049502061C2
:101120006464726573733A00276970205B69705B51
:101130002C646E735B2C67775B2C7375626E6574C1
:101140005D5D5D5D27202D2073657420737461746F
:1011500069632049500A004661696C656420746FB8
:1011600020636F6E66696775726520457468657285
:101170006E6574207573696E6720444843502E2055
:10118000596F752063616E20736574206970206DDE
:10119000616E75616C6C792100204D41534B3A00B2
:1011A0002047573A0020444E533A004C6F61646523
:1011B000642066726F6D20666C6173682049503AD6
:1011C000000A7573657320444843500A00537461E4
:1011D0007274696E67206C616E00546F6F206D6170
:1011E0006E79204D51545420636F6E6E656374693F
:1011F0006F6E206572726F72732E20526573746108
:101200007274204C414E00207472792061676169CC
:101210006E20696E2035207365636F6E647300669F
:1012200061696C65642C2072633D0041776169746B
:10123000696E6720666F722072657461696E65649D
:1012400020746F7069637300636F6E6E656374659D
:10125000642061732000202E2E2E0020757365728D
:101260003A003A000A417474656D7074696E6720C3
:101270004D51545420636F6E6E656374696F6E20B8
:10128000746F2000646973636F6E6E656374656468
:10129000005573696E67204D51545420706173730B
:1012A000776F72642066726F6D20636F6E66696718
:1012B000002E6C6F63616C006D444E53206E616D47
:1012C0006520757064617465643A200044657669D0
:1012D0006365204E616D653A004174206C656173F1
:1012E0007420646576696365206E616D6520616E4A
:1012F000642062726F6B6572204950206D75737443
:1013000020626520636F6E6669677572656400248C
:101310006E6F646573004F4E2C4F46462C48414C0F
:10132000542C524553542C584F4E2C584F46462C53
:10133000544F47474C450024666F726D61740065D9
:101340006E756D00246461746174797065006873F2
:101350007600636F6C6F7200302D32353500696E28
:10136000746567657200666C6F617400332E302E91
:10137000310024686F6D696500757074696D652C46
:101380006672656568656170003330663762333652
:101390005F323032332D30342D3130004C69676884
:1013A000744875622000246E616D65005265626943
:1013B0006E6420737563636573732E2049502061DA
:1013C0006464726573733A004572726F723A207288
:1013D0006562696E64206661696C0052656E65774E
:1013E000656420737563636573732E2049502061B3
:1013F0006464726573733A004572726F723A207258
:10140000656E65776564206661696C000A4E6F20C1
:101410006C696E6B00526573746F72696E672063DE
:101420006F6E6669672066726F6D20454550524F3A
:101430004D00416363657074696E6720636F6D6D05
:10144000616E64732E2E2E0A004E6F204D5154543F
:1014500020636F6E66696775726564004C6F6164C6
:10146000696E6720636F6E6669672066726F6D20B4
:10147000706F7274616C2064697361626C65642E54
:101480002075736520676574204F4E20746F20654A
:101490006E61626C6500436F6E66696720697320D8
:1014A00076616C696400436F6E74696E7565207750
:1014B0006974682070726576696F75736C79206CD9
:1014C0006F6164656420636F6E666967003E003C0F
:1014D00000543A0043757272656E74204C414E2080
:1014E000636F6E6669672869702C646E732C67770A
:1014F0002C7375626E6574293A000A557365207401
:101500006865736520636F6D6D616E64733A202743
:1015100068656C7027202D20746869732074657865
:10152000740A276D61632064653A61643A62653AC2
:1015300065663A66653A3030272073657420616EBF
:10154000642073746F7265204D41432D6164647231
:1015500065737320696E20454550524F4D0A2769C7
:1015600070205B69705B2C646E735B2C67775B2CFF
:101570007375626E65745D5D5D5D27202D207365FA
:1015800074207374617469632049500A277361760B
:101590006527202D20736176652063757272656EF4
:1015A0007420636F6E66696720696E204E565241E3
:1015B0004D3B204F4E7C4F4646202D20656E61628C
:1015C0006C652F64697361626C65206175746F73FB
:1015D0006176650A2767657427205B636F6E6669AD
:1015E0006720616464725D27202D20676574206325
:1015F0006F6E6669672066726F6D207072652D630D
:101600006F6E666967757265642055524C20616E15
:10161000642073746F726520616464722C204F4E75
:101620007C4F4646202D20656E61626C652F646993
:101630007361626C6520646F776E6C6F6164206F9C
:101640006E20737461727475700A276C6F61642701
:10165000202D206C6F616420636F6E666967206661
:10166000726F6D204E5652414D0A277077642720C5
:101670002D20646566696E6520616E642073746FE9
:101680007265204D5154542070617373776F72648A
:101690000A276F746170776427202D20646566695E
:1016A0006E6520616E642073746F726520485454B7
:1016B00050204150492070617373776F72640A271C
:1016C0006C6F67205B73657269616C5F6C6F676CD0
:1016D0006576656C5D205B7564705F6C6F676C65CB
:1016E00076656C5D27202D20646566696E65206CCB
:1016F0006F67206C6576656C2028302E2E37290A9E
:10170000276B696C6C27202D2074657374207761BA
:10171000746368646F670A27636C65617227202DA4
:1017200020636C65617220454550524F4D0A277207
:1017300065626F6F7427202D207265626F6F742051
:10174000636F6E74726F6C6C657200536F66742099
:101750007265626F6F74696E672E2E2E0052414D56
:101760003D000A5379736C6F6720000A312D776949
:10177000726520000A6D71747420000A6D6F6462D6
:101780007573207632000A6D6F646275732076314E
:1017900020282B29000A696E7075747320000A696D
:1017A00074656D7320000A436F6E666967757265B4
:1017B000643A0020416464723A006465762300094B
:1017C000445332343832206572726F7200095265A8
:1017D00073657420646F6E650009436865636B69A7
:1017E0006E6720666F7220312D57697265206465BF
:1017F00076696365732E2E2E004453323438322DB1
:101800003130302070726573656E74004572726F8E
:101810007220312D7720696E697420233220467240
:1018200065653A0077737461742E20467265653A77
:10183000005465726D2E20467265653A00457272DD
:101840006F7220312D7720696E6974202331004634
:101850007265653A004453323438325F3130305F5C
:101860004932435F544F5F31575F425249444745C5
:1018700020696E697400444D584F75742E2046726D
:1018800065653A00444D58696E204275666665721A
:1018900020616C6C6F632065727200496E69742000
:1018A000696E2063683A003B003D0050696E3A0063
:1018B0003B003D4C4F5700546865726D6F3A004FC6
:1018C0006E6520776972652052656164790A004609
:1018D0007265653A00444D58206F757420737461C9
:1018E000727465642E204368616E6E656C733A2075
:1018F00000444D5820696E20737461727465642EC3
:10190000204368616E6E656C733A004170706C794B
:10191000696E6720636F6E666967004C6F6164650E
:101920006420455441473A004E6F2073746F7265CE
:101930006420636F6E666967004C6F616465642044
:1019400066726F6D20454550524F4D006C6F61645B
:10195000206661696C656400547279696E67204C19
:101960006F61642066726F6D20454550524F4D0087
:101970004C6F6164696E6720436F6E6669672066AD
:10198000726F6D20454550524F4D00436F6E666932
:1019900067206175746F736176653A000A537973D5
:1019A0006C6F67206465627567206C6576656C3A5C
:1019B0000053657269616C206465627567206C65AF
:1019C00076656C3A0053617665640A00536574204D
:1019D00064796E616D69632049500A004545505233
:1019E0004F4D20636C65617265640A004D5154541B
:1019F0002050617373776F726420757064617465D1
:101A0000640A004F54412050617373776F726420F1
:101A1000757064617465640A00636F756C64206E30
:101A20006F742070617273653A2000557064617440
:101A300065640A004E6F20495020616472657373BB
:101A40000052656C656173696E6720736F636B65C7
:101A50007420616E6420726574727900205361761F
:101A60006564004C6F6164696E672048545450206F
:101A7000636F6E666967206F6E2073746172747530
:101A8000703A004F4646004F4E002B002D00455443
:101A900061673A200047657420455441473A200069
:101AA000485454502F312E310025733A2025730DA0
:101AB0000A0020485454502F312E310D0A486F73BC
:101AC000743A2025730D0A4163636570743A202AC5
:101AD0002F2A0D0A436F6E6E656374696F6E3A202C
:101AE000636C6F73650D0A0025730020000D0A00FA
:101AF000474554006661696C656420746F20636FAC
:101B00006E6E6563740A004552524F523A20536517
:101B1000727665722072657475726E65642000431A
:101B20006F6E666967206E6F74206368616E6765AB
:101B3000640A00446F6E652E0A00436F6E66696723
:101B40002070617273696E67206661696C65640AF2
:101B500000676F7420436F6E6669670A006874746B
:101B60007020726574636F6465200066726565201D
:101B700000436F6E666967205552493A2068747455
:101B8000703A2F2F002044656661756C7420636F76
:101B90006E66696720736572766572207573656419
:101BA0003A20006C617A79686F6D652E7275000A53
:101BB000282B294D554C544956454E54000A282B84
:101BC0002950574D5F52454C4159000A282B294D49
:101BD000444E53000A282D2955415254425249443B
:101BE0004745000A282B295359534C4F47000A28D0
:101BF0002B29504944000A282D294D4350323330B7
:101C00003137000A282D294152544E4554000A28E4
:101C10002D294F5441000A282B29535049204C4567
:101C200044000A282B294D4F544F52204354520050
:101C30000A282B294143204841494552206F6E20F4
:101C400053657269616C33000A282B29434353386A
:101C5000313120262048444331303830000A282BC7
:101C600029524553544152545F4C414E5F4F4E5F91
:101C70004D5154545F4552524F5253000A282D295A
:101C80004841524452455345542C207573696E6740
:101C900020736F6674000A282B29434F554E544514
:101CA00052000A282B29444854000A282B2944535F
:101CB000323438322D313030000A282B294F574921
:101CC0005245000A282D2949504D4F444255530092
:101CD0000A282B294D4F4442555320307830362066
:101CE00061742053657269616C322073706565643C
:101CF0003A39363030000A282B29414441465255A2
:101D00004954204C4544000A282B29444D58000AC8
:101D1000282B2957697A6E657435313030000A28CE
:101D20002B294672656552616D207072696E746907
:101D30006E67000A282B295741544348444F4700F7
:101D40006C617A79686F6D652E7275000A436F6EEB
:101D5000666967207365727665723A003230313198
:101D600030334C0020432B2B2076657273696F6EE5
:101D70003A00333066376233365F323032332D30DB
:101D8000342D3130000A4C617A79686F6D652E729E
:101D900075204C6967687448756220636F6E747251
:101DA0006F6C6C65722000204F464600204F4E003D
:101DB0002042595041535300726561647900247385
:101DC0007461746500757074696D6500667265652F
:101DD0006865617000247374617473002054696DC8
:101DE00065723A00204C6F636B733A002000204C00
:101DF0006F636B733A000A52414D3D002045787085
:101E0000697265640A00202D746172676574207AB6
:101E10006F6E652D0020416C61726D204578706990
:101E20007265640A0020636D643A00204375723A5B
:101E300000205365743A00536176656420746F2006
:101E4000454550524F4D00536176696E6720636F70
:101E50006E66696720746F20454550524F4D2E2E97
:101E600000206973200044656C6574696E672063A7
:101E70006F6E662E2052414D207761733A00537485
:101E80006F707065640053746F7070696E67206363
:101E900068616E6E656C73202E2E2E004E6F74205E
:101EA000756E6C6F636B656420696E2031307320D2
:101EB0002D20636F6E74696E7565202E2E2E005571
:101EC0006E6C6F636B696E6720636F6E6669672007
:101ED0002E2E2E0063637338313120697320616CBC
:101EE000726561647920696E697469616C697A658B
:101EF00064006864633130383020697320616C722B
:101F00006561647920696E697469616C697A656478
:101F10000048444331303830206E6F7420696E6958
:101F20007469616C697A6564006363733831313A4E
:101F30002064617461206E6F7420617661696C61E8
:101F4000626C6500636373383131206E6F74206991
:101F50006E697469616C697A656400203C3C00417B
:101F6000433A200041433A2053657269616C207501
:101F7000736564206279204143202D206469736178
:101F8000626C696E672073657269616C206C6F6743
:101F900067696E6720616E6420636D640041433A37
:101FA000204F7574206F66206D656D6F72790041EA
:101FB000433A20496E69743A200041433A2044650F
:101FC0002D496E69743A200045525200445259001E
:101FD00046414E5F4F4E4C59004845415400434FD7
:101FE0004F4C0041433A204F4B00203E3E200041E1
:101FF000433A200041433A20506F6C6C696E670091
:102000004C4F57004D454449554D004849474800FD
:102010004155544F007261770071756569740073A2
:1020200077696E67006C6F636B00556E6B6E6F77D0
:102030006E207375666669782000556E6B6E6F77DB
:102040006E20636D642000436F756E7465723A2074
:1020500000444D582D4F757420496E69743A200024
:10206000444D582D4F75742073746F703A200041A1
:10207000737369676E65643A00444D5820637472E7
:102080006C3A200069313600016933320002753143
:102090003600037533320004693868000569386C0E
:1020A0000006753868000775386C00087831300014
:1020B00009313030000A44656661756C74207365BF
:1020C0007269616C206D6F6465204E3831207573C4
:1020D000656400384531002600384E31000600386E
:1020E0004532002E00384E32000E00384F31003697
:1020F00000384F32003E003745310024003745326A
:10210000002C00374F31003400374F32003C00378D
:102110004E31000400374E32000C004D4255533A08
:10212000204D6F646275732074656D706C617465A9
:10213000206E6F7420666F756E643A20004D4255B4
:10214000533A20496E76616C69642074656D706CD9
:102150006174652E002C002C002C002C004D425583
:10216000533A20636F6E666967206661696C6564C7
:102170003A004D4255533A20636F6E666967206599
:1021800072726F72004D4255533A20636F6E6669EA
:1021900067206C6F6164656420004D4255533A209E
:1021A0004F7574206F66206D656D6F7279004D42BA
:1021B00055533A20506F6C6C696E67206572726F70
:1021C0007220004D425553443A2049676E6F726544
:1021D00064202D20657175616C20776974682073A7
:1021E00065747465642076616C004D4255533A20E5
:1021F0004164642040533A20006E657874726567CC
:10220000206F7574206F662072616E67650052657D
:1022100063757272656E7420736561726368696E4E
:1022200067206E657874726567004D425553443A75
:10223000204D61707065643A003A002066726F6DDF
:1022400020004D425553443A2020676F74200020EF
:1022500076616C3A0020005265733A200020696E66
:102260007465726E616C2073656E64206572726F46
:1022700072202D206E6F207265674F626A002069A0
:102280006E7465726E616C2073656E642065727227
:102290006F72202D206E6F2074656D706C61746597
:1022A0000020696E7465726E616C2073656E6420C7
:1022B0006572726F72202D206E6F2073746F72655D
:1022C000004D425553443A20656E64506F6C6C204B
:1022D000004D425553443A20506F6C6C2000206EE4
:1022E0006F7420666F756E64004D4255533A20201E
:1022F000706172616D20002073656E64206572727A
:102300006F722E20004D4255533A202000416464E4
:102310002040563A20002056616C3A20004D42552C
:1023200053443A207375666669783A00206F7220CC
:1023300073756666697820004D4255533A204E6F9A
:102340002074656D706C61746520666F722000206A
:1023500064656C74613A002D3E002F002056616C5C
:102360003A004D6F746F723A20696E3A004D6F7487
:102370006F723A2074696D656F757400556E6B6E7F
:102380006F776E20636D64004D6F746F723A2046F4
:102390006F7263656420657865637574696F6E003C
:1023A0004D756C746956656E7420636F6E666967EF
:1023B000206661696C6564004D756C746956656E64
:1023C0007420696E6974004D756C746976656E74FD
:1023D0002044652D496E697400204F75743A0020C1
:1023E0006D33002066726F6D2000204D6178207281
:1023F0006571756573743A002066616E253A002038
:1024000061637469766520563A00546F74616C207C
:10241000563A005049443A20616C726561647920F3
:10242000696E697469616C697A6564005049443AFF
:1024300020496E76616C696420706172616D206103
:10244000727261792E002C002C002C002C00504957
:10245000443A20636F6E666967206661696C6564E3
:102460003A005049443A20636F6E666967206C6F8A
:102470006164656420005049443A20636F6E666968
:1024800067206572726F72005049443A204F75742C
:10249000206F66206D656D6F727900203C414C4D58
:1024A0003E0020443A0020493A0020503A0020697A
:1024B0006E3A00207365743A005049443A20005047
:1024C00049443A20496E76616C696420706172619A
:1024D0006D2061727261792E00536574206F75747E
:1024E00020746F20002050494420616C61726D2E71
:1024F00020002050494420616C61726D3A20636C69
:102500006F736564005049443A20556E6B6E6F7767
:102510006E2073756666697820005049443A2055EC
:102520006E6B6E6F776E20636D6420002053657450
:10253000706F696E743A005049443A200020496E29
:102540007075742076616C75653A005049443A2084
:102550000020696E69740050574D2D4F757420230B
:10256000002073746F700050574D2D4F75742023E9
:10257000003D0050696E3A0020696E697400526532
:102580006C61792D4F75742023002073746F700077
:1025900052656C61792D4F75742023003D3E003AE1
:1025A0000070756220616374696F6E200069646CED
:1025B00065006F66660068656174696E67006661D4
:1025C0006E00647279696E6700636F6F6C696E6725
:1025D0000020697320004F75742000556E6B6E6F7C
:1025E000776E207375666669782000556E6B6E6F26
:1025F000776E20636D642000616374696F6E007292
:10260000656C61794374723A200053686F770020DB
:10261000636D643D002D0020416464723A0064657E
:1026200076230020616C69766500204E6F64653A00
:1026300000312D7769726520636F756E743A2000E2
:10264000312D776972652073686F72746564005B01
:10265000305D3A2000202D202D202D20EFBBBF0023
:102660003E003E31202D200020002E00696E0073B8
:102670005F6F7574006D79686F6D65004354524CDF
:102680002F657865633A204F75744F664D656D6FA1
:1026900072793A2000202D3E2000456D69743A2061
:1026A00000202D3E20004974656D436D643A200082
:1026B000202D3E20004974656D3A2000005EBCE28A
:1026C000613FDD83C29C7E20A3FD1F419DC3217F0E
:1026D000FCA2401E5F01E3BD3E6082DC237D9FC102
:1026E000421CFEA0E1BF5D0380DE3C62BEE0025CF6
:1026F000DF81633D7C22C09E1D43A1FF4618FAA4E2
:1027000027799BC584DA3866E5BB5907DB856739CD
:10271000BAE406581947A5FB7826C49A653BD987C1
:10272000045AB8E6A7F91B45C6987A24F8A6441AB5
:1027300099C7257B3A6486D85B05E7B98CD2306EA1
:10274000EDB3510F4E10F2AC2F7193CD114FADF38D
:10275000702ECC92D38D6F31B2EC0E50AFF1134D81
:10276000CE90722C6D33D18F0C52B0EE326C8ED075
:10277000530DEFB1F0AE4C1291CF2D73CA94762861
:10278000ABF517490856B4EA6937D58B5709EBB54D
:1027900036688AD495CB2977F4AA4816E9B7550B41
:1027A00088D6346A2B7597C94A14F6A8742AC89635
:1027B000154BA9F7B6E80A54D7896B35436F6E6E8F
:1027C00065637465642E00436F6E6E2E2061626FC8
:1027D00072746564003E3E2000496E76616C6964E7
:1027E00020636F6D6D616E64000000200023002681
:1027F0000029002C002F0032000001000003010618
:102800000109013E3E3E004E6F204D414320636F63
:102810006E666967757265643A20736574206669CF
:10282000726D776172652773204D41430A004E6FC8
:102830002076616C696420454550524F4D2064619B
:1028400074612E20496E697469616C697A696E677A
:102850002E0000002200250028002B002E00310051
:10286000340002010000050108010B0100000A0B01
:1028700002090C0D0E08070304010000000000000F
:102880000000000000000000000000000000000048
:102890000000000000000000121110000000000005
:1028A0000000000000000000000000000000000028
:1028B000000000002100240027002A002D00300025
:1028C000330001010000040107010A010102102088
:1028D0002008081020401020408002010201080456
:1028E00002010102040810204080804020100804EA
:1028F0000201800402018040201008040201080443
:102900000201010204081020408001020408102086
:1029100040800505050507050808080802020202AF
:102920000A0A08080404040401010101010101016B
:102930000303030303030303040707070C0C0C0C36
:102940000C0C0C0C0202020206060606060606061F
:102950000B0B0B0B0B0B0B0B57726F6E6720706121
:10296000796C6164004354524C2F7478743A204F50
:1029700075744F664D656D6F72793A2000202D3E5B
:102980002041543A004368616E20747970653A00C2
:102990004E6F2073746F7265642076616C75657319
:1029A000202D2064656661756C743A200053617651
:1029B000656420455441473A0053657420455441AD
:1029C000473A2000E300B10311241FBECFEFD1E24C
:1029D000DEBFCDBF00E00CBF1BE0A0E0B2E0E2E450
:1029E000F0E802E00BBF02C007900D92A039B107DA
:1029F000D9F723E1A0E9BBE001C01D92A93AB207D3
:102A0000E1F714E1C3EED4E100E006C0219701092B
:102A1000802FFE010F94E537C23ED10780E0080702
:102A2000A9F70F94212C0D940F400C940000FC0189
:102A3000848195810895DC011696ED91FC91309783
:102A400039F080858F70823019F4868197810895DE
:102A500090E080E00895FC01A481B581109721F1F8
:102A600018969C9118979F708EEF890F823010F006
:102A700091111AC019964D935D936D937C931C9799
:102A8000A481B58118969C911897907F92601896B2
:102A90009C930480F581E02D8085982F907F90365F
:102AA00019F48F70806A8087089581E090E008951E
:102AB00087E090E008958AE090E0089588E090E053
:102AC0000895FC01238130E090E080E0FC01EE0FEE
:102AD000FF1FE853F44FA081B181A217B30761F43F
:102AE000880F991F880F991FFC01EC54F44F408305
:102AF0005183628373830895A081B181AB2B19F454
:102B000020813181EDCF019685309105F9F6089548
:102B1000FC01238130E090E080E0FC01EE0FFF1F1C
:102B2000E853F44F408151814217530761F4880FF5
:102B3000991F880F991FFC01EC54F44F608171813B
:102B400082819381089540815181452B89F431839D
:102B50002083880F991F880F991FFC01EC54F44FB4
:102B6000108211821282138260E070E0CB0108951E
:102B700001968530910589F6F7CF880F991F880F48
:102B8000991FFC01E456F44F80819181A281B381A9
:102B90000196A11DB11D80839183A283B383089503
:102BA00085E090E00C94BD1584E090E00C94BD1598
:102BB00083E090E00C94BD1582E090E00C94BD158C
:102BC00081E090E00C94BD1590E080E00C94BD1580
:102BD000CF93DF93EC01E881F9810484F585E02D42
:102BE000199529893A892F5F3F4F3A8B298BDF91BD
:102BF000CF910895CF93DF93EC018E8581110DC0A5
:102C000081E090E049895A892C853D854217530718
:102C100008F080E0DF91CF910895E881F981048484
:102C2000F585E02DCE0119958F3F910549F780E09C
:102C300090E0F0CFFC01848595856817790708F44A
:102C4000CB01928B818B0895DC011E962C911E97EF
:102C5000222339F0ED91FC910190F081E02D6FEF8E
:102C600019940895FC0187859089089581E008955D
:102C700090E080E00895FC0122813381232B49F00C
:102C8000868197818130910539F01CF00397039775
:102C900030F090E080E0089581E090E0089582E0D7
:102CA00090E008950F931F93CF93DF9300D000D04F
:102CB0001F921F92CDB7DEB781E028960FB6F89429
:102CC000DEBF0FBECDBFDF91CF911F910F91089551
:102CD00090E080E00895DC011296ED91FC91309730
:102CE00071F090859F70923039F0953041F4CF01AA
:102CF0000E9485FA90E0089581E090E0089590E0C8
:102D000080E0089565E0FC01808191810E94F3F9E3
:102D1000009761F0FC018085859585958595859561
:102D2000181624F4082E000C990B089590E080E00A
:102D300008950F931F93CF93DF93FC01C281D3813A
:102D40002097C9F18B0188858F70853021F5CE01E0
:102D50000E9485FA8017110671F16CF1602FCE0187
:102D60000E94F3F9FC01892B31F180858F7082304C
:102D700039F461857285838594850F942B3606C05E
:102D80008330C9F46185728583859485DF91CF9105
:102D90001F910F910895672B71F4823029F4698592
:102DA0007A858B859C85E9CF833029F469857A857E
:102DB0008B859C85EBCF60E070E0CB01E7CF64EAC8
:102DC0007CE0811102C06FE97CE08EE692E10D9417
:102DD0000615DC0155962C915597273781F4ED9116
:102DE000FC91008CF18DE02D19956FE179E08EE674
:102DF00092E10F9406158EE692E10D94BA120895B1
:102E0000CF93DF93009709F490C0FC012081222327
:102E100009F48BC0EC0163E17EE00F942F30892B25
:102E200009F45FC066EC7DE0CE010F942F30892B52
:102E300009F45AC06AEE7DE0CE010F942F30892B41
:102E400009F455C06AEE79E0CE010F942F30892B3A
:102E500009F450C066EE79E0CE010F942F30892B33
:102E600009F44BC062EE79E0CE010F942F30892B2C
:102E700009F446C06EED79E0CE010F942F30892B16
:102E800009F441C06AED79E0CE010F942F30892B0F
:102E9000E9F166ED79E0CE010F942F30892BC9F16D
:102EA00061ED79E0CE010F942F30892BA9F16DEC03
:102EB00079E0CE010F942F30892B89F167E17EE014
:102EC000CE010F942F30892B69F169EC79E0CE01A6
:102ED0000F942F30892B49F58DE090E0DF91CF9151
:102EE000089582E090E0FACF89E090E0F7CF81E0AA
:102EF00090E0F4CF88E090E0F1CF85E090E0EECF75
:102F000086E090E0EBCF87E090E0E8CF8AE090E0C9
:102F1000E5CF8BE090E0E2CF8CE090E0DFCF83E084
:102F200090E0DCCF84E090E0D9CF90E080E0D6CF95
:102F3000CF92DF92EF92FF920F931F93CF93DF9385
:102F4000CDB7DEB7C154D1090FB6F894DEBF0FBEBE
:102F5000CDBF6C01AB0130E020E060E4CE01019612
:102F60007C010E942DD9F70101900020E9F73197EB
:102F70008F010E191F09A801B701C6010F94723CF9
:102F8000892B11F010E000E0C801CF5BDF4F0FB6D6
:102F9000F894DEBF0FBECDBFDF91CF911F910F918F
:102FA000FF90EF90DF90CF9008950D94922E0D94A6
:102FB000922ECF92DF92EF92FF920F931F93CF93B7
:102FC000DF93CDB7DEB7C054D1090FB6F894DEBF9A
:102FD0000FBECDBF8091F70D9091F80D059709F4C4
:102FE00049C06115710509F445C069017A018B0179
:102FF00040E450E0CE0101960F94803C6FE270E017
:10300000CE0101960F94473C892B41F4980143E08F
:1030100050E060E4CE0101960E942DD94FE350E0CC
:10302000B601CE0101960F94623C0E945FF988239D
:1030300009F18091F70D9091F80D0697D9F48091E0
:10304000870C811117C0B701CE0101960F9451076B
:1030500081E090E0C05CDF4F0FB6F894DEBF0FBE9A
:10306000CDBFDF91CF911F910F91FF90EF90DF9037
:10307000CF90089590E080E0EDCFCF92DF92EF9275
:10308000FF920F931F93CF93DF93CDB7DEB7609777
:103090000FB6F894DEBF0FBECDBF7C016B01CA0135
:1030A000B9012AE0AE014F5F5F4F0F94D330D701D3
:1030B000ED91FC910288F389E02D9801AE014F5FFC
:1030C0005F4FB601C701199560960FB6F894DEBF41
:1030D0000FBECDBFDF91CF911F910F91FF90EF9069
:1030E000DF90CF900895CF92DF92EF92FF920F93EF
:1030F0001F93CF93DF93CDB7DEB760970FB6F894E9
:10310000DEBF0FBECDBF7C016B01BA01A901CE01AC
:1031100001960E9455DAD701ED91FC910288F3895E
:10312000E02D9801AE014F5F5F4FB601C7011995C1
:1031300060960FB6F894DEBF0FBECDBFDF91CF9182
:103140001F910F91FF90EF90DF90CF9008951F9304
:10315000CF93DF93FC01162FC389D489818992898B
:103160009C012F5F3F4F328B218BC80FD91FCE019F
:103170000F944837181721F0612FCE010F94503764
:1031800081E090E0DF91CF911F910895FC0181894A
:103190009289248535858217930740F423893489E1
:1031A000820F931F0F94483790E008958FEF9FEFA1
:1031B00008958F929F92AF92BF92CF92DF92EF923B
:1031C000FF920F931F93CF93DF93E091F90DF0914E
:1031D000FA0D309709F467C0812EF02E932EC22E7F
:1031E000A52ED42EB72EE62EBC01CF010E9441F9A8
:1031F000EC01892B19F481E090E057C088858F702D
:103200008530C9F760E0CE010E94F3F98C0161E0DE
:10321000CE010E94F3F9FC01C185D285D80119962F
:103220002D913C912130310561F13CF46F2DCE019F
:10323000232B09F70E9460CEDECF2230310531F119
:1032400027303105C1F6892BB1F280858F7085302A
:1032500091F6C681D781209771F288858F7084306E
:1032600061F40F2D182D2C2D392D4D2D5A2D6E2D2D
:103270007B2D89859A850E94D9180A80DB81C02D13
:10328000EACF6F2DCE0103960E9460CE6E2DCE0147
:103290000E9460CE6D2DCE0101960E9460CE6C2DF5
:1032A000CE010296C7CF90E080E0DF91CF911F91D1
:1032B0000F91FF90EF90DF90CF90BF90AF909F90D5
:1032C0008F900895CF92DF92EF92FF920F931F930A
:1032D000CF93DF93E091D60BF091D70B3097C9F0E5
:1032E00090859F709530A9F469017A01EB01682FF0
:1032F000CF010E94F3F9FC0190859F70943049F44E
:1033000081859285009729F09601A701BE010E9450
:10331000D918DF91CF911F910F91FF90EF90DF901F
:10332000CF9008958F929F92AF92BF92CF92DF92EB
:10333000EF92FF920F931F93CF93DF938091D40B63
:103340009091D50B892B09F48BC021E030E0D0E0BF
:10335000C0E0CC24C394D12C46010C2E02C0880CB2
:10336000991C0A94E2F7092C000CAA08BB08790101
:1033700084E0E80EF11CC90150E040E060912E02AB
:1033800070912F02FC016817790720F4E0912E025A
:10339000F0912F0260919A0C70919B0CE60FF71F31
:1033A000A081E091D40BF091D50BBC016150710963
:1033B000E60FF71F60816A17F1F06091910B709131
:1033C000920B63307105B4F04091970B5091980BBC
:1033D0006091990B70919A0B482959296A297B2988
:1033E0004093970B5093980B6093990B70939A0BA3
:1033F000A08351E041E00196E816F90609F0BECF3E
:103400004423D9F18091910B9091920B0196909366
:10341000920B8093910B5523E9F0E091D40BF0913E
:10342000D50BE20FF31F028110E0218130E04081D3
:1034300050E03197608170E0CE010E94621980E017
:103440000E94B4D36093930B7093940B8093950B6D
:103450009093960B21969701C430D10509F07CCF4B
:10346000DF91CF911F910F91FF90EF90DF90CF9060
:10347000BF90AF909F908F9008951092920B1092F2
:10348000910BC9CF009789F0FC0120852F70253062
:1034900061F40E94F3F9009741F0FC0120852F7040
:1034A000243019F481859285089590E080E0089594
:1034B000CF92DF92EF92FF920F931F93CF93DF9300
:1034C00000D000D0CDB7DEB78091820C81119CC0B6
:1034D0008091F70D9091F80D02970CF495C08091B2
:1034E000DA0B9091DB0B009709F48EC061EE75E06A
:1034F0000E9441F98C01009709F486C00E9485FA68
:10350000E82EF12CE114F10409F47EC070E060E0D3
:10351000C8010E94421A6C01EA94EF2809F483C0A2
:1035200061E0C8010E94F3F9FC0101851285CE011A
:1035300001960E948EFFCE0101960E94ACFF68EBBF
:1035400070E18DEB91E10F940615B6018DEB91E1E1
:103550000F9410146BE07AE08DEB91E10F9410144E
:103560004AE050E0B8018DEB91E10F94F7136BE066
:103570007AE08DEB91E10F9410146EE07EE08DEB1C
:1035800091E10F9410148DEB91E10F94BA1262E067
:1035900072E08CE892E10E9428C5D0928212C0921B
:1035A000811210938412009383128EE09EE0892B87
:1035B000E9F58FED95E090938612809385128091C6
:1035C000D80B9091D90B009741F070E060E00E9419
:1035D000421A9093840C8093830C8091830C909179
:1035E000840C009731F19093881280938712109287
:1035F0008A121092891281E08093820C6FE970E147
:103600008DEB91E10F94061526960FB6F894DEBF68
:103610000FBECDBFDF91CF911F910F91FF90EF9023
:10362000DF90CF90089502E012E081CF8EE09EE01F
:10363000C2CF81E994E0892B19F48FED95E0D3CFC7
:1036400081E994E0D0CFCF93DF9300D000D01F92D8
:103650001F92CDB7DEB7FC01862F8F706181607F2E
:10366000682B618388E0DE01119601900D928A95A6
:10367000E1F729813A814B815C816D817E818F8167
:10368000988528960FB6F894DEBF0FBECDBFDF91A8
:10369000CF910895CF93DF9300D000D01F921F9257
:1036A000CDB7DEB7FC01608398E0DE011196019092
:1036B0000D929A95E1F729813A814B815C816D8168
:1036C0007E818F81988528960FB6F894DEBF0FBE55
:1036D000CDBFDF91CF9108956F927F928F929F928D
:1036E000AF92BF92CF92DF92EF92FF920F931F9310
:1036F000CF93DF93CDB7DEB7A0970FB6F894DEBFB8
:103700000FBECDBF8C01862E7A01DC018D919C917C
:103710001197892B09F466C01496ED91FC913097AE
:1037200009F460C080818071BFEF6B135DC0B1F49C
:1037300081E0A0960FB6F894DEBF0FBECDBFDF913B
:10374000CF911F910F91FF90EF90DF90CF90BF909E
:10375000AF909F908F907F906F9008954330510568
:1037600039F3818082942FE082226FEB79E08EE63C
:1037700092E10F9406154AE050E0D80113966C913F
:103780008EE692E10F94D0126DEB79E08EE692E135
:103790000F940615D8011496ED91FC9161816F701C
:1037A0004AE050E08EE692E10F94D0126AEB79E0A5
:1037B0008EE692E10F9406154AE050E0682D8EE601
:1037C00092E10F94D0128EE692E10F94BA12D801D2
:1037D0001496ED91FC9181818F70881207C08081D1
:1037E0008F7E808380E0A5CF8111FCCF198E1A8E49
:1037F0001B8E1C8E1D8E1E8E1F8E18A28A8D8F70A2
:103800008A8FD8011496ED91FC9181818F70881573
:10381000A9F1B3E0EB16F10489F168EB79E08EE6EB
:1038200092E10F9406154AE050E0F80163818EE6BC
:1038300092E10F94D01266EB79E08EE692E10F945C
:103840000615D8011496ED91FC9161816F704AE0E4
:1038500050E08EE692E10F94D01263EB79E08EE6B1
:1038600092E10F9406154AE050E0682D8EE692E151
:103870000F94D0128EE692E10F94BA12F8012081D3
:103880003181FCE0F81508F416C1E82DF0E0882736
:10389000E35BF34E8F4F0D94E5375A1C971C181DB0
:1038A0002F1D3B1D181DF11C181D3E1D491D051D1A
:1038B0004C1D581DD8011496CD90DC90F6018181E5
:1038C0008F70853009F4F7C050F48230C1F066EF94
:1038D00075E0C9010E9441F93C01912C4BC0873031
:1038E000D1F08A30A1F76FEE75E0C9010E9441F96D
:1038F0003C01D6019C9092FA992490F83BC069EE65
:1039000075E0C9010E9441F93C01D6019C9090FAF2
:10391000992490F82FC068EE75E0C9010E9441F922
:103920003C01F601908091FA992490F823C06BEF46
:1039300075E0C9010E9441F93C01D8011496ED914E
:10394000FC91808180FB992490F8982F9E7F80FFC6
:10395000916090836114710469F461E0CE0149962D
:103960000E944A1B298B3A8B4B8B5C8B6D8B7E8B19
:103970008F8B988FF801A080B18061E376E0C5015C
:103980000E9441F96C0166E376E0C5010E9441F9AD
:103990005C01892B81F4C114D10469F460E0CE018B
:1039A00049960E944A1B29833A834B835C836D832B
:1039B0007E838F839887D8011496ED91FC916114D2
:1039C000710409F07CC0898D811179C0B82DBF7058
:1039D0008B2E8181807F882A818280818F7E808367
:1039E000A7CE60E076E0C9010E9441F93C01D80110
:1039F0001496ED91FC91808181FB992490F8982F89
:103A00009D7F81FF92609083B5CF66E076E0C9012B
:103A10000E9441F93C01D8011496ED91FC918081FE
:103A200082FB992490F8982F9B7F82FF9460EBCFC4
:103A300066EF75E0C9010E9441F93C01892B09F04C
:103A40004CCF62E0CE0149960E944A1B29873A87F3
:103A50004B875C876D877E878F87988B3ECF6CE026
:103A600076E0C9010E9441F93C01D8011496ED911C
:103A7000FC9190804CCF61E176E0F3CF67E176E096
:103A8000C9010E9441F93C01D8011496ED91FC91C5
:103A900049CF6DE176E0F4CF64E276E0C9010E949F
:103AA00041F93C01D8011496ED91FC91908023CF0F
:103AB0006AE276E0F3CF912C712C612C5BCF83E02E
:103AC000E816F104B9F0982D9F70892E8181807FCE
:103AD000882A818280818F7E8083E98CFA8C0B8D8D
:103AE0001C8D2D8D3E8D4F8D58A1692DC3010E94D7
:103AF00028E11ECE81818F70881509F419CE829439
:103B000090EF8922882A81828081806168CFCF935B
:103B1000DF9300D000D01F921F92CDB7DEB7FC011B
:103B200091819F70906B91834483558366837783E3
:103B300088E0DE01119601900D928A95E1F72981C6
:103B40003A814B815C816D817E818F819885289639
:103B50000FB6F894DEBF0FBECDBFDF91CF910895B1
:103B6000CF93DF9300D000D01F921F92CDB7DEB766
:103B7000FC016F3F710519F014F06FEF70E077FDF5
:103B800060E09181892F82958F7081508230C8F4D6
:103B9000648388E0DE01119601900D928A95E1F729
:103BA00029813A814B815C816D817E818F819885ED
:103BB00028960FB6F894DEBF0FBECDBFDF91CF9130
:103BC00008959F7090619183E3CFCF93DF93CDB73A
:103BD000DEB760970FB6F894DEBF0FBECDBF198277
:103BE0001A821B821C821D821E821F8218868A8175
:103BF0008F708A836FEF70E0CE0101960E94B01D36
:103C000060960FB6F894DEBF0FBECDBFDF91CF91A7
:103C10000895CF92DF92EF92FF92DC01362F11963A
:103C2000EC911197E295EF70EC3008F0B6C0F0E03F
:103C30008827E25EF14E8F4F0D94E537D01E561E59
:103C4000561ECD1ECD1ECD1E9B1E5D1ECD1ECD1E35
:103C50002A1E2A1E14968D919D910D90BC91A02D27
:103C6000662399F0B7FD9FC08F3F9105A105B1056F
:103C700029F024F08FEF90E0A0E0B0E02FEF30E0EB
:103C8000A901481B590BCA010CC0B7FD89C08F3F61
:103C90009105A105B10529F024F08FEF90E0A0E097
:103CA000B0E0FF90EF90DF90CF90089514962C91A4
:103CB000822F90E06623A9F3E1CF1496CD90DD909A
:103CC000ED90FC901797662301F120E030E0A90108
:103CD000C701B6010F94243687FD65C020E030E0AF
:103CE0004FE753E4C701B6010F942C3918160CF4B2
:103CF00057C0A701960160E070E08FE793E40F944E
:103D000017380F94F638CB01CCCF20E030E0A90172
:103D1000C701B6010F94243687FD42C020E030E091
:103D20004FE753E4C701B6010F942C391816DCF1A4
:103D3000C701B601E6CF14966D917D918D919C914E
:103D400017973323B1F06D395FEF75078507950736
:103D500054F1611524E67207810591050CF52CE9F3
:103D60003FEF4FEF5FEF0F949037C90181509F4FA6
:103D700098CF6D394FEF7407840794078CF0611565
:103D800054E675078105910574F424E630E040E0BF
:103D900050E00F949037C90184CF8FEF9FEF81CF10
:103DA00090E080E07ECF8FEF90E07BCFCF93DF93EA
:103DB000EC01DB01898182958F708630E1F128F476
:103DC00081508230C8F080E014C0873009F18A50F9
:103DD0008230C8F72FEF30E00F94FC3724E630E054
:103DE00040E050E00F9490372C833D834E835F83F7
:103DF00081E0DF91CF9108952FEF30E00F94FC37F1
:103E000024E630E040E050E00F9490372C83F0CF70
:103E10002FEF30E00F94FC3724E630E040E050E034
:103E20000F949037CA01B9010F942B366C837D83B0
:103E30008E839F83DDCF2CE933E60F94FC3724E695
:103E400030E040E050E00F9490372C833D834E8368
:103E50005F83B9CFDC011196EC911197E295EF7079
:103E6000E150EB3008F039C0F0E08827E55CF04E17
:103E70008F4F0D94E5375E1F5E1F6D1F461F461F57
:103E80004F1F661F661F661F461F461F14966D91C3
:103E90007D918D919C9117970F942B3608951496D0
:103EA0006D917D918D919C91179724E630E040E0D3
:103EB00050E00F949037CA01B901EECF14966C917F
:103EC00070E090E080E00F942936089514966D918B
:103ED0007D918D919C911797089560E070E0CB01E2
:103EE0000895DC011196EC911197E295EF70E15085
:103EF000EB3008F037C0F0E08827EE57F04E8F4FD8
:103F00000D94E537941F941FB21F8D1F8D1FA31FA3
:103F10009A1F9A1F9A1F8D1F8D1F14966D917D9168
:103F20008D919C911797089514966C9170E090E094
:103F300080E0089514966D917D918D919C911797D5
:103F40000F94F638089514966D917D918D919C9102
:103F5000179724E630E040E050E00F949037CA0114
:103F6000B901089560E070E0CB010895CF92DF922F
:103F7000EF92FF920F931F93CF93DF9300D000D067
:103F80001F921F92CDB7DEB709831A832B833C8320
:103F90004D835E836F837887FC01208131812115F9
:103FA000310589F490E080E028960FB6F894DEBFE2
:103FB0000FBECDBFDF91CF911F910F91FF90EF907A
:103FC000DF90CF9008958C01C9010E9485FAE82EF8
:103FD000F12CF6E0EF16F10494F40E94F5BE009780
:103FE00021F0FC012085207F2087BC01F801808121
:103FF00091810E94F2FCFFEFEF1AFF0AEACF65E021
:10400000F801808191810E94F3F98C01892B51F292
:104010008981803138F6CE0101960E94711F1616F3
:1040200017061806190624F4F80180858D7089F0AA
:10403000F80180858F7080876FE37AE08EE692E1E9
:104040000F9406158EE692E10F94BA1281E090E08B
:10405000ABCF0F94B4066B017C01CE0101960E9498
:10406000711FC60ED71EE81EF91EF801C186D28642
:10407000E386F48689818295807F8260808764E30D
:104080007AE08EE692E10F940615CE0101960E9429
:10409000711FAB01BC012AE030E08EE692E10F9483
:1040A000AF136EE27AE08EE692E10F940615F80106
:1040B00041855285638574852AE030E08EE692E181
:1040C0000F94AF13BFCFEF92FF920F931F93CF9335
:1040D000DF93CDB7DEB7C056D1090FB6F894DEBF77
:1040E0000FBECDBF7C016A960FAF6A976B961FAF6C
:1040F0006B976C962FAF6C976D963FAF6D976E96E2
:104100004FAF6E976F965FAF6F97A0966FAFA09708
:10411000A1967FAFA19798E0FE01E75AFF4FDE011D
:10412000AF5ABF4F01900D929A95E1F76A96EFADA5
:104130006A97E150ED3008F07DC0F0E08827EC553B
:10414000FF4D8F4F0D94E5370A210C2118211A21BC
:104150001621B12008211A211A210E211021142123
:10416000122167E0CE018F5A9F4F0E944A1B6AE1DD
:104170007AE08EE692E10F9406154AE050E06296EE
:104180006FAD62978EE692E10F94D0126FE07AE005
:104190008EE692E10F940615CE018F5A9F4F0E9432
:1041A000711FAB01BC012AE030E08EE692E10F9472
:1041B000AF138EE692E10F94BA1262960FAD62973A
:1041C00063961FAD639764962FAD649765963FAD78
:1041D000659766964FAD669767965FAD67976896E9
:1041E0006FAD689769967FAD6997C7010E94B61F4A
:1041F00081E090E0C05ADF4F0FB6F894DEBF0FBEEB
:10420000CDBFDF91CF911F910F91FF90EF90089557
:1042100066E0A8CF62E0A6CF61E0A4CF6BE0A2CFBA
:104220006AE0A0CF6CE09ECF6DE09CCF63E09ACFB8
:1042300065E098CF90E080E0DDCFDC011196EC9155
:104240001197E295EF70E150EB3008F03EC0F0E0DE
:104250008827E25DFE4D8F4F0D94E53744214421C0
:104260006521392139215E214F214F214F213921EB
:10427000392114962D913D914D915C911797A4E6AB
:10428000B0E00F94AF37089514966C9184E6689F60
:10429000B0011124072E000C880B990B089520E023
:1042A00030E048EC52E414966D917D918D919C9193
:1042B00017970F948A360F94F638089514966D91D7
:1042C0007D918D919C911797089560E070E0CB01EE
:1042D0000895FC01A7812A2F2E7FD1F0818182953C
:1042E0008F7081508330A0F4A695A150BB0B2BE5B5
:1042F00031E00F94FC3724E630E040E050E00F94CA
:104300009037DA01C90187569F4FAF4FBF4F0895CD
:104310008FEF9FEF08952F923F924F925F926F928F
:104320007F928F929F92AF92BF92CF92DF92EF9245
:10433000FF920F93CF93DF9300D01F92CDB7DEB7DC
:104340007C017A8369835C834B83DB011C92FC01D3
:104350006081662309F44EC030FF4CC0F9E06F9FC6
:10436000B00111246F5B704FCD010F946630D701FF
:1043700011968C91807F41F04B815C8169E177E0FF
:1043800089819A810F94623CE981FA810190002031
:10439000E9F7319729813A81E21BF30B19012E0EBF
:1043A0003F1E4B815C814E1B5F0B415051095C836A
:1043B0004B83D7011196EC9111978E2F807F09F4D2
:1043C000F7C0E295EF70E150EC3008F0F1C0F0E09A
:1043D0008827E251FE4D8F4F0D94E537FD21A02235
:1043E0000D236C2387234B221D231D231D233922DC
:1043F0002122A32329803A80DCCFF7018481282F52
:1044000030E050E040E0002359F030E0A4E6B0E0B6
:104410000F94C2372FEF30E040E050E00F94903718
:104420005F934F933F932F938BE396E09F938F93EC
:10443000FC81FF932B812F933F922F920F949A3CF4
:10444000B2C017968C9117978F9316968C911697EA
:104450008F9315968C9115978F9314968C918F93BB
:104460008EE396E09F938F93BC81BF93EB81EF9394
:10447000E3CF17968C9117978F9316968C9116977A
:104480008F9315968C9115978F9314968C918F938B
:1044900082E496E0E7CF1496CD90DD90ED90FC900D
:1044A0001797F7FE34C084E6882E912CA12CB12CEE
:1044B000C701B601A50194010F9490379B01AC018F
:1044C00088279927DC01821B930BA40BB50BBF93A4
:1044D000AF939F938F9366277727CB016C197D0944
:1044E0008E099F09A50194010F9490375F934F9314
:1044F0003F932F9386E496E09F938F933C813F9365
:104500004B814F933F922F920F949A3C4CC0C7011E
:10451000B60124E630E040E050E00F9490379F93DE
:104520008F937F936F935F934F933F932F9387E482
:1045300096E09F938F939C819F93AB81AF93E2CF43
:10454000C7010E946921BC01D7011696CC9016972D
:104550001796DC901797D0FADD24D0F814969C912A
:1045600014971596FC90EB80BC80292F30E050E02A
:1045700040E077FD35C0011135C07F936F931F92E6
:104580001F921F929F931F92FF92DF92CF9280E51E
:1045900096E09F938F93FC81FF932B812F933F9203
:1045A0002F920F949A3C0FB6F894DEBF0FBECDBF8A
:1045B00089819A810F900F900F900F90DF91CF918A
:1045C0000F91FF90EF90DF90CF90BF90AF909F90B2
:1045D0008F907F906F905F904F903F902F900895B5
:1045E000002361F0292F30E0A4E6B0E00F94C23739
:1045F0002FEF30E040E050E00F9490375F934F93FF
:104600003F932F931F92FF92DF92CF9283E596E024
:104610009F938F93BF92EF9275CF15968C911597BC
:104620001F928F9316969C91169717968C91817076
:104630008F939F9386E596E015CF14968D909D906D
:10464000AD90BC90179720E030E0A901C501B401FE
:104650000F9424362401350187FF04C077FA709443
:1046600077F87094C301B2010F94F6386B01072EEE
:10467000000C880B990B0F942B369B01AC01C301E6
:10468000B2010F94173820E030E04AE754E40F9469
:104690008A360F9481390F94F638062F772E20E052
:1046A00030E0A901C501B4010F94243687FF07C08B
:1046B0007F920F93DF92CF928CE596E0D3CE7F92DC
:1046C0000F93DF92CF928DE596E09F938F933C817D
:1046D0003F934B814F93B0CE14968C9114971F92B9
:1046E0008F9315968C9115971F928F9316968C9198
:1046F0001F928F9383E596E09F938F93BC81BF9326
:10470000EB81EF933F922F920F949A3C4CCF1796E8
:104710008C9117971F928F9314968C9114971F92D8
:104720008F9315968C9115971F928F9316968C9157
:104730001F928F9380E596E09F938F93BC81BF93E8
:10474000EB81EF93DFCE14966D917C914B815C8170
:10475000C1010F94803C2CCFEF92FF920F93CF9327
:10476000DF93CDB7DEB7A0970FB6F894DEBF0FBECC
:10477000CDBF7C0100E020E033E040E250E0BE012C
:104780006F5F7F4F0E948B21BE016F5F7F4F8EE670
:1047900092E10F94101469E270E18EE692E10F94B9
:1047A0000615F701618162956F704AE050E08EE670
:1047B00092E10F94D01262E270E18EE692E10F94E2
:1047C0000615F70161816F704AE050E08EE692E1D4
:1047D0000F94D0128EE692E10F94BA12A0960FB603
:1047E000F894DEBF0FBECDBFDF91CF910F91FF9048
:1047F000EF900895CF93DF93EC016115710539F4C3
:104800008F8181708F8381E0DF91CF9108958981BD
:10481000982F92959F7029F180E09430A8F79B0122
:10482000770F440B550B2959310941095109A4E669
:10483000B0E00F94AF372BE531E040E050E00F944B
:10484000903737FF02C030E020E02536310514F004
:1048500024E630E02F5F220F8F818170282B2F8379
:10486000D2CF8F7080628983DACFFC019181892F4A
:1048700082958F7021F0823029F080E008959F703A
:10488000906291839B0177FF02C030E020E02E36DA
:1048900081E0380714F02DE631E02683878130FB74
:1048A00080F9878381E00895EF92FF920F931F9321
:1048B000CF93DF93FC01892B69F19081992351F10A
:1048C0009D3291F180ED890F8A3070F1C8E0D0E01F
:1048D000953211F1CEEFDFEF9B37F1F0C7E1D0E079
:1048E0009332D1F08F018AE4E82E8FE0F82EC1E0F8
:1048F000D0E0C7010F943F30AC01B701C8010F945D
:104900005830892B49F0219689E0E80EF11CC93115
:10491000D10579F7CFEFDFEFCE01DF91CF911F9176
:104920000F91FF90EF900895D0E0C0E0F5CFEF92A7
:10493000FF920F931F93CF93DF93EC01892B51F1DB
:1049400088858F70843009F5E984FA84C7010E9454
:1049500054248C0118161906ECF4C7010E946ABC95
:10496000C801012E000CAA0BBB0B89879A87AB8765
:10497000BC878885807F82608887C801DF91CF915E
:104980001F910F91FF90EF900895823019F40985DF
:104990001A85F3CF10E000E0F0CF4F925F926F9254
:1049A0007F928F929F92AF92BF92CF92DF92EF92BF
:1049B000FF920F931F93CF93DF93CDB7DEB760972E
:1049C0000FB6F894DEBF0FBECDBF6115710539F586
:1049D00028E0FC01DE01119601900D922A95E1F785
:1049E00029813A814B815C816D817E818F8198859F
:1049F00060960FB6F894DEBF0FBECDBFDF91CF91AA
:104A00001F910F91FF90EF90DF90CF90BF90AF90EC
:104A10009F908F907F906F905F904F9008956B0163
:104A20008C016EE877E0C6010E9441F95C01F80153
:104A3000F080FF2009F453C0009709F450C0FC0136
:104A400080858295807F859585958595859584302F
:104A500009F4BFC0853009F042C065E676E08EE615
:104A600092E10F9410148EE692E10F94BA12F501C0
:104A7000E680F780E114F10491F1F70180858F70F1
:104A80005701823061F0B12CA12CE114F10409F43A
:104A90001DC1F70180858F70853021F0F701E2801C
:104AA000F380F3CFC7010E9485FA8230B9F760E046
:104AB000C7010E94F3F90E9497244C0161E0C701ED
:104AC0000E94F3F9F80120812815190439F7FC0137
:104AD00020852F70223011F7009709F001C163E79C
:104AE00076E0C6010E9441F97C01F8018181807F56
:104AF00009F407C1E114F10409F47DC0F7018085D0
:104B00008F70853009F001C1C7010E9485FA843099
:104B100009F0FBC0C8010E94711F4B015C0160E0FD
:104B2000C7010E94F3F9FC0181859285A385B485B4
:104B300019821A821B821C821D821E821F82188685
:104B400088169906AA06BB060CF499C08A818F7054
:104B50008A8363E0C7010E94F3F95C0162E0C70148
:104B60000E94F3F9FC01418452846384748461E0FF
:104B7000C7010E94F3F94C0160E0C7010E94F3F9FC
:104B8000FC01C184D284E384F484C8010E94711FB3
:104B9000F501218532854385548524193509460957
:104BA00057096C197D098E099F090F945E37F4012E
:104BB00021853285438554852C193D094E095F09AD
:104BC0000F949037BA01A901440D551D661D771D3C
:104BD00031C066E377E0818592850F94523C892B42
:104BE00009F07DCFF0E1FF1609F460C0FF1568F011
:104BF00082E0F816E1F1F801408151816281738110
:104C000084819581A681B78129C0E1E1FE16F1F189
:104C1000F2E1FF12F0CF19821A821B821C821D82E0
:104C20001E821F8218868A818F708A8344E150E039
:104C300060E070E0CE0101960E94871D29873A87C7
:104C40004B875C876D877E878F87988B49855A85D0
:104C50006B857C858D859E85AF85B88949835A8310
:104C60006B837C838D839E83AF83B887B9CE198293
:104C70001A821B821C821D821E821F8218868A81D4
:104C80008F708A8340E050E0BA01D4CF19821A8233
:104C90001B821C821D821E821F8218868A818F7051
:104CA0008A8340E850E060E070E0C4CF19821A8245
:104CB0001B821C821D821E821F8218868A818F7031
:104CC0008A834FEF50E060E070E0B4CFA114B104EC
:104CD00009F405CFF50180858F7009F400CFC50177
:104CE00019821A821B821C821D821E821F821886D4
:104CF0002A812F702A83FC01418552856385748542
:104D000099CFE114F10409F476CFF70180858F7013
:104D100009F071CF19821A821B821C828A818F70DE
:104D20008A8349815A816B817C8180E090E0DC013B
:104D300095CF0F931F93CF93DF938C01FC01C0811C
:104D4000D1816FE270E0CE010F948F3C0097E9F0C3
:104D5000FC011192CF010E940017EC0163E07AE0A0
:104D60008EE692E10F9406154AE050E0BE018EE611
:104D700092E10F94F7138EE692E10F94BA12CE01EE
:104D8000DF91CF911F910F910895CE010E940017DE
:104D9000EC01892BA1F3F80111821082F0CFDC0124
:104DA000ED91FC91309729F090859F7081E09530CE
:104DB00009F080E00895EF92FF920F931F93CF9335
:104DC000DF93EC017B018E819F81892BD9F488814F
:104DD00099810E9485FA082F10E00530110594F49E
:104DE0000E94F5BE009721F0FC012085207F2087DE
:104DF0009F838E83BC01888199810E94F2FC0F5FA2
:104E00001F4FEBCFEE81FF813097D9F08085982F2F
:104E10009F70A9F4807F82608087EE81FF81118678
:104E2000128613861486EE81FF81F782E682C7011F
:104E3000DF91CF911F910F91FF90EF9008959230E5
:104E400061F3F12CE12CF3CFCF92DF92EF92FF923E
:104E50000F931F93CF93DF93EC016A017B018E8147
:104E60009F81892BD9F4888199810E9485FA082F26
:104E700010E00530110594F40E94F5BE009721F072
:104E8000FC012085207F20879F838E83BC01888141
:104E900099810E94F2FC0F5F1F4FEBCFEE81FF81E3
:104EA000309749F18085982F9F7019F5807F826037
:104EB0008087EE81FF81C186D286E386F48667EF24
:104EC00079E08EE692E10F9406152AE030E0B70112
:104ED000A6018EE692E10F94AF138EE692E1DF9188
:104EE000CF911F910F91FF90EF90DF90CF900D9495
:104EF000BA129230F1F2DF91CF911F910F91FF9092
:104F0000EF90DF90CF900895FC0186819781009704
:104F100099F0FC0120852F70223029F4618572857B
:104F2000838594850895253039F460E00E94F3F973
:104F3000009711F0FC01F2CF60E070E0CB01089522
:104F40000F931F93CF93DF93FC01C281D3812097EE
:104F5000F9F088858F70823049F4672BC9F4898510
:104F60009A85DF91CF911F910F910895853081F43B
:104F70008B01CE010E9485FA8017110649F044F09A
:104F8000602FCE010E94F3F9FC0181859285E9CF63
:104F900090E080E0E6CF0F931F93CF93DF93EC0177
:104FA0008B017B836A8380E692E09983888370E03B
:104FB00060E0C8010E94A02797FD0CC09D838C83F0
:104FC000C8010E946B169F838E83DF91CF911F9142
:104FD0000F910895919581959109F0CFCF92DF922D
:104FE000EF92FF920F931F93CF93DF93EC01888191
:104FF00099810E9485FA082F10E0043011059CF475
:105000000E94F5BE009739F0DC0118962C91189794
:10501000207F18962C93BC01888199810E94F2FC14
:105020000F5F1F4FEACFC880D98060E0C6010E94A1
:10503000F3F9FC011185188761E0C6010E94F3F9BC
:105040007C019B838A8362E0C6010E94F3F99D8301
:105050008C8364E0C6010E94F3F99F838E8315312F
:1050600008F027C1E12FF0E08827E65CF74D8F4F6D
:105070000D94E5376428642864284F285929592954
:10508000592959295929592983287228B928E028EA
:10509000CB285929EB2864283F29592962298AE01D
:1050A00090E00F94F62D8C01BE010E94CB2784E581
:1050B00093E0D80111969C938E9319961C921E92A0
:1050C00018971A870987F5C088E090E00F94F62DAD
:1050D0008C01BE010E94CB278EE293E0F801918300
:1050E0008083EFCF8DE090E00F94F62D8C01BE0110
:1050F0000E94CB2788E093E0D8018D939C93C80150
:105100000E9407E0DECF89E090E00F94F62D8C013D
:10511000FC01D383C28384EE92E091838083CE012D
:105120000E941B15D80115969C938E93149785E7C2
:105130009EE018969C938E931797CE010E946B1653
:10514000892B09F4BECF70E060E0CE010E94A02759
:10515000F8018683882341F0823009F0B2CF82E1E2
:105160009FE090878783ADCF81ED91E19087878322
:10517000A8CF8EE090E00F94F62D8C01DC01139601
:10518000DC93CE93129786EE93E08D939C93C801A7
:105190000E947DE096CF86E090E00F94F62D8C0182
:1051A000FC01D383C28380EC92E091838083CE01A3
:1051B0000E941B15D80115969C938E93149781CF4E
:1051C00086E090E00F94F62D8C01FC01D383C2831E
:1051D0008CE992E0EACF8BE090E00F94F62D8C0101
:1051E000FC01D383C28382EC93E091838083168297
:1051F00070E060E0CE010E94A02797FD2DC0D8018D
:1052000015969C938E931497D80114968D919C912A
:10521000009719F0863491052CF080E290E0F801B7
:105220009583848361E070E0CE010E94991620E0AE
:1052300030E04AE754E40F948A360F94FD38611544
:1052400071058105910589F0D80117966D937D93BD
:105250008D939C931A9735CF919581959109F8017B
:105260009583848381E08683CFCF88E893E1A0E0B3
:10527000B0E0F80187839087A187B28722CF86E0CC
:1052800090E00F94F62DFC01D383C2838EE993E066
:105290009183808315821482E114F10441F0D701D7
:1052A00018968C918F70863011F4F582E482FA871B
:1052B000E987DF91CF911F910F91FF90EF90DF90E1
:1052C000CF9008958CE090E00F94F62D8C01FC01B6
:1052D000D383C2838AE793E09183808370E060E0A8
:1052E000CE010E94991620E030E048EC52E40F9481
:1052F0008A360F94FD38D80114966D937D938D9363
:105300009C93179761E070E0CE010E94991620E00F
:1053100030E04AE754E40F948A360F94FD38F801E0
:105320006087718782879387CCCECF92DF92EF928E
:10533000FF926A017B0163E0FC01808191810E9400
:10534000F3F9FC01892BA9F080858D7091F4C0944C
:10535000D094E094F094CC24CA9481859285A3855E
:10536000B4858C219D21AE21BF2181879287A3879F
:10537000B487FF90EF90DF90CF900895CF92DF92A7
:10538000EF92FF926A017B0163E0FC0180819181D1
:105390000E94F3F9FC01892BA9F09085892F8D706B
:1053A00089F4907F92609087CC24FF2441855285B8
:1053B000638574854C295D296E297F294187528731
:1053C00063877487FF90EF90DF90CF900895CF921E
:1053D000DF92EF92FF926A017B0163E0FC01808122
:1053E00091810E94F3F9009791F0FC0120852F70C4
:1053F000223069F461857285838594856C217D21D5
:105400008E219F21FF90EF90DF90CF90089560E074
:1054100070E0CB01F7CFAF92BF92CF92DF92EF92C5
:10542000FF920F931F93CF93DF93CDB7DEB7CD5687
:10543000D1090FB6F894DEBF0FBECDBF5C01A796B1
:105440000FAFA797A8961FAFA897A9962FAFA997B8
:10545000AA963FAFAA97AB964FAFAB97AC965FAF0C
:10546000AC97AD966FAFAD97AE967FAFAE972396E4
:105470001FAE1EAE2397FE01ED5BFF4F82E1DF0101
:105480001D928A95E9F772961192119287E0DF01D9
:105490001D928A95E9F7CE018A599F4F0E94AC234D
:1054A000F0FE2CC0A796EFADA797E83108F050C1E9
:1054B000F0E08827E15AF54D8F4F0D94E537AE2B7C
:1054C000772AA52BA82BA82BA52B772AA82BA82BAE
:1054D000A82BA82BA82BA82BA82B772A772AA82B98
:1054E000A82BA82B772A772A772AA82BAE2B6FE335
:1054F0007EE0CE018B5A9F4F0F9438300E945FF9A7
:10550000882309F407C18091870C811103C1C1145C
:10551000D10409F05EC030E020E043E050E060E4F8
:10552000CE0101960E942DD9D501ED91FC916081AB
:1055300071814FE350E0CE0101960F94623CF1FE81
:1055400010C1A7968FADA797823009F40AC18530A4
:1055500009F407C1A8968FADA89782958F709FE038
:10556000980F9F70923018F0883009F0FAC001E06F
:1055700020E032E044E150E0BE016F5B7F4FCE019E
:105580008A599F4F0E948B21BE016F5B7F4FCE01D6
:1055900001960F94510767E27EE08EE692E10F9448
:1055A0000615BE016F5F7F4F8EE692E10F941014D7
:1055B00064E27EE08EE692E10F940615BE016F5B19
:1055C0007F4F8EE692E10F9410148EE692E10F94D5
:1055D000BA12A8968FADA897807F87010027107216
:1055E000882311F0F1FC04C00115110509F4F5C080
:1055F00030E020E043E050E060E4CE0101960E94FC
:105600002DD9D501ED91FC91608171814FE350E07E
:10561000CE0101960F94623CC114D10469F063EF8E
:1056200079E0CE0101960F943C3C4FE350E0B60187
:10563000CE0101960F94623C63EF79E0CE010196B2
:105640000F943C3C4FE350E067E17EE0011511050B
:1056500011F463E17EE0CE0101960F944830A896E4
:105660008FADA89782958F708450823008F09FC0CC
:1056700067E1CE018A599F4F0E944A1B6F962FAF58
:105680006F97A0963FAFA097A1964FAFA197A29614
:105690005FAFA297A3966FAFA397A4967FAFA4978F
:1056A000A5968FAFA597A6969FAFA69700E020E09E
:1056B00033E044E150E0BE016F5B7F4FCE018A5979
:1056C0009F4F0E948B216DE07EE08EE692E10F9469
:1056D0000615BE016F5F7F4F8EE692E10F941014A6
:1056E0006AE07EE08EE692E10F940615BE016F5BE4
:1056F0007F4F8EE692E10F9410148EE692E10F94A4
:10570000BA120E945FF9882329F08091870C8823C0
:1057100009F455C0A701FF0C660B770BC5010E9469
:10572000BE2990E080E0C359DF4F0FB6F894DEBF8A
:105730000FBECDBFDF91CF911F910F91FF90EF90E2
:10574000DF90CF90BF90AF9008956BE37EE0D1CE15
:105750006DE27EE08EE692E10F940615E894F0F893
:10576000CDCEF0FE36CF66968FAD6697882309F4CE
:1057700030CFBE016B5A7F4FCE0101960F94510777
:105780006EE17EE08EE692E10F940615BE016F5F3A
:105790007F4F8EE692E10F9410146BE17EE08EE66F
:1057A00092E10F940615BE016B5A7F4F0ACF20E09D
:1057B00032E0012B11F020E033E000E07ACFBE01AF
:1057C0006F5B7F4FCE0101960F94510740E052E08E
:1057D00060E070E0C5010E949529F0FE90C0A79698
:1057E000EFADA797E150E53118F5F0E08827E450D8
:1057F000F44D8F4F0D94E537072D182C182C182CCD
:10580000182C072D182C182C182C182C182C182C88
:10581000182C0C2D042D182C182C182C112CFE2CA7
:10582000012D60E07EE0CE018B5A9F4F0F943830FF
:1058300030E020E043E050E060E4CE0101960E94B9
:105840002DD9D501ED91FC91608171814FE350E03C
:10585000CE0101960F94623CC114D10469F063EF4C
:1058600079E0CE0101960F943C3C4FE350E0B60145
:10587000CE0101960F94623C63EF79E0CE01019670
:105880000F943C3C4FE350E06AEE7DE0CE01019680
:105890000F94483064EE7DE08EE692E10F94061599
:1058A000BE016F5F7F4F8EE692E10F94101461EEA0
:1058B0007DE08EE692E10F940615BE016B5A7F4F94
:1058C0008EE692E10F9410148EE692E10F94BA12D4
:1058D0000E945FF9882309F41DCF8091870C811104
:1058E00019CFBE016B5A7F4FCE0101960F9451071D
:1058F00040E051E060E070E0C5010E949529F2FEB1
:105900007AC040E050E061E070E0C5010E94E72904
:10591000672B682B692B09F482C069ED7DE0CE010D
:105920008B5A9F4F0F94383030E020E043E050E036
:1059300060E4CE0101960E942DD9D501ED91FC9134
:10594000608171814FE350E0CE0101960F94623C7B
:10595000C114D10469F063EF79E0CE0101960F9490
:105960003C3C4FE350E0B601CE0101960F94623CFF
:1059700063EF79E0CE0101960F943C3C4FE350E099
:1059800066EC7DE0CE0101960F94483060EC7DE03E
:105990008EE692E10F940615BE016F5F7F4F8EE693
:1059A00092E10F9410146DEB7DE08EE692E10F947E
:1059B0000615BE016B5A7F4F8EE692E10F941014CC
:1059C0008EE692E10F94BA120E945FF9882309F4DF
:1059D000A1CE8091870C81119DCEBE016B5A7F4F65
:1059E000CE0101960F94510740E054E060E070E072
:1059F000C5010E94952981E090E095CE6BEF7DE096
:105A000012CF67EF7DE00FCF6EEE7DE00CCFF5019A
:105A10008085853009F00CCF65E07EE004CF40E062
:105A200050E062E070E0C5010E94E729672B682B17
:105A3000692B19F062ED7DE072CF6BEC7DE06FCFEA
:105A4000CF93C62F63E0FC01808191810E94F3F91E
:105A5000FC01892B21F19085892F8D7001F5907FB4
:105A60009260908781859285A385B4858827BB271E
:105A70008C2B81879287A387B4876FEE79E08EE6BF
:105A800092E10F9406154AE050E06C2F8EE692E109
:105A90000F94D0128EE692E1CF910D94BA12CF916D
:105AA0000895CF92DF92FF920F931F93CF93DF93CE
:105AB000F12C6115710509F499C06A01EB018C01A3
:105AC000CB010E94CF26F82E882309F48FC0D2FE86
:105AD00009C0D8018C918B3009F44BC0E8F58A30AD
