:100000000C940D0B0C943E0B0C943E0B0C943E0B7D
:100010000C943E0B0C943E0B0C943E0B0C943E0B3C
:100020000C943E0B0C943E0B0C943E0B0C943E0B2C
:100030000C943E0B0C943E0B0C943E0B0C94F2482B
:100040000C943E0B0C943E0B0C943E0B0C943E0B0C
:100050000C943E0B0C943E0B0C943E0B0C94A76B33
:100060000C943E0B0C94B76D0C948D6D0C943E0B60
:100070000C943E0B0C943E0B0C943E0B0C943E0BDC
:100080000C943E0B0C943E0B0C943E0B0C943E0BCC
:100090000C94FB7E0C946B7E0C94B27E0C942083AB
:1000A0000C943E0B0C943E0B0C943E0B0C943E0BAC
:1000B0000C943E0B0C943E0B0C943E0B0C943E0B9C
:1000C0000C943E0B0C943E0B0C943E0B0C94576D11
:1000D0000C942D6D0C943E0B0C943E0B0C943E0B2B
:1000E0000C943E0B680F32104B118111811162117B
:1000F0002810811181118111321032103210ED0F50
:10010000840F910FED0FED0F0F101F10910F0F10B7
:10011000ED0FAB1095109510AB10AB10B810C310CD
:100120008C10AB10AB10511456145B1465146F1483
:10013000E81479148114891493149D14A714B61427
:10014000C014E814CA14D414DE14591934197419DB
:100150007419741974197419741974197419741937
:10016000BA158D18B2189C18AB1874197419741933
:1001700074197419741974194819501F441F441FB5
:10018000501F501F2B1F381F381F501F501F542641
:100190007126A126A926AC26A1268026A126B62650
:1001A000B9269026C426C726852B742B772B7F2B48
:1001B0007F2B772B742B7F2B7F2B7F2B742B742B18
:1001C000742B32302F302F303230323034303430E4
:1001D000E72F3230323039443944394439443644D7
:1001E00036443D443D443D443D443D443D443D440E
:1001F0003D44364436443D443D443D443D443D4405
:100200003B44394441557856705586557856A35528
:100210007856D255E855055638564E56E356FA5696
:10022000E756E756FA56EB56FA56EF56EF56EF56A4
:10023000EF56EF56E756EA6AED6ADC6AE06AE66A6C
:10024000246BF16AF56AFB6AFF6A036B096B0D6B3D
:10025000116B246B176B1B6B1F6BC080C380DB8023
:10026000F2803B814E816E8107634236B79BD8A7EF
:100270001A39685618AEBAAB558C1D3CB7CC5763CB
:10028000BD6DEDFD753EF6177231BF000000803F79
:1002900008000000BE922449123EABAAAA2ABECD95
:1002A000CCCC4C3E00000080BEABAAAAAA3E000007
:1002B0000000BF000000803F0000000000084178FF
:1002C000D3BB4387D1133D190E3CC3BD4282AD2B36
:1002D0003E68EC8276BED98FE1A93E4C80EFFFBE2E
:1002E00001C4FF7F3F00000000000C941F100C941D
:1002F0000D6A0C94772B0C9432300C94A3550C940B
:1003000041550C94CA140C94B6140C94195A0C94BC
:10031000706F0C94FA560C9455210C9450730C94F5
:100320007F2B0C940E820C94A1260C94FB6A0C94E7
:10033000AB180C94A9260C9451140C94E7300C942F
:10034000D96C0C945E6A0C9454260C944E810C94D7
:100350002D590C942B1F0C941C6A0C949D140C9416
:10036000DC6A0C94C3100C94EB730C9429590C9414
:10037000A3470C9406280C94A4590C9470550C9423
:10038000910F0C94BC6E0C9474190C94F56A0C9437
:1003900056140C9436440C9467820C9495100C946B
:1003A000116B0C94E66A0C94F16A0C9448190C9445
:1003B0004B110C94DF7D0C94AB100C94501F0C94DB
:1003C000AC260C94AF2A0C94840F0C9491200C94BE
:1003D00038560C941F6B0C945E590C9413590C9462
:1003E00090260C948D730C9489140C940F820C94A9
:1003F00034190C9419740C9486870C94485C0C94F2
:10040000B05B0C9465140C94226E0C9481470C9490
:1004100008470C949A5D0C94E06A0C94246B0C943D
:100420001E820C94095E0C94FB520C94D2550C94D1
:1004300014470C94C0140C943E6A0C943B810C94A9
:100440000B5B0C9412470C94EF560C94D4140C9440
:10045000F7520C94C3800C946A300C94036B0C9488
:10046000BC730C94ED0F0C94F5750C94E8140C947B
:1004700061300C9476740C940D6B0C94905C0C941D
:100480003B440C946E810C945C4C0C94742B0C9437
:1004900063470C943D440C9467470C94680F0C948C
:1004A00028100C9420730C94FC730C94095D0C942C
:1004B0003A820C94381F0C9462110C9481140C94A1
:1004C00042730C947E300C9432100C94B2180C943D
:1004D00081110C94BC7D0C94BA150C942E480C948C
:1004E000AD6A0C947B730C946F140C94E3690C94B8
:1004F000FF6A0C94852B0C9467580C9478560C94D6
:10050000AD7D0C9412590C940F100C94365D0C9424
:10051000E8550C94B8100C942F300C94400B0C94AC
:10052000B9260C945F300C940B280C945D590C94F4
:1005300005560C94441F0C9486550C94546E0C94E0
:1005400093140C94DE140C94675C0C94096B0C945B
:10055000606A0C94E3560C9441590C94C0800C943E
:10056000E72F0C940A280C94F2460C94A7140C94D0
:10057000DB800C9431590C9440470C9432820C94DB
:10058000EA6A0C94C4260C9471260C94AE6F0C94F9
:100590000D820C94C7260C94E7560C94FD5A0C94CB
:1005A00059190C9479140C9455590C94F9720C94B3
:1005B000176B0C9480260C9403730C94F5520C94D6
:1005C000B5730C94F2800C941B6B0C944E560C94E7
:1005D000B6260C949C180C94306A0C9439440C94F4
:1005E0003F6E0C948D180C94ED6A0C9429740C9445
:1005F0004A590C945B140C948C100C94EB560C948C
:1006000034306364696E6F70737578585B00445260
:10061000590046414E5F4F4E4C5900584F4E0048CE
:10062000414C54003D0050696E3A003D0050696EE7
:100630003A002048616C7465640A003D005265739D
:10064000746F7265643A20003A204E6F2073746FA5
:100650007265642076616C756573202D2064656613
:1006600061756C740A00416C726561647920416344
:10067000746976650A005475726E696E6720584F0A
:100680004E0A00416C72656164792048616C746542
:10069000640A00416C726561647920496E6163741B
:1006A0006976650A00416C72656164792041637402
:1006B0006976650A005475726E696E6720584F4EF0
:1006C0000A00584F464620736B69707065642E208F
:1006D0005072657620636D643A005475726E65647D
:1006E000206F66662066726F6D3A00526573746F94
:1006F0007265642066726F6D3A00536B69702047B3
:1007000072700049676E6F7265642C206368616E59
:100710006E656C20636D643D0029003E003C002046
:100720005061723D280020436D643D002053756682
:10073000663D00205375623D00204974656D3D00A3
:1007400052414D3D00476F742049502061646472EE
:100750006573733A00276970205B69705B2C646E67
:10076000735B2C67775B2C7375626E65745D5D5D82
:100770005D27202D20736574207374617469632074
:1007800049500A004661696C656420746F20636F8C
:100790006E6669677572652045746865726E65740A
:1007A000207573696E6720444843502E20596F7539
:1007B0002063616E20736574206970206D616E75B1
:1007C000616C6C7921005374617274696E67206C7E
:1007D000616E00246E6F6465730024666F726D61D4
:1007E000740024646174617479706500302D313057
:1007F0003000696E74656765720068737600636FB8
:100800006C6F72004F4E2C4F46462C48414C542C76
:10081000524553542C584F4E2C584F46462C544F4B
:1008200047474C4500656E756D00666C6F617400DE
:10083000322E312E300024686F6D6965007570743A
:10084000696D652C66726565686561700036323762
:10085000376134345F323032302D30352D3039004D
:100860004C696768744875622000246E616D65008C
:100870007265616479002074727920616761696EC4
:1008800020696E2035207365636F6E647300666146
:10089000696C65642C2072633D00417761697469FD
:1008A0006E6720666F722072657461696E65642080
:1008B000746F7069637300636F6E6E6563746564F3
:1008C0002061732000202E2E2E0020757365723A51
:1008D000003A000A417474656D7074696E67204D4A
:1008E00051545420636F6E6E656374696F6E20742B
:1008F0006F200024737461746500646973636F6EA4
:100900006E6563746564005573696E67204D51545C
:10091000542070617373776F72642066726F6D20FC
:10092000636F6E66696700446576696365204E6132
:100930006D653A00526562696E6420737563636524
:1009400073732E20495020616464726573733A009A
:100950004572726F723A20726562696E64206661D8
:10096000696C0052656E65776564207375636365B5
:1009700073732E20495020616464726573733A006A
:100980004572726F723A2072656E65776564206693
:1009900061696C004E6F206C696E6B00416363652A
:1009A0007074696E6720636F6D6D616E64732E2E57
:1009B0002E0A002F00496E3A20002D3E0020002311
:1009C0000050656E6465642073746174652072659F
:1009D000747269657665643A003D004C4547414351
:1009E0005920494E3A00736174006875650066616C
:1009F0006E006D6F646500536574436D643A005317
:100A00006574466C61673A00436C72466C61673A84
:100A1000002056616C3D002053746F726520007396
:100A20007566666978436F64653A005247420048CC
:100A30005356004C4F57004D454449554D004849C9
:100A4000474800444543524541534500494E4352AF
:100A5000454153450044495341424C454400454EAD
:100A600041424C45440046414C5345005452554583
:100A700000584F464600544F47474C450052455397
:100A8000540054787432436D643A002076616C757A
:100A900065206973200020756E6B6E6F776E0A009B
:100AA00020696E6163746976650A00206163746908
:100AB00076650A00204772703A0020696E6163749F
:100AC0006976650A00206163746976650A002069A9
:100AD0006E76616C6964004D6F64627573206F702F
:100AE000206661696C65640A003D0056432300205E
:100AF000636D643D003D0056435F6865617423008B
:100B00002D3E005075623A2000636D6400434F4FE4
:100B10004C0048454154004155544F002D3E005073
:100B200075623A2000736574002D3E005075623A7C
:100B300020002D3E005075623A2000556E6B6E6F9E
:100B4000776E20636D64200A004F4646004F4E00CA
:100B50005374617475732064656666657265640AB2
:100B6000004E6F7420737570706F727465642072BC
:100B7000656720747970650A00293A0028543A00A4
:100B80003D3E00206973200044656C6574696E67A2
:100B900020636F6E662E2052414D207761733A00BC
:100BA000556E6C6F636B696E6720636F6E66696705
:100BB000202E2E2E00536B697070696E672E2E00EA
:100BC0004F4F4D21005D20000A5B003A004D41432C
:100BD0003A003E003E003C00543A00437572726594
:100BE0006E74204C414E20636F6E66696728697091
:100BF0002C646E732C67772C7375626E6574293A5A
:100C0000000A55736520746865736520636F6D6DA8
:100C1000616E64733A202768656C7027202D2074FC
:100C200068697320746578740A276D616320646550
:100C30003A61643A62653A65663A66653A303027E9
:100C40002073657420616E642073746F7265204D2B
:100C500041432D6164647265737320696E2045455C
:100C600050524F4D0A276970205B69705B2C646E8F
:100C7000735B2C67775B2C7375626E65745D5D5D6D
:100C80005D27202D2073657420737461746963205F
:100C900049500A277361766527202D207361766598
:100CA00020636F6E66696720696E204E5652414D13
:100CB0000A2767657427205B636F6E66696720612A
:100CC0006464725D27202D2067657420636F6E66F3
:100CD00069672066726F6D207072652D636F6E6636
:100CE0006967757265642055524C20616E6420738B
:100CF000746F726520616464720A276C6F61642787
:100D0000202D206C6F616420636F6E6669672066BA
:100D1000726F6D204E5652414D0A2770776427201E
:100D20002D20646566696E65204D515454207061B4
:100D30007373776F72640A276B696C6C27202D20A0
:100D400074657374207761746368646F670A2763DE
:100D50006C65617227202D20636C656172204545AA
:100D600050524F4D0A277265626F6F7427202D20F5
:100D70007265626F6F7420636F6E74726F6C6C65F6
:100D80007200536F6674207265626F6F74696E676C
:100D90002E2E2E00444D58696E204275666665728F
:100DA00020616C6C6F632065727200496E697420FB
:100DB000696E2063683A0009526573657420646F38
:100DC0006E650009436865636B696E6720666F72C4
:100DD00020312D5769726520646576696365732ECD
:100DE0002E2E004453323438322D31303020707280
:100DF0006573656E7400094453323438322065726D
:100E0000726F72004453323438325F3130305F4990
:100E100032435F544F5F31575F4252494447452048
:100E2000696E69740020416464723A0064657623D7
:100E30000052414D3D000A312D7769726520000A4C
:100E40006D71747420000A6D6F6462757320000AFE
:100E5000696E7075747320000A6974656D73200083
:100E60000A436F6E666967757265643A002C003DCF
:100E70000050696E3A002C003D4C4F570054686595
:100E8000726D6F3A004F6E6520776972652052650A
:100E90006164790A00444D58206F75742073746141
:100EA000727465642E204368616E6E656C733A20BF
:100EB00000444D5820696E20737461727465642E0D
:100EC000204368616E6E656C733A00000022002555
:100ED0000028002B002E0031003400020100000524
:100EE0000108010B0100000A0B02090C0D0E080796
:100EF00003040100000000000000000000000000EA
:100F000000000000000000000000000000000000E1
:100F1000001211100000000000000000000000009E
:100F2000000000000000000000000000002100247C
:100F30000027002A002D00300033000101000004CA
:100F40000107010A010102102020080810204010AA
:100F5000204080020102010804020101020408107D
:100F6000204080804020100804020180040201809B
:100F700040201008040201080402010102040810C4
:100F80002040800102040810204080050505050767
:100F90000508080808020202020A0A0808040404F4
:100FA0000401010101010101010303030303030320
:100FB00003040707070C0C0C0C0C0C0C0C020202AF
:100FC0000206060606060606060B0B0B0B0B0B0BA2
:100FD0000B202D3E2000202D3E2000203A200049ED
:100FE0004E3A00005EBCE2613FDD83C29C7E20A3DE
:100FF000FD1F419DC3217FFCA2401E5F01E3BD3E5A
:101000006082DC237D9FC1421CFEA0E1BF5D0380A6
:10101000DE3C62BEE0025CDF81633D7C22C09E1D3F
:1010200043A1FF4618FAA427799BC584DA3866E500
:10103000BB5907DB856739BAE406581947A5FB7821
:1010400026C49A653BD987045AB8E6A7F91B45C65A
:10105000987A24F8A6441A99C7257B3A6486D85B07
:1010600005E7B98CD2306EEDB3510F4E10F2AC2FB4
:101070007193CD114FADF3702ECC92D38D6F31B2F1
:10108000EC0E50AFF1134DCE90722C6D33D18F0C0E
:1010900052B0EE326C8ED0530DEFB1F0AE4C1291D7
:1010A000CF2D73CA947628ABF517490856B4EA6970
:1010B00037D58B5709EBB536688AD495CB2977F4A9
:1010C000AA4816E9B7550B88D6346A2B7597C94AD2
:1010D00014F6A8742AC896154BA9F7B6E80A54D78F
:1010E000896B35436F6E6E65637465642E00436F64
:1010F0006E6E2E2061626F72746564007570746923
:101100006D65006672656568656170002473746161
:10111000747300200020000A52414D3D00202D74C0
:101120006172676574207A6F6E652D00204F4646A8
:1011300000204F4E00204F46460020636D643A0069
:10114000204375723A00205365743A002045787048
:10115000697265640A00312D7769726520636F7565
:101160006E743A200020416464723A00646576230C
:101170000020616C69766500204E6F64653A00530B
:101180006561726368696E6700312D7769726520E9
:1011900073686F72746564000A282B2946415354A2
:1011A0004C4544000A282D29535049204C45440001
:1011B0000A282D294D4F544F5220435452000A28DB
:1011C0002D294143204841494552000A282D2943F1
:1011D00043533831312026204844433130383000E1
:1011E0000A282D29524553544152545F4C414E5FB9
:1011F0004F4E5F4D5154545F4552524F5253000A67
:10120000282D294841524452455345542C2075738A
:10121000696E6720736F6674000A282D29434F5545
:101220004E544552000A282D29444854000A282BC0
:10123000294F57495245000A282B294D4F44425502
:1012400053000A282B29444D58000A282B294453BF
:10125000323438322D313030000A282B294672655D
:101260006552616D207072696E74696E67004355D6
:1012700053544F4D5F4649524D574152455F4D4182
:1012800043000A4669726D77617265204D414320C3
:101290004164647265737320006C617A79686F6D64
:1012A000652E7275000A436F6E66696720736572FA
:1012B0007665723A000A282B295741544348444F17
:1012C00047003230313130334C0020432B2B207615
:1012D000657273696F6E3A00363237376134345F46
:1012E000323032302D30352D3039000A4C617A7968
:1012F000686F6D652E7275204C69676874487562F9
:1013000020636F6E74726F6C6C6572200000002039
:10131000002300260029002C002F003200000100CD
:10132000000301060109013D00494E3A005265746F
:101330007279696E672056432074656D7020434D45
:10134000440A004D6F6462757320706F6C6C696E37
:1013500067206572726F723D002D00205049205643
:10136000616C203A004D6F6462757320706F6C6C15
:10137000696E67206572726F723D002D0020464DC8
:101380002056616C203A005265747279696E67204C
:10139000564320434D440A005265747279696E6762
:1013A0002064696D6D657220434D440A004D6F6481
:1013B00062757320706F6C6C696E67206572726FF6
:1013C000723D002056616C3A20004D423A20004E9A
:1013D0006F7420737570706F7274656420726567C6
:1013E00020747970650A00496C6C6567616C2061D6
:1013F0007267756D656E74730A003E3E3E004E6FF7
:10140000204D414320636F6E666967757265643A6B
:1014100020736574206669726D7761726527732029
:101420004D41430A004C6F61646564006C6F6164F8
:10143000206661696C6564004E6F2073746F72651D
:101440006420636F6E666967004C6F6164696E67E4
:1014500020436F6E6669672066726F6D2045455048
:10146000524F4D000A72657175657374204D515469
:101470005420436F6E66696700536176656420741B
:101480006F20454550524F4D00536176696E67207D
:10149000636F6E66696720746F20454550524F4DEB
:1014A0002E2E0053617665640A00536574206479BA
:1014B0006E616D69632049500A00454550524F4D99
:1014C00020636C65617265640A0050617373776FA5
:1014D000726420757064617465640A00636F756C72
:1014E00064206E6F742070617273653A20005570CD
:1014F00064617465640A002B002D00485454502F19
:10150000312E312025690020485454502F312E317E
:101510000D0A486F73743A2025730D0A41636365A1
:1015200070743A202A2F2A0D0A436F6E6E65637419
:10153000696F6E3A20636C6F73650D0A0025730046
:1015400020000D0A00474554006661696C656420FF
:10155000746F20636F6E6E6563740A004552524F5C
:10156000523A205365727665722072657475726E98
:1015700065642000446F6E652E0A004170706C79BE
:10158000696E672E0A00436F6E666967207061722C
:1015900073696E67206661696C65640A00676F74C1
:1015A00020436F6E6669670A00436F6E6669672045
:1015B0005552493A20687474703A2F2F00204465C0
:1015C0006661756C7420636F6E66696720736572FF
:1015D00076657220757365643A20006C617A79686B
:1015E0006F6D652E727500205361766564002C2046
:1015F000002E003E3E2000496E76616C69642063D7
:101600006F6D6D616E6400696E00735F6F7574005D
:101610006D79686F6D650000868711241FBECFEF5E
:10162000D1E2DEBFCDBF00E00CBF15E0A0E0B2E02C
:10163000E0EAFFE201E00BBF02C007900D92A23F7B
:10164000B107D9F72CE0A2EFB5E001C01D92AA378F
:10165000B207E1F71BE0CDE0DBE000E006C0219738
:101660000109802FFE010E948692CC30D10780E0D4
:101670000807A9F70E941B860C94CE970C940000D3
:101680002F923F924F925F926F927F928F929F9292
:10169000AF92BF92CF92DF92EF92FF920F931F9380
:1016A000CF93DF93CDB7DEB7AC970FB6F894DEBF1C
:1016B0000FBECDBF5C012B015BA34AA33DA32CA3AE
:1016C000102F1701D9A2C8A2EC2DFD2D309719F0CB
:1016D0008081811114C0D5011D968C91882321F041
:1016E000C5010D9699A388A321143104A1F4E8A1A2
:1016F000F9A1309731F4F5012788308C0CC0EF2820
:1017000051F480818823B9F3CE0180960E941F2175
:101710001C01892B81F3C8A0D9A0D5011296ED91A7
:10172000FC911397E080F1800E949B853B014C0166
:1017300060E477E086EC98E00E94F86B2AE0B40160
:10174000A30186EC98E00E94316C69E377E086ECB7
:1017500098E00E94F86BB70186EC98E00E941F6D3C
:1017600063E377E086EC98E00E94F86BB60186ECC4
:1017700098E00E941F6D6CE277E086EC98E00E9492
:10178000F86B4AE050E0B10186EC98E00E94C26C30
:1017900066E277E086EC98E00E94F86B4AE050E061
:1017A000B20186EC98E00E94C26C6FE177E086ECB3
:1017B00098E00E94F86BF50182819381892B09F4EE
:1017C000AEC01B8E1A8E1D8E1C8E1F8E1E8E2CA1DF
:1017D0003DA12115310579F179014E013AE1830EE0
:1017E000911CC12CD12C8AA19BA1C816D9061CF52D
:1017F00093E0C916D104F9F0D7016D907D907D0179
:10180000F401619271924F016DE177E086EC98E00E
:101810000E94F86B4AE050E0B30186EC98E00E9429
:10182000C26C6BE177E086EC98E00E94F86BFFEF0A
:10183000CF1ADF0AD8CF69E177E086EC98E00E9402
:10184000F86B86EC98E00E941B6DD5011A968C917E
:10185000873009F458C0E8A0F9A0E114F10409F4B4
:1018600062C06DE47BE0C7010E94B78A892B11F446
:101870000C94121569E47BE0C7010E94B78A892B9A
:1018800011F40C9416156FE176E0C7010E94B78A37
:10189000892B11F40C941A156BE176E0C7010E94B4
:1018A000B78A892B11F40C941E1562E17BE0C70105
:1018B0000E94B78A892B11F40C9422156DE07BE00D
:1018C000C7010E94B78A892B11F40C94261567E191
:1018D0007BE0C7010E94B78A892B11F40C942A156A
:1018E00062E176E0C7010E94B78A892B11F40C945B
:1018F0002E156EE076E0C7010E94B78A892B11F49D
:101900000C94321510C011110EC06AEF76E086EC0F
:1019100098E00E94F86B86EC98E00E941B6D8FEFB8
:101920009FEF0C94781560E070E0C5010E94CE2313
:101930003C01C5010E94772F7C01B4E04B16510495
:10194000B1F04CF44114510409F4C8C1F3E04F164E
:10195000510491F026C227E042165104B1F10CF473
:1019600020C24AE0441651040CF464C01AC218168E
:1019700019060CF448C012C2D5011A968C91873012
:1019800009F40FC2C5010E94AC24C82ED12C8530A9
:1019900011F00C9459156BEE76E086EC98E00E94FD
:1019A000F86B4AE050E0B60186EC98E00E94C26C09
:1019B00086EC98E00E941B6DF5018285853009F068
:1019C000EDC10CE0402E512CECC1D5011A968C9142
:1019D000873009F4E6C1C5010E94AC24C82ED12C81
:1019E0008630A9F46AED76E086EC98E00E94F86B08
:1019F0004AE050E0B60186EC98E00E94C26C86ECAA
:101A000098E00E941B6DB2E04B2E512CCAC162ECD3
:101A100076E086EC98E00E94F86B4AE050E0B60170
:101A200086EC98E00E94C26C86EC98E00E941B6DE8
:101A30000C945915F5010285073009F4B2C12AA1A9
:101A40003BA1232B21F08A8D9B8D892B21F485E0EE
:101A500090E09B8F8A8F39E04316510439F48A8DC8
:101A60009B8D9195819591099B8F8A8FC5010E94CD
:101A7000B42368A77AA78BA79CA7D5011B968D9145
:101A80009C911C97009749F0DC01ED91FC91028C30
:101A9000F38DE02D19954C0102C0802E912C08A5E4
:101AA000BAA5BCA3CBA4ECA5EF77DE2E6AEA73E05F
:101AB00086EC98E00E941F6DA60160E070E02AE0CD
:101AC00086EC98E00E94316C63EB73E086EC98E062
:101AD0000E941F6D4AE050E06AA586EC98E00E94E3
:101AE000C96C6AEB73E086EC98E00E941F6D4AE0D7
:101AF00050E068A586EC98E00E94C96C86EC98E0FE
:101B00000E941B6D94012150310939A728A732E0AA
:101B10002316310451F024F42114310431F039C07A
:101B2000C1010797029760F134C08A8D9B8D800FA9
:101B3000911D8536910514F084E690E09B8F8A8F85
:101B40008A8D9B8D97FF02C01B8E1A8E8A8C9B8C70
:101B500067EB73E086EC98E00E941F6D4AE050E06E
:101B6000B40186EC98E00E94C26C86EC98E00E947A
:101B70001B6D81E090E09BA38AA3412C512C09C0EE
:101B8000A8A5B9A5129728F0B7E08B16910409F023
:101B900044C7E8A5F9A5329708F003C1F7E02F166E
:101BA0003104D9F028E02216310419F133E023166C
:101BB000310409F0F6C08A8D9B8DC80ED91EDB8ECC
:101BC000CA8E8C8D9D8D4CA1840F911D9D8F8C8F05
:101BD0008E8D9F8D800F911D17C08A8D9B8DC80E95
:101BE000D91EDB8ECA8EACA18A2F90E09D8F8C8F80
:101BF00009C08A8D9B8DBCA18B0F911D9D8F8C8FF1
:101C0000DB8ECA8E802F90E09F8F8E8F8A8D9B8D6A
:101C10008E36914014F01B8E1A8E8A8D9B8D97FF05
:101C200004C08DE691E09B8F8A8F8C8D9D8D8536CB
:101C3000910524F084E690E09D8F8C8F8C8D9D8D96
:101C400097FF02C01D8E1C8E8E8D9F8D853691054F
:101C500024F084E690E09F8F8E8F8E8D9F8D97FF6E
:101C600002C01F8E1E8E4E8C5F8C8C8C9D8CCA8CFD
:101C7000DB8C6EEB73E086EC98E00E941F6D4AE00F
:101C800050E0B60186EC98E00E94C26C63EB73E012
:101C900086EC98E00E941F6D4AE050E0B40186ECAB
:101CA00098E00E94C26C6AEB73E086EC98E00E94B8
:101CB0001F6D4AE050E0B20186EC98E00E94C26CD1
:101CC00086EC98E00E941B6DA2E02A2E312CE3E006
:101CD000F0E0FBA3EAA3412C512C63C0D5011A9676
:101CE0009C911A97973009F45CC0EAA1FBA1319747
:101CF00009F057C01B960D90BC91A02D109749F08C
:101D0000ED91FC911197028CF38DE02DCD01199589
:101D100002C0892F90E001970297D8F5C5010E9473
:101D2000B423AB01F7E02F163104E1F028E02216CE
:101D30003104B9F52A8D3B8D592F5F778A8F5B8FE0
:101D4000B90177277D8F6C8F642F70E07F8F6E8F46
:101D5000522FBC01C5010E947C2383E090E09BA32D
:101D60008AA31FC09A8C8B8D8F779078792F782BD0
:101D7000852F90E09D8F8C8F842F90E09F8F8E8F8A
:101D8000692DC5010E947C23A3E0B0E0BBA3AAA3F8
:101D900008C0C1010797029720F48BC644244394DE
:101DA000512CF501838494848114910409F484C036
:101DB000F5E04F16510469F126E04216510431F066
:101DC00032E04316510409F05EC03FC0EF2809F02D
:101DD0006AC665EB76E086EC98E00E94F86BD50168
:101DE0001B968D919C911C97C8A0D9A0DC01ED9108
:101DF000FC910488F589E02D7101012F9E01265E7A
:101E00003F4F4AA15BA161E070E019958C0166E04B
:101E100045C61E141F04B4F4C8A0D9A0D401ED9186
:101E2000FC910488F589E02D7101012F9E01265E49
:101E30003F4F4AA15BA162E070E0C40119958C019B
:101E400065E02CC663E976E030C6C5010E94AC248B
:101E50008530B1F0C8A0D9A0D401ED91FC910488DF
:101E6000F589E02D7101012F9E01265E3F4F4AA1A9
:101E70005BA162E070E0C40119958C0162E00EC6BE
:101E800063E876E012C6C8A0D9A0D401ED91FC9118
:101E90000488F589E02D7101012F9E01265E3F4FD8
:101EA0004AA15BA1B201C40119958C0141145104EE
:101EB00009F4F7C5642DF2C5BDE04B16510408F0D6
:101EC00020C2F2018827EE58FF4F8F4F0C94869264
:101ED000882483942114310421F01E141F040CF073
:101EE000812CC1010797029708F40BC2F501828586
:101EF00090E08A30910508F0A2C0FC018827E158E3
:101F0000FF4F8F4F0C9486928C8D9D8D892B49F4B9
:101F10002AA13BA12330310521F48FE7D5011A9680
:101F20008C93C5010E94B423D62EC72E982E092F5C
:101F3000EAA1FBA1E230F105C9F0E330F10529F196
:101F4000319759F52A8D3B8DD22E97FF26C09F776A
:101F50008A8F9B8F872F90E09D8F8C8F33273F8FA9
:101F60002E8F23E030E03BA32AA317C09A8C0B8D61
:101F70000F779078092BCC8C70E07F8F6E8F006884
:101F800083E090E09BA38AA308C09A8C0B8D0F7707
:101F90009078092BCC8CDE8C00684D2D5C2D692D42
:101FA000702FC5010E947C232114310409F042C026
:101FB0001E141F0424F4D1103DC062E005C0EF28B8
:101FC000C9F5DD20B9F161E0C5010E94812460E01E
:101FD0007BE0C5010E94B22A2DC04A8D5B8D052E83
:101FE000000C660B770BC5010E947C232114310481
:101FF00009F51E141F0434F48A8D9B8D892B61F41E
:1020000062E007C0EF2841F48A8D9B8D892B21F077
:1020100061E0C5010E94812460E07BE00DC04A8D33
:102020005B8D052E000C660B770BC5010E947C238F
:10203000112329F060E07AE0C5010E94B22A8110E4
:1020400060C1D5011A968C91873009F0E8C459C156
:10205000E114F10409F030C566E776E086EC98E01B
:102060000E94F86B642DC5010E9481241E141F0478
:1020700044F4112331F060E071E0C5010E94B22AFE
:10208000CEC4C5010E94B423DC01CB01D82EC92ED9
:102090009A2E0B2FF5012285233018F4213018F0E9
:1020A00012C0243009F54997A105B1053CF411236C
:1020B00029F0E8E2DE2EC12C912C00E04D2D5C2DA4
:1020C000692D702F0EC00097A105B10539F0F8E118
:1020D000F81720F0112311F078E2D72E4D2D592F4B
:1020E000BD01C5010E947C234D2D5C2D692D702FF3
:1020F000411551056105710509F449C0D5011A96CC
:102100008C9190E08A309105F0F5FC018827E75723
:10211000FF4F8F4F0C948692112309F4F2C0C50132
:102120000E94772F892B49F1D3C40F779A8E0B8F9A
:102130008C2D90E09D8F8C8F8D2D90E09F8F8E8FBA
:10214000112329F060E073E0C5010E94B22A63E028
:10215000862E912C6EC05B8F4A8F112329F060E090
:1021600073E0C5010E94B22A88248394912C61C037
:102170005B8F4A8F112309F4C4C060E071E0C50190
:102180000E94B22AA5C4112309F4A2C4F6CF2AE002
:1021900030E040E050E0BA0186EC98E00E947A6CB2
:1021A00068E476E086EC98E00E94F86BF5018285A1
:1021B0008530C9F0A0F48150823078F584E690E053
:1021C0009B8F8A8F1D8E1C8E9F8F8E8F007844E68A
:1021D00050E064E6702FC5010E947C23B1CF8630A9
:1021E00059F08830D1F484E190E09B8F8A8F44E1EC
:1021F00050E060E070E019C084E690E09B8F8A8F29
:1022000044E650E060E070E0C5010E947C231123A9
:1022100009F4AACF60E071E0A4CF84E690E09B8F40
:102220008A8F44E650E060E070E0C5010E947C23A4
:1022300094CF6E01FAE1CF0ED11CE12CF12CD60126
:10224000ED91FD916D01FDA3ECA36DE376E086ECCD
:1022500098E00E94F86B4AE050E0B70186EC98E005
:102260000E94C26C6BE376E086EC98E00E94F86B0B
:102270004AE050E06CA17DA186EC98E00E94C26C1F
:1022800086EC98E00E941B6DFFEFEF1AFF0A8E1498
:102290009F04A9F61DC4C5010E94AC24853089F1B4
:1022A0001B8E1A8E1D8E1C8E1F8E1E8E62E0C50127
:1022B0000E948124112329F160E071E0C5010E9490
:1022C000B22A1FC01E141F04E4F41B8E1A8E1D8E2A
:1022D0001C8E1F8E1E8EC5010E94AC24863011F408
:1022E00062E001C065E0C5010E94812460E071E008
:1022F000C5010E94B22A62E376E086EC98E00E9473
:10230000F86BCC8CDD8CC6010D2C000CAA0BBB0B22
:102310008CA39DA3AEA3BFA38E8C9F8C282D30E0F1
:10232000AFEFB0E00E94639224E630E040E050E07E
:102330000E94319279012F3F310521F01CF0EE24EB
:10234000EA94F12CD5011A968C91843009F4ABC132
:1023500050F4813099F1C8F0823009F4BEC0833066
:1023600009F437C25CC3883009F451C338F48630AD
:1023700009F4DAC1873009F49CC151C3893009F4EA
:1023800040C38F3709F478C14AC3161417040CF000
:1023900046C32A8D30E0AFEFB0E00E94639224E69E
:1023A00030E040E050E00E943192B9012F3F31050A
:1023B00019F014F06FEF70E0C30172C1B2E3CB16F5
:1023C000D1040CF067C0161417040CF06CC182E342
:1023D00090E08C199D09889DD001899DB00D989D34
:1023E000B00D11242FEF30E00E949D9228E833E1D8
:1023F00040E050E00E943192622FC30103960E9498
:10240000DE490C8D1D8D2EEF31E0D8010E949D928A
:1024100022E330E040E050E00E94319269017A010D
:102420002E8D30E0AFEFB0E00E94639224E630E002
:1024300040E050E00E943192D9012F3F310519F060
:1024400014F0AFEFB0E096010E9495922FEF30E0CC
:1024500040E050E00E94319269017A019801A5E6BE
:10246000BFEF0E94959222E330E040E050E00E94EE
:102470003192DA01C90181509F4FAF4FBF4F8C019C
:102480007601EFEFCE16D104C1F1BCF1EE24EA944F
:10249000F12C33C0161417040CF005C12CA13DA17A
:1024A0004EA15FA12253310941095109ABE9B0E0C6
:1024B0000E94509222E330E040E050E00E943192CE
:1024C000DA01C9018C599F4FAF4FBF4F8C0160E0BB
:1024D000C30103960E94DE4910C0161417040CF0C5
:1024E000E2C02FEF30E0D6010E949D9224E630E05A
:1024F00040E050E00E9431928901EBE8FFE0E49176
:10250000F0E0EE0FFF1FE553F14F85919491E5E464
:10251000FFE0E491AA8DBB8D2FEF3FEF0E949D92CB
:102520002DE631E040E050E00E94319244275527EB
:10253000AAEFB5E00E945092DC01CB019058AF4F5A
:10254000BF4FCD01BB2797FDB095AB2F8E3FF1E07C
:102550009F0758F48F3F910510F460E02AC06EEF9A
:10256000962F981B60E08FEF25C08C3F43E09407C7
:1025700070F48D3FE2E09E0720F462E0680F8FEF79
:1025800004C06CEF681B862F6FEF90E013C08A3F8A
:10259000F5E09F0761F08B3F44E0940728F494E056
:1025A000980F6FEF80E006C06AEF681B01C060E023
:1025B00080E09FEFFF24AFEFEA1AFA0AF801FF2745
:1025C0003196009510E09E9FA0019F9F500D112411
:1025D000452F5527400F511F8E9F90018F9F300D23
:1025E0001124232F3327200F311F6E9FC0016F9FAF
:1025F000900D1124892F9927080F191FD7010E94C8
:102600009D924B015C018824AA24BB2498010E945E
:102610009D92BB27A92F982F872F882A992AAA2A0B
:10262000BB2A9A01D7010E949D92DC01CB01882729
:10263000AA27BB27BA2FA92F982F882775016401D5
:10264000C82AD92AEA2AFB2AB70188279927C30171
:102650000E94DE4999278F2D7E2D6D2DC301019695
:102660000E94DE496C2DC30102960E94DE4960E0A3
:1026700080E00E94256BD3C116141704A4F460E017
:10268000C3010E94DE4960E0C30101960E94DE4959
:1026900060E0C30102960E94DE496E2DC3010396DD
:1026A0000E94DE49BCC16A8D7B8DC5010E94B72E98
:1026B000B6C1D5011496ED91FC91159780858530B2
:1026C00009F0ADC1A680B780809173068F5F8093BB
:1026D0007306A114B10411F1F50180858430C1F4B1
:1026E00061857285CE0101960E947940C8A0D9A06B
:1026F0007101012F9E01265E3F4F4AA15BA1B201ED
:10270000CE0101960E94400BCE0101960E94094124
:10271000D5011296AD90BC901397DBCF80917306D4
:102720008150809373067BC16114710409F477C1F1
:1027300077FE06C071946194710801E010E002C058
:1027400000E010E0F62C61E0862D0E94256B012B45
:1027500069F0B1E04B16510429F061E0E6E04E1655
:10276000510409F460E0062F10E011C0F1E04F16AB
:10277000510451F091E080E026E04216510409F046
:1027800090E0092F182F02C001E010E0602F8F2D7C
:102790000E94B93C6DE276E086EC98E00E94F86B0E
:1027A0004AE050E0B30186EC98E00E94C26C6BE214
:1027B00076E086EC98E00E94F86B4AE050E0B801C1
:1027C00086EC98E00E94C26C86EC98E00E941B6D3B
:1027D00026C16114710409F414C177FE06C0719416
:1027E0006194710801E010E002C000E010E0F62CF6
:1027F00061E0862D0E94256B8091A100887F8093E7
:10280000A10080919100887F809391008091A10028
:1028100082608093A10080919100826080939100FA
:10282000AA8DBB8D012B99F0CD01BB0FAA0BBB0B61
:102830009C01AD012456310941095109AFEFB0E0C7
:102840000E9450922CE93FEF4FEF5FEF08C02FEF4F
:1028500030E00E949D9224E630E040E050E00E948B
:102860003192890161E08F2D0E94256B01151105C0
:1028700009F4B1C00F3F110509F4AFC0F301FF2700
:10288000EB51F14FE4918E2F90E0FC013197E23152
:10289000F10508F09DC08827ED56FF4F8F4F0C942F
:1028A000869284B5806884BD07BD9BC084B5806274
:1028B00084BD08BD96C080918000806880938000B0
:1028C00010938900009388008CC080918000806202
:1028D0008093800010938B0000938A0082C08091C7
:1028E000800088608093800010938D0000938C009E
:1028F00078C08091B00080688093B0000093B300EE
:1029000070C08091B00080628093B0000093B400EA
:1029100068C0809190008068809390001093990027
:10292000009398005EC08091900080628093900038
:1029300010939B0000939A0054C08091900088608F
:102940008093900010939D0000939C004AC080915A
:10295000A00080688093A0008091A0008F7B80936E
:10296000A0001093A9000093A8003BC08091A00094
:1029700080628093A0001093AB000093AA0031C046
:102980008091A00088608093A0001093AD00009318
:10299000AC0027C0809120018068809320011093B3
:1029A0002901009328011DC080912001806280933D
:1029B000200110932B0100932A0113C08091200164
:1029C00088608093200110932D0100932C0109C091
:1029D0000038110514F460E001C061E08F2D0E9401
:1029E000B93C66E276E086EC98E00E94F86B4AE03B
:1029F00050E0B30186EC98E00E94C26C64E276E09D
:102A0000D8CE442D6A8DC5010E94042E08C0442DE5
:102A10006A8DC5010E94F22C02C080E001C081E0F5
:102A200090E066C0EE24E394F12C1FC072E0E72E24
:102A3000F12C1BC065E0E62EF12C17C056E0E52E08
:102A4000F12C13C04AE0E42EF12C0FC03BE0E32E42
:102A5000F12C0BC02CE0E22EF12C07C09DE0E92EFA
:102A6000F12C03C08EE0E82EF12CC5010E94AC24AD
:102A7000082F90E08E159F0511F40C94930C63E0E1
:102A800077E086EC98E00E94F86B4AE050E0602F17
:102A900086EC98E00E94C96C0C948B0CC5010E94D6
:102AA0008124C80125C065EA76E086EC98E00E94A2
:102AB000F86B8DEF0C94900C66E676E086EC98E06F
:102AC0000E94F86BF5018285873009F4CBCAF1CFFB
:102AD000D5011A968C91813009F013CC8C8D9D8D87
:102AE000892B09F00ECC8FE7D5011A968C9309CC6F
:102AF000AC960FB6F894DEBF0FBECDBFDF91CF917D
:102B00001F910F91FF90EF90DF90CF90BF90AF900B
:102B10009F908F907F906F905F904F903F902F90FD
:102B200008954F925F926F927F928F929F92AF9291
:102B3000BF92CF92DF92EF92FF920F931F93CF93AA
:102B4000DF93CDB7DEB7C25AD1400FB6F894DEBFDF
:102B50000FBECDBF2091070730910807F9013B96C2
:102B6000E831F10508F0C0C38827EB55FF4F8F4FC0
:102B70000C9486920E949B6B009122071091230770
:102B800020912407309125070617170728073907D2
:102B900008F0AAC301E913E0CE56DE4F198308837B
:102BA000C259D140CC56DE4F188219821A821B823C
:102BB000C459D140CE57DE4F19830883C258D14043
:102BC000CC57DE4F188219821A821B82C458D1401A
:102BD000CE59DE4F19830883C256D140CC59DE4FFF
:102BE000188219821A821B82C456D140CE5BDE4FF6
:102BF00019830883C254D140CC5BDE4F18821982FE
:102C00001A821B82C454D14066EC77E086EC98E0CF
:102C10000E94F86B86EC98E00E941B6DBE016E5618
:102C20007E4F86E090E00E94A339892B09F467C1AA
:102C300065EC73E086EC98E00E941F6D1A830983AF
:102C4000CC56DE4F88819981AA81BB81C459D1407D
:102C50008B839C83AD83BE83CE0101960E94D7797E
:102C6000BE016E577E4F8AE090E00E94A339892B07
:102C700009F42EC16BED73E086EC98E00E941F6DA5
:102C80001A830983CC57DE4F88819981AA81BB8141
:102C9000C458D1408B839C83AD83BE83CE01019603
:102CA0000E94D779BE016E597E4F8EE090E00E945F
:102CB000A339892B09F4DFC061EE73E086EC98E05C
:102CC0000E941F6D1A830983CC59DE4F8881998138
:102CD000AA81BB81C456D1408B839C83AD83BE83C4
:102CE000CE0101960E94D779BE016E5B7E4F82E1D4
:102CF00090E00E94A339892B09F477C066EE73E057
:102D000086EC98E00E941F6D1A830983CC5BDE4F2E
:102D100088819981AA81BB81C454D1408B839C83D3
:102D2000AD83BE83CE0101960E94D7791A830983B1
:102D3000CC5BDE4F88819981AA81BB81C454D1408C
:102D40008B839C83AD83BE83CF57DF4F198308836A
:102D5000C158D040CC59DE4F88819981AA81BB816E
:102D6000C456D140CD57DF4F88839983AA83BB8354
:102D7000C358D040CE53DF4F19830883C25CD04084
:102D8000CC57DE4F88819981AA81BB81C458D1403C
:102D9000CC53DF4F88839983AA83BB83C45CD04024
:102DA000CE5FDE4F19830883C250D140CC56DE4F30
:102DB00088819981AA81BB81C459D140CC5FDE4F03
:102DC00088839983AA83BB83C450D1409E012F5F1F
:102DD0003F4FAE014F575F4FBE016E537F4FCE0145
:102DE0008E5F9E4F0E94783D85C01A830983CC591F
:102DF000DE4F88819981AA81BB81C456D1408B83E3
:102E00009C83AD83BE83CF57DF4F19830883C1589E
:102E1000D040CC57DE4F88819981AA81BB81C458AC
:102E2000D140CD57DF4F88839983AA83BB83C35892
:102E3000D040CE53DF4F19830883C25CD040CC56BC
:102E4000DE4F88819981AA81BB81C459D140CC537E
:102E5000DF4F88839983AA83BB83C45CD040AE01D3
:102E60004F5F5F4FBE016F577F4FCE018E539F4F15
:102E70000E94C43D3FC01A830983CC57DE4F88812E
:102E80009981AA81BB81C458D1408B839C83AD8337
:102E9000BE83CF57DF4F19830883C158D040CC562B
:102EA000DE4F88819981AA81BB81C459D140CD5719
:102EB000DF4F88839983AA83BB83C358D040BE0168
:102EC0006F5F7F4FCE018F579F4F0E94163E12C0FB
:102ED0001A830983CC56DE4F88819981AA81BB81F0
:102EE000C459D1408B839C83AD83BE83CE010196B0
:102EF0000E94613E86EC98E00E941B6D0BC16DEE56
:102F000073E086EC98E00E941F6D0FB6F894A895C8
:102F100080916000886180936000109260000FBE15
:102F200080915006811107C085E396E00E94FF5909
:102F300081E08093500682EF95E090937009809332
:102F40006F090E94E83CCE0101960E940C648981C1
:102F50009A810E94A04746E050E06BE676E089E067
:102F600090E00E94E27681E993E09A8389831B8254
:102F70001C821D821E82CE0103960E948A470E94F7
:102F80009F4780916F0990917009DC0192961D9284
:102F90001D921D921C929597FC0116A217A210A6D5
:102FA00011A69A961D921D921D921C929D9740EE1D
:102FB0005EE260E070E046AB57AB60AF71AF40EAF5
:102FC0005FE060E070E0DA964D935D936D937C93E3
:102FD000DD973E9624E1DF011D922A95E9F726E070
:102FE000EBE6F6E0DC01189601900D922A95E1F7E8
:102FF000FC01EE5BFF4F10820E94D6378C010197D7
:1030000009F04AC0CE0101960E940C6489819A8120
:103010000E94A04760916F0970917009625F7F4FB5
:10302000CE0101960E94216DCE0103960E948A472F
:1030300060916F09709170096A5E7F4FCE010196B1
:103040000E94216DCE0103960E94984760916F09FE
:10305000709170096E5E7F4FCE0101960E94216DC6
:10306000CE0103960E9491470E949F4760916F098D
:1030700070917009625E7F4FCE0101960E94216DB2
:103080008B819C81AD81BE8180936B0990936C098B
:10309000A0936D09B0936E0999E288E10FB6F89498
:1030A000A895809360000FBE90936000A895012BB7
:1030B00019F564E877E086EC98E00E94F86B65E526
:1030C00077E086EC98E00E94F86B86EF9FEF909394
:1030D0000807809307070E949B6BDC01CB01805A95
:1030E0009541AF4FBF4F8093220790932307A09342
:1030F0002407B0932507F8C065E477E086EC98E0F4
:103100000E94F86BCE0101960E942D7ACE010196A5
:103110000E94D77981E090E0E3C08091730681112D
:10312000D0C68091580681111AC060E070E080E03E
:1031300090E00E94A770D4C00E949B6B0091220770
:1031400010912307209124073091250706171707B0
:1031500028073907D0F10E94EF3E8111C5C082E0F7
:1031600090E0BEC0A895CE55DE4F1882C25AD1401D
:10317000FE01EE56FE4F119211928EE0DF011D927C
:103180008A95E9F70091630610916406011511050F
:1031900029F0C8010E941040811121C20E94EF3E17
:1031A0008111A2C0009163061091640601151105FA
:1031B00009F49AC0C8010E941040E82EF12CB2E038
:1031C000EB16F1040CF025C28FC020E030E043E0A4
:1031D00050E061E48E010F5F1F4FC8010E94AD8473
:1031E00069E074E0C8010E94D996F80101900020BE
:1031F000E9F7CF01801B910B08968138910538F5CE
:103200000E94EF3E882319F18091030A9091040AED
:10321000019611F481E090E09093040A8093030AF0
:103220008091030A9091040A9093880980938909F8
:1032300047E050E063E879E0C8010E94263FAC0116
:103240004550510963E879E082EA0E94463F84E0F4
:1032500090E090930807809307076CE979E086EC8B
:1032600098E00E94F86B40C00E949B6B009122077F
:10327000109123072091240730912507061717077F
:103280002807390788F510920807109207072CC005
:103290000E949B6B00912207109123072091240725
:1032A00030912507061717072807390708F457CF65
:1032B0001BC00E944470892B09F051CF0E949B6B68
:1032C000DC01CB0188579C4EAF4FBF4F8093220744
:1032D00090932307A0932407B093250786EF9FEFD1
:1032E00090930807809307070FB6F894A8958091EC
:1032F0006000886180936000109260000FBE809132
:10330000070790910807181619060CF059C100918B
:103310006F09109170090115110509F451C10E943E
:103320009B6B4B015C017801FEE3EF0EF11CF70192
:1033300080819181A281B381A5019401281B390B61
:103340004A0B5B0BCA01B901683E33E07307810584
:10335000910508F446C028EE33E040E050E00E94BA
:103360000F92861A970AA80AB90AD7018D929D92E0
:10337000AD92BC921397F80186A597A5A0A9B1A913
:1033800069017A01CC0CDD1CEE1CFF1C8C159D051F
:10339000AE05BF0528F416A617A610AA11AA09C0E3
:1033A000821B930BA40BB50BF80186A797A7A0ABC4
:1033B000B1ABF80182A993A9A4A9B5A98C159D0563
:1033C000AE05BF0528F412AA13AA14AA15AA09C0AB
:1033D000821B930BA40BB50BF80182AB93ABA4AB90
:1033E000B5ABF80186A597A5A0A9B1A9892B8A2B11
:1033F0008B2B69F4EE5BFF4F8081833041F484E0D6
:103400008083C8010E94D63701967C0102C0E12C5E
:10341000F12CF80182A993A9A4A9B5A9892B8A2B1B
:103420008B2BA1F4EE5BFF4F8081833011F0811173
:103430000DC01082F8013E9684E1DF011D928A954D
:10344000E9F7C8010E94D63703967C01B2E0EB167B
:10345000F10429F0E4E0EE16F10409F04AC0CE01CF
:1034600001960E940C6489819A810E94A047609114
:103470006F0970917009625F7F4FCE0101960E94C3
:10348000216DCE0103960E948A4760916F09709169
:1034900070096A5E7F4FCE0101960E94216DCE01B8
:1034A00003960E94984760916F09709170096E5E53
:1034B0007F4FCE0101960E94216DCE0103960E949E
:1034C00091470E949F4760916F0970917009625EF9
:1034D0007F4FCE0101960E94216D8B819C81AD8131
:1034E000BE8180936B0990936C09A0936D09B09392
:1034F0006E09F3E0EF16F10409F451C064F431E011
:10350000E316F10451F142E0E416F10409F058C069
:1035100063E679E049C054E0E516F10409F442C0DD
:1035200085E0E816F10409F04BC064E979E086EC27
:1035300098E00E94F86B86EC98E00E941B6D0E9458
:10354000EF3E81110E945A7A0E949B6BDC01CB01F5
:10355000805D9A48AF4FBF4F13C060E879E086ECBA
:1035600098E00E94F86B0E94EF3E81110E945A7A07
:103570000E949B6BDC01CB0188519C4FAF4FBF4F2A
:103580008093220790932307A0932407B0932507E5
:1035900086EF9FEF909308078093070711C060E5BF
:1035A00079E0DDCF64E379E086EC98E00E94F86B87
:1035B000CE0101960E942D7ACE0101960E94D77904
:1035C00099E288E10FB6F894A895809360000FBE49
:1035D00090936000209107073091080772C460E063
:1035E00070E0C8010E9407868C019093080C8093BC
:1035F000070C67E279E086EC98E00E94F86BB8016E
:1036000086EC98E00E941F6D86EC98E00E941B6D8E
:10361000C5CD61E070E0C8010E9407863C0192E0E0
:10362000E916F10491F062E0C8010E94507DFC01AE
:1036300081849284F3E0EF16F10459F063E070E0C6
:10364000C8010E9407868C0107C08BE5882E87E0A1
:10365000982E8E010E551E4F40E150E0BE016E5671
:103660007E4F86E390E00E940070892B51F425E0A4
:10367000E216F1040CF038C3AE014E565E4F7A01EB
:1036800004C0CE018E569E4F7C017092170A609244
:10369000160A9092190A8092180A8BE098E2909389
:1036A0000F0A80930E0A5E019EE7A91A9EEFB90ADF
:1036B00040E150E06AEF78E0C5010E94E58A6E01C2
:1036C000AEE9CA1AAEEFDA0A20E030E041E050E09D
:1036D00060E2C6010E94AD8440E250E063EF78E012
:1036E000C6010E94C78A63ED78E086EC98E00E94EC
:1036F000F86BB30186EC98E00E941F6D61ED78E0F5
:1037000086EC98E00E94F86B4AE050E0B40186EC49
:1037100098E00E94C26C6AEC78E086EC98E00E9427
:10372000F86BB80186EC98E00E941F6D65EC78E0BC
:1037300086EC98E00E94F86BF8018081811104C04A
:10374000E12CF12C00E010E08090070C9090080C28
:103750000E94EF3E81114DC18091810990918209B3
:10376000DC01ED91FC910688F789E02D19958823FD
:10377000B1F081E090E09093040A8093030A87E01F
:10378000E2E1F2E0DE01119601900D928A95E1F7F7
:10379000FE013196A8E8B9E0CE01089637C06091E5
:1037A000160A7091170A80918109909182094091BF
:1037B000180A5091190ADC01ED91FC91611571050F
:1037C00021F00088F189E02D16C00684F785E02DF0
:1037D00021E933E03A8329834090120A5090130A7A
:1037E0006090140A7090150A4B825C826D827E8212
:1037F000BE016F5F7F4F1995019709F4BACF8EEF25
:103800009FEF90931D0A80931C0A7EC221912D93F5
:103810008E179F07D9F70115110529F0E114F1045E
:1038200021F086EF03C086E301C086EB80938F0909
:10383000109290098FE080939109F401019000208B
:10384000E9F7CF018819990940968138910508F068
:10385000C4C04FE050E063E879E0C4010E94263F15
:10386000F60101900020E9F73197EC19FD09E80F06
:10387000F91F3296E138F10508F0AFC0AC0163E8FA
:1038800079E0C6010E94263FF50101900020E9F78A
:103890003197EA19FB09E80FF91F3296E138F10573
:1038A00008F09BC0AC0163E879E0C5010E94263FA7
:1038B0000115110579F1F80101900020E9F7319720
:1038C000E01BF10B9C012E5F3F4FE20FF31FE1382D
:1038D000F10508F082C0AC0163E879E0C8010E94FC
:1038E000263FE114F104B1F0F70101900020E9F75F
:1038F0003197EE19FF099C012E5F3F4FE20FF31F36
:10390000E138F10508F069C0AC0163E879E0C7016E
:103910000E94263FAC014550510963E879E080E1FF
:103920000E94463F0E949B6B6093050A7093060AB3
:103930008093070A9093080A6093090A70930A0A11
:1039400080930B0A90930C0A8091810990918209CF
:10395000DC01ED91FC910084F185E02D1995892B16
:10396000C1F40E949B6B0091090A10910A0A2091F0
:103970000B0A30910C0ADC01CB01801B910BA20BCE
:10398000B30B88399A43A105B105F0F28CEF9FEF94
:1039900020C0CE018F579F4F0E945C776430710525
:1039A00081059105D1F480918609811111C00E9491
:1039B0009B6B6093090A70930A0A80930B0A909399
:1039C0000C0A10920D0A10921D0A10921C0A11C0C6
:1039D00090E090931D0A80931C0A80918109909138
:1039E0008209DC01ED91FC910488F589E02D19959F
:1039F0008BC10091070C1091080C67EB78E086EC06
:103A000098E00E94F86BB80186EC98E00E941F6D68
:103A100086EC98E00E941B6D81E08093580620E0C0
:103A200030E043E050E061E4CE018F579F4F0E94A9
:103A3000AD8469E074E0CE018F579F4F0E94D99604
:103A4000CE018F579F4F0E94633920E030E042E063
:103A500050E061E4CE018F579F4F0E94AD846DE02E
:103A600074E0CE018F579F4F0E94D996BE016F57C9
:103A70007F4F86EC98E00E94E962CE018F579F4FFE
:103A80000E94633920E030E041E050E061E4CE0183
:103A90008F579F4F0E94AD846DE074E0CE018F5729
:103AA0009F4F0E94D996BE016F577F4F86EC98E0DA
:103AB0000E94E962CE018F579F4F0E946339FE0139
:103AC000EE5FFE4F119211921EE3DF01212F1D9236
:103AD0002A95E9F71A821982FE0133968EE7DF01F3
:103AE0001D928A95E9F720E030E041E050E060E483
:103AF000CE018E5F9E4F0E94AD8440E450E063EFA4
:103B000078E0CE018E5F9E4F0E94C78A40E850E069
:103B100060E778E0CE0101960E94E58ABE016F5F02
:103B20007F4FCE018E5F9E4F0E94FF3F20E030E02E
:103B300041E050E060E4CE018E5F9E4F0E94AD8474
:103B400040E450E06AE678E0CE018E5F9E4F0E942E
:103B5000C78A40E850E060E678E0CE0101960E9416
:103B6000E58A40E850E06DE478E0CE0101960E94DD
:103B7000C78ABE016F5F7F4FCE018E5F9E4F0E944E
:103B8000FF3F20E030E041E050E060E4CE018E5F96
:103B90009E4F0E94AD8440E450E06CE071E1CE01A4
:103BA0008E5F9E4F0E94C78A40E850E06DE378E048
:103BB000CE0101960E94E58ABE016F5F7F4FCE0164
:103BC0008E5F9E4F0E94FF3F20E030E041E050E0DA
:103BD00060E4CE018E5F9E4F0E94AD8440E450E0D1
:103BE00066E378E0CE018E5F9E4F0E94C78A40E870
:103BF00050E060E378E0CE0101960E94E58ABE01C4
:103C00006F5F7F4FCE018E5F9E4F0E94FF3F80917E
:103C100073068F5F80937306A0917406B09175064A
:103C2000109709F443C08091190290911A02AE01D5
:103C30004E5B5E4FFA01819391932EE111922A958A
:103C4000E9F79E012E533F4FF90181939193119211
:103C50001A95E9F716960D911C911797E090740646
:103C6000F0907506E114F10471F00115110559F099
:103C7000D80118968C918530A9F7C8010E94104090
:103C8000882381F36FC020E030E041E050E060E441
:103C9000CE018E5F9E4F0E94AD8440E450E063ED04
:103CA00077E0CE018E5F9E4F0E94C78A8091730697
:103CB00081508093730683E090E09093080780938F
:103CC00007070E949B6BDC01CB0188579C4EAF4FCE
:103CD000BF4F8093220790932307A0932407B093AC
:103CE00025076AE978E0BBCA64E070E0809163066A
:103CF000909164060E9407867C0167E079E086EC7B
:103D000098E00E94F86BC1CC00911C0A10911D0A2A
:103D10006EE878E086EC98E00E94F86B4AE050E0AC
:103D2000B80186EC98E00E94C26C66E778E086EC09
:103D300098E00E94F86B86EC98E00E941B6D0E9450
:103D40009B6BDC01CB0188579C4EAF4FBF4F8093DC
:103D5000220790932307A0932407B09325078CE0B4
:103D600090E0BECA60E0C8010E94507DFC018185E0
:103D70009285A385B4858A30910508F463C020E05C
:103D800030E041E050E060E4CE018E5F9E4F0E9443
:103D9000AD84F8016081718140E450E0CE018E5F16
:103DA0009E4F0E94FF966FE074E0CE018E5F9E4FA3
:103DB0000E94D99640E450E062EE77E0CE018E5F3B
:103DC0009E4F0E94C78ABE016E5B7E4FCE018E5F02
:103DD0009E4F0E94FF3FCE53DF4F8881C25CD04090
:103DE000882361F120E030E041E050E060E4CE0162
:103DF0008E5F9E4F0E94AD84D8016D917C9140E40E
:103E000050E0CE018E5F9E4F0E94FF966FE074E0FF
:103E1000CE018E5F9E4F0E94D99640E450E06AED3D
:103E200077E0CE018E5F9E4F0E94C78ABE016E531F
:103E30007F4FCE018E5F9E4F0E94FF3FF8010281AF
:103E400013810CCFFC0140E250E08827E354FF4F80
:103E50008F4F0C9486926AE278E0CE018E5B9E4F83
:103E60000E94E58ACE53DF4F1882C25CD04087CFD4
:103E700065E278E0CE018E5B9E4F0E94E58A40E4C9
:103E800050E064E078E017C06EEF77E0CE018E5B23
:103E90009E4F0E94E58A40E450E06AEF77E00BC055
:103EA00062EF77E0CE018E5B9E4F0E94E58A40E490
:103EB00050E06CEE77E0CE018E539F4F0E94E58A72
:103EC0005ECFC901CE55DE4F0FB6F894DEBF0FBEF0
:103ED000CDBFDF91CF911F910F91FF90EF90DF90B9
:103EE000CF90BF90AF909F908F907F906F905F909A
:103EF0004F900895CF93DF93009709F455C0FC01CC
:103F00002081222309F450C0EC0165E27BE00E948D
:103F1000B78A892BA1F169E07BE0CE010E94B78AC4
:103F2000892B81F162EF79E0CE010E94B78A892B5B
:103F300061F16FE27AE0CE010E94B78A892B41F1EC
:103F40006BE27AE0CE010E94B78A892B21F16EEEF6
:103F500079E0CE010E94B78A892B01F16AEE79E0FF
:103F6000CE010E94B78A892BE1F066EE79E0CE019E
:103F70000E94B78A892BC1F488E090E017C082E0E4
:103F800090E014C081E090E011C086E090E00EC0A7
:103F900083E090E00BC084E090E008C085E090E012
:103FA00005C087E090E002C080E090E0DF91CF9113
:103FB00008958F929F92AF92BF92CF92DF92EF922D
:103FC000FF920F931F93CF93DF93E0917406F091CC
:103FD0007506309709F465C0812EF02E932EC22EFF
:103FE000A52ED42EB72EE62EBC01CF010E945D7DFA
:103FF000EC01892B09F458C08885853009F054C03C
:1040000060E0CE010E94507D8C0161E0CE010E94F3
:10401000507DFC01C185D285D80119962D913C9126
:104020001A972130310569F02CF4232BE9F56F2D17
:10403000CE0118C02230310549F027303105A9F0F2
:1040400033C06F2DCE0103960E94DE496E2DCE0146
:104050000E94DE496D2DCE0101960E94DE496C2D35
:10406000CE0102960E94DE491FC0892BE9F08085AF
:104070008530D1F4C681D7812097B1F0888584300E
:1040800061F40F2D182D2C2D392D4D2D5A2D6E2DFF
:104090007B2D89859A850E94D91F0A80DB81C02DDE
:1040A000EBCF80E090E002C081E090E0DF91CF9123
:1040B0001F910F91FF90EF90DF90CF90BF90AF9046
:1040C0009F908F900895CF92DF92EF92FF920F937F
:1040D0001F93CF93DF93E0916706F09168063097C6
:1040E000B9F090859530A1F469017A01EB01682F50
:1040F000CF010E94507DFC012085243049F4818548
:104100009285009729F09601A701BE010E94D91F50
:10411000DF91CF911F910F91FF90EF90DF90CF90A3
:104120000895AF92BF92CF92DF92EF92FF920F93DA
:104130001F93CF93DF938091600690916106892B46
:1041400009F472C0E1E0F0E0C0E0D0E0CC24C39418
:10415000D12CB6010C2E02C0660F771F0A94E2F72D
:1041600040915D0650915E067F0184E0E80EF11CEF
:10417000CF01B12C9C01A0910602B0910702A817B3
:10418000B90720F42091060230910702A091C70BD5
:10419000B091C80BA20FB31FAC90A0916006B09174
:1041A00061069C0121503109A20FB31F0A2D10E0B6
:1041B0002C9130E00217130729F0462B572BAC92B5
:1041C000BB24B3940196E816F906A1F650935E0657
:1041D00040935D06BB2011F18091600690916106CD
:1041E000E80FF91F028110E0218130E0408150E0AA
:1041F0003197608170E0CE010E9463200E949B6B2A
:10420000DC01CB01845D9E4FAF4FBF4F80935906B9
:1042100090935A06A0935B06B0935C062196F70133
:10422000C430D10509F095CFDF91CF911F910F9147
:10423000FF90EF90DF90CF90BF90AF9008950F93D5
:104240001F93CF93DF938C01FC01C081D1816FE27A
:1042500070E0CE010E942C970097C1F0FC011192F2
:10426000CF010E947A1FEC016FE17AE086EC98E0C2
:104270000E94F86B4AE050E0BE0186EC98E00E9494
:10428000C26C86EC98E00E941B6D09C0CE010E94B2
:104290007A1FEC01892B19F0F80111821082CE01EE
:1042A000DF91CF911F910F9108952F923F924F92DE
:1042B0005F926F927F928F929F92AF92BF92CF92B6
:1042C000DF92EF92FF920F931F93CF93DF93CDB7BF
:1042D000DEB72B970FB6F894DEBF0FBECDBF4C01F3
:1042E0006B01042F38872F83672B09F4DDC1F90197
:1042F000309719F08081811109C0D4011D968C91ED
:10430000882321F0C4010D9698878F83EF81F8856B
:10431000309721F4F401E788F08C0AC0808188236B
:10432000C9F3CE0107960E941F217C01892B91F3CE
:104330005601D5018C91882349F0082E000C990B69
:104340000E948596F50181935F01F3CFD6011C9100
:104350001D3209F4CBC080ED810F8A3008F4C6C04D
:10436000153209F4F6C06DE47BE0C6010E94B78AFD
:10437000892B09F4E6C069E47BE0C6010E94B78A94
:10438000892B09F4E2C06DE77AE0C6010E94B78A82
:10439000892B09F4AEC066E77AE0C6010E94B78AAD
:1043A000892B09F4AAC06FE176E0C6010E94B78AA2
:1043B000892B09F4A6C06BE176E0C6010E94B78A9A
:1043C000892B09F4A2C061E77AE0C6010E94B78A8E
:1043D000892B09F49EC062E17BE0C6010E94B78A86
:1043E000892B09F49AC06DE07BE0C6010E94B78A70
:1043F000892B09F496C067E17BE0C6010E94B78A69
:10440000892B09F492C062E176E0C6010E94B78A66
:10441000892B09F48EC06EE076E0C6010E94B78A4F
:10442000892B09F48AC06CE67AE0C6010E94B78A3B
:10443000892B09F486C066E67AE0C6010E94B78A35
:10444000892B09F482C06EE57AE0C6010E94B78A22
:10445000892B09F476C065E57AE0C6010E94B78A27
:10446000892B09F472C06CE47AE0C6010E94B78A15
:10447000892B09F46EC063E47AE0C6010E94B78A12
:10448000892B09F46AC06EE37AE0C6010E94B78AFC
:10449000892B09F466C067E37AE0C6010E94B78AF7
:1044A000892B09F462C063E37AE0C6010E94B78AEF
:1044B000892B09F45EC01B3709F45FC0133209F47D
:1044C00061C043E050E06FE27AE0C6010E94D78A03
:1044D000892B09F45CC043E050E06BE27AE0C6014E
:1044E0000E94D78A892B09F057C04CC0A12CB12C4F
:1044F00056C0E3E0AE2EB12C52C074E0A72EB12C12
:104500004EC065E0A62EB12C4AC056E0A52EB12CB7
:1045100046C047E0A42EB12C42C03AE0A32EB12CF5
:104520003EC02BE0A22EB12C3AC09CE0A92EB12CAB
:1045300036C08DE0A82EB12C32C01EE0A12EB12CC9
:104540002EC0AA24A394B12C2AC0A2E0AA2EB12C7A
:1045500026C0F8E0AF2EB12C22C0E9E0AE2EB12C7F
:104560001EC070E1A72EB12C1AC061E1A62EB12C9D
:1045700016C052E1A52EB12C12C04EEFA42EBB24C2
:10458000BA940DC03DEFA32EBB24BA9408C02CEF03
:10459000A22EBB24BA9403C0AA24AA94BA2C62E81F
:1045A0007AE086EC98E00E94F86B4AE050E0B501B2
:1045B00086EC98E00E94C26C86EC98E00E941B6D2D
:1045C000BFEFAB16BB0609F064F4EEEFAE16EFEFEB
:1045D000BE060CF069C0FCEFAF16FFEFBF0649F056
:1045E00053C0A114B10429F0C5010897029718F02F
:1045F0004BC0A12CB12CCE0101961C01612C712C59
:104600008A873B862301AFEF4A1A5A0A3201F60124
:1046100080818823D1F06F018191882329F08D3228
:1046200019F080538A30B8F7C6010E94908A182F7B
:1046300099876CE270E0C6010E94E4966C01892BB8
:1046400039F0FFEFCF1ADF0A03C080E090E002C02C
:10465000812F9985D1018D939D931D01C114D104A2
:1046600039F093E04916510469F683E0682E712C05
:10467000CF80D884D401ED91FC910190F081E02DA0
:104680002A853B85A3010CC0CF80D884D401ED914D
:10469000FC910190F081E02D20E030E040E050E01E
:1046A000B501C401199502C080E090E02B960FB6C9
:1046B000F894DEBF0FBECDBFDF91CF911F910F9158
:1046C000FF90EF90DF90CF90BF90AF909F908F9032
:1046D0007F906F905F904F903F902F900895DC01F6
:1046E0001296ED91FC911397309721F081E090851F
:1046F000953009F080E00895CF92DF92EF92FF921B
:10470000CF93DF93DC011696ED91FC9117973097CC
:1047100021F12085223009F56A017B01EC0167E176
:104720007AE086EC98E00E94F86B61E17AE086EC32
:1047300098E00E94F86B2AE030E0B701A60186EC11
:1047400098E00E947A6C86EC98E00E941B6DEE81E6
:10475000FF81C186D286E386F486DF91CF91FF90F8
:10476000EF90DF90CF900895FC01868197810097AC
:1047700089F0FC012085223041F0253059F460E0B9
:104780000E94507D009731F0FC0161857285838520
:104790009485089560E070E0CB0108950F931F9316
:1047A000CF93DF93FC01C481D581209791F0888558
:1047B000823029F4672B69F489859A8514C0853085
:1047C00041F48B01CE010E94104090E008171907B8
:1047D0001CF080E090E007C0602FCE010E94507D69
:1047E000FC0181859285DF91CF911F910F910895F2
:1047F0000F931F93CF93DF93EB0163E0FC01828162
:1048000093810E94507D009741F1AE0140955095F3
:104810004F6F60E070E0FC010185128523853485CF
:104820004023512362237323418752876387748710
:1048300068E07AE086EC98E00E94F86B4AE050E08D
:10484000BE0186EC98E00E94C26C86EC98E0DF9195
:10485000CF911F910F910C941B6DDF91CF911F9100
:104860000F9108950F931F93CF93DF93EB0163E0B4
:10487000FC01828193810E94507D009731F1AE014D
:10488000442760E070E0FC010185128523853485B2
:10489000402B512B622B732B418752876387748780
:1048A0006FEF79E086EC98E00E94F86B4AE050E008
:1048B000BE0186EC98E00E94C26C86EC98E0DF9125
:1048C000CF911F910F910C941B6DDF91CF911F9190
:1048D0000F910895CF93DF93EB0163E0FC01828198
:1048E00093810E94507D009739F0FC01818592856B
:1048F00088278C239D2302C080E090E0DF91CF9138
:104900000895CF93C62F63E0FC01828193810E94BA
:10491000507D0097F9F0FC014185528563857485CF
:104920004427662777274C2B4187528763877487F4
:1049300067EF79E086EC98E00E94F86B4AE050E07F
:104940006C2F86EC98E00E94C96C86EC98E0CF91C1
:104950000C941B6DCF91089563E0FC0182819381DB
:104960000E94507D009719F0FC01818508958FEF1A
:104970000895CF93DF93EC01FB01248135814081C1
:104980005181628173810E947A6CCE01DF91CF9157
:1049900008956F927F928F929F92AF92BF92CF9223
:1049A000DF92EF92FF920F931F93CF93DF93CDB7D8
:1049B000DEB7C054D1090FB6F894DEBF0FBECDBF2D
:1049C0003C014B01FC01E080F18061E174E0C70132
:1049D0000E945D7D5C0166E174E0C7010E945D7D1F
:1049E0006C01A114B10419F4892B09F4D3C06BE153
:1049F00074E0C7010E945D7D8C0160E274E0C70134
:104A00000E945D7D7C01F30173806BED79E086ECA3
:104A100098E00E94F86B4AE050E0672D86EC98E041
:104A20000E94C96C69ED79E086EC98E00E94F86B11
:104A30004AE050E0B40186EC98E00E94C26C86EC3B
:104A400098E00E941B6DC114D104D1F1F60180855C
:104A50008430B1F56185728540E450E0CE01019665
:104A60000E941D970E94EF3E882351F180917206AB
:104A7000811126C06FE270E0CE0101960E94E4969B
:104A8000892B51F4F6012185328543E050E060E442
:104A9000CE0101960E94AD848114910409F469C08D
:104AA0000115110509F462C0F8018085843009F010
:104AB0005DC0F80161857285FB018081811165C04F
:104AC000A114B10409F466C0F5018085843009F0B1
:104AD00061C061857285CE0101960E947940CE0148
:104AE00001960E946F238823E1F18928A9F001151E
:104AF000110521F0F8018085843061F0C12CD12CA2
:104B0000E12CF12C01E020E030E040E050E061E0F9
:104B100070E014C0F80118C0E114F10421F0F701AD
:104B20008085843081F0C12CD12CE12CF12C01E066
:104B300020E030E040E050E062E070E0CE0101961D
:104B40000E94400B0EC0F70161857285FB018081D8
:104B5000882339F020E030E041E0CE0101960E9448
:104B60005521CE0101960E94094114C065E274E00E
:104B70000CC0E114F10421F0F7018085843019F4B0
:104B800068E274E002C0F70195CFCE0101960E9461
:104B9000FF3F96CFC05CDF4F0FB6F894DEBF0FBE6D
:104BA000CDBFDF91CF911F910F91FF90EF90DF90DC
:104BB000CF90BF90AF909F908F907F906F9008950F
:104BC000CF92DF92FF920F931F93CF93DF93EC016D
:104BD000F62E8A0188819981892B09F412C1EC8112
:104BE000FD81309709F40DC180819FEF691318C0D2
:104BF00084FF05C14330510509F401C1F180F294ED
:104C00008FE0F82261EC79E086EC98E00E94F86B86
:104C10004AE050E06F2D86EC98E00E94C96C02C01B
:104C200084FDEFC0EC81FD8181818F70D82EF81654
:104C300061F1CB806FEB79E086EC98E00E94F86B35
:104C40004AE050E06C2D86EC98E00E94C96C6DEB58
:104C500079E086EC98E00E94F86B4AE050E06D2D18
:104C600086EC98E00E94C96C6AEB79E086EC98E0EB
:104C70000E94F86B4AE050E06F2D86EC98E00E94AD
:104C8000C96C86EC98E00E941B6D8F2D90E08D30F2
:104C9000910508F089C0FC01CC80DD808827E953AC
:104CA000FF4F8F4F0C948692F6019181292F2F7020
:104CB000253009F479C088819981263028F4223082
:104CC00069F46DE274E04CC0273029F02A3031F4E9
:104CD00063E374E060C06CE274E04FC060E274E0D3
:104CE00034C06BE174E0888199810E945D7DF6019A
:104CF0002081422F4170322F309530FB20F91FC0A8
:104D00006AE374E0888199810E945D7DF6012081CB
:104D100021FB442740F931E0342730FB21F90FC053
:104D200060E474E0888199810E945D7DF6012081B4
:104D300022FB442740F931E0342730FB22F920835D
:104D400031C060E274E0888199810E945D7D40E01D
:104D500029C066E474E002C06BE474E08881998144
:104D60000E945D7DF601408141701CC061E574E0E8
:104D700002C067E574E0888199810E945D7DF6013B
:104D80004081469541700EC06EE574E002C064E655
:104D900074E0888199810E945D7DF601408142FB2B
:104DA000442740F9009751F4EC81FD818F2D8F70DD
:104DB0009181907FF92EF82AF18221C0EC81FD814A
:104DC0000330110581F02F2D2F703181307FF32EAC
:104DD000F22AF182BC01CE010E941D41EC81FD81CD
:104DE00080818F7E0BC081818F70982F9295907FEC
:104DF000892B8183EC81FD8180818061808381E0CA
:104E000001C080E0DF91CF911F910F91FF90DF9063
:104E1000CF900895FF920F931F93CF93DF93EC01F0
:104E20001D821C821A821B820881198101151105BD
:104E300009F456C0F8018085863009F051C0809190
:104E4000260790912707892B09F44AC06BE674E086
:104E5000C8010E945D7D009719F0FC0181858A835D
:104E6000F801808191810E94908AF82E8B836DE6F3
:104E700074E0C8010E945D7D009779F51A8165EBA9
:104E800079E086EC98E00E94F86B4AE050E06F2DE4
:104E900086EC98E00E94C96C63EB79E086EC98E0C0
:104EA0000E94F86B4AE050E0612F86EC98E00E9487
:104EB000C96C86EC98E00E941B6D40E050E06DE606
:104EC00074E0888199810E94B53E6DE674E0888126
:104ED00099810E945D7D009719F009969D838C83CE
:104EE000DF91CF911F910F91FF900895EF92FF9264
:104EF0000F931F93CF93DF9380915D0690915E0691
:104F0000C4E0D0E021E030E0AC0142235323452B44
:104F100029F0A9014095509584239523220F331F32
:104F2000219791F790935E0680935D060E949B6B9C
:104F30000091590610915A0620915B0630915C064B
:104F4000601771078207930708F459C0012B022BE1
:104F5000032B09F454C01092590610925A0610926D
:104F60005B0610925C06E12CF12CE0916006F0915A
:104F70006106EC0FFD1F038110E0228130E04181CA
:104F800050E0608170E0C7010E9463208FEFE81A53
:104F9000F80A249684E0E816F10439F7C1E0D0E07D
:104FA00080910602909107028C179D0728F480914A
:104FB00006029091070201C0CE012091C70B3091EB
:104FC000C80BF901E80FF91F4AE050E0608186EC58
:104FD00098E00E94C96C6FE674E086EC98E00E944D
:104FE0001F6D2196C131D105D9F686EC98E0DF918D
:104FF000CF911F910F91FF90EF900C941B6DDF915B
:10500000CF911F910F91FF90EF900895FC01848143
:10501000958108950895AF92BF92CF92DF92EF925B
:10502000FF920F931F93CF93DF93CDB7DEB7C15499
:10503000D1090FB6F894DEBF0FBECDBF5C016B0186
:105040008A0168EC7BE086EC98E00E94F86BB50181
:1050500086EC98E00E941F6D65EC7BE086EC98E0A2
:105060000E94F86BC114D10409F4A1C00C0D1D1DE0
:10507000F80110820E949B856A3F71051CF460EC68
:105080007BE04DC07601E016F10641F0F701619139
:105090007F0186EC98E00E94F16BF5CF86EC98E0FA
:1050A0000E941B6D80910707909108079E012F5F5A
:1050B0003F4F790120E030E0039719F443E050E0DE
:1050C00019C042E050E061E4C7010E94AD84F701DD
:1050D00001900020E9F731978F010E191F09A801EF
:1050E000B701C5010E940F970097A9F020E030E0BA
:1050F00041E050E061E4C7010E94AD84F7010190F6
:105100000020E9F731978F010E191F09A801B70197
:10511000C5010E940F97892B39F065EB7BE086EC87
:1051200098E00E94F86B43C00A0D1B1D61E774E014
:10513000C8010E94EF96892B69F4F60101900020C6
:10514000E9F73197EC19FD09329720F0C6010E946A
:10515000CB7F2DC06FE270E0C8010E94E4965C0135
:10516000009741F0FC0110828181843201F1FFEF50
:10517000AF1ABF0AF80180818432C9F0B801C701B3
:105180000E947940C7010E946F23882369F041E0A3
:105190008091070790910807039709F440E0950173
:1051A000B601C7010E945521C7010E940941CF5B8A
:1051B000DF4F0FB6F894DEBF0FBECDBFDF91CF91AA
:1051C0001F910F91FF90EF90DF90CF90BF90AF9025
:1051D0000895CF93DF93EC0167ED7AE086EC98E0D9
:1051E0000E94F86B60E074E0CE01DF91CF910C94E7
:1051F00032246F927F928F929F92AF92BF92CF9202
:10520000DF92EF92FF920F931F93CF93DF93CDB76F
:10521000DEB72C970FB6F894DEBF0FBECDBF4C01A2
:10522000762E672E6A01590181E090E090930A077B
:105230008093090726E240E855E260E070E089E2E9
:1052400098E00E9429457092200A89E298E09093A4
:105250001F0A80931E0A10922B0B10922D0B109296
:105260002C0B0115110541F00130110539F4FE2C0C
:10527000EE24EE24EA9402C0FF24FA94C701A0E0D1
:10528000B0E089839A83AB83BC8380E190E09E8306
:105290008D83A60160E070E04F83588769877A8725
:1052A0009C878B874AE050E0672D762D86EC98E04E
:1052B0000E94C26C60E87BE086EC98E00E94F86B8C
:1052C000BE01695F7F4F86EC98E00E94B9248C0193
:1052D0006CE77BE00E94F86B4AE050E0B501C80142
:1052E0000E94C26C69E77BE0C8010E94F86BBE01B6
:1052F0006F5F7F4FC8010E94B9240E941B6DA114EB
:10530000B10491F082E0A816B10409F5D092A60A82
:10531000C092A50A1092A80A1092A70AF092AA0AAF
:10532000E092A90A86E010C0D092A60AC092A50A0F
:10533000E11003C080E090E002C080E09FEF909316
:10534000A80A8093A70A85E00E94724207C061E61E
:105350007BE086EC98E00E94F86B80E010920A07F0
:1053600010920907882331F0C4010E94E92880E0E7
:1053700090E002C081E090E02C960FB6F894DEBF7A
:105380000FBECDBFDF91CF911F910F91FF90EF9096
:10539000DF90CF90BF90AF909F908F907F906F9055
:1053A0000895DF92EF92FF920F931F93CF93DF93B5
:1053B00000D000D0CDB7DEB76DEC7BE086EC98E096
:1053C0000E94F86B0BE616E0D12C80E1E82EF12C60
:1053D000F8018081803130F46AE774E086EC98E06F
:1053E0000E941F6DF8018081F5E090E0A0E0B0E040
:1053F00089839A83AB83BC83FE82ED82BE016F5F9B
:105400007F4F86EC98E0DF1639F00E94B9246BECF0
:105410007BE00E94F86B04C00E94B9240E941B6DBF
:10542000D3940F5F1F4F86E0D812D2CF26960FB6C7
:10543000F894DEBF0FBECDBFDF91CF911F910F91CA
:10544000FF90EF90DF900895CF92DF92EF92FF925E
:105450008091260790912707892B09F47BC060EA89
:105460007BE086EC98E00E94F86B809173068823BD
:10547000E9F00E94408080911807882341F08091D4
:10548000160790911707892B11F00E94C74C0E94B4
:1054900076278091070790910807039711F00E94E3
:1054A00079640E9494500E94FF52DFCF10920C0743
:1054B00010920B070E949B856B017C0168E87BE0E2
:1054C00086EC98E00E94F86B2AE0B701A60186EC12
:1054D00098E00E94316C80912607909127070E94E6
:1054E000626210922707109226071092930610927C
:1054F0009206109275061092740610920A0C109281
:10550000090C1092640610926306109268061092BD
:1055100067061092170710921607109266061092EF
:1055200065060E949B856B017C0163E87BE086EC4D
:1055300098E00E94F86B2AE0B701A60186EC98E09B
:105540000E94316C86EC98E0FF90EF90DF90CF9056
:105550000C941B6DFF90EF90DF90CF90089580E04A
:1055600090E008958F929F92BF92CF92DF92EF9238
:10557000FF920F931F93CF93DF93CDB7DEB7C8543D
:10558000D1090FB6F894DEBF0FBECDBF7C018B01F1
:105590000E94AC24B82E4801882428E0922213FDF2
:1055A00006C08091070790910807039781F4B8011E
:1055B00066277370C7010E94322460E57BE086ECA9
:1055C00098E00E94F86B88248A94982CF7C160E0D8
:1055D00073E0C7010E946A24082B192B1AAA19AA82
:1055E000FE01F3968EE0DF011D928A95E9F723967E
:1055F0001FAE1EAE2397709686E0DF011D928A953E
:10560000E9F711FF63C0F70183859485009719F4CA
:10561000C284D12C08C0DC01ED91FC91028CF38D89
:10562000E02D19956C01C7010E94B423B6E0CB169A
:10563000D104B1F19E012F5C3F4FE7E0CE16D104BB
:1056400044F4F1E0CF1AD10842E0C416D10438F096
:1056500029C0A7E0CA16D10429F597FF13C01F92ED
:105660006F931F927F939F779F938F938CE794E024
:105670009F938F931F9280E18F933F932F930E946C
:1056800037971FC01F926F9382E894E09F938F9388
:105690001F9280E18F933F932F930E94379711C001
:1056A0001D7F14C09F938F937F936F9382E894E044
:1056B0009F938F931F9280E18F933F932F930E942C
:1056C00037970FB6F894DEBF0FBECDBF10FF1EC0D8
:1056D0008B2D90E08D30910590F4FC018827EC52E1
:1056E000FF4F8F4F0C9486926DE47BE002C069E41B
:1056F0007BE0CE018F5B9F4F0E94C08A07C06BE3A7
:105700007BE086EC98E00E94F86B1E7F20E030E0A2
:1057100043E050E060E3CE0101960E94AD84D701E2
:105720001296ED91FC911397608171814FE250E0E8
:10573000CE0101960E94FF960E94EF3E882309F455
:1057400039C180917206811135C16801CC24B2E063
:10575000DB2211FF2DC08B2D90E08230910541F1AD
:10576000059731F1BE016F5C7F4FCE0101960E941B
:10577000FF3F65E37BE086EC98E00E94F86BBE019A
:105780006F5F7F4F86EC98E00E941F6D62E37BE0C5
:1057900086EC98E00E94F86BBE016F5C7F4F86EC50
:1057A00098E00E941F6D86EC98E00E941B6D2AC055
:1057B00010FF25C0BE016F5B7F4FCE0101960E9496
:1057C000FF3F6CE27BE086EC98E00E94F86BBE0144
:1057D0006F5F7F4F86EC98E00E941F6D69E27BE06F
:1057E00086EC98E00E94F86BBE016F5B7F4F86EC01
:1057F00098E00E941F6D86EC98E00E941B6DCD28FA
:1058000009F457C020E030E043E050E060E3CE010F
:1058100001960E94AD84D7011296ED91FC911397E9
:10582000608171814FE250E0CE0101960E94FF96A7
:105830006FE074E0CE0101960E94D99640E350E0FB
:1058400065E27BE0CE0101960E94C78A6FE17BE0B2
:1058500086EC98E00E94F86BBE016F5F7F4F86EC8C
:1058600098E00E941F6D6CE17BE086EC98E00E945E
:10587000F86BBE016F5C7F4F86EC98E00E941F6D55
:1058800086EC98E00E941B6D0E94EF3E882309F48D
:1058900091C08091720681118DC0BE016F5C7F4FF7
:1058A000CE0101960E94FF3F60E072E0C7010E94B6
:1058B000F82310FF7BC0BAE0BB1681F0BB1538F0AF
:1058C000E1E0BE1689F0F6E0BF1671F019C02BE0DA
:1058D000B21639F04CE0B41661F012C062E17BE020
:1058E0000AC06DE07BE007C0D7011A968C91853025
:1058F00039F467E17BE0CE018F5B9F4F0E94C08A45
:1059000020E030E043E050E060E3CE0101960E94E9
:10591000AD84D7011296ED91FC911397608171814E
:105920004FE250E0CE0101960E94FF966FE074E0D6
:10593000CE0101960E94D99640E350E069E07BE0F9
:10594000CE0101960E94C78A63E07BE086EC98E076
:105950000E94F86BBE016F5F7F4F86EC98E00E945B
:105960001F6D60E07BE086EC98E00E94F86BBE0162
:105970006F5B7F4F86EC98E00E941F6D86EC98E08D
:105980000E941B6D0E94EF3E8823A1F08091720659
:10599000811110C0BE016F5B7F4FCE0101960E9446
:1059A000FF3F60E071E0C7010E94F82388248394E0
:1059B000912C04C0B801C7010E943224C401C85B05
:1059C000DF4F0FB6F894DEBF0FBECDBFDF91CF9192
:1059D0001F910F91FF90EF90DF90CF90BF909F901D
:1059E0008F9008958F929F92AF92BF92EF92FF9205
:1059F0000F931F93CF93DF93CDB7DEB769970FB6A1
:105A0000F894DEBF0FBECDBFDC011496ED91FC9182
:105A100015972085243009F0D7C0942EA62E7C013E
:105A200061857285CE0101960E947940CE01019672
:105A30000E946F23882309F454C08B85893009F0B4
:105A400050C060E070E0CE0101960E94CE23B82ED7
:105A5000192F67EF7AE086EC98E00E94F86B4AE035
:105A600050E06B2D712F86EC98E00E94C26C65EFC0
:105A70007AE086EC98E00E94F86B4AE050E06A2DEC
:105A80000A2C000C770B86EC98E00E94C26C6FEE3B
:105A90007AE086EC98E00E94F86B4AE050E0692DCD
:105AA000092C000C770B86EC98E00E94C26C86EC07
:105AB00098E00E941B6D0091090710910A070115DB
:105AC000110591F0692DC7010E9481244A2DAA0C6D
:105AD000550B660B770BC7010E947C23C7010E9400
