:100000000C940F110C9440110C9440110C9440115D
:100010000C9440110C9440110C9440110C9440111C
:100020000C9440110C9440110C9440110C9440110C
:100030000C9440110C9440110C9440110C946D8858
:100040000C9440110C9440110C9440110C944011EC
:100050000C9440110C9440110C9440110C9440CD20
:100060000C9440110C9446790C941C790C9440111A
:100070000C9440110C9440110C9440110C944011BC
:100080000C9440110C9440110C9440110C944011AC
:100090000C94687A0C94DE790C94207A0C94588E27
:1000A0000C9440110C9440110C9440110C9440118C
:1000B0000C9440110C9440110C9440110C9440117C
:1000C0000C9440110C9440110C9440110C94E6785F
:1000D0000C94BC780C9440110C9440110C94401179
:1000E0000C94401107634236B79BD8A71A3968565B
:1000F00018AEBAAB558C1D3CB7CC5763BD6DEDFD4A
:10010000753EF6177231BF000000803F0800000006
:10011000BE922449123EABAAAA2ABECDCCCC4C3EFC
:1001200000000080BEABAAAAAA3E00000000BF00EB
:100130000000803F0000000000084178D3BB4387E7
:10014000D1133D190E3CC3BD4282AD2B3E68EC82FB
:1001500076BED98FE1A93E4C80EFFFBE01C4FF7F80
:100160003F00000000000C94BF220C94CB220C94A2
:1001700041830C94FD6D0C94AF210C9446C20C94F9
:1001800060C10C944A740C9493C10C94A4210C94F7
:10019000C21E0C941F750C9456740C9447180C9442
:1001A000556F0C94B06D0C94363A0C94E1700C942D
:1001B000D89D0C94095D0C94EF1D0C94BB7C0C94A1
:1001C00092110C94576C0C9494A20C94A4740C94FB
:1001D0008C1D0C94AB1B0C94A44A0C94CD6B0C940A
:1001E0003D6D0C948F840C945D7C0C9466720C9421
:1001F000E36E0C9498910C9467BA0C94F5180C94D7
:1002000076110C945AC20C94EB3D0C9497640C94A8
:10021000D0110C94E1210C94F7E40C940A120C9484
:10022000121C0C94CA110C94E1C80C9452740C94D6
:1002300063C10C946C840C9403700C9437840C94FC
:10024000C83D0C94EA720C94F44B0C94335E0C94FD
:1002500054740C9436210C947F6C0C9495570C9428
:10026000106D0C9401700C948DBB0C94EF160C94D3
:10027000BFC20C9469760C945E1D0C943B6F0C9479
:100280009A900C946C120C944C740C9420280C943E
:1002900041C20C9479110C948D300C94FB720C9427
:1002A000C1270C94E01D0C94FA2D0C9409710C9448
:1002B000D11D0C9404780C9420210C94713A0C9468
:1002C000AB6E0C9441630C94D71D0C94DFAE0C9470
:1002D000F74B0C945E6E0C94C5210C94516F0C94EA
:1002E00086990C949B1D0C9445830C94674B0C943D
:1002F000A03D0C94B5700C94BC110C94A8740C9493
:10030000BF1B0C94031C0C944E740C94656F0C94DE
:10031000C8270C9447AE0C9474BB0C94D3110C9466
:1003200085990C94D3C20C949C4B0C9426280C9465
:10033000FB6B0C94FFA70C949E640C9484890C9422
:100340008A6E0C94B0700C94EE1C0C9403210C94E7
:1003500080110C94AA640C94312B0C94B5C20C94AB
:100360001D210C94B1220C942E280C9442230C9441
:10037000F56E0C94966F0C94A1C20C94BBBB0C94BC
:10038000D9700C94761C0C94E4C80C946E6D0C948B
:1003900085C10C9430130C94AC250C94EA4A0C944F
:1003A00086720C94061C0C9464270C942C1D0C94DF
:1003B00073110C94FA4B0C94141B0C944C6D0C940C
:1003C00023280C94C6220C94704A0C9428180C9480
:1003D000DB1F0C94FB750C942C700C947B220C94FA
:1003E00088700C9444220C94F4110C94D4710C94E5
:1003F000ABAF0C9450190C94D6700C94D2BB0C94E7
:10040000EA770C94F47C0C94FD9E0C94B5C80C9483
:10041000511B0C94DE910C94BD870C94DAAE0C94B5
:1004200070110C94F3140C94F81B0C9446130C9458
:10043000806F0C9467800C94872C0C9439590C9421
:1004400050C20C949A120C946D6E0C942C4B0C941C
:1004500088990C942C7C0C9420220C9412700C948F
:10046000861E0C9410220C94F7840C94CD690C9485
:1004700092C20C94DE700C94ED700C943D7C0C9444
:100480000CE50C948FC10C9462230C94C9C20C949B
:100490004E4B0C94EAAA0C943B710C94726C0C9425
:1004A000377E0C949E720C94FC6E0C94776F0C94B7
:1004B00089B60C94F51B0C94D21B0C94EB490C944C
:1004C00074C20C94A31D0C949A6A0C94FC800C9436
:1004D0003BAE0C9442110C94606D0C94CE110C94B4
:1004E00059700C946DC10C946D270C941D6E0C9476
:1004F00025700C94A26F0C9464C20C94F0210C949F
:10050000B4C80C94E8200C94EE210C94BBA60C9477
:1005100008230C940C800C94467C0C9469C10C94B8
:10052000574A0C94922A0C94ABC20C941C730C94F2
:100530007F6F0C9481C10C94DB220C94B2110C944B
:1005400039C20C94CF2E0C94533A0C944F6B0C94EC
:10055000133E0C948A760C94C8770C94953A0C94BC
:10056000B61E0C9485220C94C01F0C94842A0C9403
:100570007BBB0C9467270C945CC10C9446120C94C2
:100580009CBB0C946C6F0C941A710C945B1F0C94B4
:1005900024800C947BC10C94AA1D0C94AA1E0C946C
:1005A000D14A0C94F51E0C94711F0C941B4C0C94A6
:1005B000F0640C9489C10C9458C10C94D2740C94BE
:1005C00024570C944EC10C94876A0C94AF2A0C9457
:1005D000EFAE0C94C19A0C941E840C94F6AE0C945D
:1005E0008EC10C946D2A0C9450740C94CA1D0C94FA
:1005F00029280C947EC20C9446260C945A220C9402
:10060000043E0C94AD830C94C4170C9477C10C94E5
:10061000F2700C9496700C9473C10C94611D0C9440
:1006200040710C94BC2A0C940B230C94F48F0C9402
:10063000F9870C94473E0C946CC20C945A180C9495
:10064000BF690C94A97C0C94A06F0C94DA6B0C9489
:1006500026810C945E3D0C94E71C0C9454C10C94C0
:10066000203E0C94BB1C0C9488C20C944B9E0C94A2
:10067000C5840C9402700C942B6F0C942F6F0C9407
:10068000831D0C94659D0C9487990C94B96E0C9401
:10069000E91B0C94BA3A0C94214A0C94C76B0C9445
:1006A000DD800C947C2A0C94DC220C949F220C9408
:1006B000E3AE0C9459120C94F72D0C94AC740C947A
:1006C0000C710C94F71F6364696E6F7073757858C2
:1006D0005B00556E6B6E6F776E207375666669781A
:1006E0002000556E6B6E6F776E20636D6420006323
:1006F0006C724374723A20002F00496E3A20003D1C
:1007000000494E3A003D004C454741435920494E6F
:100710003A00000020002300260029002C002F00B2
:100720003200000100000301060109012D3E0020F6
:100730000023002D3E00200050656E6465643A2061
:1007400023007261770076616C0074656D700073D0
:100750006174006875650066616E0052474200482A
:100760005356006D6F646500536574436D643A00C1
:1007700053746F726564204558543A007375666609
:100780006978436F64653A00584F4E0048414C54B5
:10079000002074696D653A004374726C2052657371
:1007A0003A002054533A0020543A003D0050696EFC
:1007B0003A004F4E3A416C7265616479204163742E
:1007C0006976650A0048414C543A416C726561642F
:1007D0007920496E6163746976650A00584F4E3A14
:1007E000416C7265616479204163746976650A00C1
:1007F000584F464620736B69707065642E205072A6
:10080000657620636D643A005475726E6564206F7E
:1008100066662066726F6D3A00526573746F72651A
:10082000642066726F6D3A0049676E6F7265642C62
:10083000206368616E6E656C20636D643D002045C9
:100840007865633A004163746976653A0048414CC3
:10085000543A416C726561647920496E61637469D0
:1008600076650A00584F4E3A416C72656164792092
:100870004163746976650A00584F464620736B6978
:10088000707065642E205072657620636D643A0046
:100890005475726E6564206F66662066726F6D3A7D
:1008A00000526573746F7265642066726F6D3A00F2
:1008B0004E6F7420656E6F756768206D656D6F7221
:1008C0007920666F722067726F7570206F70657225
:1008D0006174696F6E00206D73203A0041726D651E
:1008E0006420666F7220002044697361726D6564D4
:1008F00000536B697070656420686F6D6965207363
:1009000074756666004F75744F664D656D6F7279CC
:10091000210A0020436D643A00205375623D002097
:100920004974656D3D0052414D3D00282D29200040
:10093000282B2920002076616C75652069732000C2
:1009400020756E6B6E6F776E0A005D3D005B002058
:10095000696E76616C6964002000206F6B003A005C
:10096000206661696C6564003A0052657472796949
:100970006E67206D6F6462757320434D440A004DAD
:100980006F6462757320706F6C6C696E672065723E
:10099000726F723D002056616C3A20004D423A2041
:1009A000004E6F7420737570706F7274656420727E
:1009B000656720747970650A00496C6C6567616CC5
:1009C00020617267756D656E74730A004D6F6462A5
:1009D000757320706F6C6C696E67206572726F72D0
:1009E0003D002D002050492056616C203A004D6F8B
:1009F0006462757320706F6C6C696E6720657272CB
:100A00006F723D002D0020464D2056616C203A004B
:100A1000207365632072656D61696E696E6700534E
:100A200074617475732064656666657265640A0036
:100A30002D3E005075623A2000636D640046414EC1
:100A40005F4F4E4C590044525900434F4F4C0048A1
:100A5000454154004155544F002D3E005075623AB7
:100A600020007365740064656C002D3E0050756253
:100A70003A20002D3E005075623A2000556E6B6E94
:100A80006F776E20636D64200A004F4646004F4E1C
:100A9000004D6F64627573206F70206661696C65CC
:100AA000643A004D42206F6B003D00564323002006
:100AB000636D643D003D0056435F686561742300CB
:100AC0004E6F7420737570706F72746564207265F8
:100AD0006720747970650A002056616C3A3078009E
:100AE00020543A00205265673A30780041646472BD
:100AF0003A0020002D3E00436F6E76657274696E79
:100B00006720002D3E0057726F6E67204173736936
:100B1000676E6D656E742000524742783A2000205F
:100B2000764C6576656C3A0020436F6E76563A00D7
:100B300020436F6E76533A0020486F743A00436F3B
:100B40006C643A0020436F6E76657274656420565B
:100B50003A00436F6E76657274656420533A002DD7
:100B60003E0057726F6E672041737369676E6D65E3
:100B70006E7420002D3E0057726F6E6720417373B4
:100B800069676E6D656E74200053617665643A0026
:100B900020537566663A002041543A00436F6D70E9
:100BA0006C6574652E2052656D6F766520746F706C
:100BB0006963200024636F6D6D616E6400536B691F
:100BC0007070696E672E2E00436C65616E557020E3
:100BD00072657461696E656420746F70696320006A
:100BE0004F75744F664D656D6F727921005D200001
:100BF0003A5B000A003A004D41433A005544502008
:100C00005379736C6F6720696E697469616C697A76
:100C100065642E0A005379736C6F6720706172618E
:100C20006D733A002E6C6F63616C00536572766968
:100C30006365207265636F72643A20006D444E53A1
:100C400020726573706F6E64657220737461727464
:100C500065642E004572726F722073657474696EDC
:100C600067207570204D444E5320726573706F6E0F
:100C70006465722100476F7420495020616464727A
:100C80006573733A00276970205B69705B2C646E32
:100C9000735B2C67775B2C7375626E65745D5D5D4D
:100CA0005D27202D2073657420737461746963203F
:100CB00049500A004661696C656420746F20636F57
:100CC0006E6669677572652045746865726E6574D5
:100CD000207573696E6720444843502E20596F7504
:100CE0002063616E20736574206970206D616E757C
:100CF000616C6C7921000A75736573204448435018
:100D00000A00204D41534B3A002047573A002044F7
:100D10004E533A004C6F616465642066726F6D20BB
:100D2000666C6173682049503A005374617274694B
:100D30006E67206C616E00246E6F646573004F4EA9
:100D40002C4F46462C48414C542C524553542C5859
:100D50004F4E2C584F46462C544F47474C45002485
:100D6000666F726D617400656E756D0024646174E8
:100D700061747970650068737600636F6C6F7200E0
:100D8000302D32353500696E746567657200666CAA
:100D90006F617400332E302E310024686F6D6965E9
:100DA00000757074696D652C667265656865617043
:100DB00000323062646261635F323032322D303231
:100DC0002D3134004C696768744875622000246EC8
:100DD000616D6500726561647900546F6F206D61AB
:100DE0006E79204D51545420636F6E6E6563746943
:100DF0006F6E206572726F72732E2052657374610C
:100E00007274204C414E00207472792061676169D0
:100E10006E20696E2035207365636F6E64730066A3
:100E200061696C65642C2072633D0041776169746F
:100E3000696E6720666F722072657461696E6564A1
:100E400020746F7069637300636F6E6E65637465A1
:100E5000642061732000202E2E2E00207573657291
:100E60003A003A000A417474656D7074696E6720C7
:100E70004D51545420636F6E6E656374696F6E20BC
:100E8000746F200024737461746500646973636F08
:100E90006E6E6563746564005573696E67204D51AD
:100EA00054542070617373776F72642066726F6D33
:100EB00020636F6E666967002E6C6F63616C006DF6
:100EC000444E53206E616D65207570646174656475
:100ED0003A2000446576696365204E616D653A008D
:100EE0004174206C65617374206465766963652064
:100EF0006E616D6520616E642062726F6B65722039
:100F00004950206D75737420626520636F6E666949
:100F1000677572656400526562696E6420737563FB
:100F2000636573732E204950206164647265737326
:100F30003A004572726F723A20726562696E64207F
:100F40006661696C0052656E6577656420737563D0
:100F5000636573732E2049502061646472657373F6
:100F60003A004572726F723A2072656E65776564F9
:100F7000206661696C000A4E6F206C696E6B0052CE
:100F80006573746F72696E6720636F6E6669672040
:100F900066726F6D20454550524F4D004163636549
:100FA0007074696E6720636F6D6D616E64732E2E51
:100FB0002E0A004E6F204D51545420636F6E6669A7
:100FC0006775726564004C6F6164696E6720636F5A
:100FD0006E6669672066726F6D20706F7274616CE7
:100FE0002064697361626C65642E20757365206787
:100FF0006574204F4E20746F20656E61626C6500D1
:10100000436F6E6669672069732076616C6964005E
:10101000436F6E74696E75652077697468207072AD
:101020006576696F75736C79206C6F616465642097
:10103000636F6E666967003E003C00543A0043757A
:101040007272656E74204C414E20636F6E666967E4
:101050002869702C646E732C67772C7375626E65CB
:1010600074293A000A5573652074686573652063B6
:101070006F6D6D616E64733A202768656C70272010
:101080002D207468697320746578740A276D616314
:101090002064653A61643A62653A65663A66653A23
:1010A0003030272073657420616E642073746F7212
:1010B00065204D41432D6164647265737320696ED0
:1010C00020454550524F4D0A276970205B69705B7F
:1010D0002C646E735B2C67775B2C7375626E657422
:1010E0005D5D5D5D27202D207365742073746174D0
:1010F00069632049500A277361766527202D207384
:101100006176652063757272656E7420636F6E66BA
:10111000696720696E204E5652414D3B204F4E7CF0
:101120004F4646202D20656E61626C652F646973A1
:1011300061626C65206175746F736176650A2767FB
:10114000657427205B636F6E6669672061646472F3
:101150005D27202D2067657420636F6E66696720A8
:1011600066726F6D207072652D636F6E666967754C
:101170007265642055524C20616E642073746F72E6
:101180006520616464722C204F4E7C4F4646202DB2
:1011900020656E61626C652F64697361626C6520A5
:1011A000646F776E6C6F6164206F6E207374617210
:1011B0007475700A276C6F616427202D206C6F6135
:1011C0006420636F6E6669672066726F6D204E568D
:1011D00052414D0A2770776427202D206465666987
:1011E0006E6520616E642073746F7265204D51547A
:1011F000542070617373776F72640A276F74617023
:10120000776427202D20646566696E6520616E64B1
:101210002073746F72652048545450204150492007
:1012200070617373776F72640A276C6F67205B73EA
:10123000657269616C5F6C6F676C6576656C5D206B
:101240005B7564705F6C6F676C6576656C5D27209D
:101250002D20646566696E65206C6F67206C65760D
:10126000656C2028302E2E37290A276B696C6C2775
:10127000202D2074657374207761746368646F67D0
:101280000A27636C65617227202D20636C6561728B
:1012900020454550524F4D0A277265626F6F742783
:1012A000202D207265626F6F7420636F6E74726F91
:1012B0006C6C657200536F6674207265626F6F7438
:1012C000696E672E2E2E0052414D3D000A537973F0
:1012D0006C6F6720000A312D7769726520000A6DF6
:1012E00071747420000A6D6F646275732076320029
:1012F0000A6D6F6462757320763120282B29000AED
:10130000696E7075747320000A6974656D732000CE
:101310000A436F6E666967757265643A00204164BE
:1013200064723A00646576230009445332343832DB
:10133000206572726F720009526573657420646F64
:101340006E650009436865636B696E6720666F723E
:1013500020312D5769726520646576696365732E47
:101360002E2E004453323438322D313030207072FA
:101370006573656E74004572726F7220312D77202F
:10138000696E697420233220467265653A0077736E
:101390007461742E20467265653A005465726D2E34
:1013A00020467265653A004572726F7220312D7762
:1013B00020696E697420233100467265653A0044E5
:1013C00053323438325F3130305F4932435F544FEB
:1013D0005F31575F42524944474520696E69740046
:1013E000444D584F75742E20467265653A00444D41
:1013F00058696E2042756666657220616C6C6F6319
:101400002065727200496E697420696E2063683AC3
:10141000003B003D0050696E3A003B003D4C4F5789
:1014200000546865726D6F3A004F6E65207769727F
:10143000652052656164790A00467265653A004428
:101440004D58206F757420737461727465642E201A
:101450004368616E6E656C733A2000444D58206994
:101460006E20737461727465642E204368616E6EC1
:10147000656C733A004170706C79696E6720636FB8
:101480006E666967004C6F6164656420455441472E
:101490003A004E6F2073746F72656420636F6E66DE
:1014A0006967004C6F616465642066726F6D2045EA
:1014B0004550524F4D006C6F6164206661696C65E8
:1014C00064004C6F6164696E6720436F6E66696784
:1014D0002066726F6D20454550524F4D00436F6E30
:1014E000666967206175746F736176653A000A53A7
:1014F00079736C6F67206465627567206C657665CB
:101500006C3A0053657269616C206465627567208E
:101510006C6576656C3A0053617665640A005365C4
:10152000742064796E616D69632049500A004545F5
:1015300050524F4D20636C65617265640A004D51D5
:1015400054542050617373776F72642075706461B6
:101550007465640A004F54412050617373776F7251
:101560006420757064617465640A00636F756C64EF
:10157000206E6F742070617273653A20005570643C
:10158000617465640A004E6F204950206164726581
:1015900073730052656C656173696E6720736F6366
:1015A0006B657420616E64207265747279002053DB
:1015B00061766564004C6F6164696E6720485454BD
:1015C0005020636F6E666967206F6E20737461725E
:1015D0007475703A004F4646004F4E002B002D00A8
:1015E000455461673A200047657420455441473AA5
:1015F0002000485454502F312E3120256900257386
:101600003A2025730D0A0020485454502F312E31B2
:101610000D0A486F73743A2025730D0A41636365A0
:1016200070743A202A2F2A0D0A436F6E6E65637418
:10163000696F6E3A20636C6F73650D0A0025730045
:1016400020000D0A00474554006661696C656420FE
:10165000746F20636F6E6E6563740A004552524F5B
:10166000523A205365727665722072657475726E97
:1016700065642000436F6E666967206E6F74206337
:1016800068616E6765640A00446F6E652E0A0043E8
:101690006F6E6669672070617273696E672066613C
:1016A000696C65640A00676F7420436F6E666967D2
:1016B0000A00667265652000436F6E666967205593
:1016C00052493A20687474703A2F2F00204465669E
:1016D00061756C7420636F6E6669672073657276DE
:1016E000657220757365643A20006C617A79686F61
:1016F0006D652E7275000A282B294D554C5449569C
:10170000454E54000A282B2950574D5F52454C41F5
:1017100059000A282B294D444E53000A282D2955DB
:10172000415254425249444745000A282B295359F3
:10173000534C4F47000A282B29504944000A282DB2
:10174000294D43503233303137000A282D29415278
:10175000544E4554000A282D294F5441000A282D83
:1017600029535049204C4544000A282D294D4F54F7
:101770004F5220435452000A282D2941432048410A
:10178000494552000A282D29434353383131202638
:101790002048444331303830000A282B2952455321
:1017A000544152545F4C414E5F4F4E5F4D51545423
:1017B0005F4552524F5253000A282D294841524446
:1017C00052455345542C207573696E6720736F66BC
:1017D00074000A282D29434F554E544552000A28BB
:1017E0002D29444854000A282B29445332343832D6
:1017F0002D313030000A282B294F57495245000A15
:10180000282B294D4F4442555320307830362061E3
:10181000742053657269616C322073706565643A37
:1018200039363030000A282B294144414652554967
:1018300054204C4544000A282B29444D58000A28BE
:101840002B2957697A6E657435313030000A282BA0
:10185000294672656552616D207072696E74696E99
:1018600067000A282B295741544348444F47006CCE
:10187000617A79686F6D652E7275000A436F6E66C6
:101880006967207365727665723A003230313130A3
:10189000334C0020432B2B2076657273696F6E3AB0
:1018A00000323062646261635F323032322D303236
:1018B0002D3134000A4C617A79686F6D652E72752E
:1018C000204C6967687448756220636F6E74726F2C
:1018D0006C6C65722000204F464600204F4E002061
:1018E00042595041535300757074696D65006672BA
:1018F00065656865617000247374617473002054B9
:10190000696D65723A00204C6F636B733A0020007A
:10191000204C6F636B733A000A52414D3D002045E5
:101920007870697265640A00202D7461726765744D
:10193000207A6F6E652D0020416C61726D204578B4
:1019400070697265640A0020636D643A0020437513
:10195000723A00205365743A0053617665642074CE
:101960006F20454550524F4D00536176696E672098
:10197000636F6E66696720746F20454550524F4D06
:101980002E2E00206973200044656C6574696E67B3
:1019900020636F6E662E2052414D207761733A00AE
:1019A00053746F707065640053746F7070696E6704
:1019B000206368616E6E656C73202E2E2E004E6F54
:1019C0007420756E6C6F636B656420696E203130B6
:1019D00073202D20636F6E74696E7565202E2E2E18
:1019E00000556E6C6F636B696E6720636F6E66691E
:1019F00067202E2E2E00444D582D4F757420496EB1
:101A000069743A2000444D582D4F75742073746FDB
:101A1000703A200041737369676E65643A00444D03
:101A200058206374726C3A200044656661756C746A
:101A30002073657269616C206D6F6465204E38316A
:101A4000207573656400384531002600384E31003A
:101A50000600384532002E00384E32000E00384F56
:101A600031003600384F32003E0037453100240047
:101A7000374532002C00374F31003400374F3200E9
:101A80003C00374E31000400374E32000C00203D40
:101A90003E004D6F646275732074656D706C617487
:101AA00065206E6F7420666F756E643A2000496E13
:101AB00076616C69642074656D706C6174652E006C
:101AC0002C002C002C002C004D4255533A20636F03
:101AD0006E666967206661696C65643A004D6F6483
:101AE00062757320636F6E666967206572726F72CC
:101AF000004D6F6462757320636F6E666967206C5A
:101B00006F6164656420004D4255533A204F7574EF
:101B1000206F66206D656D6F7279004D4255533AA6
:101B200020506F6C6C696E67206572726F72200056
:101B300069313600016933320002753136000375B0
:101B400033320004693868000569386C000675385E
:101B500068000775386C000878313000094164640A
:101B60002040533A20003A002066726F6D20004DED
:101B70004220676F742000656E64506F6C6C2000AB
:101B80002D2D2D00506F6C6C20004D756C746956B6
:101B9000656E7420636F6E666967206661696C6547
:101BA00064004D756C746956656E7420696E697455
:101BB000004D756C746976656E742044652D496EB0
:101BC000697400204F75743A00206D3300206672EE
:101BD0006F6D2000204D617820726571756573749A
:101BE0003A002066616E253A00206163746976656B
:101BF00020563A00546F74616C20563A00504944A4
:101C000020616C726561647920696E697469616CC8
:101C1000697A656400496E76616C69642050494454
:101C200020706172616D2061727261792E002C00EA
:101C30002C002C002C005049443A20636F6E6669DA
:101C400067206661696C65643A0050494420636F9F
:101C50006E666967206C6F6164656420005049445A
:101C600020636F6E666967206572726F72005049FB
:101C7000443A204F7574206F66206D656D6F7279E0
:101C80000020416C61726D0020443A0020493A0006
:101C900020503A0020696E3A00207365743A005073
:101CA00049442000496E76616C69642050494420A3
:101CB000706172616D2061727261792E00205049ED
:101CC0004420616C61726D3A20636C6F73656400CF
:101CD000556E6B6E6F776E2073756666697820003F
:101CE000556E6B6E6F776E20636D64200053657464
:101CF000706F696E743A00496E7075742076616C0D
:101D000075653A00536574206F757420746F2000F8
:101D10002050494420616C61726D2E200020696E54
:101D200069740050574D2D4F757420230020737433
:101D30006F700050574D2D4F75742023003D00509B
:101D4000696E3A0020696E69740052656C61792D84
:101D50004F75742023002073746F700052656C619E
:101D6000792D4F75742023003D3E003A0070756256
:101D700020616374696F6E200069646C65006F6632
:101D8000660068656174696E670066616E00647202
:101D900079696E6700636F6F6C696E6700206973A5
:101DA00020004F75742000556E6B6E6F776E207338
:101DB00075666669782000556E6B6E6F776E20636E
:101DC0006D642000616374696F6E0072656C617987
:101DD0004374723A200020416464723A006465766C
:101DE000230020616C69766500204E6F64653A00BF
:101DF000312D7769726520636F756E743A200031FA
:101E00002D776972652073686F72746564005B304A
:101E10005D3A2000202D202D202D20EFBBBF003E5D
:101E2000003E31202D200020002E00696E00735FDF
:101E30006F7574006D79686F6D6500202D3E200010
:101E4000456D69743A2000202D3E20004974656D6F
:101E5000436D643A2000202D3E20004974656D3AA0
:101E60002000005EBCE2613FDD83C29C7E20A3FDBA
:101E70001F419DC3217FFCA2401E5F01E3BD3E6068
:101E800082DC237D9FC1421CFEA0E1BF5D0380DE9A
:101E90003C62BEE0025CDF81633D7C22C09E1D434C
:101EA000A1FF4618FAA427799BC584DA3866E5BBFA
:101EB0005907DB856739BAE406581947A5FB782628
:101EC000C49A653BD987045AB8E6A7F91B45C6985A
:101ED0007A24F8A6441A99C7257B3A6486D85B050C
:101EE000E7B98CD2306EEDB3510F4E10F2AC2F71BA
:101EF00093CD114FADF3702ECC92D38D6F31B2ECE8
:101F00000E50AFF1134DCE90722C6D33D18F0C5219
:101F1000B0EE326C8ED0530DEFB1F0AE4C1291CFCB
:101F20002D73CA947628ABF517490856B4EA693779
:101F3000D58B5709EBB536688AD495CB2977F4AAA7
:101F40004816E9B7550B88D6346A2B7597C94A14D9
:101F5000F6A8742AC896154BA9F7B6E80A54D7898B
:101F60006B35436F6E6E65637465642E00436F6EF0
:101F70006E2E2061626F72746564003E3E200049DF
:101F80006E76616C696420636F6D6D616E64003E96
:101F90003E3E004E6F204D414320636F6E66696781
:101FA000757265643A20736574206669726D776135
:101FB00072652773204D41430A004E6F2076616C95
:101FC000696420454550524F4D20646174612E2054
:101FD000496E697469616C697A696E672E000000E8
:101FE0002200250028002B002E00310034000201C1
:101FF0000000050108010B0100000A0B02090C0D8D
:102000000E080703040100000000000000000000AB
:1020100000000000000000000000000000000000C0
:10202000000000001211100000000000000000007D
:1020300000000000000000000000000000000000A0
:102040002100240027002A002D0030003300010168
:102050000000040107010A010102102020080810F5
:102060002040102040800201020108040201010208
:1020700004081020408080402010080402018004E1
:10208000020180402010080402010804020101023C
:10209000040810204080010204081020408005053B
:1020A0000505070508080808020202020A0A0808CE
:1020B00004040404010101010101010103030303FC
:1020C00003030303040707070C0C0C0C0C0C0C0C8B
:1020D0000202020206060606060606060B0B0B0B9C
:1020E0000B0B0B0B0000000000000000004F4E0027
:1020F0000000000000004F464600000000000052B3
:102100004553540000000000544F47474C45000021
:102110000048414C540000000000584F4E000000A1
:10212000000000584F46460000000000494E435250
:1021300045415345004445435245415345004845B8
:1021400041540000000000434F4F4C0000000000CD
:102150004155544F000000000046414E5F4F4E4C29
:10216000590044525900000000000053544F5000E1
:10217000000000004849474800000000004D454469
:1021800049554D0000004C4F57000000000000541E
:10219000525545000000000046414C5345000000E8
:1021A00000454E41424C4544000044495341424C95
:1021B00045440052474200000000000048535600CA
:1021C000000000000057726F6E67207061796C61CB
:1021D0006400202D3E2041543A004368616E207413
:1021E0007970653A004E6F2073746F726564207663
:1021F000616C756573202D2064656661756C743A39
:102200002000536176656420455441473A00536588
:102210007420455441473A2000000CE5F7E41124AE
:102220001FBECFEFD1E2DEBFCDBF00E00CBF17E095
:10223000A0E0B2E0EEE9F5EF01E00BBF02C00790CD
:102240000D92A03BB107D9F72EE0A0EBB7E001C09B
:102250001D92A33AB207E1F711E1CEE0D1E100E02F
:1022600006C021970109802FFE010E9479F5CD302B
:10227000D10780E00807A9F70E948EE80C94BDFA08
:102280000C940000FC01848195810895FC01A481D7
:10229000B581109721F118969C9118979F708EEF39
:1022A000890F823010F091111AC019964D935D93E9
:1022B0006D937C931C97A481B58118969C91189777
:1022C000907F926018969C930480F581E02D808524
:1022D000982F907F903619F48F70806A80870895C8
:1022E00081E090E0089587E090E008958AE090E032
:1022F0000895DC01ED91FC91008CF18DE02D199495
:10230000CF93DF93EC01E881F9810484F585E02D1A
:10231000199529893A892F5F3F4F3A8B298BDF9195
:10232000CF910895CF93DF93EC018E8581110DC07D
:1023300081E090E049895A892C853D8542175307F1
:1023400008F080E0DF91CF910895E881F98104845D
:10235000F585E02DCE0119958F3F910549F780E075
:1023600090E0F0CFFC01848595856817790708F423
:10237000CB01928B818B0895DC011E962C911E97C8
:10238000222339F0ED91FC910190F081E02D6FEF67
:1023900019940895FC0187859089089581E0089536
:1023A00090E080E00895FC0122813381232B49F0E5
:1023B000868197818130910539F01CF0039703974E
:1023C00030F090E080E0089581E090E0089582E0B0
:1023D00090E008956CED75E1811102C06EED75E13C
:1023E00088ED9CE00C9400D265EB72E188ED9CE0F6
:1023F0000E9400D2F0E0E0E0199584EF91E00895AA
:1024000060E379E0811102C06BE279E089E89DE048
:102410000C9400D2CF93DF93EB010297A4F169ED06
:1024200075E18A819B810E944FEC892B29F40E94DF
:1024300024CF6F770E94C9BD65ED75E18A819B81CC
:102440000E944FEC892B29F40E9424CF60680E94DF
:10245000C9BD6DED74E188ED9CE00E9400D20E9440
:1024600024CF6095661F6627661F70E088ED9CE0AC
:102470000E9428D188ED9CE00E94EBCF88EC90E090
:10248000DF91CF9108950E948999F8CF892B71F03F
:10249000FB01828193810E9495D165E575E188ED0C
:1024A0009CE00E9400D288EC90E0089590E080E0EB
:1024B000F2CF892B71F0FB01828193810E9438D188
:1024C0006EE375E188ED9CE00E9400D288EC90E01C
:1024D000089590E080E0F2CF8091B50C9091B60C19
:1024E000892B51F00E94A5D2882331F06EE275E16C
:1024F00088ED9CE00E9400D21092D50C1092D40C72
:1025000080E090E19093D00C8093CF0C84E890E031
:102510009093D70C8093D60C81E08093D10C83EC00
:102520009CE00E94BC1183EC9CE00E94791188EC35
:1025300090E00895EF92FF920F931F93CF93DF9354
:10254000CDB7DEB72C970FB6F894DEBF0FBECDBF68
:102550008C017B0185EC94E09A8389831B821C8229
:102560001D821E8298878F8319861A861B861C8679
:1025700005301105ECF0BE01695F7F4FF7018085E2
:1025800091850E940C95892B99F0CE0107960E94A7
:102590009ABCBE01695F7F4FF701868197810E94D7
:1025A0000C95892B61F0CE0107960E9464BD0EC088
:1025B000CE0101960E949ABC0430110554F7CE0159
:1025C00001960E9464BD033011058CF1BE01695F64
:1025D0007F4FF701848195810E940C95892B39F1F9
:1025E000CE0107960E94FFBCBE01695F7F4FF701D5
:1025F000828193810E940C95892B01F1CE0107966F
:102600000E9435BC67E175E188ED9CE00E9400D234
:1026100088EC90E02C960FB6F894DEBF0FBECDBFCD
:10262000DF91CF911F910F91FF90EF900895CE0110
:1026300001960E94FFBC02301105B4F6CE0101964E
:102640000E9435BC01301105E9F6CE0101960E94C9
:1026500035BC6EE175E188ED9CE00E9400D2D2CFDE
:10266000CF93C1E068EE73E080E090E00E940DC47B
:102670004AE050E06C2F88ED9CE00E9401D0CF5FD3
:10268000C43181F784EF91E0CF9108950F931F93A8
:10269000CF93DF938C01EB010297C4F08A819B8179
:1026A0000E9428EC8093090299270E9478CF02307B
:1026B000110549F08C819D810E9428EC80930802CD
:1026C00099270E9482CFC8ECD0E002C0C0E9D1E0D7
:1026D00063E075E188ED9CE00E9400D24AE050E0A2
:1026E0006091090288ED9CE00E9401D06EEE74E1D9
:1026F00088ED9CE00E9400D24AE050E06091080220
:1027000088ED9CE00E9401D088ED9CE00E94EBCF18
:10271000CE01DF91CF911F910F910895009789F01D
:10272000FC0120852F70253061F40E9418BB0097B2
:1027300041F0FC0120852F70243019F481859285A9
:10274000089590E080E00895CF93DF93EB0163E07C
:10275000FC01808191810E9418BBFC01892BA9F0AA
:1027600080858D7091F4C095D095CF6FAE0170E0EB
:1027700060E081859285A385B4858C239523A6236B
:10278000B72381879287A387B487DF91CF9108957C
:10279000CF93DF93EB0163E0FC01808191810E9484
:1027A00018BBFC01892BB9F09085892F8D7099F4A5
:1027B000907F92609087CC27CE01B0E0A0E0418569
:1027C000528563857485842B952BA62BB72B818727
:1027D0009287A387B487DF91CF910895CF93DF933A
:1027E000EB0163E0FC01808191810E9418BB00979E
:1027F00061F0FC0120852F70223039F481859285AB
:102800008C239D23DF91CF91089590E080E0FACF53
:10281000CF93C62F63E0FC01808191810E9418BB99
:10282000FC01892B29F19085892F8D7009F5907F06
:102830009260908781859285A385B4858827AA2791
:10284000BB278C2B81879287A387B48768E677E0C4
:1028500089E89DE00E9400D24AE050E06C2F89E8B0
:102860009DE00E9401D089E89DE0CF910C94EBCFD0
:10287000CF9108958F929F92AF92BF92CF92DF92A5
:10288000EF92FF920F931F93CF93DF93E091CF09C5
:10289000F091D009309709F467C0812EF02E932E65
:1028A000C22EA52ED42EB72EE62EBC01CF010E943B
:1028B00069BAEC01892B19F481E090E057C0888552
:1028C0008F708530C9F760E0CE010E9418BB8C0183
:1028D00061E0CE010E9418BBFC01C185D285D80100
:1028E00019962D913C912130310561F13CF46F2D09
:1028F000CE01232B09F70E945689DECF2230310505
:1029000031F127303105C1F6892BB1F280858F7006
:10291000853091F6C681D781209771F288858F70B6
:10292000843061F40F2D182D2C2D392D4D2D5A2D5D
:102930006E2D7B2D89859A850E943A140A80DB8151
:10294000C02DEACF6F2DCE0103960E9456896E2DC1
:10295000CE010E9456896D2DCE0101960E945689A6
:102960006C2DCE010296C7CF90E080E0DF91CF9131
:102970001F910F91FF90EF90DF90CF90BF90AF909D
:102980009F908F900895CF92DF92EF92FF920F93D6
:102990001F93CF93DF93E0912E08F0912F0830978B
:1029A000C9F090859F709530A9F469017A01EB0117
:1029B000682FCF010E9418BBFC0190859F70943056
:1029C00049F481859285009729F09601A701BE01FF
:1029D0000E943A14DF91CF911F910F91FF90EF90D9
:1029E000DF90CF9008950F931F93CF93DF9300D084
:1029F00000D0CDB7DEB70E94029F6EE370E188ED94
:102A00009CE00E9400D2CE0101960E946ABFCE01D6
:102A100001960E94B69405EC14E01A830983809114
:102A2000F10A9091F20AA091F30AB091F40A8B8313
:102A30009C83AD83BE83CE0101960E94B6941A8317
:102A400009831B821C821D821E8280E590E00E9409
:102A500067BF44E050E0BE016D5F7F4F81E090E0D2
:102A60000E94ED7E0E94E47FCE0101960E94B69402
:102A70001A8309831B821C821D821E8280E590E0DE
:102A80000E9467BF44E050E0BE016D5F7F4F85E06C
:102A900090E00E94ED7E0E94E47FCE0101960E94AC
:102AA000B69464E670E188ED9CE00E9400D288EC68
:102AB00090E026960FB6F894DEBF0FBECDBFDF9133
:102AC000CF911F910F910895CF92DF92EF92FF92D5
:102AD0000F931F93CF93DF93CDB7DEB7C154D109C6
:102AE0000FB6F894DEBF0FBECDBF6C01AB0130E076
:102AF00020E060E4CE0101967C010E942294F7015F
:102B000001900020E9F731978F010E191F09A801E4
:102B1000B701C6010E9406FA892B11F010E000E00F
:102B2000C801CF5BDF4F0FB6F894DEBF0FBECDBF3D
:102B3000DF91CF911F910F91FF90EF90DF90CF9099
:102B40000895CF92DF92EF92FF920F931F93CF934E
:102B5000DF9300D000D0CDB7DEB780914608811159
:102B60009AC08091CD099091CE0902970CF493C040
:102B70008091340890913508009709F48CC069EC75
:102B800074E00E9469BA8C01009709F484C00E9425
:102B9000D8BBE82EF12CE114F10409F47CC070E0FC
:102BA00060E0C8010E948E136C01EA94EF2809F4DA
:102BB00081C061E0C8010E9418BBFC01018512853B
:102BC000CE0101960E946ABFCE0101960E9488BF85
:102BD00065E17CE088ED9CE00E9400D2B60188EDC2
:102BE0009CE00E9430D169E377E088ED9CE00E9490
:102BF00030D1B80188ED9CE00E9428D169E377E0EC
:102C000088ED9CE00E9430D164EE79E088ED9CE094
:102C10000E9430D188ED9CE00E94EBCF62E072E030
:102C200087EA9DE00E943784D0929D0DC0929C0D52
:102C300010939F0D00939E0D84EE99E0892BE9F58A
:102C400087EC94E09093A10D8093A00D80913008C3
:102C500090913108009741F070E060E00E948E137F
:102C600090934808809347088091470890914808BE
:102C7000009731F19093A30D8093A20D1092A50DB2
:102C80001092A40D81E0809346086CEF7BE088ED04
:102C90009CE00E9400D226960FB6F894DEBF0FBECD
:102CA000CDBFDF91CF911F910F91FF90EF90DF90FB
:102CB000CF90089502E012E083CF84EE99E0C2CF76
:102CC00089EA93E0D7CFCF93DF93009709F484C0CC
:102CD000FC012081222309F47FC0EC0162E67AE046
:102CE0000E946DEC892B09F456C069E37AE0CE01AD
:102CF0000E946DEC892B09F451C063E677E0CE01A8
:102D00000E946DEC892B09F44CC06FE577E0CE0191
:102D10000E946DEC892B09F447C06BE577E0CE018A
:102D20000E946DEC892B09F442C067E577E0CE0183
:102D30000E946DEC892BF1F163E577E0CE010E94F2
:102D40006DEC892BD1F16FE477E0CE010E946DEC40
:102D5000892BB1F16AE477E0CE010E946DEC892BFA
:102D600091F166E477E0CE010E946DEC892B71F160
:102D700066E67AE0CE010E946DEC892B51F162E4A7
:102D800077E0CE010E946DEC892B31F58EE090E06A
:102D9000DF91CF91089582E090E0FACF81E090E05A
:102DA000F7CF88E090E0F4CF85E090E0F1CF86E0C7
:102DB00090E0EECF87E090E0EBCF89E090E0E8CFC5
:102DC0008AE090E0E5CF8BE090E0E2CF8CE090E00D
:102DD000DFCF8DE090E0DCCF90E080E0D9CF2F9284
:102DE0003F924F925F926F927F928F929F92AF929B
:102DF000BF92CF92DF92EF92FF920F931F93CF93E8
:102E0000DF9300D01F92CDB7DEB780912B08909151
:102E10002C08892B09F49CC0F12CE12C1C821B820C
:102E200022242394312C40912B0850912C084101ED
:102E30000B8002C0880C991C0A94E2F7092C000C44
:102E4000AA08BB0867018FEFC81AD80AFA01EE0D6D
:102E5000FF1DFA83E98387010B5F1F4FC601612CB9
:102E6000712C2091060230910702BC012817390706
:102E700020F460910602709107022091630830915E
:102E80006408260F371FD9016C91A981BA812D9151
:102E9000BA83A983261721F12091B1073091B20797
:102EA00023303105DCF04090B7075090B8076090B0
:102EB000B9077090BA07482859286A287B28409299
:102EC000B7075092B8076092B9077092BA079D0190
:102ED00021503109D9016C9366246394772473944B
:102EE00001968017910709F0BCCF772009F447C0FD
:102EF0008091B1079091B20701969093B2078093A9
:102F0000B1076620D1F0038110E0228130E04C0D42
:102F10005D1DDA014C9150E0608170E08B819C81F5
:102F20000E94C31480E00E94DE8F6093B307709309
:102F3000B4078093B5079093B607B4E0EB0EF11C8D
:102F40008B819C8101969C838B83049709F06BCFC6
:102F50000F900F900F900F90DF91CF911F910F91D5
:102F6000FF90EF90DF90CF90BF90AF909F908F90A9
:102F70007F906F905F904F903F902F9008951092A8
:102F8000B2071092B107BDCFCF92DF92EF92FF92BE
:102F90000F931F93CF93DF93CDB7DEB7C054D10902
:102FA0000FB6F894DEBF0FBECDBF8091CD099091D2
:102FB000CE09059709F449C06115710509F445C0AA
:102FC00069017A018B0140E450E0CE0101960E9434
:102FD00014FA6FE270E0CE0101960E94DBF9892BB2
:102FE00041F4980143E050E060E4CE0101960E9474
:102FF00022944FE350E0B601CE0101960E94F6F90B
:103000000E9484BA882309F18091CD099091CE095C
:103010000697D9F480914B08811117C0B701CE01F2
:1030200001960E94EFC681E090E0C05CDF4F0FB6D2
:10303000F894DEBF0FBECDBFDF91CF911F910F91EE
:10304000FF90EF90DF90CF90089590E080E0EDCF7B
:103050001F93CF93DF93FC01162FC389D4898189F5
:1030600092899C012F5F3F4F328B218BC80FD91F54
:10307000CE010E94DCF4181721F0612FCE010E94CE
:10308000E4F481E090E0DF91CF911F910895FC017D
:1030900081899289248535858217930740F4238995
:1030A0003489820F931F0E94DCF490E008958FEF23
:1030B0009FEF08952F923F924F925F926F927F926F
:1030C0008F929F92AF92BF92CF92DF92EF92FF9238
:1030D0000F931F93CF93DF93CDB7DEB762970FB6F1
:1030E000F894DEBF0FBECDBF5C014B0129013A0150
:1030F000CA01B9010E948AF61B013F926F9380E4D6
:1031000095E09F938F93CE0101967C019F938F93BF
:103110000E946BFA0F900F900F900F900F900F90EE
:1031200020E030E0A901C301B2010E94C0F61816E8
:1031300024F077FA709477F87094F70101900020EA
:10314000E9F731976F01CE18DF088EE28083A2E0A5
:10315000B0E0AC0FBD1FAC0DBD1DBA8BA98BB1018A
:1031600037FE03C0719561957109072E000C880B1D
:10317000990B0E94BFF39B01AC01C301B2010E94F5
:10318000ABF520E030E040E251E40E941EF40E94E2
:103190008AF6605DE989FA896083FE01EC0DFD1D08
:1031A0001382D501ED91FC910288F389E02D9801FD
:1031B000A701B401C501199562960FB6F894DEBF58
:1031C0000FBECDBFDF91CF911F910F91FF90EF9078
:1031D000DF90CF90BF90AF909F908F907F906F9037
:1031E0005F904F903F902F900895CF92DF92EF9293
:1031F000FF920F931F93CF93DF93CDB7DEB7609706
:103200000FB6F894DEBF0FBECDBF7C016B01BA01D3
:10321000A901CE0101960E94CB93D701ED91FC91BB
:103220000288F389E02D9801AE014F5F5F4FB60130
:10323000C701199560960FB6F894DEBF0FBECDBFDB
:10324000DF91CF911F910F91FF90EF90DF90CF9082
:103250000895CF93DF9300D000D01F921F92CDB777
:10326000DEB7FC01862F8F706181607F682B6183E0
:1032700088E0DE01119601900D928A95E1F729818F
:103280003A814B815C816D817E818F819885289602
:103290000FB6F894DEBF0FBECDBFDF91CF9108957A
:1032A0008F929F92AF92BF92CF92DF92EF92FF9256
:1032B0000F931F93CF93DF93CDB7DEB7E0970FB691
:1032C000F894DEBF0FBECDBF4B0169017A0194E0D7
:1032D000E8E1F2E0DE01119601900D929A95E1F796
:1032E000FE0135968CE1DF011D928A95E9F7AE016A
:1032F0004F5F5F4F68E0C4010E94B1951A8A8091C8
:10330000340890913508892B09F46BC089E89DE059
:103310000E94EBCF6BE370E189E89DE00E9400D250
:10332000B701A60189E89DE00E940FD069E370E132
:1033300089E89DE00E9400D2BE016F5F7F4F89E85F
:103340009DE00E9430D167E370E189E89DE00E9432
:1033500000D289E89DE00E94EBCFBE016F5F7F4FF6
:103360008091D1099091D2090E9469BA4C0120E064
:1033700030E04EEF52ECC701B6010E94B8F388234B
:1033800081F120E030E04AEA52E4C701B6010E9430
:10339000B8F3882331F120E030E0A901C701B6017C
:1033A0000E94B8F38823E9F019A61AA61BA61CA64A
:1033B0008AA58F7080678AA7CDA6DEA6EFA6F8AA99
:1033C0006CE0CE0189960E942919B12CA12CD12C38
:1033D000C12C79018A019B01AC016FEFC4010E94ED
:1033E000C49FE0960FB6F894DEBF0FBECDBFDF914D
:1033F000CF911F910F91FF90EF90DF90CF90BF90F2
:10340000AF909F908F900895CF93DF9300D000D01E
:103410001F921F92CDB7DEB7FC01608398E0DE01FA
:10342000119601900D929A95E1F729813A814B818D
:103430005C816D817E818F81988528960FB6F89486
:10344000DEBF0FBECDBFDF91CF9108956F927F9207
:103450008F929F92AF92BF92CF92DF92EF92FF92A4
:103460000F931F93CF93DF93CDB7DEB7A0970FB61F
:10347000F894DEBF0FBECDBF8C01862E7A01DC0131
:103480008D919C911197892B09F466C01496ED914A
:10349000FC91309709F460C080818071BFEF6B139D
:1034A0005DC0B1F481E0A0960FB6F894DEBF0FBE08
:1034B000CDBFDF91CF911F910F91FF90EF90DF90E3
:1034C000CF90BF90AF909F908F907F906F90089516
:1034D0004330510539F3818082942FE0822268E3E2
:1034E00077E089E89DE00E9400D24AE050E0D801F0
:1034F00013966C9189E89DE00E9401D066E377E025
:1035000089E89DE00E9400D2D8011496ED91FC91CB
:1035100061816F704AE050E089E89DE00E9401D02F
:1035200063E377E089E89DE00E9400D24AE050E042
:10353000682D89E89DE00E9401D089E89DE00E9405
:10354000EBCFD8011496ED91FC9181818F70881298
:1035500007C080818F7E808380E0A5CF8111FCCF62
:10356000198E1A8E1B8E1C8E1D8E1E8E1F8E18A2FB
:103570008A8D8F708A8FD8011496ED91FC9181818C
:103580008F708815A9F1B3E0EB16F10489F161E3BE
:1035900077E089E89DE00E9400D24AE050E0F8011F
:1035A000638189E89DE00E9401D06FE277E089E8BD
:1035B0009DE00E9400D2D8011496ED91FC916181AA
:1035C0006F704AE050E089E89DE00E9401D06CE213
:1035D00077E089E89DE00E9400D24AE050E0682D43
:1035E00089E89DE00E9401D089E89DE00E94EBCF30
:1035F000F80120813181FCE0F81508F416C1E82DAE
:10360000F0E08827E95FF44E8F4F0C9479F5141B96
:10361000511BD21BE91BF51BD21BAB1BD21BF81B8A
:10362000031CBF1B061C121CD8011496CD90DC9005
:10363000F60181818F70853009F4F7C050F4823033
:10364000C1F06EED74E0C9010E9469BA3C01912C91
:103650004BC08730D1F08A30A1F767ED74E0C90123
:103660000E9469BA3C01D6019C9092FA992490F884
:103670003BC061ED74E0C9010E9469BA3C01D6010A
:103680009C9090FA992490F82FC060ED74E0C901E5
:103690000E9469BA3C01F601908091FA992490F851
:1036A00023C063EE74E0C9010E9469BA3C01D801ED
:1036B0001496ED91FC91808180FB992490F8982FCD
:1036C0009E7F80FF916090836114710469F461E0D2
:1036D000CE0149960E94041A298B3A8B4B8B5C8B46
:1036E0006D8B7E8B8F8B988FF801A080B18069E104
:1036F00075E0C5010E9469BA6C016EE175E0C50113
:103700000E9469BA5C01892B81F4C114D10469F467
:1037100060E0CE0149960E94041A29833A834B83C4
:103720005C836D837E838F839887D8011496ED9197
:10373000FC916114710409F07CC0898D811179C0FC
:10374000B82DBF708B2E8181807F882A81828081F5
:103750008F7E8083A7CE68EE74E0C9010E9469BAAB
:103760003C01D8011496ED91FC91808181FB992454
:1037700090F8982F9D7F81FF92609083B5CF6EEE79
:1037800074E0C9010E9469BA3C01D8011496ED9118
:10379000FC91808182FB992490F8982F9B7F82FF77
:1037A0009460EBCF6EED74E0C9010E9469BA3C01F0
:1037B000892B09F04CCF62E0CE0149960E94041A91
:1037C00029873A874B875C876D877E878F87988BA1
:1037D0003ECF64EF74E0C9010E9469BA3C01D80190
:1037E0001496ED91FC9190804CCF69EF74E0F3CF8B
:1037F0006FEF74E0C9010E9469BA3C01D8011496C8
:10380000ED91FC9149CF65E075E0F4CF6CE075E097
:10381000C9010E9469BA3C01D8011496ED91FC914E
:10382000908023CF62E175E0F3CF912C712C612C55
:103830005BCF83E0E816F104B9F0982D9F70892ED4
:103840008181807F882A818280818F7E8083E98C3C
:10385000FA8C0B8D1C8D2D8D3E8D4F8D58A1692DB1
:10386000C3010E94C49F1ECE81818F70881509F408
:1038700019CE829490EF8922882A8182808180618A
:1038800068CFCF93DF9300D000D01F921F92CDB7A7
:10389000DEB7FC016F3F710519F014F06FEF70E0B7
:1038A00077FD60E09181892F82958F708150823001
:1038B000C8F4648388E0DE01119601900D928A9528
:1038C000E1F729813A814B815C816D817E818F8115
:1038D000988528960FB6F894DEBF0FBECDBFDF9156
:1038E000CF9108959F7090619183E3CFCF93DF9341
:1038F000CDB7DEB760970FB6F894DEBF0FBECDBF71
:1039000019821A821B821C821D821E821F821886C7
:103910008A818F708A836FEF70E0CE0101960E94DA
:10392000411C60960FB6F894DEBF0FBECDBFDF918D
:10393000CF910895CF92DF92EF92FF92DC01362F64
:103940001196EC911197E295EF70EC3008F0B6C04B
:10395000F0E08827E155F34E8F4F0C9479F5611D07
:10396000E71CE71C5E1D5E1D5E1D2C1DEE1C5E1D12
:103970005E1DBB1CBB1C14968D919D910D90BC913E
:10398000A02D662399F0B7FD9FC08F3F9105A1053B
:10399000B10529F024F08FEF90E0A0E0B0E02FEF28
:1039A00030E0A901481B590BCA010CC0B7FD89C002
:1039B0008F3F9105A105B10529F024F08FEF90E02C
:1039C000A0E0B0E0FF90EF90DF90CF9008951496C4
:1039D0002C91822F90E06623A9F3E1CF1496CD902D
:1039E000DD90ED90FC901797662301F120E030E028
:1039F000A901C701B6010E94B8F387FD65C020E0A8
:103A000030E04FE753E4C701B6010E94C0F6181634
:103A10000CF457C0A701960160E070E08FE793E4D3
:103A20000E94ABF50E948AF6CB01CCCF20E030E0BB
:103A3000A901C701B6010E94B8F387FD42C020E08A
:103A400030E04FE753E4C701B6010E94C0F61816F4
:103A5000DCF1C701B601E6CF14966D917D918D9191
:103A60009C9117973323B1F0673F5FEF7507850788
:103A7000950754F161152AE07207810591050CF54F
:103A800026EF3FEF4FEF5FEF0E9424F5C901815011
:103A90009F4F98CF673F4FEF7407840794078CF0D0
:103AA00061155AE075078105910574F42AE030E04C
:103AB00040E050E00E9424F5C90184CF8FEF9FEFD2
:103AC00081CF90E080E07ECF8FEF90E07BCFDC0174
:103AD0001196EC911197E295EF70E150EB3008F000
:103AE00039C0F0E08827E858F24E8F4F0C9479F5F2
:103AF0009B1D9B1DAA1D831D831D8C1DA31DA31D26
:103B0000A31D831D831D14966D917D918D919C91B4
:103B100017970E94BFF3089514966D917D918D9132
:103B20009C9117972AE030E040E050E00E9424F595
:103B3000CA01B901EECF14966C9170E090E080E07C
:103B40000E94BDF3089514966D917D918D919C9185
:103B50001797089560E070E0CB010895DC0111969D
:103B6000EC911197E295EF70E150EB3008F037C01F
:103B7000F0E08827E154F24E8F4F0C9479F5D11D77
:103B8000D11DEF1DCA1DCA1DE01DD71DD71DD71D94
:103B9000CA1DCA1D14966D917D918D919C911797A8
:103BA000089514966C9170E090E080E0089514966A
:103BB0006D917D918D919C9117970E948AF6089541
:103BC00014966D917D918D919C9117972AE030E02C
:103BD00040E050E00E9424F5CA01B901089560E078
:103BE00070E0CB010895FC01A7812A2F2E7FD1F030
:103BF000818182958F7081508330A0F4A695A15069
:103C0000BB0B2BE531E00E9490F524E630E040E06C
:103C100050E00E9424F5DA01C90187569F4FAF4F4B
:103C2000BF4F08958FEF9FEF08952F923F924F92CD
:103C30005F926F927F928F929F92AF92BF92CF923C
:103C4000DF92EF92FF920F93CF93DF9300D01F92FA
:103C5000CDB7DEB77C017A8369835C834B83DB015C
:103C60001C92FC016081662309F44DC030FF4BC0FB
:103C7000F9E06F9FB00111246C517F4DCD010E947E
:103C8000A4ECD70111968C91807F41F04B815C812F
:103C900063E275E089819A810E94F6F9E981FA81EF
:103CA00001900020E9F7319789819A81E81BF90B8F
:103CB0001C012E0E3F1EAB81BC81AE1BBF0B1197AA
:103CC000BC83AB83D7011196EC9111978E2F807F27
:103CD00009F4BCC0E295EF70E150EC3008F0B6C0DA
:103CE000F0E08827E958F14E8F4F0C9479F5861E45
:103CF000F51E5B1FC01FDB1FC21E711F711F711FCE
:103D0000B61EAA1EF71F29803A80DCCFF7018481F6
:103D1000282F30E050E040E0002359F030E0A4E6E6
:103D2000B0E00E9456F52FEF30E040E050E00E94F6
:103D300024F55F934F933F932F9385E295E09F93F4
:103D40008F93FC81FF938B818F933F922F920E94E0
:103D50002EFA77C0F70187818F9386818F938581B3
:103D60008F9384818F9388E295E0E9CFF701878173
:103D70008F9386818F9385818F9384818F938CE23B
:103D800095E0DDCFF701C480D580E680F780C701DC
:103D9000B6012AE030E040E050E00E9424F597FFB1
:103DA00007C090958095709561957F4F8F4F9F4F7D
:103DB0009F938F937F936F93C701B6012AE030E002
:103DC00040E050E00E9424F55F934F933F932F9380
:103DD00080E395E09F938F93FC81FF938B818F937A
:103DE0003F922F920E942EFA2CC0C7010E94F31D11
:103DF000BC01F701C680D780D0FADD24D0F89481C9
:103E0000F580EB80BC80292F30E050E040E077FD6A
:103E100035C0011135C07F936F931F921F921F927F
:103E20009F931F92FF92DF92CF9287E395E09F933B
:103E30008F939C819F93AB81AF933F922F920E946F
:103E40002EFA0FB6F894DEBF0FBECDBF89819A81DE
:103E50000F900F900F900F90DF91CF910F91FF90E7
:103E6000EF90DF90CF90BF90AF909F908F907F901A
:103E70006F905F904F903F902F900895002361F0D6
:103E8000292F30E0A4E6B0E00E9456F52FEF30E095
:103E900040E050E00E9424F55F934F933F932F93AF
:103EA0001F92FF92DF92CF928AE395E09F938F93C8
:103EB000BF92EF9295CF15968C9115971F928F9385
:103EC00016969C91169717968C9181708F939F935D
:103ED0008DE395E09F938F93BC81BF93EB81EF932C
:103EE00034CF14968D909D90AD90BC90179720E0A4
:103EF00030E0A901C501B4010E94B8F324013501E5
:103F000087FF04C077FA709477F87094C301B20108
:103F10000E948AF66B01072E000C880B990B0E94F9
:103F2000BFF39B01AC01C301B2010E94ABF520E0DD
:103F300030E048EC52E40E941EF40E9415F70E9403
:103F40008AF6062F772E20E030E0A901C501B401E2
:103F50000E94B8F387FF07C07F920F93DF92CF9242
:103F600083E495E0B7CF7F920F93DF92CF9284E402
:103F700095E09F938F939C819F93AB81AF93E5CE08
:103F800014968C9114971F928F9315968C91159778
:103F90001F928F9316968C911F928F938AE395E0D0
:103FA0009F938F93BC81BF93EB81EF933F922F92AE
:103FB0000E942EFA46CF17968C9117971F928F93D7
:103FC00014968C9114971F928F9315968C91159738
:103FD0001F928F9316968C911F928F9387E395E093
:103FE0009F938F93BC81BF93EB81EF93F9CE14968F
:103FF0006D917C914B815C81C1010E9414FA26CFA6
:10400000EF92FF920F93CF93DF93CDB7DEB7A097D8
:104010000FB6F894DEBF0FBECDBF7C0100E020E0FC
:1040200033E040E250E0BE016F5F7F4F0E94151EFB
:10403000BE016F5F7F4F89E89DE00E9430D167E944
:104040007BE089E89DE00E9400D2F70161816295E2
:104050006F704AE050E089E89DE00E9401D060E97D
:104060007BE089E89DE00E9400D2F70161816F70DA
:104070004AE050E089E89DE00E9401D089E89DE097
:104080000E94EBCFA0960FB6F894DEBF0FBECDBF57
:10409000DF91CF910F91FF90EF900895CF93DF9331
:1040A000EC016115710539F48F8181708F8381E096
:1040B000DF91CF9108958981982F92959F7029F172
:1040C00080E09430A8F79B01770F440B550B2959DA
:1040D000310941095109A4E6B0E00E9443F52BE5FE
:1040E00031E040E050E00E9424F537FF02C030E0AC
:1040F00020E02536310514F024E630E02F5F220F52
:104100008F818170282B2F83D2CF8F70806289831B
:10411000DACF2F923F924F925F926F927F928F925F
:104120009F92AF92BF92CF92DF92EF92FF920F9346
:104130001F93CF93DF93CDB7DEB768970FB6F89490
:10414000DEBF0FBECDBF1C0109871A872B873C87B6
:104150004D875E876F87788B22E1E216F10408F0C5
:1041600035C0F701EE5FFB4F3081398BCE010996E8
:104170000E94F31D97FD04C0BC01C1010E944E20A6
:104180009A85892F8F70D1011196EC911197E07F5C
:10419000E82B1196EC93119789858C93E295EF703B
:1041A000EC3008F063C0F0E08827E652FF4D8F4FF7
:1041B0000C9479F5DC22032103217B22E8200823DB
:1041C000442285228522852244224422198ACECF88
:1041D000B12C92959F709D3008F0BEC4E92FF0E09D
:1041E0008827EA50FF4D8F4F0C9479F536214223F2
:1041F000622342230B230B2342234223AC25AC250D
:1042000042234223102292959F709D3008F018C1DE
:10421000E92FF0E08827E05FFE4D8F4F0C9479F591
:104220003621EE21E121A42120211D21C521F021EB
:1042300020222022AF21AF2110228889F10187831B
:104240008F85D10116968C9316978E8515968C9333
:1042500015978D8514968C9314979295907F11964F
:104260008C9111978F70982B11969C93B989BB23D1
:1042700009F467C0F101818182958F702B2F30E0A6
:104280008217130609F45DC067EF7AE089E89DE0C4
:104290000E9400D2D10111966C9162956F704AE034
:1042A00050E089E89DE00E9401D064EF7AE089E85F
:1042B0009DE00E9400D24AE050E0698989E89DE0D3
:1042C0000E9401D062EF7AE089E89DE00E9400D26E
:1042D000F101008119821A821B821C821D821E82BA
:1042E0001F82188689898295807F9A819F70892B89
:1042F0008A830983EE24EA94FE2C11812281338182
:104300004481558166817781CE0101960E94892082
:10431000D1012C9311963C93119712964C931297BE
:1043200013965C93139714966C93149715967C933D
:10433000159716968C93169717969C93C1010E9419
:10434000002088E0F10177C18F859889F10186838B
:10435000878190FB80F987838E85858387CF8D85C4
:104360009E85AF85B889B7FD0EC08F3F9105A10529
:10437000B10529F024F08FEF90E0A0E0B0E0D1018A
:1043800014968C9373CF80E0FACF6D857E858F85F0
:10439000988920E0673FBFEF7B078B079B076CF096
:1043A0002FEF6115EAE07E078105910534F42AE0DC
:1043B00030E040E050E00E9424F5D10114962C93A7
:1043C00055CF8F859889F1018683878190FB80F98D
:1043D00087838E8585838D85848348CF8D85CFCFD8
:1043E000CD84DE84EF84F88820E030E0A901C701A5
:1043F000B6010E94B8F360E087FD0FC020E030E016
:104400004FE753E4C701B6010E94C0F66FEF1816DC
:1044100024F0C701B6010E9491F6F101648326CF12
:10442000D10111968C9111978F70806C11968C939D
:1044300011978D859E8515969C938E93149716CF14
:1044400067E77BE089E89DE00E9400D26A8562957B
:104450006F704AE050E089E89DE00E9401D064E777
:104460007BE089E89DE00E9400D2F10161816295C4
:104470006F704AE050E089E89DE00E9401D089E831
:104480009DE00E94EBCFF2CE92959F70933091F019
:104490009C3031F24D855E856F857889F1014483CA
:1044A0005583668377839295907F81818F70982B57
:1044B0009183DCCE60E0C1010E949A1CD101149668
:1044C0008C9314978F85988916968C9316971796C8
:1044D0008C91179790FB80F917968C9317978E8580
:1044E00015968C93159711968C9111978F70806209
:1044F00011968C93BBCE60E0CE0109960E949A1C67
:10450000D10114968C931497EECF92959F709D30A5
:1045100008F065C0E92FF0E08827EE56FD4D8F4F7B
:104520000C9479F53621B122DB225A22DB22DB22E0
:104530009F22CB22CB22CB22BF22C62210226D8506
:104540007E858F8598890E94BFF320E030E040E2AD
:1045500051E40E9418F6F101648375838683978382
:1045600085CE6D8570E090E080E00E94BDF3D101C2
:1045700014966D937D938D939C93179777CE6D854D
:104580007E858F8598890E94BFF3E5CF6D857E85F6
:104590008F859889EACF9295907FF10181818F7004
:1045A000982B91838D859E85AF85B889848395836B
:1045B000A683B7835BCE9295907FD10111968C91A3
:1045C00011978F70982B11969C938D859E85AF8542
:1045D000B889F10184839583A683B78347CE62E6C9
:1045E0007BE089E89DE00E9400D26A8562956F7049
:1045F0004AE050E089E89DE00E9401D06FE57BE051
:1046000089E89DE00E9400D2D10111966C912FCFD4
:10461000BB24B394DECD4D855E856F857889F1012D
:1046200044835583668377839295907F81818F70D1
:10463000982B918388E0DE01119601900D928A9566
:10464000E1F729813A814B815C816D817E818F8187
:10465000988568960FB6F894DEBF0FBECDBFDF9188
:10466000CF911F910F91FF90EF90DF90CF90BF906F
:10467000AF909F908F907F906F905F904F903F9002
:104680002F900895963009F43AC148F46D85913021
:1046900071F06FEF70E0933051F060E008C0973038
:1046A00009F439C19A506D857E859230B0F784E661
:1046B0008F8788898E7F888B1E868A858F7080621F
:1046C0008A876D872E8530E0AFEFB0E00E9456F507
:1046D000C12CD12C7601CA946115F4E67F078105BF
:1046E000910544F424E630E040E050E00E9424F5D7
:1046F00069017A0186012D852A8B622E712CBB20DF
:1047000009F471C088898695A82FA150BB0B2D0193
:10471000BFEF4B165B0609F01FC1003811050CF006
:1047200001C18FE790E08C199D09869DD001879D7E
:10473000B00D969DB00D11242FEF30E00E9490F542
:1047400021E83EE740E050E00E9424F5F101278394
:10475000ABE9B0E0A70196010E9443F5EFE78E2E8A
:10476000912CA12CB12CA50194010E9424F5890162
:104770009A010C591F4F2F4F3F4FAEEFB1E0A701E9
:1047800096010E9443F5A50194010E9424F5D301EE
:104790000E9443F52FEF30E040E050E00E9424F506
:1047A00039012FEF6216710421F01CF066246A941F
:1047B000712C62E57BE089E89DE00E9400D2B8019F
:1047C00089E89DE00E9428D164E47BE089E89DE0CF
:1047D0000E9400D2B30189E89DE00E9428D189E8B7
:1047E0009DE00E94EBCFEEE9F0E2E491F0E0EE0F05
:1047F000FF1FE252F04E85919491E8E5F0E2E491DA
:104800002F8538893170AFEFBFEF0E9456F52DE646
:1048100031E040E050E00E9424F544275527AAEFFC
:10482000B5E00E9443F5DC01CB019058AF4FBF4F7C
:10483000CD01BB2797FDB095AB2F8E3FE1E09E07E2
:1048400008F063C1382F8F3F910508F480C14EEF07
:10485000481B50E03FEF7301FFEFEF1AFF0AF8012A
:10486000FF273196009510E03E9FC0013F9F900DBD
:104870001124292F3327200F311FD7010E9490F5D3
:104880004B015C018824AA24BB245E9F90015F9F9A
:10489000300D1124232F3327200F311F0E9490F554
:1048A000BB27A92F982F872F882A992AAA2A4E9F9B
:1048B00090014F9F300D1124232F3327200F311FDC
:1048C000D7010E9490F5B82FA72F962F8827882709
:1048D0009927BB2788299929AA29F101A6839583BD
:1048E000848368E17BE089E89DE00E9400D2C101F9
:1048F0000E94002060E080E00E94C5C1B7CC6D85B9
:104900007E858F8598892AE030E040E050E00E9463
:1049100024F5B901CCCE6D857E858F8598890E945E
:104920008AF6C5CEA70196012058310941095109DF
:10493000ABE9B0E00E9443F52FE730E040E050E003
:104940000E9424F589019A010C591F4F2F4F3F4FA8
:10495000D10117961C922DCF9201AAEBBFEF0E94B6
:1049600088F544E6842E912CA12CB12CA50194014C
:104970000E9424F5DA01C9018C599F4FAF4FBF4FF8
:104980008B8B9C8BAD8BBE8B26E430E0D2010E94DA
:1049900090F5A50194010E9424F549015A019EE178
:1049A000890E911CA11CB11C003811050CF093C09C
:1049B0008FE790E08C199D09869DD001879DB00DF1
:1049C000969DB00D1124A50194010E944EF59B0106
:1049D000AC01AFEFB0E00E9443F524E63AE640E0D8
:1049E00050E00E9424F5D10117962C932B893C8925
:1049F0004D895E892C0D3D1D4E1D5F1DAEEFB1E052
:104A00000E9443F523EE30E040E050E00E9424F5A0
:104A100029013A01388F2F8BAFEFB0E0A701960143
:104A20000E9443F52FE730E040E050E00E9424F57B
:104A30008901EA89AE2FB0E0A30192010E9443F5FB
:104A40002FEF30E040E050E00E9424F539012F3F85
:104A5000310521F01CF066246A94712C6EE37BE032
:104A600089E89DE00E9400D22AE030E04B895C8911
:104A70006D897E8989E89DE00E94E0D068E37BE053
:104A800089E89DE00E9400D22AE030E0B501A4014F
:104A900089E89DE00E94E0D060E37BE089E89DE04A
:104AA0000E9400D2B80189E89DE00E9428D168E206
:104AB0007BE089E89DE00E9400D2B30189E89DE097
:104AC0000E9428D16FE17BE089E89DE00E9400D23E
:104AD0006F89788D80CEA701960120583109410950
:104AE0005109ABE9B0E00E9443F52FE730E040E028
:104AF00050E00E9424F589019A010C591F4F2F4F55
:104B00003F4FD10117961C92A9CF8C3FF3E09F072E
:104B100068F48D3F22E0920728F452E0580F3FEFEF
:104B200040E099CE3CEF381B5FEFFACF8A3F35E08B
:104B3000930781F08B3FE4E09E0728F444E0480FA0
:104B40005FEF30E088CE5AEF581B30E001C050E0F4
:104B50004FEF81CE50E0F9CF66E07BE089E89DE041
:104B60000E9400D26A8562956F704AE050E089E841
:104B70009DE00E9401D063E07BE042CDFC01918189
:104B8000892F82958F7021F0823029F080E008957E
:104B90009F70906291839B0177FF02C030E020E01C
:104BA0002E3681E0380714F02DE631E02683878128
:104BB00030FB80F9878381E00895AF92BF92CF9256
:104BC000DF92EF92FF920F931F93CF93DF93CDB7B6
:104BD000DEB7CC55D1090FB6F894DEBF0FBECDBFFE
:104BE0005C0166960FAF669767961FAF67976896EA
:104BF0002FAF689769963FAF69976A964FAF6A97EC
:104C00006B965FAF6B976C966FAF6C976D967FAF3F
:104C10006D971AAA19AAFE01F39682E1DF011D928F
:104C20008A95E9F77A961192119286E0DF011D923A
:104C30008A95E9F7CE018B5A9F4F0E940020F0FE23
:104C40002CC06696EFAD6697E83108F040C1F0E001
:104C50008827E25DF94D8F4F0C9479F56D27462634
:104C600064276727672764274626672767276727FC
:104C7000462646264626462646266727672767276E
:104C8000672767276727672767276D276EE87AE01A
:104C9000CE01835B9F4F0E9476EC0E9484BA8823EA
:104CA00009F4FAC080914B088111F6C0CD2809F0B3
:104CB000F3C030E020E043E050E060E3CE01019635
:104CC0000E942294D501ED91FC91608171814FE2A7
:104CD00050E0CE0101960E94F6F96701CC24B2E0C3
:104CE000DB22F1FEFDC066968FAD6697823009F437
:104CF000F7C0853009F4F4C067968FAD6797829549
:104D00008F709FE0980F9F70923018F0883009F0F4
:104D1000E7C001E020E032E044E150E0BE016F5C1A
:104D20007F4FCE018B5A9F4F0E94151EBE016F5CB4
:104D30007F4FCE0101960E94EFC666E77AE089E8D0
:104D40009DE00E9400D2BE016F5F7F4F89E89DE029
:104D50000E9430D163E77AE089E89DE00E9400D2AA
:104D6000BE016F5C7F4F89E89DE00E9430D189E8E9
:104D70009DE00E94EBCF67968FAD6797807F87019C
:104D800000271071882311F0CD2821F40115110599
:104D900009F4DAC030E020E043E050E060E3CE0107
:104DA00001960E942294D501ED91FC916081718160
:104DB0004FE250E0CE0101960E94F6F967E876E0F6
:104DC000CE0101960E94D0F94FE250E066E67AE00B
:104DD0000115110511F462E67AE0CE0101960E94F8
:104DE00086EC67968FAD679782958F70845082307E
:104DF00008F096C067E1CE018B5A9F4F0E94041ABB
:104E000026962FAF269727963FAF279728964FAF26
:104E1000289729965FAF29972A966FAF2A972B96E6
:104E20007FAF2B972C968FAF2C972D969FAF2D97FA
:104E300000E020E033E044E150E0BE016F5C7F4FD2
:104E4000CE018B5A9F4F0E94151E6CE57AE089E8CF
:104E50009DE00E9400D2BE016F5F7F4F89E89DE018
:104E60000E9430D169E57AE089E89DE00E9400D295
:104E7000BE016F5C7F4F89E89DE00E9430D189E8D8
:104E80009DE00E94EBCF0E9484BA882329F0809194
:104E90004B08882309F44CC0B701C5010E94C81310
:104EA00090E080E0C45ADF4F0FB6F894DEBF0FBE2B
:104EB000CDBFDF91CF911F910F91FF90EF90DF90C9
:104EC000CF90BF90AF9008956AE87AE0E1CE6CE7AA
:104ED0007AE089E89DE00E9400D2E894F0F8DDCE07
:104EE000F0FE49CFBE01635B7F4FCE0101960E9469
:104EF000EFC66DE67AE089E89DE00E9400D2BE012F
:104F00006F5F7F4F89E89DE00E9430D16AE67AE0CA
:104F100089E89DE00E9400D2BE01635B7F4F23CFF2
:104F200020E032E0012B11F020E033E000E083CFFD
:104F3000BE016F5C7F4FCE0101960E94EFC660E01C
:104F400072E0C5010E94A413F0FE77C06696EFAD33
:104F50006697E150EE30E0F4F0E08827ED54F84D2C
:104F60008F4F0C9479F52928C827C827C827C82748
:104F70002928C827C827C827C12720282E2826283F
:104F800023286FE47AE0CE01835B9F4F0E9476EC8A
:104F900030E020E043E050E060E3CE0101960E9463
:104FA0002294D501ED91FC91608171814FE250E036
:104FB000CE0101960E94F6F967E876E0CE010196EF
:104FC0000E94D0F940E350E069E37AE0CE01019617
:104FD0000E9486EC63E37AE089E89DE00E9400D2BB
:104FE000BE016F5F7F4F89E89DE00E9430D160E392
:104FF0007AE089E89DE00E9400D2BE01635B7F4FAA
:1050000089E89DE00E9430D189E89DE00E94EBCFC5
:105010000E9484BA882309F43FCF80914B08811104
:105020003BCFBE01635B7F4FCE0101960E94EFC66E
:1050300060E071E0C5010E94A41381E090E032CFEE
:105040006AE47AE0A0CF66E47AE09DCF6DE37AE08F
:105050009ACFF5018085853009F09ACF64E57AE032
:1050600092CF0F931F93CF93DF938C01FC01C081EC
:10507000D1816FE270E0CE010E9423FA0097D9F04F
:10508000FC011192CF010E946316EC016CE777E0FE
:1050900089E89DE00E9400D2BE0189E89DE00E945F
:1050A00028D189E89DE00E94EBCFCE01DF91CF911E
:1050B0001F910F910895CE010E946316EC01892B78
:1050C000A1F3F80111821082F0CFDC01ED91FC9187
:1050D000309729F090859F7081E0953009F080E04D
:1050E0000895CF92DF92FF920F931F93CF93DF9398
:1050F000F12C6115710509F462C06A01EB018C01A4
:10510000CB010E946528F82E882309F458C0D0FEF0
:1051100005C0F8016081CE010E940814D1FE46C08E
:10512000F801918192959F704481558166817781C4
:10513000973030F09930D0F086EF890F823090F0C0
:10514000EC81FD81309771F080858F702EEF280FF4
:10515000223010F0811106C09295907F80858F706B
:10516000982B9087CE010E94461120C0EC81FD81D2
:105170003097E1F080858F709EEF980F923010F09D
:10518000811114C04187528763877487EC81FD8148
:105190008085807F83608087EC81FD818085982F6A
:1051A000907F903619F48F708067808769E87BE084
:1051B00089E89DE00E9400D2C8010E9400208F2D46
:1051C000DF91CF911F910F91FF90DF90CF900895C5
:1051D000EF92FF920F931F93CF93DF93EC017B012C
:1051E0008E819F81892BD9F4888199810E94D8BBB7
:1051F000082F10E00530110594F40E94047E0097FA
:1052000021F0FC012085207F20879F838E83BC01B5
:10521000888199810E9429BE0F5F1F4FEBCFEE81DD
:10522000FF813097D9F08085982F9F70A9F4807FF7
:1052300082608087EE81FF81118612861386148634
:10524000EE81FF81F782E682C701DF91CF911F9146
:105250000F91FF90EF900895923061F3F12CE12CC3
:10526000F3CFCF92DF92EF92FF920F931F93CF93E2
:10527000DF93EC016A017B018E819F81892BD9F438
:10528000888199810E94D8BB082F10E00530110554
:1052900094F40E94047E009721F0FC012085207F79
:1052A00020879F838E83BC01888199810E9429BEBB
:1052B0000F5F1F4FEBCFEE81FF81309749F1808563
:1052C000982F9F7019F5807F82608087EE81FF8123
:1052D000C186D286E386F48660E777E089E89DE0C0
:1052E0000E9400D22AE030E0B701A60189E89DE0E3
:1052F0000E94E0D089E89DE0DF91CF911F910F914E
:10530000FF90EF90DF90CF900C94EBCF9230F1F2C2
:10531000DF91CF911F910F91FF90EF90DF90CF9091
:105320000895FC0186819781009799F0FC01208502
:105330002F70223029F461857285838594850895C4
:10534000253039F460E00E9418BB009711F0FC0191
:10535000F2CF60E070E0CB0108950F931F93CF93DD
:10536000DF93FC01C281D3812097F9F088858F708B
:10537000823049F4672BC9F489859A85DF91CF91F2
:105380001F910F910895853081F48B01CE010E9409
:10539000D8BB8017110649F044F0602FCE010E945F
:1053A00018BBFC0181859285E9CF90E080E0E6CFD3
:1053B0000F931F93CF93DF93EC018B017B836A8361
:1053C00083EA92E09983888370E060E0C8010E94DC
:1053D000AD2997FD19C09D838C83D8011296ED915C
:1053E000FC913097C1F090859F70923089F0953094
:1053F00091F4CF010E94D8BB90E09F838E83DF9110
:10540000CF911F910F910895919581959109E3CFC7
:1054100081E090E0F2CF90E080E0EFCFDF92EF927A
:10542000FF920F931F93CF93DF93EC0188819981B3
:105430000E94D8BB082F10E0043011059CF40E9494
:10544000047E009739F0DC0118962C911897207F84
:1054500018962C93BC01888199810E9429BE0F5F08
:105460001F4FEACF0881198160E0C8010E9418BB74
:10547000FC01D184D88661E0C8010E9418BB7C0180
:105480009B838A8362E0C8010E9418BB9D838C8342
:1054900064E0C8010E9418BB8C019F838E83F2E1F7
:1054A000FD1550F1ED2DF0E08827E65AF54D8F4FB0
:1054B0000C9479F5842A842A842A6D2A7C2A7C2AF1
:1054C0007C2A7C2A7C2A7C2A7C2A7C2A7C2AAF2A79
:1054D000922A7C2ABC2A842A312B8AE090E00E94FE
:1054E0005FEA8C01BE010E94D82985E493E0D801CF
:1054F0008D939C931A870987DF91CF911F910F910C
:10550000FF90EF90DF90089588E090E00E945FEABE
:105510008C01BE010E94D82981E293E0F8019183B9
:105520008083E8CF86E090E00E945FEAFC01D383AD
:10553000C2838FEF92E09183808301151105C9F03A
:10554000D80118968C9118978F70823091F4169626
:105550008D919C9195838483FA87E987CDCF86E0EE
:1055600090E00E945FEAFC01D383C2838DED92E05C
:10557000E2CF90E080E0EECF8BE090E00E945FEA27
:105580008C01FC01D383C2838BE893E091838083F9
:10559000168270E060E0CE010E94AD2997FD43C005
:1055A000D80115969C938E931497D80114968D91DB
:1055B0009C91009719F0863491052CF080E290E0E0
:1055C000F80195838483E114F104E9F1D701189679
:1055D0008C918F708530B9F5C7010E94D8BB82309D
:1055E00090F161E0C7010E9418BBFC0190859F709B
:1055F000923011F561857285838594850E94BFF391
:1056000020E030E04AE754E40E941EF40E9491F644
:105610006115710581059105D1F0F80167837087E7
:105620008187928767CF919581959109F80195833C
:10563000848381E08683B9CF933029F461857285B4
:1056400083859485DDCF60E070E0CB01D9CF88E819
:1056500093E1A0E0B0E0F80187839087A187B2874B
:1056600049CF86E090E00E945FEAFC01D383C283C9
:1056700089E693E09183808315821482E114F1041A
:1056800009F46ACFD70118968C918F70863009F093
:1056900063CFF582E48260CF63E0FC018081918179
:1056A0000E9418BB009719F0FC01818508958FEFC7
:1056B0000895CF92DF92EF92FF920F931F93CF93B3
:1056C000DF936115710509F474C06A017B018C01D7
:1056D000CB010E946528D82F8823C1F1D7011496E9
:1056E0008D919C91009709F446C0FC01C0852C2F38
:1056F0002F703EEF320F323010F0211131C0C595BE
:10570000C595C595C595D0FE72C0C7010E944C2BAA
:10571000F8018083CC23F1F1C295C07F81818F7025
:10572000C82BC183D70114968D919C91009771F17C
:10573000FC0120852F70223001F581859285A3859B
:10574000B485F80184839583A683B7838D2FDF9179
:10575000CF911F910F91FF90EF90DF90CF90089520
:10576000253049F460E00E9418BB009721F0DC016D
:105770001896CC91C4CFC0E0C6CF253039F460E094
:105780000E9418BB009711F0FC01D7CF80E090E099
:10579000DC01D7CFD7011496ED91FC9180858295DD
:1057A000807F8595859585958595823021F083301C
:1057B00081F0D0E0CBCF4185528563857485F801B7
:1057C00081818F70806A8183448355836683778368
:1057D000BDCF4185528563857485F80181818F70C5
:1057E000806781834483558366837783AFCFCC23DF
:1057F00089F2C295C07FF80191CFAF92BF92CF924C
:10580000DF92EF92FF920F931F93CF93DF9300D01D
:1058100000D01F921F92CDB7DEB75C017B0160FF05
:1058200003C0E894E0F8F3F8F3FC0DC00E944A9539
:10583000663971058105910530F08091CD0990910F
:10584000CE090597F9F4B70166277370C5010E9468
:10585000C8136FE17AE089E89DE00E9400D28FEFE3
:105860009FEF28960FB6F894DEBF0FBECDBFDF9135
:10587000CF911F910F91FF90EF90DF90CF90BF904D
:10588000AF90089519821A821B821C821D821E828B
:105890001F8218868A818F708A8340E053E0B501A9
:1058A000CE0101960E94592B60E073E0C5010E9471
:1058B000EE13E82AF92AD12CC12C09811A812B81F7
:1058C0003C814D815E816F817885C5010E94DD2517
:1058D000C8CFCF93DF93EC0160E073E00E94EE133A
:1058E000009791F02091CD093091CE0926303105F5
:1058F00059F4BC01CE010E94FD2B60E073E0CE01A3
:10590000DF91CF910C94A413DF91CF910895AF92C2
:10591000BF92CF92EF92FF920F931F93CF93DF939B
:1059200000D000D01F921F92CDB7DEB75C01098373
:105930001A832B833C834D835E836F8378876FEE5E
:1059400076E089E89DE00E9400D2CE0101960E9497
:105950000020898181112FC00A810F70013081F1EF
:1059600038F1023019F010E00530E9F5D501ED917C
:10597000FC91068CF78DE02D09811A812B813C81E9
:105980004D815E816F817885C501199581E090E038
:1059900028960FB6F894DEBF0FBECDBFDF91CF9132
:1059A0001F910F91FF90EF90CF90BF90AF9008950F
:1059B000CC24C394DBCF813061F1823009F44DC037
:1059C00062EE76E089E89DE00E9400D24AE050E075
:1059D000698189E89DE00E9401D089E89DE00E94EC
:1059E000EBCF01E010E062ED76E089E89DE00E94F7
:1059F00000D2B80189E89DE00E9428D189E89DE0A5
:105A00000E94EBCFCE0101960E94002090E080E042
:105A1000BFCFCE0101960E9455BB4997ACF4CE0191
:105A200001960E9425BBF5016281738140E052E03E
:105A3000CE0101960E94712860E07AE0D5011296AD
:105A40008D919C910E94FD2BD501ED91FC91068CCE
:105A5000F78DE02DCC24C3948FCF1D821E821F8230
:105A60001886D501ED91FC91068CF78DE02DCC24A4
:105A7000C39402E01A812B813C8140E082CF8F9257
:105A80009F92AF92BF92CF92DF92EF92FF920F93CD
:105A90001F93CF93DF93CDB7DEB760970FB6F8941F
:105AA000DEBF0FBECDBF7C018B0162E070E00E94C3
:105AB000AD296C0119861A861B861C861D861E86DA
:105AC0001F86188A8A858F708A8790E080E0D7FCCD
:105AD00043C040E052E0B701CE0109960E94592B25
