:1000000000000120C9190100F1190100F3190100D4
:10001000F5190100F7190100F919010000000000AD
:10002000000000000000000000000000FB190100BB
:10003000FD19010000000000FF190100011A010074
:10004000031A0100031A0100811F0100031A0100B5
:1000500065BD0000031A0100031A0100031A010024
:10006000031A0100031A0100031A0100031A010018
:10007000031A0100031A0100031A0100031A010008
:10008000031A010041230100031A0100031A0100B1
:10009000031A0100031A0100031A0100031A0100E8
:1000A000031A0100031A0100031A0100031A0100D8
:1000B000031A0100031A0100000000000000000004
:1000C000031A0100031A0100031A0100031A0100B8
:1000D000031A0100031A0100031A010000000000C6
:1000E0000000000000000000000000000000000010
:1000F0000000000000000000000000000000000000
:1001000000000000000000000000000000000000EF
:1001100000000000000000000000000000000000DF
:1001200000000000000000000000000000000000CF
:1001300000000000000000000000000000000000BF
:1001400000000000000000000000000000000000AF
:10015000000000000000000000000000000000009F
:10016000000000000000000000000000000000008F
:10017000000000000000000000000000000000007F
:10018000000000000000000000000000000000006F
:10019000000000000000000000000000000000005F
:1001A000000000000000000000000000000000004F
:1001B000000000000000000000000000000000003F
:1001C000000000000000000000000000000000002F
:1001D000000000000000000000000000000000001F
:1001E000000000000000000000000000000000000F
:1001F00000000000000000000000000000000000FF
:1002000010B5054C237833B9044B13B10448AFF350
:1002100000800123237010BDA00200200000000018
:1002200078B9010008B5034B1BB103490348AFF38C
:10023000008008BD00000000A402002078B9010081
:10024000154B002B08BF134B9D46A3F5803A0021A8
:100250008B460F461348144A121A14F0A2FB0F4B98
:10026000002B00D098470E4B002B00D09847002061
:10027000002104000D000D48002802D00C48AFF307
:10028000008014F0D7FA2000290012F099F814F039
:100290001FF900BF0000080000000120000000005E
:1002A00000000000A0020020E4090020000000007F
:1002B0000000000070B590B00C4615461E4606F0D2
:1002C0004FF948B364B321464022684615F03DFB20
:1002D0002F21684615F0D0FA28B923460322402181
:1002E00068460AF063FF3F223146684615F007FB77
:1002F0000C480FF0CDFF78B10B4B93F90030062B73
:100300000CD10A4B93F9003043B901232A466946C0
:10031000044810F01AFA012010B070BD0020FBE76D
:100320002046F9E7440400203C0400201404002087
:1003300007B5002300931A461946034811F07CF9CB
:1003400003B05DF804FB00BFBC02002007B500232A
:1003500000931A461946034811F06EF903B05DF890
:1003600004FB00BFC40200200020704782B002AB33
:10037000012003E9060002B07047406818B14068E8
:1003800008B1007C0009704743682BB15B681BB162
:100390001A7C61F307121A747047406808B508B1F7
:1003A00002F00EFA012008BD13B5002204461146E2
:1003B000684604F009FD606802F002FA052807D8D3
:1003C000DFE800F0110311060611012002B010BD94
:1003D00061684FF40052684605F003F90021684651
:1003E00004F0D2FFF2E70020F0E713B50022044644
:1003F0001146684604F0E8FC2046FF22694605F0F5
:100400003FF8204602B010BD30B5044687B0002347
:100410000D462F221549ADF808306846CDE9002376
:1004200015F01BFA606802F0CBF9CDB1142805D0A5
:10043000152811D00F2811D10D4900E00D4903A84E
:1004400015F031FA6368596803AA6B4609682046BB
:10045000FFF730FF07B030BD0749F0E70749EEE787
:1004600002280CBF06490749E9E700BFF1930100E4
:10047000E4930100FF930100F89301000794010049
:10048000E8930100EC93010007B5002300931A469E
:100490001946034811F0D0F803B05DF804FB00BF23
:1004A000CC020020704700002DE9FF4102AC84E837
:1004B000060006463B493C489DF828809DF82C5094
:1004C0001F4611F001F9204605F07AFA204604F0A3
:1004D00018FE50BB204605F07BF8052804D8DFE85D
:1004E00000F0152417030317054630492E4811F074
:1004F000EBF80A2229462C4811F04FF92A4811F04E
:10050000F3F8204605F05CFA00200BE04FF00108FC
:10051000CDE90085336894E806005D6B30463B46C4
:10052000A847012004B0BDE8F081204604F098FF00
:10053000012812D0022832D01D491B4811F0C4F8FE
:10054000204604F08DFF0A220146174811F03EF9BB
:10055000154811F0C9F80125C7E70021204604F02D
:1005600065FE13280FD81E21204604F0CFFE4FF45D
:1005700000527168204605F089F800224FF420519E
:10058000706802F0CFFE0195336801250095D3F81D
:10059000348094E806003B463046C047C1E700235C
:1005A0000393F0E70F940100CC0300202594010091
:1005B0001894010010B5044608466160002102F05D
:1005C00097F903B2002BBABF4042208123816068B3
:1005D00002F0ECF9608110BD08B511B9B0F908005E
:1005E00008BDB0F90A208A4203DC0089084400B241
:1005F000F6E7406802F07CF9F9E7000007B5002350
:1006000000931A461946034811F016F803B05DF836
:1006100004FB00BFD40200200A460068022100F05B
:10062000A3BD000070B503680546F3B17221FFF762
:10063000F3FF28680E4E03680021DB699847002409
:100640002868042C03680CD0DB689847A35D9842A7
:1006500005D0286803685B6A9847002070BD0134A4
:10066000EEE75B6A98470120F8E71846F6E700BF17
:10067000359401002DE9F041036804461BB90026BA
:100680003046BDE8F081FFF7CDFF07460028F6D0E1
:10069000254672212046FFF7BFFF55F8100B03686F
:1006A0000421DB69984704F11608002620680368D6
:1006B000DB689847C0B205F8010B0138C0B2FD28CD
:1006C00098BF3E46A845F1D1206803685B6A984709
:1006D000D6E7F8B5036804460F4613B90025284647
:1006E000F8BDFFF79FFF05460028F7D0722120468E
:1006F000FFF792FF206803682646DB6904219847CC
:1007000056F8100B036806225B68394698473B6829
:100710002361BB88B380206803685B6A9847DEE783
:1007200070B5036804460D46164613B900252846E1
:1007300070BDFFF777FF0028F8D072212046FFF741
:100740006BFF206803684021DB699847731E2A46C7
:100750000021206811F09CFA06B2206803685B6AE9
:100760009847002EE2D00023AB55E0E738B5036888
:1007700004460D460BB9002038BDFFF753FF002893
:10078000F9D0284615F0B3F80F28F4D87221204686
:10079000FFF742FF206803684021DB69984729463C
:1007A000206810F09AFF2068036800211B689847B2
:1007B0000546206803685B6A9847281C18BF01201B
:1007C000DAE738B5036804460D460BB9002038BD9A
:1007D000FFF728FF0028F9D0284615F088F80F28E1
:1007E000F4D872212046FFF717FF206803685021D4
:1007F000DB6998472946206810F06FFF206803687E
:1008000000211B6898470546206803685B6A984783
:10081000281C18BF0120DAE770B5036804460D46AE
:10082000164613B90025284670BDFFF7FBFE0028C9
:10083000F8D072212046FFF7EFFE206803682021E0
:10084000DB699847731E2A460021206811F020FAC0
:1008500006B2206803685B6A9847002EE2D0002346
:10086000AB55E0E738B5036804460D460BB90020E8
:1008700038BDFFF7D7FE0028F9D0284615F037F825
:100880001F28F4D872212046FFF7C6FE20680368AF
:100890002021DB6998472946206810F01EFF206858
:1008A000036800211B6898470546206803685B6A57
:1008B0009847281C18BF0120DAE773B5036805467E
:1008C0000E461BB90024204602B070BDFFF7AAFEF9
:1008D00004460028F6D072212846FFF79DFE2868BE
:1008E00003681021DB69984704220DEB0201286898
:1008F00011F0B9F90199304610F0BBFE2868036881
:100900005B6A98473379002BDCD0FF2BDBD17379FE
:10091000FF2BD8D1B379FF2BD5D1F479FF3C18BF89
:100920000124D0E773B5036805460E461BB90024C1
:10093000204602B070BDFFF775FE04460028F6D0D1
:1009400072212846FFF768FE286803681C21DB69CE
:10095000984704220DEB0201286811F084F90199EF
:10096000304610F086FE286803685B6A9847337942
:10097000002BDCD0FF2BDBD17379FF2BD8D1B379DF
:10098000FF2BD5D1F479FF3C18BF0124D0E773B514
:10099000036805460E461BB90024204602B070BD10
:1009A000FFF740FE04460028F6D072212846FFF7E4
:1009B00033FE286803681421DB69984704220DEB95
:1009C0000201286811F04FF90199304610F051FEEC
:1009D000286803685B6A98473379002BDCD0FF2BCB
:1009E000DBD17379FF2BD8D1B379FF2BD5D1F47933
:1009F000FF3C18BF0124D0E773B5036805460E46D7
:100A00001BB90024204602B070BDFFF70BFE044660
:100A10000028F6D072212846FFF7FEFD28680368FB
:100A20001821DB69984704220DEB0201286811F0B8
:100A30001AF90199304610F01CFE286803685B6AB9
:100A400098473379002BDCD0FF2BDBD17379FF2B58
:100A5000D8D1B379FF2BD5D1F479FF3C18BF01244D
:100A6000D0E737B54B6801930368044613B90020FB
:100A700003B030BDFFF7D6FD0028F8D07221204624
:100A8000FFF7CAFD206803681021DB6998472068DA
:100A9000036804225B680DEB020198470546206855
:100AA00003685B6A9847281C18BF0120E0E737B548
:100AB0004B6801930368044613B9002003B030BDAE
:100AC000FFF7B0FD0028F8D072212046FFF7A4FD03
:100AD000206803681C21DB699847206803680422AA
:100AE0005B680DEB020198470546206803685B6A66
:100AF0009847281C18BF0120E0E737B54B680193E1
:100B00000368044613B9002003B030BDFFF78AFD27
:100B10000028F8D072212046FFF77EFD2068036888
:100B20001421DB6998472068036804225B680DEB99
:100B3000020198470546206803685B6A9847281CAD
:100B400018BF0120E0E737B54B68019303680446FE
:100B500013B9002003B030BDFFF764FD0028F8D0C2
:100B600072212046FFF758FD206803681821DB69D1
:100B700098472068036804225B680DEB02019847E0
:100B80000546206803685B6A9847281C18BF012047
:100B9000E0E713B57723009303680446A3B1FFF79A
:100BA00041FD88B172212046FFF736FD20680368B9
:100BB0000C21DB69984704226946206811F053F83C
:100BC000206803685B6A9847009B0020DAB262F3F2
:100BD0000700C3F3072262F30F20C3F3074262F357
:100BE00017401B0E63F31F6002B010BD37B50191B3
:100BF0000368044613B9002003B030BDFFF712FDAF
:100C00000028F8D072212046FFF706FD206803680F
:100C10000C21DB6998472068036804225B680DEBB0
:100C2000020198470546206803685B6A9847281CBC
:100C300018BF0120E0E707B5FFF7ABFF80F40070B5
:100C4000C0F3402003B05DF804FB37B505460C4601
:100C5000FFF79FFF84F001040190C0F3072064F3C5
:100C600041008DF805000199284603B0BDE83040E9
:100C7000FFF7BCBF07B5FFF78CFFC0F3802003B0C0
:100C80005DF804FB37B50D460446FFF782FF01907F
:100C9000C0F3072065F382008DF805000199204616
:100CA00003B0BDE83040FFF7A1BF07B5FFF771FF04
:100CB00080F48070C0F3002003B05DF804FB37B50A
:100CC00005460C46FFF765FF84F001040190C0F370
:100CD000072064F300008DF805000199284603B051
:100CE000BDE83040FFF782BF37B50D460446FFF739
:100CF00050FF019065F303008DF804000199204630
:100D000003B0BDE83040FFF771BF37B50D4604466C
:100D1000FFF73FFF019065F307108DF8040001997C
:100D2000204603B0BDE83040FFF760BF07B5FFF7CE
:100D300030FF00F00F0003B05DF804FB07B5FFF7CC
:100D400028FFC0F3031003B05DF804FB70B51E4D1F
:100D50000C468AB0064604341C49284610F0B4FC00
:100D6000214607A811F0D1F907A9284610F0B0FCD8
:100D70002846174D10F0B8FC07A811F036F929469F
:100D800001A811F077F901A904A811F0BEF92146D4
:100D900004A811F0FAF92946044607A811F06AF9E7
:100DA00007A9204611F0F1F90146304611F0ADF9DE
:100DB00007A811F01AF904A811F017F901A811F009
:100DC00014F930460AB070BDCC0300203A940100FB
:100DD000459401007FB50D4604462221284611F0B6
:100DE00029FA22210646284611F03EFA002E034633
:100DF00004F1040422DB002820DD721C294601A82E
:100E000011F036FA01A9204611F089F901A811F074
:100E1000ECF80D490D4810F057FC214601A811F0DF
:100E200074F901A9094810F053FC084810F05CFC63
:100E300001A811F0DAF8012004B070BD294620465F
:100E400011F054F9E5E700BF47940100CC030020FE
:100E50007FB503680446002B39D07721FFF7DCFB10
:100E6000206803680021DB69984700252068026933
:100E70000368954204D21B68002198470135F5E7C5
:100E8000DB69144E0021984700252068715D0368D6
:100E900001351B689847042DF7D1206803685B6A09
:100EA00098470D4901A811F0E5F801A92046FFF780
:100EB00091FF01A811F099F807212046FFF714FFD0
:100EC00007212046FFF721FF012004B070BD18461E
:100ED000FBE700BF359401001EB401007FB5036835
:100EE000044613B9002004B070BDFFF79BFB002837
:100EF000F8D0E3681F2BF5D8264672212046FFF76D
:100F00008BFB56F8040B03686021DB699847314678
:100F1000206810F0DDFB2068036800211B689847FB
:100F20000546206803685B6A98478DB10A490B48FB
:100F300010F0CAFB314601A811F0E7F801A90748F3
:100F400010F0C6FB054810F0CFFB01A811F04DF8DA
:100F5000281C18BF0120C6E75F940100CC030020C5
:100F600030B5036885B0044613B9002005B030BD24
:100F7000FFF758FB0028F8D0254672212046FFF7DE
:100F80004BFB55F8040B03686021DB69984700228E
:100F9000216801A810F096FE01A9284611F0BFF8BB
:100FA00001A811F022F8206803685B6A98470B4992
:100FB0000B4810F089FB294601A811F0A6F801A9F9
:100FC000074810F085FB064810F08EFB01A811F0D1
:100FD0000CF8E068003018BF0120C7E75294010008
:100FE000CC03002007B5002300931A461946034896
:100FF00010F022FB03B05DF804FB00BFDC02002010
:1010000007B5002300931A461946034810F014FB55
:1010100003B05DF804FB00BFE4020020012070472C
:10102000C08A70470369994228BF19468161084602
:101030007047037D10B5044633B9A069236998420F
:101040002CBF0020012010BD03681B699847FF28B2
:10105000F3D10020F7E7036810B504461B699847F1
:10106000A3690133A36110BD7047000008B5026990
:101070008369934205D2C169034819440FF0C5FE44
:1010800008BD4FF0FF30FBE7EC02002010B5D0E9BF
:1010900006345A1C82610A460248E1180FF0B7FE76
:1010A000012010BDEC020020037D10B504462BB1D9
:1010B0000368FF211B6898470023237510BD0000BB
:1010C00008B590F82020772A0BD10368DB6A98478F
:1010D0000449054810F0F8FA0348BDE8084010F04C
:1010E00003BB08BD84940100CC030020F0B50D467D
:1010F00085B004463F212846174611F09BF8031E91
:101100000BDB0022294601A811F0B2F801A92846FC
:1011100011F005F801A810F068FF1149284611F0F8
:1011200040F8064660B10023A3614FF4FA432361FF
:1011300001208423E361207584F8207005B0F0BDA0
:101140000849284611F02DF80028F7D08423C4E977
:1011500006662361267584F820700120EEE700BF43
:101160006B9401007894010001294FF0000303D033
:1011700002290CD01846704783614FF4FA4303618B
:101180008423C361017580F82020012070478421E9
:10119000C0E9063301610375F5E7000007B50023D8
:1011A00000931A461946044810F046FA034803B063
:1011B0005DF804EB0FF026BEED020020EC020020EB
:1011C00038B50023836083808371036804460D462D
:1011D00013B3204A1268FAB1002908BF1D462B7CC0
:1011E00003F00F03062B17D11B4A1C4829460EF0AB
:1011F000CFFC08B143692371194A184829460EF0FB
:10120000C7FC10B3037C03F00F03022B05D0052BA2
:1012100006D023681433A36038BD43696371F8E7CF
:10122000C368002BF5D01A7C02F00F02022AF0D11D
:101230005A696271DB68002BEBD01A7C02F00F0256
:10124000022AE6D15B69A371E3E7286813F023F96A
:101250006071DEE79404002030B30100D407002061
:10126000D094010010B50A46044659B1064B074810
:1012700019680EF08DFC206020460021FFF7A0FFCA
:10128000204610BD2160F7E734040020D407002079
:1012900010B5044601601146FFF792FF204610BDCD
:1012A000016838B5054621B3124B1B680BB30B7CA4
:1012B00003F00F03062B1CD10F4A10480EF068FCF8
:1012C0002B79202B044614D198B1406988B1237C36
:1012D00003F00F03052B0CD111F088F80023636194
:1012E0000749084810F0F0F90648BDE8384010F00A
:1012F000FBB938BD94040020D0940100D40700202D
:1013000073950100CC03002070B5044686B030B35D
:10131000037C03F00F03062B21D106A8002140F81F
:10132000184DFFF74DFF029B0E4A0F4800261E6026
:1013300021460EF02DFC90B1037C03F00F03053B1A
:10134000012B0CD8C56855B1214603A80395FFF7BA
:1013500037FF059B1E6011F007F86D68F3E706B0D4
:1013600070BD00BFC0940100D407002001682DE9C2
:10137000F041002959D02E4B1B68002B55D00B7C17
:1013800003F00F03062B50D12A4A2B480EF000FC25
:101390000446002849D04369002B46D1037C03F062
:1013A0000F03052B41D14FF0FF3201210AF05AFA09
:1013B0004FF0FF320646022120460AF053FA01227E
:1013C0000546032120460AF04DFA002E07462CDB85
:1013D000002D2ADB242011F007F83B462A468046E0
:1013E000314610F097F8C4F814801449144810F0EE
:1013F0006BF90A223146124810F0CFF91149104812
:1014000010F06BF90A2229460D4810F0C6F90E4972
:101410000B4810F059F939460A22094810F0BDF975
:101420000748BDE8F04110F05FB9BDE8F08100BFAA
:1014300094040020D0940100D407002052950100AC
:10144000CC0300206A9501006C950100836810B5FB
:1014500004465BB31E4B1B6843B30068FFF754FFA1
:101460001C491D4810F030F90A2261791A4810F021
:10147000ADF91A49184810F027F9217916480A22BF
:1014800010F0A4F9144810F02FF9A3680021196096
:101490002379032B0BD8012B98BF0221607911F01F
:1014A000FBF8A3685A786FF303025A7010BD402B03
:1014B00008D0422B07D0202BF8D12046FFF756FF4B
:1014C0000221EBE702216079BDE8104011F0E4B899
:1014D000940400207F950100CC030020C0A20100ED
:1014E00041790C4A002352F82300884203D10A4A6A
:1014F00052F82300704752F8230028B942F823100D
:10150000054A42F8230070470133052BEBD1002038
:10151000704700BF040300201803002010B50A4ADA
:101520004079002352F82340844203D1074A42F80D
:10153000231010BD52F8234014B952F82320F5E7C8
:101540000133052BEED1F4E704030020180300203B
:10155000F0B52DED028B9DB00446FFF7C1FF0546A7
:1015600010F0ACFE0023014643F69822284609F00D
:10157000B5FE002800F0E98006231622617907A84D
:101580000FF03CFA372107A80FF048FA0022114665
:1015900007A80FF05DFB002108EE900A07A80FF0E6
:1015A000EFFB6C4908EE100A6B4810F08DF80A2228
:1015B0006179694810F00AF96849674810F084F8C1
:1015C00018EE900A12F0A6FB022502460B46009583
:1015D000614810F0B7F962495F4810F075F818EEED
:1015E000100A12F097FB00950B4602465A4810F07D
:1015F000A9F95C49584810F067F8574810F074F89A
:10160000594A216859480EF0C3FA594A21680746D9
:1016100056480EF0BDFAF4EE688AF1EE10FA06466E
:1016200010D60CAD18EE901A284603F0DAFB002312
:10163000CDE90133009395E80C004FF0FF313846B7
:1016400009F05CFEB4EE488AF1EE10FA10D60CAD4B
:1016500018EE101A284603F0C4FB0023CDE901332D
:10166000009395E80C004FF0FF31304609F046FE3C
:10167000404A21683D480EF08BFA054600285ED0AE
:10168000037C03F00F03042B59D1F5EE408AF1EEF1
:1016900010FA54D0B5EE408AF1EE10FA4FD0F4EEC5
:1016A000688AF1EE10FA4AD1B4EE488AF1EE10FAE7
:1016B00045D100213C220DA80C9113F072F9696903
:1016C00040220CA814F041F92F210CA814F0D4F8F2
:1016D00028B96B69032240210CA809F067FD26494F
:1016E0000CA814F0BAF804A818EE901A09F0ECFC53
:1016F00022480EF0CDFD40B1214B93F9003023B9C3
:1017000004AA0CA91D480FF00BF80CA814F0EFF870
:101710001CAB1844482300F8413C18EE101A04A8EA
:1017200009F0D2FC15480EF0B3FD40B1144B93F90B
:10173000003023B904AA0CA910480EF0F1FF10F0F4
:10174000BDFD01462046FFF7E9FE1DB0BDEC028B52
:10175000F0BD00BF40950100CC030020849501003E
:10176000949501009B9501009D950100D4070020F0
:10177000A2950100A695010030B3010044040020A9
:1017800014040020016810B5044669B1074A0848EE
:101790000EF0FEF938B1037C03F00F03053B012B7B
:1017A00001D8416901B92168084610BDC094010003
:1017B000D407002070B50D460168064609B900201F
:1017C00070BD0C4A0C480EF0E3F904460028F6D030
:1017D000037C03F00F03053B012BF0D845B16A1ED3
:1017E0000146D2B204480EF0C9F960610120E7E772
:1017F0003068FAE7C0940100D407002070B50D46A8
:101800000168064609B9002070BD0C4A0C480EF06C
:10181000BFF904460028F6D0037C03F00F03062B23
:10182000F1D14DB12B783BB101462A4604480EF068
:10183000AFF960610120E7E73068FAE7C094010082
:10184000D407002038B505460C4631B10B7C03F0B7
:101850000F03022B03D0042B1CD0002038BD1A49E3
:101860001A480FF031FF0A22697918480FF0AEFFCD
:10187000174916480FF031FF616914480A220FF02A
:101880006AFF12480FF030FF61692846BDE8384012
:10189000FFF790BF0C490D480FF016FF0A22697937
:1018A0000A480FF093FF0A4908480FF016FF6169D4
:1018B00006480FF012FF05480FF016FF6169284631
:1018C000BDE83840FFF79ABF2C950100CC030020FB
:1018D000AEA7010030B5224A85B0054621480EF07A
:1018E00057F9044608B9002038E0037C03F00F03E1
:1018F000042B03D0052B04D0022BF4D1214628461B
:101900002AE0002109F094FF05460028EBD00146AB
:1019100001A8FFF7A7FC144914480FF0DEFE294682
:1019200012480FF0DAFE124910480FF0D6FE039964
:101930000E4800314FF00A0218BF01210FF02DFFB1
:101940000A480FF0D1FE039840B121460122054814
:101950000EF014F9014601A8FFF774FF05B030BD81
:1019600044950100D40700204D950100CC030020D0
:10197000149A01002DE9F04F054600688BB08846A7
:1019800093461F4640B1A86830B10378FF2903F0A1
:10199000100337D11BB901200BB0BDE8F08F032A2B
:1019A000F9D090F80180A749A7480FF08DFE0A22D0
:1019B0006979A5480FF00AFFA449A3480FF084FEF7
:1019C000AB68A14859780A2201F00F010FF0FEFE22
:1019D0004FEA18189E499C480FF076FE0A224146AD
:1019E00099480FF0F3FE98480FF07EFEAB685A78E6
:1019F00002F00F02424507D11A786FF304121A70F1
:101A00000020C9E7002BFBD100220DF11809114677
:101A1000484603F0D9F9AB685B7803F00F03434500
:101A200023D0BBF1030F20D08A4987480FF04CFE2A
:101A30000A22697984480FF0C9FE844982480FF070
:101A400043FEAB68804859780A2201F00F010FF07D
:101A5000BDFE7F497C480FF037FE0A2241467A4896
:101A60000FF0B4FE78480FF03FFEB8F10C0F00F213
:101A7000BE80DFE808F0073EA2B0B2A27FA2B4B6F3
:101A800091B8BA00AB685B7803F00F03023B082BF8
:101A900027D8DFE803F0052626AC261026261B00F3
:101AA0006D4A6E4839460EF073F8AB681C780646EE
:101AB00004F0010431E06A4A684839460EF068F8DB
:101AC000AB681C780646C4F3400426E0654A6348C8
:101AD00039460EF05DF8AB681C780646C4F3800406
:101AE0001BE0614A5D4839460EF052F80646002474
:101AF00013E05E4A594839460EF04AF8AA6813784E
:101B0000D94303F0010461F300031370064620B9C2
:101B10000122494608A803F054FD3946544A4F486B
:101B20000EF036F83946534A82464C480EF030F8EB
:101B300039460590504A49480EF02AF8059B074659
:101B40003BB9BAF1000F04D15246494608A803F048
:101B500038FD002E4ED1484603F0D3FA002849D173
:101B6000AB685A7868F303025A701A7866F3041265
:101B70001A7010E7414A394839460EF009F8A96849
:101B80000B7883F00202C2F34002C3F3400406461E
:101B900062F341030B70C0E7394A304839460DF013
:101BA000F7FFA9680B7883F00402C2F38002C3F345
:101BB0008004064662F38203ECE72B4A2748394645
:101BC0000DF0E6FF0646002891D10222494608A8FA
:101BD00003F0F7FC8BE72B4A63E72B4A61E72B4ABC
:101BE0006AE72B4A68E72B4A71E72B4A6FE7002424
:101BF000264692E7AB68BBF1030F5A7815D068F31D
:101C000003025A701A786FF304121A70314628468C
:101C1000FFF760FE059B0297CDE900A3214699E8F6
:101C20000C00304609F06AFBB5E602F00F014145B1
:101C30003FF4B1AE68F307125A701A7842F01002FE
:101C400096E700BFC8940100CC030020AE950100C8
:101C5000D2940100D0940100D6940100D407002052
:101C6000D5940100DC940100E3940100E8940100A4
:101C70001E950100A695010023950100ED94010039
:101C8000F3940100F9940100FE9401000495010011
:101C90000A95010011950100179501002DE9F04307
:101CA000614A95B006468846016860480DF070FFAD
:101CB0005F4A316881465D480DF06AFF5D4A3168D0
:101CC00007465A480DF064FFB9F1000F02D10FB971
:101CD00000287BD0584A316854480DF059FF574AC4
:101CE0003168054651480DF053FF554904465548A3
:101CF0000FF0EAFC0A22717952480FF067FD524951
:101D000050480FF0E1FC0A2241464E480FF045FDD5
:101D10004C480FF0E9FC5FB33B7C03F00F03042B4E
:101D200026D14022796904A813F00FFE47480EF02F
:101D3000AFFAE8B1464B93F90030CBB92F2104A894
:101D400013F09AFD28B97B690322402104A809F009
:101D50002DFAB8F1000F42D025B12B7C03F00F0310
:101D6000042B36D03B4A012304A938480EF0EDFC81
:101D7000B9F1000F2AD099F8103003F00F03042BAB
:101D800024D1354BD9F814101A6804A802F068FF62
:101D900004A800F0C7FEB0B1B8F1000F34D025B1EF
:101DA0002B7C03F00F03042B24D002AC0122002172
:101DB000204603F009F80023CDE9003304A894E895
:101DC000060001F08BFD04A801F0A2FB15B0BDE8F0
:101DD000F0836A691378002BCAD00123C4E724B1C9
:101DE000237C03F00F03042B02D001231B4ABBE723
:101DF0006269EFE769690B78002BE4D000231A468B
:101E000004A802F003FDDEE724B1237C03F00F03F6
:101E1000042B02D002AC0222C9E761690B78002BC7
:101E2000D1D04346EBE700BF1E950100D407002048
:101E3000A695010023950100E8940100E3940100B8
:101E400039950100CC0300207AAD01004404002044
:101E5000140400207CAC0100380400208DAC01008B
:101E600070B59AB0054604AC84E806003A483B4990
:101E70000FF02AFC0A22697937480FF0A7FC38498D
:101E800035480FF021FC204603F09AFD2968354AB9
:101E900035480DF07DFE0023CDE90133009394E831
:101EA0000C004FF0FF3109F029FA29682F4A2E481B
:101EB0000DF06EFE29682E4A06462B480DF068FE8E
:101EC000054658B3037C03F00F03042B26D1416968
:101ED00040220AA813F039FD2F210AA813F0CCFCE8
:101EE00028B96B69032240210AA809F05FF9002391
:101EF000009310224FF4005306A9204603F04CFC37
:101F00001C480EF0C5F948B11B4B93F900302BB9B2
:101F1000012306AA0AA917480EF017FCCEB1337C9C
:101F200003F00F03042B14D1144B71691A680AA82B
:101F300002F096FE0AA800F0F5FD38B10023CDE9C5
:101F400000330AA894E8060001F0C8FC0AA801F0D2
:101F5000DFFA1AB070BD00BFCC030020409501002D
:101F60007AAD0100C0940100D40700201E95010045
:101F7000A695010044040020140400203804002029
:101F800010B503788B42044604D14378402B01D12D
:101F9000408810BD402321706370084610F086FA17
:101FA00080B26080F5E700002DE9F047032986B094
:101FB00007466DD00168624A62480DF0E9FD3B7941
:101FC000BA79797906466048FFF7DAFF05B2002E44
:101FD0006CD0337C03F00F03052B67D13146594891
:101FE0000DF0C2FD032856D90022314655480DF0A8
:101FF000C5FD01224469534831460DF0BFFD022260
:10200000D0F814A04F4831460DF0B8FD43694D4853
:102010004FF00A080322314608FB03F90DF0AEFD2C
:10202000436908FB03F82146CDF800804B46524631
:1020300028460FF0D0FF0446314642480DF094FD8B
:10204000052830D1042231463E480DF097FDB0F905
:1020500014A03C484445C4BF444640F2FF353146D5
:102060004C45BCBF4C4600250DF07EFD022826D114
:102070000022314633480DF081FD4369AB424FDC0D
:10208000012231462F480DF079FD4369AB4254DB04
:1020900006B0BDE8F08705EB850464004FF0000949
:1020A0004FF42058C8E74FF0010AD2E705EB85044A
:1020B00064004FF000094FF420584FF0010ABB684C
:1020C000B3F902002A1A002AB8BF5242524507DC6F
:1020D0001A785109052907D8013161F3471202E046
:1020E0001A786FF347121A701B789F2B03D94C454F
:1020F00001D04445CCD1A842CAD00022114604AE3A
:1021000002A802F061FE224602A9304603F0E5F97A
:1021100096E806003846FFF7A3FEBB685D80B7E788
:102120000024BB68B3F90230A342B1D0214638463F
:10213000FFF7B4FDBB685C80AAE70124F1E700BFAC
:10214000C4940100D40700202C03002083682DE9EB
:10215000F04704460E469146002B00F0D0810379EB
:10216000072B02D1042940F0CA81BB4F3B780133D1
:10217000DBB220463B70FFF705FB324603460546BF
:10218000FF212046FFF7F6FB637922790E3B072BF0
:10219000C2F3400801D9072A34D1B04A2168B048B7
:1021A0000DF0F6FC824668B3037C03F00F03052BA9
:1021B00028D12379A2796179AA48FFF7E1FE0022AC
:1021C00080465146A6480DF0D9FC4369984523DA6C
:1021D0004FF00008032E00F09180A3685A7802F0B7
:1021E0000F02013A0B2A60D8DFE812F02300230126
:1021F00048009A002301A2002301C200D400DC00A1
:1022000008011B01607910F081FAA8EB0002D2F1FD
:10221000000848EB0208DDE70122514690480DF026
:10222000ADFC43699845CCBF4FF000084FF0010862
:10223000D0E7B3F802A010F041F84FF6FF7381B277
:102240004FF47A72504609F049F870B3864A216813
:1022500083480DF09DFC30B12B46324603212046C9
:10226000FFF788FB21E0814A7D4829460DF090FC6C
:102270000028F1D12B4632460D21F0E7B3F802A039
:1022800010F01CF84FF6FF734FF4967281B250466F
:1022900009F024F848B12B46324604212046FFF7C6
:1022A00069FB10F00BF8A3685880B9F1000F25D036
:1022B00048460FF04EF9431C00F0E88001281DD17C
:1022C0006B4A674829460DF063FC814638B10146E8
:1022D0002046FFF7FFFA0021484609F023FA654A35
:1022E0005F4829460DF054FC814638B1014620462E
:1022F000FFF7F0FA0021484609F014FAA2681378B3
:10230000C3F3C001414500F0688113F0E00F00F015
:10231000CE80C3F34211013961F347131370EAE031
:10232000B3F802A00FF0CAFF4FF6FF739622ADE795
:10233000B3F802A00FF0C2FF4FF6FF7381B24FF463
:102340007A72504608F0CAFF0028AED04A4A444884
:1023500029460DF01DFC18B12B46324608217EE7B8
:10236000464A3F4829460DF013FC0028F4D181E786
:10237000B3F802A00FF0A2FF4FF6FF734FF496726E
:1023800081B2504608F0AAFF00288ED02B46324674
:10239000092183E7B3F802A00FF090FF4FF6FF7317
:1023A0009622EDE7B3F802A00FF088FF4FF6FF7317
:1023B00081B24FF47A72504608F090FF00283FF443
:1023C00074AF2F4A264829460DF0E2FB18B12B4680
:1023D00032460B2143E72B4A214829460DF0D8FB12
:1023E0000028F4D1284A1E4829460DF0D1FB2B467F
:1023F000324600287FF440AF062130E7B3F802A050
:102400000FF05CFF4FF6FF734FF4967281B25046A7
:1024100008F064FF00283FF448AF2B4632460C21F9
:102420003CE7B3F802A00FF049FF4FF6FF73962286
:10243000ECE7B3F802A00FF041FF4FF6FF7381B253
:102440004FF41672504608F049FF00283FF42DAFB4
:102450002B463246002102E700030020C49401000D
:10246000D40700202C030020F9940100FE94010001
:10247000279501002A950100049501000A950100A5
:102480001195010017950100F3940100544A554835
:1024900029460DF07DFB814638B101462046FFF705
:1024A00019FA0121484609F03DF94F4A18E70FF0A3
:1024B00005FFA36858805B7803F00F03B8F1000FA5
:1024C0003CD0072B12D8DFE803F0311104111104BE
:1024D0001135464A434829460DF05AFB88B12B4630
:1024E000324606212046FFF745FA20B1A3681A7844
:1024F00068F3C3021A703B78013BDBB23B70BDE866
:10250000F0873B4A374829460DF042FB0028E6D1C8
:10251000384A344829460DF03BFB0028DFD1364AC3
:10252000304829460DF034FB0028D8D12B463246DE
:102530000121D7E72B4632460A21D3E7013B0C2B7A
:10254000D4D801A252F823F07D250000ED2400002C
:102550008525000085250000ED2400008D25000064
:10256000ED240000D3250000D3250000D325000072
:10257000D3250000D3250000852500002B463246D8
:102580000221AFE72B4632460521ABE7174A154833
:1025900029460DF0FDFA18B12B4632460721A1E776
:1025A000134A104829460DF0F3FA0028F4D1114AD5
:1025B0000C4829460DF0ECFA0028EDD129460E4AC8
:1025C00008480DF0E5FA01460028E5D12B463246D1
:1025D00088E72B463246002184E702219CE600BFB3
:1025E00027950100D407002028950100ED940100F3
:1025F000049501000A950100D5940100836870B527
:1026000004460E46002B4AD04B1E032B0BD8DFE8A6
:1026100003F0400202370379402B12D005D8032B78
:1026200009D9202B12D000203BE0422B09D0FAD34D
:10263000803B032BF7D8002231462046FFF786FD6A
:10264000F1E731462046FFF7AFFCECE70168154A99
:1026500015480DF09DFA0546206810B3037C03F081
:102660000F03062BDFD1002DDDD02B7C03F00F03F1
:10267000052BD8D16869A0B10EF07EFF6A69DBE74F
:102680000379072BCFD10421FFF78EFC0022042110
:10269000D3E70379042BC6D1FEF75AFFC3E74FF007
:1026A000FF3070BDD0940100D407002000230380C8
:1026B0007047000013B500242346009422462146AB
:1026C00003480EF0B9FF034B1C805C8002B010BDC4
:1026D000F80200202C03002010B5044670B32049F6
:1026E00013F0D7F858B31F49204613F0D2F840B37F
:1026F0001D49204613F0CDF828B31C49204613F09D
:10270000C8F810B31A49204613F0C3F8F8B11949B4
:10271000204613F0BEF8E0B11749204613F0B9F88F
:10272000C8B11649204613F0B4F8B0B11449204698
:1027300013F0AFF8002814BF0020152010BD0120B1
:10274000FCE70220FAE70520F8E70620F6E7132069
:10275000F4E71420F2E70E20F0E70F20EEE700BFC9
:10276000BE950100C7950100E2950100EB950100BF
:102770006096010069960100339601003C960100C5
:102780007296010070B5054680B1047864B1084EB8
:10279000012404EB84013144284613F07AF818B17F
:1027A00001340E2CF5D10024204670BD0446FBE711
:1027B00096960100806910B103681B69184770473D
:1027C00008B50322416804480DF0D8F908B1007D2E
:1027D00008BDFF20FCE700BFD407002010B503228E
:1027E0000C46416809480DF0C9F970B1037C13F03B
:1027F0000D0F0AD1416921F07F41022221F0FF0132
:1028000062F3030321430374416110BDD407002028
:1028100010B503220C46416808480DF0AFF960B1CD
:10282000037C03F00F03022B01BF24F07F414069BA
:1028300021F0FF01084018BF002010BDD407002080
:1028400010B503220C46416809480DF097F970B1A4
:10285000037C13F00D0F0AD1022262F30303037409
:1028600024F07F41436921F0FF011943416110BD0C
:10287000D407002010B50446806968B103685B691D
:10288000984718B1A06903681B699847A069036855
:10289000DB68984708B9012010BD2046FFF790FF7C
:1028A00020B14FF480512046FFF7CAFFE368002BA8
:1028B000F1D04FF400512046FFF7C2FFEBE70000D4
:1028C00010B503220C46416808480DF057F958B17D
:1028D000037C13F00D0F07D1E143436941F07F41C1
:1028E00041F0FF011940416110BD00BFD407002035
:1028F00038B50C468168054609B9002038BD0B7C07
:1029000003F00F03022B03D1002CF6D14869F5E741
:10291000052BF2D105480DF027F98442EDDAE2B239
:10292000A96802480DF02AF94069E7E7D4070020BA
:1029300038B50D468168044621B9DFED1A7A17EEE5
:10294000900A38BD0B7C03F00F03052B15D11648F8
:102950000DF00AF9854210DAEAB2A16812480DF0CA
:102960000DF90028E9D0037C03F00F03022B0FD1EF
:10297000D0ED057AF8EEE77AE1E7002DDDD1A26827
:10298000137C03F00F03022B07D1D2ED057AF1E798
:10299000032BD2D1D0ED057AD1E7032BCDD1D2EDE7
:1029A000057ACCE700000000D407002008B5816854
:1029B00069B10B7C03F00F03022B06D0052B06D167
:1029C00004480DF0D1F800B208BD0120FCE700205A
:1029D000FAE700BFD407002008B5C16809B9002094
:1029E00008BD087C00F00F039A1E012A00D90BB91C
:1029F0000009F5E7052BF2D1002203480DF0BEF8DF
:102A00000028ECD0007CF3E7D4070020C26810B5A2
:102A1000BAB1137C03F00F039C1E012C00D983B9BB
:102A20005161C3681A7C022161F303021A74C268FF
:102A3000137C03F0F001602902BF0A2161F3071340
:102A4000137410BDC26810B5BAB1137C03F00F0344
:102A50009C1E012C00D983B95161C3681A7C0321E3
:102A600061F303021A74C268137C03F0F001602959
:102A700002BF072161F30713137410BDC36853B17C
:102A80001A7C02F00F02901E012800D91AB91A7C94
:102A900061F307121A74704708B5016909B900207B
:102AA00008BD0B7C03F00F03022B01D14869F7E747
:102AB000052BF4D1002203480DF060F80028EED079
:102AC0004069EDE7D40700202DE9F0410369044691
:102AD0000F46A3B941681248114E0DF045F805465E
:102AE000042D0CDC3046D4F804800DF083F8414608
:102AF0000246206130460DF05AF80135F0E72269B0
:102B000062B1137C13F00F0106D1022161F30303BC
:102B1000137423695F6101E00229FAD0BDE8F081F6
:102B2000D4070020406828B1007C00F00F00431F4C
:102B300058425841704770B5066805462F21304607
:102B400012F024FF044630B1002300F8013BBDE839
:102B50007040FFF717BE3046FFF714FE00B12C603F
:102B600070BD08B583693BB9007D052809D01428DC
:102B70000CBF0020FF2008BD1A681846126B904752
:102B8000F3E75020F7E7000008B505224168054843
:102B90000CF0F4FF20B1037C13F0F00018BF18090B
:102BA00008BD00BFD40700202DE9F7436D4685E836
:102BB000060041680646984619B9002003B0BDE8F2
:102BC000F0833948DFF8E0900CF0CEFF0446052C86
:102BD000776809DC48460DF00DF83946024648464C
:102BE0000CF0E5FF0134F2E7052239462E480CF0DF
:102BF000C5FF04460028E0D0284602F031FC0F282B
:102C0000DBD8284602F0C6FA002807DD237C13F043
:102C10000D0F19D003F00F03072B15D0237C234988
:102C200023486FF3071323740EF04EFD736820489A
:102C300019680EF052FD1F491D480EF045FD1C4855
:102C40000EF052FD0120B9E70FF038FB0746284689
:102C500002F0A0FAB8F1000F237C0CBF0222072279
:102C600062F30303384460612374284602F0F8FBE2
:102C7000237C114960F3071323740D480EF024FDE3
:102C800073680B4819680EF028FD0C4908480EF0CF
:102C90001BFD284602F07EFA0A22014604480EF087
:102CA0005AFD0749C8E700BFD4070020FB96010082
:102CB000CC030020029701000C970100A4AE010094
:102CC00019970100F0B587B06F4687E80600054602
:102CD00097E8030002AC84E8050038461E4602F07F
:102CE000BFFB01380C2839D8DFE800F0434D9BA525
:102CF00092073A38385664827200012E29D0072292
:102D0000214604A802F05DFC4C494D480EF0DCFC65
:102D1000204602F0A5FB0A22014649480EF056FD66
:102D2000484947480EF0D0FC204602F033FA0A2208
:102D3000014643480EF00FFD41480EF0D5FC9DF8CA
:102D4000303094E806002846FFF72EFF012007B038
:102D5000F0BD2846FFF718FF0028D0D10020F6E785
:102D60000EB10622CCE72846FFF70EFF0028F8D167
:102D7000F4E7012E01D00222C2E72846FFF704FF44
:102D80000028F8D1EAE70EB10122B9E72846FFF79B
:102D9000FBFE0028F8D1E1E74FF480712846FFF7E9
:102DA00037FD08B10B22ABE72846FFF7EDFE002800
:102DB000F8D1D3E74FF480712846FFF729FD08B911
:102DC0000A229DE72846FFF7DFFE0028F8D1C5E775
:102DD0004FF4C0612846FFF71BFDB0F5C06F01D06E
:102DE0000C228DE72846FFF7CFFE0028F8D1B5E783
:102DF0004FF4C0612846FFF70BFDB0F5C06F01D15D
:102E00000D227DE72846FFF7BFFE0028F8D1A5E791
:102E10000EB1032274E72846FFF7B6FE0028F8D16A
:102E20009CE7012E01D005226AE72846FFF7ACFE99
:102E30000028F8D192E7042262E700BF4A97010018
:102E4000CC0300205E97010018B1034903480EF03F
:102E50003BBC0349FAE700BFAB950100CC0300205F
:102E6000B09501002DE9F0439FB04FF0000802AC8F
:102E700084E80600269FCDF82480102241460646AD
:102E80000AA81D4611F08DFDAA49AB488DF8208097
:102E9000CDE906880EF021FC3946A7480EF01DFC4E
:102EA000A649A5480EF019FC204602F089FDEA0467
:102EB0001AD5204602F0D4FA172800F2CE8001235A
:102EC00003FA00F09E4B18420AD19E4B0340002BA0
:102ED00040F0C78010F0240F00F0BF809A4900E056
:102EE0009A4906A812F0DFFC99480DF0D1F90028A4
:102EF00000F0AB80974B93F900209846002A40F0F1
:102F0000A480002F44D13B46032240210EA808F0A4
:102F10004DF973683F2219680EA812F0F0FCAB045B
:102F200040F1AE80204602F09BFA022800F0A88013
:102F3000204602F095FA052800F0A280204602F013
:102F400091FA012840F090804FF001094FF40053AE
:102F5000142209A9CDF80090204602F01DFC4B4632
:102F600009AA0EA97A480DF0F0FB7B4972480EF0D1
:102F7000ABFB0EA970480EF0B0FB78496E480EF01E
:102F8000A3FB09A96C480EF0A8FB6B480EF0ACFB44
:102F9000204602F0C5F805F4801908B1A90403D44D
:102FA000B9F1000F00F0A5800023032240210EA8F4
:102FB00008F0FCF873683F2219680EA812F09FFC15
:102FC00047B167490EA812F048FC3F2239460EA8C7
:102FD00012F095FC62490EA812F03FFCB9F1000F07
:102FE00068D060493F220EA812F089FC204602F00A
:102FF00039FA0438012867D81722214604A802F0BC
:10300000E0FA002300934FF44053142209A920460C
:1030100002F0C2FB504948480EF056FB0EA9464844
:103020000EF05BFB4D4944480EF04EFB09A94248A7
:103030000EF053FB40480EF057FB45480DF028F9C1
:1030400018B198F90030002B48D030462946FFF7D8
:10305000F7FB00201FB0BDE8F083434936480EF06F
:1030600033FB25F480553FE7204602F0FBF90228A8
:103070003FF46AAF204602F0F5F908283FF464AF48
:10308000E80485D59DF81830002B81D0012306AACD
:103090000EA92F480DF059FB2F4927480EF014FBBD
:1030A0000EA925480EF019FB2C4923480EF00CFB05
:1030B00006A967E7204602F08BFA07284FF03F0287
:1030C0000CBF2A492A498EE70023B9F1000F00936B
:1030D0000CBF4FF400534FF4405396E70EA9012361
:1030E00009AA1B480DF031FB4FF400513046FFF7A1
:1030F000E7FBEA0440F18A80204602F0B1F901388A
:1031000014283BD8DFE810F0DF003A003A003A001C
:103110003A00DF003A003A003A003A003A003A003A
:103120003A00E300DD003A003A003A003600D900E8
:10313000DB0000BF1D970100CC030020AE9501000D
:1031400042C0380001008000C7950100BE95010013
:10315000440400201404002044970100D29401008C
:10316000C0A20100AA9601002A970100B9960100A9
:10317000A09601005C4906A812F095FB00230322EB
:1031800040210EA808F012F873683F2219680EA8B3
:1031900012F0B5FB47B155490EA812F05EFB3F2275
:1031A00039460EA812F0ABFB50490EA812F055FBA1
:1031B0003F224F490EA812F0A2FB4E494E480EF096
:1031C00083FA0EA94C480EF088FA4C494A480EF092
:1031D0007BFA06A948480EF080FA47480EF084FAB8
:1031E00047480DF055F800283FF42FAF98F900300C
:1031F000002B7FF42AAF0EA9012306AA40480DF048
:10320000A4FA4FF480513046FFF75AFB6B0452D5B5
:103210004FF480713046FFF7FBFA002859D0394946
:1032200006A812F040FB0023032240210EA807F05D
:10323000BDFF73683F2219680EA812F060FB47B10A
:103240002A490EA812F009FB3F2239460EA812F0B7
:1032500056FB26490EA812F000FB3F222A490EA871
:1032600012F04DFB234924480EF02EFA0EA92248F5
:103270000EF033FA214920480EF026FA06A91E481E
:103280000EF02BFA1C480EF02FFA1D480DF000F836
:1032900000283FF4DAAE98F90030002B7FF4D5AE69
:1032A0000EA9012306AA16480DF04FFA4FF48041EB
:1032B0003046FFF705FB0120CCE614495BE71449D3
:1032C00059E7144957E7337D052B7FF457AF12496F
:1032D00051E74FF4C0613046FFF79AFAB0F5C06F7E
:1032E0000CBF0E490E499BE760960100C0A2010089
:1032F0009B96010044970100CC030020D29401006A
:103300004404002018960100C3960100699601004C
:10331000729601003C960100339601002A96010046
:103320000F9601002DE9FF41CB070C4644BF21F465
:10333000006424F0010414F40068054617460DD01B
:1033400004F4E0412846FFF77BFA154915480EF0D2
:10335000BBF94FF0FF3004B0BDE8F08107F0ADFEDF
:103360009528EDD903F0FCF80028E9D002AE4246DA
:103370004146304601F028FD4FF440522946304680
:1033800002F02FF94FF4E0412846FFF741FA009789
:1033900044EA000396E806002846FFF763FDDAE7F3
:1033A000DC960100CC03002010B54FF440510446D8
:1033B000FFF72EFA014678B1084B93F90030062B3F
:1033C0000AD120460022FFF7ADFF20464FF44051BE
:1033D000BDE81040FFF774BA10BD00BF3C040020E8
:1033E00083691BB11A681846126B1047007D70473D
:1033F000F0B54FF4004185B00546FFF709FA002803
:1034000047D0002202AC1146204601F0DDFC4FF40B
:1034100040522946204602F0E4F8AB69002B38D030
:103420004FF400412846FFF74BFA1B491B480EF0AA
:103430004BF9A869002301260268CDE90063176AE9
:1034400094E80600B847431C044622D06B68134832
:1034500019687CB90EF041F9114910480EF034F9A1
:1034600010490E480EF030F90C480EF03DF9204698
:1034700005B0F0BD0EF031F9094908480EF024F905
:10348000094906480EF020F904480EF02DF934469B
:10349000EDE70224EBE700BFED960100CC0300202E
:1034A000B0AC010017A40100FF9C010010B5044658
:1034B000084681B1FFF736FB68B10B7D162B0BD8A0
:1034C000112B06D80121054A99400A40002A18BF4D
:1034D000002354F8230010BD0020FCE70600020082
:1034E00070B50D4699B18C698CB1FFF7DFFF70B1F3
:1034F00042682368954205D12046DB690021BDE87A
:103500007040184720465B68BDE87040184770BDA2
:1035100010B5836904461BB101460248FFF7E0FF7E
:10352000204610BD380300200C2908B518D003D858
:1035300003290CD0002012E0102918D01229F9D14B
:103540000C200EF051FF002343600C4B06E00C20D2
:103550000EF04AFF0023C0E90133094B036008BDA8
:1035600014200EF041FF00234360064BF6E70846A7
:103570000EF03AFF00234360034BEFE7A4AD0100D8
:10358000F8AD010020AC010060AE010070B5064648
:103590000D4611B90024204670BD0846FFF7C2FA57
:1035A0000028F7D03046FFF781FF044670B143682A
:1035B00033B1297D3046FFF7B7FF04460028E9D034
:1035C00023682946DB6920469847E4E7297D304691
:1035D000FFF7AAFF04460028DCD02B7D46F8230025
:1035E000EEE70000F8B50446FFF79CFA40B36168C7
:1035F0001448144F0CF0B8FA0546032D666809DC30
:1036000038460CF0F7FA3146024638460CF0CFFA4D
:103610000135F2E7F06808B14368A360A3680BB115
:103620005B68E360E3681BB15B680BB15B682361B7
:1036300002F07EF8214620750348FFF7A7FFA0613E
:10364000F8BD00BFD40700203803002010B50023C8
:103650000446C0E9002183610377C362FFF7C2FF1C
:10366000204610BD2DE9F04F93B099469DF870307B
:103670000593804616469DF874A0002976D00B7CF1
:1036800003F00F03052B71D1394DCC682B78DFF88F
:10369000E8B001332B70002C65D0237C03F00F03BE
:1036A000042B04D001D3062B51D96468F3E7626977
:1036B000D8F8001058460CF06BFA07460028F4D0F2
:1036C000037C03F00F03052BEFD12A4B01461A6848
:1036D00006A8FFF7BBFF76B106A8FFF723FA50B1A3
:1036E000059B01934AF001030093316872684B46D1
:1036F00006A800F0F3F89DF82C30072B1AD1012210
:10370000394658460CF03AFA059B00930146CDF82D
:1037100004A04B4632464046FFF7A4FF9EB990B145
:103720002B7806A8013B2B70FFF7F2FE012013B0A7
:10373000BDE8F08F3EB906A8FFF7F4F918B106A866
:1037400000F01CF8EBE706A8FFF7E2FEADE7002368
:10375000CDE901330093326873684FF0FF312046A2
:1037600007F0CCFDA1E72B78013B2B700020DEE7B2
:10377000C903002038040020D40700207FB50022B0
:103780001146054602A801F01FFB4A494A480DF0C0
:103790009BFF6B68484819680DF09FFF47494648F2
:1037A0000DF092FF2846FFF7BDF958B94449424849
:1037B0000DF08AFF40480DF097FF4FF0FF34204690
:1037C00004B070BD2846FEF7FBFF0646A86958B155
:1037D00003685B6A984704B2002C05DB14BF012024
:1037E0000020FFF731FBEAE72B7D072B13D0701C7D
:1037F000152810D80126334C06FA00F0044004D1F5
:1038000010F0490F07D02046EBE72F492A480DF06A
:103810005BFF3446D3E74FF40052294602A801F07B
:10382000E0FE2B7D033B062B3ED8DFE803F0392476
:103830003D3D04392400AB681B7C03F00F03052BCE
:103840004FF000041CD121491B480DF03DFF2346D9
:103850002246CDE90044A9682846FFF703FF1C492A
:10386000044615480DF030FF2046FFF7EDFA1248E8
:103870000DF03AFFA3E7002102A801F085FD044600
:1038800014490D480DF020FF21460A220A480DF088
:1038900084FF09480DF028FF003418BF01248EE78B
:1038A00002A801F077FCEAE70B4903480DF00CFF92
:1038B000002484E7F0990100CC030020AE950100BC
:1038C000F899010084803000AB950100049E01004E
:1038D000019A01000E9A0100049A01002DE9F04FAF
:1038E00091B008AE07939DF86C309DF868B00393D3
:1038F000054686E8060007F0E0FBB0F5966F044643
:103900000EDAA649A6480DF0DFFE0A222146A44899
:103910000DF043FFA2480DF0E7FE4FF0FF3891E0B5
:103920000EF0CCFC0690304601F052FE02900746A5
:1039300002F016FE079B05901BB11A78002A40F092
:10394000F0862B7F13B105F11C030793002F40F085
:103950000087079B002B40F0E686EB6A0293002B62
:1039600000F0F786304601F033FE002840F0F18683
:103970009DF8082031460EA801F02CFE00F0E9BEAB
:103980006B68002BC9D0029B4BBB304601F0B9FBE2
:1039900048B1304601F064FD082804D0304601F0FB
:1039A0005FFD092834D1304601F0BAFB30B14FF445
:1039B00080612846FEF72CFF00283AD10BF0030364
:1039C000032B4ED12B7D072B4BD0764976480DF03B
:1039D0007BFE75480DF088FE6FF0060832E0029B12
:1039E000013B082BDFD801A252F823F0153A000062
:1039F000A7390000BD390000153A0000A7390000C2
:103A0000A7390000A7390000A7390000153A0000C7
:103A100001230293304601F074FBB8B14FF40071FA
:103A20002846FEF7F5FE88B1304601F019FD0C2856
:103A30000CD05E495A480DF047FE59480DF054FE2F
:103A40006FF00508404611B0BDE8F08F029B042BD3
:103A5000B4D1039B96E806002846FFF7A5F88046F8
:103A6000F0E796E803000AAB83E803000798FEF747
:103A700033FE0490304601F0F3FC092800F2258261
:103A8000DFE810F00A00230223022302630123026D
:103A900023022302A501A50100220CAC11462046F9
:103AA00001F092F9304601F03BFB0746002800F098
:103AB0004681029B0C2B1AD8DFE813F00D00190089
:103AC00069001900190019001900190019001900DE
:103AD0000E01FA002A01DDF81C90B9F1000F0AD09E
:103AE000334931480DF0F0FD2F480DF0FDFD002465
:103AF000A2462746EDE02846FFF740FE0028D4BF47
:103B0000002101210A22044627480DF046FE2949DA
:103B100025480DF0E2FD304601F03CFB0A2201464B
:103B200021480DF018FE20480DF0DEFD002C304637
:103B300040F3EE8501F02EFB70BB022231460EA849
:103B400001F03FFD41F201044FF0010906E00122BE
:103B500031460EA801F035FD41F201044FF4005248
:103B600029460CA802F090FA0CA801F07BFC04286E
:103B700022D108A801F076FC022822D108A801F081
:103B800071FC0CA902460EA801F070FC19E000249B
:103B900027464FF0FF39E1E74C46D5E7699701002A
:103BA000E8030020BE970100CC030020A997010084
:103BB000DC970100AE9501000CA801F053FC05282C
:103BC000D7D02B7D072B08D108A801F0AFFA20B180
:103BD00002220CA90EA801F049FC2846FFF700FCC0
:103BE00000B200900DF1300A0DF120080EA898E8FF
:103BF0000C00514601F060FF504601F0E1FE3FB17C
:103C0000404601F02FFC022842D1504602F06AFAE9
:103C10009AE8030088E8030044F420544FF0000AB7
:103C20004FF0FF382B7D072B40F0D0821BF0010FA7
:103C300040F08681AB681B7C03F00F03052B40F03E
:103C40007F81059B002B00F07B81029B012B00F004
:103C50004281039B0093CDF804B0079BA96808AA92
:103C60002846FFF7FFFC029B012B40F08C8108A83F
:103C700001F056FA8046002800F08581039B0093EE
:103C80000AAA4FF0FF3306CA2846FFF71BF87CE16B
:103C9000404601F0E7FB0128B7D0404601F0E2FBC7
:103CA0000A28B2D0404601F0DDFB0B28B0D1ACE7CA
:103CB00029464FF40052204602F0E6F9304601F062
:103CC0006FF9C1B2204601F010F998B9BA46002741
:103CD0003C464FF0FF39A3E729464FF400522046F7
:103CE00002F0D2F9304601F054F90146204601F0C5
:103CF000E1F8EAE794E80300022286E803000027DF
:103D000031460EA801F066FC4FF42054BA46E0E7B5
:103D10004FF400522946204602F0B6F9304601F031
:103D20001DF90146204601F0F2F894E803004FF037
:103D3000000A86E803004FF420545746C9E782463C
:103D400004464FF0FF38C1466CE7029B092B20D098
:103D50002846FFF713FD00280DDD022231460EA88C
:103D6000012701F02EFC41F201044FF0FF384FF023
:103D7000000AB94656E7012231460EA84FF0000A64
:103D800001F01FFC41F201044FF0FF380127D1463A
:103D900048E74FF480712846FEF73AFD07464FF496
:103DA000807128465FB1FEF78BFD44F201044FF0AD
:103DB00001084FF0000A57464FF0FF3932E7FEF78F
:103DC0003FFD44F201044FF00108BA46F3E796E8DC
:103DD00003000DF1300888E80300304601F0A0F937
:103DE000E8B90524304601F03BFB4FF400520928A6
:103DF0002946304608BF644202F046F900223146A7
:103E00000EA801F0DEFB029B0C2B5BD8DFE803F071
:103E1000275A0E5A5A5A5A5A5A5A30505500304652
:103E200001F08EF904460028DBD0DBE700272846A6
:103E3000FEF797FE21460246304601F0B3F80446ED
:103E400078B1BF49BF480DF048FC304601F0B8FDDD
:103E50004FF420544FF0000A4FF0FF38ACE7012731
:103E6000E5E798E803004FF0010A86E80300F3E76E
:103E70002146304601F0F3F850B1022231460EA837
:103E80004FF0000A01F0A6FB4FF420545746E3E739
:103E900098E8030086E80300AB49AC480DF014FC39
:103EA000AA480DF021FC00244FF0010A2746D3E771
:103EB0002146304601F0F9F8DEE72146304601F0B0
:103EC00008F9D9E70024A246F0E700244FF0FF38B4
:103ED000A246274637E708A801F0C2FA0A281CD1F3
:103EE0009B4998480DF0F0FB6B68964819680DF0F7
:103EF000F4FB94480DF0F8FB08A801F0B1FA0A2889
:103F0000044624D00B282CD000224FF480412846B0
:103F1000FFF708FA4FF0010894E508A801F0A0FAAD
:103F20000B28DDD008A801F09BFA06287FF491AE9B
:103F30004FF480712846FEF76BFC00283FF489AEF1
:103F40004FF00008049B43B30023079325E04FF490
:103F500080712846FEF7B4FC21462846FEF73EFC59
:103F6000D2E7039B4BB97B4978480DF0ADFB77480E
:103F70000DF0BAFB6FF0040864E54FF48071284639
:103F8000FEF75EFCE8E74FF00008079B002BD9D056
:103F9000049B002BD8D144F0010408A801F060FA7A
:103FA000033804282AD8DFE810F005002900E700CC
:103FB0004D002C002846FEF703FC0528814602D060
:103FC0004FF003083EE564495E480DF07DFB0A2290
:103FD00049465C480DF0E1FB5A480DF085FB4FF473
:103FE0000052294608A802F04FF8012208A90EA89D
:103FF00001F0E7FA44F4805444F001044FF0000B60
:1040000048E02846FEF7DCFB062881460DD15349DF
:104010004C480DF059FB0A2249464A480DF0BDFBB9
:1040200048480DF061FB0222E0E74D4945480DF09C
:104030004BFB0A22494643480DF0AFFB41480DF0C7
:1040400053FBBDE74FF480712846FEF7E1FB0028E3
:1040500040F09080B9F1FF3F08D12846FFF78EFB72
:104060000028D4BF4FF000094FF00109B9F1000F4B
:1040700061D14FF40052294608A802F005F8012248
:1040800008A90EA801F09DFA44F4805444F00104FC
:104090004FF0060B08A801F039F8002840F089809D
:1040A00008A844F0010401F03BF8002800F08480E7
:1040B00044F40054B8F1000F01D024F40054A2B22B
:1040C000294608A801F0E2FA4FF00108BAF1000F02
:1040D00040F06F83A869002800F0EE8103680DF1BD
:1040E00020099B6A99E806009847002840F0E4817F
:1040F0001C4916480DF0E8FA14480DF0F5FA63046F
:1041000000F1F88218490F480DF0DEFA0A22414604
:104110000C480DF042FB15490A480DF0D5FA0EF097
:10412000CDF8069B0A22C11A06480DF042FB05484D
:104130000DF0DAFA86E40E4902480DF0C5FA3FE7C1
:10414000F1970100CC030020FD970100E803002057
:1041500009980100219801003A9801004F98010048
:10416000669801001A9901008B9901009699010047
:1041700084980100B149DFE7B9F1FF3F08D1284633
:10418000FFF7FCFA0028D4BF4FF000094FF00109F7
:10419000B9F1000F0BD0022208A90EA844F48054F4
:1041A00001F00FFA44F001044FF0050B72E7A44947
:1041B000C2E744F4805473E74FF40052294608A83C
:1041C00001F00FFA00287FF473AF73E7B9F1FF3FF6
:1041D00008D12846FFF7D2FA0028D4BF4FF00009D3
:1041E0004FF00109B9F1000F9649974818BF012710
:1041F0000DF06AFA0A22494693480DF0CEFA934927
:1042000091480DF061FA0A2239468F480DF0C5FA3F
:104210008D480DF069FA079B03B32846FEF7D0FAE4
:104220000FFA80FBBBF1000F01D10FFA89FB049B51
:10423000002B38D09B450FD0854983480DF044FAB8
:104240000A22594680480DF0A8FA7F480DF04CFA32
:104250006FF00208FFF7F6BB00230793029B012BC8
:104260002FD108A800F05CFF049008A801F0F8F82E
:10427000152800F20C81DFE810F0B800C900A80092
:104280002700B800980075005100B800B800070179
:10429000070118011801F500F5000A010A010A01D9
:1042A000F500F500F500A8690028D7D0039A036847
:1042B000CDE9007208AA1C6A079B06CAA047FFF74F
:1042C000CEBB00230493D0E72846FEF779FA0528F1
:1042D00007467FF475AE5F495B480DF0F5F90A2299
:1042E000394659480DF059FA57480DF0FDF94FF489
:1042F0000052294608A801F0C7FE2B7D052B0CBFF4
:104300000E22012208A90EA801F05BF944F48054A2
:1043100044F001044FF0000B012768E02846FEF747
:104320004FFA0628074616D14B4947480DF0CCF9FD
:1043300039460A2244480DF030FA43480DF0D4F9CA
:1043400008A90EA8022201F03CF94FF400212846EA
:10435000FEF7B6FADAE741493B480DF0B5F90A2213
:10436000394668E64FF480712846FEF751FA002876
:104370007FF400AFB9F1000F7FF4DDAE4FF40052CF
:10438000294608A801F080FE012208A90EA801F024
:1043900018F944F480544FF400212846FEF750FAEF
:1043A00044F001044FF0060BB6E7B9F1000F3FF4FB
:1043B000FEAE022208A90EA844F4805401F001F9CF
:1043C00044F001044FF0050BA6E708A800F09EFE9C
:1043D000074600286ED02846FEF7F2F905283FF47C
:1043E000EFAD44F4805444F001044FF0000B049B03
:1043F000002B3FF46BAE039B00930AAA4B4606CA00
:104400002846FEF75FFC24F400545FE608A800F09D
:104410007DFE00283FF47EAFB9F1000F22D0104995
:1044200009480DF051F928460121FEF7D7F9079AFE
:104430004FF4C0512846FEF775FFC1E59E98010074
:10444000B3980100D0980100CC030020DE98010051
:10445000E59801003A9801004F9801006698010024
:104460000199010008A800F051FE074610B308A802
:1044700000F056FE28B94FF40052294608A801F072
:1044800003FE44F44054AEE744F4804442E708A8F5
:1044900000F037FE08B144F4805408A800F040FE54
:1044A000074638B144F400549FE74FF0000B4FF437
:1044B000804431E7BB462FE7D5F81890B9F1000FDB
:1044C00037D008AE6CB3A2B22946304601F0DEF810
:1044D000039AA8690368CDE900721F6A079B96E8F2
:1044E0000600B8478046A86903681B6B98470528F3
:1044F00008BF44F0010414F4804F18BF4FF00108C6
:10450000BBF1000F03D059462846FEF767F9059B1B
:10451000002B3FF4F7AD079A21462846FEF702FF2D
:10452000F0E5A649A6480DF0D8F8A5480DF0DCF84E
:10453000CEE72B7D052B6AD0062BE1D108A800F031
:10454000E0FD002863D049462846FEF7D1F907462A
:1045500006B208A800F084FF039B814633B324B160
:10456000A2B2294608A801F091F8002EC8D0BCBF1D
:104570007E4236B206F1FF339BB2B4BF012700275B
:10458000192BBDD8012130460EF086F8B9F1150F70
:1045900009D8012303FA09F98A4B19EA030F0CD150
:1045A00019F0A40F0BD14FF0FF370CE0304607F0A5
:1045B000EBF80028D3D08449D6E487F001073946C8
:1045C00030460EF091F881497D480DF07DF80A22C1
:1045D00031467B480DF0E1F87D4979480DF074F8DB
:1045E0000A22394676480DF0D8F875480DF07CF867
:1045F000304607F0C9F828B12846FEF7C5FA08B9D1
:1046000002F086FD44F4805444F001046CE024B1CF
:10461000A2B2294608A801F039F8029B022B66D005
:10462000032B09D0012B7FF46BAF44F4805444F08A
:104630000104DDF8088063E72846FEF72DFA030C35
:1046400007461AD1634964480DF03EF86B6862482A
:1046500019680DF042F861495F480DF03EF80A22F2
:1046600039465D480DF077F85B480DF03DF86B6812
:104670005B491A685B480CF053F8304600F0ACFD1B
:104680000FF048FB0022584B0FF09CFB0FF04AFE46
:104690000FFA80F8082007F05BF868F30F0706466A
:1046A00060F31F47514946480DF00EF86B684448C7
:1046B00019680DF012F84E4941480DF005F80A222C
:1046C00041463F480DF069F84A493D480CF0FCFF6F
:1046D000B1B20A223A480DF060F839480DF004F8FA
:1046E00039462846FEF7F0F94FF0010808E744F490
:1046F000005489E7059B002B3FF404AD4FF4804242
:104700002946484600F0C2FF52464FF4804104E774
:1047100000F040FD044600287FF419AA8146FFF707
:104720001DBA029AAAB91B78002B3FF416A907A854
:10473000FEF701FA0290304600F04AFF28B99DF8D2
:10474000082031460EA800F045FF029B002B3FF4E5
:1047500004A929491A480CF0B7FF0A222146184833
:104760000DF01BF8254916480CF0AEFF6B68144895
:1047700019680CF0B2FF224911480CF0A5FF079907
:104780000F480CF0AAFF1F490D480CF09DFF304662
:1047900001F016F9079B002B3FF4F2A81B78242B9D
:1047A0007FF4EEA8184906480CF08EFF04480CF080
:1047B0009BFF6FF00308FFF745B900BF3A9901006E
:1047C000CC03002042C030004499010051990100FF
:1047D0007AAD010056990100180400206699010085
:1047E0006C99010044040020000059407B990100AD
:1047F00082990100869901007D9701008897010048
:104800008F970100AE950100959701002DE9F04FBB
:1048100091B08146CDE904211E4609B9002013E07C
:1048200006F04BFCB0F5966F044610DAAF49B0487D
:104830000CF04AFF0A222146AD480CF0AEFFAC480E
:104840000CF052FF4FF0FF3011B0BDE8F08F049B29
:104850000BB11B782BB999F81C3013B109F11C036B
:104860000493049BFBB9D9F82C702FBB4021059809
:1048700011F002F8002836D00446002304F8013B6A
:104880000598214606F07EFF059482460024059D8A
:1048900015F80480B8F1000F27D0404612F049F80F
:1048A00028550134F3E71B78002BDCD004A8FEF771
:1048B00042F907460028D6D00D2FD7D10AAC0022E6
:1048C0001146204600F080FA059A21460CA800F017
:1048D0006CFE3A4621460CA800F07CFE002E9DD1CD
:1048E00001960096FAE08246D0E7284600F01EFACC
:1048F00006ACC2B205464146204600F065FA052FD7
:1049000026D0062F08BF17255FFA87FB0DF1300868
:104910005A462146404600F05DFE092D1ADC082D5E
:1049200080F2EA80AA1C03DB6B1C7FF777AFDDB156
:1049300005A806F014FB024618B12146404600F0D7
:10494000B4FD002E7FF46AAFCDE9006A3346C6E0BD
:104950001825D9E7172D00F08A80182DE8D10022FC
:104960002146404600F02DFE08AD05A9284606F078
:1049700017FB5A462946404600F02CFE284600F018
:1049800071FD10F1000B18BF4FF0010B00220599CB
:1049900013B259B1032A08D005A8039206F0DFFA32
:1049A000039A48F822000132F1E713460B2F10D08A
:1049B0000C2F16D00A2F1CD1284600F0EBFB81B239
:1049C000204600F077FA002E7FF428AFCDF804A03F
:1049D00087E7284600F0DEFBC1B2204600F085FAEA
:1049E000F1E7284600F0D6FB0146204600F08FFA9A
:1049F000E9E75B449BB2013B032B30D8DFE803F0CF
:104A00000207122095E8030084E80300DBE728464C
:104A100000F0C0FB9DF8303082B221460AA800F0B9
:104A20008DFDD0E7284600F0B5FB9DF834200092BC
:104A30009DF8303082B221460AA800F068FDC2E736
:104A4000284600F0A7FB9DF834200092214682B250
:104A50009DF830300AA800F05AFD0E99C5E72549A7
:104A600023480CF031FE22480CF03EFEABE700225A
:104A70002146404600F0A5FD0025059A2BB242B123
:104A8000042D0AD005A806F06AFA48F82500013579
:104A9000F3E7032B10D0042B19D19DF83C100191A2
:104AA0009DF8381000919DF834309DF83020214653
:104AB0000AA800F067FD0AE09DF8381000919DF803
:104AC00034309DF8302021460AA800F04BFD002E1E
:104AD0007FF4A4AE0123CDF804A00093049B94E8D6
:104AE00006004846FEF7FAFEAEE600BF9D990100BB
:104AF000E8030020BB9901000AAC05A9204606F096
:104B00004FFAEAB22146404600F05BFD5A46214684
:104B1000404600F05FFD56E72DE9F04F044689B0AE
:104B20008946FEF765FC0522616847480BF026F8C8
:104B30000646002872D0037C03934FEA131A456996
:104B40000DF0BCFBBAF1000F68D0A5EB000804AD76
:104B500052460B21284606AF00F036F94246294658
:104B6000384600F0A2FCB9F1040F17D100230093DE
:104B700095E806004FF480132046FEF773F90A22E9
:104B80004FF47A71314898FBF1F10CF0E4FD3049B3
:104B90002E480CF099FD2D480CF0A6FDB8F1000F41
:104BA0003CDA2C4B984539DB06F087FA4FF00008C9
:104BB000CDF8008083464FF4801395E80600204628
:104BC000FEF750F9BBF5966F10DA234923480CF035
:104BD0007BFD0A22594621480CF0DFFD1F480CF0EE
:104BE00083FD4FF0FF3009B0BDE8F08F337C68F3F0
:104BF0000713337452464146384600F0E5F8039BEC
:104C000003F00F03DA1F5342534101930223009331
:104C100097E8060043462046FEF760FEB9F1010F13
:104C200002D12046FEF7C0FBA06908B90020DAE7F0
:104C300003685B6998470028F8D0A06903680FFAF9
:104C400089F19B689847CEE7D4070020CC03002069
:104C5000C899010002000080D7990100E8030020F4
:104C60002DE9F043054689B0002400F11C082A60B4
:104C70001646CDF8048084610477C4620F4623464B
:104C8000002939D0002A37D02F21384610F0F4FD02
:104C9000814650B3234602AAF85C19B238B12F28D6
:104CA00005D0142B02D0D0540133F5E7194608ABD8
:104CB0001944002301F8183C104831460AF068FFF7
:104CC0000F22686009F10101404610F03EFE01A884
:104CD000FDF731FF019BE86203B92B772846FEF709
:104CE00081FC284609B0BDE8F0833A4631460348C6
:104CF0000AF04EFF6860F1E76B60EFE7D407002031
:104D000013B50024224621460094234605480CF0A2
:104D100093FC05485C22214602B0BDE810400FF02C
:104D200040BE00BF3003002038030020F8B506461F
:104D3000F0B10378E3B12D2B1ED0A3F13002092A84
:104D40001AD9252B1AD07B2B1AD0232B1BD00F4F0F
:104D5000012404EBC4053D44284610F0C8FD294653
:104D60000246304610F0DFFD20B10134192CF0D19D
:104D70004FF0FF342046F8BD0024FBE70824F9E794
:104D80006FF00104F6E71724F4E700BF309A010042
:104D9000F8B5064690B1037883B10A4F002404EBBE
:104DA000C4053D44284610F0A2FD2946024630467F
:104DB00010F0B9FD20B10134172CF0D14FF0FF34C1
:104DC0002046F8BD119B010010B500238370C3700D
:104DD000037143718371C37161F303034370027004
:104DE00010BD002202708270C270072242704160C2
:104DF0007047000093B2112B70B516469CBF134A42
:104E0000D25C4B7888BF002262F303034B700546E7
:104E10000C460F480F490CF057FC0A2231460C484B
:104E20000CF0BBFC0C490A480CF04EFC61780848B9
:104E30000A2201F00F010CF0C9FC05480CF054FCEB
:104E400023682B6063686B60284670BD199A010067
:104E5000CC030020569C0100619C01004B7803F0BC
:104E60000F03013B082B1AD8DFE803F0160E0E19CA
:104E7000191919050C000D4B4B600B6803604B684A
:104E8000436070470A4BF7E764238B71CB7923F0BB
:104E90000103CB7100234B71FF230B71EDE700235E
:104EA0000B714B718B71CB71E7E700BF0000A04124
:104EB00000009642437813F00F0203D0022A05D077
:104EC00000207047022262F30303437040F26D1327
:104ED0009942A8BF1946C379817123F00103C1F338
:104EE00000211943C17101207047437813F00F026C
:104EF00003D0022A05D000207047022262F3030388
:104F000043706429A8BF642141710120704713B523
:104F10000446084631B9E37960F34703E3710120A1
:104F200002B010BD642300934FF4FA72002399215C
:104F30000DF051F8637813F00F0208D0032A0BD854
:104F400020EAE0706428A8BF64200130E3E7022271
:104F500062F303036370F3E70020E1E707B5C2796A
:104F600012F0FE0F12D0437803F00F03013B022B27
:104F70000CD850084FF4FA7300936422992300214F
:104F800001380DF028F803B05DF804FB4FF0FF3056
:104F9000F9E7C379827903F0010342EA03207047FD
:104FA00040797047437803F00F03013B10B50A2B9B
:104FB00053D8DFE803F00606525252482F2F2F1025
:104FC00010000279642391FBF3F1114481F308018D
:104FD0000171012010BD632944684FF064030FDCA8
:104FE00003FB04112AB153439942A8BF194621EA91
:104FF000E17143784160062262F303034370E8E7FE
:1050000091FBF3F12144E2B19142A8BF114621EA9C
:10501000E17116E0436807EE903AFDEEE77A64240A
:1050200017EE903A91FBF4F1194422B19142A8BFD6
:10503000114621EAE17107EE901AF8EEE77A17EED1
:10504000901A4160C5E743681944002AF9D06423E7
:1050500053439942A8BF1946D9E70020BAE74378DD
:1050600003F00F03022B1ED1C279837902F00102F3
:1050700043EA0223642291FBF2F11944B1F5B77FB0
:105080000FDA40F26D1331EA210128BF1946C379C6
:10509000817123F00103C1F300211943C171012083
:1050A00070470021F3E700207047437803F00F03B7
:1050B000022B0CD14379642291FBF2F1194421EACD
:1050C000E1719142A8BF1146417101207047002053
:1050D0007047437803F00F03022B10D1C379642289
:1050E00091FBF2F101EB53010129B8BF012191427B
:1050F000A8BF114661F34703C37101207047002028
:1051000070470078003018BF012070478378012B6A
:1051100004D80078003018BF012070470020704785
:10512000407810F00F0018BF01207047407800F061
:105130000F00023803288CBF0020012070470000B8
:10514000437803F00F03013B0A2B1ED8DFE803F07E
:105150000A0A1D06061B0F0F0F060600436864208F
:10516000584370470079642310FB03F0704743688D
:105170009FED077A07EE903A67EE877AFDEEE77AC1
:1051800017EE900A7047406870470020704700BFD4
:105190000000C842437803F00F03013B0A2B18D8E4
:1051A000DFE803F00808170606120A0A0A060600D6
:1051B0004068704700797047406807EE900AFDEE3E
:1051C000E77A17EE900A70474068642390FBF3F08B
:1051D0007047002070470000437803F00F03013B45
:1051E0000A2B1ED8DFE803F013131D06060E19194B
:1051F00019060600436807EE903AF8EEE77A17EED4
:10520000900A70474368642293FBF2F3F3E7037953
:1052100007EE903AF8EE677AF1E7436807EE903AC6
:10522000EDE7DFED017AEAE700000000437803F0E4
:105230000F0307B50B2B60D8DFE803F06216165F8B
:105240005F5F44245F5F0606406849B1D0F16400A7
:1052500056D46428A8BF642000B203B05DF804FBF4
:105260000028F6DA0846F8E7007931B1002100910C
:105270006423FF220CF0AFFEEEE764230093FF22CD
:105280000B46F7E7436807EE903A99B19FED1E7A17
:1052900077EE677AF5EEC07AF1EE10FA30D4F4EEDC
:1052A000C77AF1EE10FA2DDCFDEEE77A17EE903AB0
:1052B00018B2D2E7F5EEC07AF1EE10FAD2D49FED33
:1052C000127AECE7436861B142F27372934217DCE1
:1052D00013F1630F16DB6FF0630093FBF0F06430A3
:1052E000BAE713F1630FBDDB42F2737293424FF0E2
:1052F0006400B2DC93FBF0F0AEE74FF0FF30ACE7B8
:105300000020AAE76420A8E70000C84213B50446BD
:105310000846637803F00F03013B0A2B32D8DFE81D
:1053200003F00F0F313131281A3131060600FF2307
:1053300000930023642219460CF04DFE606007E0E4
:10534000FF2300930023642219460CF044FE2071D1
:10535000012002B010BDFF230093002364221946F0
:105360000CF039FE07EE900AF8EEE77A17EE900A95
:10537000E4E746F29C3300930023642219460CF0C4
:105380002AFE60600020E4E7437803F00F030B2B54
:105390005FD8DFE803F06117175E5E5E461E5E5E53
:1053A0000606406841B1002839DBFF28A8BFFF206E
:1053B000C0F1FF0001B20AE0002808DBFF28A8BF07
:1053C000FF20F7E700790029F4D0C0F1FF0108467B
:1053D00070474368A9B107EE103AB5EEC07AF1EE16
:1053E00010FA1CD4DFED1D7AB4EEE77AF1EE10FA74
:1053F00032DC77EEC77AFDEEE77A17EE903A19B213
:10540000E5E707EE903AF5EEC07AF1EE10FADED459
:105410009FED127AF4EEC77AF1EE10FAEBDDFF2180
:10542000D5E7406859B110F1630FF8DBB0F5C84F0C
:1054300012DA6FF0630190FBF1F0FF30BAE710F180
:10544000630FC4DBB0F5C84FE9DA642190FBF1F0DB
:10545000B0E74FF0FF31BAE70021B8E700007F4323
:1054600000787047407800F00F0070474B7810B517
:1054700062F303034B700B6803604B68436010BD1D
:105480004B7810B503F00F04013C012C84BF0124BC
:1054900064F3030382F30802D2B288BF4B700B6837
:1054A0000A7103604B68436010BD4B784A6030B5A9
:1054B0000A2565F303034B700B6803604B68436078
:1054C00030BD4B784A6030B5072565F303034B7058
:1054D0000B6803604B68436030BD4B7830B50625E0
:1054E00065F303034B700A235A434A600B68036059
:1054F0004B68436030BD4B784A6030B5062565F394
:1055000003034B700B6803604B68436030BD70B59C
:105510004C788A71022666F303044C70C2F30024AF
:10552000CA794B7122F001029DF810300B712243B1
:105530000B68CA7103604B68436070BD70B54C78EE
:105540008A71032666F303044C70C2F30024CA79FF
:105550004B7122F0010222430B68CA7103604B6851
:10556000436070BD70B54D784B71042666F303053A
:105570009DF810304D700B718A710B6803604B6899
:10558000436070BD70B54D784B7105269DF81030A5
:105590000B7166F303059DF814304D70CB718A7161
:1055A0000B6803604B68436070BD4B784A6030B550
:1055B0000C2565F303034B700B6803604B68436075
:1055C00030BD10B50A700B6803604B68436010BDB6
:1055D0008078704710B58A700B6803604B68436031
:1055E00010BD2DE9F041044616460D4619B90027B5
:1055F0003846BDE8F0810846FDF794FA07460028D2
:10560000F5D02846FDF7E8F9F304804603D528468F
:10561000FDF7D6F8207006F40056B8F1000F09D057
:10562000637868F303036370002EE1D0EB685B6975
:105630006360DDE7002EDAD0EA68137C03F00F0325
:10564000022B03D0032B09D04746D1E76378526978
:1056500062600A2161F303036370C9E753696278EA
:10566000072161F303026270E2E710B500230446EC
:10567000037043708370C370037143718371C3718E
:105680004FF40052FFF7ADFF204610BDF8B50546B8
:1056900017460C4611B900263046F8BD0846FDF7FE
:1056A00041FA06460028F6D079040CD52B780A3B3F
:1056B000032B08D8DFE803F0200229264FF480717D
:1056C0002046FDF7BDF8FA0407D52978A1F10A03B1
:1056D000032B02D92046FDF781F8BB04DCD56B789B
:1056E000696803F00F03073B2046042B16D8DFE858
:1056F00003F00F0F151212004FF480712046FDF7D2
:10570000DFF8E0E74FF4C061DAE74FF4C061F5E796
:10571000FDF798F9C0E7FDF779F9BDE7FDF776F9F0
:105720006978204601F00F01FDF7A8F9B4E7000001
:1057300070B5174E174D044634B3237C03F00F03A6
:10574000023B042B20D8DFE803F0031F0F060800FC
:105750006569284670BDE468EEE721463246284672
:105760000AF016FA0446E7E766693046FFF710FBD1
:10577000051E09DB30460AF02FFB237C65610222FF
:1057800062F303032374E4E74FF0FF35E1E700BF62
:105790002B9A0100D40700202DE9F0432DED028B58
:1057A00085B00446154699469DF838800F46002975
:1057B00049D0002A00F0E88000230B70017879B30B
:1057C00019F4805F2CD018292AD8704B01EBC10145
:1057D0001944384610F0B9F86378190707D019F45E
:1057E000005F04D02A466A49384610F088F83846E7
:1057F00010F07DF82D1A3E18013D63781A0722D06B
:1058000019F4005F1FD003F00F03013B0B2B1AD8D4
:10581000DFE803F0084071A6AC257B7B7B221FB438
:105820003E46EAE72079B8F1000F06D064230093E2
:105830000023FF2219460CF0CEFB564A03462946A8
:1058400030460FF049FF384605B0BDEC028BBDE88D
:10585000F0836368504AF2E76368504AEFE7616893
:1058600000294FF064020EDA91FBF2F04B4202FB8A
:105870001011494293FBF2F3494A00912946304600
:105880000FF02AFFDFE791FBF2F302FB1312009205
:10589000444AF3E72046FFF761FBE279A37994F8E5
:1058A000059001B20029207902F0010202DBB8F173
:1058B000000F14D043EA0224B8F1000F06D064238D
:1058C00000930023FF2219460CF085FBCDE90090E0
:1058D0002346354A294630460FF0FEFEB3E7CDE9B0
:1058E0000101CDF8009043EA0223304A29463046B0
:1058F0000FF0F2FEA7E7E379A2796179009103F056
:10590000010342EA03232A4AB8E7636808EE103A23
:10591000B5EEC08AF1EE10FA4CBFF1EE487AF0EE27
:10592000487AFDEEE78AB8EEE87A77EEC77A9FED1F
:10593000217A67EE877A17EE900A0CF09BFF07EE4C
:10594000900AB5EEC08AFDEEE77AF1EE10FACDEDE1
:10595000007A18EE903A01D5174A8FE7174A8DE77B
:105960002279A379019262790092B2E7E279A37970
:1059700002922279019262790092B6E72A46616822
:1059800030460FF0E2FF5EE717465CE7309A010011
:10599000AE950100709C0100739C0100779C010092
:1059A0007B9C01007C9C0100889C0100859C01007F
:1059B0008B9C010000007A44919C0100929C0100A4
:1059C00030B58BB0134C00232022009302A94FF472
:1059D00040530546FFF7E0FE02A920460BF07DFE8E
:1059E0000D4920460BF070FE69780A2201F00F0184
:1059F00020460BF0EBFE094920460BF065FE0A221B
:105A0000A97820460BF0E2FE20460BF06DFE0BB0AD
:105A100030BD00BFCC030020649C0100699C0100E4
:105A200070B54B7803F00F03934286B005460C46E1
:105A3000164606D123682B6063686B60284606B063
:105A400070BD194919480BF03FFE617817480A22CA
:105A500001F00F010BF0BAFE154914480BF034FEAB
:105A60000A22314611480BF0B1FE12490F480BF0E3
:105A70002BFE0023CDE9043366F3030322788DF86F
:105A800011304FF0FF338DF81020009302A86368A7
:105A9000226804A900F010F8029B2360039B636056
:105AA0002046FFF78DFFC5E79A9C0100CC0300203C
:105AB000D2940100AE9501002DE9F04F8DB004ADF8
:105AC00085E80C00BDF85830112B98BFBC4A8046C1
:105AD00028460C4694BF12F803904FF00009FFF7D8
