:100000000000012085030100AD030100AF030100E2
:10001000B1030100B3030100B503010000000000BB
:10002000000000000000000000000000B703010015
:10003000B903010000000000BB030100BD03010083
:10004000BF030100BF0301003D090100BF03010020
:1000500001AD0000BF030100BF030100BF030100A9
:10006000BF030100BF030100BF030100BF03010084
:10007000BF030100BF030100BF030100BF03010074
:10008000BF030100010D0100BF030100BF03010018
:10009000BF030100BF030100BF030100BF03010054
:1000A000BF030100BF030100BF030100BF03010044
:1000B000BF030100BF0301000000000000000000BA
:1000C000BF030100BF030100BF030100BF03010024
:1000D000BF030100BF030100BF03010000000000D7
:1000E0000000000000000000000000000000000010
:1000F0000000000000000000000000000000000000
:1001000000000000000000000000000000000000EF
:1001100000000000000000000000000000000000DF
:1001200000000000000000000000000000000000CF
:1001300000000000000000000000000000000000BF
:1001400000000000000000000000000000000000AF
:10015000000000000000000000000000000000009F
:10016000000000000000000000000000000000008F
:10017000000000000000000000000000000000007F
:10018000000000000000000000000000000000006F
:10019000000000000000000000000000000000005F
:1001A000000000000000000000000000000000004F
:1001B000000000000000000000000000000000003F
:1001C000000000000000000000000000000000002F
:1001D000000000000000000000000000000000001F
:1001E000000000000000000000000000000000000F
:1001F00000000000000000000000000000000000FF
:1002000010B5054C237833B9044B13B10448AFF350
:1002100000800123237010BDA00200200000000018
:10022000F8A1010008B5034B1BB103490348AFF324
:10023000008008BD00000000A4020020F8A1010019
:10024000154B002B08BF134B9D46A3F5803A0021A8
:100250008B460F461348144A121A13F082F80F4BBC
:10026000002B00D098470E4B002B00D09847002061
:10027000002104000D000D48002802D00C48AFF307
:10028000008012F0B7FF2000290010F079FD12F075
:10029000FFFD00BF0000080000000120000000007A
:1002A00000000000A00200208809002000000000DB
:1002B000000000000020704700207047F0B50446A1
:1002C00085B00E46684611461F460AF099F8236825
:1002D0006A465D6A31463B462046A84705B0F0BDF8
:1002E000F0B5044685B00E46684611461F4609F033
:1002F00092FF23686A465D6A31463B462046A8471E
:1003000005B0F0BD70B590B00C4615461E4605F020
:100310000DFE48B364B321464022684613F0F5FF52
:100320002F21684613F088FF28B923460322402175
:10033000684609F0E3FF3F223146684613F0BFFFED
:100340000C480EF0E9FE78B10B4B93F90030062B08
:100350000CD10A4B93F9003043B901232A46694670
:1003600004480FF036F9012010B070BD0020FBE703
:100370002046F9E7E8030020E0030020B80300204E
:1003800007B5002300931A46194603480FF032FEC2
:1003900003B05DF804FB00BFBC02002007B50023DA
:1003A00000931A46194603480FF024FE03B05DF887
:1003B00004FB00BFC402002082B002AB012003E9AD
:1003C000060002B0704700207047406818B14068CE
:1003D00008B1007C0009704743682BB15B681BB112
:1003E0001A7C61F307121A747047406808B508B1A7
:1003F00001F08CFF012008BD13B500220446114610
:10040000684604F01BF9606801F080FF052807D8F2
:10041000DFE800F0110311060611012002B010BD43
:1004200061684FF40072684604F0FDFC00216846E4
:1004300004F0CCFBF2E70020F0E713B500220446FD
:100440001146684604F0FAF82046FF22694604F097
:1004500039FC204602B010BD07B5002300931A46B0
:10046000194603480FF0C6FD03B05DF804FB00BF5A
:10047000CC020020704700002DE9FF4102AC84E867
:10048000060006463B493C489DF828809DF82C50C4
:100490001F460FF0F7FD204604F0B4FE204604F09E
:1004A00052FA50BB204604F0B5FC052804D8DFE81A
:1004B00000F0152417030317054630492E480FF0A6
:1004C000E1FD0A2229462C480FF045FE2A480FF08C
:1004D000E9FD204604F096FE00200BE04FF00108F5
:1004E000CDE90085336894E80600DD6B30463B4675
:1004F000A847012004B0BDE8F081204604F0D2FBFB
:10050000012812D0022831D01D491B480FF0BAFD36
:10051000204604F0C7FB0A22014617480FF034FEBC
:1005200015480FF0BFFD0125C7E70021204604F064
:100530009FFA13280ED81E21204604F009FB71688B
:100540004FF40072204604F0C3FC4FF490517068E1
:1005500002F03CFD0195336801250095D3F83C80FD
:1005600094E806003B463046C047C2E700230393A9
:10057000F0E700BFA47D010070030020BA7D0100F8
:10058000AD7D010008B511B9B0F9080008BDB0F99A
:100590000A208A4203DC0089084400B2F6E740687A
:1005A00001F04CFFF9E7000007B5002300931A465D
:1005B000194603480FF01EFD03B05DF804FB00BFB1
:1005C000D40200200A460068022100F0A1BD00000C
:1005D00070B503680546F3B17221FFF7F3FF286891
:1005E0000E4E03680021DB69984700242868042C1C
:1005F00003680CD0DB689847A35D984205D0286853
:1006000003685B6A9847002070BD0134EEE75B6ABF
:1006100098470120F8E71846F6E700BF147E01006E
:100620002DE9F041036804461BB900263046BDE8B9
:10063000F081FFF7CDFF07460028F6D0254672214E
:100640002046FFF7BFFF55F8100B03680421DB6954
:10065000984704F11608002620680368DB6898476D
:10066000C0B205F8010B0138C0B2FD2898BF3E4664
:10067000A845F1D1206803685B6A9847D6E7F8B5CA
:10068000036804460F4613B900252846F8BDFFF756
:100690009FFF05460028F7D072212046FFF792FF02
:1006A000206803682646DB690421984756F8100B3A
:1006B000036806225B68394698473B682361BB881C
:1006C000B380206803685B6A9847DEE770B503680B
:1006D00004460D46164613B90025284670BDFFF79F
:1006E00077FF0028F8D072212046FFF76BFF2068C3
:1006F00003684021DB699847731E2A460021206861
:100700000FF0A4FF06B2206803685B6A9847002ECA
:10071000E2D00023AB55E0E738B5036804460D4648
:100720000BB9002038BDFFF753FF0028F9D0284649
:1007300013F0BDFD0F28F4D872212046FFF742FFC9
:10074000206803684021DB699847294620680FF03C
:10075000A2FC2068036800211B68984705462068B2
:1007600003685B6A9847281C18BF0120DAE738B590
:10077000036804460D460BB9002038BDFFF728FF7B
:100780000028F9D0284613F092FD0F28F4D87221E2
:100790002046FFF717FF206803685021DB69984760
:1007A000294620680FF077FC2068036800211B6849
:1007B00098470546206803685B6A9847281C18BF5D
:1007C0000120DAE770B5036804460D46164613B9F2
:1007D0000025284670BDFFF7FBFE0028F8D07221E7
:1007E0002046FFF7EFFE206803682021DB69984769
:1007F000731E2A46002120680FF028FF06B22068E9
:1008000003685B6A9847002EE2D00023AB55E0E70F
:1008100038B5036804460D460BB9002038BDFFF714
:10082000D7FE0028F9D0284613F041FD1F28F4D840
:1008300072212046FFF7C6FE206803682021DB698D
:100840009847294620680FF026FC2068036800219D
:100850001B6898470546206803685B6A9847281C10
:1008600018BF0120DAE773B5036805460E461BB9C9
:100870000024204602B070BDFFF7AAFE04460028FF
:10088000F6D072212846FFF79DFE286803681021E4
:10089000DB69984704220DEB020128680FF0C1FEC6
:1008A000019930460FF0C3FB286803685B6A9847DC
:1008B0003379002BDCD0FF2BDBD17379FF2BD8D120
:1008C000B379FF2BD5D1F479FF3C18BF0124D0E7D1
:1008D00073B5036805460E461BB90024204602B0D6
:1008E00070BDFFF775FE04460028F6D07221284639
:1008F000FFF768FE286803681C21DB69984704221B
:100900000DEB020128680FF08CFE019930460FF0C4
:100910008EFB286803685B6A98473379002BDCD02C
:10092000FF2BDBD17379FF2BD8D1B379FF2BD5D136
:10093000F479FF3C18BF0124D0E773B5036805467E
:100940000E461BB90024204602B070BDFFF740FEE2
:1009500004460028F6D072212846FFF733FE2868A7
:1009600003681421DB69984704220DEB0201286813
:100970000FF057FE019930460FF059FB28680368C5
:100980005B6A98473379002BDCD0FF2BDBD173797E
:10099000FF2BD8D1B379FF2BD5D1F479FF3C18BF09
:1009A0000124D0E773B5036805460E461BB9002441
:1009B000204602B070BDFFF70BFE04460028F6D0BB
:1009C00072212846FFF7FEFD286803681821DB69BD
:1009D000984704220DEB020128680FF022FE0199CE
:1009E00030460FF024FB286803685B6A9847337928
:1009F000002BDCD0FF2BDBD17379FF2BD8D1B3795F
:100A0000FF2BD5D1F479FF3C18BF0124D0E737B5CF
:100A10004B6801930368044613B9002003B030BD4E
:100A2000FFF7D6FD0028F8D072212046FFF7CAFD57
:100A3000206803681021DB69984720680368042256
:100A40005B680DEB020198470546206803685B6A06
:100A50009847281C18BF0120E0E737B54B68019381
:100A60000368044613B9002003B030BDFFF7B0FDA2
:100A70000028F8D072212046FFF7A4FD2068036803
:100A80001C21DB6998472068036804225B680DEB32
:100A9000020198470546206803685B6A9847281C4E
:100AA00018BF0120E0E737B54B680193036804469F
:100AB00013B9002003B030BDFFF78AFD0028F8D03D
:100AC00072212046FFF77EFD206803681421DB6950
:100AD00098472068036804225B680DEB0201984781
:100AE0000546206803685B6A9847281C18BF0120E8
:100AF000E0E737B54B6801930368044613B900205B
:100B000003B030BDFFF764FD0028F8D07221204605
:100B1000FFF758FD206803681821DB6998472068B3
:100B2000036804225B680DEB0201984705462068C4
:100B300003685B6A9847281C18BF0120E0E713B5DB
:100B4000E723009303680446A3B1FFF741FD88B192
:100B500072212046FFF736FD206803680C21DB690F
:100B600098470422694620680FF05BFD20680368FF
:100B70005B6A9847009B0020DAB262F30700C3F378
:100B8000072262F30F20C3F3074262F317401B0EE4
:100B900063F31F6002B010BD37B5019103680446CE
:100BA00013B9002003B030BDFFF712FD0028F8D0C4
:100BB00072212046FFF706FD206803680C21DB69DF
:100BC00098472068036804225B680DEB0201984790
:100BD0000546206803685B6A9847281C18BF0120F7
:100BE000E0E707B5FFF7ABFF80F48070C0F30020AB
:100BF00003B05DF804FB37B505460C46FFF79FFFD1
:100C000084F001040190C0F3072064F300008DF824
:100C100005000199284603B0BDE83040FFF7BCBF8E
:100C200007B5FFF78CFFC0F3402003B05DF804FB6D
:100C300037B50D460446FFF782FF0190C0F3072049
:100C400065F341008DF805000199204603B0BDE829
:100C50003040FFF7A1BF07B5FFF771FF80F010002C
:100C6000C0F3001003B05DF804FB37B505460C4631
:100C7000FFF765FF84F00104019064F304108DF820
:100C800004000199284603B0BDE83040FFF784BF57
:100C900037B50D460446FFF752FF019065F3030098
:100CA0008DF804000199204603B0BDE83040FFF7FD
:100CB00073BF37B50D460446FFF741FF019065F35A
:100CC00047108DF804000199204603B0BDE830407C
:100CD000FFF762BF07B5FFF732FF00F00F0003B068
:100CE0005DF804FB07B5FFF72AFFC0F3421003B01D
:100CF0005DF804FB70B51E4D0C468AB00646043400
:100D00001C4928460FF0BEF9214607A80FF0DBFE6C
:100D100007A928460FF0BAF92846174D0FF0C2F977
:100D200007A80FF040FE294601A80FF081FE01A997
:100D300004A80FF0C8FE214604A80FF004FF2946BE
:100D4000044607A80FF074FE07A920460FF0FBFE2B
:100D5000014630460FF0B7FE07A80FF024FE04A8A6
:100D60000FF021FE01A80FF01EFE30460AB070BD44
:100D700070030020197E0100247E01007FB50D461E
:100D80000446222128460FF033FF2221064628463A
:100D90000FF048FF002E034604F1040422DB002874
:100DA00020DD721C294601A80FF040FF01A9204652
:100DB0000FF093FE01A80FF0F6FD0D490D480FF05E
:100DC00061F9214601A80FF07EFE01A909480FF044
:100DD0005DF908480FF066F901A80FF0E4FD012065
:100DE00004B070BD294620460FF05EFEE5E700BF67
:100DF000267E0100700300207FB503680446002BA7
:100E000039D07721FFF7DEFB206803680021DB691A
:100E100098470025206802690368954204D21B6840
:100E2000002198470135F5E7DB69144E002198470A
:100E300000252068715D036801351B689847042D03
:100E4000F7D1206803685B6A98470D4901A80FF045
:100E5000EFFD01A92046FFF791FF01A80FF0A3FDC8
:100E600007212046FFF714FF07212046FFF721FF47
:100E7000012004B070BD1846FBE700BF147E0100DE
:100E8000AE9C01007FB50368044613B9002004B08E
:100E900070BDFFF79DFB0028F8D0E3681F2BF5D845
:100EA000264672212046FFF78DFB56F8040B036897
:100EB0006021DB699847314620680FF0E7F8206829
:100EC000036800211B6898470546206803685B6A31
:100ED00098478DB10A490B480FF0D4F8314601A864
:100EE0000FF0F1FD01A907480FF0D0F805480FF009
:100EF000D9F801A80FF057FD281C18BF0120C6E73C
:100F00003E7E01007003002030B5036885B00446C2
:100F100013B9002005B030BDFFF75AFB0028F8D008
:100F2000254672212046FFF74DFB55F8040B036858
:100F30006021DB6998470022216801A80FF0A0FB1F
:100F400001A928460FF0C9FD01A80FF02CFD20686B
:100F500003685B6A98470B490B480FF093F82946E2
:100F600001A80FF0B0FD01A907480FF08FF806485F
:100F70000FF098F801A80FF016FDE068003018BFD8
:100F80000120C7E7317E01007003002007B5002370
:100F900000931A46194603480FF02CF803B05DF889
:100FA00004FB00BFDC02002007B5002300931A46B3
:100FB000194603480FF01EF803B05DF804FB00BFAC
:100FC000E402002001207047C08A704703699942FB
:100FD00028BF1946816108467047037D10B5044655
:100FE00033B9A069236998422CBF0020012010BDAD
:100FF00003681B699847FF28F3D10020F7E70368CF
:1010000010B504461B699847A3690133A36110BD5D
:101010007047000008B502698369934205D2C1692F
:10102000034819440EF035FE08BD4FF0FF30FBE7D2
:10103000EC02002010B5D0E906345A1C82610A4641
:101040000248E1180EF027FE012010BDEC0200203E
:10105000037D10B504462BB10368FF211B68984738
:101060000023237510BD000008B590F82020772AD2
:101070000BD10368DB6A9847044905480FF002F872
:101080000348BDE808400FF00DB808BD637E0100BD
:1010900070030020F0B50D4685B004463F21284678
:1010A00017460FF0A5FD031E0BDB0022294601A801
:1010B0000FF0BCFD01A928460FF00FFD01A80FF0AD
:1010C00072FC114928460FF04AFD064660B1002324
:1010D000A3614FF4FA43236101208423E361207567
:1010E00084F8207005B0F0BD084928460FF037FDA0
:1010F0000028F7D08423C4E906662361267584F8A6
:1011000020700120EEE700BF4A7E0100577E0100FB
:1011100001294FF0000303D002290CD01846704774
:1011200083614FF4FA4303618423C361017580F83E
:101130002020012070478421C0E906330161037536
:10114000F5E7000007B5002300931A461946044846
:101150000EF050FF034803B05DF804EB0EF096BDAF
:10116000ED020020EC02002038B50023836083806C
:101170008371036804460D46002B4CD0344A126834
:10118000002A48D0002908BF1D462B7C03F00F031E
:10119000062B15D12F4A304829460DF06BFC08B1BB
:1011A000436923712D4A2C4829460DF063FC002821
:1011B00049D0037C03F00F03022B2DD0052B2ED03A
:1011C000274A216824480DF055FC054608BB2549EF
:1011D00025480EF057FF0A22617923480EF0D4FF0C
:1011E000224921480EF04EFF0A2221791E480EF0B6
:1011F000CBFF1D480EF056FF2B46194A21681648B2
:101200000DF080FC164A216813480DF033FC0546AA
:1012100008B11435A56038BD43696371D0E7C36870
:10122000002BCDD01A7C02F00F02022AC8D15A69D5
:101230006271DB68002BC3D01A7C02F00F02022A15
:10124000BED15B69E9E7286811F005FE6071B7E778
:1012500038040020EC9B010078070020AC7E0100E0
:10126000127F0100157F010070030020E18B010057
:1012700010B5044601601146FFF776FF204610BD09
:1012800070B5044686B028B3037C03F00F03062B29
:1012900020D106A8002140F8184DFFF765FF029BFA
:1012A0000D4A0E4800261E6021460DF0E3FB88B172
:1012B000037C03F00F03052B0CD1C56855B1214603
:1012C00003A80395FFF750FF059B1E600FF02CFD50
:1012D0006D68F3E706B070BDA07E010078070020BE
:1012E00038B583680446BBB1124B1B68A3B10068D4
:1012F000FFF7C6FFA36800251D602379032B0CD8D8
:10130000012B94BF0221294660790FF0A5FEA36846
:101310005A7865F303025A7038BD402B03D0422B34
:10132000FAD1294600E002216079BDE838400FF08B
:1013300093BE00BF3804002041790C4A002352F8C4
:101340002300884203D10A4A52F82300704752F81A
:10135000230028B942F82310054A42F823007047B9
:101360000133052BEBD10020704700BF04030020A0
:101370001803002010B50A4A4079002352F8234090
:10138000844203D1074A42F8231010BD52F823408B
:1013900014B952F82320F5E70133052BEED1F4E719
:1013A0000403002018030020F0B52DED028B9DB042
:1013B0000446FFF7C1FF05460FF060FC002301461D
:1013C00043F69822284609F031F8002800F0E98019
:1013D00006231622617907A80EF054FA372107A8D0
:1013E0000EF060FA0022114607A80EF075FB0021EE
:1013F00008EE900A07A80EF007FC6C4908EE100AE8
:101400006B480EF03FFE0A22617969480EF0BCFE7F
:10141000684967480EF036FE18EE900A11F05AF946
:10142000022502460B46009561480EF069FF6249AD
:101430005F480EF027FE18EE100A11F04BF90095E8
:101440000B4602465A480EF05BFF5C4958480EF0C6
:1014500019FE57480EF026FE594A216859480DF0EA
:1014600009FB594A2168074656480DF003FBF4EE84
:10147000688AF1EE10FA064610D60CAD18EE901AF6
:10148000284603F0E8F80023CDE90133009395E8FE
:101490000C004FF0FF31384608F0E2FFB4EE488A06
:1014A000F1EE10FA10D60CAD18EE101A284603F023
:1014B000D2F80023CDE90133009395E80C004FF0FA
:1014C000FF31304608F0CCFF404A21683D480DF01E
:1014D000D1FA054600285ED0037C03F00F03042BED
:1014E00059D1F5EE408AF1EE10FA54D0B5EE408AAB
:1014F000F1EE10FA4FD0F4EE688AF1EE10FA4AD10C
:10150000B4EE488AF1EE10FA45D100213C220DA834
:101510000C9111F026FF696940220CA812F0F5FE2B
:101520002F210CA812F088FE28B96B6903224021F4
:101530000CA808F0E3FE26490CA812F06EFE04A8E1
:1015400018EE901A08F067FE22480DF0E5FD40B154
:10155000214B93F9003023B904AA0CA91D480EF0C1
:1015600023F80CA812F0A3FE1CAB1844482300F883
:10157000413C18EE101A04A808F04DFE15480DF075
:10158000CBFD40B1144B93F9003023B904AA0CA948
:1015900010480EF009F80FF071FB01462046FFF7E6
:1015A000E9FE1DB0BDEC028BF0BD00BF0E7F010057
:1015B000700300201A7F01002A7F0100317F0100A3
:1015C000337F010078070020387F01003C7F010055
:1015D000EC9B0100E8030020B80300202DE9F04F48
:1015E000054600688BB00F46924640B1A86830B1FE
:1015F0000378FF2903F0100335D11BB901200BB08C
:10160000BDE8F08F032AF9D04778A149A1480EF030
:1016100039FD0A2269799F480EF0B6FD9E499D4822
:101620000EF030FDAB689B4859780A2201F00F019B
:101630000EF0AAFD3F09994996480EF023FD0A22B3
:10164000394694480EF0A0FD92480EF02BFDAB6891
:101650005A7802F00F02BA4207D11A786FF30412D7
:101660001A700020CBE7002BFBD100220DF11808E7
:101670001146404602F0E2FFAB685B7803F00F03CF
:10168000BB4223D0BAF1030F20D0854981480EF028
:10169000F9FC0A2269797F480EF076FD7E497D4883
:1016A0000EF0F0FCAB687B4859780A2201F00F017C
:1016B0000EF06AFD794977480EF0E4FC0A223946BB
:1016C00074480EF061FD73480EF0ECFC29680C2F95
:1016D00000F2B780DFE807F0073A9CA9AB9C7B9C3F
:1016E000ADAF8CB1B300AB685B7803F00F03023B86
:1016F000082B24D8DFE803F0052323A5230F232399
:101700001900684A68480DF0B5F9AB681C780646C0
:1017100004F001042DE0654A63480DF0ABF9AB68B5
:101720001C780646C4F3400423E0614A5E480DF08D
:10173000A1F9AB681C780646C4F3800419E05D4A41
:1017400059480DF097F90646002412E05A4A5648C7
:101750000DF090F9AA681378D94303F0010461F3FE
:1017600000031370064620B90122414608A803F081
:101770004AFB524A29684C480DF07CF9504A2968C6
:10178000814649480DF076F94E4A29688346464815
:101790000DF070F90590BBF1000F07D1B9F1000F02
:1017A00004D14A46414608A803F02DFB002E4BD138
:1017B000404603F0C8F8002846D1AB685A7867F372
:1017C00003025A701A7866F304121A7016E73E4A3A
:1017D00035480DF04FF9A9680B7883F00202C2F387
:1017E0004002C3F34004064662F341030B70C0E7B6
:1017F000364A2D480DF03EF9A9680B7883F00402B3
:10180000C2F38002C3F38004064662F38203EDE76D
:10181000284A25480DF02EF90646002894D10222C8
:10182000414608A803F0EFFA8EE7294A6AE7294AF9
:1018300068E7294A70E7294A6EE7294A76E7294A84
:1018400074E70024264694E7AB68BAF1030F5A7890
:1018500012D067F303025A701A786FF304121A70E9
:10186000059BCDF80090CDE901B3214698E80C0026
:10187000304608F0F5FDC1E602F00F01B9423FF431
:10188000BDAE67F307125A701A7842F010029CE757
:10189000A47E010070030020447F0100AE7E0100A1
:1018A000AC7E0100B27E010078070020B17E01000D
:1018B000B87E0100BF7E0100C47E0100FA7E0100F7
:1018C0003C7F0100FF7E0100C97E0100CF7E010048
:1018D000D57E0100DA7E0100E07E0100E67E010097
:1018E000ED7E0100F37E01002DE9F043614A95B0E1
:1018F00006468846016860480DF0BCF85F4A3168CA
:1019000081465D480DF0B6F85D4A316807465A4891
:101910000DF0B0F8B9F1000F02D10FB900287CD05A
:10192000584A316854480DF0A5F8574A31680546C1
:1019300051480DF09FF85549044655480EF0A2FB5A
:101940000A22717952480EF01FFC524950480EF09D
:1019500099FB0A2241464E480EF0FDFB4C480EF022
:10196000A1FB5FB33B7C03F00F03042B26D1402285
:10197000796904A812F0C9FC47480DF0CDFBE8B125
:10198000464B93F90030CBB92F2104A812F054FC38
:1019900028B97B690322402104A808F0AFFCB8F104
:1019A000000F43D025B12B7C03F00F03042B37D05D
:1019B0003B4A012304A938480DF00BFEB9F1000F92
:1019C0002BD099F8103003F00F03042B25D1354BA1
:1019D000D9F814101A6804A800F0EEFE04A800F06C
:1019E00047FEB8B1B8F1000F35D025B12B7C03F01C
:1019F0000F03042B25D002AC01220021204602F067
:101A00001DFE01220023CDE9002304A894E806006E
:101A100001F03EFB04A800F06FFC15B0BDE8F083B8
:101A20006A691378002BC9D00123C3E724B1237C52
:101A300003F00F03042B02D001231B4ABAE76269AB
:101A4000EFE769690B78002BE4D000231A4604A85D
:101A500002F0DEF9DEE724B1237C03F00F03042B50
:101A600002D002AC0222C8E761690B78002BD1D00A
:101A70004346EBE7FA7E0100780700203C7F010037
:101A8000FF7E0100C47E0100BF7E0100077F0100D0
:101A9000700300202F7F0100E8030020B80300201E
:101AA00084950100DC0300209595010070B59AB083
:101AB000054604AC84E806003A483B490EF0E2FAD9
:101AC0000A22697937480EF05FFB384935480EF035
:101AD000D9FA204603F096FB2968354A35480CF0C0
:101AE000C9FF0023CDE90133009394E80C004FF0C7
:101AF000FF3108F0B5FC29682F4A2E480CF0BAFFD8
:101B000029682E4A06462B480CF0B4FF054658B308
:101B1000037C03F00F03042B26D1416940220AA85D
:101B200012F0F3FB2F210AA812F086FB28B96B698B
:101B3000032240210AA808F0E1FB002300931022B1
:101B40004FF4007306A9204603F04AFA1C480DF032
:101B5000E3FA48B11B4B93F900302BB9012306AAD5
:101B60000AA917480DF035FDD6B1337C03F00F03F9
:101B7000042B15D1144B71691A680AA800F01CFED9
:101B80000AA800F075FD40B101220023CDE9002331
:101B90000AA894E8060001F07BFA0AA800F0ACFB62
:101BA0001AB070BD700300200E7F01002F7F01006E
:101BB000A07E010078070020FA7E01003C7F010032
:101BC000E8030020B8030020DC03002010B50378F0
:101BD0008B42044604D14378402B01D1408810BD8C
:101BE00040232170637008460FF040F980B2608096
:101BF000F5E7000083682DE9F04104460D46002B0F
:101C000000F07B810379072B02D1042940F0758114
:101C1000A44F3B780133DBB22A46FF2120463B70BC
:101C2000FFF7DCFC637922790E3B072BC2F34008F7
:101C300001D9072A32D19C4A21689C480CF01AFF2E
:101C4000064658B3037C03F00F03052B26D12379F6
:101C5000A27961799648FFF7B9FF002280463146A4
:101C600092480CF0FDFE436998451FDA0026032DCB
:101C700060D0A3685A7802F00F02013A0B2A59D8B3
:101C8000DFE812F01F00ED0042006A00ED00720074
:101C9000ED009100A200AA00D300E50060790FF0EA
:101CA00015FAA8EB00035E425E41E0E731460122EF
:101CB0007E480CF0D5FE4669B045CCBF0026012613
:101CC000D5E7B3F802800EF0D9FF4FF6FF7381B26B
:101CD0004FF47A72404608F0A9FB58B3754A216860
:101CE00072480CF0C7FE28B12A4603212046FFF7B0
:101CF00075FC1FE0704A21686C480CF0BBFE0028A0
:101D0000F2D12A460D21F1E7B3F802800EF0B6FFBA
:101D10004FF6FF734FF4967281B2404608F086FB8F
:101D200040B12A4604212046FFF758FC0EF0A6FFDA
:101D3000A3685880A2681378C3F3C001B14200F0D1
:101D4000438113F0E00F00F09C80C3F3421101398E
:101D500061F347131370CCE0B3F802800EF08EFFEE
:101D60004FF6FF739622D7E7B3F802800EF086FF96
:101D70004FF6FF7381B24FF47A72404608F056FB7B
:101D80000028D7D04D4A216848480CF073FE10B1A6
:101D90002A460821AAE74A4A216844480CF06AFE0C
:101DA0000028F5D1ADE7B3F802800EF067FF4FF6DB
:101DB000FF734FF4967281B2404608F037FB00285B
:101DC000B8D02A460921AEE7B3F802800EF056FFDC
:101DD0004FF6FF739622EEE7B3F802800EF04EFF47
:101DE0004FF6FF7381B24FF47A72404608F01EFB43
:101DF00000289FD0334A21682C480CF03BFE10B1DC
:101E00002A460B2172E7304A216828480CF032FE3E
:101E10000028F5D12D4A216824480CF02BFE00281B
:101E20007FF46FAF2A46062160E7B3F802800EF018
:101E300025FF4FF6FF734FF4967281B2404608F0CB
:101E4000F5FA00283FF476AF2A460C216BE7B3F889
:101E500002800EF013FF4FF6FF739622EDE7B3F802
:101E600002800EF00BFF4FF6FF7381B24FF4167233
:101E7000404608F0DBFA00283FF45CAF2A46002118
:101E800034E70EF0FBFEA36858805B7803F00F0385
:101E9000002E4FD0072B27D8DFE803F046261A265E
:101EA000261A264900030020037F0100780700203E
:101EB0002C030020D57E0100DA7E0100E07E0100C7
:101EC000E67E0100ED7E0100F37E0100CF7E010081
:101ED0003E4A21683E480CF0CDFD80B12A460621DD
:101EE0002046FFF77BFB20B1A3681A7866F3C30294
:101EF0001A703B78013BDBB23B70BDE8F081354A9C
:101F0000216833480CF0B6FD0028E7D1324A216839
:101F10002F480CF0AFFD0028E0D1304A21682C4852
:101F20000CF0A8FD0028D9D12A460121D8E72A467D
:101F30000A21D5E7013B0C2BD6D801A252F823F099
:101F4000751F0000E91E00007B1F00007B1F0000C2
:101F5000E91E0000811F0000E91E0000C31F0000F1
:101F6000C31F0000C31F0000C31F0000C31F0000E9
:101F70007B1F00002A460221B2E72A460521AFE76F
:101F8000124A216812480CF075FD10B12A4607214B
:101F9000A6E7104A21680E480CF06CFD0028F5D128
:101FA0000D4A21680A480CF065FD0028EED1216831
:101FB0000A4A07480CF05EFD01460028E6D12A4691
:101FC0008EE72A4600218BE70221C1E6C97E010087
:101FD00078070020E07E0100E67E0100B17E01006E
:101FE0002DE9F047032986B007466DD00168624AA3
:101FF00062480CF03FFD3B79BA7979790646604832
:10200000FFF7E4FD05B2002E6CD0337C03F00F0324
:10201000052B67D1314659480CF018FD032856D9D5
:102020000022314655480CF01BFD012244695348FB
:1020300031460CF015FD0222D0F814A04F4831466D
:102040000CF00EFD43694D484FF00A08032231465B
:1020500008FB03F90CF004FD436908FB03F8214673
:10206000CDF800804B46524628460EF092FC0446BE
:10207000314642480CF0EAFC052830D104223146B2
:102080003E480CF0EDFCB0F914A03C484445C4BFF8
:10209000444640F2FF3531464C45BCBF4C46002516
:1020A0000CF0D4FC022826D10022314633480CF033
:1020B000D7FC4369AB424FDC012231462F480CF07C
:1020C000CFFC4369AB4254DB06B0BDE8F08705EBBB
:1020D000850464004FF000094FF42058C8E74FF022
:1020E000010AD2E705EB850464004FF000094FF4C4
:1020F00020584FF0010ABB68B3F902002A1A002ADF
:10210000B8BF5242524507DC1A785109052907D851
:10211000013161F3471202E01A786FF347121A7027
:102120001B789F2B03D94C4501D04445CCD1A84204
:10213000CAD00022114604AE02A802F07FFA22465D
:1021400002A9304602F0EBFD96E806003846FFF79C
:10215000ADFCBB685D80B7E70024BB68B3F9023013
:10216000A342B1D021463846FFF7BEFBBB685C8076
:10217000AAE70124F1E700BF037F010078070020F0
:102180002C030020836810B5044643B34B1E032B79
:1021900015D8DFE803F01E0202160379402B0BD09E
:1021A00005D8032B0BD82046FFF724FD07E0422B70
:1021B00002D004D3803BF4E72046FFF711FF002054
:1021C0000FE00379072BFAD10421FFF709FF04215F
:1021D000E9E70379042BF2D1FFF7E6F8EFE74FF0D8
:1021E000FF3010BD002303807047000013B50024AA
:1021F000234600942246214603480DF0FBFE034B84
:102200001C805C8002B010BDF80200202C0300206E
:1022100010B5044670B3204912F01BF858B31F499B
:10222000204612F016F840B31D49204612F011F86E
:1022300028B31C49204612F00CF810B31A49204666
:1022400012F007F8F8B11949204612F002F8E0B18F
:102250001749204611F0FDFFC8B11649204611F07C
:10226000F8FFB0B11449204611F0F3FF002814BF65
:102270000020152010BD0120FCE70220FAE7052010
:10228000F8E70620F6E71320F4E71420F2E70E2023
:10229000F0E70F20EEE700BF547F01005D7F0100F3
:1022A000787F0100817F0100F67F0100FF7F010040
:1022B000C97F0100D27F01000880010070B505468A
:1022C00080B1047864B1084E012404EB84013144E8
:1022D000284611F0BEFF18B101340E2CF5D10024B0
:1022E000204670BD0446FBE72C800100806910B1D8
:1022F00003681B691847704710B50446806910B120
:1023000003685B689847204610BD000008B50322AB
:10231000416804480CF0A4FB08B1007D08BDFF2013
:10232000FCE700BF7807002010B503220C46416887
:1023300009480CF095FB70B1037C13F00D0F0AD126
:10234000416921F07F41022221F0FF0162F3030382
:1023500021430374416110BD7807002010B50322AA
:102360000C46416808480CF07BFB60B1037C03F02D
:102370000F03022B01BF24F07F41406921F0FF01D0
:10238000084018BF002010BD7807002010B50322B8
:102390000C46416809480CF063FB70B1037C13F0F4
:1023A0000D0F0AD1022262F30303037424F07F416C
:1023B000436921F0FF011943416110BD78070020F6
:1023C00010B50446806968B103685B69984718B125
:1023D000A06903681B699847A0690368DB68984790
:1023E00008B9012010BD2046FFF790FF20B14FF43F
:1023F00080712046FFF7CAFFE368002BF1D04FF44D
:1024000000712046FFF7C2FFEBE7000010B5032282
:102410000C46416808480CF023FB58B1037C13F0CC
:102420000D0F07D1E143436941F07F4141F0FF01C6
:102430001940416110BD00BF7807002038B50C4637
:102440008168054609B9002038BD0B7C03F00F03F5
:10245000022B03D1002CF6D14869F5E7052BF2D108
:1024600005480CF0F3FA8442EDDAE2B2A9680248BA
:102470000CF0F6FA4069E7E77807002038B50D461A
:102480008168044621B9DFED1A7A17EE900A38BD4B
:102490000B7C03F00F03052B15D116480CF0D6FA70
:1024A000854210DAEAB2A16812480CF0D9FA002885
:1024B000E9D0037C03F00F03022B0FD1D0ED057A96
:1024C000F8EEE77AE1E7002DDDD1A268137C03F096
:1024D0000F03022B07D1D2ED057AF1E7032BD2D1FE
:1024E000D0ED057AD1E7032BCDD1D2ED057ACCE73B
:1024F000000000007807002008B5816869B10B7CF6
:1025000003F00F03022B06D0052B06D104480CF074
:102510009DFA00B208BD0120FCE70020FAE700BFE9
:102520007807002008B5C16809B9002008BD087CFB
:1025300000F00F039A1E012A00D90BB90009F5E734
:10254000052BF2D1002203480CF08AFA0028ECD0C7
:10255000007CF3E778070020C26810B5BAB1137C9D
:1025600003F00F039C1E012C00D983B95161C3688D
:102570001A7C022161F303021A74C268137C03F00F
:10258000F001602902BF0A2161F30713137410BD23
:10259000C26810B5BAB1137C03F00F039C1E012C66
:1025A00000D983B95161C3681A7C032161F3030226
:1025B0001A74C268137C03F0F001602902BF07217E
:1025C00061F30713137410BDC36853B11A7C02F092
:1025D0000F02901E012800D91AB91A7C61F3071264
:1025E0001A74704708B5016909B9002008BD0B7C51
:1025F00003F00F03022B01D14869F7E7052BF4D153
:10260000002203480CF02CFA0028EED04069EDE7D8
:10261000780700202DE9F041036904460F46A3B96D
:1026200041681248114E0CF011FA0546042D0CDCDD
:102630003046D4F804800CF04FFA4146024620613F
:1026400030460CF026FA0135F0E7226962B1137CBE
:1026500013F00F0106D1022161F303031374236900
:102660005F6101E00229FAD0BDE8F081780700201F
:10267000406828B1007C00F00F00431F58425841C9
:1026800070470000F8B50446FFF7F2FF48B36168F1
:102690003248324F0CF0DAF90546032D666809DC42
:1026A00038460CF019FA3146024638460CF0F1F97A
:1026B0000135F2E7F06808B14368A360A3680BB185
:1026C0005B68E360E3681BB15B680BB15B68236127
:1026D00002F052FCC0B20C2820752CD002D803287E
:1026E0000ED0F8BD102830D01228FAD10C200EF0F0
:1026F0005BFB1B4B44600360054606F033FD18E0AE
:1027000010200EF051FB174B03600546446000217A
:102710002046FFF793FE03B2002BB6BF40422B8149
:1027200028816868FFF7E8FE0F4B2B600023688163
:10273000AB81A561D5E714200EF036FB0B4B44604E
:102740000360054606F062F9F3E70EF02DFB084B37
:1027500044600360054606F047FFEAE7780700207B
:1027600018960100D47D0100749601003495010093
:102770001497010010B500230446C0E900218361CD
:102780000377C362FFF77EFF204610BD70B5066871
:1027900005462F21304611F0D9FD044630B1002303
:1027A00000F8013BBDE87040FFF788BD3046FFF7F9
:1027B00085FD00B12C6070BD2DE9F043054689B060
:1027C000002400F11C082A601646CDF804808461BC
:1027D0000477C4620F462346002939D0002A37D037
:1027E0002F21384611F028FD814650B3234602AA16
:1027F000F85C19B238B12F2805D0142B02D0D05470
:102800000133F5E7194608AB1944002301F8183CD9
:10281000104831460CF02EF90F22686009F10101D1
:10282000404611F072FD01A8FFF7B0FF019BE8627E
:1028300003B92B772846FFF725FF284609B0BDE8E6
:10284000F0833A46314603480CF014F96860F1E72A
:102850006B60EFE77807002008B583693BB9007D1E
:10286000052809D014280CBF0020FF2008BD1A68D5
:102870001846926B9047F3E75020F7E708B505221A
:10288000416805480CF0ECF820B1037C13F0F0002F
:1028900018BF180908BD00BF780700202DE9F743CD
:1028A0006D4685E80600416881461F4619B900203B
:1028B00003B0BDE8F0833448DFF8CC800CF0C6F8F4
:1028C0000446052CD9F8046009DC40460CF004F9F4
:1028D0003146024640460CF0DCF80134F1E70522AF
:1028E000314629480CF0BCF804460028DFD02846C1
:1028F00002F0D8F90F28DAD8284602F06DF800283F
:1029000007DD237C13F00D0F10D003F00F03072B0E
:102910000CD0237C1D491E486FF3071323740DF060
:10292000B1FB1B480DF0BEFB0120C1E70EF0A6F97C
:102930000646284602F050F8002F237C0CBF0222E6
:10294000072262F30303304460612374284602F0D7
:10295000A9F9237C0F4960F3071323740C480DF089
:1029600091FB284602F038F80A22014608480DF08B
:10297000D0FB094906480DF085FB0A22616904482D
:102980000DF0C7FBCDE700BF780700209180010064
:10299000700300209B800100A6800100F0B587B085
:1029A0006F4687E80600054697E8030002AC84E816
:1029B000050038461E4602F075F901380C2838D853
:1029C000DFE800F0424B959E8C0739373754627E22
:1029D00070004EBB0722214604A802F014FA4949B0
:1029E00049480DF04FFB204602F05CF90A220146EF
:1029F00045480DF0C9FB454943480DF043FB2046CF
:102A000001F0EAFF0A2201463F480DF082FB3E48F2
:102A10000DF048FB9DF8303094E806002846FFF79B
:102A20003DFF012007B0F0BD2846FFF727FF002833
:102A3000D0D10020F6E70EB10622CCE72846FFF7FA
:102A40001DFF0028F8D1F4E70EB90222C3E728469B
:102A5000FFF714FF0028F8D1EBE70EB10122BAE727
:102A60002846FFF70BFF0028F8D1E2E74FF480314A
:102A70002846FFF773FC08B10B22ACE72846FFF7A6
:102A8000FDFE0028F8D1D4E74FF480312846FFF747
:102A900065FC08B90A229EE72846FFF7EFFE0028EA
:102AA000F8D1C6E74FF400312846FFF757FC08B9C4
:102AB0000C2290E72846FFF7E1FE0028F8D1B8E79E
:102AC0004FF400312846FFF749FC08B10D2282E798
:102AD0002846FFF7D3FE0028F8D1AAE70EB103225B
:102AE00079E72846FFF7CAFE0028F8D1A1E70EB91A
:102AF000052270E72846FFF7C1FE0028F8D198E7C5
:102B0000042268E7D980010070030020ED800100F5
:102B100018B1034903480DF0B5BA0349FAE700BFFD
:102B2000417F010070030020467F01002DE9F04342
:102B30009FB04FF0000802AC84E80600269FCDF855
:102B400024801022414606460AA81D4610F009FCC2
:102B5000A449A5488DF82080CDE906880DF09BFAA0
:102B60003946A1480DF097FA204602F04BFBEA05E2
:102B70001AD5204602F096F8172800F2CE800123DD
:102B800003FA00F0994B18420AD1994B0340002BED
:102B900040F0C78010F0240F00F0BF80954900E09E
:102BA000954906A811F05FFB94480CF0B5FA00288F
:102BB00000F0AB80924B93F900209846002A40F039
:102BC000A480002F44D13B46032240210EA807F0E9
:102BD00095FB73683F2219680EA811F070FBAB05D6
:102BE00040F1AE80204602F05DF8022800F0A88097
:102BF000204602F057F8052800F0A280204602F097
:102C000053F8012840F090804FF001094FF4007311
:102C1000142209A9CDF80090204602F0E1F94B46B4
:102C200009AA0EA975480CF0D4FC76496E480DF03F
:102C300029FA0EA96C480DF02EFA73496A480DF076
:102C400021FA09A968480DF026FA67480DF02AFA1A
:102C5000204601F087FE05F4005908B1A90503D408
:102C6000B9F1000F00F09D800023032240210EA83F
:102C700007F044FB73683F2219680EA811F01FFB90
:102C800047B162490EA811F0C8FA3F2239460EA892
:102C900011F015FB5D490EA811F0BFFA3F22B9F102
:102CA000000F67D05A490EA811F009FB204601F029
:102CB000FBFF043801285FD81722214604A802F040
:102CC000A2F8002300934FF44073142209A9204670
:102CD00002F086F94B4944480DF0D4F90EA9424858
:102CE0000DF0D9F9484940480DF0CCF909A93E4802
:102CF0000DF0D1F93C480DF0D5F940480CF00CFA34
:102D000018B198F90030002B40D030462946FFF723
:102D10003DFB00201FB0BDE8F0833E4932480DF076
:102D2000B1F925F480753FE7204601F0BDFF022888
:102D30003FF46AAF204601F0B7FF08283FF464AFC4
:102D4000E80585D59DF81830002B81D0012306AA0F
:102D50000EA92A480CF03DFC2A4923480DF092F9AF
:102D60000EA921480DF097F927491F480DF08AF95F
:102D700006A967E7284996E70023B9F1000F0093F9
:102D80000CBF4FF400734FF440739EE70EA901236C
:102D900009AA1A480CF01DFC4FF400713046FFF7E9
:102DA00035FBEA0540F18680204601F07BFF0138C3
:102DB000142837D8DFE810F0DB0036003600360084
:102DC0003600DB00360036003600360036003600AE
:102DD0003600DF00D9003600360036003200D5005C
:102DE000D70000BFAC8001007003002042C0380053
:102DF000010080005D7F0100547F0100E803002096
:102E0000B8030020D3800100AE7E0100E18B0100F9
:102E100040800100B9800100368001005C4906A8AD
:102E200011F021FA0023032240210EA807F066FAD0
:102E300073683F2219680EA811F041FA47B155494D
:102E40000EA811F0EAF93F2239460EA811F037FA20
:102E500050490EA811F0E1F93F224F490EA811F098
:102E60002EFA4E494E480DF00DF90EA94C480DF0C2
:102E700012F94C494A480DF005F906A948480DF0E9
:102E80000AF947480DF00EF947480CF045F90028BB
:102E90003FF43BAF98F90030002B7FF436AF0EA91A
:102EA000012306AA40480CF094FB4FF48071304691
:102EB000FFF7ACFA6B0552D54FF480313046FFF77F
:102EC0004DFA002859D0394906A811F0CCF9002351
:102ED000032240210EA807F011FA73683F221968F7
:102EE0000EA811F0ECF947B12A490EA811F095F996
:102EF0003F2239460EA811F0E2F926490EA811F03A
:102F00008CF93F222A490EA811F0D9F92349244807
:102F10000DF0B8F80EA922480DF0BDF8214920485F
:102F20000DF0B0F806A91E480DF0B5F81C480DF0DC
:102F3000B9F81D480CF0F0F800283FF4E6AE98F917
:102F40000030002B7FF4E1AE0EA9012306AA16483B
:102F50000CF03FFB4FF480613046FFF757FA012039
:102F6000D8E614495BE7144959E7144957E7337D1C
:102F7000052B7FF457AF124951E74FF4003130462B
:102F8000FFF7ECF908B10F499EE70F499CE700BF36
:102F9000F67F0100E18B010031800100D380010048
:102FA00070030020AE7E0100E8030020AE7F010028
:102FB00059800100FF7F010008800100D27F0100DD
:102FC000C97F0100C07F0100A57F0100F0B5CB07DC
:102FD0000C4644BF21F4805424F0010414F48057BB
:102FE00085B005460CD004F4E0612846FFF7CEF921
:102FF000144915480DF046F84FF0FF3005B0F0BD0C
:1030000007F002F99528EED902F090FF0028EAD0E7
:1030100002AE3A463946304601F010FB4FF440729A
:103020002946304601F0FFFE4FF4E0612846FFF7E5
:1030300095F9009744EA000396E806002846FFF752
:1030400075FDDBE7728001007003002010B54FF4BE
:1030500040710446FFF782F9014670B1074B93F9BE
:103060000030062B09D12046FFF7B0FF20464FF471
:103070004071BDE81040FFF7C9B910BDE003002062
:1030800083691BB11A681846926B1047007D704720
:103090002DE9F04F93B00AAE09939DF87030039379
:1030A0009DF874300493054686E8060007F0ACF8F6
:1030B000B0F5966F04460EDAAF49B0480CF0E2FF67
:1030C0000A222146AD480DF046F8AC480CF0EAFF64
:1030D0004FF0FF39A9E30DF0D1FD0790304601F024
:1030E00099FE0290074602F021FF099B06901BB152
:1030F0001A78002A40F01B862B7F13B105F11C03C0
:103100000993002F40F02B86099B002B40F011867D
:10311000EB6A0293002B00F02286304601F07AFE23
:10312000002840F01C869DF80820314610A801F0C8
:1031300073FE00F014BE6B68002BC9D0029B042BF9
:1031400007D1049B96E806002846FFF7A7FB8146B7
:103150006BE396E803000CAB83E80300304601F014
:10316000A1FD092800F22282DFE810F00A00200207
:10317000200220026D01200220022002AF01AF01D7
:1031800000220DF138091146484601F057FA304641
:1031900001F0E8FB0746002800F04F81029B0C2B52
:1031A0001AD8DFE813F00D001900690019001900A2
:1031B0001900190019001900190017010301330142
:1031C000DDF82480B8F1000F0AD06D496D480CF08D
:1031D00059FF6C480CF066FF0024A2462746F6E033
:1031E000284601F01DF80028D4BF002101210A2241
:1031F000044664480CF0AFFF634962480CF04BFF93
:10320000304601F0E9FB0A2201465E480CF081FFDE
:103210005C480CF047FF002C304640F37F8501F0FE
:10322000DBFB70BB0222314610A801F0ECFD40F23E
:1032300001144FF0010806E00122314610A801F008
:10324000E2FD40F201144FF400722946484602F0B4
:103250003DFB484601F028FD042814D1304601F01A
:1032600023FD022814D1304601F01EFD0EA90246AE
:1032700010A801F01DFD0BE0002427464FF0FF3899
:10328000E1E74446D5E7484601F00EFD0528E5D0C4
:103290002B7D072B08D1304601F06AFB20B10222BA
:1032A0000EA910A801F004FD2846FFF7E9FE00B2C0
:1032B00000900DF1380A0DF1280910A899E80C00CA
:1032C000514602F01BF8504601F09CFF3FB14846C2
:1032D00001F0EAFC022859D1504602F023FB9AE89B
:1032E000030089E8030044F490544FF0000A4FF0C3
:1032F000FF392B7D072B40F05082039B73B3AB68E3
:103300001B7C03F00F03052B40F05981069B002B1B
:1033100000F05281284600F083FF049B00930028B0
:10332000099BA9680AAA2846D4BF4FF000094FF0AC
:10333000010900F0EFFE029B012B4FFA89F840F0E3
:103340003E810AA801F00EFB039038B1049B009364
:103350000CAA4B4606CA2846FFF720FB0AA801F034
:10336000A1FC0338042800F25081DFE810F02A01A4
:103370004E01ED0172015101F88001008C03002023
:103380003881010070030020447F0100484601F0AD
:103390008BFC0128A0D0484601F086FC0A289BD06F
:1033A000484601F081FC0B2899D195E729464FF456
:1033B0000072484602F08AFA304601F02BFAC1B298
:1033C000484601F0CCF998B9BA4600273C464FF080
:1033D000FF388CE729464FF40072484602F076FA2F
:1033E000304601F010FA0146484601F09DF9EAE73F
:1033F00099E80300022286E803000027314610A85E
:1034000001F00AFD4FF49054BA46E0E74FF4007221
:103410002946484602F05AFA304601F0D9F90146E9
:10342000484601F0AEF999E803004FF0000A86E83B
:1034300003004FF490545746C9E7824604464FF0C4
:10344000FF39C84655E7029B092B20D0284600F0DB
:10345000E7FE00280DDD0222314610A8012701F009
:10346000D2FC40F201144FF0FF394FF0000AB84689
:103470003FE70122314610A84FF0000A01F0C3FCDB
:1034800040F201144FF0FF390127D04631E74FF4E5
:1034900080312846FEF762FF07464FF48031284608
:1034A0005FB1FEF7B3FF40F201444FF001094FF066
:1034B000000A57464FF0FF381BE7FEF767FF40F260
:1034C00001444FF00109BA46F3E796E803000DF115
:1034D000380888E80300304601F044FAE0B90524D2
:1034E000304601F0DFFB4FF40072092829463046D0
:1034F00008BF644202F0EAF90022314610A801F048
:1035000082FC029B0B2B49D8DFE803F021480D48D1
:103510004848484848482343304601F033FA0446B7
:103520000028DCD0DCE700272846FFF795F9214684
:103530000246304601F070F9044690BB98E803005B
:1035400086E803004FF0010A4FF0FF39B2E7012788
:10355000EAE72146304601F0BCF950B1022231467B
:1035600010A84FF0000A01F057FC4FF49054574652
:10357000EAE798E8030086E80300AE49AE480CF09D
:1035800081FDAD480CF08EFD00244FF0010A274666
:10359000DAE72146304601F0C2F9DEE70024A24610
:1035A000F5E74FF490544FF0000ACDE700244FF0B8
:1035B000FF39A246274644E7069B0393CEE6002345
:1035C000FBE72846FEF7A2FE0528804602D04FF012
:1035D00003092AE199499A480CF054FD0A22414610
:1035E00097480CF0B8FD96480CF05CFD4FF4007263
:1035F00029460AA802F06AF901220AA910A801F0D6
:1036000002FC44F4807444F001044FF0000B47E0E6
:103610002846FEF77BFE062880460DD1894988485A
:103620000CF030FD0A22414685480CF094FD844898
:103630000CF038FD0222E0E7834981480CF022FDBE
:103640000A2241467E480CF086FD7D480CF02AFD9A
:10365000BDE74FF480312846FEF780FE002871D187
:10366000B8F1FF3F08D1284600F0DAFD0028D4BFAA
:103670004FF000084FF00108B8F1000F5DD14FF492
:10368000007229460AA802F021F901220AA910A80D
:1036900001F0B9FB44F4807444F001044FF0060BD0
:1036A0000AA801F055F900286BD10AA844F00104DA
:1036B00001F058F9002867D044F40074039B13B15B
:1036C00024F40074A4B2224629460AA801F000FCA2
:1036D0004FF00109BAF1000F40F07183A86900288A
:1036E00040F0E4814FF400312846FEF737FE002811
:1036F00000F0E581554950480CF0C4FC4E480CF0F0
:10370000D1FC630500F1FD8251494D480CF0BAFC33
:103710000A2249464A480CF01EFD4E4948480CF022
:10372000B1FC0DF0ABFA079B0A22C11A44480CF019
:103730001EFD43480CF0B6FC77E0474940480CF0CA
:10374000A1FC44E74549F9E7B8F1FF3F08D1284615
:1037500000F066FD0028D4BF4FF000084FF00108CC
:10376000B8F1000F0BD002220AA910A844F480740B
:1037700001F049FB44F001044FF0050B90E7384994
:10378000DCE744F4807490E74FF4007229460AA8FD
:1037900001F049FB00288FD190E7B8F1FF3F08D135
:1037A000284600F03DFD0028D4BF4FF000084FF040
:1037B0000108B8F1000F2B49214818BF01270CF070
:1037C00061FC0A2241461E480CF0C5FC26491C48F3
:1037D0000CF058FC0A22394619480CF0BCFC184879
:1037E0000CF060FC0998002844D0FEF711FD089009
:1037F0002846FEF78BFD0FFA80FB089BBBF1000FFC
:1038000001D10FFA88FB002B5BD09B4530D01749C4
:103810000B480CF037FC0A22594609480CF09BFC77
:1038200007480CF03FFC6FF00209484613B0BDE8B2
:10383000F08F00BF4D8101008C03002059810100F1
:10384000700300206E810100858101003982010032
:10385000AC820100B7820100A3810100BD8101009B
:10386000D2810100EF810100FD810100048201008D
:1038700000230993029B012B30D1039B1BB10AA8A3
:1038800001F070F803900AA801F00CFA152800F274
:10389000F880DFE810F0B700CA00A7002600B700E4
:1038A000970074005000B700B700F300F300040164
:1038B0000401E100E100F600F600F600E100E1009D
:1038C000E100A8690028D5D0049A0368CDE9007208
:1038D0000AAA9C6A099B06CAA04738E400230393FE
:1038E000D1E72846FEF712FD052807467FF46FAEA4
:1038F0008D498E480CF0C6FB0A2239468B480CF0E5
:103900002AFC8A480CF0CEFB4FF4007229460AA824
:1039100001F0DCFF2B7D052B0CBF0E2201220AA932
:1039200010A801F070FA44F4807444F001044FF0E0
:10393000000B012768E02846FEF7E8FC062807464A
:1039400016D17B4979480CF09DFB39460A2277480D
:103950000CF001FC75480CF0A5FB0AA910A8022286
:1039600001F051FA4FF400212846FEF74FFDDAE747
:1039700070496E480CF086FB0A22394662E64FF425
:1039800080312846FEF7EAFC00287FF4DBAEB8F170
:10399000000F7FF4D2AE4FF4007229460AA801F05E
:1039A00095FF01220AA910A801F02DFA44F48074B1
:1039B0004FF400212846FEF7E9FC44F001044FF0E3
:1039C000060BB6E7B8F1000F3FF4D9AE02220AA900
:1039D00010A844F4807401F016FA44F001044FF08A
:1039E000050BA6E70AA800F0B3FF074600285BD046
:1039F0002846FEF78BFC05283FF4E9AD44F48074BB
:103A000044F001044FF0000B039B002B3FF462AE27
:103A1000049B00930CAA08F0010306CA284624F46C
:103A20000074FEF7BBFFA4B254E60AA800F090FFB2
:103A300000283FF47CAFB8F1000F0DD03E493B4861
:103A40000CF020FB28460121FEF76EFC4FF4885154
:103A50002846FFF7BBFABAE50AA800F079FF074647
:103A600010B30AA800F07EFF28B94FF4007229466F
:103A70000AA801F02BFF44F44074C1E744F48064C9
:103A800055E70AA800F05FFF08B144F480740AA863
:103A900000F068FF074638B144F40074B2E74FF015
:103AA000000B4FF4806444E7BB4642E703680AAA70
:103AB0001B6B06CA984700287FF414AE1AE6D5F8A7
:103AC0001880B8F1000F39D00AAE24B12246294639
:103AD000304601F0FDF9049AA8690368CDE9007247
:103AE0009F6A099B96E80600B8478146A869036863
:103AF0009B6B9847052808BF44F0010414F4806FBD
:103B000018BF4FF00109BBF1000F03D059462846FA
:103B1000FEF70AFC069B002B3FF4F6AD2146284633
:103B2000FFF754FAF0E500BF59810100700300204F
:103B30006E81010085810100208201002B7D052B13
:103B400075D0062BDFD10AA800F0FDFE00286ED04C
:103B500041462846FEF772FC074606B20AA801F065
:103B6000A1F8049B8046002B47D024B12246294669
:103B70000AA801F0ADF9002EC5D0BCBF7E4236B216
:103B800006F1FF339BB2B4BF01270027192BBAD827
:103B9000012130460DF060FAB8F1150F09D8012364
:103BA00003FA08F8874B18EA030F35D118F0A40F71
:103BB0003AD1854985480CF065FA0A223146834896
:103BC0000CF0C9FA824981480CF05CFA0A22059986
:103BD0007E480CF0C0FA7D480CF064FA304606F0DE
:103BE00049FE28B12846FEF749FE08B902F090FFC9
:103BF00044F4807444F001047DE0304606F03AFE5F
:103C00000028B2D0734974480CF03CFA72480CF0AA
:103C100049FA6FF0040908E687F001030593194695
:103C200030460DF041FAC4E705973946F8E724B16C
:103C3000224629460AA801F04BF9029B022B5DD0CF
:103C4000032B09D0012B7FF45EAF44F4807444F061
:103C50000104DDF8089056E72846FEF7C3FC030C84
:103C6000074611D15D495E480CF00CFA6B685C4860
:103C700019680CF010FA5A480CF014FA6B6859499C
:103C80001A6859480BF090FC304600F0C7FE0EF061
:103C900021FD0022554B0EF075FD0FF023F80FFAB1
:103CA00080F8082006F0CAFD68F30F07064660F3A7
:103CB0001F474F4945480CF0E5F96B6843481968C0
:103CC0000CF0E9F94B4941480CF0DCF90A22414675
:103CD0003E480CF040FA48493C480CF0D3F9B1B2E8
:103CE0000A223A480CF037FA38480CF0DBF939462A
:103CF0002846FEF78FFC4FF0010904E744F40074F6
:103D000078E7069B002B3FF4FFAC29464FF4806216
:103D10000AA801F0DDF84FF4806100E700F05CFED6
:103D200000287FF489AA04468046FFF78CBA029ADD
:103D3000AAB91B78002B3FF4EBA909A8FEF726FDD2
:103D40000290304601F066F828B99DF80820314607
:103D500010A801F061F8029B002B3FF4D9A9274974
:103D60001A480CF08FF90A22214618480CF0F3F992
:103D7000234916480CF086F96B68144819680CF052
:103D80008AF9204911480CF07DF909990F480CF087
:103D900082F91D490D480CF075F9304601F032FAF0
:103DA000099B002B3FF4C7A91B78242B7FF4C3A9E0
:103DB000164906480CF066F904480CF073F96FF0E8
:103DC000030932E542C03000788201007003002010
:103DD0002F7F01006B8201008C0300207D82010097
:103DE000BC0300208D820100E80300200000594040
:103DF0009C820100A3820100A78201000C810100C6
:103E0000178101001E810100447F0100248101000F
:103E10002DE9F04F91B08046CDE90421994609B9CA
:103E2000002013E006F0F0F9B0F5966F044610DAC2
:103E3000B549B6480CF026F90A222146B3480CF0E1
:103E40008AF9B2480CF02EF94FF0FF3011B0BDE8FE
:103E5000F08F049B0BB11B782BB998F81C3013B171
:103E600008F11C030493049BE3B9D8F82C6016BB3B
:103E70004021059810F0E0F900283CD004460023CA
:103E800004F8013B0598214606F0F2FC05948246B1
:103E90000024059D2F5D87B3384611F02AFA285576
:103EA0000134F6E71B78002BDFD004A8FEF76EFC88
:103EB00006460028D9D00D2EDAD10AAC00221146D0
:103EC000204600F0BBFB059A21460CA800F08FFFAE
:103ED000324621460CA800F09FFFB9F1000F9FD198
:103EE000CDF8049001230093049B94E8060040461B
:103EF000FFF7CEF8AAE78246CAE7284600F050FB53
:103F000006ACC2B205463946204600F097FB052EA6
:103F100028D0062E08BF17255FFA86FB0CAF5A463D
:103F20002146384600F078FF092D1DDC082D80F26F
:103F3000DA80AA1C03DB6B1C7FF772AFF5B105A812
:103F400006F0B9F8024618B12146384600F0CFFE17
:103F5000B9F1000F7FF464AF01230093CDF804A002
:103F60004B46C2E71825D7E7172D00F08B80182D98
:103F7000E5D100222146384600F045FF08AD05A9ED
:103F8000284606F0B9F85A462946384600F044FF5C
:103F9000284600F089FE10F1000B18BF4FF0010B0E
:103FA0000022059913B259B1032A08D005A803923B
:103FB00006F081F8039A47F822000132F1E7134630
:103FC0000B2E11D00C2E17D00A2E1DD1284600F032
:103FD00003FD81B2204600F0A7FBB9F1000F7FF48A
:103FE0001FAFCDF804A07DE7284600F0F5FCC1B274
:103FF000204600F0B4FBF0E7284600F0EDFC014657
:10400000204600F0BEFBE8E75B449BB2013B032B7C
:1040100030D8DFE803F00207122095E8030084E8B7
:104020000300DAE7284600F0D7FC9DF8303082B272
:1040300021460AA800F0A4FECFE7284600F0CCFCF9
:104040009DF8342000929DF8303082B221460AA8B3
:1040500000F07FFEC1E7284600F0BEFC9DF834204A
:104060000092214682B29DF830300AA800F071FE1D
:104070000E99C5E7264925480CF004F823480CF0B2
:1040800011F8AAE700222146384600F0BCFE0025C0
:10409000059A2BB242B1042D0AD005A806F00BF800
:1040A00047F825000135F3E7032B10D0042B94D1FA
:1040B0009DF83C1001919DF8381000919DF8343026
:1040C0009DF8302021460AA800F07EFE85E79DF885
:1040D000381000919DF834309DF8302021460AA810
:1040E00000F062FE79E70AAC05A9204606F004F864
:1040F000EAB22146384600F086FE5A462146384646
:1041000000F08AFE69E700BFBE8201008C03002038
:10411000DC8201002DE9F04F91B0804616469946A9
:104120009DF868A0002973D00B7C03F00F03052BCA
:104130006ED1384DCC682B78DFF8E0B001332B70AE
:10414000002C62D0237C03F00F03042B04D001D396
:10415000062B4ED96468F3E76269D8F80010584618
:104160000AF088FC07460028F4D0037C03F00F0314
:10417000052BEFD1284B01461A6804A8FEF7FAFA7E
:104180006EB104A8FEF774FA48B100230093CDF88D
:1041900004A04B463168726804A8FEF779FF9DF8C9
:1041A0002430072B18D10122394658460AF058FC12
:1041B000CDF800A001464B4632464046FFF7AAFF25
:1041C0009EB990B12B7804A8013B2B70FEF794F8B0
:1041D000012011B0BDE8F08F3EB904A8FEF748FAFF
:1041E00018B104A800F01CF8EBE704A8FEF784F867
:1041F000B0E70023CDE901330093326873684FF0D4
:10420000FF31204606F02CF9A4E72B78013B2B70F8
:104210000020DEE76D030020DC030020780700208B
:104220007FB500221146054602A800F007FA4A4968
:104230004A480BF027FF6B68484819680BF02BFFC2
:10424000474946480BF01EFF2846FEF711FA58B9B9
:10425000444942480BF016FF40480BF023FF4FF053
:10426000FF34204604B070BD2846FEF74FF80646DE
:10427000A86958B10368DB6A984704B2002C05DBD3
:1042800014BF01200020FEF743FCEAE72B7D072B3B
:1042900013D0701C152810D80126334C06FA00F0F4
:1042A000044004D110F0490F07D02046EBE72F4916
:1042B0002A480BF0E7FE3446D3E74FF40072294654
:1042C00002A800F0B0FD2B7D033B062B3DD8DFE8B4
:1042D00003F038233C3C04382300AB681B7C03F01C
:1042E0000F03052B4FF000041BD121491B480BF095
:1042F000C9FE234622460094A9682846FFF70AFF14
:104300001C49044615480BF0BDFE2046FEF700FC94
:1043100012480BF0C7FEA4E7002102A800F056FCEB
:10432000044615490D480BF0ADFE21460A220B4804
:104330000BF011FF09480BF0B5FE003418BF012443
:104340008FE702A800F048FBEAE70C4903480BF0AE
:1043500099FE002485E700BF11830100700300204F
:10436000447F01001983010084803000417F0100F7
:1043700025870100228301002F830100258301008E
:10438000F0B54FF4006185B00546FDF7E7FF002862
:1043900047D0002202AC1146204600F04FF94FF4FE
:1043A00040722946204600F03EFDAB69002B38D014
:1043B0004FF400612846FEF729F81B491B480BF013
:1043C00061FEA869002301260268CDE90063976AAF
:1043D00094E80600B847431C044622D06B68134893
:1043E00019687CB90BF057FE114910480BF04AFED2
:1043F00010490E480BF046FE0C480BF053FE2046C9
:1044000005B0F0BD0BF047FE094908480BF03AFE35
:10441000094906480BF036FE04480BF043FE3446CB
:10442000EDE70224EBE700BF83800100700300206A
:10443000AA800100388D0100208601002DE9F04F8F
:10444000044689B08946FFF79BFF0522616847480B
:104450000AF006FB0646002872D0037C03934FEA5D
:10446000131A45690CF00AFCBAF1000F68D0A5EBED
:10447000000804AD52460B21284606AF00F0DEF8D6
:1044800042462946384600F032FCB9F1040F17D1F4
:104490000023009395E806004FF400532046FEF7F2
:1044A00045FB0A224FF47A71314898FBF1F10BF089
:1044B00030FE30492E480BF0E5FD2D480BF0F2FDA3
:1044C000B8F1000F3CDA2C4B984539DB05F09CFE27
:1044D0004FF00008CDF8008083464FF4005395E874
:1044E00006002046FEF722FBBBF5966F10DA234943
:1044F00023480BF0C7FD0A22594621480BF02BFE3A
:104500001F480BF0CFFD4FF0FF3009B0BDE8F08F32
:10451000337C68F30713337452464146384600F043
:104520008DF8039B03F00F03DA1F534253410193AD
:104530000123009397E8060043462046FEF7A8FDB6
:10454000B9F1010F02D12046FEF780FDA06908B93C
:104550000020DAE703685B6998470028F8D0A06973
:1045600003680FFA89F19B689847CEE77807002027
:1045700070030020E982010002000080F88201003F
:104580008C03002007B5002300931A461946034800
:104590000BF030FD03B05DF804FB00BF30030020DA
:1045A000F8B50646F0B10378E3B12D2B1ED0A3F188
:1045B0003002092A1AD9252B1AD07B2B1AD0232B8B
:1045C0001BD00F4F012404EBC4053D4428460FF0D7
:1045D0006EFE2946024630460FF085FE20B10134BA
:1045E000192CF0D14FF0FF342046F8BD0024FBE732
:1045F0000824F9E76FF00104F6E71724F4E700BF99
:1046000051830100F8B5064690B1037883B10A4F93
:10461000002404EBC4053D4428460FF048FE29461B
:10462000024630460FF05FFE20B10134172CF0D166
:104630004FF0FF342046F8BD3284010010B500234E
:104640008370C370037143718371C37161F303039A
:104650004370027010BD002202708270C270072287
:10466000427041607047000093B2112B70B516463E
:104670009CBF134AD25C4B7888BF002262F30303CD
:104680004B7005460C460F480F490BF0FBFC0A2205
:1046900031460C480BF05FFD0C490A480BF0F2FC68
:1046A000617808480A2201F00F010BF06DFD054802
:1046B0000BF0F8FC23682B6063686B60284670BDC4
:1046C0003A83010070030020778501008285010094
:1046D0004B7803F00F03013B082B1AD8DFE803F0F7
:1046E000160E0E19191919050C000D4B4B600B68AD
:1046F00003604B68436070470A4BF7E764238B7194
:10470000CB7923F00103CB7100234B71FF230B7195
:10471000EDE700230B714B718B71CB71E7E700BFA5
:104720000000A04100009642437813F00F0203D02E
:10473000022A05D000207047022262F3030343706F
:1047400040F26D139942A8BF1946C379817123F0D5
:104750000103C1F300211943C1710120704743785F
:1047600013F00F0203D0022A05D000207047022266
:1047700062F3030343706429A8BF642141710120DF
:10478000704713B50446084631B9E37960F347032F
:10479000E371012002B010BD642300934FF4FA725C
:1047A000002399210CF0F5F8637813F00F0208D07C
:1047B000032A0BD820EAE0706428A8BF64200130E7
:1047C000E3E7022262F303036370F3E70020E1E70B
:1047D00007B5C27912F0FE0F12D0437803F00F0331
:1047E000013B022B0CD850084FF4FA73009364225B
:1047F0009923002101380CF0CCF803B05DF804FBDC
:104800004FF0FF30F9E7C379827903F0010342EA00
:104810000320704740797047437803F00F03013B52
:1048200010B50A2B53D8DFE803F00606525252485F
:104830002F2F2F1010000279642391FBF3F1114404
:1048400081F308010171012010BD632944684FF014
:1048500064030FDC03FB04112AB153439942A8BF40
:10486000194621EAE17143784160062262F30303AD
:104870004370E8E791FBF3F12144E2B19142A8BF14
:10488000114621EAE17116E0436807EE903AFDEE29
:10489000E77A642417EE903A91FBF4F1194422B1BF
:1048A0009142A8BF114621EAE17107EE901AF8EE95
:1048B000E77A17EE901A4160C5E743681944002A69
:1048C000F9D0642353439942A8BF1946D9E7002081
:1048D000BAE7437803F00F03022B1ED1C279837924
:1048E00002F0010243EA0223642291FBF2F119442F
:1048F000B1F5B77F0FDA40F26D1331EA210128BF1D
:104900001946C379817123F00103C1F300211943D2
:10491000C171012070470021F3E700207047437800
:1049200003F00F03022B0CD14379642291FBF2F1C7
:10493000194421EAE1719142A8BF11464171012059
:104940007047002070470078003018BF0120704782
:104950008378012B04D80078003018BF01207047FD
:1049600000207047407810F00F0018BF01207047FA
:10497000407800F00F00023803288CBF002001208F
:1049800070470000437803F00F03013B0A2B1ED849
:10499000DFE803F00A0A1D06061B0F0F0F060600CC
:1049A00043686420584370470079642310FB03F088
:1049B000704743689FED077A07EE903A67EE877A73
:1049C000FDEEE77A17EE900A7047406870470020C6
:1049D000704700BF0000C842437803F00F03013B5B
:1049E0000A2B18D8DFE803F00808170606120A0A8F
:1049F0000A0606004068704700797047406807EE75
:104A0000900AFDEEE77A17EE900A7047406864233B
:104A100090FBF3F07047002070470000437803F0EC
:104A20000F03013B0A2B1ED8DFE803F013131D060A
:104A3000060E191919060600436807EE903AF8EEBB
:104A4000E77A17EE900A70474368642293FBF2F30B
:104A5000F3E7037907EE903AF8EE677AF1E74368F7
:104A600007EE903AEDE7DFED017AEAE7000000009B
:104A7000437803F00F0307B50B2B60D8DFE803F092
:104A80006216165F5F5F44245F5F0606406849B1A7
:104A9000D0F1640056D46428A8BF642000B203B0EB
:104AA0005DF804FB0028F6DA0846F8E7007931B132
:104AB000002100916423FF220BF06BFFEEE76423DB
:104AC0000093FF220B46F7E7436807EE903A99B14F
:104AD0009FED1E7A77EE677AF5EEC07AF1EE10FA66
:104AE00030D4F4EEC77AF1EE10FA2DDCFDEEE77A61
:104AF00017EE903A18B2D2E7F5EEC07AF1EE10FA5E
:104B0000D2D49FED127AECE7436861B142F273723E
:104B1000934217DC13F1630F16DB6FF0630093FB16
:104B2000F0F06430BAE713F1630FBDDB42F2737249
:104B300093424FF06400B2DC93FBF0F0AEE74FF02D
:104B4000FF30ACE70020AAE76420A8E70000C842D5
:104B500013B504460846637803F00F03013B0A2BA4
:104B600032D8DFE803F00F0F313131281A31310626
:104B70000600FF2300930023642219460BF009FF6F
:104B8000606007E0FF2300930023642219460BF0C6
:104B900000FF2071012002B010BDFF23009300230D
:104BA000642219460BF0F5FE07EE900AF8EEE77A5C
:104BB00017EE900AE4E746F29C3300930023642248
:104BC00019460BF0E6FE60600020E4E7437803F04E
:104BD0000F030B2B5FD8DFE803F06117175E5E5EF3
:104BE000461E5E5E0606406841B1002839DBFF289C
:104BF000A8BFFF20C0F1FF0001B20AE0002808DBD7
:104C0000FF28A8BFFF20F7E700790029F4D0C0F102
:104C1000FF01084670474368A9B107EE103AB5EEA8
:104C2000C07AF1EE10FA1CD4DFED1D7AB4EEE77A0B
:104C3000F1EE10FA32DC77EEC77AFDEEE77A17EE86
:104C4000903A19B2E5E707EE903AF5EEC07AF1EE48
:104C500010FADED49FED127AF4EEC77AF1EE10FA74
:104C6000EBDDFF21D5E7406859B110F1630FF8DBA8
:104C7000B0F5C84F12DA6FF0630190FBF1F0FF302E
:104C8000BAE710F1630FC4DBB0F5C84FE9DA64216D
:104C900090FBF1F0B0E74FF0FF31BAE70021B8E741
:104CA00000007F4300787047407800F00F007047A5
:104CB0004B7810B562F303034B700B6803604B68CD
:104CC000436010BD4B7810B503F00F04013C012C7C
:104CD00084BF012464F3030382F30802D2B288BFC5
:104CE0004B700B680A7103604B68436010BD4B78D2
:104CF0004A6030B50A2565F303034B700B68036007
:104D00004B68436030BD4B784A6030B5072565F38A
:104D100003034B700B6803604B68436030BD4B78F6
:104D200030B5062565F303034B700A235A434A60E6
:104D30000B6803604B68436030BD4B784A6030B508
:104D4000062565F303034B700B6803604B684360F3
:104D500030BD70B54C788A71022666F303044C703E
:104D6000C2F30024CA794B7122F001029DF8103081
:104D70000B7122430B68CA7103604B68436070BDBE
:104D800070B54C788A71032666F303044C70C2F345
:104D90000024CA794B7122F0010222430B68CA71C8
:104DA00003604B68436070BD70B54D784B7104264D
:104DB00066F303059DF810304D700B718A710B6816
:104DC00003604B68436070BD70B54D784B7105262C
:104DD0009DF810300B7166F303059DF814304D708B
:104DE000CB718A710B6803604B68436070BD4B7870
:104DF0004A6030B50C2565F303034B700B68036004
:104E00004B68436030BD10B50A700B6803604B6897
:104E1000436010BD8078704710B58A700B680360DE
:104E20004B68436010BD2DE9F041044616460D461F
:104E300019B900273846BDE8F0810846FDF718FC8F
:104E400007460028F5D02846FDF76CFBF3058046A1
:104E500003D52846FDF75AFA207006F40076B8F11B
:104E6000000F09D0637868F303036370002EE1D06C
:104E7000EB685B696360DDE7002EDAD0EA68137CDB
:104E800003F00F03022B03D0032B09D04746D1E7D1
:104E90006378526962600A2161F303036370C9E7B2
:104EA00053696278072161F303026270E2E710B58B
:104EB00000230446037043708370C3700371437111
:104EC0008371C3714FF40072FFF7ADFF204610BD30
:104ED000F8B5054617460C4611B900263046F8BD10
:104EE0000846FDF7C5FB06460028F6D079050CD527
:104EF0002B780A3B032B08D8DFE803F02002252B90
:104F00004FF480312046FDF741FAFA0507D529789C
:104F1000A1F10A03032B02D92046FDF705FABB05D0
:104F2000DCD56B78696803F00F03073B2046042B40
:104F300018D8DFE803F01111171414004FF4803172
:104F40002046FDF763FA4FF400312046FDF75EFA84
:104F5000DBE74FF40031D5E7FDF71AFBBEE7FDF7BD
:104F6000FBFABBE7FDF7F8FA6978204601F00F017C
:104F7000FDF72AFBB2E7000070B5174E174D044647
:104F800034B3237C03F00F03023B042B20D8DFE86B
:104F900003F0031F0F0608006569284670BDE4682A
:104FA000EEE721463246284609F064FD0446E7E76D
:104FB00066693046FFF726FB051E09DB304609F01F
:104FC0004FFE237C6561022262F303032374E4E74E
:104FD0004FF0FF35E1E700BF4C8301007807002068
:104FE0002DE9F0432DED028B85B004461546994618
:104FF0009DF838800F46002947D0002A00F0E6804F
:1050000000230B70017869B319F4807F2AD0704BAC
:1050100001EBC101194438460FF077F9637819079D
:1050200007D019F4007F04D02A466A4938460FF0A9
:1050300046F938460FF03BF92D1A3E18013D6378CA
:105040001A0722D019F4007F1FD003F00F03013B91
:105050000B2B1AD8DFE803F0084071A6AC257B7B48
:105060007B221FB43E46EAE72079B8F1000F06D054
:10507000642300930023FF2219460BF08AFC564A52
:105080000346294630460FF007F8384605B0BDEC18
:10509000028BBDE8F0836368504AF2E76368504AC8
:1050A000EFE7616800294FF064020EDA91FBF2F03D
:1050B0004B4202FB1011494293FBF2F3494A009123
:1050C000294630460EF0E8FFDFE791FBF2F302FBE2
:1050D00013120092444AF3E72046FFF779FBE27986
:1050E000A37994F8059001B20029207902F0010219
:1050F00002DBB8F1000F14D043EA0224B8F1000F2C
:1051000006D0642300930023FF2219460BF041FCD4
:10511000CDE900902346354A294630460EF0BCFFC3
:10512000B3E7CDE90101CDF8009043EA0223304A0C
:10513000294630460EF0B0FFA7E7E379A2796179FE
:10514000009103F0010342EA03232A4AB8E76368A7
:1051500008EE103AB5EEC08AF1EE10FA4CBFF1EE4F
:10516000487AF0EE487AFDEEE78AB8EEE87A77EE14
:10517000C77A9FED217A67EE877A17EE900A0CF0D6
:1051800059F807EE900AB5EEC08AFDEEE77AF1EE27
:1051900010FACDED007A18EE903A01D5174A8FE754
:1051A000174A8DE72279A379019262790092B2E7DA
:1051B000E279A37902922279019262790092B6E7AC
:1051C0002A46616830460FF0A0F85EE717465CE7B4
:1051D00051830100447F0100918501009485010005
:1051E000988501009C8501009D850100A98501002D
:1051F000A6850100AC85010000007A44B28501005B
:10520000B385010030B58BB0134C002320220093EE
:1052100002A94FF440730546FFF7E2FE02A92046BB
:105220000AF039FF0D4920460AF02CFF69780A225E
:1052300001F00F0120460AF0A7FF094920460AF0B5
:1052400021FF0A22A97820460AF09EFF20460AF094
:1052500029FF0BB030BD00BF700300208585010021
:105260008A85010070B54B7803F00F03934286B036
:1052700005460C46164606D123682B6063686B60B2
:10528000284606B070BD194919480AF0FBFE61783E
:1052900017480A2201F00F010AF076FF1549144859
:1052A0000AF0F0FE0A22314611480AF06DFF124959
:1052B0000F480AF0E7FE0023CDE9043366F3030349
:1052C00022788DF811304FF0FF338DF810200093C5
:1052D00002A86368226804A900F010F8029B23600A
:1052E000039B63602046FFF78DFFC5E7BB85010088
:1052F00070030020AE7E0100447F01002DE9F04FD5
:105300008DB004AD85E80C00BDF85830112B98BF66
:10531000BC4A804628460C4694BF12F803904FF0D2
:105320000009FFF755FA011E02DB2046FFF729FAB4
:105330009DF81230A3709DF810302370637803F04D
:105340000F030B2B3BD8DFE813F0A5000C000C007B
:10535000D4003F011901B000DA00DA00DA00B00031
:10536000B0009DF8113003F00F030C2B77D8DFE865
:1053700003F0265244180A073955767630306E000D
:105380009DF81720E2719DF81620A2719DF8152056
:1053900062719DF814202271627863F303026270D7
:1053A0000DE0BDF81630C3F30802E379A27123F0D3
:1053B000010343EA1223E3719DF815306371B9F1DB
:1053C000000F00F009814A46214606A8FFF74AFF70
:1053D00002E1059B002B36DBFF2BA8BFFF23DBB2CE
:1053E0002371ECE7059B13F1630F2CDBB3F5C84F7A
:1053F0002BDA642293FBF2F3F1E7BDF81630C3F326
:105400000802E379A27123F0010343EA1223E37156
:105410009DF8153063719DF81430E1E7DDED057AF4
:10542000F5EEC07AF1EE10FA0DD49FED777AF4EE36
:10543000C77AF1EE10FA08DCFCEEE77ACDED037ADC
:105440009DF80C30CCE70023CAE7FF23C8E7637858
:105450000C2262F303036370059B6360AFE76B4943
:105460006B480AF00FFE9DF8111069480A2201F0FE
:105470000F010AF089FE674965480AF003FE61786A
:1054800063480A2201F00F010AF07EFE60480AF02C
:1054900009FE94E79DF81130C3F303036278059881
:1054A000606063F30302627089E79DF8113003F0D6
:1054B0000F03032B04D00C2BC9D0059A62606BE755
:1054C00000212046FFF782FBBDF816302071C3F3A0
:1054D0000802E379A27123F0010343EA1223E37186
:1054E0009DF8153063716378022262F303036370E1
:1054F00065E700212846FFF769FB2071F3E79DF877
:10550000113003F00F030C2BA9D801A252F823F09D
:10551000BF5300004F5500009D540000C1540000CF
:105520009D5400009D540000455500007155000039
:1055300071550000715500005D5500006B5500006D
:105540004F540000059B636006226378CDE79DF809
:10555000143007EE903AF8EE677A03E0DDED057A55
:10556000F8EEE77A17EE903A77E7DDED057AF2E7A5
:10557000627863F303026270059B6EE701279DF872
:10558000113003F00F030C2B3FF669AF01A252F864
:1055900023F000BFBF530000ED550000415600004E
:1055A000ED550000CD550000CD550000ED55000033
:1055B000ED5500005F5400005F540000ED55000001
:1055C000ED5500004F5400000027D8E7059A6260AF
:1055D000627863F3030262702368C8F8003063687E
:1055E000C8F8043040460DB0BDE8F08F013B0A2BEF
:1055F00000F2CD80DFE803F0BACB10CBCBBFC4CB39
:10560000CBBDBD003A83010000007F43018501004E
:1056100070030020AE7E0100FF23BDF816208DF838
:105620001430642161F30802ADF8162000228DF8D1
:1056300015209DF81120022161F303028DF811203D
:105640000023FF259DF815000095642219460BF0F4
:10565000A0F90028C0F29D8000239DF81500009558
:10566000642219460BF095F9A84208DC0023009546
:105670009DF81500642219460BF08BF905469DF83C
:105680001400FAF7F7FE0646002F47D09DF8177072
:105690007F08013F3FB27B1C40F088807F2D4FF098
:1056A000FF0778DC0023C5F17F00194647F68162C9
:1056B000704300970BF06DF94FF4FF7300930023D4
:1056C0001946E0717F2228460BF063F90023194642
:1056D00000903A4630460BF05CF90097064664238A
:1056E00028467F2200210BF054F9BE420546A8BF90
:1056F0003E466C496C480AF0C5FC0A2229466A48B5
:105700000AF029FD694968480AF0BCFC0A223146C2
:1057100065480AF020FD64480AF0C4FC00231A46DC
:10572000194606A80AF026FBBDF816004FF6FF73CF
:1057300000930023194640F26D12C0F308000BF0ED
:1057400028F9F2B2E9B280B20AF02AFB030CA37185
:10575000030A63712071564953480AF093FC2046AE
:10576000FFF750FD06A80AF09AFA28E69DF81430D3
:1057700053E7059B51E7059B642293FBF2F34CE74B
:10578000DDED057AFDEEE77A17EE903A45E7002366
:1057900043E7002573E76423284600973A468021B3
:1057A0000BF0F7F800230546E371A2E74FF01E0B5C
:1057B00064231A46CDF800B0002138460BF0E9F812
:1057C0004FF0640A03905B463846CDF800A052467D
:1057D00000210BF0DEF87F2D83464FF0FF0754DCED
:1057E000C5F17F00002370431946324A00970BFB36
:1057F00000F00BF0CEF84FF4FF73E07103980093C4
:1058000000231946E32228180BF0C3F80023194699
:1058100000903A46824630460BF0BBF8002306461D
:10582000009728467F2219460BF0B3F8BE42054682
:10583000A8BF3E4620491C480AF024FC0A220399CE
:1058400019480AF066FC1D4917480AF01BFC0A2299
:10585000594615480AF05DFC194913480AF012FC34
:105860000A22294610480AF076FC16490E480AF02A
:1058700009FC0A2231460C480AF06DFC12490A481C
:105880000AF000FC0A22514642E753462846009798
:105890003A4680210BF07DF84FF0000A054684F867
:1058A00007A0C7E7138501007003002020850100D1
:1058B00053850100646A31002E85010034850100A2
:1058C0003A850100428501004A85010073B504460E
:1058D0000D46FFF7A8FA0646E8B9104910480AF045
:1058E000D1FB2846FDF7CCFB214602B26846FEF705
:1058F000BBFE21466846FEF7EBFE29464FF40072D8
:105900002046FFF7E5FA2046FFF77CFC4FF4905164
:105910002846FDF75BFB304602B070BD5A8501009A
:1059200070030020437803F00F03013B012B37B5D0
:10593000054620D80023FF240079009464221946EC
:105940000BF027F8002814DB002328790094642248
:1059500019460BF01EF8A04207DC002300942879BA
:10596000642219460BF015F8C4B22C71012003B063
:1059700030BD0024F9E70020F9E7000007B5002357
:1059800000931A46194603480AF034FB03B05DF849
:1059900004FB00BF3803002002F038BE02F0F8BD5F
:1059A00007B5002300931A46194603480AF022FB64
:1059B00003B05DF804FB00BF40030020024B0F2240
:1059C0001A70C820704700BFE003002008B50449E2
:1059D00004480AF057FB04F019FD4FF4FA7008BDB3
:1059E000418B0100BC03002038B5094D01244FF460
:1059F0007A700BF077F9214601340A222846E4B286
:105A00000AF0C2FB142CF2D14FF4FA7038BD00BF7B
:105A1000BC03002008B504F0B7F8C82008BD10B5D5
:105A2000044604300AF0BFFF204610BD0128F8B537
:105A300007460C46174E184D13DD48680DF00BFA5B
:105A4000C1B216483170FBF723F9022F07D0A068C6
:105A50000DF001FAC1B211482970FBF72AF9C824E8
:105A600001E04FF4C8740E490E480AF00BFB0A22FD
:105A700031780C480AF088FB0B490A480AF002FB0F
:105A80000A22297807480AF07FFB06480AF00AFB39
:105A90002046F8BD05000020060000204404002038
:105AA000E28C0100BC030020F68C010030B587B009
:105AB0000023044600931A460D4602A819460AF030
:105AC00099FA04A80AF08EFA042C12DD04A92869B8
:105AD00004F0A2FB68B104A92548FAF7BEFF04A9A7
