:100000000C94490D0C947A0D0C947A0D0C947A0D85
:100010000C947A0D0C947A0D0C947A0D0C947A0D44
:100020000C947A0D0C947A0D0C947A0D0C947A0D34
:100030000C947A0D0C947A0D0C947A0D0C947A0D24
:100040000C947A0D0C947A0D0C947A0D0C947A0D14
:100050000C947A0D0C947A0D0C947A0D0C94B39246
:100060000C947A0D0C94D2740C94A8740C947A0DA0
:100070000C947A0D0C947A0D0C947A0D0C947A0DE4
:100080000C947A0D0C947A0D0C947A0D0C947A0DD4
:100090000C947E740C9454740C947A0D0C94AA24D1
:1000A0000C947A0D0C947A0D0C947A0D0C947A0DB4
:1000B0000C947A0D0C947A0D0C947A0D0C947A0DA4
:1000C0000C947A0D0C947A0D0C947A0D0C942A747D
:1000D0000C9400740C947A0D0C947A0D0C947A0D97
:1000E0000C947A0D07634236B79BD8A71A39685625
:1000F00018AEBAAB558C1D3CB7CC5763BD6DEDFD4A
:10010000753EF6177231BF000000803F0800000006
:10011000BE922449123EABAAAA2ABECDCCCC4C3EFC
:1001200000000080BEABAAAAAA3E00000000BF00EB
:100130000000803F0000000000084178D3BB4387E7
:10014000D1133D190E3CC3BD4282AD2B3E68EC82FB
:1001500076BED98FE1A93E4C80EFFFBE01C4FF7F80
:100160003F00000000000C94DE100C9460680C94BA
:100170003C240C949C130C94BD110C941F8B0C9478
:10018000BE100C94F28A0C942A110C94401D0C940D
:1001900012510C943D3B0C944D0F0C944B1A0C9443
:1001A00057690C94B70D0C94E4890C94280F0C94A7
:1001B0001F3B0C942D140C94920D0C94F30E0C9484
:1001C000D62D0C945B560C94F60F0C945A150C9487
:1001D0000C110C9401950C9448140C94261D0C944D
:1001E0005B1B0C94C4300C943B1A0C9479230C9434
:1001F000CE510C940F2D0C941C6A0C9487320C94E5
:1002000076A50C941B110C94FC890C9494A50C9469
:10021000402C0C94086D0C9402770C94E70E0C940F
:10022000DD5D0C94A9690C94B58A0C940D2C0C948A
:100230004D670C94546A0C94338B0C94AD8A0C94D7
:10024000FC3D0C94432C0C944BA00C94A8510C94A2
:10025000F9600C940F140C9483550C94FF2C0C949F
:10026000943E0C94C0110C94471C0C94F80E0C9402
:10027000702E0C943D0F0C9400520C9455170C9456
:1002800012110C94B7760C94DB5D0C944C760C94A4
:1002900057680C94CA1B0C941B100C943F230C94AD
:1002A0002E130C94D5110C94088A0C9418350C94C8
:1002B000298B0C949F100C94BE270C94078A0C94E5
:1002C000C32D0C94863B0C9427100C949D680C94C1
:1002D000D9160C9455760C9435550C9481A00C9439
:1002E000090F0C94E0890C9420570C94FE0F0C9489
:1002F000DA600C9400550C94E88A0C9481510C94AB
:100300007F1B0C94048A0C9450680C94C48A0C943F
:10031000CC2C0C94390F0C94872D0C9494A00C9435
:100320005A680C94C8890C94BA8A0C94B43E0C9404
:100330003F150C94DA2A0C9433290C94C8520C946F
:10034000D0680C94E5110C949C6B0C94E8510C94BF
:10035000E60E0C9461A00C9436680C940B2D0C9452
:10036000AFA00C94D6100C94CC890C94F9270C9463
:1003700036150C94023B0C9495510C94C7100C94B8
:10038000008A0C94F00E0C94A06A0C9437130C9411
:100390007C0D0C94E08A0C94CC200C947D100C9471
:1003A000D89F0C94B1120C9453A00C94971C0C94ED
:1003B000FB550C94158B0C941A0F0C94971B0C94F2
:1003C000D01C0C94D88A0C94301C0C942A670C9482
:1003D000DF9A0C94C2890C94E1230C94B31C0C9406
:1003E000C9760C94D7160C94C1220C94350F0C943A
:1003F000613B0C94F2890C94EA0E0C9497940C9443
:10040000E3660C9481320C94592C0C94654D0C9439
:100410003B690C94D5160C942D0F0C94EF970C940B
:10042000C3110C94CB510C943B760C94E8890C943A
:10043000F6890C945B670C94272C0C942A0F0C946F
:10044000F56F0C9427190C9413320C94E4660C94F9
:1004500039670C9440130C943C6A0C94E2550C944C
:10046000B6550C9466690C94BF510C9429210C94D8
:10047000AC0D0C94A9560C946A550C94AA230C94B8
:10048000A2120C94FB0E0C94DC510C9495120C945B
:10049000631A0C94713E0C943A560C944E2D0C94A5
:1004A000160F0C94068B0C9441570C943F210C941E
:1004B000EA120C94502E0C9411240C94EF0E0C9410
:1004C00005110C9496140C94372D0C94A6670C947B
:1004D000478B0C94AB9E0C94540F0C94D4300C941A
:1004E0003D8B0C94DB160C94132E0C941E0F0C9465
:1004F000B32D0C94E9680C94AE2D0C94C12C0C9483
:10050000E1640C94E5100C94A2690C9496190C9477
:10051000D9510C9421150C946E2D0C94992D0C949A
:10052000D80E0C9474140C94E22C0C945B1A0C945A
:10053000D0890C947E320C94AD3E0C94EE890C94D0
:10054000D6890C945D2D0C94960D0C94C9610C9475
:1005500090690C94CB120C9414130C94102E0C94E0
:10056000D5500C94DA890C9454120C94F6260C9401
:10057000A7150C94C1990C946C760C94A72D0C942F
:1005800074560C9445780C941A570C94CE8A0C949B
:100590001E170C94CA6A0C9432190C943E3E0C94AB
:1005A000FC110C944E210C941D570C94ED670C9487
:1005B000CF3E0C9420120C94FC8A0C948B1B0C9450
:1005C0005F186364696E6F70737578585B00556E61
:1005D0006B6E6F776E207375666669782000556E56
:1005E0006B6E6F776E20636D642000636C72437472
:1005F000723A20002F00496E3A20002D3E00200064
:1006000023002D3E00200050656E6465643A20236F
:10061000003D00494E3A003D004C454741435920BA
:10062000494E3A00000020002300260029002C003B
:100630002F00320000010000030106010901726170
:10064000770076616C0074656D700073617400688A
:1006500075650066616E0052474200485356006D52
:100660006F646500536574436D643A0053746F7230
:100670006564204558543A00737566666978436F1F
:1006800064653A004452590046414E5F4F4E4C5902
:1006900000584F4E0048414C54002074696D653A33
:1006A000004374726C205265733A002054533A0030
:1006B00020543A003D0050696E3A004F4E3A416C6A
:1006C0007265616479204163746976650A00484106
:1006D0004C543A416C726561647920496E6163746F
:1006E0006976650A00584F4E3A416C7265616479CB
:1006F000204163746976650A00584F464620736B43
:1007000069707065642E205072657620636D643A5E
:10071000005475726E6564206F66662066726F6D38
:100720003A00526573746F7265642066726F6D3A39
:100730000049676E6F7265642C206368616E6E6538
:100740006C20636D643D0020457865633A00416329
:10075000746976653A0048414C543A416C7265615F
:10076000647920496E6163746976650A00584F4E5A
:100770003A416C7265616479204163746976650AF7
:1007800000584F464620736B69707065642E205088
:1007900072657620636D643A005475726E656420EC
:1007A0006F66662066726F6D3A00526573746F7281
:1007B00065642066726F6D3A002044697361726DE2
:1007C000656400206D73203A0041726D6564206697
:1007D0006F7220004F75744F664D656D6F72792191
:1007E0000A0020436D643A00205375623D002049A1
:1007F00074656D3D0052414D3D00282D2920002893
:100800002B2920002076616C7565206973200020FB
:10081000756E6B6E6F776E0A005D3D005B00206940
:100820006E76616C6964002000206F6B003A0020D6
:100830006661696C6564003A005265747279696E2C
:1008400067206D6F6462757320434D440A00207306
:1008500065632072656D61696E696E6700537461CE
:100860007475732064656666657265640A002D3E62
:10087000005075623A2000636D6400434F4F4C0096
:1008800048454154004155544F002D3E005075627B
:100890003A20007365740064656C002D3E0050754D
:1008A000623A20002D3E005075623A2000556E6B72
:1008B0006E6F776E20636D64200A004F4646004FCE
:1008C0004E0020002D3E00436F6E76657274696E97
:1008D0006720002D3E0057726F6E67204173736969
:1008E000676E6D656E742000524742783A20002092
:1008F000764C6576656C3A0020436F6E76563A000A
:1009000020436F6E76533A0020486F743A00436F6D
:100910006C643A0020436F6E76657274656420568D
:100920003A00436F6E76657274656420533A002D09
:100930003E0057726F6E672041737369676E6D6515
:100940006E7420002D3E0057726F6E6720417373E6
:1009500069676E6D656E74200053617665643A0058
:100960000000000000000000004F4E0000000000EA
:1009700000004F464600000000000052455354005E
:1009800000000000544F47474C4500000048414CD0
:10099000540000000000584F4E00000000000058B6
:1009A0004F46460000000000494E43524541534522
:1009B00000444543524541534500484541540000D9
:1009C000000000434F4F4C00000000004155544FC1
:1009D000000000000046414E5F4F4E4C590044520B
:1009E0005900000000000053544F50000000000068
:1009F0004849474800000000004D454449554D0016
:100A000000004C4F570000000000005452554500B4
:100A10000000000046414C534500000000454E4197
:100A2000424C4544000044495341424C4544005225
:100A3000474200000000000048535600000000003C
:100A40000020537566663A002041543A00436F6EA9
:100A50006E656374696F6E3A20636C6F73650048EE
:100A60005454502F312E3120323030204F4B004320
:100A70006D643A2000504F5354202F636F6D6D61A9
:100A80006E642F00474554202F6974656D2F005008
:100A90004F5354202F6974656D2F002669703D00F7
:100AA0004C6F636174696F6E3A20687474703A2F8A
:100AB0002F6C617A79686F6D652E72752F70776112
:100AC0003F6D61633D00485454502F312E31203327
:100AD0003031204D6F766564207065726D616E6592
:100AE0006E746C7900474554202F00536B69707009
:100AF000696E672E2E004F75744F664D656D6F726F
:100B00007921005D20003A5B000A003A004D414324
:100B10003A00554450205379736C6F6720696E69B1
:100B20007469616C697A65642E0A005379736C6F1D
:100B30006720706172616D733A0043757272656E01
:100B400074204C414E20636F6E6669672869702C73
:100B5000646E732C67772C7375626E6574293A0026
:100B60000A55736520746865736520636F6D6D61E8
:100B70006E64733A202768656C7027202D20746896
:100B8000697320746578740A276D61632064653A1F
:100B900061643A62653A65663A66653A30302720A4
:100BA00073657420616E642073746F7265204D41AB
:100BB000432D6164647265737320696E20454550EE
:100BC000524F4D0A276970205B69705B2C646E730D
:100BD0005B2C67775B2C7375626E65745D5D5D5D24
:100BE00027202D2073657420737461746963204914
:100BF000500A277361766527202D20736176652062
:100C000063757272656E7420636F6E6669672069C2
:100C10006E204E5652414D3B204F4E7C4F46462053
:100C20002D20656E61626C652F64697361626C650D
:100C3000206175746F736176650A27676574272074
:100C40005B636F6E66696720616464725D27202D47
:100C50002067657420636F6E6669672066726F6DCA
:100C6000207072652D636F6E6669677572656420AA
:100C700055524C20616E642073746F7265206164FC
:100C800064722C204F4E7C4F4646202D20656E61AD
:100C9000626C652F64697361626C6520646F776E46
:100CA0006C6F6164206F6E20737461727475700A6A
:100CB000276C6F616427202D206C6F616420636F47
:100CC0006E6669672066726F6D204E5652414D0AFE
:100CD0002770776427202D20646566696E65206122
:100CE0006E642073746F7265204D5154542070618E
:100CF0007373776F72640A276F746170776427204B
:100D00002D20646566696E6520616E642073746F62
:100D100072652048545450204150492070617373CB
:100D2000776F72640A276C6F67205B736572696105
:100D30006C5F6C6F676C6576656C5D205B7564706D
:100D40005F6C6F676C6576656C5D27202D20646530
:100D500066696E65206C6F67206C6576656C20280F
:100D6000302E2E37290A276B696C6C27202D2074B2
:100D7000657374207761746368646F670A27636CB6
:100D800065617227202D20636C6561722045455096
:100D9000524F4D0A277265626F6F7427202D2072A3
:100DA00065626F6F7420636F6E74726F6C6C6572C6
:100DB00000536F6674207265626F6F74696E672E80
:100DC0002E2E0052414D3D000A6D71747420000AB0
:100DD000696E7075747320000A6974656D73200004
:100DE0000A436F6E666967757265643A003B003D41
:100DF0000050696E3A003B003D4C4F570054686507
:100E0000726D6F3A004C6F61646564006C6F616471
:100E1000206661696C6564004E6F2073746F726543
:100E20006420636F6E666967004C6F6164696E670A
:100E300020436F6E6669672066726F6D204545506E
:100E4000524F4D00436F6E666967206175746F7312
:100E50006176653A000A5379736C6F672064656246
:100E60007567206C6576656C3A0053657269616CD4
:100E7000206465627567206C6576656C3A00536125
:100E80007665640A005365742064796E616D6963E8
:100E90002049500A00454550524F4D20636C656112
:100EA0007265640A004D5154542050617373776F1A
:100EB000726420757064617465640A004F54412047
:100EC00050617373776F72642075706461746564C8
:100ED0000A00636F756C64206E6F742070617273AA
:100EE000653A2000557064617465640A004C6F6156
:100EF00064696E67204854545020636F6E6669675A
:100F0000206F6E20737461727475703A002B002D1F
:100F100000485454502F312E312025690020485468
:100F200054502F312E310D0A486F73743A202573B7
:100F30000D0A4163636570743A202A2F2A0D0A4313
:100F40006F6E6E656374696F6E3A20636C6F736564
:100F50000D0A0025730020000D0A00474554006665
:100F600061696C656420746F20636F6E6E65637475
:100F70000A004552524F523A2053657276657220EC
:100F800072657475726E65642000446F6E652E0A1A
:100F9000004170706C79696E672E0A00436F6E664F
:100FA00069672070617273696E67206661696C653C
:100FB000640A00676F7420436F6E6669670A007287
:100FC0006574636F6465200068636C69656E7400A6
:100FD000667265652000436F6E66696720555249E9
:100FE0003A20687474703A2F2F002044656661754A
:100FF0006C7420636F6E66696720736572766572C4
:1010000020757365643A20006C617A79686F6D654C
:101010002E727500205361766564000A282D294DD3
:10102000444E53000A282D295541525442524944F6
:101030004745000A282B295359534C4F47000A288B
:101040002D29504944000A282D294D435032333070
:101050003137000A282D294152544E4554000A28A0
:101060002B294F5441000A282D29535049204C4523
:1010700044000A282D294D4F544F5220435452000A
:101080000A282D294143204841494552000A282D6C
:1010900029434353383131202620484443313038E6
:1010A00030000A282D29524553544152545F4C4177
:1010B0004E5F4F4E5F4D5154545F4552524F525305
:1010C000000A282D294841524452455345542C20AA
:1010D0007573696E6720736F6674000A282D294343
:1010E0004F554E544552000A282D29444854000AB1
:1010F000282D294F57495245000A282D294D4F4484
:10110000425553000A282D29444D58000A282B29FE
:1011100057697A6E657435783030000A282B294477
:1011200053323438322D313030000A282B294672A0
:10113000656552616D207072696E74696E670064D6
:10114000653A30313A32333A30303A30303A303131
:10115000000A4669726D77617265204D41432041F6
:1011600064647265737320006C617A79686F6D6571
:101170002E7275000A436F6E66696720736572761A
:1011800065723A000A282B295741544348444F4777
:10119000003230313130334C0020432B2B20766528
:1011A0007273696F6E3A00353661386335635F324A
:1011B0003032312D30382D3234000A4C617A796862
:1011C0006F6D652E7275204C696768744875622072
:1011D000636F6E74726F6C6C65722000204F4646B0
:1011E00000204F4E00757074696D6500667265650C
:1011F00068656170002054696D65723A00204C6F1B
:10120000636B733A002000204C6F636B733A000AE3
:1012100052414D3D0020457870697265640A002096
:101220002D746172676574207A6F6E652D002041A0
:101230006C61726D20457870697265640A00206384
:101240006D643A00204375723A00205365743A0089
:10125000536176656420746F20454550524F4D00B0
:10126000536176696E6720636F6E66696720746F7D
:1012700020454550524F4D2E2E00206973200044CA
:10128000656C6574696E6720636F6E662E205241CF
:101290004D207761733A0053746F7070656400532A
:1012A000746F7070696E67206368616E6E656C73D1
:1012B000202E2E2E004E6F7420756E6C6F636B6542
:1012C0006420696E20313073202D20636F6E746945
:1012D0006E7565202E2E2E00556E6C6F636B696ED9
:1012E0006720636F6E666967202E2E2E0044656648
:1012F00061756C742073657269616C206D6F6465D3
:10130000204E383120757365640038453100260061
:10131000384E31000600384532002E00384E32007B
:101320000E00384F31003600384F32003E0037454E
:1013300031002400374532002C00374F3100340093
:10134000374F32003C00374E31000400374E320038
:101350000C00203D3E002C002C002C002C00456C85
:10136000657661746F723A20636F6E666967206696
:1013700061696C65643A00456C657661746F7220D2
:10138000636F6E666967206572726F7200456C6587
:101390007661746F7220636F6E666967206C6F612F
:1013A0006465642000456C657661746F723A204F05
:1013B0007574206F66206D656D6F7279003C003E1C
:1013C00000556E6B6E6F776E207375666669782058
:1013D00000556E6B6E6F776E20636D6420005365F1
:1013E00074206E6F7420696D706C656D656E7465C8
:1013F0006400466F7263656420657865637574691F
:101400006F6E004D756C746956656E7420636F6EF7
:10141000666967206661696C6564004D756C746906
:1014200056656E7420696E6974004D756C746976CA
:10143000656E742044652D496E697400204F757483
:101440003A00206D33002066726F6D2000204D61E0
:101450007820726571756573743A002066616E2537
:101460003A002061637469766520563A00546F74BF
:10147000616C20563A0050574D2D4F757420496EBF
:1014800069740050574D2D4F75742073746F700040
:101490005247422050574D002050574D005247426E
:1014A000572050574D003D0050696E3A005B305D4B
:1014B0003A2000202D202D202D20EFBBBF003E0024
:1014C0003E31202D200020002E00696E00735F6FDA
:1014D0007574006D79686F6D6500202D3E200045A4
:1014E0006D69743A2000202D3E20004974656D43DB
:1014F0006D643A2000202D3E20004974656D3A202D
:10150000003E3E2000496E76616C696420636F6D19
:101510006D616E64003E3E3E004E6F204D414320A3
:10152000636F6E666967757265643A2073657420CF
:101530006669726D776172652773204D41430A00B9
:10154000476F7420495020616464726573733A0078
:10155000276970205B69705B2C646E735B2C677706
:101560005B2C7375626E65745D5D5D5D27202D205B
:10157000736574207374617469632049500A00466E
:1015800061696C656420746F20636F6E666967754E
:1015900072652045746865726E6574207573696E36
:1015A0006720444843502E20596F752063616E2098
:1015B000736574206970206D616E75616C6C792142
:1015C000000A7573657320444843500A00204D415A
:1015D000534B3A002047573A0020444E533A004CB0
:1015E0006F616465642066726F6D20666C617368FC
:1015F0002049503A005374617274696E67206C61BF
:101600006E004142434445464748494A4B4C4D4E83
:101610004F505152535455565758595A616263644A
:1016200065666768696A6B6C6D6E6F7071727374F2
:1016300075767778797A30313233343536373839D0
:101640002B2F3D004F544120696E697469616C69AC
:101650007A65640A0044454641554C5420706173D4
:1016600073776F726420666F72204F54412041502F
:10167000492E20557365206F746170776420636F05
:101680006D6D616E6420746F207365740075707485
:10169000696D652C66726565686561700024737498
:1016A00061747300353661386335635F32303231CF
:1016B0002D30382D3234004C6967687448756220CB
:1016C00000246E616D65007265616479002074723A
:1016D0007920616761696E20696E203520736563CA
:1016E0006F6E6473006661696C65642C2072633D83
:1016F000004177616974696E6720666F7220726558
:101700007461696E656420746F7069637300636FE0
:101710006E6E65637465642061732000202E2E2E2A
:101720000020757365723A003A000A417474656D61
:101730007074696E67204D51545420636F6E6E65EE
:101740006374696F6E20746F200024737461746514
:1017500000646973636F6E6E6563746564005573CE
:10176000696E67204D5154542070617373776F72A6
:10177000642066726F6D20636F6E666967004465F2
:1017800076696365204E616D653A00526562696EE7
:101790006420737563636573732E20495020616400
:1017A00064726573733A004572726F723A207265A3
:1017B00062696E64206661696C0052656E6577656A
:1017C0006420737563636573732E204950206164D0
:1017D00064726573733A004572726F723A20726573
:1017E0006E65776564206661696C000A4E6F206CD7
:1017F000696E6B00416363657074696E6720636F27
:101800006D6D616E64732E2E2E0A00474554005094
:101810004F535400617574686F72697A6174696FAF
:101820006E3A2000417574686F72697A6174696FED
:101830006E3A2000436F6E74656E742D4C656E6752
:1018400074683A200000002100240027002A002D9F
:10185000003000330001010000040107010A01000B
:10186000002200250028002B002E00310034000249
:10187000010000050108010B010505050507050824
:10188000080808020202020A0A0808040404040103
:101890000101010101010103030303030303030425
:1018A0000707070C0C0C0C0C0C0C0C0202020206B5
:1018B000060606060606060B0B0B0B0B0B0B0B05A1
:1018C0000505080807070404040A0A0A0A0A0A01A7
:1018D0000210202008081020401020408002010241
:1018E0000108040201010204081020408080402009
:1018F0001008040201800402018040201008040244
:1019000001080402010102040810204080010204C1
:1019100008102040800440800480081010204004FB
:10192000081020408000000B0C030A0D0E0F090860
:10193000040502000000000000000000000000009C
:101940000000000000000000000000000000000097
:101950000013121100000000000000000000000051
:101960000000000000000000000000000000000077
:101970000000000000000000000000436F6E6E6574
:101980006374696F6E3A20636C6F7365004F4B0030
:10199000496E7465726E616C205365727665722053
:1019A0004572726F72005061796C6F616420546F80
:1019B0006F204C61726765004E6F7420666F756EA4
:1019C00064005757572D41757468656E746963617B
:1019D00074653A204261736963207265616C6D3D84
:1019E00022416363657373207265737472696374F3
:1019F00065642200556E617574686F72697A6564FA
:101A0000005061796C6F61642073697A6520777228
:101A10006F6E670042616420726571756573740052
:101A20002000485454502F312E312000436F6E74E3
:101A3000656E742D547970653A2000436F6E6E6543
:101A40006374696F6E3A20636C6F73650048545419
:101A5000502F312E3120323030204F4B00202D3E80
:101A60002041543A004368616E20747970653A00F1
:101A70004E6F2073746F7265642076616C75657348
:101A8000202D2064656661756C743A20000094A571
:101A900076A511241FBECFEFD1E2DEBFCDBF00E09F
:101AA0000CBF16E0A0E0B2E0E6EFF4E701E00BBF08
:101AB00002C007900D92AE33B107D9F72CE0AEE328
:101AC000B6E001C01D92A53FB207E1F71DE0C8E4F2
:101AD000DDE000E006C021970109802FFE010E9491
:101AE00039B5C734D10780E00807A9F70E941A93D7
:101AF0000C9469BA0C940000CF93DF931F92CDB77A
:101B0000DEB76983DC01ED91FC910280F381E02D69
:101B100041E050E0BE016F5F7F4F19950F90DF915C
:101B2000CF910895FC01818D928D0895CF93DF931D
:101B30001F92CDB7DEB76983DC01ED91FC91028085
:101B4000F381E02D41E050E0BE016F5F7F4F1995BA
:101B50000F90DF91CF910895FC019485FB0184855E
:101B6000981303C081E0983008F080E00895CF9387
:101B7000DF931F92CDB7DEB76983DC01ED91FC9155
:101B80000280F381E02D41E050E0BE016F5F7F4FA6
:101B900019950F90DF91CF91089585ED8093BC004A
:101BA0008091BC0084FDFCCF10928D070895209198
:101BB0006907260F3327331F21323105ECF42091BA
:101BC0008D07FC0190E080E0243069F082E0089508
:101BD000A09169072191AC01475B584FA40FB52F25
:101BE000B11D2C930196861798F380916907680FB1
:101BF0006093690780E0089581E008958FEF9FEF7B
:101C000008958FEF9FEF08958091480790E0919598
:101C1000819591090895CF93DF93CB01EA01642F59
:101C20000E94D70DCE01DF91CF910895CF93DF931E
:101C30001F92CDB7DEB7698361E0CE0101960E94A5
:101C4000D70D81E090E00F90DF91CF9108958F92B2
:101C50009F92AF92BF92CF92DF92EF92FF920F933B
:101C60001F93CF93DF9300D000D000D01F921F921C
:101C7000CDB7DEB77C018E010F5F1F4F68018AE090
:101C8000882E912CA12CB12CC601801B910B4115E3
:101C900051056105710581F0CB01BA01A5019401DF
:101CA0000E94AEB4942F852F605DF60161936F01A1
:101CB000A901692F782FE8CFF801E80FF91FD701A4
:101CC0000150110922912D93E017F107D9F7E80E81
:101CD000F91EF70110822B960FB6F894DEBF0FBEE7
:101CE000CDBFDF91CF911F910F91FF90EF90DF90CB
:101CF000CF90BF90AF909F908F900895FC01DC0132
:101D00008D918111FDCF30E020E050E040E08AE08D
:101D10009191992301F1443051055CF59E3271F4A3
:101D20002F3F310509F02CF5DB01A40FB51F1296EA
:101D30002C934F5F5F4F30E020E0EACF829FD001CD
:101D4000839FB00D1124292F990F330B2053310994
:101D50002A0F3B1FDDCF2F3F310509F054F44430EB
:101D600051053CF4640F751FFB01228381E090E074
:101D7000089590E080E00895CF93DF931F921F9223
:101D8000CDB7DEB78091E90C9091EA0C009711F481
:101D900085EF9CE0BE016F5F7F4F681B790B072EBC
:101DA000000C880B990B0F900F90DF91CF91089545
:101DB000DC0115968D919C91009739F0DC01ED9135
:101DC000FC910680F781E02D19940895089590E024
:101DD00080E008958091F0069091F10608950895AD
:101DE00083E090E008958091EE069091EF060895CB
:101DF00084E090E00895DC011496ED91FC91309719
:101E000029F08081082E000C990B089590E080E065
:101E10000895FC0181E090E046855785248535854D
:101E20004217530710F090E080E00895FC01848190
:101E300095810895FC01768765870895DC01ED9111
:101E4000FC91068CF78DE02D199591E08927089576
:101E5000862F089581E08627089521E0FC0184857E
:101E6000883008F020E0822F0895FC018485958554
:101E70000895FC018489958908952BE933E0FC01DC
:101E800031832083FB014089518962897389FC0178
:101E900042835383648375830895DC01ED91FC9143
:101EA000048CF58DE02D199490E080E00895CF9397
:101EB000DF9300D000D01F921F92CDB7DEB7FC0198
:101EC000862F8F706281607F682B628388E0DE01DD
:101ED000119601900D928A95E1F729813A814B8103
:101EE0005C816D817E818F81988528960FB6F894EC
:101EF000DEBF0FBECDBFDF91CF910895CF93DF93AB
:101F000000D000D01F921F92CDB7DEB7FC016083D6
:101F100098E0DE01119601900D929A95E1F72981E2
:101F20003A814B815C816D817E818F819885289675
:101F30000FB6F894DEBF0FBECDBFDF91CF910895ED
:101F4000CF93DF9300D000D01F921F92CDB7DEB7A2
:101F5000FC016F3F710519F014F06FEF70E077FD31
:101F600060E09281892F82958F7081508230C8F411
:101F7000648388E0DE01119601900D928A95E1F765
:101F800029813A814B815C816D817E818F81988529
:101F900028960FB6F894DEBF0FBECDBFDF91CF916C
:101FA00008959F7090619283E3CF0F931F93CF9317
:101FB000DF93DC01C62F1296EC911297E295EF7039
:101FC000EC3008F0BCC0F0E08827E651F04F8F4FAE
:101FD0000C9439B5F60F1B101B109F109F109F100B
:101FE0007D1027109F109F10FE0FFE0F70E060E025
:101FF000CB01DF91CF911F910F91089514968D9190
:102000009D910D90BC91A02D8F3F9105A105B1052B
:1020100029F024F08FEF90E0A0E0B0E0B7FF03C01C
:1020200080E090E0DC016FEF70E0681B790BC1117C
:10203000DFCFBC01DDCF14966C9170E0CC23C1F2F0
:102040008FEF90E09C01261B370BB901D1CF862F73
:1020500014960C91149715961C9115971696DC9171
:1020600016971796CC9120E030E0A901B80188239B
:1020700031F18D2F9C2F0E9464B387FD1BC020E09F
:1020800030E04FE753E4B8018D2F9C2F0E946CB6CF
:10209000181624F400E010E0DFE7C3E498014D2FA8
:1020A0005C2F60E070E08FE793E40E9457B50E94D8
:1020B00036B69ECF00E010E0D0E0C0E0EFCF8D2F2D
:1020C0009C2F0E9464B387FD13C020E030E04FE7EF
:1020D00053E4B8018D2F9C2F0E946CB6181624F47F
:1020E00000E010E0DFE7C3E4B8018D2F9C2FDFCFC5
:1020F00000E010E0D0E0C0E0F7CF14966D917D9144
:102100008D919C9117972AE030E040E050E00E94CA
:10211000D0B42F3F31054105510529F024F02FEFB0
:1021200030E040E050E057FF03C020E030E0A9017C
:102130006FEF70E0621B730BC1115ACF86CF6FEF48
:102140007FEF56CFDC011296EC911297E295EF707B
:10215000E150EB3008F039C0F0E08827ED54FF4E35
:102160008F4F0C9439B5D610D610E510BE10BE10A6
:10217000C710DE10DE10DE10BE10BE1014966D917A
:102180007D918D919C9117970E946BB30895149641
:102190006D917D918D919C9117972AE030E040E000
:1021A00050E00E94D0B4CA01B901EECF14966C91F0
:1021B00070E090E080E00E9469B3089514966D91FC
:1021C0007D918D919C911797089560E070E0CB010F
:1021D0000895DC011296EC911297E295EF70E150B0
:1021E000EB3008F037C0F0E08827E650FF4E8F4F05
:1021F0000C9439B50C110C112A11051105111B1184
:102200001211121112110511051114966D917D9183
:102210008D919C911797089514966C9170E090E0C1
:1022200080E0089514966D917D918D919C91179702
:102230000E9436B6089514966D917D918D919C9172
:1022400017972AE030E040E050E00E94D0B4CA0185
:10225000B901089560E070E0CB010895FC01A78109
:102260002A2F2E7FD1F0828182958F70815083300A
:10227000A0F4A695A150BB0B2BE531E00E9450B510
:1022800024E630E040E050E00E94D0B4DA01C90119
:1022900087569F4FAF4FBF4F08958FEF9FEF089521
:1022A000CF93DF93EC018A81982F92959F7041F133
:1022B00080E0943010F59B01770F440B550B2959A2
:1022C000310941095109A4E6B0E00E94EFB42BE5C1
:1022D00031E040E050E00E94D0B437FF02C030E06F
:1022E00020E02536310514F024E630E02F5F220F80
:1022F0008F818170282B2F8381E0DF91CF9108950A
:102300008F7080628A83D7CFFC019281892F82955A
:102310008F7021F0823029F080E008959F709062E4
:1023200092839B0177FF02C030E020E02E3681E0EF
:10233000380714F02DE631E02683878130FB80F9E1
:10234000878381E00895DC01ED91FC91309729F0BD
:1023500090859F7081E0953009F080E00895DC0160
:1023600019968D919C91009739F0DC01ED91FC91CB
:102370000280F381E02D199408958AE090E0089599
:1023800081E090E00895CF93DF93EC01E881F9813B
:102390000484F585E02D19952E853F852F5F3F4FED
:1023A0003F872E87DF91CF910895FC0120893189E5
:1023B00084859585620F731F820F931F68177907B5
:1023C00008F4CB01978786870895FC012281338129
:1023D000232B49F0868197818130910539F01CF0DB
:1023E0000397029730F090E080E0089581E090E05C
:1023F000089582E090E00895CF93DF93CDB7DEB7E4
:1024000060970FB6F894DEBF0FBECDBF19821A8257
:102410001B821C821D821E821F8218868B818F70F8
:102420008B836FEF70E0CE0101960E94A00F609643
:102430000FB6F894DEBF0FBECDBFDF91CF910895E8
:10244000CF92DF92EF92FF920F931F93CF93DF9380
:10245000CDB7DEB760970FB6F894DEBF0FBECDBF25
:102460007C016B01BA01A901CE0101960E94270EE1
:10247000D701ED91FC910288F389E02D9801AE011E
:102480004F5F5F4FB601C701199560960FB6F8947C
:10249000DEBF0FBECDBFDF91CF911F910F91FF9097
:1024A000EF90DF90CF900895CF92DF92EF92FF925E
:1024B0000F931F93CF93DF9300D000D0CDB7DEB73B
:1024C0008C016B017A01FC01808D883010F40E9430
:1024D000D17D8BE993E09A838983F6018281938190
:1024E000A481B5818B839C83AD83BE83B701CE016C
:1024F00001960E94C088F801808F8830A0F4F5868C
:10250000E486128E118E81E026960FB6F894DEBF17
:102510000FBECDBFDF91CF911F910F91FF90EF9034
:10252000DF90CF90089580E0EFCFCF93DF93EC0161
:10253000888D883020F40E94D17D88E0888FDF91DB
:10254000CF910895FC01808D883040F4218D328D2B
:10255000232B21F00E94A37C90E008958FEF9FEF42
:102560000895CF93DF93FC012485283028F08FEF66
:102570009FEFDF91CF910895EC010190F081E02D64
:102580000084F185E02D1995892B89F38C850E94B3
:10259000A37C90E0EECFCF93DF93FC01218D328DB1
:1025A0002115310529F48FEF9FEFDF91CF91089529
:1025B000EC01808D4217530708F0A9010E94F27CBC
:1025C0001816190684F7298D3A8D281B390B3A8F76
:1025D000298FEBCF0F931F93CF93DF931F92CDB72C
:1025E000DEB7FC01218D328D232B41F48FEF9FEF5D
:1025F0000F90DF91CF911F910F9108958C0141E0D1
:1026000050E0BE016F5F7F4FFC01808D0E94F27C25
:10261000181619065CF7F801818D928D0197928F3B
:10262000818F898190E0E4CFCF93DF931F92CDB764
:10263000DEB741E050E0BE016F5F7F4FFC01848553
:102640000E94F27C1816190634F4898190E00F90EC
:10265000DF91CF9108958FEF9FEFF9CFFC01848533
:10266000883010F40C94F27C90E080E00895FC0136
:102670008485883010F40C94CB7C90E080E0089541
:102680000F931F93CF93DF9300D000D01F921F9220
:10269000CDB7DEB78C01D80159964D915C915A9710
:1026A0004115510551F0ED91FC91048CF58DE02D13
:1026B00070E060E0C8011995EECFF801808D0E94AE
:1026C000CB7C892BB1F148E050E0BE016F5F7F4FBA
:1026D000D80158968C910E94F27C18161906F4F4D1
:1026E000D801509684E0FE01319601900D928A95B2
:1026F000E1F78D8190E0982F88272E81820F911D20
:10270000F801958B848B8F81282F30E0322F222780
:102710008885820F932F911D928F818F28960FB6F7
:10272000F894DEBF0FBECDBFDF91CF911F910F9107
:10273000089590E080E0F2CFCF92DF92EF92FF9287
:102740000F931F93CF93DF93CDB7DEB7AF970FB63D
:10275000F894DEBF0FBECDBF7C016A010BE913E028
:102760001A8309831C861B8688EE93E0A0E0B0E004
:102770008D879E87AF87B88B83E393E09A8789879D
:10278000188F0F8B198E1A8E1B8E1C8E88E089A3D2
:102790001BA70AA71CA61DA61EA61FA68091710A2C
:1027A0009091720AA091730AB091740A8EA39FA3AC
:1027B000A8A7B9A78B839C83AD83BE8318861F828D
:1027C000AE01465D5F4FCE0101960E944E90813072
:1027D0009105B1F4D701ED91FC910488F589E02DC4
:1027E0001DA30CA38CA59DA5AEA5BFA58EA39FA3DD
:1027F000A8A7B9A7A601BE016C5D7F4FC7011995B7
:10280000AF960FB6F894DEBF0FBECDBFDF91CF916C
:102810001F910F91FF90EF90DF90CF9008950F934D
:102820001F93CF93DF93EC018B01888D883010F4D8
:102830000E94D17DB80182E00E941A7E888F883084
:1028400050F41D870C871A8E198E81E0DF91CF918D
:102850001F910F91089580E0F9CF0F931F93CF93AD
:10286000DF938C01EA01FC018485883048F40E94E2
:10287000417C892B39F481E090E0F80193838283D5
:10288000D0E0C0E0CE01DF91CF911F910F9108956C
:10289000EF92FF920F931F93CF93DF937C01809170
:1028A000FA08D4E0833309F0D8E00AEE18E0C0E07B
:1028B000F801219131918F01F701848195812817C9
:1028C000390729F0CF5FDC13F3CF80E006C08C2FEF
:1028D0000E94DF7D8431B1F781E0DF91CF911F91BC
:1028E0000F91FF90EF900895CF93DF93EC018C85CB
:1028F0008830D0F40E94DF7D843189F0882379F01C
:10290000883169F021E08C3159F4E881F981008443
:10291000F185E02DCE01199521E0892B09F420E005
:10292000822FDF91CF91089580E0FBCFCF92DF928D
:10293000EF92FF920F931F93CF93DF93CDB7DEB744
:10294000AF970FB6F894DEBF0FBECDBF8C016B0101
:102950007A018BE993E09A8389831B821C821D8212
:102960001E821C861B8648EE53E060E070E04D87B7
:102970005E876F87788B23E333E03A872987988FC8
:102980008F8B198E1A8E1B8E1C8E28E029A39BA775
:102990008AA71CA61DA61EA61FA6D8011C968C9150
:1029A000883060F40E94DF7D882321F0F80184855F
:1029B0000E94C37D88E0D8011C968C938091710A97
:1029C0009091720AA091730AB091740A8EA39FA38A
:1029D000A8A7B9A78B839C83AD83BE8318861F826B
:1029E000AE01465D5F4FB601CE0101960E944E904A
:1029F0000097C1F0D801ED91FC910684F785E02D98
:102A00008BE993E09DA38CA38CA59DA5AEA5BFA546
:102A10008EA39FA3A8A7B9A7A701BE016C5D7F4F96
:102A2000C8011995AF960FB6F894DEBF0FBECDBFA3
:102A3000DF91CF911F910F91FF90EF90DF90CF909A
:102A40000895CF93DF93EC018C85883060F40E9469
:102A5000DF7D873111F08C3131F48C850E94247C2C
:102A60008115984088F3DF91CF910895FC0184850A
:102A7000883010F40C94247C90E080E008956AE2A1
:102A800074E188E59BE00E94997088E59BE00E94D4
:102A9000846F1092EF061092EE0681E090E00895A8
:102AA0006DE07FE0811102C06FE07FE087EA9AE08D
:102AB0000C94997061EB7DE087EA9AE00E9499702E
:102AC000F0E0E0E019946FEF77E0811102C06AEF67
:102AD00077E088E59BE00C949970EF92FF920F935A
:102AE0001F93CF93DF93EC01A881B981109761F117
:102AF0008C91882349F108811981F801808188230C
:102B000051F08D3241F080538A3028F00F5F1F4F13
:102B100019830883F0CFC8010E94B6AB7C016CE238
:102B200070E0C8010E9487B9009751F41982188299
:102B3000C701DF91CF911F910F91FF90EF90089502
:102B4000019699838883F4CFF12CE12CF1CF4F9239
:102B50005F926F927F92AF92BF92DF92EF92FF925D
:102B60000F931F93CF93DF9300D000D0CDB7DEB784
:102B70007C01D62E80914407882309F4BEC0D7017A
:102B800014969C9180910302891708F4B6C0809135
:102B9000420790914307BAE06B13F0C08E50994FF3
:102BA000FC011082D70117960D911C91011511059A
:102BB00009F49FC0F801618572856115710591F472
:102BC000458056806780708480916B0A90916C0A72
:102BD000A0916D0AB0916E0A481659066A067B06E6
:102BE00009F487C0D8011B964D915C911C97411543
:102BF000510509F47EC0F701248153968C915397B7
:102C000090E0322F377002C0959587953A95E2F79C
:102C100080FF6FC0A22EB12CC501887F9370892BD5
:102C200039F451968D919C91887F9370A82AB92A86
:102C3000D8018D919C91DC01ED91FC91611571059C
:102C400009F486C00688F789E02D1995019709F0E7
:102C500050C06CE3F801808191810E949F6FA501B3
:102C600070E060E02AE0D8018D919C910E94386F5D
:102C7000F80122818081918160EC74E1222311F0BE
:102C80006EEB74E10E949970D8011D966D917C9154
:102C90001E978D919C910E94337060E2F8018081B3
:102CA00091810E949F6FD8011F966D917C915097E2
:102CB0008D919C910E943370F801228180819181D5
:102CC00063EB74E1222311F06DEA74E10E949970C4
:102CD00062EF76E0D8018D919C910E943370F801EB
:102CE00080819181DC01ED91FC91008CF18DE02DD2
:102CF00019951092430710924207D70115968D91AE
:102D00009C911697009709F44DC014963C91209120
:102D10000402231708F446C0DC01ED91FC910190F8
:102D2000F081E02D6D2D199526960FB6F894DEBF33
:102D30000FBECDBFDF91CF911F910F91FF90EF900C
:102D4000DF90BF90AF907F906F905F904F9008950D
:102D50000488F589E02D2BE933E03A832983D801F3
:102D600015964D905D906D907C9018974B825C828B
:102D70006D827E82BE016F5F7F4F67CF8F3491057A
:102D80000CF0BBCFBDE06B1709F4B7CF9C012F5FF0
:102D90003F4F30934307209342078E50994FFC01D9
:102DA0006083ABCF81E090E0BFCF0C9486A90C94F8
:102DB00086A90C9486A9CF93DF93DC011296ED913E
:102DC000FC913097C1F1EC018E819F818330910598
:102DD000B1F0049719F1608588E59BE00E9462825A
:102DE00068E974E188E59BE00E94997088E59BE0C2
:102DF0000E94846FEA81FB81808590E00CC060E9CD
:102E000074E188E59BE00E94997088E59BE00E9450
:102E1000846F82E090E0DF91CF9108956DE974E1D5
:102E200088E59BE00E94997088E59BE00E94846F92
:102E300081E090E0F0CF90E080E0EDCF0F931F9322
:102E4000CF93DF938C01EB0102977CF08A819B8109
:102E50000E94B6AB809304020230110531F08C81E0
:102E60009D810E94B6AB809303026AE67EE087EA0A
:102E70009AE00E9499706091040287EA9AE00E94A9
:102E8000628265E57EE087EA9AE00E94997060912F
:102E9000030287EA9AE00E94628287EA9AE0DF9161
:102EA000CF911F910F910C94846FCF93C1E068EE86
:102EB00073E080E090E00E94918B6C2F87EA9AE0AB
:102EC0000E946282CF5FC43191F7CF910895CF9372
:102ED000DF93EC01FB0124813581408151816281C6
:102EE00073810E94A66FCE01DF91CF910895CF9399
:102EF000DF93009709F484C0FC012081222309F4A8
:102F00007FC0EC0163E978E00E9404AC892B09F4EE
:102F100056C067E778E0CE010E9404AC892B09F423
:102F200051C06FE576E0CE010E9404AC892B09F414
:102F30004CC06BE576E0CE010E9404AC892B09F40D
:102F400047C067E576E0CE010E9404AC892B09F406
:102F500042C063E576E0CE010E9404AC892BF1F11A
:102F60006FE476E0CE010E9404AC892BD1F16BE4D2
:102F700076E0CE010E9404AC892BB1F166E476E0E4
:102F8000CE010E9404AC892B91F162E476E0CE017F
:102F90000E9404AC892B71F167E978E0CE010E94B0
:102FA00004AC892B51F16EE376E0CE010E9404ACB3
:102FB000892B31F58EE090E0DF91CF91089582E08A
:102FC00090E0FACF81E090E0F7CF88E090E0F4CF96
:102FD00085E090E0F1CF86E090E0EECF87E090E0F2
:102FE000EBCF89E090E0E8CF8AE090E0E5CF8BE09E
:102FF00090E0E2CF8CE090E0DFCF8DE090E0DCCF9E
:1030000090E080E0D9CFFC0186819781009799F00C
:10301000FC0120852F70223029F46185728583851B
:1030200094850895253039F460E00E946982009704
:1030300011F0FC01F2CF60E070E0CB0108950F9336
:103040001F93CF93DF93FC01C281D3812097F9F0C6
:1030500088858F70823049F4672BC9F489859A85F9
:10306000DF91CF911F910F910895853081F48B01ED
:10307000CE010E9476828017110649F044F0602F3D
:10308000CE010E946982FC0181859285E9CF90E0A2
:1030900080E0E6CFFC016115710519F4848195810A
:1030A000089586819781681779072CF0848195812E
:1030B000860F971F0895828193810C941F18CF93D8
:1030C000DF93EC0163E874E188E59BE00E9499706E
:1030D00088E59BE00E94846FE881F981028CF38D82
:1030E000E02DCE0119958130910529F0029759F014
:1030F00060E08C811AC063E070E0CE010E944A1843
:1031000060E00E94398A60E08C810E94398A61E027
:1031100070E0CE010E944A1860E00E94398A62E0A5
:1031200070E0CE010E944A1860E00E94398A109235
:10313000F1061092F00681E090E0DF91CF910895C2
:103140000F931F93CF93DF93EB0163E0FC0180812A
:1031500091810E946982009799F0C095D095CF6FB8
:10316000AE0170E060E0FC010185128523853485A5
:1031700040235123622373234187528763877487D7
:10318000DF91CF911F910F9108950F931F93CF93CC
:10319000DF93EB0163E0FC01808191810E946982F1
:1031A000009789F0CC27AE0170E060E0FC0101855A
:1031B000128523853485402B512B622B732B41873D
:1031C000528763877487DF91CF911F910F91089584
:1031D000CF93DF93EB0163E0FC01808191810E943A
:1031E0006982009741F0FC01818592858C239D23A3
:1031F000DF91CF91089590E080E0FACFCF93C62F72
:1032000063E0FC01808191810E9469820097E9F06E
:10321000FC0141855285638574854427662777279D
:103220004C2B418752876387748764E676E088E594
:103230009BE00E9499706C2F88E59BE00E9462825F
:1032400088E59BE0CF910C94846FCF910895FC01A9
:1032500082819381009719F062E00E94FE1881E05C
:1032600090E00895CF93DF93EC010E94271966E761
:1032700074E188E59BE00E94997088E59BE00E94DC
:10328000846F8A819B81892B09F44DC08C819D813B
:10329000892B09F048C0E881F981028CF38DE02D7B
:1032A000CE0119958130910529F0029759F061E01E
:1032B0008C811AC063E070E0CE010E944A1861E080
:1032C0000E94398A61E08C810E94398A61E070E055
:1032D000CE010E944A1861E00E94398A62E070E0E3
:1032E000CE010E944A1861E00E94398A8091A100B3
:1032F000887F8093A10080919100887F80939100C6
:103300008091A10082608093A100809191008260F1
:103310008093910081E090E09093F1068093F00615
:10332000DF91CF91089590E080E0FACFCF93DF93C3
:10333000EC010E942719EC81FD81309709F44FC000
:10334000C681D7812097C1F1E881F981309781F159
:103350008081882369F16DEB73E0CE010E94ED81DD
:10336000892B41F42FEF3FEFA9016DEB73E0CE0104
:103370000E94F18460E774E0CE010E94ED81892B08
:1033800041F42FEF3FEFA90160E774E0CE010E9406
:10339000F18461EC73E0CE010E94ED81892B41F450
:1033A0002FEF3FEFA90161EC73E0CE010E94F184A1
:1033B0000A80DB81C02DC6CF6BE174E188E59BE01C
:1033C0000E94997088E59BE00E94846F81E090E004
:1033D0009093EF068093EE06DF91CF91089563E01E
:1033E00074E188E59BE00E94997088E59BE00E946B
:1033F000846F90E080E0F0CF63E0FC0180819181F8
:103400000E946982009719F0FC01818508958FEF71
:1034100008950F931F93CF93DF93C92FD62F082FB3
:10342000192F17FF03C011950195110961E0802F35
:103430000E94398A6C2FDD23A9F06095661F6627EC
:10344000661F802F0E940B8A61EE71E188E59BE088
:103450000E94997088E59BE0DF91CF911F910F91B9
:103460000C94846F661F6627661F802F0E940B8A4C
:103470006CED71E1EBCF892B59F0FB0182819381D7
:103480000E9439836CEB7EE087EA9AE00C94997095
:1034900090E080E0F5CF892B59F0FB018281938188
:1034A0000E94FA8265EA7EE087EA9AE00C949970BD
:1034B00090E080E0F5CF0E94848465E97EE087EAB1
:1034C0009AE00C949970EF92FF920F931F93CF9311
:1034D000DF93CDB7DEB72C970FB6F894DEBF0FBEE3
:1034E000CDBF8C017B018BE993E09A8389831B829A
:1034F0001C821D821E8298878F8319861A861B86DE
:103500001C8605301105ECF0BE01695F7F4FF701A5
:10351000808591850E947E0E892B99F0CE010796B9
:103520000E94BB83BE01695F7F4FF701868197814F
:103530000E947E0E892B61F0CE0107960E94418485
:103540000EC0CE0101960E94BB830430110554F7D2
:10355000CE0101960E944184033011057CF1BE0129
:10356000695F7F4FF701848195810E947E0E892BD0
:1035700029F1CE0107960E94FE83BE01695F7F4F4D
:10358000F701828193810E947E0E892BF1F0CE019A
:1035900007960E9478836EE77EE087EA9AE00E94B1
:1035A00099702C960FB6F894DEBF0FBECDBFDF9199
:1035B000CF911F910F91FF90EF900895CE0101964A
:1035C0000E94FE8302301105C4F6CE0101960E94CE
:1035D000788301301105F9F6CE0101960E947883B7
:1035E00065E87EE087EA9AE00E949970D4CF2F9236
:1035F0003F924F925F926F927F928F929F92AF9283
:10360000BF92CF92DF92EF92FF920F93CF93DF930F
:1036100000D01F92CDB7DEB77C017A8369835C83CB
:103620004B83DB011C92FC016081662309F4C2C15B
:1036300030FFC0C1F9E06F9FB0011124605A764F8E
:10364000CD010E943BAC4B815C816EE275E08981CB
:103650009A810E94A2B9E981FA8101900020E9F7DC
:10366000319789819A81E81BF90B1C012E0E3F1EB0
:10367000AB81BC81AE1BBF0B1197BC83AB83D70161
:103680001296EC91E295EF70E150EC3008F0B3C087
:10369000F0E08827E15BF44E8F4F0C9439B55B1B4B
:1036A000CA1B301C971CB31C971B471C471C471C8C
:1036B0008B1B7F1BD01CF7018481282F30E050E04A
:1036C00040E0002359F030E0A4E6B0E00E9402B5EB
:1036D0002FEF30E040E050E00E94D0B45F934F9372
:1036E0003F932F9385EC93E09F938F93FC81FF93FF
:1036F0008B818F933F922F920E94DAB977C0F701A6
:1037000087818F9386818F9385818F9384818F9317
:1037100088EC93E0E9CFF70187818F9386818F93BF
:1037200085818F9384818F938CEC93E0DDCFF701BB
:10373000C480D580E680F780C701B6012AE030E07A
:1037400040E050E00E94D0B497FF07C0909580956C
:10375000709561957F4F8F4F9F4F9F938F937F936E
:103760006F93C701B6012AE030E040E050E00E94CC
:10377000D0B45F934F933F932F9380ED93E09F934B
:103780008F93FC81FF938B818F933F922F920E94A6
:10379000DAB92CC0C7010E942E11BC01F701C68006
:1037A000D780D0FADD24D0F89481F580EB80BC80FE
:1037B000292F30E050E040E077FD35C0011135C0E1
:1037C0007F936F931F921F921F929F931F92FF925E
:1037D000DF92CF9287ED93E09F938F939C819F938D
:1037E000AB81AF933F922F920E94DAB90FB6F89453
:1037F000DEBF0FBECDBF89819A810F900F900F90D1
:103800000F90DF91CF910F91FF90EF90DF90CF90CD
:10381000BF90AF909F908F907F906F905F904F90F0
:103820003F902F900895002361F0292F30E0A4E607
:10383000B0E00E9402B52FEF30E040E050E00E947F
:10384000D0B45F934F933F932F931F92FF92DF92D9
:10385000CF928AED93E09F938F93BF92EF9295CF93
:10386000D70115968C9115971F928F9316969C9160
:10387000169717968C9181708F939F938DED93E09F
:103880009F938F93BC81BF93EB81EF9333CFD7018D
:1038900014968D909D90AD90BC90179720E030E0ED
:1038A000A901C501B4010E9464B32401350187FF59
:1038B00004C077FA709477F87094C301B2010E9443
:1038C00036B66B01072E000C880B990B0E946BB368
:1038D0009B01AC01C301B2010E9457B520E030E06A
:1038E00048EC52E40E94CAB30E94C1B60E9436B6A8
:1038F000062F772E20E030E0A901C501B4010E9417
:1039000064B387FF07C07F920F93DF92CF9283EE5D
:1039100093E0B6CF7F920F93DF92CF9284EE93E045
:103920009F938F939C819F93AB81AF93E3CED701FD
:1039300014968C9114971F928F9315968C911597CE
:103940001F928F9316968C911F928F938AED93E01E
:103950009F938F93BC81BF93EB81EF933F922F9204
:103960000E94DAB943CFD70117968C9117971F920F
:103970008F9314968C9114971F928F9315968C9118
:1039800015971F928F9316968C911F928F9387EDA8
:1039900093E09F938F93BC81BF93EB81EF93F5CE20
:1039A000D70114966D917C914B815C81C1010E947D
:1039B000C0B921CF29803A8062CEEF92FF920F9357
:1039C0001F93CF93DF93EC017B018E819F81892B25
:1039D000D9F4888199810E947682082F10E0053001
:1039E000110594F40E941278009721F0FC012085C3
:1039F000207F20879F838E83BC01888199810E94CC
:103A0000D5840F5F1F4FEBCFEE81FF813097D9F048
:103A10008085982F9F70A9F4807F82608087EE81D7
:103A2000FF811186128613861486EE81FF81F7824C
:103A3000E682C701DF91CF911F910F91FF90EF9028
:103A40000895923061F3F12CE12CF3CFCF93DF9303
:103A5000EC016CEE73E088E59BE00E94886F8C813E
:103A60009D810E9486A970E060E08A819B810E940E
:103A7000DD1C1D821C8281E090E0DF91CF910895D2
:103A8000CF92DF92EF92FF920F931F93CF93DF932A
:103A9000EC010E9427198C819D81892B61F40A8198
:103AA0001B8185E090E00E94EAA8BC01C8010E9449
:103AB000DD1C9D838C83EC80FD80E114F104A9F46E
:103AC00065EA73E181EB9AE00E94997081EB9AE0DC
:103AD0000E94846F90E080E0DF91CF911F910F9161
:103AE000FF90EF90DF90CF9008951092E90610922A
:103AF000E8061092E3061092E2061092EA0610928F
:103B0000EB061092EC061092ED061092E40610926D
:103B1000E5061092E6061092E706109260061092F3
:103B2000A206EA81FB81309759F082819381009748
:103B300039F0DC0118962C912F70263009F470C0F2
:103B40006EE573E181EB9AE00E94997061E070E0AC
:103B50008C819D81892B11F470E060E04AE050E097
:103B600081EB9AE00E94EE6F6CE573E181EB9AE0E5
:103B70000E94997061E070E08A819B81892B11F429
:103B800070E060E04AE050E081EB9AE00E94EE6F66
:103B90006AE573E181EB9AE00E949970EA81FB810A
:103BA00061E070E082819381892B11F470E060E024
:103BB0004AE050E081EB9AE00E94EE6F68E573E125
:103BC00081EB9AE00E949970EA81FB810280F38187
:103BD000E02D80858F7061E070E0863011F470E038
:103BE00060E04AE050E081EB9AE00E94EE6F66E50B
:103BF00073E181EB9AE00E94997081EB9AE00E9458
:103C0000846F67E773E181EB9AE00E94997081EB22
:103C10009AE00E94846FEC81FD8182E080835ACF1C
:103C20006DEF73E00E94ED81009709F4A8C0FC01DC
:103C300020852F70243009F0A2C0C184D284B6013F
:103C400088E59BE00E94337062E573E188E59BE0C4
:103C50000E94997010E000E0C114D10409F486C0FC
:103C6000B801665F7C4EC6010E9404AC892B09F046
:103C700077C0F801E25FFC4E25913491922F832F9B
:103C8000D70113969C93139714968C93EA81FB812A
:103C900064E074E0828193810E94ED81EC81FD817A
:103CA000009709F472C0DC0118962C9118972F70B8
:103CB000223009F06AC019964D915D916D917C9109
:103CC0001C97411551056105710509F45EC05283C9
:103CD000418341815281052E000C660B770B2381B5
:103CE0008DEA99E00E94FC74EC81FD814181528152
:103CF000052E000C660B770B238180E199E00E9472
:103D0000FC74EA81FB816AE174E0828193810E9404
:103D1000ED81009739F0FC01818592859093A10691
:103D20008093A0066DE873E187EA9AE00E9499709B
:103D3000EA81FB810190F081E02D6081718187EA49
:103D40009AE00E94337087EA9AE00E94846FEC81C7
:103D5000FD8181E080838093020281E090E0BCCE0F
:103D60000A5F1F4F0834110509F076CF6DEE72E13E
:103D700088E59BE00E94997096E080E081CF86E024
:103D800090E0F7019483838381CF80E09BE492836A
:103D900081839FCFDF92EF92FF920F931F93CF9378
:103DA000DF93EC01888199810E947682082F10E0D0
:103DB000043011059CF40E941278009739F0DC0160
:103DC00018962C911897207F18962C93BC01888107
:103DD00099810E94D5840F5F1F4FEACFE880F98058
:103DE00060E0C7010E946982FC01D184D88661E04D
:103DF000C7010E9469828C019B838A8362E0C701AC
:103E00000E9469829D838C8364E0C7010E9469825D
:103E10007C019F838E83F0E1DF1609F467C082E1A5
:103E2000D81609F448C0A3E0DA1230C08AE090E066
:103E30000E94EAA87C01FC01D383C28387E392E05D
:103E40009183808370E060E0CE010E941F1897FD8F
:103E500025C0D70115969C938E93149701151105D3
:103E600039F1D80118968C918F708230F1F085303D
:103E7000F9F4C8010E94768290E0F7019783868367
:103E80008BE592E091838083FA86E986DF91CF917A
:103E90001F910F91FF90EF90DF900895919581957C
:103EA0009109F70195838483D9CF81E090E0E5CF34
:103EB00090E080E0E2CF86E090E00E94EAA8FC017A
:103EC000D383C2838FE792E091838083158214822B
:103ED0000115110541F0D80118968C918F7086302C
:103EE00011F415830483FA87E987D0CF86E090E048
:103EF0000E94EAA8FC01D383C28385E192E091830A
:103F00008083E114F10469F0D70118968C91189719
:103F10008F70823031F416968D919C9195838483B5
:103F2000E2CF90E080E0FACFCF93DF93EC0179838A
:103F300068831A8619861B861E8A1D8A0E94A31111
:103F4000882329F0CE01DF91CF910C94CA1EDF9116
:103F5000CF910895CF92DF92EF92FF920F931F932C
:103F6000CF93DF93EC016A017B018E819F81892BC6
:103F7000D9F4888199810E947682082F10E005305B
:103F8000110594F40E941278009721F0FC0120851D
:103F9000207F20879F838E83BC01888199810E9426
:103FA000D5840F5F1F4FEBCFEE81FF81309749F132
:103FB0008085982F9F7019F5807F82608087EE81C1
:103FC000FF81C186D286E386F4866CE676E088E5DA
:103FD0009BE00E9499702AE030E0B701A60188E5D5
:103FE0009BE00E94A66F88E59BE0DF91CF911F9137
:103FF0000F91FF90EF90DF90CF900C94846F9230F0
:10400000F1F2DF91CF911F910F91FF90EF90DF9030
:10401000CF9008950F931F93CF93DF938C01FC01F2
:10402000C081D1816FE270E0CE010E94CFB90097CC
:10403000E9F0FC011192CF010E947717EC0168E7CB
:1040400076E088E59BE00E9499704AE050E0BE016E
:1040500088E59BE00E94EE6F88E59BE00E94846FFC
:10406000CE01DF91CF911F910F910895CE010E9453
:104070007717EC01892BA1F3F80111821082F0CFA0
:104080008F929F92AF92BF92CF92DF92EF92FF9268
:104090000F931F93CF93DF93CDB7DEB767970FB61C
:1040A000F894DEBF0FBECDBF8C017B014C018BE0CD
:1040B000880E911C9F8A8E8AF801128611861386BB
:1040C000168A158A672B09F463C0A090BC07B090CC
:1040D000BD07A114B10409F45BC06FE270E0C70131
:1040E0000E9487B96C01892B09F44AC0F701DE01EF
:1040F000119690E080E0BD012191222341F02F3202
:1041000031F08431910519F02D930196F5CF860F8A
:10411000971FFC011082C5010E94ED81F801918377
:104120008083B6016F5F7F4F4AE050E0C4010E9478
:10413000C0B9CE0146960E940A20F801968B858B65
:104140008E899F89892B09F41386C8010E94A311C7
:10415000882319F0C8010E94CA1E67960FB6F8940A
:10416000DEBF0FBECDBFDF91CF911F910F91FF90AA
:10417000EF90DF90CF90BF90AF909F908F90089579
:10418000B701C5010E94ED81F80191838083DDCFE5
:10419000F80111821082D9CF1F93CF93DF93162F8E
:1041A000FC01C685D7859E012F5F3F4F3787268745
:1041B000CE010E9488B4181721F0612FCE010E9411
:1041C00090B481E090E0DF91CF911F910895CF935B
:1041D000DF9300D000D01F921F92CDB7DEB770E002
:1041E00060E08CEC9BE00E94D5111C821B8287EB67
:1041F00092E09A8389838CEC9BE09E838D838FEF82
:104200009FEF98878F8360E672E187EA9AE00E94C9
:10421000997060915C0670915D06CE0101960E94D6
:104220000D766FEF8CEC9BE00E94CC2060E572E194
:1042300087EA9AE00E94997087EA9AE00E94846F68
:1042400028960FB6F894DEBF0FBECDBFDF91CF9199
:104250000895029794F064E47EE087EA9AE00E9471
:1042600099704AE050E070E060E087EA9AE00E94CE
:10427000EE6F87EA9AE00C94846F0C94E720FC01BF
:1042800086859785248535858217930720F40E94BB
:1042900088B490E008958FEF9FEF08952F923F929A
:1042A0004F925F926F927F928F929F92AF92BF9246
:1042B000CF92DF92EF92FF920F931F93CF93DF93F2
:1042C000CDB7DEB762970FB6F894DEBF0FBECDBF95
:1042D0005C014B0129013A01CA01B9010E9436B6BD
:1042E0001B013F926F9380EE93E09F938F93CE01DB
:1042F00001967C019F938F930E9417BA0F900F90A5
:104300000F900F900F900F9020E030E0A901C301B3
:10431000B2010E946CB6181624F077FA709477F800
:104320007094F70101900020E9F731976F01CE18E2
:10433000DF088EE28083A2E0B0E0AC0FBD1FAC0DC1
:10434000BD1DBA8BA98BB10137FE03C07195619574
:104350007109072E000C880B990B0E946BB39B010F
:10436000AC01C301B2010E9457B520E030E040E249
:1043700051E40E94CAB30E9436B6605DE989FA89A9
:104380006083FE01EC0DFD1D1382D501ED91FC91C2
:104390000288F389E02D9801A701B401C5011995A0
:1043A00062960FB6F894DEBF0FBECDBFDF91CF91FE
:1043B0001F910F91FF90EF90DF90CF90BF90AF9043
:1043C0009F908F907F906F905F904F903F902F9035
:1043D0000895DA01E091B307F0E0FE2FEE27E60F33
:1043E000F71F90E0982F8827A901BD018E0F9F1F0E
:1043F0000C949679CF93DF931F92CDB7DEB72091BF
:10440000B30730E0322F2227260F371F90E0982F76
:104410008827498341E050E0BE016F5F7F4F820FE4
:10442000931F0E9496790F90DF91CF910895CF93BB
:10443000DF931F92CDB7DEB741E050E0BE016F5F62
:104440007F4F0E940B7989810F90DF91CF91089562
:104450002091B30730E0322F2227620F731F90E0C4
:10446000982F8827860F971F0C94172263E070E01F
:104470000C9428229F92AF92BF92CF92DF92EF923C
:10448000FF920F931F93CF93DF93EC017B018091F9
:10449000FA08811121C01B821A8288EE93E0A0E005
:1044A000B0E08C839D83AE83BF838DE693E09983D8
:1044B000888388E08C8788EE93E09E878D87CE0185
:1044C000DF91CF911F910F91FF90EF90DF90CF90F0
:1044D000BF90AF909F90089534E0932E833311F0F6
:1044E00028E0922E8AEEC82E88E0D82E10E098E0C0
:1044F000B92EA12CD6012D913D916D01F70184813A
:1045000095812817390791F4812F0E94DF7D082FAC
:10451000873111F08C3139F5812F0E94CB7C892BAA
:1045200059F50C3119F4812F0E94C37D1F5F911240
:10453000E1CFA11008C0D701ED91FC910084F18575
:10454000E02DC70119951B821A8288EE93E0A0E046
:10455000B0E08C839D83AE83BF838DE693E0998327
:104560008883BC86A8CF843149F08111DFCFF60162
:10457000329711821082DACFB12ED8CFAA24A39419
:10458000D5CF8F929F92AF92BF92CF92DF92EF9250
:10459000FF920F931F93CF93DF93CDB7DEB72F9783
:1045A0000FB6F894DEBF0FBECDBF5C014B017A01A0
:1045B0008091FA088823C9F104E0833309F008E008
:1045C000B501CE0101960E943A228AEEC82E88E0FB
:1045D000D82E10E0F601219131916F01F50184810F
:1045E00095812817390751F4812F0E94DF7D87318B
:1045F00029F4A701B401812F0E94417C1F5F0113A0
:10460000E9CFC7012F960FB6F894DEBF0FBECDBF1E
:10461000DF91CF911F910F91FF90EF90DF90CF909E
:10462000BF90AF909F908F900895F12CE12CE9CF2F
:10463000DA01E091B307F0E0FE2FEE27E60FF71F57
:1046400090E0982F8827A901BD018E0F9F1F0C9421
:104650000B7944E050E0BC018FE090E00C94967937
:1046600044E050E0BC0185E090E00C94967944E091
:1046700050E0BC0181E090E00C94967908959F92FF
:10468000AF92BF92CF92DF92EF92FF920F931F9360
:10469000CF93DF938C015B01942EE52EFC01C6883D
:1046A000D788F08C80E591E00E94EF868F2D0E94E4
:1046B000E77BC92DDE2D8C179D0708F4EC019E01C8
:1046C000A501B6018F2D0E94647BF8018689978928
:1046D0008C0F9D1F978B868BCE01DF91CF911F9101
:1046E0000F91FF90EF90DF90CF90BF90AF909F9091
:1046F0000895CF93FC01C08D80E591E00E94EF8684
:1047000060E270E08C2F0E94FB7862E070E08C2FFA
:104710000E94282284FD16C062E070E08C2F0E9467
:10472000282283FF0AC048E162E070E08C2F0E94DB
:10473000FA2180E090E0CF91089580E591E00E9419
:10474000EF86E3CF40E162E070E08C2F0E94FA2117
:1047500081E0F0CFFF920F931F93CF93DF93EB0194
:10476000FC01178A168A2A81211109C02B81211187
:1047700006C02C81211103C02D81222301F1411596
:104780005105E9F08A01FC01F08C80E591E00E947E
:10479000EF86AE014E5F5F4F24E030E06CE070E0EA
:1047A0008F2D0E94E921B8018F2D0E94EE7D81E0BE
:1047B00090E0DF91CF911F910F91FF90089580E0DD
:1047C000F7CF0F931F93CF938C01FC016481758108
:1047D00081E20E941A7EC82F8830F8F480E591E0CB
:1047E0000E94EF868C2F0E943622833131F08C2F6D
:1047F000CF911F910F910C94C37D62E070E08C2FDC
:104800000E94FB78F80184819581EC2FF0E0EE0F97
:10481000FF1FE651F74F91838083CF911F910F9136
:1048200008950F931F93CF93DF931F921F92CDB7DD
:10483000DEB7FC0124852830E0F48C0180E591E0AE
:104840000E94EF8622E030E0AE014F5F5F4F60E1F3
:1048500070E0F80184850E94182389819A81982745
:10486000892798270F900F90DF91CF911F910F917B
:10487000089590E080E0F6CF0F931F93CF93DF93DE
:104880001F921F92CDB7DEB7FC0124852830E0F4DB
:104890008C0180E591E00E94EF8622E030E0AE01DD
:1048A0004F5F5F4F64E070E0F80184850E94182339
:1048B00089819A819827892798270F900F90DF91F7
:1048C000CF911F910F91089590E080E0F6CFCF93A4
:1048D000DF93EC018BE993E0998388831A821B8232
:1048E0001C821D8280E591E00E94EF86BE016E5F12
:1048F0007F4F44E050E08FE090E00E940B79CE01C2
:10490000DF91CF9108950E94577A882331F08091EA
:10491000FA08843329F0873381F090E080E008952D
:1049200080E591E00E94EF8685E390E00E941722E7
:1049300085FD0DC082E090E0089580E591E00E9441
:10494000EF868EE290E00E94172280FFF3CF81E095
:1049500090E008951F920F920FB60F9211240BB69C
:104960000F922F933F934F935F936F937F938F9308
:104970009F93AF93BF93EF93FF938091B900887F8C
:10498000803609F44DC008F040C0883209F4A7C051
:1049900028F5803109F49BC0C8F4882309F4F7C0D6
:1049A000883009F494C0FF91EF91BF91AF919F912E
:1049B0008F917F916F915F914F913F912F910F90C8
:1049C0000BBE0F900FBE0F901F901895883109F401
:1049D00086C0803241F780938C0714C0803409F47C
:1049E0009BC040F48033B9F38833E9F680938C0799
:1049F00085ECAEC0803509F483C0883509F494C0D5
:104A0000883489F60E94CD0DCECF883909F48AC04A
:104A100038F5883729F050F4883611F0803719F6C8
:104A200083E080938D0710928B0755C0883809F476
:104A300079C0803919F0803809F0B5CF80918B07A3
:104A4000803208F06FC0E0918B0781E08E0F809379
:104A50008B078091BB00F0E0E559F84F80833BC0A5
:104A6000803B39F0D0F4803A09F477C0883A09F0F5
:104A70009ACF84E080938D0710926A07109269079D
:104A8000F0E0E0E019958091690781110FC081E0A5
:104A9000809369071092490709C0803C09F4A8CFA8
:104AA000883C09F4A5CF883B09F07DCFE0916A07E7
:104AB00081E08E0F80936A07F0E0E75BF84F80811A
:104AC0008093BB0090916A078091690729C080910B
:104AD000B2078093BB0085EC8093BC0064CF9091BB
:104AE000B1078091B007981758F5E091B10781E0C0
:104AF0008E0F8093B107F0E0E057F84F8081E9CF47
:104B0000E091B10781E08E0F8093B1078091BB00E7
:104B1000F0E0E057F84F80839091B1078091B007A3
:104B20009817C8F285E8D8CFE091B10781E08E0FE1
:104B30008093B1078091BB00F0E0E057F84F80838D
:104B400080918F0781115ECF81E080938E0784EA88
:104B50008093BC0010928D0726CF85EC8093BC001B
:104B600010928D0780918B07803230F4E0918B0793
:104B7000F0E0E559F84F108260918B0770E08BE60A
:104B800097E0F0E0E0E0199510928B070CCF1092BF
:104B90008C0738CF4F925F926F927F92AF92BF9205
:104BA000CF92DF92EF92FF920F931F93CF93DF93F9
:104BB00000D01F92CDB7DEB72B013C0129833A8389
:104BC0004B835C83A60195016E0D7F1D801F911F95
:104BD0000E94AEB429813A814B815C8162177307D0
:104BE0008407950708F52415350546055705A8F4EB
:104BF00021E0822F0F900F900F900F90DF91CF91B7
:104C00001F910F91FF90EF90DF90CF90BF90AF90EA
:104C10007F906F905F904F90089521E04616570661
:104C20006806790630F30FC04616570668067906FF
:104C300050F421E089819A81AB81BC81841595056E
:104C4000A605B705B0F220E0D4CF8F929F92AF9225
:104C5000BF92CF92DF92EF92FF920F931F93CF9369
:104C6000DF937C014A015901C0914507D091460765
:104C7000062F660F110B209709F45CC088858F7092
:104C8000863009F055C069E074E0CE010E94ED81E4
:104C90006C0182E08816910449F061EC73E0E3E076
:104CA0008E16910429F0D0E0C0E006C06EE074E0FA
:104CB000CE010E94ED81EC01C114D104D9F1F601BD
:104CC00080858F708430B1F561857285A801C70138
:104CD0000E94C0B9A80163E174E0C7010E94A2B9B3
:104CE000209779F188858F70843059F569857A85A8
:104CF000A801C7010E94A2B9A80163E174E0C7013D
:104D00000E94A2B9A114B10429F0A801B501C701FC
:104D10000E94A2B9C701DF91CF911F910F91FF901F
:104D2000EF90DF90CF90BF90AF909F908F900895BD
:104D3000D0E0C0E0A80163ED74E1C7010E943BAC84
:104D4000C9CFF2E08F16910481F083E088169104B8
:104D500029F06091B4077091B507CACFA8016DEC36
:104D600074E1C7010E941DACC7CFA8016AEC74E1D1
:104D7000F8CFCF92DF92EF92FF920F931F93CF93D2
:104D8000DF93CDB7DEB7C154D1090FB6F894DEBFBB
:104D90000FBECDBF6C01AB0130E020E060E4CE017E
:104DA00001967C010E942526F70101900020E9F779
:104DB00031978F010E191F09A801B701C6010E9482
:104DC000B2B9892B11F010E000E0C801CF5BDF4FD2
:104DD0000FB6F894DEBF0FBECDBFDF91CF911F910C
:104DE0000F91FF90EF90DF90CF900895CF92DF92D8
:104DF000EF92FF920F931F93CF93DF93CDB7DEB760
:104E0000C054D1090FB6F894DEBF0FBECDBF80915C
:104E1000BA079091BB07059709F449C06115710560
:104E200009F445C069017A018B0140E450E0CE01EC
:104E300001960E94C0B96FE270E0CE0101960E9417
:104E400087B9892B41F4980143E050E060E4CE013A
:104E500001960E94252640E450E0B601CE0101965D
:104E60000E94A2B90E940882882309F18091BA07A2
:104E70009091BB070697D9F480914707811117C01D
:104E8000B701CE0101960E94FD8C81E090E0C05CEC
:104E9000DF4F0FB6F894DEBF0FBECDBFDF91CF91CD
:104EA0001F910F91FF90EF90DF90CF90089590E0C9
:104EB00080E0EDCFAF92BF92CF92DF92EF92FF9260
:104EC0001F93CF93DF9300D000D0CDB7DEB76C0136
:104ED0007C0110E08AE0A82EB12C133061F1F701BB
:104EE000828190E0B0E0A0E089839A83AB83BC83A9
:104EF000BE82AD82BE016F5F7F4F88E59BE00E945E
:104F0000671768EC74E10E9499701F5FFFEFEF1A5A
:104F1000FF0A143011F726960FB6F894DEBF0FBEC5
:104F2000CDBFDF91CF911F91FF90EF90DF90CF9099
:104F3000BF90AF900895F601858190E0B0E0A0E0C9
:104F400089839A83AB83BC83BE82AD82BE016F5FCF
:104F50007F4F87EA9AE00E94671766EC74E1D3CF2F
:104F6000809147078F5F80934707A8950E94868DA1
:104F7000809147078150809347070895CF92DF9231
:104F8000EF92FF92CF93DF93EC018C85883068F429
:104F90000E94C37D0E942F8C6B017C018C850E9436
:104FA000DF7D811109C088E08C87DF91CF91FF9070
:104FB000EF90DF90CF9008950E94B02761E070E0FD
:104FC00080E090E00E94918B0E942F8CAB01BC018D
:104FD0004C195D096E097F098D859E85B0E0A0E0C2
:104FE000481759076A077B07C8F28C850E94D17D54
:104FF000DACFCF92DF92EF92FF921F93CF93DF939E
:10500000EC017B016A018C85883048F40E94DF7DC9
:10501000882319F08C850E94C37D88E08C87F70176
:1050200082819381A481B5810097A105B10551F4D6
:1050300090E080E0DF91CF911F91FF90EF90DF90A3
:10504000CF9008958F3F9F4FAF4FBF4F89F370E0D0
:1050500060E081E20E941A7E182F8C87883040F72A
:1050600080E591E00E94EF86A7014E5F5F4F24E04C
:1050700030E06CE070E0812F0E94E921B601812FC1
:105080000E94EE7D64E070E0812F0E94FB780E9418
:105090002F8C6B017C018C850E94DF7D873121F193
:1050A0008C3111F1882321F20E942F8CAB01BC01BD
:1050B0004C195D096E097F098D859E85B0E0A0E0E1
:1050C00084179507A607B70748F00E94B02761E04C
:1050D00070E080E090E00E94918BDDCF8C850E9493
:1050E000D17D88E08C87A4CF81E090E0A3CF6AEBEC
:1050F00071E187EA9AE00E94997067EA71E187EAB4
:105100009AE00E94997069E971E187EA9AE00E9449
:10511000997061E971E187EA9AE00E94997087EAE3
:105120009AE00E94846F64E871E187EA9AE00E9445
:10513000997064E771E187EA9AE00E94997068E6E5
:1051400071E187EA9AE00E94997061E571E187EA6E
:105150009AE00E9499706FE371E187EA9AE00E94F9
:1051600099706AE271E187EA9AE00E9499706BE1B6
:1051700071E187EA9AE00E9499706CE071E187EA38
:105180009AE00E94997064E071E187EA9AE00E94D7
:10519000997069EF70E187EA9AE00E9499706FEE6A
:1051A00070E187EA9AE00E94997067EE70E187EA01
:1051B0009AE00E9499706BED70E187EA9AE00E9494
:1051C000997061EC70E187EA9AE00E94997062EA56
:1051D00070E187EA9AE00E9499706DE870E187EAD1
:1051E0009AE00E94997060E870E187EA9AE00E9474
:1051F000997062E770E187EA9AE00E94997066E62A
:1052000070E187EA9AE00E9499706EE570E187EAA2
:105210009AE00E94997063E570E187EA9AE00E9443
:10522000997066E470E187EA9AE00E9499706EE3F3
:1052300070E187EA9AE00E94997063E370E187EA7F
:105240009AE00E94997064E270E187EA9AE00E9415
:1052500099706BE170E187EA9AE00E94997087EAA1
:105260009AE00C94846F0F931F93CF93DF9300D039
:1052700000D0CDB7DEB70E9477286AE37BE087EAEB
:105280009AE00E949970CE0101960E946724CE0197
:1052900001960E945A270BE913E01A830983809133
:1052A000710A9091720AA091730AB091740A8B836B
:1052B0009C83AD83BE83CE0101960E945A271A8338
:1052C00009831B821C821D821E8280E591E00E9460
:1052D000EF8644E050E0BE016D5F7F4F81E090E0DB
:1052E0000E940B79CE0101960E945A271A830983E6
:1052F0001B821C821D821E8280E591E00E94EF8647
:1053000044E050E0BE016D5F7F4F85E090E00E9479
:105310000B79CE0101960E945A2760E67BE087EA6E
:105320009AE00E94997026960FB6F894DEBF0FBEE1
:10533000CDBFDF91CF911F910F910895009789F014
:10534000FC0120852F70253061F40E94698200974E
:1053500041F0FC0120852F70243019F4818592855D
:10536000089590E080E00895CF92DF92EF92FF924F
:105370000F931F93CF93DF9300D000D0CDB7DEB74C
:105380008091440781119EC08091BA079091BB071C
:1053900002970CF497C000915C0610915D06011510
:1053A000110509F48FC062E072E086E79BE00E947D
:1053B0000F1467E174E0C8010E94ED818C01009731
:1053C00009F480C00E947682E82EF12CE114F104E9
:1053D00009F478C070E060E0C8010E949E296C0169
:1053E000EA94EF2809F47DC061E0C8010E94698257
:1053F000FC0101851285CE0101960E946724CE0131
:1054000001960E94F2866BE27BE087EA9AE00E94B6
:105410009970B60187EA9AE00E94337067EE75E0F2
:1054200087EA9AE00E9433704AE050E0B80187EAC8
:105430009AE00E94EE6F67EE75E087EA9AE00E94BC
:1054400033706BEF78E087EA9AE00E94337087EA66
:105450009AE00E94846FD0926C0BC0926B0B1093F9
:105460006E0B00936D0B8BEF98E0892BE9F585E1CE
:1054700094E09093700B80936F0B8091B60790919E
:10548000B707009741F070E060E00E949E2990937A
:10549000B5078093B4078091B4079091B507009742
:1054A00021F09093720B8093710B1092740B1092F9
:1054B000730B81E08093440762E17BE087EA9AE026
:1054C0000E94997026960FB6F894DEBF0FBECDBF2E
:1054D000DF91CF911F910F91FF90EF90DF90CF90D0
:1054E000089502E012E087CF8BEF98E0C2CFCF9211
:1054F000DF92EF92FF921F93CF93DF9300D000D003
:10550000CDB7DEB76DE07BE087EA9AE00E94997044
:1055100086ECE82E8BE0F82E10E090E1C92ED12C1D
:10552000F70181917F01803130F46EE174E087EA08
:105530009AE00E943370153041F1F7013197808174
:1055400090E0B0E0A0E089839A83AB83BC83DE82E5
:10555000CD82BE016F5F7F4F87EA9AE00E94671796
:105560006BE07BE00E9499701F5F1630C9F62696AB
:105570000FB6F894DEBF0FBECDBFDF91CF911F9164
:10558000FF90EF90DF90CF9008958091CB0B90E04B
:10559000B0E0A0E089839A83AB83BC83DE82CD82B6
:1055A000BE016F5F7F4F87EA9AE00E9467170E94F3
:1055B000846FDACFEF92FF920F931F93CF93DF9315
:1055C00000D000D01F92CDB7DEB77B01CE01079689
:1055D0009F938F9301979F938F9301979F938F939F
:1055E00001979F938F9301979F938F9301979F9319
:1055F0008F938E010F5F1F4F1F930F9380E294E0F4
:105600009F938F93DB0113968C9113978F93129630
:105610008C918F930E9447BA0FB6F894DEBF0FBEED
:10562000CDBF0697DCF462ED7EE081EB9AE00E944C
:105630009970D70112966D917C9181EB9AE00E944E
:10564000337027960FB6F894DEBF0FBECDBFDF9143
:10565000CF911F910F91FF90EF9008958091C40B0F
:105660009091C50B892B39F10E94A182882319F1F1
:105670008091C40B9091C50BDC01ED91FC910684E7
:10568000F785E02D64E070E019958091C40B90914E
:10569000C50BDC01ED91FC910280F381E02D46E029
:1056A00050E0B801199586E0F801A6ECBBE0019046
:1056B0000D928A95E1F70E94772A64EE7EE087EAF0
:1056C0009AE00E949970BDCFEF92FF920F93CF9313
:1056D000DF93CDB7DEB7A0970FB6F894DEBF0FBE4D
:1056E000CDBF7C0100E020E033E040E250E0BE01AD
:1056F0006F5F7F4F0E94F71ABE016F5F7F4F88E593
:105700009BE00E94337068E47AE088E59BE00E94A9
:105710009970F701628162956F7088E59BE00E9445
:10572000628261E47AE088E59BE00E949970F7016B
:1057300062816F7088E59BE00E94628288E59BE051
:105740000E94846FA0960FB6F894DEBF0FBECDBF47
:10575000DF91CF910F91FF90EF9008952F923F929C
:105760004F925F926F927F928F929F92AF92BF9271
:10577000CF92DF92EF92FF920F931F93CF93DF931D
:10578000CDB7DEB768970FB6F894DEBF0FBECDBFBA
:105790001C0109871A872B873C874D875E876F8797
:1057A000788B2DE0E216F10408F035C0F701E952DC
:1057B000FD4F3081398BCE0109960E942E1197FD45
:1057C00004C0BC01C1010E9450119B85892F8F70BC
:1057D000D1011296EC911297E07FE82B1296EC9390
:1057E000129789858C93E295EF70EC3008F061C0D8
:1057F000F0E08827E150F44D8F4F0C9439B54E2DD1
:10580000272C272C5D2D0D2C102E4E2D6E2D6E2D40
:105810006E2D4E2D4E2D198ACECFB12C92959F70A4
:105820009C3008F0B1C4E92FF0E08827E55EF34D25
:105830008F4F0C9439B5592C502E702E502E132E9C
:10584000132E502E502EC430C430502E502E929510
:105850009F709C3008F00BC1E92FF0E08827EC5CCA
:10586000F34D8F4F0C9439B5592C0B2DFF2CC12CB7
:10587000432C402CE22C0F2D372D372DCC2CCC2C4B
:105880008889F10187838F85D10116968C931697AD
:105890008E8515968C9315978D8514968C931497F9
:1058A0009295907F12968C9112978F70982B1296EA
:1058B0009C93B989BB2309F4CAC1F1018281829505
:1058C0008F702B2F30E08217130609F4C0C167ECEC
:1058D00078E088E59BE00E949970D10112966C9166
:1058E00062956F7088E59BE00E94628264EC78E0CC
:1058F00088E59BE00E949970698988E59BE00E9499
:10590000628262EC78E088E59BE00E949970F10188
:10591000008119821A821B821C821D821E821F82B4
:10592000188689898295807F9B819F70892B8B83C4
:105930000983EE24EA94FE2C118122813381448173
:10594000558166817781CE0101960E94AE2BD101EF
:105950002C9311963C93119712964C931297139691
:105960005C93139714966C93149715967C931597E4
:1059700016968C93169717969C93C1010E94642BE0
:1059800066C18F859889F1018683878190FB80F9B4
:1059900087838E8585838DCF8D859E85AF85B889DC
:1059A0008F3F9105A105B10529F024F08FEF90E01C
:1059B000A0E0B0E0B7FF03C080E090E0DC01F101BF
:1059C000848377CF6D857E858F8598892AE030E046
:1059D00040E050E00E94D0B42F3F31054105510511
:1059E00029F024F02FEF30E040E050E057FF03C0F3
:1059F00020E030E0A901D10114962C935ACF8F8575
:105A00009889F1018683878190FB80F987838E8551
:105A100085838D85D5CF8D8514968C934ACFCD8483
:105A2000DE84EF84F88820E030E0A901C701B601E8
:105A30000E9464B387FD17C020E030E04FE753E4D5
:105A4000C701B6010E946CB6181634F4C12CD12CD3
:105A5000AFE7EA2EA3E4FA2EC701B6010E943DB6D5
:105A6000F101648326CFC12CD12C7601F5CF67E4F8
:105A700079E088E59BE00E9499706B8562956F7074
:105A800088E59BE00E94628264E479E088E59BE01F
:105A90000E949970D10112966C91B7C04D855E85B8
:105AA0006F857889F1014483558366837783907F7E
:105AB00082818F70982B9283FCCE60E0CE01099694
:105AC0000E94D50FD10114968C93149712968C9145
:105AD00012978F70806212968C93EBCE92959F7086
