:100000000C94910E0C94C20E0C94C20E0C94C20E61
:100010000C94C20E0C94C20E0C94C20E0C94C20E20
:100020000C94C20E0C94C20E0C94C20E0C94C20E10
:100030000C94C20E0C94C20E0C94C20E0C94C20E00
:100040000C94C20E0C94C20E0C94C20E0C94C20EF0
:100050000C94C20E0C94C20E0C94C20E0C947092AE
:100060000C94C20E0C94EE6F0C94C46F0C94C20EE0
:100070000C94C20E0C94C20E0C94C20E0C94C20EC0
:100080000C94C20E0C94C20E0C94C20E0C94C20EB0
:100090000C94C20E0C94C20E0C94C20E0C94E4206C
:1000A0000C94C20E0C94C20E0C94C20E0C94C20E90
:1000B0000C94C20E0C94C20E0C94C20E0C94C20E80
:1000C0000C94C20E0C94C20E0C94C20E0C94C20E70
:1000D0000C94C20E0C94C20E0C94C20E0C94C20E60
:1000E0000C94C20E07634236B79BD8A71A396856DC
:1000F00018AEBAAB558C1D3CB7CC5763BD6DEDFD4A
:10010000753EF6177231BF000000803F0800000006
:10011000BE922449123EABAAAA2ABECDCCCC4C3EFC
:1001200000000080BEABAAAAAA3E00000000BF00EB
:100130000000803F0000000000084178D3BB4387E7
:10014000D1133D190E3CC3BD4282AD2B3E68EC82FB
:1001500076BED98FE1A93E4C80EFFFBE01C4FF7F80
:100160003F00000000000C940D720C94F4630C949A
:10017000B2130C94F72A0C9450730C94035C0C94F7
:10018000AF2B0C94234E0C947C1B0C94122B0C94D0
:10019000135C0C948E670C9427110C94082A0C9411
:1001A0005DA40C9443660C9485130C945D110C941F
:1001B000AC2C0C940F110C9447710C94864C0C943D
:1001C000EA850C94B9750C94294E0C9408290C946A
:1001D000D4710C9463110C94C2710C940D860C9420
:1001E00057890C94412A0C9435140C9443890C942F
:1001F0008F750C94ED640C94572C0C9482160C940F
:10020000174A0C945D390C94EC2B0C9495670C9464
:10021000D5660C94C4670C94C7740C948EA90C9486
:10022000B8A90C94BA100C94344A0C94F90E0C949E
:1002300035890C942B7C0C94772C0C94BA2C0C9450
:10024000C62C0C944D890C9485120C94FBA80C942C
:10025000D1650C94DC0E0C94D34C0C941B650C945F
:10026000DC160C9421540C9473120C94DA670C94E1
:100270005A590C943E650C942F360C94004D0C94F6
:100280007C690C940D0F0C9488680C94EE850C948A
:100290009A2C0C9424890C942C2B0C944C650C9463
:1002A000938E0C94DE6E0C9451A30C9436110C9426
:1002B0001B390C94254A0C9437120C9416890C9413
:1002C0002B890C940B4A0C94BA2B0C942F2B0C9466
:1002D0007B110C947D4D0C943B890C9431890C94CA
:1002E0006A360C94D0850C94710F0C94C71A0C9438
:1002F000B6170C9489660C942F110C9484650C9499
:10030000FA170C9485140C94E30E0C9478710C94E9
:10031000FB2B0C94FA8E0C94BC660C9472170C9404
:10032000431B0C943C660C94EE640C9461710C9429
:1003300018110C949F4C0C941A4A0C94689C0C94C1
:10034000412C0C94950F0C94452B0C94FA670C944B
:1003500022660C9469120C94FC280C94ED5C0C94AD
:100360004F9A0C94D6540C94D02B0C94D7850C94A3
:10037000964D0C941C890C94CD390C9487A80C9440
:10038000D5130C9456110C942A5A0C94E81B0C9417
:10039000504C0C9481120C9451890C94C12C0C94E7
:1003A000194D0C94CD490C945A690C940D2F0C9452
:1003B00049890C949C0F0C94F92B0C94634A0C946F
:1003C000720F0C94DB640C94B4690C9452670C9417
:1003D0002B2C0C940B2D0C9443670C9495160C94B9
:1003E0005E680C94D9130C943B290C94C40E0C94A5
:1003F000038F0C94CB4D0C9436490C9446660C94A8
:10040000191D0C94A29E0C947B470C9427860C9487
:100410002F0F0C9412680C941A4C0C94802C0C9492
:100420002A650C94D62C0C940FA90C945B890C941F
:1004300049120C94EA690C94F3130C94264E0C9414
:1004400070130C94AAA90C9401A90C942D0F0C9470
:1004500030120C94AD390C94C80E0C947EA10C94FF
:10046000284A0C94E1490C94820F0C94FD120C94D0
:100470003F890C9427670C94C90F0C948E360C940A
:10048000230F0C944C360C94A89E0C94F1390C94C8
:10049000C6390C9473490C94F0280C94CC0E0C942F
:1004A00070750C944C660C9456890C9431A90C947C
:1004B000E61A0C940D2D0C94040F0C94CC280C947B
:1004C000F4490C94242A0C948A120C94442D0C9414
:1004D00028890C941B2C0C945B4D0C9487120C9463
:1004E000642D0C948A390C9480AB0C947C670C942A
:1004F00020890C94B3360C9458710C946C110C94A4
:10050000A1290C94C8100C94730F0C94D72C0C9444
:10051000A8160C94B8290C94A35C0C94FD8E0C9432
:100520004A4E0C94A51C0C940C0F6364696E6F709A
:10053000737578585B002F00496E3A20003D0049E2
:100540004E3A003D004C454741435920494E3A0040
:10055000000020002300260029002C002F0032007C
:10056000000100000301060109012D3E00200023C7
:10057000002D3E00200050656E6465643A20230023
:100580007261770076616C0074656D7000736174E0
:10059000006875650066616E005247420048535618
:1005A000006D6F646500536574436D643A00537465
:1005B0006F726564204558543A00737566666978B1
:1005C000436F64653A004452590046414E5F4F4EB6
:1005D0004C5900584F4E0048414C54002074696DEE
:1005E000653A004374726C205265733A002054538C
:1005F0003A0020543A003D0050696E3A004F4E3A9E
:10060000416C7265616479204163746976650A00A2
:1006100048414C543A416C726561647920496E617D
:1006200063746976650A00584F4E3A416C72656191
:100630006479204163746976650A00584F46462004
:10064000736B69707065642E205072657620636DDF
:10065000643A005475726E6564206F666620667237
:100660006F6D3A00526573746F7265642066726FC5
:100670006D3A0049676E6F7265642C206368616E25
:100680006E656C20636D643D0020457865633A00BB
:100690004163746976653A0048414C543A416C7242
:1006A0006561647920496E6163746976650A0058F2
:1006B0004F4E3A416C72656164792041637469768A
:1006C000650A00584F464620736B69707065642E4A
:1006D000205072657620636D643A005475726E65C1
:1006E00064206F66662066726F6D3A00526573749F
:1006F0006F7265642066726F6D3A00206D73203AE8
:100700000041726D656420666F7220002044697339
:1007100061726D6564004F75744F664D656D6F72E3
:1007200079210A0020436D643A00205375623D0030
:10073000204974656D3D0052414D3D00282D292012
:1007400000282B2920002076616C756520697320B4
:100750000020756E6B6E6F776E0A005D3D005B006A
:1007600020696E76616C6964002000206F6B003A2E
:1007700000206661696C6564003A005265747279A4
:10078000696E67206D6F6462757320434D440A0083
:10079000207365632072656D61696E696E670053D1
:1007A00074617475732064656666657265640A00B9
:1007B00020002D3E00436F6E76657274696E67206F
:1007C000002D3E0057726F6E672041737369676E2C
:1007D0006D656E742000524742783A2000485356A7
:1007E0002064697361626C65640020764C6576658F
:1007F0006C3A0020436F6E76563A0020436F6E7657
:10080000533A0020486F743A00436F6C643A0020FA
:10081000436F6E76657274656420563A00436F6E5E
:1008200076657274656420533A002D3E0057726FEE
:100830006E672041737369676E6D656E7420002D5D
:100840003E0057726F6E672041737369676E6D6506
:100850006E74200053617665643A00000000000069
:10086000000000004F4E000000000000004F464610
:1008700000000000000052455354000000000054E6
:100880004F47474C4500000048414C5400000000D1
:1008900000584F4E000000000000584F4646000030
:1008A000000000494E4352454153450044454352E0
:1008B0004541534500484541540000000000434F66
:1008C0004F4C00000000004155544F000000000054
:1008D00046414E5F4F4E4C590044525900000000B3
:1008E000000053544F5000000000004849474800A2
:1008F000000000004D454449554D0000004C4F5745
:100900000000000000005452554500000000004661
:10091000414C534500000000454E41424C454400C7
:100920000044495341424C454400524742000000B4
:100930000000004853560000000000002053756678
:10094000663A002041543A00436F6E66696720633F
:1009500068616E676564206C6F63616C6C792C20D4
:10096000706F7274616C2064697361626C6564009D
:100970002F636F6E6669672E6A736F6E00726562B1
:100980006F6F742000436D643A20002F636F6D6DAC
:10099000616E642F002F72616D2F002F6974656D79
:1009A0002F002F6974656D2F004C6F636174696F40
:1009B0006E3A20687474703A2F2F6C617A79686F80
:1009C0006D652E72752F707761003F6D61633D001C
:1009D0002669703D0026706F72743D00266E616D51
:1009E000653D002F002000536B697070696E672EA3
:1009F0002E004F75744F664D656D6F727921005DE5
:100A000020003A5B000A003A004D41433A00554449
:100A100050205379736C6F6720696E697469616CDB
:100A2000697A65642E0A005379736C6F6720706170
:100A300072616D733A003E003C00543A0043757297
:100A400072656E74204C414E20636F6E6669672834
:100A500069702C646E732C67772C7375626E657485
:100A6000293A000A55736520746865736520636FC1
:100A70006D6D616E64733A202768656C7027202D58
:100A8000207468697320746578740A276D61632027
:100A900064653A61643A62653A65663A66653A3019
:100AA00030272073657420616E642073746F7265E3
:100AB000204D41432D6164647265737320696E201B
:100AC000454550524F4D0A276970205B69705B2C79
:100AD000646E735B2C67775B2C7375626E65745DF7
:100AE0005D5D5D27202D20736574207374617469CA
:100AF000632049500A277361766527202D20736192
:100B000076652063757272656E7420636F6E6669B8
:100B10006720696E204E5652414D3B204F4E7C4F10
:100B20004646202D20656E61626C652F6469736195
:100B3000626C65206175746F736176650A276765FD
:100B40007427205B636F6E66696720616464725D01
:100B500027202D2067657420636F6E6669672066A5
:100B6000726F6D207072652D636F6E666967757246
:100B700065642055524C20616E642073746F7265F9
:100B800020616464722C204F4E7C4F4646202D20FD
:100B9000656E61626C652F64697361626C65206467
:100BA0006F776E6C6F6164206F6E20737461727406
:100BB00075700A276C6F616427202D206C6F61644B
:100BC00020636F6E6669672066726F6D204E5652A5
:100BD000414D0A2770776427202D20646566696E71
:100BE0006520616E642073746F7265204D5154549A
:100BF0002070617373776F72640A276F7461707706
:100C00006427202D20646566696E6520616E64200E
:100C100073746F72652048545450204150492070BD
:100C2000617373776F72640A276C6F67205B7365FB
:100C30007269616C5F6C6F676C6576656C5D205B7B
:100C40007564705F6C6F676C6576656C5D27202DD1
:100C500020646566696E65206C6F67206C657665DB
:100C60006C2028302E2E37290A276B696C6C2720C0
:100C70002D2074657374207761746368646F670AEC
:100C800027636C65617227202D20636C656172207B
:100C9000454550524F4D0A277265626F6F74272089
:100CA0002D207265626F6F7420636F6E74726F6C4B
:100CB0006C657200536F6674207265626F6F746941
:100CC0006E672E2E2E0052414D3D000A312D776960
:100CD000726520000A6D71747420000A696E707567
:100CE000747320000A6974656D7320000A436F6E87
:100CF000666967757265643A0020416464723A00FF
:100D000064657623000944533234383220657272A8
:100D10006F720009526573657420646F6E65000917
:100D2000436865636B696E6720666F7220312D576B
:100D300069726520646576696365732E2E2E0044A2
:100D400053323438322D3130302070726573656E15
:100D500074004572726F7220312D7720696E69744C
:100D600020233220467265653A0077737461742ED1
:100D700020467265653A005465726D2E2046726594
:100D8000653A004572726F7220312D7720696E6965
:100D90007420233100467265653A0044533234387A
:100DA000325F3130305F4932435F544F5F31575FBC
:100DB00042524944474520696E6974003B003D003A
:100DC00050696E3A003B003D4C4F570054686572C5
:100DD0006D6F3A004F6E65207769726520526561CC
:100DE00064790A004170706C79696E6720636F6E78
:100DF000666967004C6F6164656420455441473AF9
:100E0000004E6F2073746F72656420636F6E666945
:100E100067004C6F616465642066726F6D204545A4
:100E200050524F4D006C6F6164206661696C65645F
:100E3000004C6F6164696E6720436F6E666967205E
:100E400066726F6D20454550524F4D00436F6E6680
:100E50006967206175746F736176653A000A53792A
:100E6000736C6F67206465627567206C6576656C6E
:100E70003A0053657269616C206465627567206C25
:100E80006576656C3A0053617665640A0053657453
:100E90002064796E616D69632049500A00454550B0
:100EA000524F4D20636C65617265640A004D515468
:100EB000542050617373776F72642075706461742D
:100EC00065640A004F54412050617373776F7264F8
:100ED00020757064617465640A00636F756C6420CA
:100EE0006E6F742070617273653A20005570646192
:100EF0007465640A004E6F20495020616472657306
:100F0000730052656C656173696E6720736F636B04
:100F1000657420616E64207265747279002053617B
:100F2000766564004C6F6164696E67204854545064
:100F300020636F6E666967206F6E207374617274D0
:100F400075703A004F4646004F4E002B002D00456D
:100F50005461673A200047657420455441473A2060
:100F600000485454502F312E312025690025733A02
:100F70002025730D0A0020485454502F312E310D76
:100F80000A486F73743A2025730D0A4163636570D4
:100F9000743A202A2F2A0D0A436F6E6E65637469B6
:100FA0006F6E3A20636C6F73650D0A002573002025
:100FB000000D0A00474554006661696C6564207441
:100FC0006F20636F6E6E6563740A004552524F5214
:100FD0003A205365727665722072657475726E651B
:100FE000642000436F6E666967206E6F74206368CB
:100FF000616E6765640A00446F6E652E0A00436F78
:101000006E6669672070617273696E6720666169D8
:101010006C65640A00676F7420436F6E6669670AC7
:1010200000667265652000436F6E666967205552E1
:10103000493A20687474703A2F2F00204465666125
:10104000756C7420636F6E66696720736572766570
:101050007220757365643A20006C617A79686F6DEF
:10106000652E7275000A282D294D444E53000A281A
:101070002D2955415254425249444745000A282BD4
:10108000295359534C4F47000A282D2950494400F1
:101090000A282D294D43503233303137000A282D8C
:1010A000294152544E4554000A282B294F544100DF
:1010B0000A282D29535049204C4544000A282D293F
:1010C0004D4F544F5220435452000A282D2941437A
:1010D000204841494552000A282D294343533831BD
:1010E0003120262048444331303830000A282B294B
:1010F000524553544152545F4C414E5F4F4E5F4DE9
:101100005154545F4552524F5253000A282D2948DA
:1011100041524452455345542C207573696E6720E3
:10112000736F6674000A282D29434F554E5445525B
:10113000000A282D29444854000A282B294F5749D2
:101140005245000A282D294D4F44425553000A2884
:101150002D29444D58000A282B2957697A6E657449
:1011600035313030000A282B294453323438322D9F
:10117000313030000A282B294672656552616D2096
:101180007072696E74696E670064653A61643A6290
:10119000653A65663A66653A6566000A4669726D43
:1011A00077617265204D41432041646472657373B9
:1011B00020006C617A79686F6D652E7275000A4344
:1011C0006F6E666967207365727665723A000A28E9
:1011D0002B295741544348444F4700323031313076
:1011E000334C0020432B2B2076657273696F6E3A67
:1011F00000313834616265665F323032312D313210
:101200002D3235000A4C617A79686F6D652E7275E2
:10121000204C6967687448756220636F6E74726FE2
:101220006C6C65722000204F464600204F4E002017
:1012300042595041535300757074696D6500667270
:10124000656568656170002054696D65723A0020BB
:101250004C6F636B733A002000204C6F636B733AE2
:10126000000A52414D3D0020457870697265640A5C
:1012700000202D746172676574207A6F6E652D0091
:1012800020416C61726D20457870697265640A0056
:1012900020636D643A00204375723A0020536574F0
:1012A0003A00536176656420746F20454550524F73
:1012B0004D00536176696E6720636F6E66696720C3
:1012C000746F20454550524F4D2E2E0020697320DB
:1012D0000044656C6574696E6720636F6E662E20CE
:1012E00052414D207761733A0053746F707065649A
:1012F0000053746F7070696E67206368616E6E650D
:101300006C73202E2E2E004E6F7420756E6C6F63E2
:101310006B656420696E20313073202D20636F6E01
:1013200074696E7565202E2E2E00556E6C6F636B82
:10133000696E6720636F6E666967202E2E2E00200F
:10134000416464723A00646576230020616C6976BA
:101350006500204E6F64653A00312D776972652013
:10136000636F756E743A2000312D77697265207352
:10137000686F72746564005B305D3A2000202D2038
:101380002D202D20EFBBBF003E003E31202D200040
:1013900020002E00696E00735F6F7574006D7968B0
:1013A0006F6D6500202D3E2000456D69743A200068
:1013B000202D3E20004974656D436D643A20002065
:1013C0002D3E20004974656D3A2000005EBCE2614C
:1013D0003FDD83C29C7E20A3FD1F419DC3217FFC76
:1013E000A2401E5F01E3BD3E6082DC237D9FC142BF
:1013F0001CFEA0E1BF5D0380DE3C62BEE0025CDF5C
:1014000081633D7C22C09E1D43A1FF4618FAA4279C
:10141000799BC584DA3866E5BB5907DB856739BA3D
:10142000E406581947A5FB7826C49A653BD987047A
:101430005AB8E6A7F91B45C6987A24F8A6441A9923
:10144000C7257B3A6486D85B05E7B98CD2306EED50
:10145000B3510F4E10F2AC2F7193CD114FADF3700D
:101460002ECC92D38D6F31B2EC0E50AFF1134DCE26
:1014700090722C6D33D18F0C52B0EE326C8ED053F3
:101480000DEFB1F0AE4C1291CF2D73CA947628AB0C
:10149000F517490856B4EA6937D58B5709EBB536C5
:1014A000688AD495CB2977F4AA4816E9B7550B88F2
:1014B000D6346A2B7597C94A14F6A8742AC89615AB
:1014C0004BA9F7B6E80A54D7896B35436F6E6E6542
:1014D000637465642E00436F6E6E2E2061626F72BE
:1014E000746564003E3E2000496E76616C6964203C
:1014F000636F6D6D616E64003E3E3E004E6F204D29
:10150000414320636F6E666967757265643A207344
:101510006574206669726D776172652773204D412D
:10152000430A004E6F2076616C6964204545505235
:101530004F4D20646174612E20496E697469616C3D
:10154000697A696E672E00476F7420495020616484
:1015500064726573733A00276970205B69705B2C55
:10156000646E735B2C67775B2C7375626E65745D5C
:101570005D5D5D27202D207365742073746174692F
:10158000632049500A004661696C656420746F20CD
:10159000636F6E6669677572652045746865726E03
:1015A0006574207573696E6720444843502E205936
:1015B0006F752063616E20736574206970206D61A2
:1015C0006E75616C6C7921000A75736573204448EF
:1015D00043500A00204D41534B3A002047573A00F0
:1015E00020444E533A004C6F616465642066726F0C
:1015F0006D20666C6173682049503A0053746172C3
:1016000074696E67206C616E0041424344454647F1
:1016100048494A4B4C4D4E4F5051525354555657D2
:1016200058595A6162636465666768696A6B6C6D74
:101630006E6F707172737475767778797A30313233
:10164000333435363738392B2F3D004261736963A7
:10165000200061726475696E6F3A004F54412069D1
:101660006E697469616C697A65640A004445464133
:10167000554C542070617373776F726420666F727B
:10168000204F5441204150492E20557365206F74DE
:101690006170776420636F6D6D616E6420746F207C
:1016A0007365740070617373776F72640075707422
:1016B000696D652C66726565686561700024737478
:1016C00061747300313834616265665F3230323183
:1016D0002D31322D3235004C6967687448756220AF
:1016E00000246E616D6500726561647900546F6FEE
:1016F000206D616E79204D51545420636F6E6E657C
:101700006374696F6E206572726F72732E205265FA
:101710007374617274204C414E00207472792061A0
:101720006761696E20696E2035207365636F6E6432
:1017300073006661696C65642C2072633D004177BB
:10174000616974696E6720666F7220726574616981
:101750006E656420746F7069637300636F6E6E658D
:10176000637465642061732000202E2E2E00207586
:101770007365723A003A000A417474656D70746959
:101780006E67204D51545420636F6E6E65637469AB
:101790006F6E20746F200024737461746500646937
:1017A00073636F6E6E6563746564005573696E670D
:1017B000204D5154542070617373776F72642066AA
:1017C000726F6D20636F6E6669670044657669634A
:1017D00065204E616D653A004174206C65617374DB
:1017E00020646576696365206E616D6520616E6455
:1017F0002062726F6B6572204950206D7573742082
:10180000626520636F6E6669677572656400526514
:1018100062696E6420737563636573732E2049502B
:1018200020616464726573733A004572726F723A34
:1018300020726562696E64206661696C0052656E33
:101840006577656420737563636573732E204950F3
:1018500020616464726573733A004572726F723A04
:101860002072656E65776564206661696C000A4E5A
:101870006F206C696E6B00526573746F72696E676E
:1018800020636F6E6669672066726F6D20454550F4
:10189000524F4D00416363657074696E6720636FDA
:1018A0006D6D616E64732E2E2E0A004E6F204D51A9
:1018B000545420636F6E66696775726564004C6F7F
:1018C0006164696E6720636F6E6669672066726F18
:1018D0006D20706F7274616C2064697361626C65F5
:1018E000642E2075736520676574204F4E20746FD9
:1018F00020656E61626C6500436F6E666967206982
:10190000732076616C696400436F6E74696E7565EF
:1019100020776974682070726576696F75736C7969
:10192000206C6F6164656420636F6E666967000098
:10193000002200250028002B002E00310034000278
:10194000010000050108010B0100000A0B02090C4F
:101950000D0E080703040100000000000000000055
:101960000000000000000000000000000000000077
:101970000000000000121110000000000000000034
:101980000000000000000000000000000000000057
:10199000002100240027002A002D00300033000120
:1019A000010000040107010A0101021020200808BB
:1019B00010204010204080020102010804020101B1
:1019C000020408102040808040201008040201809A
:1019D00004020180402010080402010804020101F1
:1019E00002040810204080010204081020408005F5
:1019F000050505070508080808020202020A0A0888
:101A000008040404040101010101010101030303AD
:101A10000303030303040707070C0C0C0C0C0C0C4A
:101A20000C0202020206060606060606060B0B0B51
:101A30000B0B0B0B0B2F64617461002F736B6574C0
:101A40006368004163636573732D436F6E74726FD7
:101A50006C2D416C6C6F772D486561646572733ACB
:101A600020436F6E74656E742D747970652C436FAE
:101A70006E6E656374696F6E2C417574686F726900
:101A80007A6174696F6E2C507261676D6100416399
:101A9000636573732D436F6E74726F6C2D416C6C44
:101AA0006F772D4D6574686F64733A20504F5354AF
:101AB0002C4745542C4F5054494F4E5300416363BB
:101AC0006573732D436F6E74726F6C2D416C6C6F08
:101AD000772D43726564656E7469616C733A207426
:101AE000727565004F5054494F4E530044454C4564
:101AF0005445005055540047455400504F5354002E
:101B0000617574686F72697A6174696F6E3A2000EA
:101B1000417574686F72697A6174696F6E3A2000FA
:101B2000436F6E74656E742D4C656E6774683A20F1
:101B3000006F637465742F73747265616D00696DF5
:101B40006167652F6A70656700696D6167652F67FA
:101B5000696600746578742F68746D6C00617070CC
:101B60006C69636174696F6E2F6A736F6E00746560
:101B700078742F706C61696E00436F6E74656E745B
:101B80002D547970653A2000436F6E6E65637469F9
:101B90006F6E3A20636C6F736500416363657373A6
:101BA0002D436F6E74726F6C2D416C6C6F772D4F7F
:101BB000726967696E3A20687474703A2F2F6C618D
:101BC0007A79686F6D652E727500556E6B6E6F77E2
:101BD0006E004F4B004D6F766564207065726D61CD
:101BE0006E656E746C7900496E7465726E616C20FE
:101BF000536572766572204572726F72005061791A
:101C00006C6F616420546F6F204C61726765004E89
:101C10006F7420666F756E64005757572D41757449
:101C200068656E7469636174653A204261736963C3
:101C3000207265616C6D3D22416363657373207230
:101C40006573747269637465642200556E6175749E
:101C5000686F72697A6564005061796C6F616420A5
:101C600073697A652077726F6E67004261642072D3
:101C700065717565737400485454502F312E3120AE
:101C8000002000202D3E2041543A004368616E2020
:101C9000747970653A004E6F2073746F72656420BA
:101CA00076616C756573202D2064656661756C7452
:101CB0003A20002D3E005075623A2000636D6400AA
:101CC000434F4F4C0048454154004155544F002D5F
:101CD0003E005075623A20007365740064656C00C4
:101CE0002D3E005075623A20002D3E005075623A3C
:101CF0002000556E6B6E6F776E20636D64200A0056
:101D00004F4646004F4E005361766564204554416E
:101D1000473A0053657420455441473A200080AB50
:101D20004F9A11241FBECFEFD1E2DEBFCDBF00E03E
:101D30000CBF15E0A0E0B2E0E4E7FFE701E00BBF75
:101D400002C007900D92A437B107D9F72AE0A4E7A3
:101D5000B5E001C01D92A334B207E1F71EE0C0E96F
:101D6000DEE000E006C021970109802FFE010E94FD
:101D700070BACF38D10780E00807A9F70E94619AAE
:101D80000C94A8BF0C940000FC01818D928D0895E5
:101D9000FC018489958908952AE733E0FC013183A9
:101DA0002083FB014089518962897389FC01428348
:101DB0005383648375830895DC01ED91FC91048C59
:101DC000F58DE02D1994CF93DF931F92CDB7DEB739
:101DD0006983DC01ED91FC910280F381E02D41E00B
:101DE00050E0BE016F5F7F4F19950F90DF91CF914B
:101DF0000895FC019485FB018485981303C081E05C
:101E0000943009F480E0089521E0FC018485843059
:101E100009F420E0822F08950895CF93DF931F9255
:101E2000CDB7DEB76983DC01ED91FC910280F381CF
:101E3000E02D41E050E0BE016F5F7F4F19950F909C
:101E4000DF91CF910895DC01ED91FC91068CF78D27
:101E5000E02D199591E089270895862F089581E056
:101E600086270895DC0180E0615038F0ED91E82785
:101E7000F0E0E553FC4E8491F7CF0895FC01818199
:101E800091E09093B6078093D8071092B70710920D
:101E9000D907089520911B06260F3327331F2132BF
:101EA0003105ECF42091B007FC0190E080E0243093
:101EB00069F082E00895A0911B062191AC01475082
:101EC0005A4FA40FB52FB11D2C930196861798F386
:101ED00080911B06680F60931B0680E0089581E0E7
:101EE000089508950895E091410680914006E8170D
:101EF00030F4F0E0EE5BF94F808190E008958FEFD1
:101F00009FEF089590914106809140062FEF3FEF9B
:101F1000981748F4E92FF0E0EE5BF94F208130E0AC
:101F20009F5F90934106C90108958091400690916A
:101F30004106891B990B0895CF92DF92EF92FF9291
:101F40000F931F93CF93DF937C01CB018A012091E4
:101F5000B607222389F0EB016B01C40ED51ECC1508
:101F6000DD0569F06991D701ED91FC910190F08157
:101F7000E02DC7011995F3CF642F0E944A0FC801C5
:101F8000DF91CF911F910F91FF90EF90DF90CF9055
:101F90000895CF93DF931F92CDB7DEB76983209169
:101FA000B6072223F9F02091D907203258F021E01A
:101FB00030E0FC013383228390E080E00F90DF91DA
:101FC000CF9108958091B707E82FF0E0E854F84FDB
:101FD000998190838F5F8093B7078093D90781E0C1
:101FE00090E0ECCF61E0CE0101960E944A0FF7CF5E
:101FF0008F929F92AF92BF92CF92DF92EF92FF9219
:102000000F931F93CF93DF9300D000D000D01F9287
:102010001F92CDB7DEB77C018E010F5F1F4F6801A5
:102020008AE0882E912CA12CB12CC601801B910B2B
:10203000411551056105710581F0CB01BA01A5017A
:1020400094010E94E5B9942F852F605DF60161939C
:102050006F01A901692F782FE8CFF801E80FF91F68
:10206000D7010150110922912D93E017F107D9F7FB
:10207000E80EF91EF70110822B960FB6F894DEBF1A
:102080000FBECDBFDF91CF911F910F91FF90EF90C9
:10209000DF90CF90BF90AF909F908F900895FC01FC
:1020A000DC018D918111FDCF30E020E050E040E077
:1020B0008AE09191992301F1443051055CF59E32FB
:1020C00071F42F3F310509F02CF5DB01A40FB51F8A
:1020D00012962C934F5F5F4F30E020E0EACF829F53
:1020E000D001839FB00D1124292F990F330B20535A
:1020F00031092A0F3B1FDDCF2F3F310509F054F482
:10210000443051053CF4640F751FFB01228381E0CC
:1021100090E0089590E080E00895CF93DF931F92C0
:102120001F92CDB7DEB78091370A9091380A009799
:1021300011F483E49AE0BE016F5F7F4F681B790B57
:10214000072E000C880B990B0F900F90DF91CF9109
:1021500008959FE9980F963010F4875508959FEBE6
:10216000980F963010F48753089580538A3008F002
:1021700080E00895DC0115968D919C91009739F0CF
:10218000DC01ED91FC910680F781E02D1994089512
:10219000FC01848195810895CF93DF9300D000D016
:1021A0001F921F92CDB7DEB7FC01862F8F70618121
:1021B000607F682B618388E0DE01119601900D92AB
:1021C0008A95E1F729813A814B815C816D817E811D
:1021D0008F81988528960FB6F894DEBF0FBECDBFCD
:1021E000DF91CF910895DC011196EC911197E29562
:1021F000EF70E150EB3008F039C0F0E08827EC5F79
:10220000FE4E8F4F0C9470BA2711271136110F1103
:102210000F1118112F112F112F110F110F111496CB
:102220006D917D918D919C9117970E94A2B8089510
:1022300014966D917D918D919C9117972AE030E0D5
:1022400040E050E00E9407BACA01B901EECF1496EF
:102250006C9170E090E080E00E94A0B80895149620
:102260006D917D918D919C911797089560E070E03C
:10227000CB010895DC011196EC911197E295EF7076
:10228000E150EB3008F037C0F0E08827E55BFE4E08
:102290008F4F0C9470BA5D115D117B115611561160
:1022A0006C116311631163115611561114966D91DF
:1022B0007D918D919C911797089514966C9170E083
:1022C00090E080E0089514966D917D918D919C91A0
:1022D00017970E946DBB089514966D917D918D9115
:1022E0009C9117972AE030E040E050E00E9407BA46
:1022F000CA01B901089560E070E0CB010895FC01C6
:10230000A7812A2F2E7FD1F0818182958F708150F5
:102310008330A0F4A695A150BB0B2BE531E00E94C1
:1023200087BA24E630E040E050E00E9407BADA01C4
:10233000C90187569F4FAF4FBF4F08958FEF9FEF53
:102340000895CF93DF93EC016115710539F48F8106
:1023500081708F8381E0DF91CF9108958981982FDB
:1023600092959F7029F180E09430A8F79B01770F38
:10237000440B550B2959310941095109A4E6B0E034
:102380000E9426BA2BE531E040E050E00E9407BAF7
:1023900037FF02C030E020E02536310514F024E696
:1023A00030E02F5F220F8F818170282B2F83D2CFB7
:1023B0008F7080628983DACFFC019181892F8295A9
:1023C0008F7021F0823029F080E008959F70906234
:1023D00091839B0177FF02C030E020E02E3681E040
:1023E000380714F02DE631E02683878130FB80F931
:1023F000878381E00895DC01ED91FC91309729F00D
:1024000090859F7081E0953009F080E00895DC01AF
:102410001496ED91FC911597309799F090859F70E7
:102420008EEF890F823010F091110BC041875287D7
:10243000638774871496ED91FC918085807F82601C
:1024400080870895DC0119968D919C91009739F051
:10245000DC01ED91FC910280F381E02D1994089547
:10246000DC01ED91FC91008CF18DE02D1994CF935E
:10247000DF93EC01E881F9810484F585E02D19955D
:1024800029893A892F5F3F4F3A8B298BDF91CF9172
:102490000895CF93DF93EC018E8581110DC081E00B
:1024A00090E049895A892C853D854217530708F0E9
:1024B00080E0DF91CF910895E881F9810484F5856A
:1024C000E02DCE0119958F3F910549F780E090E00E
:1024D000F0CFFC01848595856817790708F4CB0156
:1024E000928B818B0895DC011E962C911E972223DE
:1024F00039F0ED91FC910190F081E02D6FEF19948E
:102500000895FC0187859089089581E0089590E001
:1025100080E00895CF92DF92EF92FF920F931F9386
:10252000CF93DF93CDB7DEB7AF970FB6F894DEBF8A
:102530000FBECDBF7C016A010AE713E01A8309834D
:102540001C861B8688EE93E0A0E0B0E08D879E8716
:10255000AF87B88B82E593E09A878987188F0F8BB6
:10256000198E1A8E1B8E1C8E84E089A31BA70AA7C6
:102570001CA61DA61EA61FA68091090890910A08F8
:10258000A0910B08B0910C088EA39FA3A8A7B9A790
:102590008B839C83AD83BE8318861F82AE01465D0C
:1025A0005F4FCE0101960E94137681309105B1F400
:1025B000D701ED91FC910488F589E02D1DA30CA3B2
:1025C0008CA59DA5AEA5BFA58EA39FA3A8A7B9A7BF
:1025D000A601BE016C5D7F4FC7011995AF960FB67E
:1025E000F894DEBF0FBECDBFDF91CF911F910F9149
:1025F000FF90EF90DF90CF900895CF92DF92EF920F
:10260000FF920F931F93CF93DF93CDB7DEB7AF97B2
:102610000FB6F894DEBF0FBECDBF7C016A010AE79A
:1026200013E01A8309831C861B8688EE93E0A0E0E2
:10263000B0E08D879E87AF87B88B82E593E09A875D
:102640008987188F0F8B198E1A8E1B8E1C8E84E033
:1026500089A31BA70AA71CA61DA61EA61FA68091BC
:10266000090890910A08A0910B08B0910C088EA35C
:102670009FA3A8A7B9A78B839C83AD83BE8318862D
:102680001F82AE01465D5F4FCE0101960E94137618
:1026900081309105B1F4D701ED91FC910684F78565
:1026A000E02D1DA30CA38CA59DA5AEA5BFA58EA353
:1026B0009FA3A8A7B9A7A601BE016C5D7F4FC70164
:1026C0001995AF960FB6F894DEBF0FBECDBFDF9160
:1026D000CF911F910F91FF90EF90DF90CF900895D1
:1026E000CF93DF93EC01888D843061F00E94D97B19
:1026F000E88DF0E0EE0FFF1FE559F94F11821082CF
:1027000084E0888FDF91CF910895EF92FF921F931D
:10271000CF93DF93FC01208D243039F080E0DF91EE
:10272000CF911F91FF90EF9008957B01EC0110E095
:10273000812F0E949C7C81110FC0188F888D84305E
:1027400069F3FD86EC861A8E198E20E0A70162E0FF
:102750000E94ED7B81E0E3CF883179F31F5F143075
:1027600039F7ECCF0F931F93CF93DF931F92CDB721
:10277000DEB78C01DC01ED91FC910084F185E02D48
:102780001995892B79F0BE016F5F7F4FF801848521
:102790000E949E74898190E00F90DF91CF911F91EC
:1027A0000F9108958FEF9FEFF7CFFC0184850C9474
:1027B0000175CF93DF931F92CDB7DEB741E050E0B4
:1027C000BE016F5F7F4FFC0184850E940175181662
:1027D000190634F4898190E00F90DF91CF9108952C
:1027E0008FEF9FEFF9CFFC018485843011F00C94BA
:1027F000DF7490E080E00895CF93C62F0E943E0FD3
:1028000061EE8FE098E00E94C90F6C2F8FE098E096
:102810000E94C90FCF910C94FB8A1092B00781E0FF
:102820008093AF0710928A0761E084E10E945F897C
:1028300061E085E10E945F89E9EBF0E080818E7FB5
:10284000808380818D7F808388E48093B80085E4D5
:102850008093BC0008956BE47FE0811102C06DE4B9
:102860007FE08BE998E00C94826F64EB7CE08BE96D
:1028700098E00E94826FF0E0E0E0199584EF91E02B
:10288000089561E477E0811102C06CE377E08CE4A5
:1028900099E00C94826FEF92FF920F931F93CF9366
:1028A000DF93EC01A881B981109761F18C918823A5
:1028B00049F108811981F8018081882351F08D3216
:1028C00041F080538A3028F00F5F1F4F198308832F
:1028D000F0CFC8010E94DAB07C016CE270E0C80160
:1028E0000E94C6BE009751F419821882C701DF9179
:1028F000CF911F910F91FF90EF90089501969983CA
:102900008883F4CFF12CE12CF1CF4F925F926F923C
:102910007F92AF92BF92DF92EF92FF920F931F933D
:10292000CF93DF9300D000D0CDB7DEB77C01D62E99
:102930008091F505882309F4BEC0D70114969C91B7
:1029400080910402891708F4B6C08091F305909134
:10295000F405BAE06B13F0C08D559A4FFC0110825C
:10296000D70118960D911C910115110509F49FC00E
:10297000F801618572856115710591F44580568075
:10298000678070848091FD079091FE07A091FF07FA
:10299000B0910008481659066A067B0609F487C0FC
:1029A000D8011B964D915C911C974115510509F476
:1029B0007EC0F701248153968C91539790E0322F7B
:1029C000377002C0959587953A95E2F780FF6FC002
:1029D000A22EB12CC501887F9370892B39F45196B2
:1029E0008D919C91887F9370A82AB92AD8018D91E6
:1029F0009C91DC01ED91FC916115710509F486C093
:102A00000688F789E02D1995019709F050C06CE30D
:102A1000F801808191810E948F6EA50170E060E0D5
:102A20002AE0D8018D919C910E943F6EF80122818D
:102A3000808191816AE873E1222311F068E873E1F3
:102A40000E94826FD8011D966D917C911E978D9189
:102A50009C910E941C6F60E2F801808191810E942C
:102A60008F6ED8011F966D917C9150978D919C919E
:102A70000E941C6FF8012281808191816DE773E1D2
:102A8000222311F067E773E10E94826F63EA75E029
:102A9000D8018D919C910E941C6FF80180819181D9
:102AA000DC01ED91FC91008CF18DE02D19951092D7
:102AB000F4051092F305D70115968D919C91169708
:102AC000009709F44DC014963C91209105022317FC
:102AD00008F446C0DC01ED91FC910190F081E02DFD
:102AE0006D2D199526960FB6F894DEBF0FBECDBF9B
:102AF000DF91CF911F910F91FF90EF90DF90BF90EA
:102B0000AF907F906F905F904F9008950488F58903
:102B1000E02D2AE733E03A832983D80115964D90BA
:102B20005D906D907C9018974B825C826D827E8266
:102B3000BE016F5F7F4F67CF8F3491050CF0BBCF25
:102B4000BDE06B1709F4B7CF9C012F5F3F4F309367
:102B5000F4052093F3058D559A4FFC016083ABCFAC
:102B600081E090E0BFCFCF93DF9300D000D01F92E1
:102B70001F92CDB7DEB7E6E8F8E0128A118A80E04E
:102B800090E19587848784E890E0948B838B81E043
:102B9000868780E090E2908B87871C821B828BE582
:102BA00092E09A838983FE83ED838FEF9FEF98876E
:102BB0008F8362EB72E18BE998E00E94826F6091F3
:102BC0008E0570918F05CE0101960E94197186E8DD
:102BD00098E00E94301262EA72E18BE998E00E946C
:102BE000826F8BE998E00E948B6E0E94BA922896C1
:102BF0000FB6F894DEBF0FBECDBFDF91CF91089521
:102C0000FC0186819781009799F0FC0120852F7047
:102C1000223029F461857285838594850895253055
:102C200039F460E00E948884009711F0FC01F2CF33
:102C300060E070E0CB010895CF93DF93EB0163E098
:102C4000FC01808191810E948884009761F0FC01E1
:102C500020852F70223039F4818592858C239D2325
:102C6000DF91CF91089590E080E0FACF63E0FC011E
:102C7000808191810E948884009719F0FC018185F0
:102C800008958FEF0895EF92FF921F93CF93DF93F4
:102C9000192F7B01C82FD92FD7FF03C0D195C1951C
:102CA000D10961E08C2F0E948D8982E0E816F10441
:102CB00099F460E08C2F0E945F896FE272E18CE4EE
:102CC00099E00E94826F8CE499E0DF91CF911F918F
:102CD000FF90EF900C948B6E612FEF2851F460956C
:102CE000661F6627661F8C2F0E945F896BE272E168
:102CF000E6CF661F6627661F8C2F0E945F8966E2FB
:102D000072E1DDCF892B71F0FB01828193810E94FA
:102D1000508164EC7EE08BE998E00E94826F88EC41
:102D200090E0089590E080E0F2CF892B71F0FB01F4
:102D3000828193810E94ED806DEA7EE08BE998E0CC
:102D40000E94826F88EC90E0089590E080E0F2CFDE
:102D50008091780890917908892B51F00E94E49332
:102D6000882331F06DE97EE08BE998E00E94826F64
:102D7000109298081092970880E090E19093930841
:102D80008093920884E890E090939A088093990841
:102D900081E08093940880E090E29093960880937D
:102DA000950886E898E00E94731286E898E00E94F1
:102DB000301288EC90E00895EF92FF920F931F93EA
:102DC000CF93DF93CDB7DEB72C970FB6F894DEBF65
:102DD0000FBECDBF8C017B018AE793E09A83898384
:102DE0001B821C821D821E8298878F8319861A86F9
:102DF0001B861C8605301105ECF0BE01695F7F4F14
:102E0000F701808591850E944F10892B99F0CE01A2
:102E100007960E941E82BE01695F7F4FF70186817F
:102E200097810E944F10892B61F0CE0107960E9476
:102E3000F4820EC0CE0101960E941E82043011055C
:102E400054F7CE0101960E94F482033011058CF1F3
:102E5000BE01695F7F4FF701848195810E944F1009
:102E6000892B39F1CE0107960E948982BE01695FE4
:102E70007F4FF701828193810E944F10892B01F1CE
:102E8000CE0107960E94B38166E87EE08BE998E068
:102E90000E94826F88EC90E02C960FB6F894DEBF0B
:102EA0000FBECDBFDF91CF911F910F91FF90EF909B
:102EB0000895CE0101960E94898202301105B4F670
:102EC000CE0101960E94B38101301105E9F6CE01D1
:102ED00001960E94B3816DE87EE08BE998E00E9444
:102EE000826FD2CFCF93C1E068EE73E080E090E0D4
:102EF0000E94FE8A6C2F8BE998E00E947984CF5F54
:102F0000C43191F784EF91E0CF910895CF93C62F0C
:102F100063E0FC01808191810E948884FC01892BFF
:102F200019F19085892F8D70F9F4907F92609087C8
:102F300081859285A385B4858827AA27BB278C2BFA
:102F400081879287A387B48766EA75E08CE499E06D
:102F50000E94826F6C2F8CE499E00E9479848CE44B
:102F600099E0CF910C948B6ECF9108950F931F939E
:102F7000CF93DF938C01EB010297C4F08A819B8190
:102F80000E94DAB08093050299270E9429840230BA
:102F9000110549F08C819D810E94DAB08093040272
:102FA00099270E943384C8ECD0E002C0C0E9D1E088
:102FB00062E77EE08BE998E00E94826F60910502F3
:102FC0008BE998E00E9479846DE57EE08BE998E0DA
:102FD0000E94826F609104028BE998E00E947984DC
:102FE0008BE998E00E948B6ECE01DF91CF911F910B
:102FF0000F910895CF93DF93EB010297A4F168E45A
:103000007FE08A819B810E9428B1892B29F40E944C
:103010005F836F770E94B98364E47FE08A819B813C
:103020000E9428B1892B29F40E945F8360680E9466
:10303000B9836CE47EE08BE998E00E94826F0E9485
:103040005F836095661F6627661F70E08BE998E0D6
:103050000E9480848BE998E00E948B6E88EC90E05F
:10306000DF91CF9108950E94B315F8CF0F931F936E
:10307000CF93DF93EC01888199810E94EF84082F20
:1030800010E00430110584F40E941D73009721F0B4
:10309000FC012085207F2087BC01888199810E94C6
:1030A0005A840F5F1F4FEDCF0881198160E0C8017E
:1030B0000E948884FC018185888761E0C8010E94A4
:1030C00088849B838A8362E0C8010E9488849D83F0
:1030D0008C8364E0C8010E9488849F838E83DF9183
:1030E000CF911F910F910895CF93DF93EC017983D6
:1030F00068831A8619861B861E8A1D8A0E94FB1108
:10310000882329F0CE01DF91CF910C943618DF91FE
:10311000CF910895CF92DF92EF92FF920F931F937A
:10312000CF93DF93EC016A017B018E819F81892B14
:10313000D9F4888199810E94EF84082F10E005302E
:10314000110594F40E941D73009721F0FC01208565
:10315000207F20879F838E83BC01888199810E9474
:103160005A840F5F1F4FEBCFEE81FF81309749F1FB
:103170008085982F9F7019F5807F82608087EE810F
:10318000FF81C186D286E386F4866EEA75E08CE420
:1031900099E00E94826F2AE030E0B701A6018CE43A
:1031A00099E00E94966E8CE499E0DF91CF911F9197
:1031B0000F91FF90EF90DF90CF900C948B6E923038
:1031C000F1F2DF91CF911F910F91FF90EF90DF907F
:1031D000CF900895CF93DF93009709F484C0FC014A
:1031E0002081222309F47FC0EC0168ED7CE10E947C
:1031F0003BB1892B09F456C06CEB7CE1CE010E94F7
:103200003BB1892B09F451C061EA75E0CE010E94FF
:103210003BB1892B09F44CC06DE975E0CE010E94E9
:103220003BB1892B09F447C069E975E0CE010E94E2
:103230003BB1892B09F442C065E975E0CE010E94DB
:103240003BB1892BF1F161E975E0CE010E943BB100
:10325000892BD1F16DE875E0CE010E943BB1892B3D
:10326000B1F168E875E0CE010E943BB1892B91F184
:1032700064E875E0CE010E943BB1892B71F16CEDE1
:103280007CE1CE010E943BB1892B51F160E875E0F1
:10329000CE010E943BB1892B31F58EE090E0DF91A9
:1032A000CF91089582E090E0FACF81E090E0F7CFEF
:1032B00088E090E0F4CF85E090E0F1CF86E090E008
:1032C000EECF87E090E0EBCF89E090E0E8CF8AE0B6
:1032D00090E0E5CF8BE090E0E2CF8CE090E0DFCFB4
:1032E0008DE090E0DCCF90E080E0D9CF0F931F938A
:1032F000CF93DF938C01FC01C081D1816FE270E03C
:10330000CE010E940EBF0097D9F0FC011192CF01AF
:103310000E94EA18EC016AEB75E08CE499E00E94E7
:10332000826FBE018CE499E00E9480848CE499E075
:103330000E948B6ECE01DF91CF911F910F91089566
:10334000CE010E94EA18EC01892BA1F3F801118249
:103350001082F0CF8F929F92AF92BF92CF92DF9266
:10336000EF92FF920F931F93CF93DF93CDB7DEB70A
:1033700067970FB6F894DEBF0FBECDBF8C017B01FF
:103380004C018BE0880E911C9F8A8E8AF801128670
:1033900011861386168A158A672B09F463C0A090DC
:1033A0007506B0907606A114B10409F45BC06FE213
:1033B00070E0C7010E94C6BE6C01892B09F44AC0A7
:1033C000F701DE01119690E080E0BD0121912223FA
:1033D00041F02F3231F08431910519F02D9301968F
:1033E000F5CF860F971FFC011082C5010E943F8414
:1033F000F80191838083B6016F5F7F4F4AE050E010
:10340000C4010E94FFBECE0146960E947619F801C3
:10341000968B858B8E899F89892B09F41386C80129
:103420000E94FB11882319F0C8010E943618679684
:103430000FB6F894DEBF0FBECDBFDF91CF911F91C5
:103440000F91FF90EF90DF90CF90BF90AF909F9043
:103450008F900895B701C5010E943F84F8019183C0
:103460008083DDCFF80111821082D9CFEF92FF92D5
:103470000F931F93CF93DF93EC018B011D821C826E
:103480001A821B82E880F980E114F10409F472C009
:1034900080918E0590918F05892B09F46BC0672B65
:1034A00009F48701F80180858F708630A9F46CE7F4
:1034B00073E0C8010E943F84009719F0FC018185E8
:1034C0008A8366E675E0C8010E943F84009709F48C
:1034D00058C0FC0181858B836EE773E0C7010E94B1
:1034E0003F84009709F043C068E375E08CE499E0FD
:1034F0000E94826F6B818CE499E00E94798466E37C
:1035000075E08CE499E00E94826F6A818CE499E016
:103510000E9479848CE499E00E948B6EE880F980A7
:103520000E941D738C010097D1F0FC018085807F83
:10353000826080871186128613861486808191812D
:10354000009711F00E94AAAE8EE793E00E9466BE3B
:10355000F80191838083B801C7010E945A846EE705
:1035600073E0888199810E943F84009719F0099641
:103570009D838C83DF91CF911F910F91FF90EF90EE
:103580000895F801808191810E94DAB0A4CF1F9341
:10359000CF93DF93FC01162FC389D4898189928947
:1035A0009C012F5F3F4F328B218BC80FD91FCE015B
:1035B0000E94BFB9181721F0612FCE010E94C7B930
:1035C00081E090E0DF91CF911F910895FC01818906
:1035D0009289248535858217930740F4238934899D
:1035E000820F931F0E94BFB990E008958FEF9FEF65
:1035F00008959B0190E00496982F8827642F820FEE
:10360000931F0C948374CF93DF93C82FD0E024963C
:10361000DC2FCC27C60FD71F0E9408748FE00E94B2
:103620001D748D2F0E941D748C2F0E941D7480E0CC
:103630000E941D74C82F0E9406748C2FDF91CF91B9
:103640000895CF93DF93C82FD62F472F60E170E006
:103650000E94F91A4D2F61E170E08C2FDF91CF911C
:103660000C94F91A90E0982F882744E050E0845F8A
:103670009B4F0C945474FC018485843011F00C949D
:103680009C7C80E00895CF93DF93FC012485243057
:10369000D9F0EC010E943B1B843189F0882379F03A
:1036A000883169F021E08C3159F4E881F981008496
:1036B000F185E02DCE01199521E0892B09F420E058
:1036C000822FDF91CF91089580E0FBCF44E050E05E
:1036D000BC018FE090E00C94547444E050E0BC01D5
:1036E00085E090E00C94547444E050E0BC0181E02B
:1036F00090E00C94547408958F929F92AF92BF9271
:10370000CF92DF92EF92FF920F931F93CF93DF93AD
:10371000CDB7DEB72D970FB6F894DEBF0FBECDBF85
:103720007C0110E000E038EE832E33E0932EA12CD4
:10373000B12C42E0C42E43E0D42E1C821B828D8229
:103740009E82AF82B886DA82C9820D87CE01019649
:103750000E943B1B811135C0F7014481558120E057
:1037600061E0802F0E94ED7B80E590E00E94B387AE
:1037700063E070E0802F0E94031B833129F462E034
:1037800070E0802F0E94B687F70184819581000F39
:10379000111FF801E559F94F918380832D960FB6DB
:1037A000F894DEBF0FBECDBFDF91CF911F910F9177
:1037B000FF90EF90DF90CF90BF90AF909F908F9051
:1037C00008950F5F1F4F0430110509F0B6CFE6CF03
:1037D000CF92DF92EF92FF921F93CF93DF93FC0182
:1037E0001485143089F1EC0180E590E00E94B387E4
:1037F00068E070E0812F0E94B6870E94438D6B01C4
:103800007C01CE010E943B1B8823A1F062E370E0A3
:1038100080E090E00E94FE8A0E94438D6C197D0931
:103820008E099F09683E73408105910550F38C8590
:103830000E94D97BEC85F0E0EE0FFF1FE559F94FB0
:103840001182108284E08C87DF91CF911F91FF90CD
:10385000EF90DF90CF9008954F925F926F927F929A
:103860008F929F92AF92BF92CF92DF92EF92FF9290
:103870001F93CF93DF93CDB7DEB72D970FB6F89494
:10388000DEBF0FBECDBF7C019BE6A92E96E0B92E10
:1038900010E0D12CC12C28EE422E23E0522E612CB8
:1038A000712C32E0832E33E0932E1C821B824D82DA
:1038B0005E826F8278869A8289821D87D5012D91DA
:1038C0003D915D01F7018481958128173907B1F495
:1038D000CE0101960E943B1B843199F1CE010196E5
:1038E0000E943B1B8C3151F4CE0101960E94F313D0
:1038F000892B21F4CE0101960E94E81B1F5F143032
:10390000A1F6CD2841F4D701ED91FC910084F18519
:10391000E02DC70119952D960FB6F894DEBF0FBEA6
:10392000CDBFDF91CF911F91FF90EF90DF90CF90AF
:10393000BF90AF909F908F907F906F905F904F90CF
:103940000895CC24C394D12CD9CF8F929F92AF925B
:10395000BF92CF92DF92EF92FF920F931F93CF937C
:103960006C015B017A01FC01C485C430A1F481E0E3
:1039700090E0F60193838283F12CE12CC701CF9173
:103980001F910F91FF90EF90DF90CF90BF90AF907D
:103990009F908F9008958A014130584010F000E0C8
:1039A00018E080E590E00E94B3878C2F0E94CA88BF
:1039B0004C0163E070E08C2F0E94031B873111F0F3
:1039C0008C3129F58016910660F380E590E00E9425
:1039D000B3879801A50170E060E08C2F0E946A888F
:1039E00060E270E08C2F0E94B68762E070E08C2F5E
:1039F0000E94031B84FD13C063E070E08C2F0E94C3
:103A0000031B811107C08C2F0E94D97BB0CF10E01F
:103A100000E0DBCF80E590E00E94B387E6CF40E195
:103A200062E070E08C2F0E94F91A012B09F0A6CFFA
:103A30009ECF3F924F925F926F927F928F929F9212
:103A4000AF92BF92CF92DF92EF92FF920F931F93AC
:103A5000CF93DF93CDB7DEB72D970FB6F894DEBFC7
:103A60000FBECDBF6C015B014A010E942C1C8BE68E
:103A7000E82E86E0F82E312C10E000E098EE492E7A
:103A800093E0592E612C712C1C821B824D825E8228
:103A90006F82788682E093E09A8389833D86F7017E
:103AA000219131917F01F601848195812817390791
:103AB00071F4CE0101960E943B1B873141F4A401B1
:103AC000B501CE0101960E94A51C080F191F339461
:103AD000F4E03F12D9CFC8012D960FB6F894DEBF9F
:103AE0000FBECDBFDF91CF911F910F91FF90EF904F
:103AF000DF90CF90BF90AF909F908F907F906F900E
:103B00005F904F903F900895CF93DF9391E0909313
:103B1000F8058823B9F0C091B800D091BA0080911F
:103B2000BC008A7B8093BC0060E084E10E945F89D6
:103B300060E085E10E945F890E940D14D093BA0075
:103B4000C093B800DF91CF910895CF92DF92EF92AA
:103B5000FF920F931F93CF93FC01C1810E94E689CE
:103B60006B017C018091B007811164C081E080937A
:103B7000B0078093AF079FEF9093AE071092AD0709
:103B80001092AC0780938B0780918B07CC0FC82BCA
:103B9000C0938B0780918A07813009F081C0109211
:103BA0008A070E94E6896B017C0180918B078093D4
:103BB000BB008091B2079091B307A091B407B09178
:103BC000B507892B8A2B8B2BA1F00E94E6890091E7
:103BD000B2071091B3072091B4073091B5076C1963
:103BE0007D098E099F09061717072807390708F46A
:103BF00042C08091BC0083FDD8CF85EC8093BC008F
:103C00000E94E6896B017C018091B007813009F444
:103C100049C08091AD07811167C08091AD07ECE884
:103C2000F7E0A2E4B6E090E0981751F121912D93CE
:103C30009F5FFACF8091B2079091B307A091B4072C
:103C4000B091B507892B8A2B8B2B09F48BCF0E945F
:103C5000E6890091B2071091B3072091B407309123
:103C6000B5076C197D098E099F09061717072807E4
:103C7000390708F077CF8091B1070E94841D80E05A
:103C800010924106809340068FE098E00E94820FD8
:103C9000CF911F910F91FF90EF90DF90CF900895FB
:103CA00085EEACCF8091B2079091B307A091B40795
:103CB000B091B507892B8A2B8B2B09F4A5CF0E94D5
:103CC000E6890091B2071091B3072091B4073091B3
:103CD000B5076C197D098E099F0906171707280774
:103CE000390708F091CFC7CF81E099CFAF92BF924B
:103CF000CF92DF92EF92FF921F93CF93DF93EC016D
:103D00000E94438D6B017C0128EEC20E23E0D21E7F
:103D1000E11CF11C10E08BE4A82EB12C0E94438D15
:103D20006C157D058E059F0598F460EFCE010E940D
:103D3000FC13CE010E94A51D182F80FF0BC0ED853E
:103D4000FE85309709F01995C5010197F1F7E6CF87
:103D500081E08A83812FDF91CF911F91FF90EF90B7
:103D6000DF90CF90BF90AF9008951F93CF93DF93D4
:103D7000EC01162F0E94761ECE010E943E0F62EDCE
:103D80008FE098E00E94C90F612F70E060957095F8
:103D900084E0660F771F8A95E1F7612B8FE098E04A
:103DA0000E94C90F0E94FB8ACE010E94A51D8117A7
:103DB00011F084E08A83DF91CF911F910895CF9312
:103DC000DF93EC0163EC0E94FC13CE01DF91CF91F5
:103DD0000C94A51D0F931F93CF93DF93EC010E94CA
:103DE000761E80FD36C0CE010E94DF1E60E0CE014F
:103DF0000E94B51ECE010E94761ECE010E943E0F8B
:103E000064EB8FE098E00E94C90F0E94FB8ACE010C
:103E10000E94761E082F10E082FF16C082E08A837F
:103E20008881882341F0CE010E94DF1E682F6160E7
:103E3000CE010E94B51E15950795802F8170DF91E8
:103E4000CF911F910F9108958A81823049F71A828C
:103E5000E7CF80E0F4CFCF93DF93EC010E94DF1E29
:103E6000682F6460CE01DF91CF910C94B51E0F9343
:103E70001F93CF93DF93EC01162F042F0E94761E21
:103E8000002319F0CE010E942B1FCE010E943E0F8D
:103E900065EA8FE098E00E94C90F612F8FE098E0FB
:103EA0000E94C90FDF91CF911F910F910C94FB8A53
:103EB0006F927F928F929F92AF92BF92CF92DF923A
:103EC000EF92FF920F931F93CF93DF93FC01248512
:103ED00021118CC0872E762EEC010E94EA1E8823C9
:103EE00009F486C0CE010E94761E40E060EFCE014C
:103EF0000E94371F10E000E066246A94AA24A3946D
:103F0000B12CE02EE694E694E694F12C802F877095
:103F1000650101C0CC0C8A95EAF78B85082E000C50
:103F2000990B0817190734F5FE01EE0DFF1D93805C
:103F30009C20CE010E94761ECE010E943E0F68E7B3
:103F40008FE098E00E94C90F992011F080E8982E28
:103F5000692D8FE098E00E94C90F0E94FB8ACE0174
:103F60000E94761E982F907485FF0BC0992369F0EC
:103F70008EEF2AC09924939408171907D1F2912C37
:103F8000D8CF911102C087FF602EFE01EE0DFF1DFC
:103F9000938187FF28C0C92AC3820F5F1F4F003457
:103FA000110509F0AECF6B86FFEF6F1202C081E002
:103FB0008C872396E72DF82DCF0108962991219320
:103FC000E817F907D9F781E0DF91CF911F910F91A1
:103FD000FF90EF90DF90CF90BF90AF909F908F9029
:103FE0007F906F900895C094C922D6CF80E0ECCF27
:103FF0008FEFEACFEF92FF920F931F93CF93DF9350
:104000008C017B0140E065E50E94371FE70188E0F5
:10401000E80EF11C699140E0C8010E94371FCE15DF
:10402000DF05C1F7DF91CF911F910F91FF90EF90C6
:104030000895CF92DF92EF92FF920F931F93CF9349
:10404000DF938C01EB017A01FC01858196810E944E
:10405000EA1E8823C1F1BE01F801858196810E9484
:10406000FA1F40E06EEBF801858196810E94371FB0
:10407000E7016701F9E0CF0ED11CF801E580F68079
:10408000C7010E94761EC7010E943E0F66E98FE0BD
:1040900098E00E94C90F0E94FB8AC7010E94761E09
:1040A00061EEC7010E94FC13C7010E94A51D899300
:1040B000CC16DD0611F7F801858196810E94EA1E73
:1040C00091E0813009F090E0892FDF91CF911F912D
:1040D0000F91FF90EF90DF90CF900895CF93DF93F3
:1040E000EA010E941920982F882341F068E0CE0150
:1040F0000E94320F91E02885281390E0892FDF91EC
:10410000CF910895CF93DF9300D000D000D0CDB7EA
:10411000DEB7AE014F5F5F4F0E946E20882331F003
:104120008D818F33A9F020F48F31A1F080E007C09A
:104130008F3521F08F37D1F78CE001C08BE02996C5
:104140000FB6F894DEBF0FBECDBFDF91CF910895BB
:104150008AE0F5CF89E0F3CF85ED8093BC008091B4
:10416000B2079091B307A091B407B091B507079635
:10417000A11DB11D23E0B695A795979587952A9522
:10418000D1F72091BC0024FD03C01092B007089520
:104190004091B2075091B3076091B4077091B50791
:1041A000452B462B472B69F30097A105B10541F03C
:1041B00025E32A95F1F700000197A109B109E1CFA4
:1041C0008091B1070C94841D1F920F920FB60F922D
:1041D00011240BB60F922F933F934F935F936F93DE
:1041E0007F938F939F93AF93BF93EF93FF938091B0
:1041F000B900887F803609F44DC008F040C088328D
:1042000009F4A9C028F5803109F49DC0C8F48823B9
:1042100009F4FBC0883009F496C0FF91EF91BF917B
:10422000AF919F918F917F916F915F914F913F914E
:104230002F910F900BBE0F900FBE0F901F901895EF
:10424000883109F488C0803241F78093AE0714C0EA
:10425000803409F49DC040F48033B9F38833E9F623
:104260008093AE0785ECB0C0803509F485C08835F1
:1042700009F496C0883489F60E94AC20CECF8839E4
:1042800009F48CC038F5883729F050F4883611F0DD
:10429000803719F683E08093B00710923F0657C02D
:1042A000883809F47BC0803919F0803809F0B5CF1F
:1042B00080913F06803208F071C0E0913F0681E0B6
:1042C0008E0F80933F068091BB00F0E0E15EF94FD6
:1042D00080833DC0803B39F0E0F4803A09F479C036
:1042E000883A09F09ACF84E08093B00710921C06B8
:1042F00010921B06E0911906F0911A06199580910B
:104300001B0681110FC081E080931B061092F905F6
:1043100009C0803C09F4A6CF883C09F4A3CF883BB0
:1043200009F07BCFE0911C0681E08E0F80931C0684
:10433000F0E0E750FA4F80818093BB0090911C061B
:1043400080911B0629C080918B078093BB0085EC70
:104350008093BC0062CF9091AD078091AC07981715
:1043600058F5E091AD0781E08E0F8093AD07F0E046
:10437000E457F84F8081E9CFE091AD0781E08E0FDF
:104380008093AD078091BB00F0E0E457F84F808345
:104390009091AD078091AC079817C8F285E8D8CF07
:1043A000E091AD0781E08E0F8093AD078091BB0057
:1043B000F0E0E457F84F80838091AF0781115CCF24
:1043C00081E080938A0784EA8093BC001092B00752
:1043D00024CF85EC8093BC001092B00780913F06FB
:1043E000803230F4E0913F06F0E0E15EF94F108258
:1043F00060913F0670E0E0911D06F0911E068FE18E
:1044000096E0199510923F0608CF1092AE0734CF70
:104410004F925F926F927F92AF92BF92CF92DF9254
:10442000EF92FF920F931F93CF93DF9300D01F92D1
:10443000CDB7DEB72B013C0129833A834B835C83E4
:10444000A60195016E0D7F1D801F911F0E94E5B989
:1044500029813A814B815C81621773078407950734
:1044600008F52415350546055705A8F421E0822FE7
:104470000F900F900F900F90DF91CF911F910F91A0
:10448000FF90EF90DF90CF90BF90AF907F906F90B4
:104490005F904F90089521E046165706680679060A
:1044A00030F30FC0461657066806790650F421E02F
:1044B00089819A81AB81BC8184159505A605B705D4
:1044C000B0F220E0D4CF8F929F92AF92BF92CF9262
:1044D000DF92EF92FF920F931F93CF93DF937C01B4
:1044E0004A015901C091F605D091F705062F660FD4
:1044F000110B209709F45CC088858F70863009F015
:1045000055C061E873E0CE010E943F846C0182E0F7
:104510008816910449F066E873E0E3E08E16910492
:1045200029F0D0E0C0E006C06AE873E0CE010E9446
:104530003F84EC01C114D104D9F1F60180858F705C
:104540008430B1F561857285A801C7010E94FFBE64
:10455000A8016FE873E0C7010E94E1BE209779F1DE
:1045600088858F70843059F569857A85A801C701DF
:104570000E94E1BEA8016FE873E0C7010E94E1BE9E
:10458000A114B10429F0A801B501C7010E94E1BE40
:10459000C701DF91CF911F910F91FF90EF90DF90B6
:1045A000CF90BF90AF909F908F900895D0E0C0E0E3
:1045B000A8016DE973E1C7010E9472B1C9CFF2E0B1
:1045C0008F16910481F083E08816910429F06091A0
:1045D000640670916506CACFA80167E973E1C70157
:1045E0000E9454B1C7CFA80164E973E1F8CFCF921C
:1045F000DF92EF92FF920F931F93CF93DF93CDB78C
:10460000DEB7C154D1090FB6F894DEBF0FBECDBFDF
:104610006C01AB0130E020E060E4CE0101967C014A
:104620000E946322F70101900020E9F731978F0182
:104630000E191F09A801B701C6010E94F1BE892BFE
:1046400011F010E000E0C801CF5BDF4F0FB6F89427
:10465000DEBF0FBECDBFDF91CF911F910F91FF90B5
:10466000EF90DF90CF9008954F925F926F927F927C
:104670008F929F92AF92BF92CF92DF92EF92FF9272
:104680000F931F93CF93DF93CDB7DEB761970FB62C
:10469000F894DEBF0FBECDBF0E94438D9B01AC01DD
:1046A00060919F057091A0058091A1059091A20550
:1046B000AA24AA94BA2C650118E8E12E13E1F12E80
:1046C00000E010E00E940822882319F1E0906206C1
:1046D000F0906306D70112968C91823089F568E6D6
:1046E00073E18CE499E00E94826F8CE499E00E946F
:1046F0008B6E80916206909163060E94EA1E0E9472
:10470000438D60939F057093A0058093A1059093BE
:10471000A20561960FB6F894DEBF0FBECDBFDF9144
:10472000CF911F910F91FF90EF90DF90CF90BF90AE
:10473000AF909F908F907F906F905F904F90089573
:1047400080919D0590919E05892B09F0DDC083E144
:1047500090E00E940EAE8C018BED94E6F801928BF6
:10476000818BF682E5821482108289E0818381E068
:104770008283838310939E0500939D050E94438D41
:104780006B017C01F0E1CF0EF7E2DF1EE11CF11CB2
:10479000D8011596ED91FC9116978FEF83871486BB
:1047A0001382148215821682178210861186128651
:1047B00014961C9299249394BE01665F7F4FF80172
:1047C000858196810E94581F18160CF071C00E94B6
:1047D000438D6C157D058E059F0508F069C067E067
:1047E000CE010A960E94320F99898913E5CFD8012C
:1047F0008C91811138C015968D919C910E94EA1E72
:10480000BE01665F7F4FF801858196810E94FA1F85
:1048100040E064EBD80115968D919C910E94371F62
:10482000F801A580B680C5010E94761EC5010E94D0
:104830003E0F67E88FE098E00E94C90F60E88FE0C4
:1048400098E00E94C90F0E94FB8AC5010E94761E53
:10485000B82ED80115968D919C910E94EA1EB5FC48
:1048600002C0F8019082AE014F5F5F4FBE01665FEC
:104870007F4FC8010E941920D8011196BC908A85EB
:10488000803109F48DC2BE01665F7F4FC8010E946E
:1048900082208B1558F5F8018181D80111968C93EF
:1048A000119714968C9114978F5F14968C9384CFE4
:1048B00010E000E080919D0590919E0520919B0560
:1048C00030919C0502171307ECF4980143E0220F86
:1048D000331F4A95E1F76091990570919A05620F2F
:1048E000731F0E94318B0F5F1F4FE4CF8A85803189
:1048F00011F48CE0D2CFBE01665F7F4FC8010E94E9
:104900008220CBCFFC01128280919705909198056F
:1049100020919B0530919C05821793070CF4D6C01B
:104920000E94438D2B013C01E0916206F0916306E9
:10493000309759F08FEF8387148613821482158283
:104940001682178210861186128640919B0550911F
:104950009C05E0919305F091940590E080E0841728
:1049600095070CF48FC088248394912C8091620663
:1049700090916306009709F48EC020919B053091B9
:104980009C05A3E0220F331FAA95E1F760919905DA
:1049900070919A05620F731F0E94581F18160CF031
:1049A0007AC080919B0590919C0541970CF073C053
:1049B0000E94438D9B01AC01AA24AA94BA2C6501E4
:1049C00018E8E12E13E1F12E00E010E0C301B2017E
:1049D0000E94082281115FC0C0909905D0909A056D
:1049E000A0909B05B0909C05850173E0000F111FFE
:1049F0007A95E1F70C0D1D1D67E0C8010E94320F8A
:104A0000D80117969C91F12CE12C8913AFCFEA14B1
:104A1000FB040CF057C148E050E0B801C6010E9409
:104A200080BEB8E0CB0ED11C892B09F04BC0EE0C38
:104A3000FF1CE0919305F0919405EE0DFF1D808120
:104A4000918181609183808362E573E18CE499E0D8
:104A50000E94826F80919B0590919C0563E0880F76
:104A6000991F6A95E1F72091990530919A05820F77
:104A7000931F0E942D866BE473E18CE499E00E9401
:104A8000A66F74CF21913191DF0112972E7F2D9364
:104A90003C93019664CF69E573E18CE499E00E9450
:104AA000826F60919B0570919C058CE499E00E9457
:104AB00080848CE499E00E948B6E1092980510928D
:104AC00097051DCEEFEFEE1AFE0AA1CF00919905D2
:104AD00010919A059C0143E0220F331F4A95E1F79C
:104AE000020F131FD8012C91283209F0DBC0AE0150
:104AF0004F5F5F4FB80180919D0590919E050E9488
:104B00006E20811105C020E030E04EEF52EC3EC037
:104B10006A8170E0762F6627770F770F770F2981EC
:104B2000B8E02B9F90011124262B372BF8018081B0
:104B30008031D1F4688570E08F81AB01481B510949
:104B4000CA019695982F8827979587950E945CBAF9
:104B5000CB014097B90113E0660F771F1A95E1F773
:104B600060789C01260F371F213854EE35075CF220
:104B7000B901330F880B990B0E94A2B820E030E0F6
:104B800040E05CE30E9401B99B01AC01E091950516
:104B9000F09196058091970590919805BC01A3E04E
:104BA000660F771FAA95E1F7A0919905B0919A0534
:104BB0006A0F7B1F309709F0199500919D051091A0
:104BC0009E05E0909705F090980573E0EE0CFF1CB1
:104BD0007A95E1F78091990590919A05E80EF91E72
:104BE000D7018C91803109F463C0B701C8010E94DC
:104BF0008220D82E882309F451C0F801858196813E
:104C00000E94EA1E882309F449C0B701D80115960D
:104C10008D919C910E94FA1FF801408164E4858186
:104C200096810E94371FD80112968C918823B1F18A
:104C3000E7EFED0D4EEE842E42E0942EE33038F493
:104C4000F0E0EE0FFF1FE359FD4F80809180E114EB
:104C5000F10489F1F8018381882369F18081811150
:104C60002AC00E94438D2B013C01092C000CAA088C
:104C7000BB08AE014F5F5F4FB701C8010E9419200A
:104C8000898181110BC00E94438D681979098A09B5
:104C90009B09641575058605970558F3809197055E
:104CA000909198050196909398058093970527CD4C
:104CB0006CE0D62EA2CFB401990C880B990B0E9400
:104CC000FE8AECCF80919D0590919E05892B09F479
:104CD0004DCE88E0815008F449CEF801E80FF11D6F
:104CE00090819923B9F3AA0CBB1C809193059091F4
:104CF0009405A80EB91ED5018D929C9266E473E1CD
:104D00008CE499E00E94826F60919B0570919C05F4
:104D10008CE499E00E9480846FE373E18CE499E075
:104D20000E94826F80919B0590919C0523E0880FE3
:104D3000991F2A95E1F72091990530919A05820FE4
:104D4000931F0E942D868CE499E00E948B6E8091C7
:104D50009B0590919C0533E0880F991F3A95E1F7E8
:104D60006091990570919A05680F791FFB01808108
:104D7000883261F480919D0590919E050E94318B4F
:104D800080916206909163060E942B1F80919B0583
:104D900090919C05019690939C0580939B05E6CD90
:104DA000FCE0FB1508F477CDA4CD64E072E18BE95B
:104DB00098E00E94826F61EF71E18BE998E00E94B8
:104DC000826F63EE71E18BE998E00E94826F6BED78
:104DD00071E18BE998E00E94826F8BE998E00E9474
:104DE0008B6E6EEC71E18BE998E00E94826F6EEB46
:104DF00071E18BE998E00E94826F62EB71E18BE9CF
:104E000098E00E94826F6BE971E18BE998E00E9463
:104E1000826F69E871E18BE998E00E94826F64E734
:104E200071E18BE998E00E94826F65E671E18BE9A0
:104E300098E00E94826F66E571E18BE998E00E943C
:104E4000826F6EE471E18BE998E00E94826F63E407
:104E500071E18BE998E00E94826F69E371E18BE96F
:104E600098E00E94826F61E371E18BE998E00E9413
:104E7000826F65E271E18BE998E00E94826F6BE0DE
:104E800071E18BE998E00E94826F6CEE70E18BE932
:104E900098E00E94826F67ED70E18BE998E00E94D4
:104EA000826F6AEC70E18BE998E00E94826F6CEB94
:104EB00070E18BE998E00E94826F60EB70E18BE912
:104EC00098E00E94826F68EA70E18BE998E00E94A6
:104ED000826F6DE970E18BE998E00E94826F60E972
:104EE00070E18BE998E00E94826F68E870E18BE9DD
:104EF00098E00E94826F6DE770E18BE998E00E9474
:104F0000826F6EE670E18BE998E00E94826F65E641
:104F100070E18BE998E00E94826F8BE998E00C9435
:104F20008B6E009789F0FC0120852F70253061F48D
:104F30000E948884009741F0FC0120852F70243066
:104F400019F481859285089590E080E00895CF92CC
:104F5000DF92EF92FF920F931F93CF93DF9300D0D6
:104F600000D0CDB7DEB78091F50581119CC080914E
:104F700073069091740602970CF495C000918E050B
:104F800010918F050115110509F48DC062E072E0E2
:104F90008AE699E00E94851363E973E0C8010E94E4
:104FA0003F848C01009709F47EC00E94EF84E82EB4
:104FB000F12CE114F10409F476C070E060E0C8015E
:104FC0000E9491276C01EA94EF2809F47BC061E00C
:104FD000C8010E948884FC0101851285CE010196DA
:104FE0000E94C687CE0101960E94E48767E27AE0BC
:104FF0008BE998E00E94826FB6018BE998E00E94ED
:105000001C6F6AE973E08BE998E00E941C6FB8019D
:105010008BE998E00E9480846AE973E08BE998E06C
:105020000E941C6F69E677E08BE998E00E941C6F94
:105030008BE998E00E948B6ED0926009C0925F0964
:10504000109362090093610989E697E0892BE9F5DD
:1050500081E993E0909364098093630980916606E7
:1050600090916706009741F070E060E00E94912700
:10507000909365068093640680916406909165061E
:10508000009721F090936609809365091092680952
:105090001092670981E08093F5056EE07AE08BE974
:1050A00098E00E94826F26960FB6F894DEBF0FBE7E
:1050B000CDBFDF91CF911F910F91FF90EF90DF90C7
:1050C000CF90089502E012E089CF89E697E0C2CF41
:1050D0002F923F924F925F926F927F928F929F9208
:1050E000AF92BF92CF92DF92EF92FF920F93CF9346
:1050F000DF9300D01F92CDB7DEB77C017A8369833E
:105100005C834B83DB011C92FC016081662309F404
:10511000C2C130FFC0C1F9E06F9FB0011124655AD0
:10512000774FCD010E9472B14B815C816CE973E0D5
:1051300089819A810E94E1BEE981FA810190002073
:10514000E9F7319789819A81E81BF90B1C012E0E32
:105150003F1EAB81BC81AE1BBF0B1197BC83AB83E1
:10516000D7011196EC91E295EF70E150EC3008F028
:10517000B3C0F0E08827E054F74D8F4F0C9470BA1D
:10518000CC283B29A129082A242A0829B829B8298A
:10519000B829FC28F028412AF7018481282F30E023
:1051A00050E040E0002359F030E0A4E6B0E00E9477
:1051B00039BA2FEF30E040E050E00E9407BA5F9329
:1051C0004F933F932F938EE993E09F938F93FC81AE
:1051D000FF938B818F933F922F920E9419BF77C0CC
:1051E000F70187818F9386818F9385818F93848147
:1051F0008F9381EA93E0E9CFF70187818F938681CE
:105200008F9385818F9384818F9385EA93E0DDCF9F
:10521000F701C480D580E680F780C701B6012AE097
:1052200030E040E050E00E9407BA97FF07C0909539
:105230008095709561957F4F8F4F9F4F9F938F9370
:105240007F936F93C701B6012AE030E040E050E061
:105250000E9407BA5F934F933F932F9389EA93E09D
:105260009F938F93FC81FF938B818F933F922F921B
:105270000E9419BF2CC0C7010E947F11BC01F70119
:10528000C680D780D0FADD24D0F89481F580EB80F9
:10529000BC80292F30E050E040E077FD35C001119F
:1052A00035C07F936F931F921F921F929F931F92FF
:1052B000FF92DF92CF9280EB93E09F938F939C813C
:1052C0009F93AB81AF933F922F920E9419BF0FB66D
:1052D000F894DEBF0FBECDBF89819A810F900F90E9
:1052E0000F900F90DF91CF910F91FF90EF90DF9093
:1052F000CF90BF90AF909F908F907F906F905F9076
:105300004F903F902F900895002361F0292F30E0B7
:10531000A4E6B0E00E9439BA2FEF30E040E050E060
:105320000E9407BA5F934F933F932F931F92FF9270
:10533000DF92CF9283EB93E09F938F93BF92EF9294
:1053400095CFD70115968C9115971F928F9316962E
:105350009C91169717968C9181708F939F9386EBF3
:1053600093E09F938F93BC81BF93EB81EF9333CFF7
:10537000D70114968D909D90AD90BC90179720E02A
:1053800030E0A901C501B4010E949BB82401350198
:1053900087FF04C077FA709477F87094C301B20164
:1053A0000E946DBB6B01072E000C880B990B0E94AD
:1053B000A2B89B01AC01C301B2010E948EBA20E0E9
:1053C00030E048EC52E40E9401B90E94F8BB0E9410
:1053D0006DBB062F772E20E030E0A901C501B40196
:1053E0000E949BB887FF07C07F920F93DF92CF92F6
:1053F0008CEB93E0B6CF7F920F93DF92CF928DEB41
:1054000093E09F938F939C819F93AB81AF93E3CE67
:10541000D70114968C9114971F928F9315968C91A7
:1054200015971F928F9316968C911F928F9383EBF3
:1054300093E09F938F93BC81BF93EB81EF933F9257
:105440002F920E9419BF43CFD70117968C911797BF
:105450001F928F9314968C9114971F928F93159689
:105460008C9115971F928F9316968C911F928F9304
:1054700080EB93E09F938F93BC81BF93EB81EF937D
:10548000F5CED70114966D917C914B815C81C10161
:105490000E94FFBE21CF29803A8062CEEF92FF9218
:1054A0000F93CF93DF93CDB7DEB7A0970FB6F894E5
:1054B000DEBF0FBECDBF7C0100E020E033E040E264
:1054C00050E0BE016F5F7F4F0E946828BE016F5F92
:1054D0007F4F8CE499E00E941C6F63E479E08CE4D8
:1054E00099E00E94826FF701618162956F708CE490
:1054F00099E00E9479846CE379E08CE499E00E9461
:10550000826FF70161816F708CE499E00E94798469
:105510008CE499E00E948B6EA0960FB6F894DEBFE3
:105520000FBECDBFDF91CF910F91FF90EF90089507
:105530002F923F924F925F926F927F928F929F92A3
:10554000AF92BF92CF92DF92EF92FF920F931F9391
:10555000CF93DF93CDB7DEB76A970FB6F894DEBF6F
:105560000FBECDBF1C0109871A872B873C874D874B
:105570005E876F87788B22E1E216F10408F035C070
:10558000F701EF57FD4F30813D8BCE0109960E9408
:105590007F1197FD04C0BC01C1010E94A1119A8531
:1055A000892F8F70D1011196EC911197E07FE82B34
:1055B0001196EC93119789858C93E295EF70EC30FE
:1055C00008F063C0F0E08827E751F54D8F4F0C9449
:1055D00070BAD72C122B122B772CF72A0B2D412CBB
:1055E000802C802C802C412C412C1D8ACECF10E0A9
:1055F00092959F709D3008F010C4E92FF0E0882745
:10560000EB5FF44D8F4F0C9470BA452B442D642DF5
:10561000442D0D2D0D2D442D442D0D2F0D2F442DDA
:10562000442D1B2C92959F709D3008F014C1E92FDA
:10563000F0E08827E15EF44D8F4F0C9470BA452B53
:10564000F92BEC2BAF2B2F2B2C2BD02BFB2B2B2C1C
:105650002B2CBA2BBA2B1B2C8889F10187838F85C1
:10566000D10116968C9316978E8515968C93159767
:105670008D8514968C9314979295907F11968C91AA
:1056800011978F70982B11969C93FD89FF2309F435
:1056900063C0D10111968C9182958F702F2F30E0CD
:1056A0008217130609F458C065EB77E08CE499E0A3
:1056B0000E94826FF101618162956F708CE499E0C4
:1056C0000E94798462EB77E08CE499E00E94826F1B
:1056D0006D898CE499E00E94798460EB77E08CE43A
:1056E00099E00E94826FD1010C9119821A821B826B
:1056F0001C821D821E821F8218868D898295807F62
:105700009A819F70892B8A830983EE24EA94FE2C68
:1057100011961C91119712962C91129713963C9109
:10572000139714964C91149715965C9115971696AD
:105730006C91169717967C91CE0101960E94982A3B
:10574000F10120833183428353836483758386838D
:105750009783C1010E944E2A88E0F1016EC18F85B6
:105760009889F1018683878190FB80F987838E85F4
:1057700085838BCF8D859E85AF85B889B7FD0EC09B
:105780008F3F9105A105B10529F024F08FEF90E03E
:10579000A0E0B0E0D10114968C9377CF80E0FACFEF
:1057A0006D857E858F85988920E0673FBFEF7B07F9
:1057B0008B079B076CF02FEF6115EAE07E078105F0
:1057C000910534F42AE030E040E050E00E9407BA4E
:1057D000D10114962C9359CF8F859889F101868336
:1057E000878190FB80F987838E8585838D8584836F
:1057F0004CCF8D85CFCFCD84DE84EF84F88820E038
:1058000030E0A901C701B6010E949BB860E087FDA6
:105810000FC020E030E04FE753E4C701B6010E941B
:10582000A3BB6FEF181624F0C701B6010E9474BB2A
:10583000F10164832ACFD10111968C9111978F7059
:10584000806C11968C9311978D859E8515969C93EF
:105850008E9314971ACF62E478E08CE499E00E946A
:10586000826F6A8562956F708CE499E00E947984FA
:105870006FE378E08CE499E00E94826FF10161812E
:10588000BFC092959F70933091F09C30A1F24D85EE
:105890005E856F857889F1014483558366837783BC
:1058A0009295907F81818F70982B9183EECEC1016C
:1058B0000E94B185D10114968C9314978F85988995
:1058C00016968C93169717968C91179790FB80F9E4
:1058D00017968C9317978E8515968C93159711961E
:1058E0008C9111978F70806211968C93CECECE01E1
:1058F00009960E94B185D10114968C931497EFCF2D
:1059000092959F709D3008F065C0E92FF0E08827E0
:10591000E357F34D8F4F0C9470BA452BAC2CD62C1B
:10592000572CD62CD62C9A2CC62CC62CC62CBA2C6E
:10593000C12C1B2C6D857E858F8598890E94A2B80D
:1059400020E030E040E251E40E94FBBAF1016483C0
:1059500075838683978399CE6D8570E090E080E0B3
:105960000E94A0B8D10114966D937D938D939C9362
:1059700017978BCE6D857E858F8598890E94A2B8FA
:10598000E5CF6D857E858F859889EACF9295907F4A
:10599000F10181818F70982B91838D859E85AF85D4
:1059A000B88984839583A683B7836FCE9295907FC1
:1059B000D10111968C9111978F70982B11969C9311
:1059C0008D859E85AF85B889F10184839583A683F3
:1059D000B7835BCE6DE278E08CE499E00E94826F41
:1059E0006A8562956F708CE499E00E9479846AE21E
:1059F00078E08CE499E00E94826FD10111966C915D
:105A000062956F708CE499E00E9479848CE499E04F
:105A10000E948B6E3ACE11E0EBCD4D855E856F8591
:105A20007889F10144835583668377839295907FCB
:105A300081818F70982B918388E0DE01119601900F
:105A40000D928A95E1F729813A814B815C816D81C4
:105A50007E818F8198856A960FB6F894DEBF0FBE5F
:105A6000CDBFDF91CF911F910F91FF90EF90DF900D
:105A7000CF90BF90AF909F908F907F906F905F90EE
:105A80004F903F902F900895963009F4C1C048F48C
:105A90006D85913071F06FEF70E0933051F060E000
:105AA00008C0973009F4C0C09A506D857E85923049
:105AB000B0F784E68F8788898E7F888B1E868A85DB
:105AC0008F7080628A876D872E8530E0AFEFB0E0FF
:105AD0000E9439BAC12CD12C7601CA946115F4E622
