:100000000C94E5100C9416110C9416110C94161106
:100010000C9416110C9416110C9416110C941611C4
:100020000C9416110C9416110C9416110C941611B4
:100030000C9416110C9416110C9416110C941611A4
:100040000C9416110C9416110C9416110C94161194
:100050000C9416110C9416110C9416110C94AAA859
:100060000C9416110C9496820C946C820C941611BC
:100070000C9416110C9416110C9416110C94161164
:100080000C9416110C9416110C9416110C94161154
:100090000C9416110C9416110C9416110C94172430
:1000A0000C9416110C9416110C9416110C94161134
:1000B0000C9416110C9416110C9416110C94161124
:1000C0000C9416110C9416110C9416110C94161114
:1000D0000C9416110C9416110C9416110C94161104
:1000E0000C94161107634236B79BD8A71A39685685
:1000F00018AEBAAB558C1D3CB7CC5763BD6DEDFD4A
:10010000753EF6177231BF000000803F0800000006
:10011000BE922449123EABAAAA2ABECDCCCC4C3EFC
:1001200000000080BEABAAAAAA3E00000000BF00EB
:100130000000803F0000000000084178D3BB4387E7
:10014000D1133D190E3CC3BD4282AD2B3E68EC82FB
:1001500076BED98FE1A93E4C80EFFFBE01C4FF7F80
:100160003F00000000000C9422390C94AA570C9414
:10017000C49E0C94FB930C94D4340C94165E0C9493
:10018000AB9E0C940B790C941FBF0C94BA9E0C94EC
:100190006D330C945A5D0C94CF400C94884A0C94A7
:1001A000CF880C94F2120C94A92E0C945F1D0C9421
:1001B000F94C0C94DA190C9419130C9404BE0C9499
:1001C0000B5D0C9452530C948CA60C941E940C94BE
:1001D0006F330C94FF930C94154A0C94415D0C946E
:1001E000DD870C94FD350C94CE9E0C9479B90C945B
:1001F00037110C949D6A0C9405530C9487A60C94AB
:10020000D6130C9411770C94DF410C94F8310C94B4
:100210001C340C946A340C94BB5D0C9406140C943E
:100220001D120C94D89E0C94F5340C9419530C9414
:10023000D2120C94CD790C9418110C94C4120C9415
:100240001E350C9464840C94BF780C9446490C942D
:10025000D47B0C94E09E0C94A5350C9454340C94EF
:1002600037340C941B580C949DBF0C9477330C942A
:10027000761E0C9484A60C94B1A50C94E9110C94F0
:10028000BF350C94E59E0C9466350C945D790C9406
:10029000E2310C94231A0C946A360C9411BF0C941E
:1002A000584B0C9407780C9475330C94FF2F0C94D6
:1002B000B5130C949D6E0C94E45E0C9460530C94F6
:1002C000AF1E0C947F330C94C9120C946B330C94B6
:1002D00030110C9410850C9460110C94B8A50C94FA
:1002E000A3150C948A360C9415330C94C0400C94CE
:1002F00020350C947C350C94A36D0C94274B0C94F6
:10030000C09E0C94CF1A0C94911D0C9474770C948D
:10031000536E0C9460770C9495130C94C1500C940C
:1003200079780C9483110C944D110C9412130C9445
:1003300071330C94515E0C94B5490C9433360C9483
:10034000D14A0C947C810C94EC420C946E260C9453
:100350001C590C94BBB70C94967A0C940A130C9409
:10036000BA480C94B4790C9486880C94AC2F0C94F5
:10037000EF310C945D530C948E640C949C350C946A
:10038000E5150C9495C10C94BF130C94FC790C9456
:1003900082780C9431360C943F170C9466860C943A
:1003A000D3130C94418F0C9427A40C9462150C94D5
:1003B00085150C94B8BF0C947EA60C9460B50C9473
:1003C0008E5D0C944F530C94A59E0C942A2E0C9485
:1003D00036410C9450350C948F140C94A5880C94D1
:1003E0006D6B0C94EA9E0C94055F0C94F2780C945F
:1003F000E69E0C94422E0C9440BF0C9483130C94F4
:10040000D7840C9423770C9440350C94FB150C94F2
:10041000D9630C947B840C94096C0C9411350C9466
:10042000C7110C94DE5E0C94B0570C9451770C9469
:10043000542E0C94C1120C94DC9E0C94B44B0C946E
:100440007B330C94FB120C943F310C94D29E0C9491
:100450000BBF0C945AB50C9424770C9454A40C94B0
:10046000327A0C94385E0C94C0120C94C6110C9421
:10047000C5840C9479330C94E15E0C94F0110C94C7
:10048000E1400C944A840C94CA9E0C944A7A0C94D1
:10049000E7350C94902F0C9461110C94752F0C94EB
:1004A00010420C947E1D0C9472780C94127A0C9469
:1004B00073330C9420110C94C6BF0C9425410C94FA
:1004C000B9420C9481110C94F54C0C942C530C945F
:1004D0005AA40C9407320C9489150C94262F0C9472
:1004E000D6110C94DB350C94FC350C94C24B0C9457
:1004F00002150C94A1570C947F420C948A790C94A9
:10050000B2120C94E07A0C944C200C941C110C94B4
:100510003D170C9412160C9451340C94D1130C9476
:100520001C140C94E8930C94EB170C94865E0C94BA
:10053000AB520C94D0AF0C9417150C9458110C942A
:1005400082770C94162F0C9458780C9477110C9495
:10055000BA770C947C780C94E1930C94CD350C9480
:10056000D55C0C94E9310C945B840C940C7C0C9459
:10057000EC350C94CFB10C94DF340C9442760C948F
:10058000101A0C9481A60C9451A40C946C530C94E6
:1005900099470C947D330C94427C0C94361A0C943D
:1005A000C6790C941B1F0C94D45D0C94062E0C94ED
:1005B000B27B0C94CD130C9431480C94C5110C945F
:1005C000B79E0C946E520C9433380C947B790C9437
:1005D000AF9E0C9438940C94B39E0C94AE4A0C9439
:1005E000F34C0C94131B0C9443530C9480BA0C944E
:1005F000D81F4E414E494E495459494E46CDCCCC58
:100600003D0AD7233C17B7D13877CC2B329595E6E6
:10061000241FB14F0A000020410000C84200401CC6
:100620004620BCBE4CCA1B0E5AAEC59D746364699D
:100630006E6F70737578585B00454F46002F004908
:100640006E3A20003D00494E3A003D004C4547417E
:10065000435920494E3A000000200023002600297B
:10066000002C002F003200000100000301060109E8
:10067000012D3E00200023002D3E00200050656E1D
:100680006465643A2023007261770076616C0074BF
:10069000656D7000736174006875650066616E0059
:1006A00052474200485356006D6F646500536574AD
:1006B000436D643A0053746F726564204558543A30
:1006C00000737566666978436F64653A0020666FEB
:1006D0007220286D73293A004354524C3A205363D8
:1006E000686564756C6520636D642000206D7320FF
:1006F0003A0041726D656420666F72200020446983
:100700007361726D656400584F4E0048414C54004F
:100710002074696D653A004354524C3A2052657317
:100720003A002054533A0020543A003D0050696E7C
:100730003A004354524C3A20436F6D6D616E642011
:10074000626C6F636B6564206279206472697665A0
:1007500072206F72206368616E6E656C2066726FC6
:100760007A656E004354524C3A204F4E3A416C72B7
:1007700065616479204163746976650A0043545267
:100780004C3A2048414C543A416C7265616479207E
:10079000496E6163746976650A004354524C3A208D
:1007A000584F4E3A2044697361626C65640A004395
:1007B00054524C3A20584F4E3A416C7265616479FC
:1007C000204163746976650A004354524C3A2058BC
:1007D0004F464620736B69707065642E20507265B9
:1007E0007620636D643A004354524C3A205475723B
:1007F0006E6564206F66662066726F6D3A004354C2
:10080000524C3A20526573746F7265642066726F41
:100810006D3A004354524C3A2049676E6F726564DA
:100820002C206368616E6E656C20636D643D0020F2
:10083000457865633A004354524C3A2041637469E9
:1008400076653A004354524C3A2048414C543A4160
:100850006C726561647920496E6163746976650ABA
:10086000004354524C3A20584F4E3A204469736129
:10087000626C65640A004354524C3A20584F4E3A19
:10088000416C7265616479204163746976650A0020
:100890004354524C3A20584F464620736B6970704F
:1008A00065642E205072657620636D643A0043546F
:1008B000524C3A205475726E6564206F66662066ED
:1008C000726F6D3A004354524C3A20526573746F04
:1008D0007265642066726F6D3A004354524C3A2040
:1008E0004E6F7420656E6F756768206D656D6F72F1
:1008F0007920666F722067726F7570206F706572F5
:100900006174696F6E00496E76616C696420617212
:100910006700496E76616C696420617267004354B8
:10092000524C3A20556E6B6E6F776E20737566660B
:10093000697800536B697070656420686F6D6965D4
:10094000207374756666002000205375623D002098
:100950004974656D3D004354524C3A2052414D3D1F
:10096000004354524C3A204F75744F664D656D6F7D
:1009700072793A2000282D292000282B29200020D8
:1009800076616C7565206973200020756E6B6E6FE3
:10099000776E0A005D3D005B0020696E76616C69D0
:1009A00064002000206F6B003A00206661696C656E
:1009B00064003A005265747279696E67206D6F64E5
:1009C00062757320434D440A004354524C2F706F9C
:1009D0006C6C3A204F75744F664D656D6F72793A45
:1009E0002000207365632072656D61696E696E67B2
:1009F000005374617475732064656666657265641E
:100A00000A00444D58000000000000444D58524771
:100A100042570000444D5852474200000050574D85
:100A20000000000000004D42555344494D00005461
:100A30004845524D4F00000052454C4159000000BE
:100A40000047524F555000000000564354454D504A
:100A50000000004D425553564300000041434841B9
:100A600049455200005350494C45440000004D4F49
:100A7000544F5200000000504944000000000000A4
:100A80004D4255530000000000554152544252441B
:100A9000470052454C415950574D00444D5852471C
:100AA0004257570056454E545300000000454C45F0
:100AB0005641544F5200434F554E54455200004842
:100AC000554D0000000000004D455243555259005D
:100AD0000020002D3E00436F6E76657274696E676C
:100AE00020002D3E0057726F6E6720417373696757
:100AF0006E6D656E742000524742783A200048536C
:100B0000562064697361626C65640020764C65767A
:100B1000656C3A0020436F6E76563A0020436F6E44
:100B200076533A0020486F743A00436F6C643A0081
:100B300020436F6E76657274656420563A00436F89
:100B40006E76657274656420533A002D3E005772CC
:100B50006F6E672041737369676E6D656E742000F8
:100B60002D3E0057726F6E672041737369676E6D1B
:100B7000656E74200053617665643A002053756693
:100B8000663A002041543A00206973200044656CA5
:100B90006574696E6720636F6E662E2052414D202A
:100BA0007761733A0053746F70706564006E6F7490
:100BB00068696E6720746F2073746F700053746F70
:100BC0007070696E67206368616E6E656C73202E4D
:100BD0002E2E004E6F7420756E6C6F636B656420F3
:100BE000696E20313073202D20636F6E74696E75CD
:100BF00065202E2E2E00556E6C6F636B696E67201C
:100C0000636F6E666967202E2E2E00436F6E6669D5
:100C100067206368616E676564206C6F63616C6CEC
:100C2000792C20706F7274616C2064697361626CDE
:100C30006564002F636F6E6669672E6A736F6E005E
:100C40007265626F6F742000436D643A20002F63F9
:100C50006F6D6D616E642F002F72616D2F002F69B3
:100C600074656D2F002F6974656D2F004C6F636183
:100C700074696F6E3A20687474703A2F2F6C617AC1
:100C800079686F6D652E72752F707761003F6D61A9
:100C9000633D002669703D0026706F72743D00262A
:100CA0006E616D653D002F002000436F6D706C65B7
:100CB00074652E2052656D6F766520746F70696360
:100CC000200024636F6D6D616E6400536B697070FA
:100CD000696E672E2E00436C65616E5570207265DB
:100CE0007461696E656420746F706963200022000E
:100CF00022004F75744F664D656D6F727921005DEE
:100D000020003A5B000A005D00456D7074793A205E
:100D10005B000A003A004D41433A005544502053CD
:100D200079736C6F6720696E697469616C697A6543
:100D3000642E0A005379736C6F6720706172616D65
:100D4000733A003E003C00543A0043757272656E7F
:100D500074204C414E20636F6E6669672869702C61
:100D6000646E732C67772C7375626E6574293A0014
:100D70000A55736520746865736520636F6D6D61D6
:100D80006E64733A202768656C7027202D20746884
:100D9000697320746578740A276D61632064653A0D
:100DA00061643A62653A65663A66653A3030272092
:100DB00073657420616E642073746F7265204D4199
:100DC000432D6164647265737320696E20454550DC
:100DD000524F4D0A276970205B69705B2C646E73FB
:100DE0005B2C67775B2C7375626E65745D5D5D5D12
:100DF00027202D2073657420737461746963204902
:100E0000500A277361766527202D2073617665204F
:100E100063757272656E7420636F6E6669672069B0
:100E20006E204E5652414D3B204F4E7C4F46462041
:100E30002D20656E61626C652F64697361626C65FB
:100E4000206175746F736176650A27676574272062
:100E50005B636F6E66696720616464725D27202D35
:100E60002067657420636F6E6669672066726F6DB8
:100E7000207072652D636F6E666967757265642098
:100E800055524C20616E642073746F7265206164EA
:100E900064722C204F4E7C4F4646202D20656E619B
:100EA000626C652F64697361626C6520646F776E34
:100EB0006C6F6164206F6E20737461727475700A58
:100EC000276C6F616427202D206C6F616420636F35
:100ED0006E6669672066726F6D204E5652414D0AEC
:100EE0002770776427202D20646566696E65206110
:100EF0006E642073746F7265204D5154542070617C
:100F00007373776F72640A276F7461707764272038
:100F10002D20646566696E6520616E642073746F50
:100F200072652048545450204150492070617373B9
:100F3000776F72640A276C6F67205B7365726961F3
:100F40006C5F6C6F676C6576656C5D205B7564705B
:100F50005F6C6F676C6576656C5D27202D2064651E
:100F600066696E65206C6F67206C6576656C2028FD
:100F7000302E2E37290A276B696C6C27202D2074A0
:100F8000657374207761746368646F670A27636CA4
:100F900065617227202D20636C6561722045455084
:100FA000524F4D0A277265626F6F7427202D207291
:100FB00065626F6F7420636F6E74726F6C6C6572B4
:100FC00000536F6674207265626F6F74696E672E6E
:100FD0002E2E0052414D3D000A5379736C6F6720ED
:100FE000000A312D7769726520000A6D71747420D2
:100FF000000A696E7075747320000A6974656D73F8
:1010000020000A436F6E666967757265643A002056
:10101000416464723A0064657623000944533234B3
:101020003832206572726F720009526573657420E0
:10103000646F6E650009436865636B696E6720665F
:101040006F7220312D57697265206465766963651A
:10105000732E2E2E004453323438322D313030204E
:1010600070726573656E74004572726F7220312DF7
:101070007720696E697420233220467265653A00D4
:1010800077737461742E20467265653A00546572F8
:101090006D2E20467265653A004572726F7220317E
:1010A0002D7720696E697420233100467265653A98
:1010B000004453323438325F3130305F4932435F5D
:1010C000544F5F31575F42524944474520696E692A
:1010D00074003B003D0050696E3A003B003D4C4FB0
:1010E0005700546865726D6F3A004F6E65207769DE
:1010F00072652052656164790A004170706C79698B
:101100006E6720636F6E66696700436F6E6669671E
:10111000206175746F736176653A000A5379736C58
:101120006F67206465627567206C6576656C3A0050
:1011300053657269616C206465627567206C6576C1
:10114000656C3A0053617665640A005365742064E7
:10115000796E616D69632049500A00454550524FD0
:101160004D20636C65617265640A004D51545420D2
:1011700050617373776F7264207570646174656415
:101180000A004F54412050617373776F7264207569
:101190007064617465640A00636F756C64206E6FBF
:1011A000742070617273653A2000557064617465D3
:1011B000640A004E6F2049502061647265737300A9
:1011C00052656C656173696E6720736F636B6574DC
:1011D00020616E64207265747279002053617665B7
:1011E00064004C6F6164696E6720485454502063FA
:1011F0006F6E666967206F6E2073746172747570AC
:101200003A004F4646004F4E002B002D00455461DA
:10121000673A200047657420455441473A2000480A
:101220005454502F312E310025733A2025730D0A66
:101230000020485454502F312E310D0A486F7374DA
:101240003A2025730D0A4163636570743A202A2F92
:101250002A0D0A436F6E6E656374696F6E3A206380
:101260006C6F73650D0A0025730020000D0A00479E
:101270004554006661696C656420746F20636F6E0D
:101280006E6563740A004552524F523A205365729C
:101290007665722072657475726E65642000436FA6
:1012A0006E666967206E6F74206368616E6765643F
:1012B0000A00446F6E652E0A00436F6E66696720F0
:1012C00070617273696E67206661696C65640A009B
:1012D000676F7420436F6E6669670A006874747084
:1012E00020726574636F6465200066726565200016
:1012F000436F6E666967205552493A20687474706E
:101300003A2F2F002044656661756C7420636F6E00
:101310006669672073657276657220757365643AD5
:1013200020006C617A79686F6D652E7275000A28ED
:101330002D294D554C544956454E54000A282B2909
:1013400050574D5F52454C4159000A282D294D44B4
:101350004E53000A282D29554152544252494447C0
:1013600045000A282B295359534C4F47000A282D72
:1013700029504944000A282D294D43503233303139
:1013800037000A282D294152544E4554000A282B73
:10139000294F5441000A282D29535049204C4544D7
:1013A000000A282D294D4F544F5220435452000A11
:1013B000282D294143204841494552000A282D291A
:1013C00043435338313120262048444331303830AC
:1013D000000A282B29524553544152545F4C414E28
:1013E0005F4F4E5F4D5154545F4552524F52530020
:1013F0000A282D294841524452455345542C207502
:1014000073696E6720736F6674000A282D29434F35
:10141000554E544552000A282D29444854000A28A4
:101420002B294453323438322D313030000A282BE6
:10143000294F57495245000A282D2949504D4F44FC
:10144000425553000A282D294D4F44425553000A56
:10145000282D29444D58000A282B2957697A6E6592
:101460007435313030000A282B2946726565526187
:101470006D207072696E74696E67000A282B295797
:1014800041544348444F47006C617A79686F6D65F9
:101490002E7275000A436F6E6669672073657276F7
:1014A00065723A003230313130334C0020432B2BFF
:1014B0002076657273696F6E3A0031653538616404
:1014C000395F323032332D31302D3233000A4C61E6
:1014D0007A79686F6D652E7275204C6967687448FB
:1014E000756220636F6E74726F6C6C657220002081
:1014F0004F464600204F4E00204259504153530062
:10150000757074696D650066726565686561700007
:101510002054696D65723A00204C6F636B733A001A
:101520002000204C6F636B733A000A52414D3D001E
:1015300020457870697265640A00202D74617267B5
:101540006574207A6F6E652D0020416C61726D208C
:10155000457870697265640A0020636D643A002002
:101560004375723A00205365743A0053617665649E
:1015700020746F20454550524F4D00536176696E7F
:101580006720636F6E66696720746F20454550520F
:101590004F4D2E2E004C6F616465642045544147C9
:1015A0003A004E6F2073746F72656420636F6E66CD
:1015B0006967004C6F616465642066726F6D2045D9
:1015C0004550524F4D006C6F6164206661696C65D7
:1015D00064004A534F4E206465746563746564000B
:1015E0004C6F6164696E6720436F6E666967206641
:1015F000726F6D20454550524F4D0020696E6974E1
:101600000052656C61792D4F75742023002073742E
:101610006F700052656C61792D4F75742023003D09
:101620003E003A0070756220616374696F6E20003D
:1016300069646C65006F66660068656174696E67F1
:101640000066616E00647279696E6700636F6F6C2B
:10165000696E670020697320004F75742000556E15
:101660006B6E6F776E207375666669782000556EB5
:101670006B6E6F776E20636D642000616374696FB9
:101680006E0072656C61794374723A200020416487
:1016900064723A00646576230020616C69766500A7
:1016A000204E6F64653A00312D7769726520636F53
:1016B000756E743A2000312D776972652073686FFA
:1016C00072746564005B305D3A2000202D202D206F
:1016D0002D20EFBBBF003E003E31202D200020001A
:1016E0002E00696E00735F6F7574006D79686F6DA1
:1016F00065004354524C2F657865633A204F7574EA
:101700004F664D656D6F72793A2000202D3E2000A6
:10171000456D69743A2000202D3E20004974656DA6
:10172000436D643A2000202D3E20004974656D3AD7
:101730002000005EBCE2613FDD83C29C7E20A3FDF1
:101740001F419DC3217FFCA2401E5F01E3BD3E609F
:1017500082DC237D9FC1421CFEA0E1BF5D0380DED1
:101760003C62BEE0025CDF81633D7C22C09E1D4383
:10177000A1FF4618FAA427799BC584DA3866E5BB31
:101780005907DB856739BAE406581947A5FB78265F
:10179000C49A653BD987045AB8E6A7F91B45C69891
:1017A0007A24F8A6441A99C7257B3A6486D85B0543
:1017B000E7B98CD2306EEDB3510F4E10F2AC2F71F1
:1017C00093CD114FADF3702ECC92D38D6F31B2EC1F
:1017D0000E50AFF1134DCE90722C6D33D18F0C5251
:1017E000B0EE326C8ED0530DEFB1F0AE4C1291CF03
:1017F0002D73CA947628ABF517490856B4EA6937B1
:10180000D58B5709EBB536688AD495CB2977F4AADE
:101810004816E9B7550B88D6346A2B7597C94A1410
:10182000F6A8742AC896154BA9F7B6E80A54D789C2
:101830006B35436F6E6E65637465642E00436F6E27
:101840006E2E2061626F72746564003E3E20004916
:101850006E76616C696420636F6D6D616E64003ECD
:101860003E3E004E6F204D414320636F6E666967B8
:10187000757265643A20736574206669726D77616C
:1018800072652773204D41430A00454550524F4D24
:10189000207369676E6174757265206F6B00496EA5
:1018A000697469616C697A696E6720454550524F69
:1018B0004D2E00476F742049502061646472657337
:1018C000733A00276970205B69705B2C646E735BF0
:1018D0002C67775B2C7375626E65745D5D5D5D274B
:1018E000202D2073657420737461746963204950DE
:1018F0000A004661696C656420746F20636F6E66D0
:1019000069677572652045746865726E65742075C7
:1019100073696E6720444843502E20596F752063C9
:10192000616E20736574206970206D616E75616CE5
:101930006C792100204D41534B3A002047573A0023
:1019400020444E533A004C6F616465642066726FA8
:101950006D20666C6173682049503A000A757365A2
:101960007320444843500A005374617274696E676F
:10197000206C616E004142434445464748494A4B0A
:101980004C4D4E4F505152535455565758595A6119
:1019900062636465666768696A6B6C6D6E6F7071AF
:1019A00072737475767778797A30313233343536AC
:1019B0003738392B2F3D0042617369632000617213
:1019C0006475696E6F3A004F544120696E6974699D
:1019D000616C697A65640A0044454641554C54205F
:1019E00070617373776F726420666F72204F544119
:1019F000204150492E20557365206F7461707764C3
:101A000020636F6D6D616E6420746F207365740068
:101A100070617373776F726400546F6F206D616EC5
:101A200079204D51545420636F6E6E656374696FF5
:101A30006E206572726F72732E20526573746172BC
:101A400074204C414E002074727920616761696E88
:101A500020696E2035207365636F6E647300666164
:101A6000696C65642C2072633D004177616974691B
:101A70006E6720666F722072657461696E6564209E
:101A8000746F7069637300636F6E6E656374656411
:101A90002061732000202E2E2E0020757365723A6F
:101AA000003A000A417474656D7074696E67204D68
:101AB00051545420636F6E6E656374696F6E207449
:101AC0006F2000646973636F6E6E65637465640094
:101AD0005573696E67204D5154542070617373774C
:101AE0006F72642066726F6D20636F6E6669670047
:101AF000446576696365204E616D653A00417420E6
:101B00006C6561737420646576696365206E616DD0
:101B10006520616E642062726F6B6572204950208F
:101B20006D75737420626520636F6E666967757288
:101B3000656400757074696D652C667265656865AD
:101B400061700024737461747300316535386164A9
:101B5000395F323032332D31302D3233004C6967EA
:101B600068744875622000246E616D65007265615D
:101B700064790024737461746500526562696E64EF
:101B800020737563636573732E204950206164640C
:101B9000726573733A004572726F723A20726562B1
:101BA000696E64206661696C0052656E6577656474
:101BB00020737563636573732E20495020616464DC
:101BC000726573733A004572726F723A2072656E75
:101BD00065776564206661696C000A4E6F206C69E8
:101BE0006E6B0033307320454550524F4D20697362
:101BF000206E6F742072656C6F616465642E205274
:101C000065626F6F7400416363657074696E67200D
:101C1000636F6D6D616E64732E2E2E0A004E6F2001
:101C20004D51545420636F6E666967757265640028
:101C30004C6F6164696E6720636F6E6669672066CA
:101C4000726F6D20706F7274616C20646973616271
:101C50006C65642E2075736520676574204F4E2077
:101C6000746F20656E61626C6500436F6E666967B4
:101C70002069732076616C696400436F6E74696ECD
:101C8000756520776974682070726576696F757301
:101C90006C79206C6F6164656420636F6E66696740
:101CA0000000002200250028002B002E0031003407
:101CB0000002010000050108010B0100000A0B02EF
:101CC000090C0D0E080703040100000000000000CD
:101CD0000000000000000000000000000000000004
:101CE00000000000000000121110000000000000C1
:101CF00000000000000000000000000000000000E4
:101D00000000002100240027002A002D00300033AD
:101D10000001010000040107010A01010210202056
:101D2000080810204010204080020102010804022F
:101D300001010204081020408080402010080402A5
:101D400001800402018040201008040201080402FE
:101D50000101020408102040800102040810204004
:101D60008005050505070508080808020202020AA1
:101D70000A0808040404040101010101010101032E
:101D800003030303030303040707070C0C0C0C0CE9
:101D90000C0C0C0202020206060606060606060BDC
:101DA0000B0B0B0B0B0B0B2F64617461002F736B10
:101DB00065746368004163636573732D436F6E746C
:101DC000726F6C2D526571756573742D50726976E2
:101DD0006174652D4E6574776F726B3A20747275FD
:101DE00065004163636573732D436F6E74726F6C2E
:101DF0002D416C6C6F772D486561646572733A2074
:101E00002A004163636573732D436F6E74726F6C48
:101E10002D416C6C6F772D4D6574686F64733A203B
:101E2000504F53542C4745542C4F5054494F4E5308
:101E3000004163636573732D436F6E74726F6C2D15
:101E4000416C6C6F772D43726564656E7469616C6B
:101E5000733A2074727565004F5054494F4E5300C9
:101E600044454C4554450050555400474554005096
:101E70004F535400617574686F72697A6174696F49
:101E80006E3A2000417574686F72697A6174696F87
:101E90006E3A2000436F6E74656E742D4C656E67EC
:101EA00074683A20006F637465742F73747265618F
:101EB0006D00696D6167652F6A70656700696D61A6
:101EC00067652F67696600746578742F68746D6C38
:101ED000006170706C69636174696F6E2F6A736FF3
:101EE0006E00746578742F706C61696E00436F6E5C
:101EF00074656E742D547970653A2000436F6E6E70
:101F0000656374696F6E3A20636C6F73650041633B
:101F1000636573732D436F6E74726F6C2D416C6CBF
:101F20006F772D4F726967696E3A202A00556E6B84
:101F30006E6F776E004E6F74204D6F6469666965D1
:101F400064004F4B004D6F766564207065726D6163
:101F50006E656E746C7900496E7465726E616C208A
:101F6000536572766572204572726F7200506179A6
:101F70006C6F616420546F6F204C61726765004E16
:101F80006F7420666F756E64005757572D417574D6
:101F900068656E7469636174653A20426173696350
:101FA000207265616C6D3D224163636573732072BD
:101FB0006573747269637465642200556E6175742B
:101FC000686F72697A6564005061796C6F61642032
:101FD00073697A652077726F6E6700426164207260
:101FE00065717565737400485454502F312E31203B
:101FF0000020000000000000000000004F4E000024
:1020000000000000004F464600000000000052455E
:1020100053540000000000544F47474C4500000057
:1020200048414C540000000000584F4E0000000092
:102030000000584F46460000000000494E435245FC
:1020400041534500444543524541534500454E41A7
:10205000424C4500000044495341424C4500005564
:102060004E465245455A4500465245455A450000A0
:10207000004155544F000000000046414E5F4F4E56
:102080004C59004849474800000000004D4544496C
:10209000554D0000004C4F5700000000000048451F
:1020A00041540000000000434F4F4C00000000006E
:1020B00044525900000000000053544F50000000EB
:1020C0000000524742000000000000485356000044
:1020D0000000000057726F6E67207061796C616458
:1020E000004354524C2F7478743A204F75744F66E5
:1020F0004D656D6F72793A2000202D3E2041543A93
:10210000004368616E20747970653A004E6F2073E9
:10211000746F7265642076616C756573202D206420
:10212000656661756C743A20002D3E005075623A08
:1021300020006374726C00454E41424C450046528B
:1021400045455A450044495341424C45002D3E0007
:102150005075623A2000636D640046414E5F4F4EF9
:102160004C590044525900434F4F4C00484541548C
:10217000004155544F002D3E005075623A200073C7
:1021800065740064656C002D3E005075623A200055
:102190002D3E005075623A2000556E6B6E6F776E63
:1021A00020636D64200A004F4646004F4E00536185
:1021B00076656420455441473A0053657420455480
:1021C00041473A20000095C1D0AF11241FBECFEF88
:1021D000D1E2DEBFCDBF00E00CBF15E0A0E0B2E071
:1021E000E0ECFCEA01E00BBF02C007900D92A239BF
:1021F000B107D9F72AE0A2E9B5E001C01D92A437E2
:10220000B207E1F710E1C4EED0E100E006C021978B
:102210000109802FFE010E9430CEC33ED10780E02D
:102220000807A9F70E94E2AF0C944ED60C94000068
:10223000FC01818D928D0895FC0184899589089512
:102240002DEA33E0FC0131832083FB014089518971
:1022500062897389FC014283538364837583089583
:10226000DC01ED91FC91048CF58DE02D1994CF9358
:10227000DF931F92CDB7DEB76983DC01ED91FC914E
:102280000280F381E02D41E050E0BE016F5F7F4F9F
:1022900019950F90DF91CF910895FC019485FB0172
:1022A0008485981303C081E0943009F480E0089598
:1022B00021E0FC018485843009F420E0822F089518
:1022C0000895CF93DF931F92CDB7DEB76983DC010A
:1022D000ED91FC910280F381E02D41E050E0BE01E0
:1022E0006F5F7F4F19950F90DF91CF910895DC01BB
:1022F000ED91FC91068CF78DE02D199591E08927E1
:102300000895862F089581E086270895DC0180E0F6
:10231000615038F0ED91E827F0E0EE5CF84E8491E2
:10232000F7CF0895FC01818191E09093E0078093BD
:1023300002081092E10710920308089520913F06C9
:10234000260F3327331F21323105ECF42091DA07B1
:10235000FC0190E080E0243069F082E00895A091D3
:102360003F062191AC01435E594FA40FB52FB11D1B
:102370002C930196861798F380913F06680F60931F
:102380003F0680E0089581E0089508950895E09162
:10239000650680916406E81730F4F0E0EA59F94FD9
:1023A000808190E008958FEF9FEF089590916506EA
:1023B000809164062FEF3FEF981748F4E92FF0E083
:1023C000EA59F94F208130E09F5F90936506C9017B
:1023D00008958091640690916506891B990B089574
:1023E000CF92DF92EF92FF920F931F93CF93DF93E1
:1023F0007C01CB018A012091E007222389F0EB01C7
:102400006B01C40ED51ECC15DD0569F06991D701AD
:10241000ED91FC910190F081E02DC7011995F3CF6A
:10242000642F0E949E11C801DF91CF911F910F91DF
:10243000FF90EF90DF90CF900895CF93DF931F929E
:10244000CDB7DEB769832091E0072223F9F0209110
:102450000308203258F021E030E0FC01338322836E
:1024600090E080E00F90DF91CF9108958091E10797
:10247000E82FF0E0EE51F84F998190838F5F8093C1
:10248000E1078093030881E090E0ECCF61E0CE01AA
:1024900001960E949E11F7CF90E0FC01EF59F24E99
:1024A000E491F0E0EE0FFF1FEF55F34EA591B491CC
:1024B0002C91855E924EFC018491822391E009F477
:1024C00090E0892F0895FC01DC018D918111FDCFF1
:1024D00030E020E050E040E08AE09191992301F162
:1024E000443051055CF59E3271F42F3F310509F0FF
:1024F0002CF5DB01A40FB51F12962C934F5F5F4F95
:1025000030E020E0EACF829FD001839FB00D1124FC
:10251000292F990F330B205331092A0F3B1FDDCF91
:102520002F3F310509F054F4443051053CF4640F59
:10253000751FFB01228381E090E0089590E080E028
:1025400008959FE9980F963010F4875508959FEBF2
:10255000980F963010F48753089580538A3008F00E
:1025600080E00895DC0115968D919C91009739F0DB
:10257000DC01ED91FC910680F781E02D199408951E
:10258000089583E090E008958091B5059091B60597
:1025900008958FE090E0909398068093970688ECDA
:1025A00090E00895FC01848195810895DC011196E5
:1025B000EC911197E295EF70E150EB3008F039C0E3
:1025C000F0E08827E951FD4E8F4F0C9430CE0A136E
:1025D0000A131913F212F212FB121213121312132E
:1025E000F212F21214966D917D918D919C91179734
:1025F0000E9462CC089514966D917D918D919C916D
:10260000179724E630E040E050E00E94C7CDCA01B1
:10261000B901EECF14966C9170E090E080E00E94DA
:1026200060CC089514966D917D918D919C91179732
:10263000089560E070E0CB010895FC01A7812A2F86
:102640002E7FD1F0818182958F7081508330A0F4EC
:10265000A695A150BB0B2BE531E00E9447CE24E6A6
:1026600030E040E050E00E94C7CDDA01C901875652
:102670009F4FAF4FBF4F08958FEF9FEF0895DC013D
:10268000ED91FC91309729F090859F7081E0953015
:1026900009F080E00895FC01A481B581109721F133
:1026A00018969C9118979F708EEF890F823010F0CA
:1026B00091111AC019964D935D936D937C931C975D
:1026C000A481B58118969C911897907F9260189676
:1026D0009C930480F581E02D8085982F907F903623
:1026E00019F48F70806A80870895DC0119968D91A6
:1026F0009C91009739F0DC01ED91FC910280F3810F
:10270000E02D19940895CF93DF93EC01E881F981CE
:102710000484F585E02D199529893A892F5F3F4F6B
:102720003A8B298BDF91CF910895CF93DF93EC0102
:102730008E8581110DC081E090E049895A892C85F0
:102740003D854217530708F080E0DF91CF9108954F
:10275000E881F9810484F585E02DCE0119958F3F3C
:10276000910549F780E090E0F0CFFC0184859585E4
:102770006817790708F4CB01928B818B0895DC01EF
:102780001E962C911E97222339F0ED91FC91019019
:10279000F081E02D6FEF19940895FC0187859089F1
:1027A000089581E0089590E080E00895CF93DF934D
:1027B000CDB7DEB760970FB6F894DEBF0FBECDBFC2
:1027C00019821A821B821C821D821E821F82188619
:1027D0008A818F7080618A836FEF3E819F818885B7
:1027E00029817A815B814C814C873E87888B372F8A
:1027F000452F5C857E85892F988960960FB6F89461
:10280000DEBF0FBECDBFDF91CF9108950F931F9311
:10281000CF93DF9300D000D01F921F92CDB7DEB7C9
:1028200081E028960FB6F894DEBF0FBECDBFDF91D2
:10283000CF911F910F910895CF92DF92EF92FF9267
:102840000F931F93CF93DF93CDB7DEB7AF970FB63C
:10285000F894DEBF0FBECDBF7C016A010DEA13E024
:102860001A8309831C861B8688EE93E0A0E0B0E003
:102870008D879E87AF87B88B85E893E09A87898795
:10288000188F0F8B198E1A8E1B8E1C8E84E089A3D5
:102890001BA70AA71CA61DA61EA61FA6809133086B
:1028A00090913408A0913508B09136088EA39FA36B
:1028B000A8A7B9A78B839C83AD83BE8318861F828C
:1028C000AE01465D5F4FCE0101960E94298981309D
:1028D0009105B1F4D701ED91FC910488F589E02DC3
:1028E0001DA30CA38CA59DA5AEA5BFA58EA39FA3DC
:1028F000A8A7B9A7A601BE016C5D7F4FC7011995B6
:10290000AF960FB6F894DEBF0FBECDBFDF91CF916B
:102910001F910F91FF90EF90DF90CF900895CF928D
:10292000DF92EF92FF920F931F93CF93DF93CDB778
:10293000DEB7AF970FB6F894DEBF0FBECDBF7C01F8
:102940006A010DEA13E01A8309831C861B8688EE50
:1029500093E0A0E0B0E08D879E87AF87B88B85E8D5
:1029600093E09A878987188F0F8B198E1A8E1B8E8A
:102970001C8E84E089A31BA70AA71CA61DA61EA661
:102980001FA68091330890913408A0913508B0912A
:1029900036088EA39FA3A8A7B9A78B839C83AD837A
:1029A000BE8318861F82AE01465D5F4FCE01019641
:1029B0000E94298981309105B1F4D701ED91FC91F4
:1029C0000684F785E02D1DA30CA38CA59DA5AEA5BF
:1029D000BFA58EA39FA3A8A7B9A7A601BE016C5D42
:1029E0007F4FC7011995AF960FB6F894DEBF0FBEA3
:1029F000CDBFDF91CF911F910F91FF90EF90DF90AE
:102A0000CF900895CF93DF93EC01888D843061F0EF
:102A10000E94EF8EE88DF0E0EE0FFF1FE157F94FB7
:102A20001182108284E0888FDF91CF910895EF9218
:102A3000FF921F93CF93DF93FC01208D243039F058
:102A400080E0DF91CF911F91FF90EF9008957B017F
:102A5000EC0110E0812F0E94B28F81110FC0188FFE
:102A6000888D843069F3FD86EC861A8E198E20E0FD
:102A7000A70162E00E94038F81E0E3CF883179F300
:102A80001F5F143039F7ECCF0F931F93182F0E945C
:102A9000D2A204C096958795779567951A95D2F737
:102AA0008B019C0101501109210931090E3F1F4F73
:102AB0002F4F3F4F20F061E070E080E090E01F91E9
:102AC0000F9108950F931F93CF93DF931F92CDB76C
:102AD000DEB78C01DC01ED91FC910084F185E02DE5
:102AE0001995892B79F0BE016F5F7F4FF8018485BE
:102AF0000E94B487898190E00F90DF91CF911F9160
:102B00000F9108958FEF9FEFF7CFFC0184850C9410
:102B10001788CF93DF931F92CDB7DEB741E050E027
:102B2000BE016F5F7F4FFC0184850E9417881816D5
:102B3000190634F4898190E00F90DF91CF910895C8
:102B40008FEF9FEFF9CFFC018485843011F00C9456
:102B5000F58790E080E00895CF93C62F0E949211F0
:102B600061EE89E398E00E941D126C2F89E398E0E2
:102B70000E941D12CF910C948AA01092DA0781E076
:102B80008093D9071092B40761E084E10E94EE9E21
:102B900061E085E10E94EE9EE9EBF0E080818E7FAE
:102BA000808380818D7F808388E48093B80085E472
:102BB0008093BC00089569E072E1811102C06BE06E
:102BC00072E186EC98E00C94208261EC7FE086EC68
:102BD00098E00E942082F0E0E0E0199584EF91E017
:102BE00008956AE779E0811102C065E779E087E737
:102BF00099E00C942082DC0155962C91559727374B
:102C000081F4ED91FC91008CF18DE02D199569E333
:102C100076E087E799E00E94208287E799E00C94AC
:102C2000298108954F925F926F927F92AF92BF92E7
:102C3000DF92EF92FF920F931F93CF93DF9300D019
:102C400000D0CDB7DEB77C01D62E8091190688233F
:102C500009F4BEC0D70114969C9180910402891793
:102C600008F4B6C08091170690911806BAE06B136D
:102C7000F0C089539A4FFC011082D70118960D912C
:102C80001C910115110509F49FC0F8016185728539
:102C90006115710591F4458056806780708480913C
:102CA000270890912808A0912908B0912A08481671
:102CB00059066A067B0609F487C0D8011B964D9118
:102CC0005C911C974115510509F47EC0F7012481E0
:102CD00053968C91539790E0322F377002C09595A0
:102CE00087953A95E2F780FF6FC0A22EB12CC501FF
:102CF000887F9370892B39F451968D919C91887FB0
:102D00009370A82AB92AD8018D919C91DC01ED918C
:102D1000FC916115710509F486C00688F789E02DDC
:102D20001995019709F050C06CE3F80180819181F9
:102D30000E942D81A50170E060E02AE0D8018D910C
:102D40009C910E94DD80F80122818081918168ED53
:102D500076E1222311F066ED76E10E942082D8010F
:102D60001D966D917C911E978D919C910E94BA81C8
:102D700060E2F801808191810E942D81D8011F9627
:102D80006D917C9150978D919C910E94BA81F80130
:102D90002281808191816BEC76E1222311F065EC38
:102DA00076E10E94208267EC75E0D8018D919C91BC
:102DB0000E94BA81F80180819181DC01ED91FC9142
:102DC000008CF18DE02D19951092180610921706BF
:102DD000D70115968D919C911697009771F01496D6
:102DE0003C9120910502231740F0DC01ED91FC910C
:102DF0000190F081E02D6D2D199581E090E02696EF
:102E00000FB6F894DEBF0FBECDBFDF91CF911F91FB
:102E10000F91FF90EF90DF90BF90AF907F906F90F9
:102E20005F904F9008950488F589E02D2DEA33E0F6
:102E30003A832983D80115964D905D906D907C90D2
:102E400018974B825C826D827E82BE016F5F7F4FDE
:102E500067CF8F3491050CF0BBCFBDE06B1709F441
:102E6000B7CF9C012F5F3F4F309318062093170672
:102E700089539A4FFC016083ABCF0C94C9C4CF93A4
:102E8000C1E068EE73E080E090E00E948DA06C2FBE
:102E900086EC98E00E94DB97CF5FC43191F784EF16
:102EA00091E0CF910895CF93DF93009709F490C0FC
:102EB000FC012081222309F48BC0EC016FE771E251
:102EC0000E9466C6892B09F45FC062E371E2CE01FD
:102ED0000E9466C6892B09F45AC066E571E2CE01EC
:102EE0000E9466C6892B09F455C068EA76E0CE01D7
:102EF0000E9466C6892B09F450C064EA76E0CE01D0
:102F00000E9466C6892B09F44BC060EA76E0CE01C8
:102F10000E9466C6892B09F446C06CE976E0CE01B2
:102F20000E9466C6892B09F441C068E976E0CE01AB
:102F30000E9466C6892BE9F164E976E0CE010E9421
:102F400066C6892BC9F16FE876E0CE010E9466C69D
:102F5000892BA9F16BE876E0CE010E9466C6892B29
:102F600089F163E871E2CE010E9466C6892B69F19E
:102F700067E876E0CE010E9466C6892B49F58DE0B0
:102F800090E0DF91CF91089582E090E0FACF89E060
:102F900090E0F7CF81E090E0F4CF88E090E0F1CFCF
:102FA00085E090E0EECF86E090E0EBCF87E090E028
:102FB000E8CF8AE090E0E5CF8BE090E0E2CF8CE0D4
:102FC00090E0DFCF83E090E0DCCF84E090E0D9CFE9
:102FD00090E080E0D6CFCF93DF93EC0163E176E120
:102FE00087E799E00E9420826C817D8187E799E0E4
:102FF0000E94E2976DE076E187E799E00E942082E7
:1030000087E799E00E94298160E08C810E941C9FE3
:103010001092B6051092B50581E090E0DF91CF9156
:103020000895EF92FF921F93CF93DF93192F7B01A7
:10303000C82FD92FD7FF03C0D195C195D10961E021
:103040008C2F0E941C9F82E0E816F10499F460E046
:103050008C2F0E94EE9E68EF74E187E799E00E9452
:10306000208287E799E0DF91CF911F91FF90EF9049
:103070000C942981612FEF2851F46095661F662713
:10308000661F8C2F0E94EE9E64EF74E1E6CF661FF0
:103090006627661F8C2F0E94EE9E6FEE74E1DDCFD7
:1030A000CF93DF9300D000D01F921F92CDB7DEB731
:1030B000E0EBF8E0128A118A80E090E1958784873E
:1030C00084E890E0948B838B81E0868780E090E2B7
:1030D000908B878787E7858B1C821B828FE792E026
:1030E0009A838983FE83ED838FEF9FEF98878F8389
:1030F0006BE775E186EC98E00E9420826091B30551
:103100007091B405CE0101960E94238480EB98E073
:103110000E94FB156BE675E186EC98E00E94208228
:1031200086EC98E00E9429810E9463A928960FB638
:10313000F894DEBF0FBECDBFDF91CF91089565E05B
:10314000FC01808191810E94B393009749F0FC01BA
:103150008085982F907F21F082958F7090E0089560
:1031600090E080E00895FC0186819781009799F0B6
:10317000FC0120852F70223029F4618572858385BA
:1031800094850895253039F460E00E94B393009748
:1031900011F0FC01F2CF60E070E0CB010895CF9315
:1031A000C62F63E0FC01808191810E94B393FC01F2
:1031B000892B11F19085892F8D70F1F4907F9260A9
:1031C000908781859285A385B4858827BB278C2B22
:1031D00081879287A387B4876DEA76E087E799E0D5
:1031E0000E9420826C2F87E799E00E94DB9787E797
:1031F00099E0CF910C942981CF91089563E0FC016F
:10320000808191810E94B393009719F0FC01818520
:1032100008958FEF0895FF920F931F93CF93DF933D
:10322000CDB7DEB764970FB6F894DEBF0FBECDBF43
:103230008C01F62E8FE290E09A838983FE0133960B
:1032400088E0DF011D928A95E9F7F8016681FF2089
:1032500011F081E06827D80114968C910E94EE9EAF
:10326000F80187819085A185B285883E9340A105AC
:10327000B10508F48BC069E576E187E799E00E9423
:103280002082D80114966D917C9187E799E00E9485
:10329000E29764E576E187E799E00E9420826F2D4E
:1032A00070E087E799E00E94E29787E799E00E9443
:1032B00029816BE776E1CE0101960E945BC6F80199
:1032C000828193810E94FE18FF2009F46BC06CE498
:1032D00076E1843151F065E476E1853131F069E3DE
:1032E00076E18F3011F461E476E1CE010B960E9415
:1032F0006FC664E276E187E799E00E942082D801F8
:103300001296ED91FC9113970190F081E02D608170
:103310007181ED91FC910288F389E02D9E012F5F70
:103320003F4FAE01455F5F4FC8011995BC0187E76C
:1033300099E00E94E29762E276E187E799E00E94D5
:103340002082D8011296ED91FC910190F081E02D40
:103350006081718187E799E00E94BA81BE016F5F49
:103360007F4F87E799E00E94BA816FE176E187E7B6
:1033700099E00E942082BE01655F7F4F87E799E058
:103380000E94BA8187E799E00E94298164960FB66E
:10339000F894DEBF0FBECDBFDF91CF911F910F918B
:1033A000FF90089565E376E1823009F49ECF60E3F3
:1033B00076E19BCFCF92DF92EF92FF920F931F9314
:1033C000CF93DF93CDB7DEB760970FB6F894DEBF2B
:1033D0000FBECDBF7C016B01CA01B9012AE0AE016D
:1033E0004F5F5F4F0E940AC7D701ED91FC910288A1
:1033F000F389E02D9801AE014F5F5F4FB601C70121
:10340000199560960FB6F894DEBF0FBECDBFDF9161
:10341000CF911F910F91FF90EF90DF90CF90089583
:10342000892B71F0FB01828193810E945A9562E899
:1034300071E186EC98E00E94208288EC90E008958B
:1034400090E080E0F2CF892B71F0FB0182819381C3
:103450000E940C956BE671E186EC98E00E94208258
:1034600088EC90E0089590E080E0F2CFEF92FF9238
:103470000F931F93CF93DF93CDB7DEB72C970FB683
:10348000F894DEBF0FBECDBF8C017B018DEA93E0C7
:103490009A8389831B821C821D821E8298878F8358
:1034A00019861A861B861C8605301105ECF0BE01B4
:1034B000695F7F4FF701808591850E946312892B98
:1034C00099F0CE0107960E94FD95BE01695F7F4F7E
:1034D000F701868197810E946312892B61F0CE01EA
:1034E00007960E94A7960EC0CE0101960E94FD95F8
:1034F0000430110554F7CE0101960E94A7960330BF
:103500001105A4F1BE01695F7F4FF70184819581A8
:103510000E946312892B51F1CE0107960E945296A8
:10352000BE01695F7F4FF701828193810E94631220
:10353000892B19F1CE0107960E94A89564E471E1E8
:1035400086EC98E00E94208280E00E94919788ECAF
:1035500090E02C960FB6F894DEBF0FBECDBFDF9182
:10356000CF911F910F91FF90EF900895CE0101969A
:103570000E945296023011059CF6CE0101960E94DF
:10358000A89501301105D1F6CE0101960E94A895AB
:103590006BE471E186EC98E00E942082CFCF0F931C
:1035A0001F93CF93DF938C01EB010297C4F08A81C4
:1035B0009B810E94FAC58093050299270E94A497D7
:1035C0000230110549F08C819D810E94FAC58093DB
:1035D000040299270E94AE97C8ECD0E002C0C0E96F
:1035E000D1E060E371E186EC98E00E942082609176
:1035F000050286EC98E00E94DB976BE171E186ECB6
:1036000098E00E9420826091040286EC98E00E947B
:10361000DB9786EC98E00E942981CE01DF91CF9163
:103620001F910F910895CF93DF93EB010297A4F1BF
:1036300066E072E18A819B810E9448C6892B29F449
:103640000E94FC966F770E94419762E072E18A8146
:103650009B810E9448C6892B29F40E94FC966068D1
:103660000E9441976AE071E186EC98E00E94208216
:103670000E94FC966095661F6627661F70E086ECC8
:1036800098E00E94E29786EC98E00E94298188ECFD
:1036900090E0DF91CF9108950E945018F8CFCF921B
:1036A000DF92EF92FF920F931F93CF93DF93EC0182
:1036B0006A017B018E819F81892BD9F48881998150
:1036C0000E94EA97082F10E00530110594F40E943B
:1036D0003386009721F0FC012085207F20879F837F
:1036E0008E83BC01888199810E94BA970F5F1F4F1A
:1036F000EBCFEE81FF81309749F18085982F9F7045
:1037000019F5807F82608087EE81FF81C186D28635
:10371000E386F48665EB76E087E799E00E942082F5
:103720002AE030E0B701A60187E799E00E943481E2
:1037300087E799E0DF91CF911F910F91FF90EF9074
:10374000DF90CF900C9429819230F1F2DF91CF91EC
:103750001F910F91FF90EF90DF90CF9008958F927F
:103760009F92AF92BF92CF92DF92EF92FF920F9310
:103770001F93CF93DF93EC01888199810E94EA9790
:10378000082F10E00430110584F40E94338600975E
:1037900021F0FC012085207F2087BC018881998150
:1037A0000E94BA970F5F1F4FEDCF60E0888199812B
:1037B0000E94B3937C01009751F1FC0180858F70CA
:1037C000843039F5C184D284C114D10401F1F601E9
:1037D00080818823E1F082E0882E8AE0982EB12C47
:1037E000A12C1A2DC4010E9476C6AC01B401C601F9
:1037F0000E948FC6892B09F4AAC0FFEFAF1ABF0A37
:1038000089E0880E911CE7E1AE16B10451F71FEF75
:1038100003C08230E1F711851887C880D98061E044
:10382000C6010E94B3937C019B838A8362E0C60138
:103830000E94B3939D838C8364E0C6010E94B3937E
:103840009F838E83103109F057C08BE090E00E9477
:103850002DC48C01FC01D383C28384E392E0918365
:1038600080831682CE010E94FA9797FD52C0F8011C
:1038700095838483F80184819581009719F08634BB
:1038800091052CF080E290E0F80195838483E114A7
:10389000F10409F44EC0F70180858F70853009F07E
:1038A00048C0C7010E94EA97823008F442C061E034
:1038B000C7010E94B393FC01892BD9F180858F70D9
:1038C000823081F561857285838594850E9462CC02
:1038D00020E030E04AE754E40E94C1CC0E9434CF9B
:1038E000611571058105910541F1F80167837087C4
:1038F000818792871A870987DF91CF911F910F9156
:10390000FF90EF90DF90CF90BF90AF909F908F90FF
:103910000895919581959109F8019583848381E0BB
:103920008683A8CF833029F4618572858385948549
:10393000CFCF60E070E0CB01CBCF88E893E1A0E08F
:10394000B0E0F80187839087A187B287D3CFC60103
:103950000E94B1838A2D90E0B0E0A0E0F70181875A
:103960009287A387B4878085807F8260808754CFC9
:10397000CF93DF93EC01798368831A8619861B86BF
:103980001C8E1B8E0E943F13882329F0CE01DF91ED
:10399000CF910C94AF1BDF91CF910895EF92FF92DE
:1039A0000F931F93CF93DF93EC018B011D821C8239
:1039B0001A821B82E880F980E114F10409F472C0D4
:1039C0008091B3059091B405892B09F46BC0672BE6
:1039D00009F48701F80180858F708630A9F46FEAB9
:1039E00073E0C8010E943B93009719F0FC018185A8
:1039F0008A8364E875E0C8010E943B93009709F44C
:103A000058C0FC0181858B8361EB73E0C7010E9484
:103A10003B93009709F043C06FE376E087E799E0B6
:103A20000E9420826B8187E799E00E94DB976DE31B
:103A300076E087E799E00E9420826A8187E799E033
:103A40000E94DB9787E799E00E942981E880F9804E
:103A50000E9433868C010097D1F0FC018085807F25
:103A600082608087118612861386148680819181F8
:103A7000009711F00E94B18381EB93E00E94E083F4
:103A8000F80191838083B801C7010E94BA9761EB66
:103A900073E0888199810E943B93009719F0099601
:103AA0009D838C83DF91CF911F910F91FF90EF90B9
:103AB0000895F801808191810E94FAC5A4CF1F93D7
:103AC000CF93DF93FC01162FC389D4898189928912
:103AD0009C012F5F3F4F328B218BC80FD91FCE0126
:103AE0000E947FCD181721F0612FCE010E9487CD53
:103AF00081E090E0DF91CF911F910895FC018189D1
:103B00009289248535858217930740F42389348967
:103B1000820F931F0E947FCD90E008958FEF9FEF5B
:103B200008952F923F924F925F926F927F928F9261
:103B30009F92AF92BF92CF92DF92EF92FF920F933C
:103B40001F93CF93DF93CDB7DEB762970FB6F8948C
:103B5000DEBF0FBECDBF5C014B0129013A01CA0196
:103B6000B9010E942DCF1B013F926F938FEE93E01E
:103B70009F938F93CE0101967C019F938F930E9418
:103B800016D30F900F900F900F900F900F9020E092
:103B900030E0A901C301B2010E9463CF181624F0DE
:103BA00077FA709477F87094F70101900020E9F7A4
:103BB00031976F01CE18DF088EE28083A2E0B0E07B
:103BC000AC0FBD1FAC0DBD1DBA8BA98BB10137FE6B
:103BD00003C0719561957109072E000C880B990B34
:103BE0000E9462CC9B01AC01C301B2010E944ECE87
:103BF00020E030E040E251E40E94C1CC0E942DCF91
:103C0000605DE989FA896083FE01EC0DFD1D138278
:103C1000D501ED91FC910288F389E02D9801A7016F
:103C2000B401C501199562960FB6F894DEBF0FBEB8
:103C3000CDBFDF91CF911F910F91FF90EF90DF905B
:103C4000CF90BF90AF909F908F907F906F905F903C
:103C50004F903F902F9008959B0190E00496982FED
:103C60008827642F820F931F0C949987CF93DF933B
:103C7000C82FD0E02496DC2FCC27C60FD71F0E9478
:103C80001E878FE00E9433878D2F0E9433878C2FF1
:103C90000E94338780E00E943387C82F0E941C87D0
:103CA0008C2FDF91CF910895CF93DF93C82FD62F1C
:103CB000472F60E170E00E942C1E4D2F61E170E003
:103CC0008C2FDF91CF910C942C1E90E0982F882799
:103CD00044E050E0845F9B4F0C946A87FC0184852C
:103CE000843011F00C94B28F80E00895CF93DF936D
:103CF000FC0124852430D9F0EC010E946E1E843131
:103D000089F0882379F0883169F021E08C3159F409
:103D1000E881F9810084F185E02DCE01199521E03B
:103D2000892B09F420E0822FDF91CF91089580E064
:103D3000FBCF44E050E0BC018FE090E00C946A8738
:103D400044E050E0BC0185E090E00C946A8744E0D8
:103D500050E0BC0181E090E00C946A8708958F9256
:103D60009F92AF92BF92CF92DF92EF92FF920F930A
:103D70001F93CF93DF93CDB7DEB72D970FB6F8948F
:103D8000DEBF0FBECDBF7C0110E000E038EE832E19
:103D900033E0932EA12CB12C45E3C42E43E0D42E66
:103DA0001C821B828D829E82AF82B886DA82C98293
:103DB0000D87CE0101960E946E1E811135C0F7015C
:103DC0004481558120E061E0802F0E94038F80E5CF
:103DD00090E00E94F99C63E070E0802F0E94361E04
:103DE000833129F462E070E0802F0E94589DF70132
:103DF00084819581000F111FF801E157F94F9183DC
:103E000080832D960FB6F894DEBF0FBECDBFDF9135
:103E1000CF911F910F91FF90EF90DF90CF90BF90C7
:103E2000AF909F908F9008950F5F1F4F0430110542
:103E300009F0B6CFE6CFCF92DF92EF92FF921F93B9
:103E4000CF93DF93FC011485143089F1EC0180E5F8
:103E500090E00E94F99C68E070E0812F0E94589DDC
:103E60000E94D2A26B017C01CE010E946E1E8823AB
:103E7000A1F062E370E080E090E00E948DA00E94DB
:103E8000D2A26C197D098E099F09683E7340810595
:103E9000910550F38C850E94EF8EEC85F0E0EE0FDB
:103EA000FF1FE157F94F1182108284E08C87DF9168
:103EB000CF911F91FF90EF90DF90CF9008954F9298
:103EC0005F926F927F928F929F92AF92BF92CF92AA
:103ED000DF92EF92FF921F93CF93DF93CDB7DEB7C0
:103EE0002D970FB6F894DEBF0FBECDBF7C019FE8C3
:103EF000A92E96E0B92E10E0D12CC12C28EE422E2E
:103F000023E0522E612C712C35E3832E33E0932E67
:103F10001C821B824D825E826F8278869A828982A1
:103F20001D87D5012D913D915D01F701848195811A
:103F300028173907B1F4CE0101960E946E1E843114
:103F400099F1CE0101960E946E1E8C3151F4CE0182
:103F500001960E94A315892B21F4CE0101960E949F
:103F60001B1F1F5F1430A1F6CD2841F4D701ED913E
:103F7000FC910084F185E02DC70119952D960FB6AF
:103F8000F894DEBF0FBECDBFDF91CF911F91FF90A0
:103F9000EF90DF90CF90BF90AF909F908F907F90E9
:103FA0006F905F904F900895CC24C394D12CD9CFBB
:103FB0008F929F92AF92BF92CF92DF92EF92FF9239
:103FC0000F931F93CF936C015B017A01FC01C485B1
:103FD000C430A1F481E090E0F60193838283F12C58
:103FE000E12CC701CF911F910F91FF90EF90DF90CF
:103FF000CF90BF90AF909F908F9008958A014130ED
:10400000584010F000E018E080E590E00E94F99C34
:104010008C2F0E94109E4C0163E070E08C2F0E9458
:10402000361E873111F08C3129F58016910660F328
:1040300080E590E00E94F99C9801A50170E060E0A5
:104040008C2F0E94B09D60E270E08C2F0E94589DE2
:1040500062E070E08C2F0E94361E84FD13C063E086
:1040600070E08C2F0E94361E811107C08C2F0E9499
:10407000EF8EB0CF10E000E0DBCF80E590E00E9453
:10408000F99CE6CF40E162E070E08C2F0E942C1E8C
:10409000012B09F0A6CF9ECF3F924F925F926F9275
:1040A0007F928F929F92AF92BF92CF92DF92EF92C8
:1040B000FF920F931F93CF93DF93CDB7DEB72D976A
:1040C0000FB6F894DEBF0FBECDBF6C015B014A0195
:1040D0000E945F1F8FE8E82E86E0F82E312C10E05A
:1040E00000E098EE492E93E0592E612C712C1C8231
:1040F0001B824D825E826F82788685E393E09A838D
:1041000089833D86F701219131917F01F6018481F8
:1041100095812817390771F4CE0101960E946E1E11
:10412000873141F4A401B501CE0101960E94D81F48
:10413000080F191F3394F4E03F12D9CFC8012D9610
:104140000FB6F894DEBF0FBECDBFDF91CF911F91A8
:104150000F91FF90EF90DF90CF90BF90AF909F9026
:104160008F907F906F905F904F903F900895CF9386
:10417000DF9391E090931C068823B9F0C091B800BA
:10418000D091BA008091BC008A7B8093BC0060E033
:1041900084E10E94EE9E60E085E10E94EE9E0E9416
:1041A000BD15D093BA00C093B800DF91CF910895A8
:1041B000CF92DF92EF92FF920F931F93CF93FC0168
:1041C000C1810E94759F6B017C018091DA0781118A
:1041D00064C081E08093DA078093D9079FEF9093C2
:1041E000D8071092D7071092D6078093B507809111
:1041F000B507CC0FC82BC093B5078091B4078130A9
:1042000009F081C01092B4070E94759F6B017C0178
:104210008091B5078093BB008091DC079091DD070A
:10422000A091DE07B091DF07892B8A2B8B2BA1F0A1
:104230000E94759F0091DC071091DD072091DE0739
:104240003091DF076C197D098E099F090617170742
:104250002807390708F442C08091BC0083FDD8CFFD
:1042600085EC8093BC000E94759F6B017C0180915E
:10427000DA07813009F449C08091D707811167C0FE
:104280008091D707E6EBF7E0A6E6B6E090E0981756
:1042900051F121912D939F5FFACF8091DC0790918E
:1042A000DD07A091DE07B091DF07892B8A2B8B2BCE
:1042B00009F48BCF0E94759F0091DC071091DD07F8
:1042C0002091DE073091DF076C197D098E099F0967
:1042D000061717072807390708F077CF8091DB0703
:1042E0000E94B72080E0109265068093640689E3FF
:1042F00098E00E94D611CF911F910F91FF90EF90FF
:10430000DF90CF90089585EEACCF8091DC0790913F
:10431000DD07A091DE07B091DF07892B8A2B8B2B5D
:1043200009F4A5CF0E94759F0091DC071091DD076D
:104330002091DE073091DF076C197D098E099F09F6
:10434000061717072807390708F091CFC7CF81E074
:1043500099CFAF92BF92CF92DF92EF92FF921F93CD
:10436000CF93DF93EC010E94D2A26B017C0128EE77
:10437000C20E23E0D21EE11CF11C10E08BE4A82E3B
:10438000B12C0E94D2A26C157D058E059F0598F474
:1043900060EFCE010E94AC15CE010E94D820182FEC
:1043A00080FF0BC0ED85FE85309709F01995C5019A
:1043B0000197F1F7E6CF81E08A83812FDF91CF91DA
:1043C0001F91FF90EF90DF90CF90BF90AF90089536
:1043D0001F93CF93DF93EC01162F0E94A921CE01EA
:1043E0000E94921162ED89E398E00E941D12612FF4
:1043F00070E06095709584E0660F771F8A95E1F70D
:10440000612B89E398E00E941D120E948AA0CE01D0
:104410000E94D820811711F084E08A83DF91CF9128
:104420001F910895CF93DF93EC0163EC0E94AC15CC
:10443000CE01DF91CF910C94D8200F931F93CF938F
:10444000DF93EC010E94A92180FD36C0CE010E94BD
:10445000122260E0CE010E94E821CE010E94A92133
:10446000CE010E94921164EB89E398E00E941D1234
:104470000E948AA0CE010E94A921082F10E082FF8D
:1044800016C082E08A838881882341F0CE010E9491
:104490001222682F6160CE010E94E82115950795D0
:1044A000802F8170DF91CF911F910F9108958A81A4
:1044B000823049F71A82E7CF80E0F4CFCF93DF93C1
:1044C000EC010E941222682F6460CE01DF91CF912F
:1044D0000C94E8210F931F93CF93DF93EC01162FD9
:1044E000042F0E94A921002319F0CE010E945E2210
:1044F000CE010E94921165EA89E398E00E941D12A4
:10450000612F89E398E00E941D12DF91CF911F91E6
:104510000F910C948AA06F927F928F929F92AF928C
:10452000BF92CF92DF92EF92FF920F931F93CF93A0
:10453000DF93FC01248521118CC0872E762EEC019F
:104540000E941D22882309F486C0CE010E94A92161
:1045500040E060EFCE010E946A2210E000E0662495
:104560006A94AA24A394B12CE02EE694E694E694EF
:10457000F12C802F8770650101C0CC0C8A95EAF779
:104580008B85082E000C990B0817190734F5FE01CE
:10459000EE0DFF1D93809C20CE010E94A921CE012B
:1045A0000E94921168E789E398E00E941D12992009
:1045B00011F080E8982E692D89E398E00E941D1281
:1045C0000E948AA0CE010E94A921982F907485FF95
:1045D0000BC0992369F08EEF2AC099249394081791
:1045E0001907D1F2912CD8CF911102C087FF602E0C
:1045F000FE01EE0DFF1D938187FF28C0C92AC382EB
:104600000F5F1F4F0034110509F0AECF6B86FFEF2F
:104610006F1202C081E08C872396E72DF82DCF0121
:10462000089629912193E817F907D9F781E0DF91DE
:10463000CF911F910F91FF90EF90DF90CF90BF909F
:10464000AF909F908F907F906F900895C094C922F3
:10465000D6CF80E0ECCF8FEFEACFEF92FF920F93AF
:104660001F93CF93DF938C017B0140E065E50E94AF
:104670006A22E70188E0E80EF11C699140E0C80178
:104680000E946A22CE15DF05C1F7DF91CF911F91FD
:104690000F91FF90EF900895CF92DF92EF92FF92EB
:1046A0000F931F93CF93DF938C01EB017A01FC01F1
:1046B000858196810E941D228823C1F1BE01F801E7
:1046C000858196810E942D2340E06EEBF801858163
:1046D00096810E946A22E7016701F9E0CF0ED11CA2
:1046E000F801E580F680C7010E94A921C7010E9458
:1046F000921166E989E398E00E941D120E948AA047
:10470000C7010E94A92161EEC7010E94AC15C70133
:104710000E94D8208993CC16DD0611F7F801858117
:1047200096810E941D2291E0813009F090E0892F4E
:10473000DF91CF911F910F91FF90EF90DF90CF907D
:104740000895CF93DF93EA010E944C23982F88238A
:1047500041F068E0CE010E94861191E0288528137F
:1047600090E0892FDF91CF910895CF93DF9300D010
:1047700000D000D0CDB7DEB7AE014F5F5F4F0E94D3
:10478000A123882331F08D818F33A9F020F48F315C
:10479000A1F080E007C08F3521F08F37D1F78CE092
:1047A00001C08BE029960FB6F894DEBF0FBECDBFD7
:1047B000DF91CF9108958AE0F5CF89E0F3CF85EDC1
:1047C0008093BC008091DC079091DD07A091DE070B
:1047D000B091DF070796A11DB11D23E0B695A795FF
:1047E000979587952A95D1F72091BC0024FD03C0A9
:1047F0001092DA0708954091DC075091DD0760912F
:10480000DE077091DF07452B462B472B69F3009796
:10481000A105B10541F025E32A95F1F700000197C4
:10482000A109B109E1CF8091DB070C94B7201F9259
:104830000F920FB60F9211240BB60F922F933F9346
:104840004F935F936F937F938F939F93AF93BF9398
:10485000EF93FF938091B900887F803609F44DC0B3
:1048600008F040C0883209F4A9C028F5803109F465
:104870009DC0C8F4882309F4FBC0883009F496C0B1
:10488000FF91EF91BF91AF919F918F917F916F9128
:104890005F914F913F912F910F900BBE0F900FBEE4
:1048A0000F901F901895883109F488C0803241F725
:1048B0008093D80714C0803409F49DC040F480333D
:1048C000B9F38833E9F68093D80785ECB0C080351A
:1048D00009F485C0883509F496C0883489F60E94A9
:1048E000DF23CECF883909F48CC038F5883729F01A
:1048F00050F4883611F0803719F683E08093DA0798
:104900001092630657C0883809F47BC0803919F0CB
:10491000803809F0B5CF80916306803208F071C00D
:10492000E091630681E08E0F809363068091BB0067
:10493000F0E0ED5BF94F80833DC0803B39F0E0F45F
:10494000803A09F479C0883A09F09ACF84E08093DC
:10495000DA071092400610923F06E0913D06F09172
:104960003E06199580913F0681110FC081E080932A
:104970003F0610921D0609C0803C09F4A6CF883C72
:1049800009F4A3CF883B09F07BCFE091400681E09A
:104990008E0F80934006F0E0E35EF94F80818093B4
:1049A000BB009091400680913F0629C08091B507D9
:1049B0008093BB0085EC8093BC0062CF9091D707B9
:1049C0008091D607981758F5E091D70781E08E0FB0
:1049D0008093D707F0E0EA54F84F8081E9CFE09167
:1049E000D70781E08E0F8093D7078091BB00F0E05E
:1049F000EA54F84F80839091D7078091D607981793
:104A0000C8F285E8D8CFE091D70781E08E0F809378
:104A1000D7078091BB00F0E0EA54F84F8083809183
:104A2000D90781115CCF81E08093B40784EA809339
:104A3000BC001092DA0724CF85EC8093BC00109262
:104A4000DA0780916306803230F4E0916306F0E08B
:104A5000ED5BF94F10826091630670E0E0914106D2
:104A6000F091420683E496E019951092630608CF10
:104A70001092D80734CF4F925F926F927F92AF928D
:104A8000BF92CF92DF92EF92FF920F931F93CF933B
:104A9000DF9300D01F92CDB7DEB72B013C012983F5
:104AA0003A834B835C83A6019501C801B701640D6D
:104AB000751D861D971D211531054105510511F004
:104AC0000E94A5CD29813A814B815C8162177307D1
:104AD00084079507D0F4241535054605570530F5AC
:104AE00021E0822F0F900F900F900F90DF91CF91C8
:104AF0001F910F91FF90EF90DF90CF90BF90AF90FC
:104B00007F906F905F904F90089546165706680605
:104B1000790650F421E089819A81AB81BC818415AA
:104B20009505A605B705E8F220E0DBCF21E04616A3
:104B3000570668067906A8F2F7CF8F929F92AF9238
:104B4000BF92CF92DF92EF92FF920F931F93CF937A
:104B5000DF937C014A015901C0911A06D0911B06CE
:104B6000062F660F110B209709F45CC088858F70A3
:104B7000863009F055C064EB73E0CE010E943B9390
:104B80006C0182E08816910449F069EB73E0E3E080
:104B90008E16910429F0D0E0C0E006C06DEB73E002
:104BA000CE010E943B93EC01C114D104D9F1F6016E
:104BB00080858F708430B1F561857285A801C70149
:104BC0000E94BFD2A80162EC73E0C7010E94A1D28B
:104BD000209779F188858F70843059F569857A85B9
:104BE000A801C7010E94A1D2A80162EC73E0C7012D
:104BF0000E94A1D2A114B10429F0A801B501C701F6
:104C00000E94A1D2C701DF91CF911F910F91FF9018
:104C1000EF90DF90CF90BF90AF909F908F900895CE
:104C2000D0E0C0E0A8016BEE76E1C7010E949DC60E
:104C3000C9CFF2E08F16910481F083E088169104C9
:104C400029F06091880670918906CACFA80165EEA7
:104C500076E1C7010E947FC6C7CFA80162EE76E168
:104C6000F8CFCF92DF92EF92FF920F931F93CF93E3
:104C7000DF93CDB7DEB7C154D1090FB6F894DEBFCC
:104C80000FBECDBF6C01AB0130E020E060E4CE018F
:104C900001967C010E949D25F70101900020E9F713
:104CA00031978F010E191F09A801B701C6010E9493
:104CB000B1D2892B11F010E000E0C801CF5BDF4FCB
:104CC0000FB6F894DEBF0FBECDBFDF91CF911F911D
:104CD0000F91FF90EF90DF90CF900895CF92DF92E9
:104CE000EF92FF920F931F93CF93DF93CDB7DEB771
:104CF000C054D1090FB6F894DEBF0FBECDBF80916E
:104D0000970690919806059709F449C061157105B9
:104D100009F445C069017A018B0140E450E0CE01FD
:104D200001960E94BFD26FE270E0CE0101960E9410
:104D300086D2892B41F4980143E050E060E4CE0133
:104D400001960E949D254FE350E0B601CE010196E9
:104D50000E94A1D20E945993882309F1809197065D
:104D6000909198060697D9F480910408811117C094
:104D7000B701CE0101960E94A0A381E090E0C05C43
:104D8000DF4F0FB6F894DEBF0FBECDBFDF91CF91DE
:104D90001F910F91FF90EF90DF90CF90089590E0DA
:104DA00080E0EDCFCF93DF931F921F92CDB7DEB798
:104DB0008091680A9091690A009711F484E79AE05B
:104DC000BE016F5F7F4F681B790B072E000C880BAD
:104DD000990B0F900F90DF91CF9108954F925F92B2
:104DE0006F927F928F929F92AF92BF92DF92EF92DB
:104DF000FF920F931F93CF93DF93CDB7DEB76097EA
:104E00000FB6F894DEBF0FBECDBFFC0119861A861F
:104E10001B861C869A859F7090669A87A081B181B7
:104E2000109709F4F7C08C91882309F4F3C000812E
:104E30001181D8019C91992309F443C09D3209F452
:104E4000EDC090539A3028F00F5F1F4F11830083FD
:104E5000EECFC801D12CDC017D01E81AF90A2D91B1
:104E6000022E000C330B205331092A303105A0F3F8
:104E70005F016EE270E0C8010E9486D2FC010097DB
:104E800009F448C0DC014D018E1A9F0A11968C91DD
:104E90001197082E000C990BC09711960A9798F35A
:104EA0008181282F082E000C330B205331092A3022
:104EB000310518F480330CF06EC020E030E0A90119
:104EC00008C0D12CF12CE12CD3CF29E030E040E018
:104ED00050E0AAE0B0E00E94E6CD2B013C01228127
:104EE000822F022E000C990BC0978A30910570F426
:104EF00020330CF458C02A330CF059C0092E000C92
:104F0000AA0BBB0B480E591E6A1E7B1E811491040E
:104F100009F052C0C8010E9418C62A852F70206A65
:104F20002A872B013C016CE270E0D5018D919C91A8
:104F30000E9486D2009709F068C0F50111821082A4
:104F40004D865E866F86788A88E0FE013996DE019E
:104F5000119601900D928A95E1F729813A814B8152
:104F60005C816D817E818F81988560960FB6F89403
:104F7000DEBF0FBECDBFDF91CF911F910F91FF908C
:104F8000EF90DF90BF90AF909F908F907F906F9049
:104F90005F904F9008958A330CF097CF032E000C4A
:104FA000440B550B96CF80E090E0DC01ABCF89E05D
:104FB00090E0A0E0B0E0A6CFC801B3E08B1691046A
:104FC000DCF4E8E0EE16F104BCF40E9418C69B0184
:104FD000AC01A4E6B0E00E94E6CDDD2041F0709483
:104FE000609450944094411C511C611C711C460EED
:104FF000571E681E791E97CF0E94F6C52B013C01F3
:105000008A858F7080678A878ECF0196D5018D93B0
:105010009C9396CF412C512C320192CFC80101961E
:10502000DD24D39418CFCF92DF92EF92FF920F93AB
:105030001F93CF93DF93EC01A881B981109781F181
:105040008C91882369F108811981F8019081992355
:1050500051F09D3241F090539A3028F00F5F1F4F6E
:1050600019830883F0CFC8010E9418C66B017C0128
:105070006CE270E0C8010E9486D2009769F4198240
:105080001882C701B601DF91CF911F910F91FF9058
:10509000EF90DF90CF900895019699838883F1CFA8
:1050A000C12CD12C7601EDCF4F925F926F927F92FF
:1050B0008F929F92AF92BF92CF92DF92EF92FF9228
:1050C0000F931F93CF93DF93CDB7DEB761970FB6E2
:1050D000F894DEBF0FBECDBF0E94D2A29B01AC01EF
:1050E0006091C3057091C4058091C5059091C60576
:1050F000A12CB12C650118E8E12E13E1F12E00E09E
:1051000010E00E943B25882319F1E0908606F0907C
:105110008706D70112968C91823089F566EB76E18D
:1051200087E799E00E94208287E799E00E94298121
:1051300080918606909187060E941D220E94D2A22D
:105140006093C3057093C4058093C5059093C6050D
:1051500061960FB6F894DEBF0FBECDBFDF91CF9141
:105160001F910F91FF90EF90DF90CF90BF90AF9085
:105170009F908F907F906F905F904F900895809157
:10518000C1059091C205892B09F0DDC083E190E053
:105190000E942DC48C0181E197E7F801928B818BED
:1051A000F682E5821482108289E0818381E0828325
:1051B00083831093C2050093C1050E94D2A26B01A4
:1051C0007C01F0E1CF0EF7E2DF1EE11CF11CD801FB
:1051D0001596ED91FC9116978FEF838714861382B5
:1051E00014821582168217821086118612861496F2
:1051F0001C9299249394BE01665F7F4FF8018581CC
:1052000096810E948B2218160CF071C00E94D2A2C7
:105210006C157D058E059F0508F069C067E0CE011D
:105220000A960E94861199898913E5CFD8018C913D
:10523000811138C015968D919C910E941D22BE014E
:10524000665F7F4FF801858196810E942D2340E0A3
:1052500064EBD80115968D919C910E946A22F80109
:10526000A580B680C5010E94A921C5010E949211A6
:1052700067E889E398E00E941D1260E889E398E0FE
:105280000E941D120E948AA0C5010E94A921B82E69
:10529000D80115968D919C910E941D22B5FC02C0EB
:1052A000F8019082AE014F5F5F4FBE01665F7F4F96
:1052B000C8010E944C23D8011196BC908A85803188
:1052C00009F48CC2BE01665F7F4FC8010E94B523FE
:1052D0008B1558F5F8018181D80111968C9311979F
:1052E00014968C9114978F5F14968C9384CF10E052
:1052F00000E08091C1059091C2052091BF053091D9
:10530000C00502171307ECF49801B3E0220F331F16
:10531000BA95E1F76091BD057091BE05620F731FEC
:105320000E94C0A00F5F1F4FE4CF8A85803111F427
:105330008CE0D2CFBE01665F7F4FC8010E94B523CB
:10534000CBCFFC0112828091BB059091BC052091CE
:10535000BF053091C005821793070CF4D5C00E9499
:10536000D2A22B013C01E0918606F091870630978E
:1053700059F08FEF83871486138214821582168268
:1053800017821086118612864091BF055091C00584
:10539000E091B705F091B80590E080E0841795079B
:1053A0000CF48EC088248394912C80918606909171
:1053B0008706009709F48DC02091BF053091C00584
:1053C000F3E0220F331FFA95E1F76091BD0570916C
:1053D000BE05620F731F0E948B2218160CF079C055
:1053E0008091BF059091C00541970CF072C00E945A
:1053F000D2A29B01AC01A12CB12C650118E8E12ED1
:1054000013E1F12E00E010E0C301B2010E943B2540
:1054100081115FC0C090BD05D090BE05A090BF05B2
:10542000B090C005850173E0000F111F7A95E1F778
:105430000C0D1D1D67E0C8010E948611D80117964A
:105440009C91F12CE12C8913B0CFEA14FB040CF0F1
:1054500057C148E050E0B801C6010E9440D2B8E010
:10546000CB0ED11C892B09F04BC0EE0CFF1CE09138
:10547000B705F091B805EE0DFF1D80819181816027
:105480009183808360EA76E187E799E00E94208239
:105490008091BF059091C00563E0880F991F6A95C0
:1054A000E1F72091BD053091BE05820F931F0E9448
:1054B000879C69E976E187E799E00E94448275CF8D
:1054C00021913191DF0112972E7F2D933C9301960C
:1054D00065CF67EA76E187E799E00E9420826091D4
:1054E000BF057091C00587E799E00E94E29787E7C2
:1054F00099E00E9429811092BC051092BB051ECE36
:10550000EFEFEE1AFE0AA1CF0091BD051091BE0586
:105510009C0143E0220F331F4A95E1F7020F131F4E
:10552000D8012C91283209F0DBC0AE014F5F5F4FEC
:10553000B8018091C1059091C2050E94A1238111FB
:1055400005C020E030E04EEF52EC3EC06A8170E0D2
:10555000762F6627770F770F770F2981B8E02B9F7B
:1055600090011124262B372BF80180818031D1F452
:10557000688570E08F81AB01481B5109CA0196957F
:10558000982F8827979587950E941CCECB0140972E
:10559000B90113E0660F771F1A95E1F760789C0157
:1055A000260F371F213854EE35075CF2B901330F4F
:1055B000880B990B0E9462CC20E030E040E05CE375
:1055C0000E94C1CC9B01AC01E091B905F091BA05F4
:1055D0008091BB059091BC05BC01A3E0660F771FCD
:1055E000AA95E1F7A091BD05B091BE056A0F7B1F9A
:1055F000309709F019950091C1051091C205E0900E
:10560000BB05F090BC0573E0EE0CFF1C7A95E1F74A
:105610008091BD059091BE05E80EF91ED7018C91D1
:10562000803109F463C0B701C8010E94B523D82EA8
:10563000882309F451C0F801858196810E941D22BA
:10564000882309F449C0B701D80115968D919C9122
:105650000E942D23F801408164E4858196810E9497
:105660006A22D80112968C918823B1F1E7EFED0DF3
:105670004EEE842E42E0942EE33038F4F0E0EE0F4C
:10568000FF1FEF56FD4F80809180E114F10489F1F6
:10569000F8018381882369F1808181112AC00E94E9
:1056A000D2A22B013C01092C000CAA08BB08AE01B8
:1056B0004F5F5F4FB701C8010E944C238981811160
:1056C0000BC00E94D2A2681979098A099B09641546
:1056D00075058605970558F38091BB059091BC052B
:1056E00001969093BC058093BB0528CD6CE0D62E27
:1056F000A2CFB401990C880B990B0E948DA0ECCF1E
:105700008091C1059091C205892B09F44ECE88E0A5
:10571000815008F44ACEF801E80FF11D90819923D9
:10572000B9F3AA0CBB1C8091B7059091B805A80EDF
:10573000B91ED5018D929C9264E976E187E799E0E4
:105740000E9420826091BF057091C00587E799E0B3
:105750000E94E2976DE876E187E799E00E94208257
:105760008091BF059091C00523E0880F991F2A956D
:10577000E1F72091BD053091BE05820F931F0E9475
:10578000879C87E799E00E9429818091BF059091CD
:10579000C00533E0880F991F3A95E1F76091BD0588
:1057A0007091BE05680F791FFB018081883261F41A
:1057B0008091C1059091C2050E94C0A0809186068B
:1057C000909187060E945E228091BF059091C0054E
:1057D00001969093C0058093BF05E7CDFCE0FB15D3
:1057E00008F478CDA5CD6DEC74E186EC98E00E94CC
:1057F00020826AEB74E186EC98E00E9420826CEAD9
:1058000074E186EC98E00E94208264EA74E186EC00
:1058100098E00E94208286EC98E00E94298164E949
:1058200074E186EC98E00E94208268E874E186ECDE
:1058300098E00E9420826BE774E186EC98E00E9479
:10584000208266E674E186EC98E00E94208267E59B
:1058500074E186EC98E00E9420826FE474E186ECAB
:1058600098E00E94208264E474E186EC98E00E9453
:10587000208267E374E186EC98E00E9420826DE26A
:1058800074E186EC98E00E9420826EE174E186EC7F
:1058900098E00E94208266E174E186EC98E00E9424
:1058A00020826AE074E186EC98E00E94208260EF3A
:1058B00073E186EC98E00E94208261ED73E186EC52
:1058C00098E00E9420826CEB73E186EC98E00E94E5
:1058D00020826FEA73E186EC98E00E94208261EA00
:1058E00073E186EC98E00E94208265E973E186EC22
:1058F00098E00E9420826DE873E186EC98E00E94B7
:10590000208262E873E186EC98E00E94208265E7DD
:1059100073E186EC98E00E9420826DE673E186ECEC
:1059200098E00E94208262E673E186EC98E00E9493
:10593000208263E573E186EC98E00E9420826AE4AD
:1059400073E186EC98E00E9420826CE373E186ECC0
:1059500098E00E9420826EE273E186EC98E00E945B
:10596000208286EC98E00C942981009789F0FC0154
:1059700020852F70253061F40E94B393009741F089
:10598000FC0120852F70243019F4818592850895BB
:1059900090E080E00895CF92DF92EF92FF920F9314
:1059A0001F93CF93DF9300D000D0CDB7DEB78091A7
:1059B000190681119AC080919706909198060297D6
:1059C0000CF493C08091B3059091B405009709F44D
:1059D0008CC066EC73E00E943B938C01009709F445
:1059E00084C00E94EA97E82EF12CE114F10409F436
:1059F0007CC070E060E0C8010E94B52C6C01EA94A4
:105A0000EF2809F481C061E0C8010E94B393FC0152
:105A100001851285CE0101960E94FC9CCE01019663
:105A20000E941A9D64E37DE086EC98E00E9420824B
:105A3000B60186EC98E00E94BA816DEC73E086ECCA
:105A400098E00E94BA81B80186EC98E00E94E29743
:105A50006DEC73E086EC98E00E94BA8163EA77E02F
:105A600086EC98E00E94BA8186EC98E00E94298139
:105A700062E072E085E999E00E941715D0928B09E7
:105A8000C0928A0910938D0900938C0983EA97E0EC
:105A9000892BE9F584EC93E090938F0980938E092C
:105AA00080918A0690918B06009741F070E060E04B
:105AB0000E94B52C90938906809388068091880671
:105AC00090918906009731F1909391098093900904
:105AD000109293091092920981E0809319066BE16C
