:100000000C94240C0C94550C0C94550C0C94550C1D
:100010000C94550C0C94550C0C94550C0C94550CDC
:100020000C94550C0C94550C0C94550C0C94550CCC
:100030000C94550C0C94550C0C94550C0C94550CBC
:100040000C94550C0C94550C0C94550C0C94550CAC
:100050000C94550C0C94550C0C94550C0C94E48198
:100060000C94550C0C94D97A0C94AF7A0C94550CD2
:100070000C94550C0C94550C0C94550C0C94550C7C
:100080000C94550C0C94550C0C94550C0C94550C6C
:100090000C94550C0C94550C0C94550C0C94772323
:1000A0000C94550C0C94550C0C94550C0C94550C4C
:1000B0000C94550C0C94550C0C94550C0C94550C3C
:1000C0000C94550C0C94550C0C94550C0C94550C2C
:1000D0000C94550C0C94550C0C94550C0C94550C1C
:1000E0000C94550C87877A87DF87DF87DF87DF8768
:1000F000DF87DF87DF87DF87DF87DE83A986AC8640
:10010000B886D4860487CD86DF87DF87DF87DF87E1
:10011000DF87A787B987D487160D3C0D6F0D780D43
:100120007B0D6F0D4C0D6F0D860D890D5D0D950DC1
:10013000980D2C13911460137C1391149E13911439
:10014000D213EE1310144714631419152A151C1535
:100150001C152A151F152A152215221522152215E0
:1001600022151C15B518A518A518B518B518AD1881
:10017000B518B518AD18B518AD18A518B5181719D4
:100180002019E918E918D718DC18201920191919AD
:100190000019902F7F2F822F8A2F8A2F822F7F2F57
:1001A0008A2F8A2F8A2F7F2F7F2F7F2F8A2F8A2FA8
:1001B0008A2F8A2F8A2F8A2F8A2F8A2F8A2F8A2F77
:1001C000902FC831BF31C831D731D031D031BF3194
:1001D000BF31C831C831BF31BF31D731D0316F36AF
:1001E000323569373235693779367936F036ED365A
:1001F000EB35EB356F366F36693779367135DB3570
:100200005C355F35DB35DB35453542359435743546
:10021000DB35DB35DB359F3521365F360736163665
:100220005F365F36FF35FB353E3631365F365F363B
:100230005F36C73596368936C936DD36B536B536BA
:10024000C936C9369636C9369B36A936DD36B53637
:1002500011374B37923711374B374B37013701374F
:100260001137E33969516C5184519B51E551F85173
:100270001852646E676E566E5A6E606E9E6E6B6E2E
:100280006F6E756E796E7D6E836E876E8B6E9E6EF1
:10029000916E956E996E336F386F3D6F476F516FEA
:1002A000CA6F5B6F636F6B6F756F7F6F896F986FCE
:1002B000A26FCA6FAC6FB66FC06F5673A573CB7366
:1002C0000C74287428749174AE745673CB7389734C
:1002D0006D73CE742874EB75F775EB750476F07555
:1002E000F075E675E675EB75EB75E675E675047603
:1002F000F075AF81AC81AC81AF81AF81B181B1814B
:100300006281AF81AF8107634236B79BD8A71A39A4
:10031000685618AEBAAB558C1D3CB7CC5763BD6D53
:10032000EDFD753EF6177231BF000000803F0800FA
:100330000000BE922449123EABAAAA2ABECDCCCC64
:100340004C3E00000080BEABAAAAAA3E00000000FE
:10035000BF000000803F0000000000084178D3BBD0
:100360004387D1133D190E3CC3BD4282AD2B3E687D
:10037000EC8276BED98FE1A93E4C80EFFFBE01C46E
:10038000FF7F3F00000000000C94873C0C94756ECA
:100390000C94483A0C94B66F0C943D6F0C946951D0
:1003A0000C9491740C9421280C94986F0C94E17225
:1003B0000C94765D0C9489360C944E460C94AB509C
:1003C0000C94E8770C94DC180C946F6E0C94980DD8
:1003D0000C94902F0C942C130C9411470C94160D24
:1003E0000C9418520C94E2540C94EE130C94CD3FE0
:1003F0000C9416360C9425790C94476F0C94923714
:100400000C94822F0C94FB350C9407360C94DF87E8
:100410000C946B6F0C9420500C9494350C94C83150
:100420000C94583C0C94C7350C949B360C94CE74A9
:100430000C94780D0C94E11F0C94853B0C94CA6FBE
:100440000C94D4860C94AF810C94756F0C944C3A38
:100450000C9442350C94646E0C94D0720C94FF7220
:100460000C94836E0C94BE720C94323A0C942379E3
:100470000C94F0360C94274F0C94AD180C94E9189A
:100480000C94E6750C9432350C94876E0C94B18103
:100490000C94950D0C94EB750C94BF310C94911445
:1004A0000C94C06F0C94FE720C94A24F0C9417190C
:1004B0000C9411370C94CC0E0C94B61F0C94E5726E
:1004C0000C942E0F0C948A2F0C946C510C947D6E0E
:1004D0000C940C740C9421360C94D7310C94E45485
:1004E0000C942E3B0C94FF350C9422150C94336F16
:1004F0000C94D5720C9404870C94860D0C94DD72C8
:100500000C94E3390C946D3A0C94ED540C94845C87
:100510000C94A7870C945B6F0C943E360C941014CB
:100520000C9421780C94D1290C940C690C94A51886
:100530000C94F1670C94D7180C947F2F0C94676E71
:100540000C94890D0C94385D0C94B8860C940E2094
:100550000C947B0D0C9404760C94896F0C94A93642
:100560000C945C350C9401550C94386F0C94D75B4B
:100570000C946D460C944C0D0C94AC6F0C94B529F6
:100580000C949B4F0C9469370C94A5730C945F36B4
:100590000C94DE830C94B5180C945A0C0C94D487EC
:1005A0000C94AE740C9419190C9445350C944B377B
:1005B0000C94E5510C94ED360C9435780C94566EF1
:1005C0000C94E2670C9431500C94513B0C94C27221
:1005D0000C94C9360C9479360C94CB730C94264247
:1005E0000C94364F0C94F7750C94796E0C94623F12
:1005F0000C94F5720C94B63C0C94103C0C947B78E3
:100600000C94D91F0C94AC810C949E6E0C946B6E60
:100610000C9462810C948B6E0C9419150C9472538B
:100620000C9445790C947A870C94C51F0C94B536BC
:100630000C94D2130C945D0D0C94D2720C947C1318
:100640000C9456730C94132A0C94A26F0C94878705
:100650000C945A6E0C944E500C943C0D0C941D76D8
:100660000C943F3D0C940B3B0C9447140C94373B7B
:100670000C94F63A0C94C6720C94C8780C947F6F64
:100680000C94606E0C9428740C94BC3A0C94956E87
:100690000C94EB350C94FA790C94698E0C942928FF
:1006A0000C9400190C94916E0C9452610C946A5540
:1006B0000C9420190C94570C0C94CD3B0C9489731A
:1006C0000C94573A0C9401370C942A150C94A98673
:1006D0000C94734F0C9474350C94E33E0C942B28BB
:1006E0000C9424280C9443780C94F0750C946D733E
:1006F0000C949F350C94B41F0C94143B0C94A82AB2
:100700000C947B3A0C94614F0C94FF0D0C94313691
:100710000C94A60E0C946F0D0C949E130C94B98738
:100720000C949B510C94DD360C941C5C0C94DB35C2
:100730000C94A6410C94AC860C946F360C941C154A
:100740000C94F45B0C9412780C946F290C949646DC
:100750000C9460130C94993A0C94F8510C94638E99
:100760000C941F150C9484510C9496360C945F35A0
:100770000C94D0310C9463140C94996E0C94B51FA6
:100780000C94CD860C94636F0C94516F0C9471355E
:100790006364696E6F70737578585B003E3E3E000F
:1007A0004E6F204D414320636F6E666967757265B9
:1007B000643A20736574206669726D77617265278B
:1007C00073204D41430A00476F74204950206164F3
:1007D00064726573733A00276970205B69705B2CE3
:1007E000646E735B2C67775B2C7375626E65745DEA
:1007F0005D5D5D27202D20736574207374617469BD
:10080000632049500A004661696C656420746F205A
:10081000636F6E6669677572652045746865726E90
:100820006574207573696E6720444843502E2059C3
:100830006F752063616E20736574206970206D612F
:100840006E75616C6C7921000A757365732044487C
:1008500043500A00204D41534B3A002047573A007D
:1008600020444E533A004C6F616465642066726F99
:100870006D20666C6173682049503A005374617250
:1008800074696E67206C616E00757074696D652C9B
:1008900066726565686561700024737461747300C5
:1008A000386230626134345F323032312D30332D72
:1008B0003039004C696768744875622000246E61A5
:1008C0006D650072656164790020747279206167DA
:1008D00061696E20696E2035207365636F6E647385
:1008E000006661696C65642C2072633D004177612C
:1008F0006974696E6720666F722072657461696ED3
:10090000656420746F7069637300636F6E6E6563F6
:100910007465642061732000202E2E2E00207573D4
:1009200065723A003A000A417474656D7074696EBC
:1009300067204D51545420636F6E6E656374696F08
:100940006E20746F20002473746174650064697391
:10095000636F6E6E6563746564005573696E6720BE
:100960004D5154542070617373776F7264206672B6
:100970006F6D20636F6E666967004E3A004465765E
:10098000696365204E616D653A00526562696E6407
:1009900020737563636573732E204950206164640E
:1009A000726573733A004572726F723A20726562B3
:1009B000696E64206661696C0052656E6577656476
:1009C00020737563636573732E20495020616464DE
:1009D000726573733A004572726F723A2072656E77
:1009E00065776564206661696C000A4E6F206C69EA
:1009F0006E6B00416363657074696E6720636F6D31
:100A00006D616E64732E2E2E0A00556E6B6E6F77BD
:100A10006E207375666669782000556E6B6E6F7711
:100A20006E20636D642000636C724374723A200020
:100A30002F00496E3A20002D3E0020002300506513
:100A40006E64656420737461746520726574726984
:100A5000657665643A003D004C454741435920495D
:100A60004E3A003D00494E3A000000200023002687
:100A70000029002C002F00320000010000030106B5
:100A80000109014452590046414E5F4F4E4C5900F6
:100A9000584F4E0048414C54002054533A003A00FD
:100AA00020543A003D0050696E3A00447269766500
:100AB00072205265733A00416C7265616479204816
:100AC000616C7465640A00416C72656164792049E7
:100AD0006E6163746976650A00416C726561647960
:100AE000204163746976650A005475726E696E6799
:100AF00020584F4E0A00584F464620736B6970705D
:100B000065642E205072657620636D643A005475DA
:100B1000726E6564206F66662066726F6D3A005271
:100B20006573746F7265642066726F6D3A004E6F04
:100B30002073746F7265642076616C756573202D07
:100B40002064656661756C743A200049676E6F7247
:100B500065642C206368616E6E656C20636D643D16
:100B6000004F75744F664D656D6F7279210A003BB9
:100B7000200020436D643D00205375623D002049F4
:100B800074656D3D0052414D3D00696E00735F6FAD
:100B90007574006D79686F6D6500202D3E20002012
:100BA0002D3E2000202D3E2000204F464600204FA5
:100BB0004E00757074696D65006672656568656183
:100BC0007000200020000A52414D3D002045787001
:100BD000697265640A00202D746172676574207AF9
:100BE0006F6E652D0020416C61726D2045787069D3
:100BF0007265640A0020636D643A00204375723A9E
:100C000000205365743A0050574D2D4F757420499C
:100C10006E69740050574D2D4F75742073746F704A
:100C2000002076616C3A005247422050574D002018
:100C300050574D00524742572050574D003D0050ED
:100C4000696E3A000000000000000000004F4E00F6
:100C50000000000000004F46460000000000005267
:100C60004553540000000000544F47474C450000D6
:100C70000048414C540000000000584F4E00000056
:100C8000000000584F46460000000000494E435205
:100C9000454153450044454352454153450048456D
:100CA00041540000000000434F4F4C000000000082
:100CB0004155544F000000000046414E5F4F4E4CDE
:100CC000590044525900000000000053544F500096
:100CD000000000004849474800000000004D45441E
:100CE00049554D0000004C4F5700000000000054D3
:100CF000525545000000000046414C53450000009D
:100D000000454E41424C4544000044495341424C49
:100D1000454400524742000000000000485356007E
:100D2000000000000054787432436D643A0053743C
:100D30006F726564204558543A00536176656420AB
:100D40003A002D3E005075623A2000636D64004306
:100D50004F4F4C0048454154004155544F002D3EE3
:100D6000005075623A200065736574007365740005
:100D70002D3E005075623A20002D3E005075623ABB
:100D80002000556E6B6E6F776E20636D64200A00D5
:100D90004F4646004F4E005374617475732064656E
:100DA0006666657265640A002D3E0057726F6E6755
:100DB0002041737369676E6D656E742000524742FF
:100DC000783A200020764C6576656C3A0020436FB7
:100DD0006E76563A0020436F6E76533A0020486F85
:100DE000743A00436F6C643A0020436F6E7665720C
:100DF00074656420563A00436F6E7665727465645C
:100E000020533A00436F6E76205247423248535681
:100E10003A002D3E0057726F6E6720417373696709
:100E20006E6D656E7420002D3E0057726F6E6720E8
:100E300041737369676E6D656E7420002D3E0057B7
:100E4000726F6E672041737369676E6D656E742093
:100E500000005EBCE2613FDD83C29C7E20A3FD1FDB
:100E6000419DC3217FFCA2401E5F01E3BD3E608225
:100E7000DC237D9FC1421CFEA0E1BF5D0380DE3C00
:100E800062BEE0025CDF81633D7C22C09E1D43A107
:100E9000FF4618FAA427799BC584DA3866E5BB5962
:100EA00007DB856739BAE406581947A5FB7826C4DD
:100EB0009A653BD987045AB8E6A7F91B45C6987AC4
:100EC00024F8A6441A99C7257B3A6486D85B05E7BF
:100ED000B98CD2306EEDB3510F4E10F2AC2F71932E
:100EE000CD114FADF3702ECC92D38D6F31B2EC0E8D
:100EF00050AFF1134DCE90722C6D33D18F0C52B098
:100F0000EE326C8ED0530DEFB1F0AE4C1291CF2D6E
:100F100073CA947628ABF517490856B4EA6937D5F1
:100F20008B5709EBB536688AD495CB2977F4AA4854
:100F300016E9B7550B88D6346A2B7597C94A14F64B
:100F4000A8742AC896154BA9F7B6E80A54D7896B36
:100F5000352C20002E003A004D41433A00554450B4
:100F6000205379736C6F6720696E697469616C696D
:100F70007A65642E0A005379736C6F672070617212
:100F8000616D733A003E003C00543A004375727242
:100F9000656E74204C414E20636F6E6669672869E8
:100FA000702C646E732C67772C7375626E65742970
:100FB0003A000A55736520746865736520636F6D28
:100FC0006D616E64733A202768656C7027202D2050
:100FD0007468697320746578740A276D616320648E
:100FE000653A61643A62653A65663A66653A3030F8
:100FF000272073657420616E642073746F7265209E
:101000004D41432D6164647265737320696E2045A0
:101010004550524F4D0A276970205B69705B2C6404
:101020006E735B2C67775B2C7375626E65745D5DA8
:101030005D5D27202D20736574207374617469636E
:101040002049500A277361766527202D2073617629
:101050006520636F6E66696720696E204E56524147
:101060004D0A2767657427205B636F6E666967208A
:10107000616464725D27202D2067657420636F6E44
:101080006669672066726F6D207072652D636F6E82
:10109000666967757265642055524C20616E6420E4
:1010A00073746F726520616464720A276C6F616487
:1010B00027202D206C6F616420636F6E6669672046
:1010C00066726F6D204E5652414D0A277077642725
:1010D000202D20646566696E65204D515454207042
:1010E000617373776F72640A276B696C6C27202DAC
:1010F0002074657374207761746368646F670A276E
:10110000636C65617227202D20636C6561722045D8
:101110004550524F4D0A277265626F6F7427202D1C
:10112000207265626F6F7420636F6E74726F6C6C87
:10113000657200536F6674207265626F6F74696EBA
:10114000672E2E2E000944533234383220657272D5
:101150006F720009526573657420646F6E650009D3
:10116000436865636B696E6720666F7220312D5727
:1011700069726520646576696365732E2E2E00445E
:1011800053323438322D3130302070726573656ED1
:1011900074004572726F7220312D7720696E697408
:1011A00020233220467265653A0077737461742E8D
:1011B00020467265653A005465726D2E2046726550
:1011C000653A004572726F7220312D7720696E6921
:1011D0007420233100467265653A00445332343836
:1011E000325F3130305F4932435F544F5F31575F78
:1011F00042524944474520696E6974002041646445
:10120000723A00646576230052414D3D000A312D4B
:101210007769726520000A6D71747420000A696E26
:101220007075747320000A6974656D7320000A4339
:101230006F6E666967757265643A003B003D0050E9
:10124000696E3A003B003D4C4F5700546865726D23
:101250006F3A004F6E652077697265205265616450
:10126000790A004C6F61646564006C6F616420668C
:1012700061696C6564004E6F2073746F72656420E1
:10128000636F6E666967004C6F6164696E672043C7
:101290006F6E6669672066726F6D20454550524FCC
:1012A0004D000A72657175657374204D5154542058
:1012B000436F6E66696700536176656420746F20C2
:1012C000454550524F4D00536176696E6720636FFC
:1012D0006E66696720746F20454550524F4D2E2E23
:1012E0000053617665640A005365742064796E6109
:1012F0006D69632049500A00454550524F4D2063A7
:101300006C65617265640A0050617373776F726413
:1013100020757064617465640A00636F756C642085
:101320006E6F742070617273653A2000557064614D
:101330007465640A002B002D00485454502F312E40
:10134000312025690020485454502F312E310D0A88
:10135000486F73743A2025730D0A41636365707496
:101360003A202A2F2A0D0A436F6E6E656374696FE7
:101370006E3A20636C6F73650D0A002573002000C0
:101380000D0A00474554006661696C656420746FFE
:1013900020636F6E6E6563740A004552524F523A75
:1013A000205365727665722072657475726E65641D
:1013B0002000446F6E652E0A004170706C79696E72
:1013C000672E0A00436F6E666967207061727369E9
:1013D0006E67206661696C65640A00676F742043FC
:1013E0006F6E6669670A00436F6E666967205552C3
:1013F000493A20687474703A2F2F00204465666162
:10140000756C7420636F6E666967207365727665AC
:101410007220757365643A20006C617A79686F6D2B
:10142000652E727500205361766564000A282B29A9
:101430005359534C4F47000A282D29504944000A5C
:10144000282D294D43503233303137000A282D29B9
:101450004152544E4554000A282D294F5441000A48
:10146000282D29535049204C4544000A282D294D48
:101470004F544F5220435452000A282D29414320F3
:101480004841494552000A282D29434353383131F8
:1014900020262048444331303830000A282D295274
:1014A0004553544152545F4C414E5F4F4E5F4D5136
:1014B00054545F4552524F5253000A282D29484137
:1014C000524452455345542C207573696E672073FE
:1014D0006F6674000A282D29434F554E544552001B
:1014E0000A282D29444854000A282B294F574952CD
:1014F00045000A282D294D4F44425553000A282DF6
:1015000029444D58000A282B2957697A6E6574358D
:10151000783030000A282B294453323438322D31A8
:101520003030000A282B294672656552616D2070A3
:1015300072696E74696E670064653A61643A6265E7
:101540003A65663A66653A6566000A4669726D777D
:10155000617265204D41432041646472657373205C
:10156000006C617A79686F6D652E7275000A436F41
:101570006E666967207365727665723A000A282B79
:10158000295741544348444F4700323031313033BA
:101590004C0020432B2B2076657273696F6E3A00E6
:1015A000386230626134345F323032312D30332D65
:1015B0003039000A4C617A79686F6D652E7275203A
:1015C0004C6967687448756220636F6E74726F6CE3
:1015D0006C65722000312D7769726520636F756EBE
:1015E000743A200020416464723A006465762300F6
:1015F00020616C69766500204E6F64653A00536522
:1016000061726368696E6700312D77697265207356
:10161000686F72746564005B305D3A2000202D2095
:101620002D202D20EFBBBF003E003E31202D20009D
:1016300000002100240027002A002D003000330084
:1016400001010000040107010A0100002200250039
:1016500028002B002E00310034000201000005019B
:1016600008010B0105050505070508080808020221
:1016700002020A0A0808040404040101010101012C
:1016800001010303030303030303040707070C0C0F
:101690000C0C0C0C0C0C02020202060606060606D6
:1016A00006060B0B0B0B0B0B0B0B0102102020087B
:1016B00008102040102040800201020108040201AD
:1016C000010204081020408080402010080402011C
:1016D0008004020180402010080402010804020175
:1016E00001020408102040800102040810204080FC
:1016F00000000A0B02090C0D0E080703040100008C
:1017000000000000000000000000000000000000D9
:101710000000000000000000000000001211100096
:1017200000000000000000000000000000000000B9
:1017300000000000000020537566663A0020415406
:101740003A00206973200044656C6574696E6720F7
:10175000636F6E662E2052414D207761733A0053BD
:10176000746F707065640053746F7070696E672079
:101770006368616E6E656C73202E2E2E00556E6C44
:101780006F636B696E6720636F6E666967202E2ECC
:101790002E00536B697070696E672E2E004F757442
:1017A0004F664D656D6F727921005D20000A5B0008
:1017B0003E3E2000496E76616C696420636F6D6DFA
:1017C000616E6400436C72466C61673A00536574E5
:1017D000466C61673A0076616C0074656D700073E9
:1017E0006174006875650066616E0052474200488A
:1017F0005356006D6F646500536574436D643A0021
:10180000737566666978436F64653A002061637436
:10181000697665200020696E6163746976652000D1
:101820002076616C7565206973200020756E6B6E83
:101830006F776E0A00204772703A0020696E7661F9
:101840006C696400698E638E11241FBECFEFD1E2F4
:10185000DEBFCDBF00E00CBF15E0A0E0B2E0E8EDD8
:10186000F1E401E00BBF02C007900D92A63EB10764
:10187000D9F72BE0A6EEB5E001C01D92A834B2075F
:10188000E1F71CE0C3E2DCE000E006C021970109BB
:10189000802FFE010E94549BC232D10780E00807CE
:1018A000A9F70E942E820C94DAA00C94000081E02B
:1018B00090E00895CF92DF92EF92FF920F931F93E3
:1018C000CF93DF93CDB7DEB760970FB6F894DEBF46
:1018D0000FBECDBF7C016B01CA01B901AE014F5FE4
:1018E0005F4F0E94F925D701ED91FC910288F389A1
:1018F000E02D9801AE014F5F5F4FB601C70119950A
:1019000060960FB6F894DEBF0FBECDBFDF91CF91CA
:101910001F910F91FF90EF90DF90CF900895AF92BD
:10192000BF92CF92DF92EF92FF920F931F93CF93CC
:10193000DF93CDB7DEB728970FB6F894DEBF0FBEA2
:10194000CDBF6C01162F5A01DC018D919C9111972E
:10195000892B09F442C11496ED91FC9115973097AB
:1019600009F43BC180816F3FB9F484FF34C1433037
:10197000510509F430C1118112951F706EE37AE0B0
:1019800085EF98E00E9464794AE050E0612F85EF8E
:1019900098E00E94F37902C084FD1FC1D60114961D
:1019A000ED91FC91159701810F70101769F1139655
:1019B000FC906CE37AE085EF98E00E9464794AE05D
:1019C00050E06F2D85EF98E00E94F3796AE37AE0AA
:1019D00085EF98E00E9464794AE050E0602F85EF3F
:1019E00098E00E94F37967E37AE085EF98E00E943F
:1019F00064794AE050E0612F85EF98E00E94F37926
:101A000085EF98E00E948B7A812F90E08D309105D0
:101A100008F09CC0FC01D6011496ED90FC9015973F
:101A20008827E457FF4F8F4F0C94549BF701918107
:101A3000292F2F70253009F489C0D6018D919C91F2
:101A4000263048F42230A9F464E374E00E94505B2D
:101A5000F701608159C0273049F02A3051F46AE318
:101A600074E00E94505BF70160816BC063E374E037
:101A700055C061E474E038C066E474E0D6018D912D
:101A80009C910E94505BF7012081622F6170322F80
:101A9000309530FB20F921C06BE474E0D6018D91C4
:101AA0009C910E94505BF701208121FB662760F921
:101AB00031E0362730FB21F910C061E574E0D60132
:101AC0008D919C910E94505BF701208122FB66273B
:101AD00060F931E0362730FB22F9208335C061E41C
:101AE00074E0D6018D919C910E94505B60E02CC007
:101AF00067E574E002C06CE574E0F60180819181D5
:101B00000E94505BD7016C9161701EC062E674E068
:101B100002C068E674E0F601808191810E94505B0A
:101B2000D7016C91669561700FC06FE674E002C0DA
:101B300065E774E0F601808191810E94505BD701D6
:101B40006C9162FB662760F9009759F4D6011496F0
:101B5000ED91FC9115971F708181807F182B118367
:101B60003AC0D6011496ED91FC911597B3E0AB16EF
:101B7000B10411F11F702181207F122B1183198272
:101B80001A821B821C821D821E821F8218860B8174
:101B90000F700B831982E12CFA801C8120E03E81BA
:101BA0004F8158850E945026D6011496ED91FC91E4
:101BB000159780818F7E0EC081818F70982F9295AE
:101BC000907F892B8183D6011496ED91FC91159716
:101BD00080818061808381E001C080E028960FB61B
:101BE000F894DEBF0FBECDBFDF91CF911F910F9153
:101BF000FF90EF90DF90CF90BF90AF900895AF929D
:101C0000BF92CF92EF92FF920F931F93CF93DF93E8
:101C1000CDB7DEB728970FB6F894DEBF0FBECDBFA5
:101C20005C0109831A832B833C834D835E836F831E
:101C3000788767E27AE085EF98E00E946479CE01C8
:101C400001960E940C756981611115C00B810F709E
:101C5000013089F030F0023031F0053021F010E031
:101C60004EC0CC24C394D501ED91FC91068CF78D28
:101C7000E02D098125C0F501828193810E949C7F1E
:101C800019811130A1F0123039F51D821E821F8298
:101C90001886D501ED91FC91068CF78DE02DCC24B2
:101CA000C39402E01A812B813C8140E00DC0D50134
:101CB000ED91FC91068CF78DE02DCC24C39401E0CE
:101CC0001A812B813C814D815E816F817885C501B0
:101CD000199581E090E02AC06AE17AE085EF98E00A
:101CE0000E9464794AE050E0612F85EF98E00E94FD
:101CF000F37985EF98E00E948B7A01E010E06AE0CA
:101D00007AE085EF98E00E9464794AE050E0B801FB
:101D100085EF98E00E94847A85EF98E00E948B7AA4
:101D2000CE0101960E940C7580E090E028960FB6D7
:101D3000F894DEBF0FBECDBFDF91CF911F910F9101
:101D4000FF90EF90CF90BF90AF900895CF93DF9327
:101D5000CDB7DEB760970FB6F894DEBF0FBECDBF2C
:101D600019821A821B821C821D821E821F82188683
:101D70008B818F7080618B83198264E670E0CE0165
:101D800001960E947D7560960FB6F894DEBF0FBE77
:101D9000CDBFDF91CF910895CF92DF92EF92FF9266
:101DA0000F931F93CF93DF93CDB7DEB7C054D10904
:101DB0000FB6F894DEBF0FBECDBF8091E7069091BD
:101DC000E806059789F16115710571F169017A01DC
:101DD0008B0140E450E0CE0101960E9429A06FE201
:101DE00070E0CE0101960E94F09F892B41F498018A
:101DF00043E050E060E4CE0101960E945F2540E49C
:101E000050E0B601CE0101960E940BA00E946B5BD0
:101E1000882351F08091E7069091E806069721F417
:101E20008091E606882319F080E090E007C0B701B2
:101E3000CE0101960E940C7D81E090E0C05CDF4FF6
:101E40000FB6F894DEBF0FBECDBFDF91CF911F91CB
:101E50000F91FF90EF90DF90CF900895CF92DF9297
:101E6000EF92FF920F931F93CF93DF93CDB7DEB71F
:101E700060970FB6F894DEBF0FBECDBF7C016B013B
:101E8000BA01A901CE0101960E940425D701ED9166
:101E9000FC910288F389E02D9801AE014F5F5F4FFE
:101EA000B601C701199560960FB6F894DEBF0FBE54
:101EB000CDBFDF91CF911F910F91FF90EF90DF90F9
:101EC000CF900895EF92FF920F931F93CF93DF93DC
:101ED000EC018B011D821C821A821B82E880F98032
:101EE000E114F10409F47DC08091E5099091E609BF
:101EF000892B09F476C0672B09F48701F8018085E6
:101F00008F708630D1F46CE774E0C8010E94505B9A
:101F1000009719F0FC0181858A8361E374E0C801B0
:101F20000E94505B009719F0FC01818505C0F80103
:101F3000808191810E9420938B836EE774E0C701BA
:101F40000E94505B009709F049C01A810B8162E33F
:101F50007AE085EF98E00E9464794AE050E0602FD3
:101F600085EF98E00E94F37960E37AE085EF98E0EE
:101F70000E9464794AE050E0612F85EF98E00E946A
:101F8000F37985EF98E00E948B7AE880F9800E94CF
:101F90003F538C010097D1F0FC018085807F8260E7
:101FA000808711861286138614868081918100971E
:101FB00011F00E94E8908EE794E00E94999FF8014A
:101FC00091838083B801C7010E94587D6EE774E059
:101FD000888199810E94505B009719F009969D8332
:101FE0008C83DF91CF911F910F91FF90EF90089517
:101FF0006F927F928F929F92AF92BF92CF92DF9219
:10200000EF92FF920F931F93CF93DF93CDB7DEB77D
:10201000C854D1090FB6F894DEBF0FBECDBF3C0146
:102020004B01FC01E080F18061E874E0C7010E948F
:10203000505B5C0166E874E0C7010E94505B6C0174
:10204000A114B10419F4892B09F4F9C066E474E011
:10205000C7010E94505B8C0161E474E0C7010E94DB
:10206000505B7C01F301738068E57AE085EF98E0CE
:102070000E9464794AE050E0672D85EF98E00E9465
:10208000F37966E57AE085EF98E00E9464794AE0AA
:1020900050E0B40185EF98E00E94847A85EF98E0E3
:1020A0000E948B7AC114D104E1F1F60180858F7012
:1020B0008430B9F56185728540E450E0CE01019627
:1020C0000E9429A00E946B5B882359F18091E6064B
:1020D000811127C06FE270E0CE0101960E94F09F4F
:1020E000892B51F4F6012185328543E050E060E40C
:1020F000CE0101960E945F258114910409F48DC0E0
:102100000115110509F486C0F80180858F708430AF
:1021100009F080C0F80161857285FB018081811121
:1021200089C0A114B10409F48AC0F50180858F70BB
:10213000843009F084C061857285CE0101960E94C9
:102140006480CE0101960E944A7F882309F45DC015
:102150008928F1F00115110529F0F80180858F70AB
:102160008430A1F025961CAE1DAE1EAE1FAE259785
:1021700029961CAE1DAE1EAE1FAE299724962FAD1C
:1021800024972F70E12CF12C01E01DC0F80131C023
:10219000E114F10429F0F70180858F70843041F15A
:1021A00025961CAE1DAE1EAE1FAE259729961CAE01
:1021B0001DAE1EAE1FAE299724962FAD24972F700B
:1021C000E12CF12C02E023961FAD239725963FAD1D
:1021D000259740E027965FAD279728966FAD289703
:1021E00029967FAD2997CE0101960E94CD160DC08C
:1021F000F70161857285FB018081882331F040E021
:1022000050E0CE0101960E948F32CE0101960E94CD
:10221000757D15C06BE874E00DC0E114F10429F080
:10222000F70180858F70843019F06EE874E002C089
:10223000F70171CFCE0101960E940C7D72CFC85B71
:10224000DF4F0FB6F894DEBF0FBECDBFDF91CF9149
:102250001F910F91FF90EF90DF90CF90BF90AF90C4
:102260009F908F907F906F9008952F923F924F9202
:102270005F926F927F928F929F92AF92BF92CF9216
:10228000DF92EF92FF920F931F93CF93DF93CDB71F
:10229000DEB7C555D1090FB6F894DEBF0FBECDBF6E
:1022A0004C013B01DC0112968C91803499F128F0AD
:1022B000823481F108F455C58058843008F051C546
:1022C000F40184819581892B09F44BC5A3016FEF3B
:1022D000C4010E948F0CD40112961C91129716957E
:1022E000117013960C9113978AEC800F803108F0CF
:1022F00071C162E974E08D919C910E94505B7C01F8
:10230000009709F467C1FC0180858F70853009F062
:1023100061C123C162E974E0D4018D919C910E9456
:10232000505B8C01F401838190913E09981309C0A0
:1023300090913F09903429F480914009909141098E
:102340000BC080933E0990E490933F090E94D36FA5
:1023500090934109809340093C010115110509F44E
:10236000E7C0D80118962C912F70253009F0E0C0F5
:10237000C8010E94357D64968FAF6497843008F45D
:102380006BC063E0C8010E94287DFC0181859285B5
:102390003AE0D32ED89E9001D99E300D1124639639
:1023A0003FAF2EAF639762E0C8010E94287DDC0139
:1023B00019968D919C911A97D89E7001D99EF00C18
:1023C000112457010F2C000CCC08DD0861E0C80176
:1023D0000E94287D66969FAF8EAF669760E0C80129
:1023E0000E94287DFC012184328443845484C301EB
:1023F000072C000CAA0BBB0B9C01AD012219330961
:102400004409550963966EAD7FAD6397CB01770F95
:10241000AA0BBB0BBC01CD016A197B098C099D0974
:102420000E94CD9A6696AEADBFAD669719962D9176
:102430003D914D915C911C9722193309440955092E
:102440000E94FF9AA20EB31EC41ED51E6496BFAD95
:102450006497B53099F415C08AE0869D5001879D38
:10246000B00C11240B2C000CCC08DD08E12CF12C55
:10247000E0E0F8E26396FFAFEEAF639781E090E0B3
:1024800009C064E0C8010E94287DDC0119968D9185
:102490009C911A976396EEADFFAD6397AF01FF0F66
:1024A000660B770B4A155B056C057D0534F45A0104
:1024B0006B0166246A9423E0722EA7010F2C000C96
:1024C000660B770BA416B506C606D70624F45A0188
:1024D0006B01612C712C6496FFAD6497F23009F0AA
:1024E000DEC26301770CEE08FF0860E0C8010E94BD
:1024F000287DFC0181859285A385B485C816D906FF
:10250000EA06FB060CF406C461E0C8010E94287DBF
:10251000FC0181859285A385B4858C159D05AE054A
:10252000BF050CF01EC4C12CD12C7601C394F5C399
:102530002AE0289F5001299FB00C11240B2C000C7D
:10254000CC08DD08E12CF12C20E038E263963FAFA7
:102550002EAF639781E090E0A2C280913E09801384
:1025600009C080913F09803429F4809140099091FD
:1025700041090CC000933E0980E480933F09802FFD
:102580000E94D36F90934109809340095C01990F99
:10259000CC08DD0860E0C7010E94287DFC01818530
:1025A0009285A385B485A816B906CA06DB060CF485
:1025B0003CC061E0C7010E94287D55245394FC0172
:1025C00081859285A385B4858A159B05AC05BD05DB
:1025D0006CF52BC0202F30E0F901E051F94E8491C9
:1025E000F901E655F94E0491F901EC59F94EF490D0
:1025F000FF2009F43DC281110E94496EEF2DF0E0E9
:10260000EE0FFF1FE759F54FA591B491EC910E2302
:1026100031E020E009F430E0832F922F212F30E0C9
:10262000552453942817390709F0512CD4011496D6
:10263000ED91FC9115978181E82FEF708E2F90E03E
:10264000FC013197EC30F10508F08FC18827E7567F
:10265000FF4F8F4F0C94549B0E9451709B01AC0113
:1026600044275527D4011496ED91FC91159782814A
:102670009381BC0180E090E0AA24AA94BA2CC12CDA
:10268000D12C18EEE12E13E0F12E00E010E00E94B4
:10269000A924882309F469C1F4010081118167E547
:1026A00074E0C8010E94505B892B09F0E4C16CE51D
:1026B00074E0C8010E94505B892B09F0DCC1E4C0C2
:1026C0000E9451709B01AC0144275527D4011496F8
:1026D000ED91FC91159782819381BC0180E090E09F
:1026E000AA24AA94BA2CC12CD12C1CE2E12EFF24DE
:1026F000F39400E010E01AC00E9451709B01AC01FD
:1027000044275527D4011496ED91FC9115978281A9
:102710009381BC0180E090E0AA24AA94BA2CC12C39
:10272000D12C16E9E12EF12C00E010E00E94A92442
:10273000882309F41AC1A30164E0E5C00E94517026
:102740009B01AC0144275527D4011496ED91FC91CF
:10275000159782819381BC0180E090E0AA24AA941D
:10276000BA2CC12CD12C18EEE12E13E0F12E00E092
:1027700010E00E94A924882309F4F7C0F401008125
:10278000118162E674E0C8010E94505B892B09F058
:1027900075C168E674E0C8010E94505B892B09F09E
:1027A0006DC172C00E9451709B01AC014427552736
:1027B000D4011496ED91FC91159782819381BC010F
:1027C00080E090E0AA24AA94BA2CC12CD12C1CE25F
:1027D000E12EFF24F39400E010E01AC00E94517033
:1027E0009B01AC0144275527D4011496ED91FC912F
:1027F000159782819381BC0180E090E0AA24AA947D
:10280000BA2CC12CD12C16E9E12EF12C00E010E0FD
:102810000E94A924882309F4A8C0A30169E073C019
:102820000E9451709B01AC0144275527D401149696
:10283000ED91FC91159782819381BC0180E090E03D
:10284000AA24AA94BA2CC12CD12C18EEE12E13E0A4
:10285000F12E00E010E00E94A924882309F485C02D
:10286000F401008111816FE674E0C8010E94505BA1
:10287000892B09F006C165E774E0C8010E94505B2E
:10288000892B09F0FEC000C1A3016DE06BC00E945E
:1028900051709B01AC0144275527D4011496ED914A
:1028A000FC91159782819381BC0180E090E0AA247D
:1028B000AA94BA2CC12CD12C1CE2E12EFF24F39453
:1028C00000E010E01AC00E9451709B01AC01442747
:1028D0005527D4011496ED91FC911597828193812F
:1028E000BC0180E090E0AA24AA94BA2CC12CD12C7F
:1028F00016E9E12EF12C00E010E00E94A9248823C3
:10290000A1F1A3016CE0C4010E948F0CF4010481C9
:1029100015810E945170D80113967C936E93129783
:1029200024C00E9451709B01AC0144275527D4015B
:102930001496ED91FC91159782819381BC0180E002
:1029400090E0AA24AA94BA2CC12CD12C18E5E12E2F
:1029500012E0F12E00E010E00E94A924882329F063
:10296000A30160E0C4010E948F0CF4010481158171
:10297000D8018C9183FB992790F9951509F473C0C0
:10298000982F907E39F0982F907E90528F71892BDE
:102990008C93E7C10E945170F80173836283D40164
:1029A00012968C91129780FF15C0552009F4D9C159
:1029B0001496ED91FC911597808188608083149620
:1029C000ED91FC9115976081617070E0C4010E94E7
:1029D000F80FC7C1652D70E0C4010E94F80FD40143
:1029E0001496ED91FC9115978181552099F08F7087
:1029F000823069F028F481112DC0A30161E024C068
:102A0000853029F0873031F5A3016AE01DC0A301AC
:102A100066E01AC0E82FEF708E2F90E0FC0131972E
:102A2000ED30F105B8F48827EB55FF4F8F4F0C942C
:102A3000549BA30162E008C0A30165E005C0A301A7
:102A400067E002C0A30160E0C4010E948F0C8823EC
:102A500009F487C1D4011496ED91FC9115978081FA
:102A600050FA83F903C08F718066F801808379C1C1
:102A700080E090E0D3CDA30163E074CFA30168E0D0
:102A800071CFA3016BE06ECF61E574E0C8010E94D5
:102A9000505B892B09F0F8CEA30166E063CFD40127
:102AA0001496ED91FC91159722813381A301421B6D
:102AB000530B9A0157FF03C03195219531098217B5
:102AC00093071CF480818F7112C04081842F8295FE
:102AD00086958770282F30E0263031054CF48F5FC3
:102AE000982F9295990F907E842F8F71892B8083D8
:102AF000D4011496ED91FC9115978081829586956D
:102B0000877090E00597BCF0C701FF0CAA0BBB0BC8
:102B1000A816B906CA06DB0671F063962EAD3FAD66
:102B20006397C901330FAA0BBB0BA816B906CA06D7
:102B3000DB0609F016C1828193818615970509F499
:102B400010C1C601B5010E94A29C20E030E040E225
:102B500051E40E94F89BD62EC72EB82EA92ED40180
:102B600013961C9165E67AE085EF98E00E946479FF
:102B70004AE050E0612F85EF98E00E94F37963E628
:102B80007AE085EF98E00E94647922E04D2D5C2D7B
:102B90006B2D7A2D85EF98E00E94786485EF98E0A0
:102BA0000E948B7A66E974E0F401808191810E9431
:102BB000505B19821A821B821C820B810F70006E7F
:102BC0000B832D2D4D2D5C2D6B2D7A2D4D835E832A
:102BD0006F837887E980FA801C813E814F81588518
:102BE0006FEF0E945026D4010D911C9161E874E0B2
:102BF000C8010E94505B7C0166E874E0C8010E9435
:102C0000505B8C01009799F1FC0180858F708430B6
:102C100071F56185728540E450E0CE0101960E9415
:102C200029A06FE270E0CE0101960E94F09F892BEF
:102C300061F4D80119962D913C911A9743E050E028
:102C400060E4CE0101960E945F25AE014F5B5F4FAD
:102C50006D2D7C2D8B2D9A2D0E94F9250E946B5B8A
:102C6000882329F08091E606882309F472C0E114D4
:102C7000F10409F447C0F70180858F70843009F0B2
:102C800041C061857285CE0101960E946480CE01AB
:102C900001960E944A7F882389F125961CAE1DAEBD
:102CA0001EAE1FAE259724962FAD24972F70206E51
:102CB00024962FAF24974D2D8D2D9C2DAB2DBA2D05
:102CC00029968CAF9DAFAEAFBFAF2997E12CF12C09
:102CD00022960FAD229723961FAD239725963FADE1
:102CE000259727965FAD279728966FAD2897299649
:102CF0007FAD2997CE0101960E94CD16CE01019697
:102D00000E94757DD4011496ED91FC911597738204
:102D1000628227C0C12CD12C7601D4011496ED918A
:102D2000FC91159782819381092E000CAA0BBB0B95
:102D30008C159D05AE05BF05A1F0B601C4010E942A
:102D4000F80FD4011496ED91FC911597D382C282AD
:102D500008C0BE016F5B7F4FCE0101960E940C7DC3
:102D600086CF80E090E0CB5ADF4F0FB6F894DEBFFD
:102D70000FBECDBFDF91CF911F910F91FF90EF90CC
:102D8000DF90CF90BF90AF909F908F907F906F908B
:102D90005F904F903F902F9008952F923F924F92C7
:102DA0005F926F927F928F929F92AF92BF92CF92DB
:102DB000DF92EF92FF920F931F93CF93DF93CDB7E4
:102DC000DEB7C559D1090FB6F894DEBF0FBECDBF2F
:102DD0005C01C857DF4F0883C858D040C757DF4F42
:102DE0001883C958D040822FC657DF4F2883CA584E
:102DF000D040C557DF4F3883CB58D040C457DF4F42
:102E00004883CC58D040C357DF4F5883CD58D0406B
:102E1000C257DF4F6883CE58D040C157DF4F788309
:102E2000CF58D0402E2D9F2DC057DF4FF982E8821A
:102E3000C059D0408F70E82EF12C2090E7063090DA
:102E4000E806E22FF92F309719F0808181111FC019
:102E5000D5011B968C91882341F0C5010B96C05774
:102E6000DF4F99838883C059D040E114F10479F58C
:102E7000C057DF4FE881F981C059D040309751F4F5
:102E8000F501E588F688E114F10409F10FC0E114B9
:102E9000F104E9F48081882399F3CE0180579F4F94
:102EA0000E94147F7C01892B59F311C0C657DF4F54
:102EB0008881CA58D040982F9F7049F4807F9E2DFA
:102EC0009F70892BC657DF4F8883CA58D0400E9415
:102ED0000E692B013C018B01C057DF4FC880D980A0
:102EE000C059D040D501ED91FC918080918065E87A
:102EF0007BE085EF98E00E9464794AE050E0B201FF
:102F000085EF98E00E94847A6EE77BE085EF98E099
:102F10000E946479B40185EF98E00E94A17A68E785
:102F20007BE085EF98E00E946479B60185EF98E038
:102F30000E94A17A62E77BE085EF98E00E946479C5
:102F40006FE67BE085EF98E00E946479043B110511
:102F50004CF461E67BE08DE498E00E9464798DE4B6
:102F600098E0A5C0CE0188579F4F0E940C75F501CF
:102F700080819181892B09F49CC0C5010E94EA805F
:102F80004C0191E080E0181419040CF090E0492EF7
:102F9000582ECC24C394141415040CF0C12CD50164
:102FA00018968C91873009F487C0C057DF4F68802E
:102FB0007980C059D0406114710409F45AC064E9A1
:102FC0007DE0C3010E944793892BD9F160E97DE040
:102FD000C3010E944793892BB9F164E97AE0C301E8
:102FE0000E944793892B99F160E97AE0C3010E941E
:102FF0004793892B79F164E57DE0C3010E944793F3
:10300000892B59F16FE47DE0C3010E944793892B1E
:1030100039F169E57DE0C3010E944793892B19F1DD
:1030200067E87AE0C3010E944793892BF9F063E8CF
:103030007AE0C3010E944793892BD9F40EE010E097
:103040001AC001E010E017C002E010E014C005E073
:1030500010E011C006E010E00EC00AE010E00BC066
:103060000BE010E008C00CE010E005C00DE010E03F
:1030700002C000E010E0C5010E94077E90E00097CA
:1030800009F02C0101151105B9F040165106A1F007
:103090006BE47BE085EF98E00E9464794AE050E0C1
:1030A000B20185EF98E00E94847A85EF98E00E9453
:1030B0008B7A8FEF9FEF16C7C058DF4F18821982A7
:1030C0001A821B82C058D040CC57DF4F1882198219
:1030D0001A821B82C458D040CE57DF4F8881C25815
:1030E000D0408F70CE57DF4F8883C258D040C05831
:1030F000DF4F1882C058D04040E0B501CE01805863
:103100009F4F0E94147E8111B3C06EE27BE085EF79
:1031100098E00E946479F50181859285009741F0DD
:10312000DC01ED91FC91028CF38DE02D199503C02B
:10313000F501808590E08D309105B8F4FC01882779
:10314000EE54FF4F8F4F0C94549BCE57DF4F888126
:10315000C258D0408F7080630FC0CE57DF4F888138
:10316000C258D0408F70806507C0CE57DF4F88812E
:10317000C258D0408F708061CE57DF4F8883C258CD
:10318000D040CE57DF4F8881C258D040E82FE2951B
:10319000EF708E2F90E0FC013197EA30F10508F0D6
:1031A0004FC08827E154FF4F8F4F0C94549B80E011
:1031B00090E0A0EAB1E404C080E090E0A6E9B2E4C7
:1031C000CC57DF4F88839983AA83BB83C458D040F0
:1031D0003FC084E6CA57DF4F8883C658D040C957DE
:1031E000DF4F9881C758D0409E7FC957DF4F9883E3
:1031F000C758D040CB57DF4F1882C558D0401AC0AF
:1032000084E6CA57DF4F8883C658D040C957DF4F7E
:103210008881C758D0408E7FC957DF4F8883C758F1
:10322000D040CB57DF4F1882C558D04002C084E64B
:1032300001C08FEFCC57DF4F8883C458D04008C0FF
:10324000CC57DF4F188219821A821B82C458D04093
:10325000B501CE0180589F4F0E940031CE018058A9
:103260009F4F0E940C7560E07AE0C5010E94CF2E4E
:10327000C857DF4F6881C858D040643089F038F4AF
:10328000662309F4FDC1633009F46FC01BC36730C6
:1032900009F4CCC008F416C36A3008F416C112C38E
:1032A000181419040CF562E0CE0180589F4F0E945B
:1032B0005975E9962FAFE997EA963FAFEA97EB96F3
:1032C0004FAFEB97EC965FAFEC97ED966FAFED9746
:1032D000EE967FAFEE97EF968FAFEF97C158DF4F27
:1032E0009883CF57D0401EC061E0CE0180589F4FD9
:1032F0000E945975E1962FAFE197E2963FAFE297B2
:10330000E3964FAFE397E4965FAFE497E5966FAF30
:10331000E597E6967FAFE697E7968FAFE797E89653
:103320009FAFE897C058DF4F6881C058D040CE01AA
:1033300088579F4F0E945975A9962FAFA997AA96B3
:103340003FAFAA97AB964FAFAB97AC965FAFAC973A
:10335000AD966FAFAD97AE967FAFAE97AF968FAF8E
:10336000AF97E0969FAFE097C8C2D50118968C91B1
:10337000873009F4C4C2C5010E94077E082F10E0FF
:10338000853009F05EC56FE17BE085EF98E00E9433
:1033900064794AE050E0B80185EF98E00E94847AB1
:1033A00085EF98E00E948B7AF50180858530F9F4ED
:1033B0006CE0CE0180589F4F0E945975A1962FAFA7
:1033C000A197A2963FAFA297A3964FAFA397A496BB
:1033D0005FAFA497A5966FAFA597A6967FAFA69768
:1033E000A7968FAFA797A8969FAFA89786C261E0D0
:1033F000CE0180589F4F0E94597569962FAF6997EB
:103400006A963FAF6A976B964FAF6B976C965FAFBC
:103410006C976D966FAF6D976E967FAF6E976F9648
:103420008FAF6F97A0969FAFA09767C2D5011896F0
:103430008C91873009F463C2C5010E94077E082F72
:1034400010E0863081F56EE07BE085EF98E00E9429
:1034500064794AE050E0B80185EF98E00E94847AF0
:1034600085EF98E00E948B7A62E0CE0180589F4FF2
:103470000E94597561962FAF619762963FAF629730
:1034800063964FAF639764965FAF649765966FAF2F
:10349000659766967FAF669767968FAF67976896D2
:1034A0009FAF68972AC266EF7AE085EF98E00E94A6
:1034B00064794AE050E0B80185EF98E00E94847A90
:1034C00085EF98E00E948B7ABCC460E0CE01805802
:1034D0009F4F0E94597529962FAF29972A963FAF83
:1034E0002A972B964FAF2B972C965FAF2C972D9644
:1034F0006FAF2D972E967FAF2E972F968FAF2F976A
:1035000060969FAF6097C657DF4F8881CA58D040FA
:10351000807F41F0CE0188579F4F0E94D275611580
:10352000710511F465E070E0C857DF4F8881C85815
:10353000D040893019F4719561957109B2E0EB16AC
:10354000F10491F03CF4E114F10409F0D8C1CC2469
:10355000C3940AC0F9E0EF16F104C1F12AE0E216C3
:10356000F10409F46AC0CBC1CC57DF4F8881C4583D
:10357000D04090E0CE57DF4F2881C258D0402295EE
:103580002F70233041F018F4213029F0B8C12950B0
:10359000223048F0B4C1680F791F653671054CF0D0
:1035A00064E670E00DC0680F791F6F3F710509F088
:1035B0002CF477FF05C060E070E002C06FEF70E0B0
:1035C000CC57DF4F6883C458D04070C1CE57DF4F0F
:1035D0008881C258D04082958F70833019F08A302C
:1035E00009F08DC1CA57DF4F8881C658D040C957EE
:1035F000DF4F2881C758D040922F9170680F791FF4
:103600006E3681E078072CF477FF05C06DE671E037
:1036100002C060E070E0CA57DF4F6883C658D040F0
:10362000C957DF4F8881C758D04070FB80F9C95710
:10363000DF4F8883C758D04039C1CE57DF4F8881CC
:10364000C258D04082958F70833019F08A3009F0CB
:1036500056C1CB57DF4F8881C558D040680F711DC8
:10366000653671052CF477FF05C060E070E002C09C
:1036700064E670E0CB57DF4F6883C558D04016C171
:10368000C657DF4F8881CA58D040807F09F437C1C0
:10369000A9E0EA16F10409F4DFC04CF4E114F104E6
:1036A000F1F0E2E0EE16F10409F45FC028C1FBE09E
:1036B000EF16F10409F4EFC00CF4B8C08CE0E81682
:1036C000F10409F01CC188E0FE01E857FF4FDE015C
:1036D000A058BF4F01900D928A95E1F710C11814C0
:1036E00019043CF5CE0188579F4F0E94D275672B75
:1036F000682B692B59F562E0CE0180589F4F0E94DC
:10370000597521962FAF219722963FAF2297239686
:103710004FAF239724965FAF249725966FAF2597D9
:1037200026967FAF269727968FAF279728969FAF2D
:1037300028971814190454F0CE0188579F4F0E94FF
:10374000D275672B682B692B09F082C3C058DF4FF5
:103750006881C058D040C5010E949C7F60E079E03C
:10376000C5010E94CF2ECC24C394CE57DF4F888151
:10377000C258D04082958F70875F8F70823050F42E
:10378000C657DF4F8881CA58D04082958F708330EA
:1037900009F46DC3C657DF4F8881CA58D04082955F
:1037A0008F708A3009F463C3D50118968C918730E5
:1037B00039F4CE0188579F4F0E940A7681116BC35E
:1037C000C857DF4F0881C858D040C757DF4F18810E
:1037D000C958D040C657DF4F2881CA58D040C55776
:1037E000DF4F3881CB58D040C457DF4F4881CC5889
:1037F000D040C357DF4F5881CD58D040C257DF4F1C
:103800006881CE58D040C157DF4F7881CF58D04023
:10381000CE0180589F4F0E94EB3428AB39AB4AABA6
:103820005BAB6CAB7DAB8EAB9FAB40C0F5018085D5
:10383000873039F4CE0188579F4F0E940A76811154
:1038400037C3C357DF4F6881CD58D040CE01805871
:103850009F4F0E9476321CC0D50118968C918730FC
:1038600039F4CE0188579F4F0E940A7681112DC3EB
:10387000C257DF4F6881CE58D040C157DF4F7881A3
:10388000CF58D0407170CE0180589F4F0E94533264
:103890008823A9F10BC0CE0188579F4F0E94C234E4
:1038A000BC01CE0180589F4F0E941232B501CE015B
:1038B00080589F4F0E94003160E07AE0C5010E946D
:1038C000CF2E1DC0CE0180589F4F0E94597528A74A
:1038D00039A74AA75BA76CA77DA78EA79FA7CE573E
:1038E000DF4F8881C258D040807F9E2D9F70892BEA
:1038F000CE57DF4F8883C258D040CC24C394F50103
:10390000618472846114710409F42CC1C857DF4FBB
:103910008881C858D040823009F4A7C008F04BC055
:103920008111D6C0C057DF4FE880F980C059D04020
:10393000D301ED91FC910488F589E02DC058DF4F4B
:103940000881C058D040CF57DF4F1881C158D040B0
:10395000CE57DF4F2881C258D040CD57DF4F388136
:10396000C358D040CC57DF4F4881C458D040CB57C4
:10397000DF4F5881C558D040CA57DF4F6881C658BD
:10398000D040C957DF4F7881C758D040C30119953F
:103990008C016BEA7AE085EF98E00E9464794AE056
:1039A00050E0B80185EF98E00E94847A85EF98E0B6
:1039B0000E948B7A48C2853099F1863009F088C020
:1039C0001814190454F169EE7AE085EF98E00E942A
:1039D0006479D5011996ED91FC911A970190F081C7
:1039E000E02D84889588C057DF4FE880F980C05962
:1039F000D04061E0CE0180589F4F0E945975CC2481
:103A0000C39489019A01AB01BC01F50181859285BE
:103A1000F40119958C0166E09CC069ED7AE053C011
:103A200018141904FCF4D301ED91FC918488958855
:103A3000C057DF4FE880F980C059D04062E0CE0126
:103A400080589F4F0E945975CC24C39489019A01D4
:103A5000AB01BC01F50181859285F40119958C01BA
:103A600065E077C067EC7AE02EC0C5010E94077E52
:103A7000853039F1D301ED91FC9184889588C05748
:103A8000DF4FE880F980C059D04062E0CE01805815
:103A90009F4F0E94597529833A834B835C836D83C2
:103AA0007E838F839887CC24C39489019A01AB01CC
:103AB000BC01F50181859285F40119958C0162E0C4
:103AC00048C067EB7AE085EF98E00E946479B9C15D
:103AD000C057DF4FE880F980C059D040D301ED9145
:103AE000FC910488F589E02DCC24C394C058DF4FA5
:103AF0000881C058D040CF57DF4F1881C158D040FF
:103B0000CE57DF4F2881C258D040CD57DF4F388184
:103B1000C358D040CC57DF4F4881C458D040CB5712
:103B2000DF4F5881C558D040CA57DF4F6881C6580B
:103B3000D040C957DF4F7881C758D040C30119958D
:103B40008C01C058DF4F6881C058D040662309F40B
:103B50007AC1C5010E949C7F60E071E0C5010E94AE
:103B6000CF2E71C1F5018085863009F46BC0873096
:103B700021F0853009F04AC1CDC00280F381E02DEB
:103B800080858F70853009F041C1B5E02B16310476
:103B900009F43CC1C680D7808091F0058F5F809387
:103BA000F005C114D10409F447C0F60180858F7077
:103BB0008430E1F561857285CE0101960E946480B2
:103BC000C057DF4FE880F980C059D040C857DF4F59
:103BD0000881C858D040C757DF4F1881C958D04016
:103BE000C657DF4F2881CA58D040C557DF4F3881AC
:103BF000CB58D040C457DF4F4881CC58D040C35732
:103C0000DF4F5881CD58D040C257DF4F6881CE5822
:103C1000D040C157DF4F7881CF58D040CE010196B8
:103C20000E94CD16CE0101960E94757DD601129696
:103C3000CD90DC901397B5CF8091F00581508093A3
:103C4000F005E4C060E070E0C5010E94717F8C0166
:103C5000009709F4DBC097FF07C011950195110982
:103C600066246394712C02C0612C712CC8010197E9
:103C70008634910508F0CAC0C058DF4FE880C058AC
:103C8000D040F12CD02E61E0802F0E94CE6E6728AC
:103C900069F0B1E0EB16F10429F061E0E6E0EE1620
:103CA000F10409F460E0E62EF12C12C0F1E0EF1609
:103CB000F10451F091E080E026E0E216F10409F011
:103CC00090E0E92EF82E03C0EE24E394F12C6E2D43
:103CD0008D2D0E949F6E66EA7AE085EF98E00E9443
:103CE00064794AE050E0B80185EF98E00E94847A58
:103CF00064EA7AE085EF98E00E9464794AE050E057
:103D0000B70185EF98E00E94847A85EF98E00E94E1
:103D10008B7A7CC082E0E816F10409F471C0ACE053
:103D2000EA16F10409F072C0C5010E94F7312B01B7
:103D30003C01672849F4D501ED91FC9160817181C6
:103D40008AE994E00E94DB31CE0180589F4F0E94A7
:103D5000AC3120E030E048EC52E40E94579D0E94D4
:103D60006A9CCE56DF4F688379838A839B83C259CE
:103D7000D040CE56DF4F48805980C259D0400E9473
:103D80005170C72ED82EE92EFF24C114D104E104AE
:103D9000F10421F4C12CD12C7601C394360160EAE0
:103DA0007AE085EF98E00E9464796EE97AE085EF29
:103DB00098E00E9464794AE050E0CE56DF4F688177
:103DC0007981C259D04085EF98E00E94847A69E9F0
:103DD0007AE085EF98E00E946479B701A601662732
:103DE00077272AE085EF98E00E949D7985EF98E09B
:103DF0000E948B7AB301A201C5010E944E3106C018
:103E0000B501CE0180589F4F0E940031C058DF4F4E
:103E10006881C058D0406623C1F0C857DF4F888101
:103E2000C858D040853021F41814190474F465E0A2
:103E3000C5010E949C7F60E071E0C5010E94CF2E09
:103E400004C08DEF37C9C8014DC081E090E04AC081
:103E500061E0CE0180589F4F0E94597528AF39AF5D
:103E60004AAF5BAF6CAF7DAF8EAF9FAF6FCCC65725
:103E7000DF4F8881CA58D040982F907FCE57DF4FB0
:103E80008881C258D0408F70892BCE57DF4F8883EE
:103E9000C258D04089CCCE57DF4F8881C258D0401D
:103EA0008F708063CE57DF4F8883C258D04088CC54
:103EB000CE57DF4F8881C258D0408F708063CE5775
:103EC000DF4F8883C258D040BCCCCE57DF4F8881AB
:103ED000C258D0408F708063CE57DF4F8883C2585E
:103EE000D040C6CCCB56DF4F0FB6F894DEBF0FBE26
:103EF000CDBFDF91CF911F910F91FF90EF90DF9099
:103F0000CF90BF90AF909F908F907F906F905F9079
:103F10004F903F902F90089540918D06262F30E0CE
:103F2000240F311D21323105DCF420911D0A24308B
:103F3000C9F4FC0180E090E0861758F430918D06BA
:103F40002191DC01A359B94FA30FB11D2C93019608
:103F5000F3CF80918D06680F60938D0680E0089501
:103F600081E0089582E0089508950895E0916B0638
:103F700080916A06E81730F4F0E0E055F94F80814F
:103F800090E008958FEF9FEF089590916B068091D8
:103F90006A06981750F4E92FF0E0E055F94F2081B8
:103FA00030E09F5F90936B0602C02FEF3FEFC90197
:103FB000089580916A0690E020916B06821B91091A
:103FC0000895CF92DF92EF92FF920F931F93CF93BA
:103FD000DF937C01CB018A012091230A222389F0FF
:103FE000EB016B01C40ED51ECC15DD0569F069919E
:103FF000D701ED91FC910190F081E02DC701199559
:10400000F3CF642F0E948C1FC801DF91CF911F91C5
:104010000F91FF90EF90DF90CF900895CF93DF93B3
:104020001F92CDB7DEB769832091230A2223D1F0F6
:104030002091460A203240F021E030E0FC01338339
:10404000228380E090E015C08091240AE82FF0E000
:10405000EB5DF54F998190838F5F8093240A809365
:10406000460A05C061E0CE0101960E948C1F81E0E6
:1040700090E00F90DF91CF91089581E00C9454650A
:10408000FC01818191E09093230A8093450A10926C
:10409000240A1092460A08951F93CF93DF93EC01F0
:1040A000162F0E94402061EE88E098E00E940E20CA
:1040B000612F88E098E00E940E20CE01DF91CF9121
:1040C0001F910C943D2010921D0A81E080931C0AE0
:1040D0001092F70961E084E10E949F6E61E085E142
:1040E0000E949F6EE9EBF0E080818E7F808380816B
:1040F0008D7F808388E48093B80085E48093BC0042
:104100000895CF93DF9391E090936C068823B9F0E4
:10411000C091B800D091BA008091BC008A7B809396
:10412000BC0060E084E10E949F6E60E085E10E9437
:104130009F6E0E946320D093BA00C093B800DF91B5
:10414000CF910895CF92DF92EF92FF920F931F933A
:10415000CF93DF93FC01D1810E94F26F6B017C0150
:10416000C0911D0ACC2339F180911F0A9091200A39
:10417000A091210AB091220A892B8A2B8B2B81F3E3
:104180000E94F26F00911F0A1091200A2091210ACB
:104190003091220ADC01CB018C199D09AE09BF09BF
:1041A000081719072A073B07D8F680911E0A0E94B4
:1041B0008120C0E08EC081E080931D0A80931C0A9C
:1041C0009FEF90931B0A10921A0A1092190A80937B
:1041D000F8099091F8098D2F880F892B8093F809A1
:1041E0008091F709813089F51092F7090E94F26FEA
:1041F0006B017C018091F8098093BB0080911F0ABC
:104200009091200AA091210AB091220A892B8A2B31
:104210008B2BA9F00E94F26F00911F0A1091200AC7
:104220002091210A3091220ADC01CB018C199D09D1
:10423000AE09BF09081719072A073B0790F18091BB
:10424000BC0083FDD7CF85EC01C085EE8093BC0018
:104250000E94F26F6B017C0180911D0A813031F563
:1042600080911F0A9091200AA091210AB091220A00
:10427000892B8A2B8B2B81F30E94F26F00911F0AEE
:104280001091200A2091210A3091220ADC01CB01F1
:104290008C199D09AE09BF09081719072A073B07A2
:1042A000D8F680911E0A0E94812013C080911A0ABC
:1042B000811103C080911A0A01C081E0E9EFF9E0A1
:1042C000A0EBB6E0C0E0C81721F091919D93CF5FBD
:1042D000FACF10926B06C0936A0688E098E00E94BD
:1042E000C51FDF91CF911F910F91FF90EF90DF904D
:1042F000CF900895AF92BF92CF92DF92EF92FF924C
:104300001F93CF93DF93EC010E9451706B017C01EE
:1043100028EEC20E23E0D21EE11CF11C8BE4A82E75
:10432000B12C0E9451706C157D058E059F0598F487
:1043300060EFCE010E944C20CE010E94A220182FD7
:1043400080FF11C0EF85F889309709F01995C501F4
:104350000197F1F7E6CF81E08A8369EA74E088E5A6
:1043600098E00E944066812FDF91CF911F91FF90CE
:10437000EF90DF90CF90BF90AF9008951F93CF93B1
:10438000DF93EC01162F0E947A21CE010E9440207B
:1043900062ED88E098E00E940E20612F70E0609549
:1043A000709584E0660F771F8A95E1F7612B88E0AE
:1043B00098E00E940E20CE010E943D20CE010E9476
:1043C000A220181711F084E08A83DF91CF911F910A
:1043D0000895CF93DF93EC0163EC0E944C20CE0153
:1043E000DF91CF910C94A2201F93CF93DF93EC0128
:1043F0000E947A2180FD31C0CE010E94E92160E057
:10440000CE010E94BE21CE010E947A21CE010E94DF
:10441000402064EB88E098E00E940E20CE010E94CC
:104420003D20CE010E947A21182F82FF03C082E036
:104430008A8304C08A81823009F41A8288818823A1
:1044400041F0CE010E94E921682F6160CE010E94F7
:10445000BE2111FB882780F901C080E0DF91CF9158
:104460001F910895CF93DF93EC010E94E921682FFB
:104470006460CE01DF91CF910C94BE210F931F9306
:10448000CF93DF93EC01162F042F0E947A21002393
:1044900019F0CE010E943222CE010E94402065EA2E
:1044A00088E098E00E940E20612F88E098E00E944A
:1044B0000E20CE01DF91CF911F910F910C943D20E2
:1044C0006F927F928F929F92AF92BF92CF92DF9224
:1044D000EF92FF920F931F93CF93DF93FC012485FC
:1044E00021119EC0872E762EEC010E94F4218111AD
:1044F00008C064EB74E088E598E00E9440668FEFA6
:1045000090C0CE010E947A2140E060EFCE010E946F
:104510003E22C12CD12C66246A94EE24E394F12C23
:104520000C2D06950695069510E08C2D8770570189
:1045300001C0AA0C8A95EAF78B85082E000C990B0E
:10454000C816D90634F4FE01E00FF11F93809A20BB
:1045500006C099249394C816D90609F0912CCE016F
:104560000E947A21CE010E94402068E788E098E00E
:104570000E940E20911002C060E001C060E888E057
:1045800098E00E940E20CE010E943D20CE010E94A4
:104590007A21282F2074982F907885FF11C022232C
:1045A000A9F042E050E0682F88E598E00E94F37996
:1045B00060EC74E088E598E00E9440668EEF31C0C0
:1045C000211104C0911104C06C2C08C0992331F052
:1045D000FE01E00FF11F83818A2907C0FE01E00F71
:1045E000F11F8A2D8095938189238383FFEFCF1A52
:1045F000DF0A80E4C816D10409F092CF6B86EFEF92
:104600006E1202C081E08C87DE011396E72DF82D33
:104610002B968D918193CA17DB07D9F781E001C0F2
:1046200080E0DF91CF911F910F91FF90EF90DF908D
:10463000CF90BF90AF909F908F907F906F90089594
:10464000EF92FF920F931F93CF93DF938C017B0127
:1046500040E065E50E943E22E70188E0E80EF11C9B
:10466000699140E0C8010E943E22CE15DF05C1F7E6
:10467000DF91CF911F910F91FF90EF90089585EDFD
:104680008093BC0080911F0A9091200AA091210A7A
:10469000B091220A0796A11DB11D23E0B695A795FA
:1046A000979587952A95D1F72091BC0024FF1CC0CF
:1046B00040911F0A5091200A6091210A7091220AAC
:1046C000452B462B472B81F30097A105B10541F0FF
:1046D00025E32A95F1F700000197A109B109E4CF7C
:1046E00080911E0A0C94812010921D0A08951F9239
:1046F0000F920FB60F9211240BB60F922F933F9388
:104700004F935F936F937F938F939F93AF93BF93D9
:10471000EF93FF938091B900887F803609F49CC0A5
:1047200068F5883209F45BC090F4803109F454C014
:1047300038F4882309F4F6C0883009F44DC0F6C077
:10474000883109F44CC0803209F45DC0EFC0803478
:1047500009F468C048F4803309F455C0883309F07F
:10476000E5C080931B0AD8C0803509F44FC0883556
:1047700009F45DC0883409F0D9C0D6C0883909F47D
:10478000C7C0A8F4883709F467C038F4883609F43C
:1047900063C0803709F460C0C9C0883809F4B8C064
:1047A000803909F45FC0803809F0C0C05BC0803B2D
:1047B00009F486C038F4803A09F466C0883A09F4EE
:1047C0007FC0B4C0803C09F4A7C0883C09F4A4C0F1
:1047D000883B09F48AC0AAC08091F80910C0909162
:1047E0001A0A8091190A981770F5E0911A0A81E067
:1047F0008E0F80931A0AF0E0E750F64F8081809385
:10480000BB0085EC86C080931B0A8EC0E0911A0A1B
:1048100081E08E0F80931A0A8091BB00F0E0E75090
:10482000F64F808390911A0A8091190A6EC0E09128
:104830001A0A81E08E0F80931A0A8091BB00F0E083
:10484000E750F64F808380911C0A81116DC081E092
:104850008093F70984EA61C083E080931D0A109277
:10486000AF06CFCF8091AF06803208F051C0E09103
:10487000AF0681E08E0F8093AF068091BB00F0E021
:10488000E157F94F8083BDCF85EC8093BC00109237
:104890001D0A8091AF06803230F4E091AF06F0E05F
:1048A000E157F94F10826091AF0670E0E091680621
:1048B000F09169068FE896E019951092AF0636C020
:1048C00084E080931D0A10928E0610928D06E0916E
:1048D0006606F0916706199580918D06811105C0D5
:1048E00081E080938D0610926D06E0918E0681E046
:1048F0008E0F80938E06F0E0E359F94F808180930C
:10490000BB0090918E0680918D06981708F479CFA0
:1049100085E88093BC000AC085EC8093BC001092AF
:104920001D0A04C010921B0A0E943F23FF91EF91C1
:10493000BF91AF919F918F917F916F915F914F91B7
:104940003F912F910F900BBE0F900FBE0F901F90B5
:1049500018954F925F926F927F92AF92BF92CF92D3
:10496000DF92EF92FF920F931F93CF93DF9300D0CC
:104970001F92CDB7DEB72B013C0129833A834B83CD
:104980005C83A60195016E0D7F1D801F911F0E9403
:10499000DD9A29813A814B815C8162177307840714
:1049A000950770F4241535054605570510F421E0E8
:1049B00017C021E0461657066806790688F00FC032
:1049C000461657066806790650F421E089819A81D7
:1049D000AB81BC8184159505A605B70508F020E0DC
:1049E000822F0F900F900F900F90DF91CF911F911A
:1049F0000F91FF90EF90DF90CF90BF90AF907F909E
:104A00006F905F904F9008958F929F92AF92BF9258
:104A1000CF92DF92EF92FF920F931F93CF93DF938A
:104A2000CDB7DEB72B970FB6F894DEBF0FBECDBF64
:104A30008C01CE0101967C016C018AE0882E912CBC
:104A4000A12CB12CC6018E199F0941155105610594
:104A5000710581F0CB01BA01A50194010E94DD9A94
:104A6000942F852F605DF60161936F01A901692F75
:104A7000782FE8CFFC013197EE0DFF1DD8019E0184
:104A80002150310940814D933197E217F307D1F757
:104A9000F801E80FF91F10822B960FB6F894DEBFCD
:104AA0000FBECDBFDF91CF911F910F91FF90EF907F
:104AB000DF90CF90BF90AF909F908F9008958F928E
:104AC0009F92AF92BF92CF92DF92EF92FF920F939D
:104AD0001F93CF93DF938C014A015901E090640644
:104AE000F0906506C62F660FDD0BE114F10471F13D
:104AF000F70180858F70863049F56AEC74E0C70154
:104B00000E94505B6C01F2E08F16910439F083E053
:104B10008816910451F460EB74E002C06FEC74E00D
:104B2000C7010E94505B7C0102C0E12CF12CC11432
:104B3000D10471F0F60180858F70843049F461856D
:104B40007285AE01C8010E9429A008C0E12CF12C99
:104B5000AE0163E97BE0C8010E947E93AE0164ED83
:104B600074E0C8010E940BA0E114F10441F0F701C8
:104B700080858F70843019F4618572850FC0F2E0F2
:104B80008F169104A1F083E08816910461F08A9455
:104B9000892899F46091EB057091EC05AE01C8018C
:104BA0000E940BA00AC0AE016DE87BE003C0AE011D
:104BB0006AE87BE0C8010E946093AE0164ED74E096
:104BC000C8010E940BA0A114B10429F0AE01B501E7
:104BD000C8010E940BA0C801DF91CF911F910F91D6
:104BE000FF90EF90DF90CF90BF90AF909F908F900D
:104BF0000895CF92DF92EF92FF920F931F93CF937E
:104C0000DF936B017C01EA010E946A9C8B011F9378
:104C10006F938DEC95E09F938F93DF93CF930E94DA
:104C200080A00F900F900F900F900F900F9020E0AA
:104C300030E0A901C701B6010E94529D181624F068
:104C4000F7FAF094F7F8F09409900020E9F721972B
:104C50008EE28883B80117FF03C0719561957109D1
:104C6000072E000C880B990B0E94A29C9B01AC01A3
:104C7000C701B6010E94869B20E030E040E251E48B
:104C80000E94579D0E946A9C605D69831A82DF9131
:104C9000CF911F910F91FF90EF90DF90CF900895EB
:104CA0008F929F92AF92BF92CF92DF92EF92FF923C
:104CB0000F931F93CF93DF93CDB7DEB7C855D109BC
:104CC0000FB6F894DEBF0FBECDBF6296EFAE62970F
:104CD0006396FFAE639764960FAF649765961FAFB8
:104CE000659766962FAF669767963FAF679768960A
:104CF0004FAF689769965FAF6997009709F481C1D4
:104D0000962E8C01FC0180858295807F8595859506
:104D100085958595853019F0863091F172C1809125
:104D2000F0058F5F8093F005F801C680D780C1142D
:104D3000D10401F16296EFAC62976396FFAC639782
:104D400064960FAD649765961FAD659766962FAD17
:104D5000669767963FAD679768964FAD6897699677
:104D60005FAD6997692DC6010E945026F601C28089
:104D7000D380DDCF8091F00581508093F00541C153
:104D800066E974E0C8010E94505B0097E1F062960A
:104D9000EFAC62976396FFAC639764960FAD649730
:104DA00065961FAD659766962FAD669767963FAD82
:104DB000679768964FAD689769965FAD6997692D5B
:104DC0000E9450262AC161E874E0C8010E94505B2D
:104DD0005C0166E874E0C8010E94505B6C01992098
:104DE00021F0F1E09F1641F03FC066ED74E0C8018C
:104DF0000E94505B4C011AC060EE74E0C8010E9432
:104E0000505B4C0165EE74E0C8010E94505B7C0170
:104E10008114910409F0FDC066ED74E0C8010E94A0
:104E2000505B4C01E114F10409F0EDC06BED74E04E
:104E3000C8010E94505B7C018114910441F0F4018F
:104E400080858F70843019F40185128502C000E0DE
:104E500010E0E114F10451F0F70180858F70843087
:104E600029F4E184F2840FC000E010E020E033E098
:104E700040E150E0BE016F5B7F4FCE018F5A9F4FE4
:104E80000E941C737C01A114B10489F1F5016185B4
:104E9000728585EF98E00115110591F00E94A17AC5
:104EA00064EA7BE085EF98E00E946479B80185EFC1
:104EB00098E00E94A17A85EF98E00E948B7A08C062
:104EC0000E94A17A6FE97BE085EF98E00E94647907
:104ED000CE018F5A9F4F0E940C75C114D10459F412
:104EE000F50180858F70843009F089C04EC0C114EF
:104EF000D10409F484C0F6016185728585EF98E0DC
:104F00000E94A17A6AE97BE085EF98E00E946479CB
:104F1000B70185EF98E00E94A17A85EF98E00E94A2
:104F20008B7AE114F10461F1F60180858F70843091
:104F300039F56185728540E450E0CE0101960E940A
:104F400029A00E946B5B8823D9F08091E60681112D
:104F500017C06FE270E0CE0101960E94F09F892B8E
:104F600051F4F6012185328543E050E060E4CE0142
:104F700001960E945F25B701CE0101960E940C7D2B
:104F8000A114B10409F0ACCF3AC0F5016185728576
:104F9000CE0101960E946480CE0101960E944A7F54
:104FA000882349F10115110541F040E050E0B801B6
:104FB000CE0101960E948F321EC0E12CF12C629628
:104FC0000FAD629763961FAD639764962FAD64979C
:104FD00065963FAD659766964FAD669767965FADF0
:104FE000679768966FAD689769967FAD6997CE01B0
:104FF00001960E94CD16CE0101960E94757D81E03A
:105000000CC080E00AC0892B09F019CF00E010E045
:1050100023CF892B09F013CF09CFC85ADF4F0FB622
:10502000F894DEBF0FBECDBFDF91CF911F910F91DE
:10503000FF90EF90DF90CF90BF90AF909F908F90B8
:10504000089580E090E008958091E4069091E5064F
:105050000895A8950895AF92BF92CF92DF92EF92F4
:10506000FF920F931F93CF93DF93CDB7DEB768976F
:105070000FB6F894DEBF0FBECDBFFC01098B1A8BB3
:105080002B8B3C8B4D8B5E8B6F8B788F82819381CA
:10509000009709F40DC1248135812115310509F4EA
:1050A0000CC1CC2009F404C17F0160E070E00E94D3
:1050B000717F5C01D701ED91FC91028CF38DE02DA5
:1050C000C70119956C018230910509F4A9C083309C
:1050D000910529F0019709F0A1C088E0A2C08B8951
:1050E00082958F70833079F030F4813061F08230B6
:1050F00009F446C069C0893008F466C08B30A8F056
:105100008E30F1F061C0AD89B7FE08C0B0E021E09B
:105110003FEF4FEF5FEF0E941E9B20C02A2F30E031
:10512000AFEFB0E00E94319B26C00D89B7FE06C0EC
:105130002FEF30E0C901801B910938C010E046C054
:105140006D897E898F89988DB7FE0DC00E946A9CFB
:105150009B01AC01A1E0BFEF0E942C9B24E630E054
:1051600040E050E01BC00E946A9C9B01AC01AFEF85
:10517000B0E00E941E9B24E630E040E050E020C0FA
:105180002D893E894F89588DB7FE12C0A1E0BFEF2F
:105190000E942C9B28EE33E040E050E00E94FF9AF2
:1051A000DA01C90181509F4FAF4FBF4F8C010EC034
:1051B000AFEFB0E00E941E9B28EE33E040E050E0ED
:1051C0000E94FF9A890102C000E010E0B801D701F7
:1051D00014968C910E940A6FF701E480F5806FE3CA
:1051E0007CE085EF98E00E9464794AE050E0B701E6
:1051F00085EF98E00E94847A6DE37CE085EF98E08B
:105200000E9464794AE050E0B80185EF98E00E947E
:10521000847A85EF98E00E948B7A4DC081E001C0CE
:1052200087E019861A861B861C861D861E861F86A9
:10523000188A8295807F9B859F70892B8B87198622
:1052400009891A892B893C894D895E896F89788DF6
:10525000CE0109960E94EB34F1E0CF16D10429F07B
:1052600082E0C816D10451F026C063E070E0C701A7
:105270000E94437D688970E00E940A6F6F8570E02C
:10528000D70114968C910E940A6F61E070E0C7010B
:105290000E94437D6E8570E00E940A6F62E070E0BC
:1052A000C7010E94437D6D8570E00E940A6F03C0B4
:1052B00020E030E002C021E030E0C90168960FB67E
:1052C000F894DEBF0FBECDBFDF91CF911F910F913C
:1052D000FF90EF90DF90CF90BF90AF900895CF9365
:1052E000DF93DC011296ED91FC9113973097C1F199
:1052F000EC018E819F818330910579F00497D1F480
:1053000064E37CE085EF98E00E94647985EF98E0A3
:105310000E948B7A81E090E025C067E27CE085EF17
:1053200098E00E94647985EF98E00E948B7A82E091
:1053300090E018C04AE050E0608585EF98E00E9458
:10534000F3796FE27CE085EF98E00E94647985EF65
:1053500098E00E948B7AEA81FB81808590E002C010
:1053600080E090E0DF91CF910895CF93FC0182819E
:1053700093810E94567FC62F61E27CE085EF98E022
:105380000E9464794AE050E06C2F85EF98E00E941B
:10539000F37985EF98E00E948B7A8C2F90E0CF9183
:1053A0000895CF93DF93EC0164E17CE085EF98E012
:1053B0000E94647985EF98E00E948B7AE881F981F8
:1053C000028CF38DE02DCE0119958130910519F0F5
:1053D000029749F01BC063E070E0CE010E94437D5C
:1053E00060E00E94CE6E60E08C810E94CE6E61E033
:1053F00070E0CE010E94437D60E00E94CE6E62E0CC
:1054000070E0CE010E94437D60E002C060E08C81CC
:105410000E94CE6E1092E5061092E40681E090E0C4
:10542000DF91CF910895CF93DF93EC0167E07CE0AB
:1054300085EF98E00E94647985EF98E00E948B7A6E
:105440008A819B81892B09F44CC08C819D81892B99
:1054500009F047C0E881F981028CF38DE02DCE017F
:1054600019958130910519F0029749F01BC063E04E
:1054700070E0CE010E94437D61E00E94CE6E61E04B
:105480008C810E94CE6E61E070E0CE010E94437D6F
:1054900061E00E94CE6E62E070E0CE010E94437D2A
:1054A00061E002C061E08C810E94CE6E8091A1001B
:1054B000887F8093A10080919100887F80939100E4
:1054C0008091A10082608093A10080919100826010
:1054D0008093910081E090E09093E5068093E4064C
:1054E00002C080E090E0DF91CF9108950F931F9369
:1054F000CF93DF93C92FD62F082F192F17FF03C083
:1055000011950195110961E0802F0E94CE6E6C2FDC
:10551000DD2351F06095661F6627661F802F0E946D
:105520009F6E6EEA7BE008C0661F6627661F802FAD
:105530000E949F6E69EA7BE085EF98E00E946479A3
:1055400085EF98E0DF91CF911F910F910C948B7AAA
:1055500008952F923F924F925F926F927F928F9217
:105560009F92AF92BF92CF92DF92EF92FF920F93F2
:105570001F93CF93DF93CDB7DEB7CA55D1090FB6CE
:10558000F894DEBF0FBECDBF0E9451709B01AC01ED
:105590006091E0067091E1068091E2069091E30649
:1055A000AA24AA94BA2C650110E3E12E15E7F12E86
:1055B00000E010E00E94A924882309F417C2E091BA
:1055C000F205F091F305309709F410C28091F005CF
:1055D0008F5F8093F0052680378010E0211431041E
:1055E00009F44DC0F10180858F70853009F043C00A
:1055F00060E0C1010E94287DFC0181859285A38520
:10560000B4850597A105B105B1F58DC020E030E066
:1056100048E152E4C301B2010E94529D18163CF4C5
:10562000F1016081718186EF94E00E94DB316B961D
:105630002EAD3FAD6B97232B09F45CC120E030E029
:1056400040E85FE369966CAD7DAD8EAD9FAD699727
:105650000E94869B9B01AC01C301B2010E94F39B97
:1056600087FF3CC161E0C4010E94762ACE01019609
:105670000E94757D11E0F10122803380AFCF8091CF
:10568000F00581508093F0050E9451706093E00610
:105690007093E1068093E2069093E3060E940E6900
:1056A0004B015C010E9451702B013C010E946B5B1D
:1056B000882329F08091E606882309F434C1112358
:1056C000C9F00E940E694B015C0166EC7BE085EF3E
:1056D00098E00E9464792AE030E0B501A40185EFEA
:1056E00098E00E94E67963E075E085EF98E00E941B
:1056F000A17A7CC10E940E694B015C0164EC7BE0E5
:1057000085EF98E00E9464792AE030E0B501A401B9
:1057100085EF98E00E94E67962EC7BE085EF98E007
:105720000E94647963C13A8229821B861A86CE015F
:1057300001960E94C77FCE0101960E944A7F88236E
:1057400009F4ECC025961CAE1DAE1EAE1FAE25970B
:1057500029961CAE1DAE1EAE1FAE299740E0BE01BD
:105760006F5F7F4FCE018F5B9F4F0E94147ECE01F3
:1057700001960E94F73165966CAF7DAF8EAF9FAFFB
:10578000659760E070E0CE0101960E94717F4C0148
:10579000CE018F5B9F4F0E94AC3169966CAF7DAF9D
:1057A0008EAF9FAF6997CE0101960E94077E182F9A
:1057B00063962EAD3FAD6397B901330F880B990BFC
:1057C0000E94A29C20E030E048EC52E40E94F89B4A
:1057D0002B013C01CE0101960E94EA806B969FAF9F
:1057E0008EAF6B9761E07CE085EF98E00E94647972
:1057F00022E069964CAD5DAD6EAD7FAD699785EFEA
:1058000098E00E9478646BEF7BE085EF98E00E945F
:10581000647922E0B301A20185EF98E00E947864E8
:1058200065EF7BE085EF98E00E946479612F70E07E
:105830004AE050E085EF98E00E94847A65960EADCC
:105840001FAD65970115110509F461C00E945170E3
:10585000BB27A92F982F872F0097A105B10521F409
:1058600081E090E0A0E0B0E09C01AD014427552725
:10587000B80180E090E0AA24AA94BA2CC12CD12CC3
:1058800013E9E12E14E0F12E00E010E00E94A924BB
:10589000882309F4BBCEF101608171818DE498E029
:1058A0000E94A17A65EE7BE08DE498E00E94647925
:1058B000F101608171818AEE94E00E94DB3165968E
:1058C0001FAE1EAE659765964CAD5DAD6EAD7FADFE
:1058D0006597CE0101960E944E310CC0A301920142
:1058E00069966CAD7DAD8EAD9FAD69970E94F39BBF
:1058F000181614F060E0B7CE66ED7BE085EF98E017
:105900000E94647985EF98E00E948B7AAFCE6CECB0
:105910007BE085EF98E00E946479A8CECE010196E5
:105920000E94757DA8CE20E030E041E050E060E4C8
:10593000CE0101960E945F2540E450E069E978E0DD
:10594000CE0101960E94609364ED74E0CE01019651
:105950000E94E59F40E450E069EB7BE0CE010196B8
:105960000E946093B501A401CE018F5B9F4F0E94FE
:105970000425BE016F5B7F4FCE0101960E940C7D16
:1059800020E030E041E050E060E4CE0101960E946A
:105990005F2540E450E069E978E0CE0101960E947D
:1059A000609364ED74E0CE0101960E94E59F40E4AF
:1059B00050E062EB7BE0CE0101960E946093C30150
:1059C000B20128EE33E040E050E00E94DD9ABA01D7
:1059D000A901CE018F5B9F4F0E940425BE016F5B22
:1059E0007F4FCE0101960E940C7D69CEC65ADF4FD3
:1059F0000FB6F894DEBF0FBECDBFDF91CF911F91E0
:105A00000F91FF90EF90DF90CF90BF90AF909F905D
:105A10008F907F906F905F904F903F902F90089560
:105A2000AF92BF92CF92DF92EF92FF920F931F93AC
:105A3000CF93DF93CDB7DEB767970FB6F894DEBF8D
:105A40000FBECDBF8091F0058F5F8093F005E09190
:105A5000F205F091F3053097B9F006811781E090D7
:105A6000F205F090F305E114F10471F00115110550
:105A700059F0F80180858F708530A9F7C8010E9420
:105A8000357D823080F36DC08091F0058150809328
:105A9000F0058091E7069091E806059709F47DC02E
:105AA0000E9451709B01AC016091DC067091DD0693
:105AB0008091DE069091DF06AA24AA94BA2C650193
:105AC00018EEE12E13E0F12E00E010E00E94A92470
:105AD000882309F462C010E0E091D206F091D30669
