:100000000C94B40D0C94E50D0C94E50D0C94E50DD9
:100010000C94E50D0C94E50D0C94E50D0C94E50D98
:100020000C94E50D0C94E50D0C94E50D0C94E50D88
:100030000C94E50D0C94E50D0C94E50D0C94E50D78
:100040000C94E50D0C94E50D0C94E50D0C94E50D68
:100050000C94E50D0C94E50D0C94E50D0C94CA94EC
:100060000C94E50D0C9476750C944C750C94E50D80
:100070000C94E50D0C94E50D0C94E50D0C94E50D38
:100080000C94E50D0C94E50D0C94E50D0C94E50D28
:100090000C94E50D0C94E50D0C94E50D0C94C12524
:1000A0000C94E50D0C94E50D0C94E50D0C94E50D08
:1000B0000C94E50D0C94E50D0C94E50D0C94E50DF8
:1000C0000C94E50D0C94E50D0C94E50D0C94E50DE8
:1000D0000C94E50D0C94E50D0C94E50D0C94E50DD8
:1000E0000C94E50D07634236B79BD8A71A396856BA
:1000F00018AEBAAB558C1D3CB7CC5763BD6DEDFD4A
:10010000753EF6177231BF000000803F0800000006
:10011000BE922449123EABAAAA2ABECDCCCC4C3EFC
:1001200000000080BEABAAAAAA3E00000000BF00EB
:100130000000803F0000000000084178D3BB4387E7
:10014000D1133D190E3CC3BD4282AD2B3E68EC82FB
:1001500076BED98FE1A93E4C80EFFFBE01C4FF7F80
:100160003F00000000000C94412F0C94D7120C9417
:10017000309C0C941F8D0C94FF0D0C94986D0C9476
:1001800070530C9490190C947C6D0C9474140C9412
:1001900095570C94DC100C941A300C947E130C942C
:1001A000FD0F0C94300E0C9473A30C94528D0C9490
:1001B000940E0C9408700C94FE1E0C9470340C94E5
:1001C000E01A0C94E4340C94DE530C948EA30C943B
:1001D000A16C0C94DD7A0C94368C0C94416E0C94CA
:1001E000668D0C9431540C9490110C9410770C94EF
:1001F000A11E0C94706B0C9414540C94DE6C0C9433
:10020000E36D0C94178D0C94B42F0C94851B0C94F7
:1002100052630C9460540C94426B0C94B42E0C9466
:10022000EC0E0C94081C0C94B01A0C9432A30C9491
:10023000FE2F0C9428410C94060E0C9408200C946C
:1002400083A10C94B0100C940E100C9425580C94AF
:1002500031330C9473510C94D6160C946D150C9488
:10026000D8160C9428580C94520E0C947F6B0C9456
:1002700082970C947C570C945B770C94B9180C946F
:10028000478C0C9421110C94AE180C94BA3D0C942C
:10029000ED400C944F560C946C8C0C9405150C94FA
:1002A000F40F0C94077B0C941F1B0C949E2E0C9443
:1002B00005300C94C56E0C940D410C94AD760C94E5
:1002C000251C0C94C64E0C94F02F0C94936B0C943C
:1002D000157A0C949F110C9478730C94986C0C9470
:1002E000C0140C94500E0C94718C0C94638C0C9470
:1002F0005B3D0C94E70D0C9433140C94A52F0C94D7
:100300002C8C0C9422580C946E300C94950E0C94FA
:1003100011280C9406410C94558C0C9418570C948D
:10032000A0190C949C120C949E780C94916C0C94D3
:10033000CA570C9419560C94D2560C946A2F0C94EC
:10034000D06F0C94EB0D0C94A50E0C94CE650C9410
:100350005D2F0C94783D0C94388D0C94DD0F0C942B
:100360008E140C9415690C94E4110C94DB340C94E9
:10037000FF560C94B18D0C94BE7A0C94266C0C94A0
:10038000DF3D0C94116D0C9456110C941D190C94B6
:100390005A140C946D8C0C94A4760C94963D0C9489
:1003A000BF110C94898D0C94CD5E0C94D16D0C947E
:1003B0009B6C0C94EC0F0C9498110C94EF0F0C9414
:1003C00006140C94EF0D0C94708D0C94AD200C94CD
:1003D0005C8D0C943E700C94EB0F0C94796E0C9425
:1003E00097400C947A120C9454630C94202F0C9424
:1003F0002D300C94B7A20C949E560C9422770C943A
:10040000D5110C94960E0C94F1130C945A570C942D
:100410002AA30C942F0E0C94682E0C94F50F0C94B8
:10042000CC110C9431950C94270E0C94CB300C9479
:10043000CA400C94B0190C9475370C9478110C9434
:10044000460E0C948C2F0C94428D0C94436B0C94A0
:10045000328C0C94A8150C941E970C949B2E0C9423
:10046000598C0C94231F0C9400650C94D96B0C943C
:1004700093760C94938D0C94196E0C949D8D0C9422
:10048000C6110C94AE6F0C940A300C94248D0C940D
:10049000A78D0C94E4170C94518C0C9417540C9465
:1004A0002A6D0C941F330C9434690C94A16B0C943A
:1004B000141F0C9455400C94678C0C9440A30C941E
:1004C0009B710C94AB300C944A8D0C948C120C9450
:1004D000C4760C94F1530C9408540C945E9A0C94CA
:1004E0008AA80C94822E0C94B80E0C9479810C94EA
:1004F000418C0C942E8D0C94E3100C94B3120C943C
:10050000DE340C943E8C0C949C1B0C946B300C943D
:1005100033530C94C52F0C94A76D0C94CA530C94B0
:1005200053110C943A8C0C9449580C94F80F0C9479
:1005300077120C94185E0C94EA6D0C94616E0C9416
:1005400062740C94EC1A0C941C0E0C9422540C94AF
:100550006A210C9485560C94BF0E0C945F8C0C94FD
:100560004B8C0C947F8D0C94B8190C942B2F0C94FD
:10057000D41A0C9460A30C94EC1B0C9441200C94A2
:100580000A100C9456140C94B79D0C9481110C9481
:100590000B130C94776C0C94DE2F0C9425540C9454
:1005A00020150C946C2F0C94DE216364696E6F70BF
:1005B000737578585B00556E6B6E6F776E20737530
:1005C000666669782000556E6B6E6F776E20636D7E
:1005D000642000636C724374723A20002F00496EED
:1005E0003A20003D00494E3A003D004C454741430A
:1005F0005920494E3A00000020002300260029001F
:100600002C002F0032000001000003010601090147
:100610002D3E00200023002D3E00200050656E641A
:1006200065643A2023007261770076616C0074651E
:100630006D7000736174006875650066616E0052CC
:10064000474200485356006D6F646500536574431C
:100650006D643A0053746F726564204558543A00D3
:10066000737566666978436F64653A004452590051
:1006700046414E5F4F4E4C5900584F4E0048414C3A
:1006800054002074696D653A004374726C205265A1
:10069000733A002054533A0020543A003D00506908
:1006A0006E3A004F4E3A416C726561647920416345
:1006B000746976650A0048414C543A416C72656130
:1006C000647920496E6163746976650A00584F4EFB
:1006D0003A416C7265616479204163746976650A98
:1006E00000584F464620736B69707065642E205029
:1006F00072657620636D643A005475726E6564208D
:100700006F66662066726F6D3A00526573746F7221
:1007100065642066726F6D3A0049676E6F7265643A
:100720002C206368616E6E656C20636D643D0020F3
:10073000457865633A004163746976653A004841DB
:100740004C543A416C726561647920496E616374FE
:100750006976650A00584F4E3A416C72656164795A
:10076000204163746976650A00584F464620736BD2
:1007700069707065642E205072657620636D643AEE
:10078000005475726E6564206F66662066726F6DC8
:100790003A00526573746F7265642066726F6D3AC9
:1007A000002044697361726D656400206D73203AA6
:1007B0000041726D656420666F7220004F75744F42
:1007C000664D656D6F7279210A0020436D643A00B1
:1007D000205375623D00204974656D3D0052414DC6
:1007E0003D00282D292000282B2920002076616C2F
:1007F0007565206973200020756E6B6E6F776E0AC9
:10080000005D3D005B0020696E76616C69640020CC
:1008100000206F6B003A00206661696C6564003AE5
:10082000005265747279696E67206D6F64627573CA
:1008300020434D440A00207365632072656D616931
:100840006E696E67005374617475732064656666C3
:10085000657265640A002D3E005075623A2000639F
:100860006D6400434F4F4C0048454154004155547E
:100870004F002D3E005075623A200073657400648D
:10088000656C002D3E005075623A20002D3E0050F0
:1008900075623A2000556E6B6E6F776E20636D64E3
:1008A000200A004F4646004F4E0020002D3E0043D8
:1008B0006F6E76657274696E6720002D3E00577208
:1008C0006F6E672041737369676E6D656E7420008B
:1008D000524742783A200020764C6576656C3A00A3
:1008E00020436F6E76563A0020436F6E76533A007F
:1008F00020486F743A00436F6C643A0020436F6E77
:1009000076657274656420563A00436F6E76657240
:1009100074656420533A002D3E0057726F6E672055
:1009200041737369676E6D656E7420002D3E0057CC
:10093000726F6E672041737369676E6D656E7420A8
:100940000053617665643A0000000000000000007A
:10095000004F4E000000000000004F46460000001F
:10096000000000524553540000000000544F474718
:100970004C4500000048414C540000000000584F16
:100980004E000000000000584F46460000000000E6
:10099000494E435245415345004445435245415316
:1009A0004500484541540000000000434F4F4C00B3
:1009B000000000004155544F000000000046414E29
:1009C0005F4F4E4C59004452590000000000005344
:1009D000544F500000000000484947480000000004
:1009E000004D454449554D0000004C4F5700000054
:1009F00000000054525545000000000046414C5391
:100A00004500000000454E41424C45440000444929
:100A10005341424C45440052474200000000000050
:100A200048535600000000000020537566663A00E7
:100A30002041543A00436F6E6E656374696F6E3A7D
:100A400020636C6F736500485454502F312E312051
:100A5000323030204F4B00436D643A2000504F53EA
:100A600054202F636F6D6D616E642F0047455420D5
:100A70002F6974656D2F00504F5354202F69746592
:100A80006D2F002669703D004C6F636174696F6E55
:100A90003A20687474703A2F2F6C617A79686F6DA0
:100AA000652E72752F7077613F6D61633D0048540C
:100AB00054502F312E3120333031204D6F76656404
:100AC000207065726D616E656E746C790047455477
:100AD000202F00536B697070696E672E2E004F7562
:100AE000744F664D656D6F727921005D20003A5B31
:100AF000000A003A004D41433A00554450205379D2
:100B0000736C6F6720696E697469616C697A65647A
:100B10002E0A005379736C6F6720706172616D7378
:100B20003A003E003C00543A0043757272656E74A0
:100B3000204C414E20636F6E6669672869702C6493
:100B40006E732C67772C7375626E6574293A000A90
:100B500055736520746865736520636F6D6D616E94
:100B600064733A202768656C7027202D20746869AB
:100B70007320746578740A276D61632064653A6137
:100B8000643A62653A65663A66653A3030272073A2
:100B9000657420616E642073746F7265204D4143EB
:100BA0002D6164647265737320696E2045455052EF
:100BB0004F4D0A276970205B69705B2C646E735B14
:100BC0002C67775B2C7375626E65745D5D5D5D2768
:100BD000202D2073657420737461746963204950FB
:100BE0000A277361766527202D207361766520635F
:100BF000757272656E7420636F6E66696720696EC8
:100C0000204E5652414D3B204F4E7C4F4646202DA4
:100C100020656E61626C652F64697361626C65202A
:100C20006175746F736176650A2767657427205B49
:100C3000636F6E66696720616464725D27202D2092
:100C400067657420636F6E6669672066726F6D20DA
:100C50007072652D636F6E66696775726564205585
:100C6000524C20616E642073746F726520616464FD
:100C7000722C204F4E7C4F4646202D20656E6162BF
:100C80006C652F64697361626C6520646F776E6C4C
:100C90006F6164206F6E20737461727475700A27BF
:100CA0006C6F616427202D206C6F616420636F6E10
:100CB0006669672066726F6D204E5652414D0A2755
:100CC00070776427202D20646566696E6520616EEB
:100CD000642073746F7265204D5154542070617399
:100CE00073776F72640A276F746170776427202DA1
:100CF00020646566696E6520616E642073746F722E
:100D000065204854545020415049207061737377D6
:100D10006F72640A276C6F67205B73657269616C20
:100D20005F6C6F676C6576656C5D205B7564705F8A
:100D30006C6F676C6576656C5D27202D2064656639
:100D4000696E65206C6F67206C6576656C20283055
:100D50002E2E37290A276B696C6C27202D2074658D
:100D60007374207761746368646F670A27636C65C6
:100D7000617227202D20636C6561722045455052B9
:100D80004F4D0A277265626F6F7427202D207265A0
:100D9000626F6F7420636F6E74726F6C6C6572003B
:100DA000536F6674207265626F6F74696E672E2E62
:100DB0002E0009445332343832206572726F72004B
:100DC00009526573657420646F6E65000943686538
:100DD000636B696E6720666F7220312D576972658B
:100DE00020646576696365732E2E2E004453323479
:100DF00038322D3130302070726573656E74004565
:100E000072726F7220312D7720696E6974202332DF
:100E100020467265653A0077737461742E204672BD
:100E200065653A005465726D2E20467265653A001C
:100E30004572726F7220312D7720696E697420239C
:100E40003100467265653A004453323438325F31BE
:100E500030305F4932435F544F5F31575F425249F0
:100E600044474520696E69740020416464723A0009
:100E7000646576230052414D3D000A312D77697239
:100E80006520000A6D71747420000A696E707574B3
:100E90007320000A6974656D7320000A436F6E66E3
:100EA0006967757265643A003B003D0050696E3AAF
:100EB000003B003D4C4F5700546865726D6F3A001F
:100EC0004F6E6520776972652052656164790A000A
:100ED0004C6F61646564006C6F6164206661696C6D
:100EE0006564004E6F2073746F72656420636F6E6B
:100EF000666967004C6F6164696E6720436F6E6658
:100F000069672066726F6D20454550524F4D004312
:100F10006F6E666967206175746F736176653A00FC
:100F20000A5379736C6F67206465627567206C651E
:100F300076656C3A0053657269616C206465627510
:100F400067206C6576656C3A0053617665640A00CB
:100F50005365742064796E616D69632049500A009D
:100F6000454550524F4D20636C65617265640A00BF
:100F70004D5154542050617373776F7264207570B3
:100F800064617465640A004F544120506173737743
:100F90006F726420757064617465640A00636F75B4
:100FA0006C64206E6F742070617273653A20005516
:100FB0007064617465640A004C6F6164696E6720D7
:100FC0004854545020636F6E666967206F6E2073BB
:100FD0007461727475703A002B002D00485454509F
:100FE0002F312E312025690020485454502F312EA6
:100FF000310D0A486F73743A2025730D0A416363FB
:101000006570743A202A2F2A0D0A436F6E6E65634D
:1010100074696F6E3A20636C6F73650D0A002573F7
:101020000020000D0A00474554006661696C656444
:1010300020746F20636F6E6E6563740A00455252B0
:101040004F523A20536572766572207265747572DC
:101050006E65642000446F6E652E0A004170706CEE
:1010600079696E672E0A00436F6E6669672070614A
:101070007273696E67206661696C65640A00676FE8
:101080007420436F6E6669670A00726574636F64EB
:1010900065200068636C69656E7400667265652022
:1010A00000436F6E666967205552493A2068747430
:1010B000703A2F2F002044656661756C7420636F51
:1010C0006E666967207365727665722075736564F4
:1010D0003A20006C617A79686F6D652E7275002018
:1010E0005361766564000A282D294D444E53000A49
:1010F000282D2955415254425249444745000A2857
:101100002B295359534C4F47000A282D2950494445
:10111000000A282D294D43503233303137000A2838
:101120002D294152544E4554000A282B294F544131
:10113000000A282D29535049204C4544000A282DE7
:10114000294D4F544F5220435452000A282D294113
:1011500043204841494552000A282D29434353382A
:10116000313120262048444331303830000A282DC0
:1011700029524553544152545F4C414E5F4F4E5F8C
:101180004D5154545F4552524F5253000A282D2955
:101190004841524452455345542C207573696E673B
:1011A00020736F6674000A282D29434F554E54450D
:1011B00052000A282D29444854000A282B294F5749
:1011C000495245000A282D294D4F44425553000AE3
:1011D000282D29444D58000A282B2957697A6E6515
:1011E0007435313030000A282B29445332343832D8
:1011F0002D313030000A282B294672656552616D09
:10120000207072696E74696E670064653A61643A51
:1012100062653A65663A66653A6566000A466972CD
:101220006D77617265204D4143204164647265733E
:101230007320006C617A79686F6D652E7275000A93
:10124000436F6E666967207365727665723A000A4D
:10125000282B295741544348444F470032303131FD
:1012600030334C0020432B2B2076657273696F6EF0
:101270003A00353661386335635F323032312D30B4
:10128000382D3234000A4C617A79686F6D652E72A0
:1012900075204C6967687448756220636F6E74725C
:1012A0006F6C6C65722000204F464600204F4E0048
:1012B000757074696D65006672656568656170005A
:1012C0002054696D65723A00204C6F636B733A006D
:1012D0002000204C6F636B733A000A52414D3D0071
:1012E00020457870697265640A00202D7461726708
:1012F0006574207A6F6E652D0020416C61726D20DF
:10130000457870697265640A0020636D643A002054
:101310004375723A00205365743A005361766564F0
:1013200020746F20454550524F4D00536176696ED1
:101330006720636F6E66696720746F204545505261
:101340004F4D2E2E00206973200044656C65746932
:101350006E6720636F6E662E2052414D2077617359
:101360003A0053746F707065640053746F707069E5
:101370006E67206368616E6E656C73202E2E2E0082
:101380004E6F7420756E6C6F636B656420696E20A0
:10139000313073202D20636F6E74696E7565202E59
:1013A0002E2E00556E6C6F636B696E6720636F6ED7
:1013B000666967202E2E2E004D756C746956656E19
:1013C0007420636F6E666967206661696C6564008E
:1013D0004D756C746956656E7420696E6974004D44
:1013E000756C746976656E742044652D496E6974F8
:1013F00000204F75743A00206D33002066726F6DC7
:101400002000204D617820726571756573743A0013
:101410002066616E253A0020616374697665205606
:101420003A00546F74616C20563A0050574D2D4F5E
:10143000757420496E69740050574D2D4F75742096
:1014400073746F70005247422050574D0020505720
:101450004D00524742572050574D003D0050696E95
:101460003A0020416464723A00646576230020618A
:101470006C69766500204E6F64653A00312D77699E
:10148000726520636F756E743A2000312D77697232
:10149000652073686F72746564005B305D3A20008C
:1014A000202D202D202D20EFBBBF003E003E3120FF
:1014B0002D200020002E00696E00735F6F75740090
:1014C0006D79686F6D6500202D3E2000456D697453
:1014D0003A2000202D3E20004974656D436D643A2A
:1014E0002000202D3E20004974656D3A2000005EEA
:1014F000BCE2613FDD83C29C7E20A3FD1F419DC3F2
:10150000217FFCA2401E5F01E3BD3E6082DC237DA3
:101510009FC1421CFEA0E1BF5D0380DE3C62BEE0D5
:10152000025CDF81633D7C22C09E1D43A1FF461803
:10153000FAA427799BC584DA3866E5BB5907DB85B1
:101540006739BAE406581947A5FB7826C49A653B63
:10155000D987045AB8E6A7F91B45C6987A24F8A695
:10156000441A99C7257B3A6486D85B05E7B98CD2C3
:10157000306EEDB3510F4E10F2AC2F7193CD114F71
:10158000ADF3702ECC92D38D6F31B2EC0E50AFF123
:10159000134DCE90722C6D33D18F0C52B0EE326C55
:1015A0008ED0530DEFB1F0AE4C1291CF2D73CA9483
:1015B0007628ABF517490856B4EA6937D58B570931
:1015C000EBB536688AD495CB2977F4AA4816E9B7E3
:1015D000550B88D6346A2B7597C94A14F6A8742A15
:1015E000C896154BA9F7B6E80A54D7896B35436FEF
:1015F0006E6E65637465642E00436F6E6E2E20619F
:10160000626F72746564003E3E2000496E76616CC4
:10161000696420636F6D6D616E64003E3E3E004EF6
:101620006F204D414320636F6E6669677572656414
:101630003A20736574206669726D776172652773ED
:10164000204D41430A00476F742049502061646473
:10165000726573733A00276970205B69705B2C6454
:101660006E735B2C67775B2C7375626E65745D5D62
:101670005D5D27202D207365742073746174696328
:101680002049500A004661696C656420746F2063CC
:101690006F6E6669677572652045746865726E6500
:1016A00074207573696E6720444843502E20596F2B
:1016B000752063616E20736574206970206D616EA2
:1016C00075616C6C7921000A757365732044484319
:1016D000500A00204D41534B3A002047573A002012
:1016E000444E533A004C6F616465642066726F6DBE
:1016F00020666C6173682049503A005374617274BB
:10170000696E67206C616E0041424344454647481C
:10171000494A4B4C4D4E4F505152535455565758C1
:10172000595A6162636465666768696A6B6C6D6E5D
:101730006F707172737475767778797A303132336D
:101740003435363738392B2F3D004F544120696EE0
:10175000697469616C697A65640A0044454641555B
:101760004C542070617373776F726420666F7220BF
:101770004F5441204150492E20557365206F7461AC
:1017800070776420636F6D6D616E6420746F207379
:10179000657400757074696D652C66726565686541
:1017A0006170002473746174730035366138633579
:1017B000635F323032312D30382D3234004C69675E
:1017C00068744875622000246E616D650072656101
:1017D0006479002074727920616761696E20696E96
:1017E0002035207365636F6E6473006661696C6594
:1017F000642C2072633D004177616974696E6720D3
:10180000666F722072657461696E656420746F70B2
:1018100069637300636F6E6E6563746564206173E2
:101820002000202E2E2E0020757365723A003A009B
:101830000A417474656D7074696E67204D5154541B
:1018400020636F6E6E656374696F6E20746F200025
:1018500024737461746500646973636F6E6E65638D
:10186000746564005573696E67204D51545420703F
:10187000617373776F72642066726F6D20636F6E31
:1018800066696700446576696365204E616D653AF7
:1018900000526562696E6420737563636573732EAD
:1018A00020495020616464726573733A0045727216
:1018B0006F723A20726562696E64206661696C00BD
:1018C00052656E6577656420737563636573732E07
:1018D00020495020616464726573733A00457272E6
:1018E0006F723A2072656E65776564206661696C17
:1018F000000A4E6F206C696E6B0041636365707403
:10190000696E6720636F6D6D616E64732E2E2E0A93
:101910000047455400504F535400617574686F720E
:10192000697A6174696F6E3A2000417574686F72EC
:10193000697A6174696F6E3A2000436F6E74656EE8
:10194000742D4C656E6774683A20000000220025F3
:101950000028002B002E0031003400020100000599
:101960000108010B0100000A0B02090C0D0E08070B
:10197000030401000000000000000000000000005F
:101980000000000000000000000000000000000057
:101990000012111000000000000000000000000014
:1019A00000000000000000000000000000210024F2
:1019B0000027002A002D0030003300010100000440
:1019C0000107010A01010210202008081020401020
:1019D00020408002010201080402010102040810F3
:1019E0002040808040201008040201800402018011
:1019F000402010080402010804020101020408103A
:101A000020408001020408102040800505050507DC
:101A10000508080808020202020A0A080804040469
:101A20000401010101010101010303030303030395
:101A300003040707070C0C0C0C0C0C0C0C02020224
:101A40000206060606060606060B0B0B0B0B0B0B17
:101A50000B436F6E6E656374696F6E3A20636C6FD3
:101A60007365004F4B00496E7465726E616C205354
:101A70006572766572204572726F72005061796C82
:101A80006F616420546F6F204C61726765004E6F08
:101A90007420666F756E64005757572D41757468D2
:101AA000656E7469636174653A204261736963208D
:101AB0007265616C6D3D224163636573732072656D
:101AC00073747269637465642200556E617574681D
:101AD0006F72697A6564005061796C6F616420731C
:101AE000697A652077726F6E670042616420726563
:101AF0007175657374002000485454502F312E3195
:101B00002000436F6E74656E742D547970653A20B1
:101B100000436F6E6E656374696F6E3A20636C6F1D
:101B2000736500485454502F312E3120323030200C
:101B30004F4B00202D3E2041543A004368616E20F7
:101B4000747970653A004E6F2073746F726564200B
:101B500076616C756573202D2064656661756C74A3
:101B60003A2000008AA8319511241FBECFEFD1E2A0
:101B7000DEBFCDBF00E00CBF16E0A0E0B2E0EAE0BF
:101B8000FAE701E00BBF02C007900D92AA33B1073C
:101B9000D9F72BE0AAE3B6E001C01D92AE33B2073D
:101BA000E1F71DE0C3EBDDE000E006C0219701098D
:101BB000802FFE010E94C3B7C23BD10780E0080717
:101BC000A9F70E943F950C94F3BC0C940000FC0113
:101BD000818D928D0895FC0184899589089525ED64
:101BE00033E0FC0131832083FB0140895189628904
:101BF0007389FC0142835383648375830895DC01F8
:101C0000ED91FC91048CF58DE02D1994CF93DF9329
:101C10001F92CDB7DEB76983DC01ED91FC910280A4
:101C2000F381E02D41E050E0BE016F5F7F4F1995D9
:101C30000F90DF91CF910895FC019485FB0184857D
:101C4000981303C081E0943009F480E0089521E006
:101C5000FC018485843009F420E0822F08950895E2
:101C6000CF93DF931F92CDB7DEB76983DC01ED918F
:101C7000FC910280F381E02D41E050E0BE016F5FF6
:101C80007F4F19950F90DF91CF910895DC01ED9171
:101C9000FC91068CF78DE02D199591E08927089528
:101CA000862F089581E086270895DC0180E0615049
:101CB00038F0ED91E827F0E0E251FB4E8491F7CF48
:101CC0000895FC01818191E090938E088093B00883
:101CD00010928F081092B10808952091F406260FF3
:101CE0003327331F21323105ECF420918808FC01A1
:101CF00090E080E0243069F082E00895A091F4063D
:101D00002191AC014E52594FA40FB52FB11D2C9308
:101D10000196861798F38091F406680F6093F40695
:101D200080E0089581E0089508950895E0911A07EC
:101D300080911907E81730F4F0E0E55EF84F8081F4
:101D400090E008958FEF9FEF089590911A0780918A
:101D500019072FEF3FEF981748F4E92FF0E0E55E01
:101D6000F84F208130E09F5F90931A07C9010895D2
:101D70008091190790911A07891B990B0895CF92AA
:101D8000DF92EF92FF920F931F93CF93DF937C012B
:101D9000CB018A0120918E08222389F0EB016B018F
:101DA000C40ED51ECC15DD0569F06991D701ED9102
:101DB000FC910190F081E02DC7011995F3CF642FBC
:101DC0000E946D0EC801DF91CF911F910F91FF907E
:101DD000EF90DF90CF900895CF93DF931F92CDB710
:101DE000DEB7698320918E082223F9F02091B10893
:101DF000203258F021E030E0FC013383228390E070
:101E000080E00F90DF91CF91089580918F08E82FA7
:101E1000F0E0E057F74F998190838F5F80938F08B0
:101E20008093B10881E090E0ECCF61E0CE010196B3
:101E30000E946D0EF7CF8F929F92AF92BF92CF927A
:101E4000DF92EF92FF920F931F93CF93DF9300D017
:101E500000D000D01F921F92CDB7DEB77C018E015B
:101E60000F5F1F4F68018AE0882E912CA12CB12CA6
:101E7000C601801B910B411551056105710581F06B
:101E8000CB01BA01A50194010E9438B7942F852F88
:101E9000605DF60161936F01A901692F782FE8CF8A
:101EA000F801E80FF91FD7010150110922912D9374
:101EB000E017F107D9F7E80EF91EF70110822B960B
:101EC0000FB6F894DEBF0FBECDBFDF91CF911F914B
:101ED0000F91FF90EF90DF90CF90BF90AF909F90C9
:101EE0008F900895FC01DC018D918111FDCF30E0D0
:101EF00020E050E040E08AE09191992301F14430E4
:101F000051055CF59E3271F42F3F310509F02CF537
:101F1000DB01A40FB51F12962C934F5F5F4F30E08B
:101F200020E0EACF829FD001839FB00D1124292F9A
:101F3000990F330B205331092A0F3B1FDDCF2F3F61
:101F4000310509F054F4443051053CF4640F751F19
:101F5000FB01228381E090E0089590E080E0089505
:101F6000CF93DF931F921F92CDB7DEB78091320BD4
:101F70009091330B009711F48EE39BE0BE016F5FED
:101F80007F4F681B790B072E000C880B990B0F9065
:101F90000F90DF91CF9108959FE9980F963010F43C
:101FA000875508959FEB980F963010F48753089546
:101FB00080538A3008F080E00895DC0115968D91F9
:101FC0009C91009739F0DC01ED91FC910680F7813E
:101FD000E02D19940895089590E080E0089580918F
:101FE000690690916A060895089583E090E0089547
:101FF00080916706909168060895FC0181E090E069
:1020000046855785248535854217530710F090E0A3
:1020100080E00895FC0184819581089590E080E03E
:102020000895CF93DF9300D000D01F921F92CDB7B9
:10203000DEB7FC01862F8F706281607F682B628320
:1020400088E0DE01119601900D928A95E1F72981D1
:102050003A814B815C816D817E818F819885289644
:102060000FB6F894DEBF0FBECDBFDF91CF910895BC
:10207000CF93DF9300D000D01F921F92CDB7DEB771
:10208000FC01608398E0DE01119601900D929A9513
:10209000E1F729813A814B815C816D817E818F815D
:1020A000988528960FB6F894DEBF0FBECDBFDF919E
:1020B000CF910895CF93DF9300D000D01F921F924D
:1020C000CDB7DEB7FC016F3F710519F014F06FEF6B
:1020D00070E077FD60E09281892F82958F7081504A
:1020E0008230C8F4648388E0DE01119601900D927D
:1020F0008A95E1F729813A814B815C816D817E81EE
:102100008F81988528960FB6F894DEBF0FBECDBF9D
:10211000DF91CF9108959F7090619283E3CFCF922A
:10212000DF92EF92FF92DC01362F1296EC9112971C
:10213000E295EF70EC3008F0B6C0F0E08827EC557F
:10214000FF4E8F4F0C94C3B75611DC10DC105311A7
:10215000531153112111E31053115311B010B0104A
:1021600014968D919D910D90BC91A02D662399F0B0
:10217000B7FD9FC08F3F9105A105B10529F024F05F
:102180008FEF90E0A0E0B0E02FEF30E0A901481B16
:10219000590BCA010CC0B7FD89C08F3F9105A1053D
:1021A000B10529F024F08FEF90E0A0E0B0E0FF90BF
:1021B000EF90DF90CF90089514962C91822F90E0AD
:1021C0006623A9F3E1CF1496CD90DD90ED90FC90BD
:1021D0001797662301F120E030E0A901C701B6019D
:1021E0000E94EEB587FD65C020E030E04FE753E484
:1021F000C701B6010E94F6B818160CF457C0A70123
:10220000960160E070E08FE793E40E94E1B70E94DE
:10221000C0B8CB01CCCF20E030E0A901C701B601A6
:102220000E94EEB587FD42C020E030E04FE753E466
:10223000C701B6010E94F6B81816DCF1C701B60155
:10224000E6CF14966D917D918D919C9117973323D4
:10225000B1F0673F5FEF75078507950754F161158A
:102260002AE07207810591050CF526EF3FEF4FEF4D
:102270005FEF0E945AB7C90181509F4F98CF673FC7
:102280004FEF7407840794078CF061155AE07507C7
:102290008105910574F42AE030E040E050E00E94AE
:1022A0005AB7C90184CF8FEF9FEF81CF90E080E0D4
:1022B0007ECF8FEF90E07BCFDC011296EC911297EE
:1022C000E295EF70E150EB3008F039C0F0E088277C
:1022D000E359FE4E8F4F0C94C3B7901190119F118C
:1022E000781178118111981198119811781178113D
:1022F00014966D917D918D919C9117970E94F5B5E3
:10230000089514966D917D918D919C9117972AE077
:1023100030E040E050E00E945AB7CA01B901EECF68
:1023200014966C9170E090E080E00E94F3B50895FF
:1023300014966D917D918D919C911797089560E011
:1023400070E0CB010895DC011296EC911297E295B2
:10235000EF70E150EB3008F037C0F0E08827EC5424
:10236000FE4E8F4F0C94C3B7C611C611E411BF11B6
:10237000BF11D511CC11CC11CC11BF11BF111496C6
:102380006D917D918D919C911797089514966C9104
:1023900070E090E080E0089514966D917D918D91AC
:1023A0009C9117970E94C0B8089514966D917D91E5
:1023B0008D919C9117972AE030E040E050E00E9418
:1023C0005AB7CA01B901089560E070E0CB010895E1
:1023D000FC01A7812A2F2E7FD1F0828182958F70F8
:1023E00081508330A0F4A695A150BB0B2BE531E0C2
:1023F0000E94DAB724E630E040E050E00E945AB78D
:10240000DA01C90187569F4FAF4FBF4F08958FEF35
:102410009FEF0895CF93DF93EC018A81982F9295D7
:102420009F7041F180E0943010F59B01770F440BD1
:10243000550B2959310941095109A4E6B0E00E9420
:1024400079B72BE531E040E050E00E945AB737FF02
:1024500002C030E020E02536310514F024E630E0FB
:102460002F5F220F8F818170282B2F8381E0DF91D6
:10247000CF9108958F7080628A83D7CFFC019281BB
:10248000892F82958F7021F0823029F080E00895A5
:102490009F70906292839B0177FF02C030E020E042
:1024A0002E3681E0380714F02DE631E0268387814F
:1024B00030FB80F9878381E00895DC01ED91FC9188
:1024C000309729F090859F7081E0953009F080E089
:1024D0000895DC0119968D919C91009739F0DC01EB
:1024E000ED91FC910280F381E02D1994089581E033
:1024F00090E00895CF93DF93EC01E881F9810484A3
:10250000F585E02D19952E853F852F5F3F4F3F873D
:102510002E87DF91CF910895FC0120893189848530
:102520009585620F731F820F931F6817790708F450
:10253000CB01978786870895FC0122813381232B65
:1025400049F0868197818130910539F01CF003971D
:10255000029730F090E080E0089581E090E00895E7
:1025600082E090E00895CF93DF93CDB7DEB7609718
:102570000FB6F894DEBF0FBECDBF19821A821B8240
:102580001C821D821E821F8218868B818F708B8316
:102590006FEF70E0CE0101960E945A1060960FB660
:1025A000F894DEBF0FBECDBFDF91CF910895CF92DB
:1025B000DF92EF92FF920F931F93CF93DF93CDB7EC
:1025C000DEB760970FB6F894DEBF0FBECDBF7C01BB
:1025D0006B01BA01A901CE0101960E941B0FD70120
:1025E000ED91FC910288F389E02D9801AE014F5FD7
:1025F0005F4FB601C701199560960FB6F894DEBF1C
:102600000FBECDBFDF91CF911F910F91FF90EF9043
:10261000DF90CF900895CF92DF92EF92FF920F93C9
:102620001F93CF93DF93CDB7DEB7AF970FB6F89474
:10263000DEBF0FBECDBF7C016A0105ED13E01A833A
:1026400009831C861B8688EE93E0A0E0B0E08D87AE
:102650009E87AF87B88B85E693E09A878987188F26
:102660000F8B198E1A8E1B8E1C8E84E089A31BA7DC
:102670000AA71CA61DA61EA61FA68091E008909181
:10268000E108A091E208B091E3088EA39FA3A8A758
:10269000B9A78B839C83AD83BE8318861F82AE014E
:1026A000465D5F4FCE0101960E94617B81309105AE
:1026B000B1F4D701ED91FC910488F589E02D1DA3BB
:1026C0000CA38CA59DA5AEA5BFA58EA39FA3A8A76F
:1026D000B9A7A601BE016C5D7F4FC7011995AF96E2
:1026E0000FB6F894DEBF0FBECDBFDF91CF911F9123
:1026F0000F91FF90EF90DF90CF900895CF92DF92EF
:10270000EF92FF920F931F93CF93DF93CDB7DEB776
:10271000AF970FB6F894DEBF0FBECDBF7C016A0144
:1027200005ED13E01A8309831C861B8688EE93E06F
:10273000A0E0B0E08D879E87AF87B88B85E693E0F9
:102740009A878987188F0F8B198E1A8E1B8E1C8E75
:1027500084E089A31BA70AA71CA61DA61EA61FA668
:102760008091E0089091E108A091E208B091E3081F
:102770008EA39FA3A8A7B9A78B839C83AD83BE8399
:1027800018861F82AE01465D5F4FCE0101960E9402
:10279000617B81309105B1F4D701ED91FC91068404
:1027A000F785E02D1DA30CA38CA59DA5AEA5BFA507
:1027B0008EA39FA3A8A7B9A7A601BE016C5D7F4FFA
:1027C000C7011995AF960FB6F894DEBF0FBECDBF07
:1027D000DF91CF911F910F91FF90EF90DF90CF90FD
:1027E0000895CF93DF93EC01888D843061F00E94CF
:1027F0002781E88DF0E0EE0FFF1FEC5BF84F1182B0
:10280000108284E0888FDF91CF910895EF92FF923C
:102810001F93CF93DF93FC01208D243039F080E0AB
:10282000DF91CF911F91FF90EF9008957B01EC0114
:1028300010E0812F0E94EA8181110FC0188F888DCE
:10284000843069F3FD86EC861A8E198E20E0A7018C
:1028500062E00E943B8181E0E3CF883179F31F5F22
:10286000143039F7ECCF0F931F93CF93DF931F9260
:10287000CDB7DEB78C01DC01ED91FC910084F185D0
:10288000E02D1995892B79F0BE016F5F7F4FF8011C
:1028900084850E94EC79898190E00F90DF91CF913F
:1028A0001F910F9108958FEF9FEFF7CFFC01848563
:1028B0000C944F7ACF93DF931F92CDB7DEB741E0F0
:1028C00050E0BE016F5F7F4FFC0184850E944F7A0C
:1028D0001816190634F4898190E00F90DF91CF919A
:1028E00008958FEF9FEFF9CFFC018485843011F0BC
:1028F0000C942D7A90E080E00895CF93C62F0E942B
:10290000610E61EE86EE98E00E94EC0E6C2F86EE72
:1029100098E00E94EC0ECF910C94E88ECF93C1E02A
:1029200068EE73E080E090E00E94EB8E4AE050E0B9
:102930006C2F80E299E00E947173CF5FC43181F700
:10294000CF9108951092880881E0809387081092B3
:10295000620861E084E10E94758C61E085E10E947B
:10296000758CE9EBF0E080818E7F808380818D7FA4
:10297000808388E48093B80085E48093BC00089548
:10298000CF93DF93DC011296ED91FC913097D1F15A
:10299000EC018E819F8183309105C1F0049729F16C
:1029A0004AE050E0608581ED99E00E9471736DE42A
:1029B00074E181ED99E00E940A7581ED99E00E9431
:1029C0005473EA81FB81808590E00CC065E474E17A
:1029D00081ED99E00E940A7581ED99E00E9454739F
:1029E00082E090E0DF91CF91089562E574E181ED9E
:1029F00099E00E940A7581ED99E00E94547381E08C
:102A000090E0F0CF90E080E0EDCF6FED73E181EDED
:102A100099E00E940A7581ED99E00E94547310922A
:102A200068061092670681E090E0089568ED7FE007
:102A3000811102C06AED7FE080E299E00C940A7592
:102A400060EA7DE080E299E00E940A75F0E0E0E053
:102A5000199467EE77E0811102C062EE77E081EDB4
:102A600099E00C940A75EF92FF920F931F93CF9306
:102A7000DF93EC01A881B981109761F18C918823D3
:102A800049F108811981F8018081882351F08D3244
:102A900041F080538A3028F00F5F1F4F198308835D
:102AA000F0CFC8010E9440AE7C016CE270E0C8012A
:102AB0000E9411BC009751F419821882C701DF915E
:102AC000CF911F910F91FF90EF90089501969983F8
:102AD0008883F4CFF12CE12CF1CF0F931F93CF9388
:102AE000DF938C01EB0102977CF08A819B810E942D
:102AF00040AE809305020230110531F08C819D813A
:102B00000E9440AE8093040265E37FE080E299E09A
:102B10000E940A754AE050E06091050280E299E067
:102B20000E94717360E27FE080E299E00E940A7582
:102B30004AE050E06091040280E299E00E947173E3
:102B400080E299E0DF91CF911F910F910C94547323
:102B50004F925F926F927F92AF92BF92DF92EF920D
:102B6000FF920F931F93CF93DF9300D000D0CDB788
:102B7000DEB77C01D62E8091CD06882309F4BEC035
:102B8000D70114969C9180910402891708F4B6C06D
:102B90008091CB069091CC06BAE06B13F0C08558BB
:102BA000994FFC011082D70117960D911C910115C8
:102BB000110509F49FC0F8016185728561157105E1
:102BC00091F445805680678070848091D4089091FC
:102BD000D508A091D608B091D708481659066A06BC
:102BE0007B0609F487C0D8011B964D915C911C9718
:102BF0004115510509F47EC0F701248153968C914B
:102C0000539790E0322F377002C0959587953A958B
:102C1000E2F780FF6FC0A22EB12CC501887F9370B0
:102C2000892B39F451968D919C91887F9370A82AB5
:102C3000B92AD8018D919C91DC01ED91FC9161152F
:102C4000710509F486C00688F789E02D199501976A
:102C500009F050C06CE3F801808191810E940C74EE
:102C6000A50170E060E02AE0D8018D919C910E945E
:102C70000873F8012281808191816DEA74E1222339
:102C800011F06BEA74E10E940A75D8011D966D91EE
:102C90007C911E978D919C910E94A47460E2F80132
:102CA000808191810E940C74D8011F966D917C9156
:102CB00050978D919C910E94A474F801228180818B
:102CC000918160EA74E1222311F06AE974E10E94C3
:102CD0000A756BE776E0D8018D919C910E94A474EF
:102CE000F80180819181DC01ED91FC91008CF18DE6
:102CF000E02D19951092CC061092CB06D7011596AF
:102D00008D919C911697009709F44DC014963C91B3
:102D100020910502231708F446C0DC01ED91FC91D7
:102D20000190F081E02D6D2D199526960FB6F8943F
:102D3000DEBF0FBECDBFDF91CF911F910F91FF90EE
:102D4000EF90DF90BF90AF907F906F905F904F902B
:102D500008950488F589E02D25ED33E03A83298331
:102D6000D80115964D905D906D907C9018974B8290
:102D70005C826D827E82BE016F5F7F4F67CF8F3432
:102D800091050CF0BBCFBDE06B1709F4B7CF9C01E8
:102D90002F5F3F4F3093CC062093CB068558994F39
:102DA000FC016083ABCF81E090E0BFCF0C9410AC0E
:102DB0000C9410AC0F931F93CF93DF93C92FD62F92
:102DC000082F192F17FF03C011950195110961E014
:102DD000802F0E94A38C6C2FDD23A9F06095661FC5
:102DE0006627661F802F0E94758C6CEA72E181ED68
:102DF00099E00E940A7581ED99E0DF91CF911F91D2
:102E00000F910C945473661F6627661F802F0E94D3
:102E1000758C67EA72E1EBCFEF92FF920F931F93ED
:102E2000CF93DF93EC018B011D821C821A821B82DF
:102E3000E880F980E114F10409F45DC08091630633
:102E400090916406892B09F456C0672B09F4870119
:102E5000F80180858F708630A9F467ED73E0C801B2
:102E60000E941485009719F0FC0181858A8363EF25
:102E700075E0C8010E941485009709F443C0FC0165
:102E800081858B8369ED73E0C7010E9414850097EB
:102E900079F56EED75E081ED99E00E940A754AE0E2
:102EA00050E06B8181ED99E00E9471736CED75E0EB
:102EB00081ED99E00E940A754AE050E06A8181ED57
:102EC00099E00E94717381ED99E00E94547320E0B3
:102ED00030E0A90169ED73E0888199810E94118831
:102EE00069ED73E0888199810E941485009719F03B
:102EF00009969D838C83DF91CF911F910F91FF9055
:102F0000EF900895F801808191810E9440AEB9CF81
:102F1000FC0186819781009799F0FC0120852F7034
:102F2000223029F461857285838594850895253042
:102F300039F460E00E948985009711F0FC01F2CF1E
:102F400060E070E0CB0108950F931F93CF93DF9360
:102F5000FC01C281D3812097F9F088858F7082307F
:102F600049F4672BC9F489859A85DF91CF911F9128
:102F70000F910895853081F48B01CE010E949685D2
:102F80008017110649F044F0602FCE010E94898518
:102F9000FC0181859285E9CF90E080E0E6CFFC01DD
:102FA0006115710519F48481958108958681978151
:102FB000681779072CF084819581860F971F0895F3
:102FC000828193810C94A417CF93DF93EC0168E383
:102FD00074E181ED99E00E940A7581ED99E00E940B
:102FE0005473E881F981028CF38DE02DCE0119959F
:102FF0008130910529F0029759F060E08C811AC068
:1030000063E070E0CE010E94CF1760E00E94A38CC5
:1030100060E08C810E94A38C61E070E0CE010E9490
:10302000CF1760E00E94A38C62E070E0CE010E94A6
:10303000CF1760E00E94A38C10926A061092690676
:1030400081E090E0DF91CF9108950F931F93CF938C
:10305000DF93EB0163E0FC01808191810E9489850F
:10306000009799F0C095D095CF6FAE0170E060E009
:10307000FC01018512852385348540235123622379
:1030800073234187528763877487DF91CF911F91A4
:103090000F9108950F931F93CF93DF93EB0163E09C
:1030A000FC01808191810E948985009789F0CC275D
:1030B000AE0170E060E0FC01018512852385348556
:1030C000402B512B622B732B418752876387748768
:1030D000DF91CF911F910F910895CF93DF93EB0173
:1030E00063E0FC01808191810E948985009741F015
:1030F000FC01818592858C239D23DF91CF910895DA
:1031000090E080E0FACFCF93C62F63E0FC0180818E
:1031100091810E9489850097F9F0FC0141855285D3
:10312000638574854427662777274C2B4187528710
:10313000638774876CE476E081ED99E00E940A75FC
:103140004AE050E06C2F81ED99E00E94717381EDAF
:1031500099E0CF910C945473CF910895FC01828132
:103160009381009719F062E00E94831881E090E05B
:103170000895CF93DF93EC010E94AE186BE274E1E7
:1031800081ED99E00E940A7581ED99E00E945473E7
:103190008A819B81892B09F44DC08C819D81892B6B
:1031A00009F048C0E881F981028CF38DE02DCE0151
:1031B00019958130910529F0029759F061E08C81D1
:1031C0001AC063E070E0CE010E94CF1761E00E9458
:1031D000A38C61E08C810E94A38C61E070E0CE0141
:1031E0000E94CF1761E00E94A38C62E070E0CE01E4
:1031F0000E94CF1761E00E94A38C8091A100887F7C
:103200008093A10080919100887F809391008091AC
:10321000A10082608093A1008091910082608093E0
:10322000910081E090E090936A0680936906DF91B7
:10323000CF91089590E080E0FACFCF93DF93EC0137
:103240000E94AE18EC81FD81309709F44FC0C68111
:10325000D7812097C1F1E881F981309781F1808190
:10326000882369F16CED73E0CE010E941485892BEF
:1032700041F42FEF3FEFA9016CED73E0CE010E9406
:1032800011886DE774E0CE010E941485892B41F40A
:103290002FEF3FEFA9016DE774E0CE010E94118886
:1032A0006EE074E0CE010E941485892B41F42FEF6B
:1032B0003FEFA9016EE074E0CE010E9411880A8000
:1032C000DB81C02DC6CF60ED73E181ED99E00E94F6
:1032D0000A7581ED99E00E94547381E090E090932B
:1032E000680680936706DF91CF91089568EB73E1DC
:1032F00081ED99E00E940A7581ED99E00E94547376
:1033000090E080E0F0CF63E0FC01808191810E9439
:103310008985009719F0FC01818508958FEF089544
:10332000892B59F0FB01828193810E94598667E8BD
:103330007FE080E299E00C940A7590E080E0F5CFA0
:10334000892B59F0FB01828193810E941A8660E7E4
:103350007FE080E299E00C940A7590E080E0F5CF80
:103360000E94A48760E67FE080E299E00C940A75F1
:10337000EF92FF920F931F93CF93DF93CDB7DEB7FA
:103380002C970FB6F894DEBF0FBECDBF8C017B012A
:1033900085ED93E09A8389831B821C821D821E82A5
:1033A00098878F8319861A861B861C86053011051F
:1033B000ECF0BE01695F7F4FF701808591850E9427
:1033C000720F892B99F0CE0107960E94DB86BE0111
:1033D000695F7F4FF701868197810E94720F892B69
:1033E00061F0CE0107960E9461870EC0CE01019662
:1033F0000E94DB860430110554F7CE0101960E942D
:103400006187033011057CF1BE01695F7F4FF701D1
:10341000848195810E94720F892B29F1CE01079634
:103420000E941E87BE01695F7F4FF70182819381F1
:103430000E94720F892BF1F0CE0107960E949886A8
:1034400069E47FE080E299E00E940A752C960FB64D
:10345000F894DEBF0FBECDBFDF91CF911F910F91CA
:10346000FF90EF900895CE0101960E941E870230D2
:103470001105C4F6CE0101960E949886013011050F
:10348000F9F6CE0101960E94988660E57FE080E221
:1034900099E00E940A75D4CF2F923F924F925F928B
:1034A0006F927F928F929F92AF92BF92CF92DF9254
:1034B000EF92FF920F93CF93DF9300D01F92CDB77F
:1034C000DEB77C017A8369835C834B83DB011C92CA
:1034D000FC016081662309F4C2C130FFC0C1F9E07C
:1034E0006F9FB0011124685B764FCD010E94C5AE7D
:1034F0004B815C816DEE75E089819A810E942CBCC4
:10350000E981FA8101900020E9F7319789819A8158
:10351000E81BF90B1C012E0E3F1EAB81BC81AE1BBC
:10352000BF0B1197BC83AB83D7011296EC91E29548
:10353000EF70E150EC3008F0B3C0F0E08827EC55B4
:10354000F54E8F4F0C94C3B7B01A1F1B851BEC1B95
:10355000081CEC1A9C1B9C1B9C1BE01AD41A251CF3
:10356000F7018481282F30E050E040E0002359F03B
:1035700030E0A4E6B0E00E948CB72FEF30E040E0EE
:1035800050E00E945AB75F934F933F932F9380EE82
:1035900093E09F938F93FC81FF938B818F933F9256
:1035A0002F920E9464BC77C0F70187818F93868138
:1035B0008F9385818F9384818F9383EE93E0E9CFFE
:1035C000F70187818F9386818F9385818F93848183
:1035D0008F9387EE93E0DDCFF701C480D580E6803E
:1035E000F780C701B6012AE030E040E050E00E94D9
:1035F0005AB797FF07C090958095709561957F4F5A
:103600008F4F9F4F9F938F937F936F93C701B60107
:103610002AE030E040E050E00E945AB75F934F93B9
:103620003F932F938BEE93E09F938F93FC81FF93B7
:103630008B818F933F922F920E9464BC2CC0C70154
:103640000E94E811BC01F701C680D780D0FADD24C2
:10365000D0F89481F580EB80BC80292F30E050E0D9
:1036600040E077FD35C0011135C07F936F931F9205
:103670001F921F929F931F92FF92DF92CF9282EF31
:1036800093E09F938F939C819F93AB81AF933F92E5
:103690002F920E9464BC0FB6F894DEBF0FBECDBF60
:1036A00089819A810F900F900F900F90DF91CF91A9
:1036B0000F91FF90EF90DF90CF90BF90AF909F90D1
:1036C0008F907F906F905F904F903F902F900895D4
:1036D000002361F0292F30E0A4E6B0E00E948CB70F
:1036E0002FEF30E040E050E00E945AB75F934F93D5
:1036F0003F932F931F92FF92DF92CF9285EF93E03B
:103700009F938F93BF92EF9295CFD70115968C918F
:1037100015971F928F9316969C91169717968C91DA
:1037200081708F939F9388EF93E09F938F93BC81D9
:10373000BF93EB81EF9333CFD70114968D909D907B
:10374000AD90BC90179720E030E0A901C501B4010D
:103750000E94EEB52401350187FF04C077FA70940A
:1037600077F87094C301B2010E94C0B86B01072EB4
:10377000000C880B990B0E94F5B59B01AC01C301AD
:10378000B2010E94E1B720E030E048EC52E40E9430
:1037900054B60E944BB90E94C0B8062F772E20E085
:1037A00030E0A901C501B4010E94EEB587FF07C052
:1037B0007F920F93DF92CF928EEF93E0B6CF7F92FE
:1037C0000F93DF92CF928FEF93E09F938F939C8123
:1037D0009F93AB81AF93E3CED70114968C9114974E
:1037E0001F928F9315968C9115971F928F93169613
:1037F0008C911F928F9385EF93E09F938F93BC8161
:10380000BF93EB81EF933F922F920E9464BC43CF12
:10381000D70117968C9117971F928F9314968C91BE
:1038200014971F928F9315968C9115971F928F93D3
:1038300016968C911F928F9382EF93E09F938F93B4
:10384000BC81BF93EB81EF93F5CED70114966D91B8
:103850007C914B815C81C1010E944ABC21CF2980AF
:103860003A8062CECF92DF92EF92FF920F931F9336
:10387000CF93DF93EC016A017B018E819F81892BBD
:10388000D9F4888199810E949685082F10E005302F
:10389000110594F40E946B78009721F0FC012085BB
:1038A000207F20879F838E83BC01888199810E941D
:1038B000F5870F5F1F4FEBCFEE81FF81309749F106
:1038C0008085982F9F7019F5807F82608087EE81B8
:1038D000FF81C186D286E386F48664E576E081EDD9
:1038E00099E00E940A752AE030E0B701A60181ED57
:1038F00099E00E94137481ED99E0DF91CF911F91BF
:103900000F91FF90EF90DF90CF900C945473923012
:10391000F1F2DF91CF911F910F91FF90EF90DF9027
:10392000CF900895DF92EF92FF920F931F93CF9362
:10393000DF93EC01888199810E949685082F10E021
:10394000043011059CF40E946B78009739F0DC017B
:1039500018962C911897207F18962C93BC0188817B
:1039600099810E94F5870F5F1F4FEACFE880F980A9
:1039700060E0C7010E948985FC01D184D88661E09E
:10398000C7010E9489858C019B838A8362E0C701FD
:103990000E9489859D838C8364E0C7010E9489858C
:1039A0009F838E83F3E0DF1661F082E1D81609F47D
:1039B00049C0DF91CF911F910F91FF90EF90DF9061
:1039C00008958AE090E00E9474AB7C01DC011396BC
:1039D000DC93CE93129784E392E08D939C9370E0F6
:1039E00060E0CE010E94A41797FD1DC0F7019583EA
:1039F00084830115110519F1F80180858F708230DB
:103A0000D9F08530E1F4C8010E94968590E0D70195
:103A100017969C938E93169788E592E08D939C93CE
:103A2000FA86E986C6CF919581959109D7011596B9
:103A30009C938E931497DDCF81E090E0E8CF90E0E7
:103A400080E0E5CF86E090E00E9474ABFC01D38378
:103A5000C2838CE792E091838083158214820115E2
:103A6000110541F0D80118968C918F70863011F4B1
:103A700015830483FA87E9879CCFCF93DF93EC010A
:103A8000798368831A8619861B861E8A1D8A0E947E
:103A90005D12882329F0CE01DF91CF910C94921C06
:103AA000DF91CF910895CF93DF93009709F484C0FD
:103AB000FC012081222309F47FC0EC016BE778E050
:103AC0000E948EAE892B09F456C06FE578E0CE01D6
:103AD0000E948EAE892B09F451C067E476E0CE01D6
:103AE0000E948EAE892B09F44CC063E476E0CE01CF
:103AF0000E948EAE892B09F447C06FE376E0CE01B9
:103B00000E948EAE892B09F442C06BE376E0CE01B1
:103B10000E948EAE892BF1F167E376E0CE010E9420
:103B20008EAE892BD1F163E376E0CE010E948EAE9A
:103B3000892BB1F16EE276E0CE010E948EAE892B28
:103B400091F16AE276E0CE010E948EAE892B71F18E
:103B50006FE778E0CE010E948EAE892B51F166E2CC
:103B600076E0CE010E948EAE892B31F58EE090E09A
:103B7000DF91CF91089582E090E0FACF81E090E06C
:103B8000F7CF88E090E0F4CF85E090E0F1CF86E0D9
:103B900090E0EECF87E090E0EBCF89E090E0E8CFD7
:103BA0008AE090E0E5CF8BE090E0E2CF8CE090E01F
:103BB000DFCF8DE090E0DCCF90E080E0D9CF0F93B5
:103BC0001F93CF93DF938C01FC01C081D1816FE201
:103BD00070E0CE010E9459BC0097E9F0FC011192FF
:103BE000CF010E94531DEC0160E676E081ED99E083
:103BF0000E940A754AE050E0BE0181ED99E00E9402
:103C00005B7481ED99E00E945473CE01DF91CF91F6
:103C10001F910F910895CE010E94531DEC01892B35
:103C2000A1F3F80111821082F0CF8F929F92AF9290
:103C3000BF92CF92DF92EF92FF920F931F93CF9399
:103C4000DF93CDB7DEB767970FB6F894DEBF0FBE30
:103C5000CDBF8C017B014C018BE0880E911C9F8AAB
:103C60008E8AF801128611861386168A158A672BAA
:103C700009F463C0A0904E07B0904F07A114B1049F
:103C800009F45BC06FE270E0C7010E9411BC6C01D7
:103C9000892B09F44AC0F701DE01119690E080E01B
:103CA000BD012191222341F02F3231F08431910561
:103CB00019F02D930196F5CF860F971FFC01108206
:103CC000C5010E941485F80191838083B6016F5F5E
:103CD0007F4F4AE050E0C4010E944ABCCE014696A4
:103CE0000E94DF1DF801968B858B8E899F89892B19
:103CF00009F41386C8010E945D12882319F0C801D7
:103D00000E94921C67960FB6F894DEBF0FBECDBF1F
:103D1000DF91CF911F910F91FF90EF90DF90CF90A7
:103D2000BF90AF909F908F900895B701C5010E94FA
:103D30001485F80191838083DDCFF8011182108210
:103D4000D9CF1F93CF93DF93162FFC01C685D7855C
:103D50009E012F5F3F4F37872687CE010E9412B703
:103D6000181721F0612FCE010E941AB781E090E070
:103D7000DF91CF911F910895CF93DF9300D000D0B2
:103D80001F921F92CDB7DEB770E060E083E49AE047
:103D90000E948C121C821B8285EC92E09A8389839C
:103DA00083E49AE09E838D838FEF9FEF98878F83C4
:103DB0006BE273E180E299E00E940A75609163060C
:103DC00070916406CE0101960E9465766FEF83E4E0
:103DD0009AE00E94A11E6BE173E180E299E00E94EB
:103DE0000A7580E299E00E94547328960FB6F89401
:103DF000DEBF0FBECDBFDF91CF910895029794F043
:103E00006FE07FE080E299E00E940A754AE050E0AE
:103E100070E060E080E299E00E945B7480E299E0EB
:103E20000C9454730C94BC1EFC01868597852485E4
:103E300035858217930720F40E9412B790E0089509
:103E40008FEF9FEF08952F923F924F925F926F9264
:103E50007F928F929F92AF92BF92CF92DF92EF921A
:103E6000FF920F931F93CF93DF93CDB7DEB7629787
:103E70000FB6F894DEBF0FBECDBF5C014B01290128
:103E80003A01CA01B9010E94C0B81B013F926F9369
:103E90008BEF93E09F938F93CE0101967C019F93CC
:103EA0008F930E94A1BC0F900F900F900F900F90D6
:103EB0000F9020E030E0A901C301B2010E94F6B8E2
:103EC000181624F077FA709477F87094F70101903F
:103ED0000020E9F731976F01CE18DF088EE280836A
:103EE000A2E0B0E0AC0FBD1FAC0DBD1DBA8BA98B1D
:103EF000B10137FE03C0719561957109072E000C61
:103F0000880B990B0E94F5B59B01AC01C301B2016E
:103F10000E94E1B720E030E040E251E40E9454B654
:103F20000E94C0B8605DE989FA896083FE01EC0DEA
:103F3000FD1D1382D501ED91FC910288F389E02DDE
:103F40009801A701B401C501199562960FB6F894BE
:103F5000DEBF0FBECDBFDF91CF911F910F91FF90BC
:103F6000EF90DF90CF90BF90AF909F908F907F9019
:103F70006F905F904F903F902F9008959B0190E03D
:103F80000496982F8827642F820F931F0C94D17961
:103F9000CF93DF93C82FD0E02496DC2FCC27C60F19
:103FA000D71F0E9456798FE00E946B798D2F0E9457
:103FB0006B798C2F0E946B7980E00E946B79C82FFF
:103FC0000E9454798C2FDF91CF910895CF93DF9386
:103FD000C82FD62F472F60E170E00E94BE1F4D2FE3
:103FE00061E170E08C2FDF91CF910C94BE1F90E0C7
:103FF000982F882744E050E0845F9B4F0C94A2796F
:10400000FC018485843011F00C94EA8180E00895ED
:10401000CF93DF93FC0124852430D9F0EC010E947A
:104020000020843189F0882379F0883169F021E01B
:104030008C3159F4E881F9810084F185E02DCE01BD
:10404000199521E0892B09F420E0822FDF91CF918F
:10405000089580E0FBCF44E050E0BC018FE090E0A9
:104060000C94A27944E050E0BC0185E090E00C940F
:10407000A27944E050E0BC0181E090E00C94A27988
:1040800008958F929F92AF92BF92CF92DF92EF925C
:10409000FF920F931F93CF93DF93CDB7DEB72D978A
:1040A0000FB6F894DEBF0FBECDBF7C0110E000E07C
:1040B00038EE832E33E0932EA12CB12C4BE9C42E85
:1040C00043E0D42E1C821B828D829E82AF82B886F2
:1040D000DA82C9820D87CE0101960E9400208111EB
:1040E00035C0F7014481558120E061E0802F0E94B6
:1040F0003B8180E590E00E946D8A63E070E0802F54
:104100000E94C81F833129F462E070E0802F0E9472
:10411000708AF70184819581000F111FF801EC5B13
:10412000F84F918380832D960FB6F894DEBF0FBEB3
:10413000CDBFDF91CF911F910F91FF90EF90DF9056
:10414000CF90BF90AF909F908F9008950F5F1F4FBB
:104150000430110509F0B6CFE6CFCF92DF92EF928F
:10416000FF921F93CF93DF93FC011485143089F1E4
:10417000EC0180E590E00E946D8A68E070E0812F9C
:104180000E94708A0E949C916B017C01CE010E946A
:1041900000208823A1F062E370E080E090E00E94BC
:1041A000EB8E0E949C916C197D098E099F09683ED7
:1041B00073408105910550F38C850E942781EC8521
:1041C000F0E0EE0FFF1FEC5BF84F1182108284E0ED
:1041D0008C87DF91CF911F91FF90EF90DF90CF9070
:1041E00008954F925F926F927F928F929F92AF92BB
:1041F000BF92CF92DF92EF92FF921F93CF93DF9304
:10420000CDB7DEB72D970FB6F894DEBF0FBECDBF8A
:104210007C0194E4A92E97E0B92E10E0D12CC12C9A
:1042200028EE422E23E0522E612C712C3BE9832E86
:1042300033E0932E1C821B824D825E826F827886D1
:104240009A8289821D87D5012D913D915D01F701EB
:104250008481958128173907B1F4CE0101960E9417
:104260000020843199F1CE0101960E9400208C310A
:1042700051F4CE0101960E947414892B21F4CE01D1
:1042800001960E94AD201F5F1430A1F6CD2841F4A5
:10429000D701ED91FC910084F185E02DC7011995BE
:1042A0002D960FB6F894DEBF0FBECDBFDF91CF9134
:1042B0001F91FF90EF90DF90CF90BF90AF909F90B5
:1042C0008F907F906F905F904F900895CC24C3940F
:1042D000D12CD9CF8F929F92AF92BF92CF92DF9283
:1042E000EF92FF920F931F93CF936C015B017A01C2
:1042F000FC01C485C430A1F481E090E0F601938311
:104300008283F12CE12CC701CF911F910F91FF9077
:10431000EF90DF90CF90BF90AF909F908F900895D7
:104320008A014130584010F000E018E080E590E04C
:104330000E946D8A8C2F0E94E08B4C0163E070E03C
:104340008C2F0E94C81F873111F08C3129F58016FF
:10435000910660F380E590E00E946D8A9801A501C6
:1043600070E060E08C2F0E94808B60E270E08C2F08
:104370000E94708A62E070E08C2F0E94C81F84FD4A
:1043800013C063E070E08C2F0E94C81F811107C02A
:104390008C2F0E942781B0CF10E000E0DBCF80E5BA
:1043A00090E00E946D8AE6CF40E162E070E08C2FE1
:1043B0000E94BE1F012B09F0A6CF9ECF3F924F92C5
:1043C0005F926F927F928F929F92AF92BF92CF92A5
:1043D000DF92EF92FF920F931F93CF93DF93CDB7AE
:1043E000DEB72D970FB6F894DEBF0FBECDBF6C01C0
:1043F0005B014A010E94F12084E4E82E87E0F82E58
:10440000312C10E000E098EE492E93E0592E612CFB
:10441000712C1C821B824D825E826F8278868BE9B2
:1044200093E09A8389833D86F701219131917F0141
:10443000F601848195812817390771F4CE01019620
:104440000E940020873141F4A401B501CE010196FC
:104450000E946A21080F191F3394F4E03F12D9CF4C
:10446000C8012D960FB6F894DEBF0FBECDBFDF9109
:10447000CF911F910F91FF90EF90DF90CF90BF9061
:10448000AF909F908F907F906F905F904F903F90F4
:104490000895CF93DF9391E09093D1068823B9F0EC
:1044A000C091B800D091BA008091BC008A7B809303
:1044B000BC0060E084E10E94758C60E085E10E94B0
:1044C000758C0E94A214D093BA00C093B800DF91FB
:1044D000CF910895CF92DF92EF92FF920F931F93A7
:1044E000CF93FC01C1810E94D38D6B017C0180912F
:1044F0008808811164C081E08093880880938708D0
:104500009FEF9093860810928508109284088093FC
:10451000630880916308CC0FC82BC0936308809117
:104520006208813009F081C0109262080E94D38D28
:104530006B017C01809163088093BB0080918A08A5
:1045400090918B08A0918C08B0918D08892B8A2BB3
:104550008B2BA1F00E94D38D00918A0810918B08BB
:1045600020918C0830918D086C197D098E099F0966
:10457000061717072807390708F442C08091BC00C6
:1045800083FDD8CF85EC8093BC000E94D38D6B0156
:104590007C0180918808813009F449C080918508A8
:1045A000811167C080918508E4E6F8E0ABE1B7E0EF
:1045B00090E0981751F121912D939F5FFACF809150
:1045C0008A0890918B08A0918C08B0918D08892B56
:1045D0008A2B8B2B09F48BCF0E94D38D00918A08F4
:1045E00010918B0820918C0830918D086C197D09F1
:1045F0008E099F09061717072807390708F077CF94
:10460000809189080E94492280E010921A078093C5
:10461000190786EE98E00E94A50ECF911F910F9189
:10462000FF90EF90DF90CF90089585EEACCF809112
:104630008A0890918B08A0918C08B0918D08892BE5
:104640008A2B8B2B09F4A5CF0E94D38D00918A0869
:1046500010918B0820918C0830918D086C197D0980
:104660008E099F09061717072807390708F091CF09
:10467000C7CF81E099CFAF92BF92CF92DF92EF92F6
:10468000FF921F93CF93DF93EC010E949C916B01EB
:104690007C0128EEC20E23E0D21EE11CF11C10E0CA
:1046A0008BE4A82EB12C0E949C916C157D058E0583
:1046B0009F0598F460EFCE010E947D14CE010E9408
:1046C0006A22182F80FF11C0EF85F889309709F012
:1046D0001995C5010197F1F7E6CF81E08A8367E07C
:1046E00074E084E399E00E945873812FDF91CF91A9
:1046F0001F91FF90EF90DF90CF90BF90AF90089503
:104700001F93CF93DF93EC01162F0E943B23CE0122
:104710000E94610E62ED86EE98E00E94EC0E612F21
:1047200070E06095709584E0660F771F8A95E1F7D9
:10473000612B86EE98E00E94EC0E0E94E88ECE017E
:104740000E946A22811711F084E08A83DF91CF9161
:104750001F910895CF93DF93EC0163EC0E947D14C9
:10476000CE01DF91CF910C946A220F931F93CF93C8
:10477000DF93EC010E943B2380FD36C0CE010E94F6
:10478000AA2360E0CE010E948023CE010E943B2339
:10479000CE010E94610E64EB86EE98E00E94EC0E62
:1047A0000E94E88ECE010E943B23082F10E082FF7A
:1047B00016C082E08A838881882341F0CE010E945E
:1047C000AA23682F6160CE010E948023159507956A
:1047D000802F8170DF91CF911F910F9108958A8171
:1047E000823049F71A82E7CF80E0F4CFCF93DF938E
:1047F000EC010E94AA23682F6460CE01DF91CF9163
:104800000C9480230F931F93CF93DF93EC01162F0B
:10481000042F0E943B23002319F0CE010E94F623AF
:10482000CE010E94610E65EA86EE98E00E94EC0ED1
:10483000612F86EE98E00E94EC0EDF91CF911F91E0
:104840000F910C94E88E6F927F928F929F92AF920D
:10485000BF92CF92DF92EF92FF920F931F93CF936D
:10486000DF93FC0124852111A0C0872E762EEC0158
:104870000E94B523811116C062E174E084E399E0DF
:104880000E9458738FEFDF91CF911F910F91FF908E
:10489000EF90DF90CF90BF90AF909F908F907F90E0
:1048A0006F900895CE010E943B2340E060EFCE015F
:1048B0000E94022410E000E066246A94AA24A394D3
:1048C000B12CE02EE694E694E694F12C802F8770CC
:1048D000650101C0CC0C8A95EAF78B85082E000C87
:1048E000990B081719079CF5FE01EE0DFF1D93802B
:1048F0009C20CE010E943B23CE010E94610E68E7FE
:1049000086EE98E00E94EC0E992011F080E8982E37
:10491000692D86EE98E00E94EC0E0E94E88ECE0192
:104920000E943B23982F907485FF18C09923D1F0E3
:1049300042E050E0682F84E399E00E9471736EE1D9
:1049400074E084E399E00E9458738EEF9CCF992421
:1049500093940817190769F2912CCBCF911102C0DB
:1049600087FF602EFE01EE0DFF1D938187FF1AC0A9
:10497000C92AC3820F5F1F4F0034110509F0A1CF70
:104980006B86FFEF6F1202C081E08C872396E72DC4
:10499000F82DCF01089629912193E817F907D9F747
:1049A00081E071CFC094C922E4CF80E06CCFEF9258
:1049B000FF920F931F93CF93DF938C017B0140E015
:1049C00065E50E940224E70188E0E80EF11C699188
:1049D00040E0C8010E940224CE15DF05C1F7DF9137
:1049E000CF911F910F91FF90EF900895CF92DF929A
:1049F000EF92FF920F931F93CF93DF938C01EB0104
:104A00007A01FC01858196810E94B5238823C1F13A
:104A1000BE01F801858196810E94D72440E06EEBAB
:104A2000F801858196810E940224E7016701F9E07F
:104A3000CF0ED11CF801E580F680C7010E943B2310
:104A4000C7010E94610E66E986EE98E00E94EC0EB6
:104A50000E94E88EC7010E943B2361EEC7010E94BD
:104A60007D14C7010E946A228993CC16DD0611F7D6
:104A7000F801858196810E94B52391E0813009F08B
:104A800090E0892FDF91CF911F910F91FF90EF90D0
:104A9000DF90CF900895CF93DF93EA010E94F62430
:104AA000982F882341F068E0CE010E94550E91E0D6
:104AB0002885281390E0892FDF91CF910895CF9317
:104AC000DF9300D000D000D0CDB7DEB7AE014F5F8E
:104AD0005F4F0E944B25882331F08D818F33A9F0E1
:104AE00020F48F31A1F080E007C08F3521F08F379F
:104AF000D1F78CE001C08BE029960FB6F894DEBFA9
:104B00000FBECDBFDF91CF9108958AE0F5CF89E048
:104B1000F3CF85ED8093BC0080918A0890918B083B
:104B2000A0918C08B0918D080796A11DB11D23E0BE
:104B3000B695A795979587952A95D1F72091BC00B2
:104B400024FD03C010928808089540918A0850916E
:104B50008B0860918C0870918D08452B462B472B54
:104B600069F30097A105B10541F025E32A95F1F716
:104B700000000197A109B109E1CF809189080C9447
:104B800049221F920F920FB60F9211240BB60F926B
:104B90002F933F934F935F936F937F938F939F9345
:104BA000AF93BF93EF93FF938091B900887F8036D6
:104BB00009F44DC008F040C0883209F4A9C028F5B6
:104BC000803109F49DC0C8F4882309F4FBC0883003
:104BD00009F496C0FF91EF91BF91AF919F918F9192
:104BE0007F916F915F914F913F912F910F900BBEED
:104BF0000F900FBE0F901F901895883109F488C050
:104C0000803241F78093860814C0803409F49DC037
:104C100040F48033B9F38833E9F68093860885EC55
:104C2000B0C0803509F485C0883509F496C0883451
:104C300089F60E948925CECF883909F48CC038F5D1
:104C4000883729F050F4883611F0803719F683E060
:104C5000809388081092180757C0883809F47BC0E1
:104C6000803919F0803809F0B5CF8091180780326B
:104C700008F071C0E091180781E08E0F809318074B
:104C80008091BB00F0E0E850F94F80833DC0803B4D
:104C900039F0E0F4803A09F479C0883A09F09ACF03
:104CA00084E0809388081092F5061092F406E09153
:104CB000F206F091F30619958091F40681110FC068
:104CC00081E08093F4061092D20609C0803C09F47A
:104CD000A6CF883C09F4A3CF883B09F07BCFE091B5
:104CE000F50681E08E0F8093F506F0E0EE52F94F65
:104CF00080818093BB009091F5068091F40629C0D5
:104D0000809163088093BB0085EC8093BC0062CFE8
:104D10009091850880918408981758F5E09185084E
:104D200081E08E0F80938508F0E0EC59F74F808189
:104D3000E9CFE091850881E08E0F8093850880910E
:104D4000BB00F0E0EC59F74F80839091850880918B
:104D500084089817C8F285E8D8CFE091850881E0EB
:104D60008E0F809385088091BB00F0E0EC59F74FDF
:104D700080838091870881115CCF81E080936208F5
:104D800084EA8093BC001092880824CF85EC80933D
:104D9000BC001092880880911807803230F4E091AE
:104DA0001807F0E0E850F94F10826091180770E0A2
:104DB000E091F606F091F70688EF96E019951092CB
:104DC000180708CF1092860834CF4F925F926F92E7
:104DD0007F92AF92BF92CF92DF92EF92FF920F93AA
:104DE0001F93CF93DF9300D01F92CDB7DEB72B0177
:104DF0003C0129833A834B835C83A60195016E0DA8
:104E00007F1D801F911F0E9438B729813A814B81F5
:104E10005C81621773078407950708F5241535052B
:104E200046055705A8F421E0822F0F900F900F90B0
:104E30000F90DF91CF911F910F91FF90EF90DF9036
:104E4000CF90BF90AF907F906F905F904F900895FC
:104E500021E0461657066806790630F30FC046165D
:104E600057066806790650F421E089819A81AB8162
:104E7000BC8184159505A605B705B0F220E0D4CF16
:104E80008F929F92AF92BF92CF92DF92EF92FF925A
:104E90000F931F93CF93DF937C014A015901C09177
:104EA000CE06D091CF06062F660F110B209709F47E
:104EB0005CC088858F70863009F055C068E274E068
:104EC000CE010E9414856C0182E08816910449F09D
:104ED0006EE074E0E3E08E16910429F0D0E0C0E0CB
:104EE00006C06DE274E0CE010E941485EC01C1148D
:104EF000D104D9F1F60180858F708430B1F56185D8
:104F00007285A801C7010E944ABCA80162E374E04F
:104F1000C7010E942CBC209779F188858F7084305E
:104F200059F569857A85A801C7010E942CBCA801A2
:104F300062E374E0C7010E942CBCA114B10429F003
:104F4000A801B501C7010E942CBCC701DF91CF9118
:104F50001F910F91FF90EF90DF90CF90BF90AF9097
:104F60009F908F900895D0E0C0E0A80160EC74E1BC
:104F7000C7010E94C5AEC9CFF2E08F16910481F03F
:104F800083E08816910429F060913D0770913E07F7
:104F9000CACFA8016AEB74E1C7010E94A7AEC7CFD0
:104FA000A80167EB74E1F8CFCF92DF92EF92FF9206
:104FB0000F931F93CF93DF93CDB7DEB7C154D109C1
:104FC0000FB6F894DEBF0FBECDBF6C01AB0130E071
:104FD00020E060E4CE0101967C010E944027F701A9
:104FE00001900020E9F731978F010E191F09A801E0
:104FF000B701C6010E943CBC892B11F010E000E013
:10500000C801CF5BDF4F0FB6F894DEBF0FBECDBF38
:10501000DF91CF911F910F91FF90EF90DF90CF9094
:105020000895CF92DF92EF92FF920F931F93CF9349
:10503000DF93CDB7DEB7C054D1090FB6F894DEBF09
:105040000FBECDBF80914C0790914D07059709F495
:1050500049C06115710509F445C069017A018B01E8
:1050600040E450E0CE0101960E944ABC6FE270E03D
:10507000CE0101960E9411BC892B41F4980143E0B6
:1050800050E060E4CE0101960E94402740E450E0E9
:10509000B601CE0101960E942CBC0E942F85882368
:1050A00009F180914C0790914D070697D9F48091B2
:1050B000D006811117C0B701CE0101960E946A92F5
:1050C00081E090E0C05CDF4F0FB6F894DEBF0FBE0A
:1050D000CDBFDF91CF911F910F91FF90EF90DF90A7
:1050E000CF90089590E080E0EDCF4F925F926F9265
:1050F0007F928F929F92AF92BF92CF92DF92EF9268
:10510000FF920F931F93CF93DF93CDB7DEB76197D5
:105110000FB6F894DEBF0FBECDBF0E949C919B01DD
:10512000AC01609177067091780680917906909134
:105130007A06AA24AA94BA2C650118E8E12E13E194
:10514000F12E00E010E00E94E526882319F1E0909E
:105150003B07F0903C07D70112968C91823089F57D
:105160006BE874E181ED99E00E940A7581ED99E0A8
:105170000E94547380913B0790913C070E94B52395
:105180000E949C91609377067093780680937906CD
:1051900090937A0661960FB6F894DEBF0FBECDBF2E
:1051A000DF91CF911F910F91FF90EF90DF90CF9003
:1051B000BF90AF909F908F907F906F905F904F9037
:1051C00008958091750690917606892B09F0E9C0C3
:1051D00083E190E00E9474AB8C018BE991E7F801C8
:1051E000928B818BF682E5821482108289E0818322
:1051F00081E08283838310937606009375060E9474
:105200009C916B017C01F0E1CF0EF7E2DF1EE11C07
:10521000F11CD8011596ED91FC9116978FEF8387BD
:1052200014861382148215821682178210861186C4
:10523000128614961C9299249394BE01665F7F4F48
:10524000F801858196810E9423241816B4F40E94E7
:105250009C916C157D058E059F0578F467E0CE0165
:105260000A960E94550E9989891731F166E374E018
:1052700084E399E00E94A474E0CF10E000E0809104
:105280007506909176062091730630917406021788
:1052900013070CF084C0980143E0220F331F4A9596
:1052A000E1F76091710670917206620F731F0E94A0
:1052B0001E8F0F5F1F4FE3CF64E374E084E399E038
:1052C0000E94A474D8018C91811138C015968D91DB
:1052D0009C910E94B523BE01665F7F4FF8018581D6
:1052E00096810E94D72440E064EBD80115968D91F9
:1052F0009C910E940224F801A580B680C5010E94FD
:105300003B23C5010E94610E67E886EE98E00E948B
:10531000EC0E60E886EE98E00E94EC0E0E94E88EAB
:10532000C5010E943B23B82ED80115968D919C9102
:105330000E94B523B5FC02C0F8019082AE014F5F18
:105340005F4FBE01665F7F4FC8010E94F624D801FF
:105350001196BC908A85803109F473C2BE01665FE4
:105360007F4FC8010E945F258B1568F4F801818189
:10537000D80111968C93119714968C9114978F5F86
:1053800014968C935ACF8A85803111F48CE0F0CF3B
:10539000BE01665F7F4FC8010E945F25E9CFFC0117
:1053A000128280916F069091700620917306309161
:1053B0007406821793070CF4D8C00E949C912B01AD
:1053C0003C01E0913B07F0913C07309759F08FEF9B
:1053D00083871486138214821582168217821086A0
:1053E000118612864091730650917406E0916B0607
:1053F000F0916C0690E080E0841795070CF48FC064
:1054000088248394912C80913B0790913C070097CE
:1054100009F48EC02091730630917406A3E0220F28
:10542000331FAA95E1F76091710670917206620FC1
:10543000731F0E94232418160CF07AC08091730603
:105440009091740644970CF073C00E949C919B014C
:10545000AC01AA24AA94BA2C650118E8E12E13E144
:10546000F12E00E010E0C301B2010E94E526811197
:105470005FC0C0907106D0907206A0907306B09085
:105480007406850173E0000F111F7A95E1F70C0D8A
:105490001D1D67E0C8010E94550ED80117969C910A
:1054A000F12CE12C8913AFCFEA14FB040CF059C1A5
:1054B00048E050E0B801C6010E94CBBBB8E0CB0E7B
:1054C000D11C892B09F04DC0EE0CFF1CE0916B063E
:1054D000F0916C06EE0DFF1D8081918181609183BA
:1054E000808365E774E181ED99E00E940A758091FF
:1054F00073069091740663E0880F991F6A95E1F72F
:105500002091710630917206820F931F0E94E788E6
:105510006EE674E181ED99E00E942E7574CF2191C1
:105520003191DF0112972E7F2D933C93019664CF2A
:105530006CE774E181ED99E00E940A756091730651
:10554000709174064AE050E081ED99E00E945B742E
:1055500081ED99E00E9454731092700610926F06CC
:105560000FCEEFEFEE1AFE0A9FCF00917106109159
:1055700072069C0143E0220F331F4A95E1F7020FA8
:10558000131FD8012C91283209F0DBC0AE014F5F08
:105590005F4FB80180917506909176060E944B2569
:1055A000811105C020E030E04EEF52EC3EC06A8130
:1055B00070E0762F6627770F770F770F2981B8E095
:1055C0002B9F90011124262B372BF80180818031ED
:1055D000D1F4688570E08F81AB01481B5109CA0185
:1055E0009695982F8827979587950E94AFB7CB01FE
:1055F0004097B90113E0660F771F1A95E1F76078BD
:105600009C01260F371F213854EE35075CF2B90193
:10561000330F880B990B0E94F5B520E030E040E095
:105620005CE30E9454B69B01AC01E0916D06F091E1
:105630006E0680916F0690917006BC01A3E0660F24
:10564000771FAA95E1F7A0917106B09172066A0FD3
:105650007B1F309709F01995009175061091760619
:10566000E0906F06F090700673E0EE0CFF1C7A95E8
:10567000E1F78091710690917206E80EF91ED7014C
:105680008C91803109F463C0B701C8010E945F2585
:10569000D82E882309F451C0F801858196810E9493
:1056A000B523882309F449C0B701D80115968D9117
:1056B0009C910E94D724F801408164E48581968101
:1056C0000E940224D80112968C918823B1F1E7EF51
:1056D000ED0D4EEE842E42E0942EE33038F4F0E0EF
:1056E000EE0FFF1FE952FD4F80809180E114F1041D
:1056F00089F1F8018381882369F1808181112AC0B1
:105700000E949C912B013C01092C000CAA08BB08AB
:10571000AE014F5F5F4FB701C8010E94F624898137
:1057200081110BC00E949C91681979098A099B0913
:10573000641575058605970558F380916F0690915D
:10574000700601969093700680936F0619CD6CE0F9
:10575000D62EA2CFB401990C880B990B0E94EB8E28
:10576000ECCF8091750690917606892B09F44BCE8B
:1057700088E0815008F447CEF801E80FF11D9081D0
:105780009923B9F3AA0CBB1C80916B0690916C060F
:10579000A80EB91ED5018D929C9269E674E181ED47
:1057A00099E00E940A7560917306709174064AE050
:1057B00050E081ED99E00E945B7462E674E181ED56
:1057C00099E00E940A75809173069091740623E017
:1057D000880F991F2A95E1F7209171063091720682
:1057E000820F931F0E94E78881ED99E00E94547315
:1057F000809173069091740633E0880F991F3A9553
:10580000E1F76091710670917206680F791FFB01D4
:105810008081883261F480917506909176060E94AD
:105820001E8F80913B0790913C070E94F623809148
:105830007306909174060196909374068093730694
:10584000E2CDFCE0FB1508F491CDA0CD65E872E156
:1058500080E299E00E940A7562E772E180E299E0D5
:105860000E940A7564E672E180E299E00E940A757E
:105870006CE572E180E299E00E940A7580E299E0AD
:105880000E9454736FE472E180E299E00E940A750D
:105890006FE372E180E299E00E940A7563E372E1CE
:1058A00080E299E00E940A756CE172E180E299E081
:1058B0000E940A756AE072E180E299E00E940A752E
:1058C00065EF71E180E299E00E940A7566EE71E190
:1058D00080E299E00E940A7567ED71E180E299E04B
:1058E0000E940A756FEC71E180E299E00E940A75EE
:1058F00064EC71E180E299E00E940A756AEB71E163
:1059000080E299E00E940A7562EB71E180E299E021
:105910000E940A7566EA71E180E299E00E940A75C8
:105920006CE871E180E299E00E940A756DE671E130
:1059300080E299E00E940A7568E571E180E299E0F1
:105940000E940A756BE471E180E299E00E940A7599
:105950006DE371E180E299E00E940A7561E371E113
:1059600080E299E00E940A7569E271E180E299E0C3
:105970000E940A756EE171E180E299E00E940A7569
:1059800061E171E180E299E00E940A7569E071E1EC
:1059900080E299E00E940A756EEF70E180E299E082
:1059A0000E940A756FEE70E180E299E00E940A752C
:1059B00066EE70E180E299E00E940A7580E299E06B
:1059C0000C945473009789F0FC0120852F702530CA
:1059D00061F40E948985009741F0FC0120852F70B9
:1059E000243019F481859285089590E080E008952F
:1059F000CF92DF92EF92FF920F931F93CF93DF939B
:105A000000D000D0CDB7DEB78091CD0681119EC009
:105A100080914C0790914D0702970CF497C000912C
:105A20006306109164060115110509F48FC062E048
:105A300072E08FEE99E00E9406146AE374E0C801F8
:105A40000E9414858C01009709F480C00E949685FD
:105A5000E82EF12CE114F10409F478C070E060E064
:105A6000C8010E94E22C6C01EA94EF2809F47DC081
:105A700061E0C8010E948985FC0101851285CE0183
:105A800001960E94808ACE0101960E949E8A63E15F
:105A90007BE080E299E00E940A75B60180E299E01D
:105AA0000E94A47463EE75E080E299E00E94A47401
:105AB0004AE050E0B80180E299E00E945B7463EE36
:105AC00075E080E299E00E94A47461E478E080E2ED
:105AD00099E00E94A47480E299E00E945473D092ED
