:100000000C9451130C941A8A0C94EF890C94C489A3
:100010000C9499890C946E890C9443890C941889DA
:100020000C94ED880C9482130C9482130C9482131C
:100030000C9482130C9482130C9482130C948213EC
:100040000C9482130C9482130C9482130C948213DC
:100050000C9482130C9482130C9482130C946CB342
:100060000C9482130C945F900C9435900C94821332
:100070000C9482130C9482130C9482130C948213AC
:100080000C9482130C9482130C9482130C9482139C
:100090000C9482130C9482130C9482130C942828D1
:1000A0000C9482130C9482130C9482130C9482137C
:1000B0000C9482130C9482130C9482130C9482136C
:1000C0000C9482130C9482130C9482130C9482135C
:1000D0000C9482130C9482130C9482130C9482134C
:1000E0000C94821307634236B79BD8A71A39685617
:1000F00018AEBAAB558C1D3CB7CC5763BD6DEDFD4A
:10010000753EF6177231BF000000803F0800000006
:10011000BE922449123EABAAAA2ABECDCCCC4C3EFC
:1001200000000080BEABAAAAAA3E00000000BF00EB
:100130000000803F0000000000084178D3BB4387E7
:10014000D1133D190E3CC3BD4282AD2B3E68EC82FB
:1001500076BED98FE1A93E4C80EFFFBE01C4FF7F80
:100160003F00000000000C9432930C942F8C0C94F0
:10017000D3810C942B810C948A9D0C9495390C940A
:10018000EC210C94511C0C94BF130C94093C0C945E
:10019000AD3B0C945AAA0C949A130C94FA350C9417
:1001A000D1480C94281B0C94C1680C94B0180C9482
:1001B0003E490C9403840C94D7230C941BAA0C94F2
:1001C000AD9D0C946C180C944A170C9420170C9449
:1001D000C9810C94D1580C94CF580C94993B0C9431
:1001E000C2180C94F51D0C94FE160C94423A0C9413
:1001F0009E370C94CB480C9438160C94C01E0C946B
:10020000CB380C94758C0C9409140C9453CB0C942F
:10021000AD510C949F150C9477A10C9496180C94E6
:10022000D0650C9428330C9460140C9483750C9452
:1002300042AA0C94613B0C943D1B0C94FC560C940C
:1002400062820C9490520C94323B0C94A0230C9438
:1002500091190C9423AA0C947E1C0C94DA150C941E
:10026000081E0C9494C20C94BC170C9480370C9408
:100270005A370C94C26A0C944A3E0C9466170C943C
:10028000C7150C94C2480C9448AA0C949AA10C94DB
:1002900015AA0C94D0810C94163B0C9467840C9492
:1002A000D1800C94AC390C9469830C941E190C9475
:1002B0002D830C9402170C94E7140C94993A0C9427
:1002C000D2170C94F9300C94C5150C9439340C9455
:1002D000003B0C944FC40C94C2450C947A3A0C9495
:1002E00093800C94671C0C9431160C947EA10C9492
:1002F0007F660C9415C40C9418210C94FA160C9477
:100300006D660C946B650C9474570C94F6160C94F3
:1003100086370C9422160C94EE3B0C94FE820C94BF
:1003200066220C9435390C94A6420C94BE560C945B
:1003300064C40C94BB6F0C946C430C9434AA0C945E
:100340009F660C94A9A30C94413B0C947E350C94AD
:100350002C140C94D6150C948F570C94CB3B0C9406
:10036000FB580C9420200C94CA1C0C94AA390C94B1
:10037000E7360C94D2150C94773A0C94EE140C9446
:1003800060690C948E9D0C9433370C9457830C94B5
:10039000B3150C941A4A0C9487350C940A140C94D7
:1003A00096C30C94EA6A0C948F3A0C9463170C94DD
:1003B000181A0C940D690C9484130C946D390C94D8
:1003C00056AA0C941A3C0C94DF2F0C9463680C947E
:1003D00095800C945D170C9432240C94B9180C94ED
:1003E000E1510C94D2820C9406A30C947C660C947C
:1003F00048390C9470660C941F830C9459850C94A6
:100400003AAA0C949F390C9417160C94E1820C9420
:10041000C2800C94D43B0C94F3800C948F370C94D2
:1004200097A30C9494800C94171C0C94A8A10C9482
:10043000B3BC0C94E4140C9433140C948A660C949E
:1004400062660C948CA10C94D9810C9453370C9453
:100450008B150C94E2A30C947F210C9475560C948C
:10046000C9C30C9470830C943C370C940C160C94F8
:100470008EBB0C9470570C94C79D0C946E440C94D6
:10048000BC6A0C94E4650C9435230C948B220C9478
:100490002D560C94B7690C94B4820C9487840C94F8
:1004A0004CAA0C94FC210C940A930C942A570C949B
:1004B00026A30C944B220C94863B0C94AB650C94B5
:1004C0002C390C949C150C94B4130C9499150C9421
:1004D0007E750C94283C0C948C170C94801C0C9406
:1004E00019140C94821C0C94DCC30C94DE2F0C9415
:1004F000E5800C9408140C944B370C9440690C94D0
:10050000ED360C9427AA0C942AAA0C9416820C940B
:10051000E7B70C94D6170C9400210C9430AA0C94D5
:10052000AA220C94F1C30C94A63C0C944D180C9484
:10053000FFC30C9424180C94EA150C9482220C949A
:100540002A210C94F6190C94591F0C94713B0C94AD
:1005500081390C94332F0C94709D0C9440170C949B
:1005600052520C944F3C0C948D660C940A170C94C8
:10057000B7150C941B840C9407240C943EAA0C947D
:1005800079170C94AD1E0C94EA360C94CA150C9491
:100590000FA30C94863C0C94A1A10C94779D0C9411
:1005A0002F410C94AA150C943F3B0C94E46A0C94D4
:1005B00079690C946FC00C9449820C94F3350C94B7
:1005C0004C570C94FB3B0C9461170C94B66A0C943A
:1005D000A07C0C94F0690C949DC30C9478810C94CD
:1005E000F0360C94841C0C9434760C94E4360C9401
:1005F00006170C94513C0C94F5A20C949E130C9489
:1006000000750C94D7690C9485A10C9485840C9486
:1006100086BE0C945D3A0C9433180C9479370C9484
:10062000153C0C94AF190C94E8B50C949D1F0C94D8
:100630007C150C9455AA0C943F390C948C320C9474
:1006400097680C9481350C94EF290C9426BF0C9478
:100650006F230C940E170C949D1A0C94E3830C9446
:10066000DC200C94BF520C9451450C94F1550C9421
:1006700081800C941FAA0C94CA190C94BB150C947D
:100680005A390C9417180C94B0C30C94F7650C9459
:10069000F5360C94F9750C9416780C9450AA0C94B9
:1006A0001B574E414E494E495459494E46CDCCCC2C
:1006B0003D0AD7233C17B7D13877CC2B329595E636
:1006C000241FB14F0A000020410000C84200401C16
:1006D0004620BCBE4CCA1B0E5AAEC59D74636469ED
:1006E0006E6F70737578585B00454F46003D00494A
:1006F0004E3A00000020002300260029002C002F85
:1007000000320000010000030106010901204E6FC4
:1007100020656D69742064617461210020436F75E8
:100720006E74657220747970652E2076616C3D0060
:10073000494E3A0020436F756E746572207479706B
:10074000652E20494E434F525245435420496E7402
:10075000657272757074206E756D626572212121EB
:10076000004952513A0041637469766174652069A9
:100770006E2000416374697661746520696E2000A3
:100780002D3E00200023002D3E00200050656E64A9
:1007900065643A2023002D3E00456D69743A002DB2
:1007A0003E00456D69743A002D3E00456D69743A0E
:1007B000002D3E00456D69743A003D004C454741AF
:1007C000435920494E3A0020666F7220286D7329E4
:1007D0003A004354524C3A205363686564756C6523
:1007E00020636D642000206D730020666F7220000E
:1007F0004354524C3A2041726D6564200020446994
:100800007361726D6564004354524C3A2000207449
:10081000696D653A004354524C3A205265733A0070
:100820004354524C3A206D6F6D656E74617279203D
:100830006576656E74002054533A0020543A005493
:100840004845524D3A00436C65616E696E672061A0
:100850006C61726D20003D0050696E3A0043545245
:100860004C3A20436F6D6D616E6420626C6F636BF8
:10087000656420627920647269766572004354521F
:100880004C3A204F4E3A416C726561647920416365
:10089000746976650A004354524C3A2048414C54DE
:1008A0003A416C726561647920496E61637469765E
:1008B000650A004354524C3A20584F4E3A2044693E
:1008C0007361626C65640A004354524C3A20584F7D
:1008D0004E3A416C72656164792041637469766552
:1008E0000A004354524C3A20584F464620736B69D5
:1008F000707065642E205072657620636D643A00D6
:100900004354524C3A205475726E6564206F66668B
:100910002066726F6D3A004354524C3A2052657310
:10092000746F7265642066726F6D3A004354524C66
:100930003A2049676E6F7265642C206368616E6E41
:10094000656C20636D643D0020457865633A004323
:1009500054524C3A204163746976653A00435452CC
:100960004C3A2048414C543A416C7265616479209C
:10097000496E6163746976650A004354524C3A20AB
:10098000584F4E3A2044697361626C65640A0043B3
:1009900054524C3A20584F4E3A416C72656164791A
:1009A000204163746976650A004354524C3A2058DA
:1009B0004F464620736B69707065642E20507265D7
:1009C0007620636D643A004354524C3A2054757259
:1009D0006E6564206F66662066726F6D3A004354E0
:1009E000524C3A20526573746F7265642066726F60
:1009F0006D3A0044697361726D696E67206E6F7441
:100A000020617574686F72697A6564004354524C52
:100A10003A20636F6D6D616E64206A757374206631
:100A20006F7220004354524C3A204E6F7420656E12
:100A30006F756768206D656D6F727920666F7220C3
:100A400067726F7570206F7065726174696F6E0088
:100A5000496E76616C69642061726700496E7661E7
:100A60006C69642061726700496E76616C6964200C
:100A7000617267004354524C3A20556E6B6E6F772B
:100A80006E2073756666697800536B697070696E65
:100A900067207363686564756C65642067726F7541
:100AA000702065786563004354524C3A2063686156
:100AB0006E6E656C2066726F7A656E004354524CA0
:100AC0003A206368616E6E656C2066726F7A656E3F
:100AD00000536B697070656420686F6D6965207381
:100AE00074756666002000205375623D00204974CD
:100AF000656D3D004354524C3A2052414D3D0043F8
:100B000054524C3A204F75744F664D656D6F727933
:100B10003A2000282D292000282B2920002076614A
:100B20006C7565206973200020756E6B6E6F776E33
:100B30000A005D3D005B0020696E76616C696400AF
:100B400020004143544956453A00206F6B003A005B
:100B5000206661696C6564003A0052657472796957
:100B60006E6720434D440A004354524C2F706F6C03
:100B70006C3A204F75744F664D656D6F72793A20EF
:100B800000207365632072656D61696E696E670030
:100B90005374617475732064656666657265640A72
:100BA000002D3E005075623A20002D3E00507562C7
:100BB0003A20002D3E005075623A200000000000EF
:100BC00000636D640000736574000076616C000062
:100BD00064656C00004853560000524742000066AE
:100BE000616E00006D6F6465006374726C006875FF
:100BF000650000736174000074656D700072617748
:100C000000002D3E005075623A20002D3E005075C8
:100C1000623A200053454E445354415455533A20B0
:100C2000556E6B6E6F776E20636D64200A00000056
:100C300000000000000000004F4E00000000000017
:100C400000004F464600000000000000524553548B
:100C5000000000000000544F47474C4500000000D2
:100C600048414C54000000000000584F4E00000066
:100C700000000000584F4646000000000000494EAA
:100C80004352454153450000444543524541534575
:100C90000000454E41424C4500000000444953418C
:100CA000424C45000000554E465245455A4500000D
:100CB000465245455A45000000004155544F00003A
:100CC0000000000046414E5F4F4E4C59000048491D
:100CD00047480000000000004D454449554D0000C4
:100CE00000004C4F570000000000000048454154F0
:100CF0005F434F4F4C004845415400000000000046
:100D0000434F4F4C000000000000445259000000C7
:100D1000000000005247420000000000000048535D
:100D20005600000000000000444D58000000000084
:100D300000444D58524742570000444D58524742D4
:100D400000000050574D0000000000004D42555378
:100D500044494D0000544845524D4F000000524553
:100D60004C41590000000047524F55500000000010
:100D7000564354454D500000004D425553564300D4
:100D800000004143484149455200005350494C45F9
:100D9000440000004D4F544F5200000000504944A1
:100DA0000000000000004D425553000000000055B7
:100DB000415254425244470052454C415950574DBC
:100DC00000444D5852474257570056454E54530021
:100DD000000000454C455641544F5200434F554E7C
:100DE000544552000048554D0000000000004D459C
:100DF0005243555259000020002D3E00436F6E763D
:100E0000657274696E6720002D3E0057726F6E67C1
:100E10002041737369676E6D656E7420005247429E
:100E2000783A20004853562064697361626C6564A7
:100E30000020764C6576656C3A0020436F6E7656DE
:100E40003A0020436F6E76533A0020486F743A00A0
:100E5000436F6C643A0020436F6E7665727465640C
:100E600020563A00436F6E76657274656420533A7B
:100E7000002D3E0057726F6E672041737369676E75
:100E80006D656E7420002D3E0057726F6E672041B5
:100E9000737369676E6D656E7420002053756666A6
:100EA0003A002041543A0053746F7070696E6720A5
:100EB000496E7075747300206973200044656C6519
:100EC00074696E6720636F6E662E2052414D2077E5
:100ED00061733A0053746F70706564006E6F74686C
:100EE000696E6720746F2073746F700053746F7035
:100EF00070696E67206368616E6E656C73202E2E5C
:100F00002E0043616E206E6F7420636C65616E20ED
:100F10002D206C6F636B656400436F6E666967209C
:100F20006368616E676564206C6F63616C6C792CBB
:100F300020706F7274616C2064697361626C6564A7
:100F4000002F636F6E6669672E6A736F6E0072653D
:100F5000626F6F742000436D643A20002F636F6DE1
:100F60006D616E642F002F72616D2F002F697465A3
:100F70006D2F002F6974656D2F0022687474703AAC
:100F80002F2F6C617A79686F6D652E72752F70776F
:100F90006122004C6F636174696F6E3A20687474EB
:100FA000703A2F2F003F6D61633D002669703D0050
:100FB00026706F72743D00266E616D653D002F00D6
:100FC00020004D5154543A20436F6D706C65746528
:100FD0002E2052656D6F766520746F7069632000F6
:100FE00024636F6D6D616E64004D5154543A20431B
:100FF0006C65616E55702072657461696E65642000
:10100000746F7069632000220022004F75744F6670
:101010004D656D6F727921005D20003A5B004D5186
:1010200054543A005D00456D7074793A205B000AB3
:10103000003A004D41433A00554450205379736CB7
:101040006F6720696E697469616C697A65642E0ADC
:10105000005379736C6F6720706172616D733A0031
:101060004D5154543A20736574206669727374202C
:1010700062726F6B65720043757272656E74204C9C
:10108000414E20636F6E6669672869702C646E73C9
:101090002C67772C7375626E6574293A000A557354
:1010A0006520746865736520636F6D6D616E647330
:1010B0003A202768656C7027202D2074686973209A
:1010C000746578740A276D61632064653A61643AD7
:1010D00062653A65663A66653A3030272073657412
:1010E00020616E642073746F7265204D41432D61E1
:1010F00064647265737320696E20454550524F4D8C
:101100000A276970205B69705B2C646E735B2C67C7
:10111000775B2C7375626E65745D5D5D5D27202D58
:1011200020736574207374617469632049500A27C1
:101130007361766527202D20736176652063757253
:1011400072656E7420636F6E66696720696E204EEB
:101150005652414D3B204F4E7C4F4646202D206538
:101160006E61626C652F64697361626C6520617584
:10117000746F736176650A2767657427205B636FF8
:101180006E66696720616464725D27202D20676543
:101190007420636F6E6669672066726F6D2070726F
:1011A000652D636F6E666967757265642055524C74
:1011B00020616E642073746F726520616464722CA8
:1011C000204F4E7C4F4646202D20656E61626C6537
:1011D0002F64697361626C6520646F776E6C6F61F8
:1011E00064206F6E20737461727475700A276C6F5F
:1011F000616427202D206C6F616420636F6E6669C7
:10120000672066726F6D204E5652414D0A277077E7
:101210006427202D20646566696E6520616E6420F8
:1012200073746F7265204D515454207061737377DD
:101230006F72640A276F746170776427202D2064B1
:101240006566696E6520616E642073746F726520D7
:1012500048545450204150492070617373776F7225
:10126000640A276C6F67205B73657269616C5F6CE1
:101270006F676C6576656C5D205B7564705F6C6F25
:10128000676C6576656C5D27202D20646566696EE8
:1012900065206C6F67206C6576656C2028302E2E7B
:1012A00037290A276B696C6C27202D2074657374AD
:1012B000207761746368646F670A27636C65617285
:1012C00027202D20636C65617220454550524F4D9B
:1012D0000A2773656172636827202D207365617228
:1012E000636820312D77697265206465760A2772FC
:1012F00065626F6F7427202D207265626F6F742096
:10130000636F6E74726F6C6C657200536F667420DD
:101310007265626F6F74696E672E2E2E00206E6587
:10132000770020697320003157543A003157543AFE
:1013300020536561726368696E6720646576005248
:10134000414D3D000A5379736C6F6720000A312DBF
:101350007769726520000A6D71747420000A696EE5
:101360007075747320000A6974656D7320000A43F8
:101370006F6E666967757265643A002F00496E3A50
:101380002000496E697469616C697A696E672049E9
:101390006E70757473003157543A207365747570AC
:1013A000207265736F6C7574696F6E2000315754CD
:1013B0003A204453323438322D313030206E6F743D
:1013C0002070726573656E74003157543A2044532F
:1013D000323438322D313030204932432072657337
:1013E000746F726564003157543A204275732072ED
:1013F00065736574206572726F72003157543A20BC
:1014000042757320526573657420646F6E65003198
:1014100057543A204453323438322D313030207012
:10142000726573656E742C20726573657400457205
:10143000726F7220312D7720696E697400315754B4
:101440003A204453323438325F3130305F493243CE
:101450005F544F5F31575F42524944474520696EA0
:101460006974003B003D0050696E3A003B003D4C02
:101470004F5700546865726D6F3A004F6E65207764
:101480006972652052656164790A0042726F6B650A
:10149000727320636F6E666967757265643A0041A6
:1014A00070706C79696E6720636F6E666967004C57
:1014B0006F6164656420455441473A004E6F207364
:1014C000746F72656420636F6E666967004C6F614C
:1014D0006465642066726F6D20454550524F4D0023
:1014E0006C6F6164206661696C6564004A534F4E9D
:1014F000206465746563746564004C6F6164696E33
:101500006720436F6E6669672066726F6D20454580
:1015100050524F4D00436F6E666967206175746F5E
:10152000736176653A000A5379736C6F672064655E
:10153000627567206C6576656C3A00536572696107
:101540006C206465627567206C6576656C3A005343
:10155000617665640A005365742064796E616D6913
:10156000632049500A004F54412050617373776FD4
:10157000726420757064617465640A004E6F20495E
:101580005020616472657373002053617665640056
:101590004C6F6164696E67204854545020636F6ECD
:1015A000666967206F6E20737461727475703A009B
:1015B000000000000000000000004F4E000000008E
:1015C000000000004F4646000000000000005245A9
:1015D0005354000000000000544F47474C450000A2
:1015E000000048414C54000000000000584F4E00DD
:1015F000000000000000584F4646000000000000B8
:10160000494E4352454153450000444543524541EC
:1016100053450000454E41424C45000000004449FE
:101620005341424C45000000554E465245455A45EF
:101630000000465245455A45000000004155544FB0
:1016400000000000000046414E5F4F4E4C59000024
:10165000484947480000000000004D454449554DA9
:10166000000000004C4F57000000000000004845FB
:1016700041545F434F4F4C00484541540000000027
:101680000000434F4F4C000000000000445259003E
:10169000000000000000524742000000000000006F
:1016A00048535600000000000000636F756C642012
:1016B0006E6F742070617273653A200055706461BA
:1016C0007465640A00454550524F4D20636C656156
:1016D0007265640A004D5154542050617373776FE2
:1016E000726420757064617465640A002B002D00BB
:1016F000455461673A200047657420455441473A94
:101700002000485454502F312E310025733A2025A3
:10171000730D0A0020485454502F312E310D0A48C1
:101720006F73743A2025730D0A4163636570743AD0
:10173000202A2F2A0D0A436F6E6E656374696F6EDF
:101740003A20636C6F73650D0A0025730020000D4D
:101750000A00474554006661696C656420746F2017
:10176000636F6E6E6563740A004552524F523A20A1
:101770005365727665722072657475726E65642049
:1017800000436F6E666967206E6F74206368616ED8
:101790006765640A00446F6E652E0A00436F6E66CB
:1017A00069672070617273696E67206661696C6534
:1017B000640A004765742061626F72746564006733
:1017C0006F7420436F6E6669670A006874747020D6
:1017D000726574636F6465200066726565200043FE
:1017E0006F6E666967205552493A20687474703A82
:1017F0002F2F002044656661756C7420636F6E66E0
:1018000069672073657276657220757365643A2026
:10181000006C617A79686F6D652E7275000A282DEB
:10182000294352595054000A282D2950554C5345EC
:10183000206F6E2050494E3132000A282D29434135
:101840004E000A282D294D455243555259000A2869
:101850002D294D554C544956454E54000A282B29E4
:1018600050574D5F52454C4159000A282D294D448F
:101870004E53000A282D295541525442524944479B
:1018800045000A282B295359534C4F47000A282D4D
:1018900029504944000A282D294D43503233303114
:1018A00037000A282D294152544E4554000A282B4E
:1018B000294F5441000A282D29535049204C4544B2
:1018C000000A282D294D4F544F5220435452000AEC
:1018D000282D294143204841494552000A282D29F5
:1018E0004343533831312026204844433130383087
:1018F000000A282B29524553544152545F4C414E03
:101900005F4F4E5F4D5154545F4552524F525300FA
:101910000A282D294841524452455345542C2075DC
:1019200073696E6720736F6674000A282B29434F12
:10193000554E544552000A282D29444854000A287F
:101940002B294453323438322D313030000A282BC1
:10195000294F57495245000A282D2949504D4F44D7
:10196000425553000A282D294D4F44425553000A31
:10197000282D29444D58000A282B2957697A6E656D
:101980007435783030000A282B294672656552611B
:101990006D207072696E74696E67000A282B295772
:1019A00041544348444F47006C617A79686F6D65D4
:1019B0002E7275000A436F6E6669672073657276D2
:1019C00065723A003230313130334C0020432B2BDA
:1019D0002076657273696F6E3A00303864656436DC
:1019E000325F323032362D30312D3039000A4C61C1
:1019F0007A79686F6D652E7275204C6967687448D6
:101A0000756220636F6E74726F6C6C65722000205B
:101A10004F464600204F4E0020425950415353003C
:101A2000536176656420746F20454550524F4D00D8
:101A3000536176696E6720636F6E66696720746FA5
:101A400020454550524F4D2E2E00556E6B6E6F77D0
:101A50006E207375666669782000556E6B6E6F77C1
:101A60006E20636D642000436F756E7465723A205A
:101A70000020696E69740070696E230072656C6184
:101A8000794374723A20002073746F700052656C51
:101A900061792D4F757420230072656C61794374F0
:101AA000723A200069646C65006F66660068656163
:101AB00074696E670066616E00647279696E6700B2
:101AC000636F6F6C696E6700616374696F6E00208D
:101AD000697320004F7574200072656C61794374DE
:101AE000723A2000556E6B6E6F776E207375666666
:101AF0006978200072656C61794374723A200055F0
:101B00006E6B6E6F776E20636D64200072656C6122
:101B1000794374723A2000616374696F6E00726574
:101B20006C61794374723A20005B305D3A2000208A
:101B30002D202D202D20EFBBBF003E003E31202D5B
:101B400020005B305D3A2000202D202D202D20EF3D
:101B5000BBBF003E003E31202D20005379736C6FD7
:101B60006720726573756D6564005379736C6F6778
:101B700020726573756D6564005379736C6F6720AF
:101B800073757370656E6465640000000000006327
:101B90006D640000736574000076616C000064651C
:101BA0006C00004853560000524742000066616EC8
:101BB00000006D6F6465006374726C006875650089
:101BC00000736174000074656D70007261770000CD
:101BD00020002E00696E00735F6F7574006D796868
:101BE0006F6D65004354524C2F657865633A204F02
:101BF00075744F664D656D6F72793A2000202D3EE9
:101C000020004D5154543A2000202D3E2000456DB7
:101C100069743A203C00202D3E20004974656D43D4
:101C20006D643A2000202D3E20004974656D3A20F5
:101C3000003157543A2042757320726573657420E1
:101C40006572726F72003157543A20427573205298
:101C50006573657420646F6E65003157543A204493
:101C600053323438322070726573656E742C207272
:101C700065736574004932432052657365740000D2
:101C80005EBCE2613FDD83C29C7E20A3FD1F419DBF
:101C9000C3217FFCA2401E5F01E3BD3E6082DC23C6
:101CA0007D9FC1421CFEA0E1BF5D0380DE3C62BEA1
:101CB000E0025CDF81633D7C22C09E1D43A1FF46A4
:101CC00018FAA427799BC584DA3866E5BB5907DB87
:101CD000856739BAE406581947A5FB7826C49A6582
:101CE0003BD987045AB8E6A7F91B45C6987A24F869
:101CF000A6441A99C7257B3A6486D85B05E7B98C58
:101D0000D2306EEDB3510F4E10F2AC2F7193CD1156
:101D10004FADF3702ECC92D38D6F31B2EC0E50AF2D
:101D2000F1134DCE90722C6D33D18F0C52B0EE3238
:101D30006C8ED0530DEFB1F0AE4C1291CF2D73CA13
:101D4000947628ABF517490856B4EA6937D58B570E
:101D500009EBB536688AD495CB2977F4AA4816E9F9
:101D6000B7550B88D6346A2B7597C94A14F6A874F0
:101D70002AC896154BA9F7B6E80A54D7896B353EA1
:101D80003E2000496E76616C696420636F6D6D6101
:101D90006E64003E3E3E004E6F204D414320636F17
:101DA0006E666967757265643A207365742066694A
:101DB000726D776172652773204D41430A00454576
:101DC00050524F4D207369676E6174757265206F54
:101DD0006B00496E697469616C697A696E67204548
:101DE0004550524F4D2E00476F742049502061647A
:101DF00064726573733A00276970205B69705B2CAD
:101E0000646E735B2C67775B2C7375626E65745DB3
:101E10005D5D5D27202D2073657420737461746986
:101E2000632049500A004661696C656420746F2024
:101E3000636F6E6669677572652045746865726E5A
:101E40006574207573696E6720444843502E20598D
:101E50006F752063616E20736574206970206D61F9
:101E60006E75616C6C792100204D41534B3A002016
:101E700047573A0020444E533A004C6F6164656402
:101E80002066726F6D20666C6173682049503A005D
:101E90000A7573657320444843500A005374617295
:101EA00074696E67206C616E004142434445464749
:101EB00048494A4B4C4D4E4F50515253545556572A
:101EC00058595A6162636465666768696A6B6C6DCC
:101ED0006E6F707172737475767778797A3031328B
:101EE000333435363738392B2F3D004261736963FF
:101EF00020003A004F544120696E697469616C6931
:101F00007A65640A0044454641554C54207061731B
:101F100073776F726420666F72204F544120415076
:101F2000492E20557365206F746170776420636F4C
:101F30006D6D616E6420746F2073657400706173E1
:101F400073776F7264004D5154543A2074727969FA
:101F5000796E67206E656E78742062726F6B657241
:101F6000004D5154543A20546F6F206D616E7920AA
:101F7000636F6E6E656374696F6E206572726F72E7
:101F8000732E2052657374617274204C414E002090
:101F900074727920616761696E20696E20352073E3
:101FA00065636F6E6473004D5154543A20666169E5
:101FB0006C65642C2072633D004D5154543A2041AD
:101FC00077616974696E6720666F722072657461EB
:101FD000696E656420746F7069637300636F6E6E01
:101FE00065637465642061732000202E2E2E00200E
:101FF000757365723A003A000A4D5154543A2041C3
:102000007474656D7074696E6720636F6E6E65635E
:1020100074696F6E20746F2000646973636F6E6EF5
:102020006563746564005573696E67204D5154543F
:102030002070617373776F72642066726F6D2063B6
:102040006F6E66696700446576696365204E616DF1
:10205000653A004D5154543A204174206C656173C7
:102060007420646576696365206E616D6520616EBC
:10207000642062726F6B6572204950206D757374B5
:1020800020626520636F6E666967757265640075AE
:102090007074696D652C6672656568656170003085
:1020A0003864656436325F323032362D30312D304F
:1020B00039004C696768744875622000246E616D50
:1020C0006500526562696E6420737563636573733E
:1020D0002E20495020616464726573733A00457222
:1020E000726F723A20726562696E64206661696C13
:1020F0000052656E657765642073756363657373FD
:102100002E20495020616464726573733A004572F1
:10211000726F723A2072656E6577656420666169D8
:102120006C000A4E6F206C696E6B00436F6E7469B1
:102130006E756520776974682070726576696F7551
:10214000736C79206C6F6164656420636F6E66697F
:10215000670033307320454550524F4D206973203E
:102160006E6F742072656C6F616465642E205265B9
:10217000626F6F74004D5154543A2041636365702F
:1021800074696E6720636F6D6D616E64732E2E2EA1
:102190000A004E6F204D51545420636F6E6669677C
:1021A00075726564004C6F6164696E6720636F6E61
:1021B0006669672066726F6D20706F7274616C2043
:1021C00064697361626C65642E2075736520676550
:1021D00074204F4E20746F20656E61626C65004301
:1021E0006F6E6669672069732076616C696400436D
:1021F0006F6E74696E75652077697468207072659A
:1022000076696F75736C79206C6F616465642063A7
:102210006F6E666967005365747570204F54410096
:102220002072656164206572726F7220666F722021
:10223000003E2000203C003157543A003157543AB8
:10224000206E6F7420696E6974003157543A2042D1
:102250005553592074696D656F7574003157543A40
:10226000204453323438325F4552524F525F434F0D
:102270004E464947003157543A20312D77697265EF
:102280002073686F727465640072656164790024FC
:10229000737461746500757074696D65006672654C
:1022A00065686561700024737461747300204578FB
:1022B00070697265640A00202D746172676574200C
:1022C0007A6F6E652D0020416C61726D20457870CB
:1022D000697265640A0020636D643A002043757278
:1022E0003A00205365743A002054696D65723A00D3
:1022F000204C6F636B733A0052414D3D000000214A
:1023000000240027002A002D0030003300010100C6
:1023100000040107010A0100002200250028002B0B
:10232000002E003100340002010000050108010BFD
:102330000105050505070508080808020202020A4A
:102340000A08080404040401010101010101010358
:1023500003030303030303040707070C0C0C0C0C13
:102360000C0C0C0202020206060606060606060B06
:102370000B0B0B0B0B0B0B0102102020080810207D
:102380004010204080020102010804020101020401
:1023900008102040808040201008040201800402C0
:1023A0000180402010080402010804020101020417
:1023B0000810204080010204081020408000000A1C
:1023C0000B02090C0D0E08070304010000000000B9
:1023D00000000000000000000000000000000000FD
:1023E00000000000000000000012111000000000BA
:1023F00000000000000000000000000000000000DD
:102400000000006F637465742F73747265616D00F2
:102410006170706C69636174696F6E2F6A736F6E3F
:1024200000746578742F706C61696E00436F6E7410
:10243000656E742D547970653A2000436F6E6E6539
:102440006374696F6E3A20636C6F736500416363F8
:102450006573732D436F6E74726F6C2D416C6C6F6E
:10246000772D4F726967696E3A202A00556E6B6E40
:102470006F776E004E6F74204D6F64696669656496
:10248000004F4B004D6F766564207065726D616E14
:10249000656E746C7900496E7465726E616C205360
:1024A0006572766572204572726F72005061796C48
:1024B0006F616420546F6F204C61726765004E6FCE
:1024C0007420666F756E64005757572D4175746898
:1024D000656E7469636174653A2042617369632053
:1024E0007265616C6D3D2241636365737320726533
:1024F00073747269637465642200556E61757468E3
:102500006F72697A6564005061796C6F61642073E1
:10251000697A652077726F6E670042616420726528
:10252000717565737400485454502F312E3120005A
:102530002000000000000000000000004F4E0000DE
:102540000000000000004F464600000000000000B0
:1025500052455354000000000000544F47474C457B
:102560000000000048414C54000000000000584F9B
:102570004E00000000000000584F464600000000DA
:102580000000494E435245415345000044454352E3
:10259000454153450000454E41424C450000000076
:1025A00044495341424C45000000554E4652454572
:1025B0005A450000465245455A4500000000415525
:1025C000544F00000000000046414E5F4F4E4C59F2
:1025D0000000484947480000000000004D454449BC
:1025E000554D000000004C4F570000000000000057
:1025F000484541545F434F4F4C004845415400000B
:1026000000000000434F4F4C000000000000445207
:102610005900000000000000524742000000000086
:1026200000004853560000000000000057726F6E13
:1026300067207061796C6164004D5154543A2043B5
:1026400054524C2F7478743A204F75744F664D6510
:102650006D6F72793A2000202D3E2041543A00439C
:1026600068616E20747970653A004E6F2073746FE4
:102670007265642076616C756573202D20646566D3
:1026800061756C743A20005361766564204554414D
:10269000473A0053657420455441473A200053CBD4
:1026A000E8B511241FBECFEFD1E2DEBFCDBF00E001
:1026B0000CBF16E0A0E0B2E0ECEBF0EC01E00BBFE9
:1026C00002C007900D92A639B107D9F72CE0A6E910
:1026D000B6E001C01D92A932B207E1F713E1C0E5EF
:1026E000D3E100E006C021970109802FFE010E947E
:1026F0002ED8CF34D10780E00807A9F70E94FAB599
:102700000C944CE00C940000CF93DF931F92CDB754
:10271000DEB76983DC01ED91FC910280F381E02D4D
:1027200041E050E0BE016F5F7F4F19950F90DF9140
:10273000CF910895FC01818D928D0895CF93DF9301
:102740001F92CDB7DEB76983DC01ED91FC91028069
:10275000F381E02D41E050E0BE016F5F7F4F19959E
:102760000F90DF91CF910895FC019485FB01848542
:10277000981303C081E0983008F080E00895CF936B
:10278000DF931F92CDB7DEB76983DC01ED91FC9139
:102790000280F381E02D41E050E0BE016F5F7F4F8A
:1027A00019950F90DF91CF910895FC01818191E0FF
:1027B000909340098093610910926709109266090D
:1027C000089520915E07260F3327331F21323105EC
:1027D000ECF420913A09FC0190E080E0243069F0AB
:1027E00082E00895A0915E072191AC01425C584FB0
:1027F000A40FB52FB11D2C930196861798F38091E5
:102800005E07680F60935E0780E0089581E0089599
:1028100008950895E091690980916809E81730F4F6
:10282000F0E0EF57F84F808190E008958FEF9FEF31
:10283000089590916909809168092FEF3FEF9817EB
:1028400048F4E92FF0E0EF57F84F208130E09F5F28
:1028500090936909C9010895809168099091690967
:10286000891B990B0895CF92DF92EF92FF920F93FD
:102870001F93CF93DF937C01CB018A012091400904
:10288000222389F0EB016B01C40ED51ECC15DD05AA
:1028900069F06991D701ED91FC910190F081E02DF3
:1028A000C7011995F3CF642F0E94E113C801DF918E
:1028B000CF911F910F91FF90EF90DF90CF900895EF
:1028C000CF93DF931F92CDB7DEB769832091400984
:1028D0002223F9F020916609203258F021E030E0FF
:1028E000FC013383228390E080E00F90DF91CF9151
:1028F000089580916709E82FF0E0EF5BF64F99812A
:1029000090838F5F809367098093660981E090E0F0
:10291000ECCF61E0CE0101960E94E113F7CF90E089
:10292000FC01EF5CFC4DE491F0E0EE0FFF1FE95E6F
:10293000FC4DA591B4912C9189589C4DFC0184913A
:10294000822391E009F490E0892F0895FC01DC01D5
:102950008D918111FDCF30E020E050E040E08AE031
:102960009191992301F1443051055CF59E3271F447
:102970002F3F310509F02CF5DB01A40FB51F12968E
:102980002C934F5F5F4F30E020E0EACF829FD00171
:10299000839FB00D1124292F990F330B2053310938
:1029A0002A0F3B1FDDCF2F3F310509F054F444308F
:1029B00051053CF4640F751FFB01228381E090E018
:1029C000089590E080E0089590E080E00895DC01B3
:1029D000ED91FC910284F385E02D1994DF92EF9242
:1029E000FF920F931F93CF93DF93EC010C891D8906
:1029F0000115110559F01D8A1C8AC801DF91CF917C
:102A00001F910F91FF90EF90DF900895EC85FD8569
:102A10008E859F85DF01A80FB91F2C91243209F004
:102A200055C011962C912B3709F050C00296E80F33
:102A3000F91FF12CE12CDF01D190DD2009F446C013
:102A40008DE7D816E9F08FEFE81AF80AF4CF198A63
:102A5000188A2C853D852115310579F08E859F8555
:102A6000280F391FF9012081222321F001969F8729
:102A70008E873EC01D861C86C0CF0FEF1FEFBDCFD7
:102A8000E114F10419F11C928E859F8502966C85E4
:102A90007D85680F791FE881F9810684F785E02D2F
:102AA000CE011995998B888B1B8A1A8AEC85FD8536
:102AB0008E859F85E80FF91FEE0DFF1DD2828E8552
:102AC0009F850396E80EF91EFF86EE8628893989D0
:102AD0002115310509F4BDCF8A899B89280F391F3B
:102AE000F9012081222309F4B2CF01969B8B8A8BB6
:102AF000022F220F110B81CFDC011C96ED91FC916E
:102B00001D971E968D919C91E80FF91F8081082ECC
:102B1000000C990B0895DC0115968D919C910097FE
:102B200039F0DC01ED91FC910680F781E02D1994DC
:102B3000089583E090E0089584E190E00895DC0139
:102B4000ED91FC910484F585E02D60E0199581E01C
:102B500090E008958FE090E09093B5078093B407DC
:102B600088EC90E00895FC01848195810895FC0132
:102B7000768765870895DC01ED91FC9102A0F3A1B1
:102B8000E02D199591E089270895862F089581E019
:102B90008627089521E0FC018485883008F020E034
:102BA000822F0895FC01848595850895FC01848910
:102BB000958908952CE234E0FC0131832083FB01E8
:102BC0004089518962897389FC01428353836483FC
:102BD00075830895DC01ED91FC91048CF58DE02D59
:102BE0001994DC011196EC911197EF70E150EB30E4
:102BF00008F03EC0F0E08827EF5FF94E8F4F0C944D
:102C00002ED81716171638160C160C163116221653
:102C1000221622160C160C1614962D913D914D91EC
:102C20005C911797A4E6B0E00E94E4D7089514964B
:102C30006C9184E6689FB0011124072E000C880B6C
:102C4000990B089520E030E048EC52E414966D9121
:102C50007D918D919C9117970E94BFD60E942BD990
:102C6000089514966D917D918D919C91179708957B
:102C700060E070E0CB010895FC01A7812A2F2E7F30
:102C8000C9F081818F7081508330A0F4A695A15046
:102C9000BB0B2BE531E00E9445D824E630E040E054
:102CA00050E00E94C5D7DA01C90187569F4FAF4F48
:102CB000BF4F08958FEF9FEF0895FC01A681B78164
:102CC000109721F118969C9118979F708EEF890F9D
:102CD000823010F091111AC019964D935D936D9347
:102CE0007C931C97A681B78118969C911897907F2A
:102CF000926018969C930680F781E02D8085982F2E
:102D0000907F903619F48F70806A80870895FC0157
:102D1000238130E090E080E0FC01EE0FFF1FE853DC
:102D2000F94FA081B181A217B30761F4880F991FF1
:102D3000880F991FFC01EC54F94F40835183628343
:102D400073830895A081B181AB2B19F42081318167
:102D5000EDCF019685309105F9F60895FC012381A8
:102D600030E090E080E0FC01EE0FFF1FE853F94FE8
:102D7000408151814217530761F4880F991F880FD2
:102D8000991FFC01EC54F94F60817181828193811C
:102D9000089540815181452B89F431832083880F28
:102DA000991F880F991FFC01EC54F94F1082118272
:102DB0001282138260E070E0CB01089501968530A5
:102DC000910589F6F7CF880F991F880F991FFC018D
:102DD000E456F94F80819181A281B3810196A11DB2
:102DE000B11D80839183A283B383089585E090E031
:102DF0000C94E31684E090E00C94E31683E090E0FA
:102E00000C94E31682E090E00C94E31681E090E0ED
:102E10000C94E31690E080E00C94E316CF93DF93DC
:102E2000EC01E881F9810484F585E02D1995298963
:102E30003A892F5F3F4F3A8B298BDF91CF910895CD
:102E4000CF93DF93EC018E8581110DC081E090E07E
:102E500049895A892C853D854217530708F080E03F
:102E6000DF91CF910895E881F9810484F585E02D03
:102E7000CE0119958F3F910549F780E090E0F0CFA2
:102E8000FC01848595856817790708F4CB01928B3E
:102E9000818B0895CF93DF93FC012685222351F087
:102EA000EC010190F081E02D0190F081E02D6FEFB9
:102EB00019951E86DF91CF910895FC018785908931
:102EC000089581E0089590E080E00895DC01129675
:102ED000ED91FC91309761F00280F381E02D309705
:102EE00039F0862F8295807F60856F70682B6087B0
:102EF0000895DC011296ED91FC91309751F002801B
:102F0000F381E02D309729F0808582958F7090E0D5
:102F1000089590E080E00895CF93DF93CDB7DEB7BA
:102F200060970FB6F894DEBF0FBECDBF19821A822C
:102F30001B821C821D821E821F8218868A81807FCE
:102F400081608A836FEF3E819F81888529817A81A4
:102F50005B814C814C873E87888B372F452F5C8562
:102F60007E85892F988960960FB6F894DEBF0FBED4
:102F7000CDBFDF91CF9108950F931F93CF93DF9330
:102F800000D000D01F921F92CDB7DEB781E0289607
:102F90000FB6F894DEBF0FBECDBFDF91CF911F916A
:102FA0000F910895FC01738362830895CF92DF929D
:102FB000EF92FF920F931F93CF93DF9300D000D037
:102FC000CDB7DEB78C016B017A01FC01808D8830B2
:102FD00010F40E94BE988CE294E09A838983F601F3
:102FE00082819381A481B5818B839C83AD83BE83D1
:102FF000B701CE0101960E9411A9F801808F883097
:10300000A0F4F586E486128E118E81E026960FB626
:10301000F894DEBF0FBECDBFDF91CF911F910F910E
:10302000FF90EF90DF90CF90089580E0EFCFCF93A7
:10303000DF93EC01888D883020F40E94BE9888E0F0
:10304000888FDF91CF910895FC01808D883040F406
:10305000218D328D232B21F00E94909790E00895CE
:103060008FEF9FEF0895CF93DF93FC0124852830E5
:1030700028F08FEF9FEFDF91CF910895EC01019041
:10308000F081E02D0084F185E02D1995892B89F3DD
:103090008C850E94909790E0EECFCF93DF93FC0158
:1030A000218D328D2115310529F48FEF9FEFDF91AE
:1030B000CF910895EC01808D4217530708F0A901C4
:1030C0000E94DF971816190684F7298D3A8D281B60
:1030D000390B3A8F298FEBCF0F931F93CF93DF9349
:1030E0001F92CDB7DEB7FC01218D328D232B41F429
:1030F0008FEF9FEF0F90DF91CF911F910F91089568
:103100008C0141E050E0BE016F5F7F4FFC01808D7C
:103110000E94DF97181619065CF7F801818D928DD1
:103120000197928F818F898190E0E4CFCF93DF93D5
:103130001F92CDB7DEB741E050E0BE016F5F7F4F19
:10314000FC0184850E94DF971816190634F48981E2
:1031500090E00F90DF91CF9108958FEF9FEFF9CF1F
:10316000FC018485883010F40C94DF9790E080E0B7
:103170000895FC018485883010F40C94B89790E091
:1031800080E008950F931F93CF93DF9300D000D07A
:103190001F921F92CDB7DEB78C01D80159964D9181
:1031A0005C915A974115510551F0ED91FC91048CB9
:1031B000F58DE02D70E060E0C8011995EECFF801C3
:1031C000808D0E94B897892BB1F148E050E0BE0194
:1031D0006F5F7F4FD80158968C910E94DF97181629
:1031E0001906F4F4D801509684E0FE01319601905E
:1031F0000D928A95E1F78D8190E0982F88272E8196
:10320000820F911DF801958B848B8F81282F30E0E0
:10321000322F22278885820F932F911D928F818FC5
:1032200028960FB6F894DEBF0FBECDBFDF91CF91C9
:103230001F910F91089590E080E0F2CFCF92DF923E
:10324000EF92FF920F931F93CF93DF93CDB7DEB72B
:10325000AF970FB6F894DEBF0FBECDBF7C016A01F9
:103260000CE214E01A8309831C861B8688EE93E027
:10327000A0E0B0E08D879E87AF87B88B82E094E0B6
:103280009A878987188F0F8B198E1A8E1B8E1C8E2A
:1032900088E089A31BA70AA71CA61DA61EA61FA619
:1032A0008091A3099091A409A091A509B091A609C4
:1032B0008EA39FA3A8A7B9A78B839C83AD83BE834E
:1032C00018861F82AE01465D5F4FCE0101960E94B7
:1032D00007B181309105B1F4D701ED91FC910488DB
:1032E000F589E02D1DA30CA38CA59DA5AEA5BFA5BA
:1032F0008EA39FA3A8A7B9A7A601BE016C5D7F4FAF
:10330000C7011995AF960FB6F894DEBF0FBECDBFBB
:10331000DF91CF911F910F91FF90EF90DF90CF90B1
:1033200008950F931F93CF93DF93EC018B01888D4A
:10333000883010F40E94BE98B80182E00E9407997C
:10334000888F883050F41D870C871A8E198E81E083
:10335000DF91CF911F910F91089580E0F9CF0F93E6
:103360001F93CF93DF938C01EA01FC0184858830A1
:1033700048F40E942E97892B39F481E090E0F801FF
:1033800093838283D0E0C0E0CE01DF91CF911F9183
:103390000F910895EF92FF920F931F93CF93DF93B6
:1033A0007C0180911309D4E0833309F0D8E003E075
:1033B00019E0C0E0F801219131918F01F70184817A
:1033C00095812817390729F0CF5FDC13F3CF80E010
:1033D00006C08C2F0E94CC988431B1F781E0DF9138
:1033E000CF911F910F91FF90EF900895CF93DF93AE
:1033F000EC018C858830D0F40E94CC98843189F01F
:10340000882379F0883169F021E08C3159F4E88122
:10341000F9810084F185E02DCE01199521E0892BF9
:1034200009F420E0822FDF91CF91089580E0FBCF57
:103430006F927F928F929F92AF92BF92CF92DF92C4
:10344000EF92FF920F931F93CF93DF938C015B0159
:103450007A0180911309882309F46CC024E0622E5C
:10346000833311F098E0692E83E0C82E89E0D82ECE
:103470004601712CC0E0D4012D913D914D01F80120
:10348000848195812817390799F48C2F0E94CC9854
:10349000D82F873119F08C3109F040C08C2F0E9451
:1034A000B897892B29F4DC3119F48C2F0E94B0983D
:1034B000CF5F6C12E0CF711008C0D801ED91FC9184
:1034C0000084F185E02DC8011995D0E0F601219125
:1034D00031916F01D80114968D919C91281739076D
:1034E00051F48D2F0E94CC98873129F4A701B501A2
:1034F0008D2F0E942E97DF5FDC13E8CFC701DF918D
:10350000CF911F910F91FF90EF90DF90CF90BF90E0
:10351000AF909F908F907F906F900895843139F095
:103520008111C6CFF401329711821082C1CF772466
:103530007394BECFF12CE12CE1CFCF92DF92EF92CA
:10354000FF920F931F93CF93DF93CDB7DEB7AF9763
:103550000FB6F894DEBF0FBECDBF8C016B017A01B0
:103560008CE294E09A8389831B821C821D821E82D6
:103570001C861B8648EE53E060E070E04D875E8756
:103580006F87788B22E034E03A872987988F8F8B7A
:10359000198E1A8E1B8E1C8E28E029A39BA78AA742
:1035A0001CA61DA61EA61FA6D8011C968C918830AD
:1035B00060F40E94CC98882321F0F80184850E9451
:1035C000B09888E0D8011C968C938091A3099091C3
:1035D000A409A091A509B091A6098EA39FA3A8A7AD
:1035E000B9A78B839C83AD83BE8318861F82AE01EF
:1035F000465D5F4FB601CE0101960E9407B100976C
:10360000C1F0D801ED91FC910684F785E02D8CE2A4
:1036100094E09DA38CA38CA59DA5AEA5BFA58EA36C
:103620009FA3A8A7B9A7A701BE016C5D7F4FC801E2
:103630001995AF960FB6F894DEBF0FBECDBFDF91E0
:10364000CF911F910F91FF90EF90DF90CF90089551
:10365000CF93DF93EC018C85883060F40E94CC9886
:10366000873111F08C3131F48C850E9411978115CE
:10367000984088F3DF91CF910895FC0184858830CC
:1036800010F40C94119790E080E00895CF93C62F2A
:103690000E94D51361EE87EA99E00E9460146C2FB6
:1036A00087EA99E00E946014CF910C94FAAB0E94D3
:1036B000D51381E00E940AAB91E0811190E0892F3F
:1036C0000895ECEBF0E080818A7B808360E084E108
:1036D0000E945EAA60E085E10C945EAA65E0FC01B0
:1036E000828193810E94439D009749F0FC0180856F
:1036F000982F907F21F082958F7090E0089590E050
:1037000080E00895CF92DF92EF92FF926A017B01F1
:1037100063E0FC01828193810E94439DFC01892B1F
:10372000A9F080858D7091F4C094D094E094F094C9
:10373000CC24CA9481859285A385B4858C219D2152
:10374000AE21BF2181879287A387B487FF90EF9036
:10375000DF90CF900895CF92DF92EF92FF926A01AF
:103760007B0163E0FC01828193810E94439DFC0107
:10377000892BA9F09085892F8D7089F4907F9260B4
:103780009087CC24FF2441855285638574854C291C
:103790005D296E297F294187528763877487FF904F
:1037A000EF90DF90CF900895CF92DF92EF92FF924B
:1037B0006A017B0163E0FC01828193810E94439D49
:1037C000009791F0FC0120852F70223069F461850B
:1037D0007285838594856C217D218E219F21FF90A8
:1037E000EF90DF90CF90089560E070E0CB01F7CFCD
:1037F000CF93C62F63E0FC01828193810E94439D99
:10380000FC01892B91F09085892F8D7071F4907F48
:103810009260908781859285A385B4858827BB2790
:103820008C2B81879287A387B487CF910895CF93FC
:10383000DF93EC0169E97AE187EE9AE00E94C48C9B
:103840006DE87AE187EE9AE00E94C48C6C817D81FC
:1038500087EE9AE00E9452A167E87AE187EE9AE04B
:103860000E94C48C87EE9AE00E94F68A60E08C8108
:103870000E948CAAE881F9810484F585E02D60E03E
:10388000CE01199581E090E0DF91CF9108956CEE23
:1038900076E1811102C06EEE76E186E39AE00C9447
:1038A000C48C6BE073E186E39AE00E94C48CF0E084
:1038B000E0E0199584EF91E0089568E17BE08111E3
:1038C00002C063E17BE087EE9AE00C94C48CDC01DB
:1038D00055962C915597273781F4ED91FC91008CEA
:1038E000F18DE02D199569EE76E087EE9AE00E9461
:1038F000C48C87EE9AE00C94F68A08950C94C7CE97
:103900000C94C7CE0C94C7CEEF92FF920F931F93E7
:10391000CF93DF93EC018B0180913B0790913C07A3
:103920000097A9F0FC0120852F70263081F40E94B9
:10393000CB9CFC0190859F70943049F481859285E1
:10394000DF91CF911F910F91FF90EF900895EE8836
:10395000FF88C70101970D97D0F46EE274E0C801AB
:103960000E948FDC892B99F48FE2888F85E08E9DF1
:10397000B0018F9D700D11246657744E46E050E0E3
:10398000CE0149960E949BD0CE014896D9CF90E0B7
:1039900080E0D6CFCF93C1E068EE73E080E090E0A6
:1039A0000E94FDAB6C2F86E39AE00E944BA1CF5F93
:1039B000C43191F784EF91E0CF910895EF92FF9297
:1039C0000F931F93CF93DF936115710511F480E07E
:1039D0008CC0EB018C0188858F70823009F440C067
:1039E0008430A9F763E777E087EE9AE00E94C48C01
:1039F000F801638187EE9AE00E944BA162E374E0D4
:103A000087EE9AE00E946D8C69857A8587EE9AE050
:103A10000E946D8C87EE9AE00E94F68AF801E080A1
:103A2000F180E114F10499F267E374E0C7010E94A8
:103A3000CB9C8C01009759F2FC0180858F708630F9
:103A400031F669857A856115710509F44AC0FB0173
:103A50008081882309F445C0C8010E94CB9C40C0E6
:103A600066E677E087EE9AE00E94C48CF8016381F5
:103A700087EE9AE00E944BA162E374E087EE9AE041
:103A80000E946D8C49855A856B857C852AE030E0E3
:103A900087EE9AE00E94E78B87EE9AE00E94F68A12
:103AA000F801E080F180E114F10409F490CF67E3BC
:103AB00074E0C7010E94CB9C8C01009709F487CF6A
:103AC000FC0180858F708550823008F080CF698539
:103AD000862F9A85892B29F06150C8010E94439D49
:103AE0007C01F801F286E18681E0DF91CF911F91A0
:103AF0000F91FF90EF900895EF92FF920F931F9315
:103B0000CF93DF930097C1F0FC0120812223A1F025
:103B10008C0181ECE82E8BE0F82EC1E0D0E0B701FB
:103B2000C8010E9464D0892B49F02196F5E0EF0E80
:103B3000F11CCE30D10599F7D0E0C0E0CE01DF9185
:103B4000CF911F910F91FF90EF900895CF93DF9346
:103B500000D000D01F921F92CDB7DEB7E0E2FAE0AE
:103B6000128A118A80E090E19587848784E890E04A
:103B7000948B838B81E0868780E090E2908B8787AF
:103B800087E7858B1C821B8287E892E09A83898372
:103B9000FE83ED838FEF9FEF98878F8360E37AE159
:103BA00086E39AE00E94C48C6091DD067091DE0687
:103BB000CE0101960E94CCA280E29AE00E94671C8E
:103BC00060E27AE186E39AE00E94C48C86E39AE0A0
:103BD0000E94F68A0E9437B428960FB6F894DEBF8A
:103BE0000FBECDBFDF91CF910895892B71F0FB01FE
:103BF000828193810E949B9E65ED76E186E39AE047
:103C00000E94C48C88EC90E0089590E080E0F2CFB0
:103C10000F931F93CF93DF93EB0102970CF483C0B4
:103C20000A811B816AEB75E1C8010E9446D0892B8D
:103C300051F481E00E9429A188EC90E0DF91CF91BE
:103C40001F910F91089564EC75E1C8010E9446D060
:103C5000892B11F480E0EECF60E975E186E39AE00C
:103C60000E94C48C0E948BA0672F6095617070E0E9
:103C700086E39AE00E9452A186E39AE00E94F68AC7
:103C80008091120A9091130A892BE9F10A811B8114
:103C90000E942C9E8823B9F1F80101900020E9F7D9
:103CA0003197E01BF10BB09770F582E70E94179EE9
:103CB0008091120A9091130ADC01ED91FC91008829
:103CC000F189E02D60E270E01995B8018091120A47
:103CD0009091130A0E946D8C8091120A9091130AA0
:103CE000DC01ED91FC910190F081E02D60E01995EF
:103CF0008091120A9091130ADC01ED91FC910488E5
:103D0000F589E02D19956A817B8186E39AE00E940E
:103D10006D8C69E875E186E39AE00E94C48C86E3C5
:103D20009AE00E94F68A8091B4079091B5070297B5
:103D30003CF080EF9FEF9093B5078093B4077CCF62
:103D40006CE775E180E49AE00E94C48C80E49AE01C
:103D50000E94F68A84EF91E071CF892B71F0FB010C
:103D6000828193810E94E99E66E675E186E39AE08E
:103D70000E94C48C88EC90E0089590E080E0F2CF3F
:103D8000EF92FF920F931F93CF93DF93CDB7DEB7E0
:103D90002C970FB6F894DEBF0FBECDBF8C017B0110
:103DA0008CE294E09A8389831B821C821D821E828E
:103DB00098878F8319861A861B861C860530110505
:103DC000ECF0BE01695F7F4FF701808591850E940D
:103DD000A614892B99F0CE0107960E948C9FBE01F4
:103DE000695F7F4FF701868197810E94A614892B16
:103DF00061F0CE0107960E9436A00EC0CE0101965A
:103E00000E948C9F0430110554F7CE0101960E9448
:103E100036A003301105A4F1BE01695F7F4FF701A1
:103E2000848195810E94A614892B51F1CE010796B9
:103E30000E94E19FBE01695F7F4FF70182819381FC
:103E40000E94A614892B19F1CE0107960E94379F74
:103E50006FE475E186E39AE00E94C48C80E00E94E2
:103E600020A188EC90E02C960FB6F894DEBF0FBE30
:103E7000CDBFDF91CF911F910F91FF90EF900895EB
:103E8000CE0101960E94E19F023011059CF6CE0101
:103E900001960E94379F01301105D1F6CE0101969F
:103EA0000E94379F66E575E186E39AE00E94C48C24
:103EB000CFCF0F931F93CF93DF938C01EB0102972A
:103EC000C4F08A819B810E94F8CF809301029927D8
:103ED0000E9433A10230110549F08C819D810E941E
:103EE000F8CF8093000299270E943DA1C8ECD0E052
:103EF00002C0C0E9D1E06BE375E186E39AE00E947D
:103F0000C48C6091010286E39AE00E944BA166E2B4
:103F100075E186E39AE00E94C48C6091000286E31A
:103F20009AE00E944BA186E39AE00E94F68ACE01B5
:103F3000DF91CF911F910F910895CF93DF93EB0104
:103F40000297ACF16AEB75E18A819B810E9446D0B1
:103F5000892B29F40E948BA07D7F0E94D0A064EC65
:103F600075E18A819B810E9446D0892B29F40E94A9
:103F70008BA072600E94D0A065E175E186E39AE0B3
:103F80000E94C48C0E948BA071FB662760F971E0CF
:103F9000672770E086E39AE00E9452A186E39AE0E8
:103FA0000E94F68A88EC90E0DF91CF9108950E94FC
:103FB000A61DF8CF0F931F93CF93DF93FC01C4810D
:103FC000D5812097C9F18B0188858F70853021F5C7
:103FD000CE010E94EBA18017110671F16CF1602FE8
:103FE000CE010E94439DFC01892B31F180858F70A9
:103FF000823039F461857285838594850E9460D60C
:1040000006C08330C9F46185728583859485DF910C
:10401000CF911F910F910895672B71F4823029F48D
:1040200069857A858B859C85E9CF833029F46985FC
:104030007A858B859C85EBCF60E070E0CB01E7CF84
:104040000F931F93CF93DF93FC01738362836115FA
:10405000710559F18B01EC011682CB010E94FBA185
:1040600097FD28C09D838C838C819D81009719F0DA
:104070008634910524F080E290E09D838C8361E09A
:1040800070E0C8010E94DA1F20E030E04AE754E403
:104090000E94BFD60E9432D9611571058105910534
:1040A00089F06F83788789879A87DF91CF911F91F5
:1040B0000F9108959195819591099D838C8381E05D
:1040C0008E83D2CF88E893E1A0E0B0E08F83988719
:1040D000A987BA87EACF2F923F924F925F926F9251
:1040E0007F928F929F92AF92BF92CF92DF92EF9288
:1040F000FF920F93CF93DF9300D01F92CDB7DEB71F
:104100007C017A8369835C834B83DB011C92FC0115
:1041100060818FEF860F883108F04BC034FF49C0B3
:10412000FAE06F9FB00111246E5C7A4DCD010E94C0
:104130009BD0D70111968C918F7041F04B815C819F
:1041400067EB74E089819A810E949FDCE981FA81A2
:1041500001900020E9F7319729813A81E21BF30BA6
:1041600019012E0E3F1E4B815C814E1B5F0B41508F
:1041700051095C834B83D7011196EC911197EF7035
:1041800009F4F5C0E150EC3008F0F1C0F0E0882708
:10419000E353FF4D8F4F0C942ED8DC207F21EC2170
:1041A0004B2266222A21FC21FC21FC21182100211E
:1041B000822229803A80DFCFF7018481282F30E0E6
:1041C00050E040E0002359F030E0A4E6B0E00E9467
:1041D000F7D72FEF30E040E050E00E94C5D75F9363
:1041E0004F933F932F938BE394E09F938F93FC81A6
:1041F000FF932B812F933F922F920E94D7DCB2C066
:1042000017968C9117978F9316968C9116978F937C
:1042100015968C9115978F9314968C918F938EE3AE
:1042200094E09F938F93BC81BF93EB81EF93E3CF97
:1042300017968C9117978F9316968C9116978F934C
:1042400015968C9115978F9314968C918F9382E489
:1042500094E0E7CF1496CD90DD90ED90FC90179709
:10426000F7FE34C084E6882E912CA12CB12CC70116
:10427000B601A50194010E94C5D79B01AC01882716
:104280009927DC01821B930BA40BB50BBF93AF9353
:104290009F938F9366277727CB016C197D098E0931
:1042A0009F09A50194010E94C5D75F934F933F9347
:1042B0002F9386E494E09F938F933C813F934B81AF
:1042C0004F933F922F920E94D7DC4CC0C701B6019A
:1042D00024E630E040E050E00E94C5D79F938F93E2
:1042E0007F936F935F934F933F932F9387E494E073
:1042F0009F938F939C819F93AB81AF93E2CFC70134
:104300000E943C16BC01D7011696CC9016971796C2
:10431000DC901797D0FADD24D0F814969C9114976E
:104320001596FC90EB80BC80292F30E050E040E0F7
:1043300077FD35C0011135C07F936F931F921F9297
:104340001F929F931F92FF92DF92CF9280E594E09D
:104350009F938F93FC81FF932B812F933F922F92FA
:104360000E94D7DC0FB6F894DEBF0FBECDBF8981A7
:104370009A810F900F900F900F90DF91CF910F9136
:10438000FF90EF90DF90CF90BF90AF909F908F9075
:104390007F906F905F904F903F902F9008950023F3
:1043A00061F0292F30E0A4E6B0E00E94F7D72FEFAC
:1043B00030E040E050E00E94C5D75F934F933F93B9
:1043C0002F931F92FF92DF92CF9283E594E09F9309
:1043D0008F93BF92EF9275CF15968C9115971F9280
:1043E0008F9316969C91169717968C9181708F9348
:1043F0009F9386E594E015CF14968D909D90AD9097
:10440000BC90179720E030E0A901C501B4010E94DB
:1044100059D62401350187FF04C077FA709477F8E4
:104420007094C301B2010E942BD96B01072E000CBE
:10443000880B990B0E9460D69B01AC01C301B201AD
:104440000E944CD820E030E04AE754E40E94BFD6F6
:104450000E94B6D90E942BD9062F772E20E030E09B
:10446000A901C501B4010E9459D687FF07C07F92F8
:104470000F93DF92CF928CE594E0D3CE7F920F938F
:10448000DF92CF928DE594E09F938F933C813F9391
:104490004B814F93B0CE14968C9114971F928F93AB
:1044A00015968C9115971F928F9316968C911F924B
:1044B0008F9383E594E09F938F93BC81BF93EB81AF
:1044C000EF933F922F920E94D7DC4CCF17968C919E
:1044D00017971F928F9314968C9114971F928F9316
:1044E00015968C9115971F928F9316968C911F920B
:1044F0008F9380E594E09F938F93BC81BF93EB8172
:10450000EF93DFCE14966D917C914B815C81C1015C
:104510000E94BDDC2CCF1F93CF93DF93FC01162F9D
:10452000C389D489818992899C012F5F3F4F328B47
:10453000218BC80FD91FCE010E947DD7181721F0FB
:10454000612FCE010E9485D781E090E0DF91CF916D
:104550001F910895FC0181899289248535858217F0
:10456000930740F423893489820F931F0E947DD7DB
:1045700090E008958FEF9FEF0895DA01E091A10791
:10458000F0E0FE2FEE27E60FF71F90E0982F882728
:10459000A901BD018E0F9F1F0C948394CF93DF93CD
:1045A0001F92CDB7DEB72091A10730E0322F22272E
:1045B000260F371F90E0982F8827498341E050E06D
:1045C000BE016F5F7F4F820F931F0E9483940F90F5
:1045D000DF91CF910895CF93DF931F92CDB7DEB7D0
:1045E00041E050E0BE016F5F7F4F0E94F8938981E8
:1045F0000F90DF91CF9108952091A10730E0322FE5
:104600002227620F731F90E0982F8827860F971F2D
:104610000C94EB2263E070E00C94FC22DA01E09150
:10462000A107F0E0FE2FEE27E60FF71F90E0982F8E
:104630008827A901BD018E0F9F1F0C94F89344E0B9
:1046400050E0BC018FE090E00C94839444E050E093
:10465000BC0185E090E00C94839444E050E0BC0100
:1046600081E090E00C94839408959F92AF92BF9262
:10467000CF92DF92EF92FF920F931F93CF93DF932E
:104680008C015B01942EE52EFC01C688D788F08C46
:1046900080E591E00E94DEA68F2D0E94D496C92D60
:1046A000DE2D8C179D0708F4EC019E01A501B601D3
:1046B0008F2D0E945196F801868997898C0F9D1F36
:1046C000978B868BCE01DF91CF911F910F91FF9039
:1046D000EF90DF90CF90BF90AF909F900895CF93D1
:1046E000FC01C08D80E591E00E94DEA660E270E0F2
:1046F0008C2F0E94E89362E070E08C2F0E94FC22D5
:1047000084FD16C062E070E08C2F0E94FC2283FFC3
:104710000AC048E162E070E08C2F0E94CE2280E067
:1047200090E0CF91089580E591E00E94DEA6E3CF6E
:1047300040E162E070E08C2F0E94CE2281E0F0CF59
:10474000FF920F931F93CF93DF93EB01FC01178A26
:10475000168A2A81211109C02B81211106C02C81C2
:10476000211103C02D81222301F141155105E9F0EA
:104770008A01FC01F08C80E591E00E94DEA6AE018A
:104780004E5F5F4F24E030E06CE070E08F2D0E94C0
:10479000BD22B8018F2D0E94DB9881E090E0DF916F
:1047A000CF911F910F91FF90089580E0F7CF0F9365
:1047B0001F93CF938C01FC016481758181E20E947B
:1047C0000799C82F8830F8F480E591E00E94DEA6B2
:1047D0008C2F0E940A23833131F08C2FCF911F91AF
:1047E0000F910C94B09862E070E08C2F0E94E893D7
:1047F000F80184819581EC2FF0E0EE0FFF1FED5F53
:10480000F64F91838083CF911F910F9108950F935D
:104810001F93CF93DF931F921F92CDB7DEB7FC019A
:1048200024852830E0F48C0180E591E00E94DEA62A
:1048300022E030E0AE014F5F5F4F60E170E0F801D1
:1048400084850E940E2389819A8198278927982739
:104850000F900F90DF91CF911F910F91089590E0ED
:1048600080E0F6CF0F931F93CF93DF931F921F9299
:10487000CDB7DEB7FC0124852830E0F48C0180E55B
:1048800091E00E94DEA622E030E0AE014F5F5F4F74
:1048900064E070E0F80184850E940E2389819A818A
:1048A0009827892798270F900F90DF91CF911F911C
:1048B0000F91089590E080E0F6CFCF93DF93EC0165
:1048C0008CE294E0998388831A821B821C821D8269
:1048D00080E591E00E94DEA6BE016E5F7F4F44E05E
:1048E00050E08FE090E00E94F893CE01DF91CF91ED
:1048F00008950E944495882331F0809113098433F0
:1049000029F0873381F090E080E0089580E591E020
:104910000E94DEA685E390E00E94EB2285FD0DC09B
:1049200082E090E0089580E591E00E94DEA68EE2AC
:1049300090E00E94EB2280FFF3CF81E090E00895A9
:1049400010923A0981E0809339091092140961E0CC
:1049500084E10E945EAA61E085E10E945EAAE9EB23
:10496000F0E080818E7F808380818D7F808388E4EA
:104970008093B80085E48093BC000895CF93DF93C3
:1049800091E090933D07882361F0C091B800D091E9
:10499000BA000E94611B0E94A024D093BA00C09369
:1049A000B800DF91CF910895CF92DF92EF92FF92FE
:1049B0000F931F93CF93FC01C1810E94E5AA6B0165
:1049C0007C0180913A09811164C081E080933A09A9
:1049D000809339099FEF909338091092370910920C
:1049E00036098093150980911509CC0FC82BC09307
:1049F000150980911409813009F081C010921409C1
:104A00000E94E5AA6B017C01809115098093BB008F
:104A100080913C0990913D09A0913E09B0913F09D8
:104A2000892B8A2B8B2BA1F00E94E5AA00913C09CF
:104A300010913D0920913E0930913F096C197D0983
:104A40008E099F09061717072807390708F442C07F
:104A50008091BC0083FDD8CF85EC8093BC000E9480
:104A6000E5AA6B017C0180913A09813009F449C0C3
:104A700080913709811167C080913709E6E1F9E03B
:104A8000A1E8B7E090E0981751F121912D939F5F35
:104A9000FACF80913C0990913D09A0913E09B091D7
:104AA0003F09892B8A2B8B2B09F48BCF0E94E5AA17
:104AB00000913C0910913D0920913E0930913F0938
:104AC0006C197D098E099F090617170728073907F2
:104AD00008F077CF80913B090E94BE2480E01092BD
:104AE00069098093680987EA99E00E941914CF91B7
:104AF0001F910F91FF90EF90DF90CF90089585EE7A
:104B0000ACCF80913C0990913D09A0913E09B091B4
:104B10003F09892B8A2B8B2B09F4A5CF0E94E5AA8C
:104B200000913C0910913D0920913E0930913F09C7
:104B30006C197D098E099F09061717072807390781
:104B400008F091CFC7CF81E099CF8F929F92AF921B
:104B5000BF92EF92FF921F93CF93DF93EC010E94DD
:104B600030AC4B015C0110E08BE4E82EF12C0E948C
:104B700030AC681979098A099B09683E7340810540
:104B8000910510F5ED85FE85309709F0199560EFD8
:104B9000CE010E94461BCE010E94D424182F80FD16
:104BA0000FC08A81813009F41A82812FDF91CF9161
:104BB0001F91FF90EF90BF90AF909F908F900895BE
:104BC000C7010197F1F7D3CF81E08A83EECF1F931E
:104BD000CF93DF93EC01162F0E94A525CE010E94F2
:104BE000D51362ED87EA99E00E946014612F70E0AE
:104BF0006095709584E0660F771F8A95E1F7612BC9
:104C000087EA99E00E9460140E94FAABCE010E94EC
:104C1000D424811731F084E08A83DF91CF911F91F2
:104C200008958A818430C9F71A82F7CFCF93DF9332
:104C3000EC0163EC0E94461BCE01DF91CF910C94F6
:104C4000D4240F931F93CF93DF93EC01162F042FDF
:104C50000E94A525002341F0CE010E941626682F50
:104C60006460CE010E94E725CE010E94D51365EA5B
:104C700087EA99E00E946014612F87EA99E00E9418
:104C80006014DF91CF911F910F910C94FAABEF92CA
:104C9000FF920F931F93CF93DF938C017B0140E032
:104CA00065E50E942126E70188E0E80EF11C699184
:104CB00040E0C8010E942126CE15DF05C1F7DF9133
:104CC000CF911F910F91FF90EF900895CF93DF93B5
:104CD000EC010E94D51340E060EFCE010E94212636
:104CE000DF91CF910C94FAAB0F931F93CF93DF9387
:104CF000EC010E94A52580FD36C0CE010E9416263B
:104D000060E0CE010E94E725CE010E94A525CE01DC
:104D10000E94D51364EB87EA99E00E9460140E9418
:104D2000FAABCE010E94A525082F10E082FF16C025
:104D300082E08A838881882341F0CE010E94162672
:104D4000682F6160CE010E94E72515950795802F99
:104D50008170DF91CF911F910F9108958A818230E8
:104D600049F71A82E7CF80E0F4CFCF92DF92EF923B
:104D7000FF920F931F93CF93DF938C01EB017A0186
:104D8000FC01858196810E9474268823C1F1BE01B1
:104D9000F801858196810E94472640E06EEBF8017C
:104DA000858196810E942126E7016701F9E0CF0EF7
:104DB000D11CF801E580F680C7010E94A525C70136
:104DC0000E94D51366E987EA99E00E9460140E9468
:104DD000FAABC7010E94A52561EEC7010E94461BE0
:104DE000C7010E94D4248993CC16DD0611F7F8017F
:104DF000858196810E94742691E0813009F090E0CF
:104E0000892FDF91CF911F910F91FF90EF90DF904D
:104E1000CF900895CF93DF93EA010E94B5268823AF
:104E200081F0DE0189E090E0815039F0ED91E927D1
:104E3000F0E0E158F34E9491F7CF81E028852913F3
:104E400080E0DF91CF910895CF93DF9300D000D021
:104E500000D0CDB7DEB7AE014F5F5F4F0E940A278B
:104E6000882331F08D818F33A9F020F48F31A1F0A8
:104E700080E007C08F3521F08F37D1F78CE001C07B
:104E80008BE029960FB6F894DEBF0FBECDBFDF9141
:104E9000CF9108958AE0F5CF89E0F3CF6F927F92AA
:104EA0008F929F92AF92BF92CF92DF92EF92FF923A
:104EB0000F931F93CF93DF93FC01248521118CC0A6
:104EC000872E762EEC010E947426882309F486C072
:104ED000CE010E94A52540E060EFCE010E94212670
:104EE00010E000E066246A94AA24A394B12CE02E7A
:104EF000E694E694E694F12C802F8770650101C05A
:104F0000CC0C8A95EAF78B85082E000C990B0817B4
:104F1000190734F5FE01EE0DFF1D93809C20CE0194
:104F20000E94A525CE010E94D51368E787EA99E083
:104F30000E946014992011F080E8982E692D87EA6C
:104F400099E00E9460140E94FAABCE010E94A52550
:104F5000982F907485FF0BC0992369F08EEF2AC0BB
:104F60009924939408171907D1F2912CD8CF911155
:104F700002C087FF602EFE01EE0DFF1D938187FFAB
:104F800028C0C92AC3820F5F1F4F0034110509F0E2
:104F9000AECF6B86FFEF6F1202C081E08C87239645
:104FA000E72DF82DCF01089629912193E817F907ED
:104FB000D9F781E0DF91CF911F910F91FF90EF9092
:104FC000DF90CF90BF90AF909F908F907F906F9029
:104FD0000895C094C922D6CF80E0ECCF8FEFEACFFE
:104FE00085ED8093BC0080913C0990913D09A09192
:104FF0003E09B0913F090796A11DB11D23E0B6956A
:10500000A795979587952A95D1F72091BC0024FD07
:1050100003C010923A09089540913C0950913D090E
:1050200060913E0970913F09452B462B472B69F350
:105030000097A105B10541F02AE22A95F1F700C0D9
:105040000197A109B109E1CF80913B090C94BE24DD
:105050001F920F920FB60F9211240BB60F922F933F
:105060003F934F935F936F937F938F939F93AF93F0
:10507000BF93EF93FF938091B900887F803609F446
:105080004DC008F040C0883209F4A9C028F580312D
:1050900009F49DC0C8F4882309F4FBC0883009F4E2
:1050A00096C0FF91EF91BF91AF919F918F917F91AA
:1050B0006F915F914F913F912F910F900BBE0F9089
:1050C0000FBE0F901F901895883109F488C0803268
:1050D00041F78093380914C0803409F49DC040F42E
:1050E0008033B9F38833E9F68093380985ECB0C092
:1050F000803509F485C0883509F496C0883489F66E
:105100000E94F027CECF883909F48CC038F5883753
:1051100029F050F4883611F0803719F683E0809337
:105120003A091092800757C0883809F47BC080394B
:1051300019F0803809F0B5CF80918007803208F0EF
:1051400071C0E091800781E08E0F8093800780918D
:10515000BB00F0E0E05AF84F80833DC0803B39F05F
:10516000E0F4803A09F479C0883A09F09ACF84E0F3
:1051700080933A0910925F0710925E07E0916409EC
:10518000F0916509199580915E0781110FC081E04A
:1051900080935E0710923E0709C0803C09F4A6CFB9
:1051A000883C09F4A3CF883B09F07BCFE0915F07EF
:1051B00081E08E0F80935F07F0E0E25CF84F808122
:1051C0008093BB0090915F0780915E0729C080911A
:1051D00015098093BB0085EC8093BC0062CF909151
:1051E000370980913609981758F5E091370981E021
:1051F0008E0F80933709F0E0EA5EF64F8081E9CFA9
:10520000E091370981E08E0F809337098091BB00D0
:10521000F0E0EA5EF64F808390913709809136097D
:105220009817C8F285E8D8CFE091370981E08E0F52
:10523000809337098091BB00F0E0EA5EF64F8083EF
:105240008091390981115CCF81E08093140984EA4F
:105250008093BC0010923A0924CF85EC8093BC0067
:1052600010923A0980918007803230F4E0918007F3
:10527000F0E0E05AF84F10826091800770E0E09112
:105280006209F091630980E697E019951092800712
:1052900008CF1092380934CF009789F0FC0120859F
:1052A0002F70253061F40E94439D009741F0FC016E
:1052B00020852F70243019F481859285089590E01F
:1052C00080E008950F931F93CF93DF9365E77CE110
:1052D00087EE9AE00E94E88C81E00E940AAB0E946F
:1052E000611B61E085E10E948CAA60E084E10E947C
:1052F0008CAAC4E1D0E010E001E0612F85E10E94BA
:105300005EAA10276AE070E080E090E00E94FDABAA
:10531000219799F764E170E080E090E00E94FDAB96
:105320000E941FA78091AB079091AC07009729F1CD
:105330000E94571B882309F18091AB079091AC071D
:105340000E9466266AE57CE187EE9AE00E94E88C7E
:10535000E091AB07F091AC0700838091AB0790918F
:10536000AC070E94742666E47CE1811102C061E30F
:105370007CE187EE9AE00E94E88C81E0DF91CF919A
:105380001F910F910895CF92DF92EF92FF920F93AA
:105390001F93182F6A017B010E9430AC04C09695C0
:1053A0008795779567951A95D2F76C217D218E2187
:1053B0009F218B019C0101501109210931090E3FE8
:1053C0001F4F2F4F3F4F20F061E070E080E090E0F2
:1053D0001F910F91FF90EF90DF90CF9008953F9233
:1053E0004F925F926F927F928F929F92AF92BF92F5
:1053F000CF92DF92EF92FF920F931F93CF93DF93A1
:1054000000D000D0CDB7DEB77C01362E80913A07B0
:10541000882309F40DC1D70114969C918091000254
:10542000891708F405C18091380790913907BAE0CF
:105430006B1318C28D51994FFC011082D701189639
:105440008D919C91892B09F4EFC08091DF0690919A
:10545000E006A091E106B091E206892B8A2B8B2B06
:1054600009F0CEC00E9430AC2B013C01F701008551
:105470001185D80119966D917C916115710599F48A
:10548000F80185809680A780B08480919D099091D5
:105490009E09A0919F09B091A00988169906AA06B5
:1054A000BB0609F487C0D8011B964D915C911C97EF
:1054B0004115510509F47EC0F701248153968C9162
:1054C000539790E0322F377002C0959587953A95A3
:1054D000E2F780FF6FC0C22ED12CC601887F937087
:1054E000892B39F451968D919C91887F9370C82AAD
:1054F000D92AD8018D919C91DC01ED91FC91611527
:10550000710509F4C4C00688F789E02D1995019743
:1055100009F050C06CE3F801808191810E94FA8A01
:10552000A60170E060E02AE0D8018D919C910E9474
:10553000AA8AF8012281808191816CE37BE1222398
:1055400011F06AE37BE10E94C48CD8011D966D9135
:105550007C911E978D919C910E946D8C60E2F80168
:10556000808191810E94FA8AD8011F966D917C9169
:1055700050978D919C910E946D8CF80122818081C1
:1055800091816FE27BE1222311F069E27BE10E94CD
:10559000C48C63EE76E0D8018D919C910E946D8C55
:1055A000F80180819181DC01ED91FC91008CF18DFD
:1055B000E02D19950E9430ACAB01BC01441955098E
:1055C00066097709F70185819681453651056105A0
:1055D000710508F472C0009721F069E77BE10E9431
:1055E000E88C4FEF5FEFBA0180E00E94C32960931F
:1055F000DF067093E0068093E1069093E20614C004
:105600000E9430AC0091DF061091E0062091E10687
:105610003091E206601B710B820B930B6033754770
:105620008105910508F01ECF1092390710923807B6
:10563000D70115968D919C911697009771F014964D
:105640003C9120910102231740F0DC01ED91FC9187
:105650000190F081E02D632D199581E090E0269670
:105660000FB6F894DEBF0FBECDBFDF91CF911F9173
:105670000F91FF90EF90DF90CF90BF90AF909F90F1
:105680008F907F906F905F904F903F900895048827
:10569000F589E02D2CE234E03A832983D801159670
:1056A0008D909D90AD90BC9018978B829C82AD821E
:1056B000BE82BE016F5F7F4F29CF4091DF065091C0
:1056C000E0066091E1067091E206452B462B472BE0
:1056D00009F4AACF009721F06AE67BE10E94E88CEA
:1056E0001092DF061092E0061092E1061092E20698
:1056F000D70118960D911C91F8016185728561158D
:10570000710591F4458056806780708480919D0971
:1057100090919E09A0919F09B091A0094816590641
:105720006A067B0609F480CFD8011B964D915C91E7
:105730001C974115510509F477CFF7012481539641
:105740008C91539790E0322F377002C095958795D2
:105750003A95E2F780FF68CFC22ED12CC601887F30
:105760009370892B39F451968D919C91887F937019
:10577000C82AD92AD8018D919C91DC01ED91FC9128
:105780006115710509F458C00688F789E02D19954F
:10579000019709F049CF6CE3F801808191810E9463
:1057A000FA8AA60170E060E02AE0D8018D919C9110
:1057B0000E94AA8AF80122818081918165E57BE1BE
:1057C000222311F063E57BE10E94C48CD8011D9671
:1057D0006D917C911E978D919C910E946D8C60E2E1
:1057E000F801808191810E94FA8AD8011F966D91FB
:1057F0007C9150978D919C910E946D8CF801228133
:105800008081918168E47BE1222311F062E47BE1F5
:105810000E94C48C6BE57BE1D8018D919C910E9424
:10582000C48CF80180819181DC01ED91FC91008CA8
:10583000F18DE02D1995F8CE0488F589E02D2CE244
:1058400034E03A832983D80115964D905D906D9090
:105850007C9018974B825C826D827E82BE016F5F66
:105860007F4F95CF843591050CF0E2CEBDE06B17EC
:1058700009F4DECE9C012F5F3F4F30933907209310
:1058800038078D51994FFC016083D2CE8F929F9241
:10589000AF92BF92CF92DF92EF92FF920F931F933E
:1058A000CF93DF937C014A015901C0913B07D0910E
:1058B0003C07062F660F110B209709F45CC0888502
:1058C0008F70863009F055C065E674E0CE010E9405
:1058D000CB9C6C0182E08816910449F06AE674E082
:1058E000E3E08E16910429F0D0E0C0E006C06EE639
:1058F00074E0CE010E94CB9CEC01C114D104D9F11B
:10590000F60180858F708430B1F561857285A801BC
:10591000C7010E94BDDCA80163E774E0C7010E94D3
:105920009FDC209779F188858F70843059F56985DF
:105930007A85A801C7010E949FDCA80163E774E093
:10594000C7010E949FDCA114B10429F0A801B50190
:10595000C7010E949FDCC701DF91CF911F910F917A
:10596000FF90EF90DF90CF90BF90AF909F908F907F
:105970000895D0E0C0E0A8016DED7BE1C7010E9471
:105980009BD0C9CFF2E08F16910481F083E0881696
:10599000910429F06091A3077091A407CACFA801D0
:1059A00067ED7BE1C7010E947DD0C7CFA80164ED00
:1059B0007BE1F8CFCF92DF92EF92FF920F931F938C
:1059C000CF93DF93CDB7DEB7C154D1090FB6F894AA
:1059D000DEBF0FBECDBF6C01AB0130E020E060E464
:1059E000CE0101967C010E94462CF7010190002017
:1059F000E9F731978F010E191F09A801B701C601F8
:105A00000E94AFDC892B11F010E000E0C801CF5BF1
:105A1000DF4F0FB6F894DEBF0FBECDBFDF91CF9141
:105A20001F910F91FF90EF90DF90CF900895EF922C
:105A3000FF920F931F93CF937C018C01C0E0C33082
:105A4000E1F0F801428150E070E060E02AE030E0EF
:105A500086E39AE00E94E78B62ED7BE186E39AE0C1
:105A60000E94C48CCF5F0F5F1F4FC43041F7CF91AE
:105A70001F910F91FF90EF900895F701458150E03D
:105A800070E060E02AE030E086E39AE00E94E78B75
:105A900060ED7BE1E3CFCF93DF931F921F92CDB7F1
:105AA000DEB780911D0C90911E0C009711F489E2D5
:105AB0009CE0BE016F5F7F4F681B790B072E000CC7
:105AC000880B990B0F900F90DF91CF9108954F9213
:105AD0005F926F927F928F929F92AF92BF92DF926E
