:100000000C947F160C94CAF80C949FF80C9474F816
:100010000C9449F80C941EF80C94F3F70C94C8F760
:100020000C949DF70C94B0160C94B0160C94B0166A
:100030000C94B0160C94B0160C94B0160D94160EC9
:100040000C94B0160C94B0160C94B0160C94B01618
:100050000C94B0160C94B0160C94B0160C9408F6D0
:100060000C94B0160C94BAFB0C9490FB0C94B01644
:100070000C94B0160C94B0160C94B0160C94B016E8
:100080000C94B0160C94B0160C94B0160C94B016D8
:100090000C9416FD0C948CFC0C94CEFC0D94DC128C
:1000A0000C94B0160C94B0160C94B0160C94B016B8
:1000B0000C94B0160C94B0160C94B0160C94B016A8
:1000C0000C94B0160C94B0160C94B0160C945AFB09
:1000D0000C9430FB0C94B0160C94B0160C94B01623
:1000E0000C94B01607634236B79BD8A71A396856E6
:1000F00018AEBAAB558C1D3CB7CC5763BD6DEDFD4A
:10010000753EF6177231BF000000803F0800000006
:10011000BE922449123EABAAAA2ABECDCCCC4C3EFC
:1001200000000080BEABAAAAAA3E00000000BF00EB
:100130000000803F0000000000084178D3BB4387E7
:10014000D1133D190E3CC3BD4282AD2B3E68EC82FB
:1001500076BED98FE1A93E4C80EFFFBE01C4FF7F80
:100160003F00000000000C9431D70C9499170C94B8
:100170009CDC0D94A4050C9419850C94F2980C94B5
:10018000F22A0C9486AA0C942BF30C947B7F0C948B
:100190002F180C94619A0C94591C0C9436F20C9400
:1001A000A3290C94B04A0C949A2A0C94C3560C942C
:1001B00095260C94D4810C9455F30C94DAF30C949A
:1001C000AFF30C941C2A0C948CFA0C946C1E0C94B7
:1001D000EF380C94504B0C94D5290C947B380C942C
:1001E00089980C9465F20C9416260C9407F40C94E0
:1001F000A1F20C947C270C94D22A0C948C370C948A
:10020000C38B0C9429F30C94CA390C94B83B0C940E
:1002100030D80C94A9750C94A3390C94437F0C949A
:10022000727F0C94FAD60C9497220D94E2090C94E8
:1002300041770C94478E0D94D70B0C94CC200C94E2
:100240001D8C0C94C67C0C9401D70C94BC170C9498
:100250003FD80C947A2A0C94BD560C94E07C0C94F4
:100260007D210C943B240C946E340C9436F40C9445
:1002700045F50C9422200C940D220C945AF10C9408
:100280008CF50C94B9D10C9420370C94C7D10C94F4
:1002900081230C947CB60C9471D80C9447510C9427
:1002A0006E9F0C94F9520C94F2350C946EF40C94ED
:1002B00060240C94EED70C94FB170C945A880C9481
:1002C00056F40C94D6F50C94E5170C9442290C9432
:1002D0007B7C0C94ADDC0C9436810C9448240C94FB
:1002E00020BA0C94A2F90C94CC840C943A7F0C9410
:1002F000453D0C9449D80C9490390C9451900C9431
:100300001D860C9413220C94B7F00D9436030C94B4
:10031000B3290C94617E0C94E8C80C94A6770C94D5
:10032000F9180C94D7F20C942CD70C941EC90C9489
:1003300037B10C94FCA10C947D390C94BA170C9431
:10034000679B0C94B8F00C94CC390C94F2D60C94B6
:1003500081290C9487940C94D9820C94E5A00C9478
:1003600079170C94D5D10C941CD80C9422F30D94CD
:100370006F090C94F8F20C94F2250C9496830C946B
:1003800085200C94B2D10C94F4200C940B210D9484
:1003900038020C94DB220C94D3500C9424510C940E
:1003A0004D2A0C946C2A0C9449850C9457250C9476
:1003B000C4920C9493370C940E230C944F170C9406
:1003C00051240C9436F30C94407F0C9407C90C9480
:1003D00023D70C94ED7C0C94262A0C949C200C942E
:1003E000C07F0C94B6390C946F510C9466210C9418
:1003F00023A10C94171F0C94B1920C945B7D0C9468
:10040000B1F30C940EF30C945AA40C9418F10C94C0
:10041000672A0C945E500C9484380C94B0F30C94BE
:10042000A0840C9441340C942DD70C9430810C94FE
:10043000F6D60C9412D80C9474290C94E6F20C9411
:1004400086B10C94CCD20C9427D70C94B6170C948C
:1004500081860C943EF30C943D7F0C94087F0C94A1
:10046000C31C0C9451340C941BBA0C949D2A0C940C
:1004700029370C9457F20C94E6340C949C840C9419
:1004800015240C9412270C943E850C940BD70C94D5
:1004900079B90C94CED10C94402A0C94551A0C9432
:1004A0002DA40C9435880C94D9C80C9410220C946B
:1004B00067D80C94647E0C945DD80C94251F0D9421
:1004C0002B020C943C810C94B8280C942CBA0C94FC
:1004D00061D20C94C0C80C94FE230C94341F0C946D
:1004E00008880C94077D0C94EA8C0C94197F0C946A
:1004F00019D70C947E380C94ABD10C9412F30C9455
:1005000007230D948F0D0C945B2A0C94F8D70C9450
:1005100048250C9475930C94D3F30D941F150C94EB
:100520000D240C9481380C944EB10C948F1C0C94B7
:100530008A4B0C942F1E0C9427340C94818C0C94B1
:10054000A4D10C949B280C94DFD70C9440260C94D7
:100550004AD20C9499500C94CA340C9406B10C9461
:100560008FF20C945F170C94477D0C9461270C94C8
:10057000CDF50D9486050D94ED020C94C7C80C942E
:1005800038810C940B510C94A8F20C94647F0C9459
:10059000E11E0C944C230C9439990C9437940C94D0
:1005A0009EB10C947C7B0C94C0390C947CA30C946D
:1005B00023370C945B510C946B7E0C9450390C9443
:1005C000F41E0C94D2170C94B7A30C9459A70C9456
:1005D000F51B0C94E8290C9475B10C94957C0C9443
:1005E0005E250C94B9F00C94B2F50C9428B10C94DF
:1005F00019F20C94C2B10C943A810C9474940C943A
:1006000020950C9470910C949BDC0C9402270C9414
:1006100053D80C94C0F30C9459390C94FE170C94D5
:10062000ECD60D94400C0C9481880C9487980C9413
:10063000EAA10C940AD80C94B2B00C94F5230C9453
:1006400054200C9430D20D94FA0B0C943D250C944C
:10065000FED60C9457770C9447210C941DA30C9450
:100660001C240C940B1F0C94677F0C943FF30C9488
:100670001FD70C94281F0C9480280C9415D70C9429
:10068000CD1E0C94D44F0C9486980C9453170C9454
:10069000B5280C94827C0C947B340D9434150C9406
:1006A000BD4B0C9406870C94B47C0C9495A30C94CD
:1006B000B2160C94E14A0C9440BC0C94F0880C9453
:1006C000A3170C940AF20C94957F0C9462390C9445
:1006D00088980C94D7280C9402D80C94748C0C94A1
:1006E000BF170C942E260C9461B10D94DB060C946C
:1006F000412D0C9464B90C9463170C941A1F0C943C
:10070000F2500C94F97E0C94E4D70C94AD210C9427
:1007100034220C9498840C941C3E0C9451510C94EB
:1007200011D70C94AADC0C9432250C9406800C94FE
:10073000729A0C94AEA10D940C030C94DED20C941E
:100740003A770C94B4560C94D7D70C9433340C9459
:1007500026D80C94BF190C9489380C94A7F10C94EA
:1007600007D70C940AF10C9413500C9442240C9467
:1007700083290C942E810C9458290C9452A10C942A
:10078000F6F00C945B170C94268C0C9417D30C94F5
:10079000FD290C94F3520D948A050C9487A40C94B3
:1007A00041D20C947E230C94BAF00C94423D0C94EC
:1007B00038990C94F5520C94EA7D0C9434810C9485
:1007C000E21C0C94266F0C94D5190C946B390D9483
:1007D00035000C943E810C94167F0C9457170C94A2
:1007E00098270C9416340C9432810C94CD280C94D8
:1007F000E7F00C9467170C94BAF44E414E494E49F9
:100800005459494E46CDCCCC3D0AD7233C17B7D1DD
:100810003877CC2B329595E6241FB14F0A00002083
:10082000410000C84200401C4620BCBE4CCA1B0E02
:100830005AAEC59D746364696E6F70737578585B4A
:1008400000556E6B6E6F776E2073756666697820E3
:1008500000556E6B6E6F776E20636D642000636C65
:10086000724374723A2000454F46002F00496E3A99
:1008700020002500C2B04320483D002044485432A7
:100880003220747970652E20543D00494E3A002084
:100890004E6F20656D69742064617461210020438E
:1008A0006F756E74657220747970652E2076616C38
:1008B0003D00494E3A0020436F756E746572207496
:1008C0007970652E20494E434F525245435420497A
:1008D0006E74657272757074206E756D62657221CA
:1008E0002121004952513A002D3E00200023002DC5
:1008F0003E00200050656E6465643A2023003D0090
:10090000494E3A003D004C454741435920494E3A33
:100910000020666F7220286D73293A004354524CB0
:100920003A205363686564756C6520636D642000CC
:10093000206D73203A0041726D656420666F7220ED
:10094000002044697361726D6564002074696D658F
:100950003A004354524C3A205265733A00205453A3
:100960003A0020543A00544845524D3A00436C65D1
:10097000616E696E6720616C61726D20003D005090
:10098000696E3A004354524C3A20436F6D6D616E6C
:100990006420626C6F636B656420627920647269A5
:1009A000766572206F72206368616E6E656C20667A
:1009B000726F7A656E004354524C3A204F4E3A4162
:1009C0006C7265616479204163746976650A0043DD
:1009D00054524C3A2048414C543A416C726561641F
:1009E0007920496E6163746976650A004354524CFC
:1009F0003A20584F4E3A2044697361626C65640A2C
:100A0000004354524C3A20584F4E3A416C72656143
:100A10006479204163746976650A004354524C3A04
:100A200020584F464620736B69707065642E2050C5
:100A300072657620636D643A004354524C3A2054F8
:100A400075726E6564206F66662066726F6D3A001F
:100A50004354524C3A20526573746F726564206639
:100A6000726F6D3A004354524C3A2049676E6F7270
:100A700065642C206368616E6E656C20636D643DF7
:100A80000020457865633A004354524C3A20416354
:100A9000746976653A004354524C3A2048414C54AC
:100AA0003A416C726561647920496E61637469765C
:100AB000650A004354524C3A20584F4E3A2044693C
:100AC0007361626C65640A004354524C3A20584F7B
:100AD0004E3A416C72656164792041637469766550
:100AE0000A004354524C3A20584F464620736B69D3
:100AF000707065642E205072657620636D643A00D4
:100B00004354524C3A205475726E6564206F666689
:100B10002066726F6D3A004354524C3A205265730E
:100B2000746F7265642066726F6D3A004354524C64
:100B30003A204E6F7420656E6F756768206D656D25
:100B40006F727920666F722067726F7570206F7098
:100B500065726174696F6E00496E76616C696420BC
:100B600061726700496E76616C696420617267002A
:100B70004354524C3A20556E6B6E6F776E207375EE
:100B80006666697800536B697070656420686F6D84
:100B90006965207374756666002000205375623D98
:100BA00000204974656D3D004354524C3A20524137
:100BB0004D3D004354524C3A204F75744F664D657D
:100BC0006D6F72793A2000282D292000282B2920CA
:100BD000002076616C7565206973200020756E6B4E
:100BE0006E6F776E0A005D3D005B0020696E766176
:100BF0006C69640020004143544956453A00206F17
:100C00006B003A00206661696C6564003A005265C9
:100C1000747279696E6720564354454D5020434D98
:100C2000440A005265747279696E67205643204306
:100C30004D440A005265747279696E67206D6F6465
:100C400062757320434D440A005265747279696E6F
:100C50006720434D440A00206572726F723D004D5B
:100C6000423A20706F6C6C696E6720002056616C90
:100C70003A20004D423A20004D423A204E6F7420F7
:100C8000737570706F727465642072656720747913
:100C900070650A004D423A20706F6C6C696E672077
:100CA00064696D6D657220004D423A20496C6C6537
:100CB00067616C20617267756D656E74730A0020E0
:100CC0006572726F723D004D423A20706F6C6C69B4
:100CD0006E6720504920002D004D423A2050492097
:100CE00056616C203A004D423A20706F6C6C696E10
:100CF0006720504920004D423A20706F6C6C696E3D
:100D00006720464D206661756C7420002065727204
:100D10006F723D004D423A20706F6C6C696E6720B7
:100D2000002D004D423A20464D2056616C203A007D
:100D30004D423A20706F6C6C696E6720464D200002
:100D40004354524C2F706F6C6C3A204F75744F6641
:100D50004D656D6F72793A2000207365632072656E
:100D60006D61696E696E6700537461747573206498
:100D7000656666657265640A002D3E005075623ACC
:100D800020002D3E005075623A20002D3E00507527
:100D9000623A20000000000000636D64000073658B
:100DA00074000076616C000064656C000048535666
:100DB0000000524742000066616E00006D6F64657E
:100DC000006374726C0068756500007361740000E4
:100DD00074656D700072617700002D3E0050756281
:100DE0003A20002D3E005075623A200053454E4493
:100DF0005354415455533A20556E6B6E6F776E20A5
:100E0000636D64200A000000000000000000004F35
:100E10004E000000000000004F46460000000000A9
:100E200000524553540000000000544F47474C45C2
:100E300000000048414C540000000000584F4E0094
:100E40000000000000584F46460000000000494ED8
:100E500043524541534500444543524541534500A3
:100E6000454E41424C4500000044495341424C45E7
:100E70000000554E465245455A4500465245455A92
:100E8000450000004155544F000000000046414E0F
:100E90005F4F4E4C59004849474800000000004D44
:100EA000454449554D0000004C4F570000000000DC
:100EB00000484541540000000000434F4F4C0000E3
:100EC00000000044525900000000000053544F50ED
:100ED000000000000052474200000000000048539C
:100EE00056000000000000206661696C65643A00ED
:100EF0004D6F64627573206F7020004D423A206F11
:100F00006B003D004D423A205643230020636D6440
:100F10003D003D004D423A2056435F6865617423B1
:100F2000004D423A204E6F7420737570706F72746A
:100F300065642072656720747970650A00205661C7
:100F40006C3A30780020543A00205265673A307885
:100F5000004D423A20416464723A00444D5800000A
:100F600000000000444D58524742570000444D587D
:100F700052474200000050574D0000000000004D55
:100F800042555344494D0000544845524D4F0000CE
:100F90000052454C41590000000047524F55500047
:100FA000000000564354454D500000004D4255533B
:100FB0005643000000414348414945520000535008
:100FC000494C45440000004D4F544F520000000072
:100FD0005049440000000000004D425553000000FD
:100FE000000055415254425244470052454C415929
:100FF00050574D00444D5852474257570056454EA2
:10100000545300000000454C455641544F52004394
:101010004F554E544552000048554D000000000009
:10102000004D455243555259000020002D3E0043CB
:101030006F6E76657274696E6720002D3E00577280
:101040006F6E672041737369676E6D656E74200003
:10105000524742783A200020764C6576656C3A001B
:1010600020436F6E76563A0020436F6E76533A00F7
:1010700020486F743A00436F6C643A0020436F6EEF
:1010800076657274656420563A00436F6E766572B9
:1010900074656420533A002D3E0057726F6E6720CE
:1010A00041737369676E6D656E7420002D3E005745
:1010B000726F6E672041737369676E6D656E742021
:1010C000000000000000000000004F4E0000000083
:1010D0000000004F464600000000000052455354F7
:1010E0000000000000544F47474C450000004841B5
:1010F0004C540000000000584F4E0000000000005B
:10110000584F46460000000000494E4352454153A7
:101110004500444543524541534500454E41424CEC
:101120004500000044495341424C450000554E469D
:101130005245455A4500465245455A450000004132
:1011400055544F000000000046414E5F4F4E4C5931
:10115000004849474800000000004D454449554DAE
:101160000000004C4F57000000000000484541546B
:101170000000000000434F4F4C00000000004452AC
:101180005900000000000053544F500000000000C0
:101190005247420000000000004853560000000083
:1011A000000020537566663A002041543A002069D9
:1011B00073200044656C6574696E6720636F6E66AA
:1011C0002E2052414D207761733A0053746F707036
:1011D0006564006E6F7468696E6720746F20737445
:1011E0006F700053746F7070696E67206368616E12
:1011F0006E656C73202E2E2E0043616E206E6F7410
:1012000020636C65616E202D206C6F636B656400DC
:101210004D5154543A20436F6D706C6574652E20A7
:1012200052656D6F766520746F706963200024636A
:101230006F6D6D616E64004D5154543A20436C657E
:10124000616E55702072657461696E656420746F9B
:101250007069632000220022004F75744F664D654F
:101260006D6F727921005D20003A5B004D5154543E
:101270003A005D00456D7074793A205B000A003ACF
:10128000004D41433A00554450205379736C6F67C9
:1012900020696E697469616C697A65642E0A00530D
:1012A00079736C6F6720706172616D733A002E6C98
:1012B0006F63616C00536572766963652072656364
:1012C0006F72643A20006D444E5320726573706FE4
:1012D0006E64657220737461727465642E00457269
:1012E000726F722073657474696E67207570204D1B
:1012F000444E5320726573706F6E646572210047AF
:101300006F7420495020616464726573733A0027DA
:101310006970205B69705B2C646E735B2C67775B14
:101320002C7375626E65745D5D5D5D27202D207385
:101330006574207374617469632049500A004661C2
:10134000696C656420746F20636F6E66696775727F
:10135000652045746865726E6574207573696E6783
:1013600020444843502E20596F752063616E2073CE
:101370006574206970206D616E75616C6C792100F7
:10138000204D41534B3A002047573A0020444E53DA
:101390003A004C6F616465642066726F6D20666C04
:1013A0006173682049503A000A7573657320444898
:1013B00043500A005374617274696E67206C616EE9
:1013C000004D5154543A2074727969796E67206ED9
:1013D000656E78742062726F6B6572004D51545463
:1013E0003A20546F6F206D616E7920636F6E6E6569
:1013F0006374696F6E206572726F72732E2052650E
:101400007374617274204C414E00207472792061B3
:101410006761696E20696E2035207365636F6E6445
:1014200073004D5154543A206661696C65642C20F8
:1014300072633D004D5154543A204177616974699B
:101440006E6720666F722072657461696E656420D4
:10145000746F7069637300636F6E6E656374656447
:101460002061732000202E2E2E0020757365723AA5
:10147000003A000A4D5154543A20417474656D701D
:1014800074696E6720636F6E6E656374696F6E203A
:10149000746F2000646973636F6E6E656374656456
:1014A000005573696E67204D5154542070617373F9
:1014B000776F72642066726F6D20636F6E66696706
:1014C000002E6C6F63616C006D444E53206E616D35
:1014D0006520757064617465643A200044657669BE
:1014E0006365204E616D653A004D5154543A204178
:1014F00074206C6561737420646576696365206E21
:10150000616D6520616E642062726F6B6572204947
:1015100050206D75737420626520636F6E66696715
:101520007572656400757074696D652C66726565A9
:101530006865617000653231353431615F32303257
:10154000342D30382D3232004C696768744875622A
:101550002000246E616D6500526562696E642073BF
:101560007563636573732E204950206164647265EE
:1015700073733A004572726F723A20726562696ED7
:1015800064206661696C0052656E657765642073DE
:101590007563636573732E204950206164647265BE
:1015A00073733A004572726F723A2072656E657796
:1015B0006564206661696C000A4E6F206C696E6B11
:1015C00000436F6E74696E7565207769746820706A
:1015D000726576696F75736C79206C6F6164656490
:1015E00020636F6E66696700333073204545505243
:1015F0004F4D206973206E6F742072656C6F61644B
:1016000065642E205265626F6F74004D5154543AD8
:1016100020416363657074696E6720636F6D6D61EF
:101620006E64732E2E2E0A004E6F204D515454209E
:10163000636F6E66696775726564004C6F6164699B
:101640006E6720636F6E6669672066726F6D2070CB
:101650006F7274616C2064697361626C65642E20C2
:1016600075736520676574204F4E20746F20656E1A
:1016700061626C6500436F6E6669672069732076EE
:10168000616C696400436F6E74696E75652077697B
:1016900074682070726576696F75736C79206C6FF1
:1016A0006164656420636F6E666967005365747575
:1016B00070204F5441004D5154543A2073657420AA
:1016C00066697273742062726F6B65720043757223
:1016D00072656E74204C414E20636F6E6669672898
:1016E00069702C646E732C67772C7375626E6574E9
:1016F000293A000A55736520746865736520636F25
:101700006D6D616E64733A202768656C7027202DBB
:10171000207468697320746578740A276D6163208A
:1017200064653A61643A62653A65663A66653A307C
:1017300030272073657420616E642073746F726546
:10174000204D41432D6164647265737320696E207E
:10175000454550524F4D0A276970205B69705B2CDC
:10176000646E735B2C67775B2C7375626E65745D5A
:101770005D5D5D27202D207365742073746174692D
:10178000632049500A277361766527202D207361F5
:1017900076652063757272656E7420636F6E66691C
:1017A0006720696E204E5652414D3B204F4E7C4F74
:1017B0004646202D20656E61626C652F64697361F9
:1017C000626C65206175746F736176650A27676561
:1017D0007427205B636F6E66696720616464725D65
:1017E00027202D2067657420636F6E666967206609
:1017F000726F6D207072652D636F6E6669677572AA
:1018000065642055524C20616E642073746F72655C
:1018100020616464722C204F4E7C4F4646202D2060
:10182000656E61626C652F64697361626C652064CA
:101830006F776E6C6F6164206F6E20737461727469
:1018400075700A276C6F616427202D206C6F6164AE
:1018500020636F6E6669672066726F6D204E565208
:10186000414D0A2770776427202D20646566696ED4
:101870006520616E642073746F7265204D515454FD
:101880002070617373776F72640A276F7461707769
:101890006427202D20646566696E6520616E642072
:1018A00073746F7265204854545020415049207021
:1018B000617373776F72640A276C6F67205B73655F
:1018C0007269616C5F6C6F676C6576656C5D205BDF
:1018D0007564705F6C6F676C6576656C5D27202D35
:1018E00020646566696E65206C6F67206C6576653F
:1018F0006C2028302E2E37290A276B696C6C272024
:101900002D2074657374207761746368646F670A4F
:1019100027636C65617227202D20636C65617220DE
:10192000454550524F4D0A27736561726368272001
:101930002D2073656172636820312D77697265208F
:101940006465760A277265626F6F7427202D207296
:1019500065626F6F7420636F6E74726F6C6C65720A
:1019600000536F6674207265626F6F74696E672EC4
:101970002E2E00206E6577002069732000315754A9
:101980003A003157543A20536561726368696E6753
:10199000206465760052414D3D000A5379736C6FA7
:1019A0006720000A312D7769726520000A6D717415
:1019B0007420000A6D6F64627573207632000A6DC0
:1019C0006F6462757320763120282B29000A696EB6
:1019D0007075747320000A6974656D7320000A4382
:1019E0006F6E666967757265643A00496E697469FD
:1019F000616C697A696E6720496E70757473003125
:101A000057543A207365747570207265736F6C75E6
:101A100074696F6E20003157543A20445332343881
:101A2000322D313030206E6F742070726573656EA8
:101A300074003157543A204453323438322D313007
:101A4000302049324320726573746F7265640031CF
:101A500057543A204275732072657365742065721D
:101A6000726F72003157543A204275732052657379
:101A7000657420646F6E65003157543A20445332C8
:101A80003438322D3130302070726573656E742CAD
:101A9000207265736574004572726F7220312D7704
:101AA00020696E6974003157543A204453323438F7
:101AB000325F3130305F4932435F544F5F31575F9F
:101AC00042524944474520696E697400444D584F5D
:101AD00075742E20467265653A00444D58696E2033
:101AE00042756666657220616C6C6F632065727208
:101AF00000496E697420696E2063683A003B003DBE
:101B00000050696E3A003B003D4C4F5700546865E9
:101B1000726D6F3A004F6E6520776972652052656D
:101B20006164790A00467265653A00444D58206F39
:101B3000757420737461727465642E204368616EDD
:101B40006E656C733A2000444D5820696E207374A2
:101B500061727465642E204368616E6E656C733AC1
:101B60000042726F6B65727320636F6E6669677592
:101B70007265643A004170706C79696E6720636FBA
:101B80006E666967004C6F61646564204554414727
:101B90003A004E6F2073746F72656420636F6E66D7
:101BA0006967004C6F616465642066726F6D2045E3
:101BB0004550524F4D006C6F6164206661696C65E1
:101BC00064004A534F4E2064657465637465640015
:101BD0004C6F6164696E6720436F6E66696720664B
:101BE000726F6D20454550524F4D00436F6E6669D0
:101BF00067206175746F736176653A000A53797373
:101C00006C6F67206465627567206C6576656C3AF9
:101C10000053657269616C206465627567206C654C
:101C200076656C3A0053617665640A0053657420EA
:101C300064796E616D69632049500A004F544120F8
:101C400050617373776F726420757064617465643A
:101C50000A004E6F20495020616472657373002042
:101C60005361766564004C6F6164696E6720485407
:101C7000545020636F6E666967206F6E20737461C5
:101C8000727475703A000000000000000000004F00
:101C90004E000000000000004F464600000000001B
:101CA00000524553540000000000544F47474C4534
:101CB00000000048414C540000000000584F4E0006
:101CC0000000000000584F46460000000000494E4A
:101CD0004352454153450044454352454153450015
:101CE000454E41424C4500000044495341424C4559
:101CF0000000554E465245455A4500465245455A04
:101D0000450000004155544F000000000046414E80
:101D10005F4F4E4C59004849474800000000004DB5
:101D2000454449554D0000004C4F5700000000004D
:101D300000484541540000000000434F4F4C000054
:101D400000000044525900000000000053544F505E
:101D5000000000000052474200000000000048530D
:101D600056000000000000636F756C64206E6F7495
:101D70002070617273653A20005570646174656407
:101D80000A00454550524F4D20636C656172656491
:101D90000A004D5154542050617373776F72642060
:101DA000757064617465640A002B002D00455461F0
:101DB000673A200047657420455441473A2000485F
:101DC0005454502F312E310025733A2025730D0ABB
:101DD0000020485454502F312E310D0A486F73742F
:101DE0003A2025730D0A4163636570743A202A2FE7
:101DF0002A0D0A436F6E6E656374696F6E3A2063D5
:101E00006C6F73650D0A0025730020000D0A0047F2
:101E10004554006661696C656420746F20636F6E61
:101E20006E6563740A004552524F523A20536572F0
:101E30007665722072657475726E65642000436FFA
:101E40006E666967206E6F74206368616E67656493
:101E50000A00446F6E652E0A00436F6E6669672044
:101E600070617273696E67206661696C65640A00EF
:101E70004765742061626F7274656400676F7420D7
:101E8000436F6E6669670A006874747020726574C7
:101E9000636F64652000667265652000436F6E663F
:101EA0006967205552493A20687474703A2F2F00A0
:101EB0002044656661756C7420636F6E6669672087
:101EC00073657276657220757365643A20006C6183
:101ED0007A79686F6D652E7275000A282D29434145
:101EE0004E000A282D294D455243555259000A28C3
:101EF0002B294D554C544956454E54000A282B2940
:101F000050574D5F52454C4159000A282B294D44EA
:101F10004E53000A282D29554152544252494447F4
:101F200045000A282B295359534C4F47000A282BA8
:101F300029504944000A282D294D4350323330316D
:101F400037000A282D294152544E4554000A282DA5
:101F5000294F5441000A282D29535049204C45440B
:101F6000000A282B294D4F544F5220435452000A47
:101F7000282D294143204841494552000A282D294E
:101F800043435338313120262048444331303830E0
:101F9000000A282B29524553544152545F4C414E5C
:101FA0005F4F4E5F4D5154545F4552524F52530054
:101FB0000A282D294841524452455345542C207536
:101FC00073696E6720736F6674000A282B29434F6C
:101FD000554E544552000A282B29444854000A28DB
:101FE0002B294453323438322D313030000A282B1B
:101FF000294F57495245000A282D2949504D4F4431
:10200000425553000A282B294D4F44425553203046
:102010007830362061742053657269616C322073A8
:10202000706565643A39363030000A282B294144FE
:10203000414652554954204C4544000A282B294416
:102040004D58000A282B2957697A4E65743535306A
:1020500030000A282B294672656552616D20707226
:10206000696E74696E67000A282B295741544348EA
:10207000444F47006C617A79686F6D652E72750008
:102080000A436F6E666967207365727665723A00FF
:102090003230313130334C0020432B2B20766572A7
:1020A00073696F6E3A00653231353431615F3230B9
:1020B00032342D30382D3232000A4C617A79686F13
:1020C0006D652E7275204C6967687448756220636F
:1020D0006F6E74726F6C6C65722000204F46460004
:1020E000204F4E00204259504153530053617665B2
:1020F0006420746F20454550524F4D0053617669FE
:102100006E6720636F6E66696720746F2045455067
:10211000524F4D2E2E00556E6B6E6F776E2073757D
:10212000666669782000556E6B6E6F776E20636D02
:10213000642000436F756E7465723A2000444D58F8
:102140002D4F757420496E69743A2000444D582D06
:102150004F75742073746F703A2000417373696710
:102160006E65643A00444D58206374726C3A2000E6
:10217000693136000169333200027531360003756A
:1021800033320004693868000569386C0006753818
:1021900068000775386C000878313000093130303C
:1021A000000A44656661756C742073657269616CC0
:1021B000206D6F6465204E3831207573656400387A
:1021C0004531002600384E31000600384532002ED9
:1021D00000384E32000E00384F31003600384F3292
:1021E000003E00374531002400374532002C0037CF
:1021F0004F31003400374F32003C00374E3100047D
:1022000000374E32000C004D4255533A204D6F645A
:102210006275732074656D706C617465206E6F7487
:1022200020666F756E643A20004D4255533A20493E
:102230006E76616C69642074656D706C6174652E76
:10224000002C002C002C002C004D4255533A2063EA
:102250006F6E666967206661696C65643A004D421D
:1022600055533A20636F6E666967206572726F72AC
:10227000004D4255533A20636F6E666967206C6F5C
:102280006164656420004D4255533A204F757420B7
:102290006F66206D656D6F7279004D4255533A201F
:1022A000506F6C6C696E67206572726F7220004DA2
:1022B0004255533A204E6F7420737570706F72746C
:1022C00065642072656720747970650A004D425517
:1022D000533A206578656320004D425553443A20B7
:1022E00049676E6F726564202D20657175616C2081
:1022F00077697468207365747465642076616C0016
:102300004D4255533A206578656320004D42555340
:102310003A204164642040533A20004D42555344D2
:102320003A204D61707065643A004D425553443A0D
:10233000204E65737465644D61707065643A004C3D
:102340006173744B6E6F776E2076616C75653A20A1
:1023500000536561726368696E67207265673A2031
:1023600000206F7574206F662072616E6765206251
:1023700075666665722C206665746368696E6700B1
:10238000646566207265672320004D425553443AC8
:1023900020536561726368696E6720726567230008
:1023A0003A002066726F6D207479706520004D428E
:1023B0005553443A2020676F7420002076616C3AB0
:1023C0000020004D425553207265733A200020765C
:1023D000616C206E6F74206368616E6765642E2087
:1023E000436F6E74696E7565004D4255533A003AFD
:1023F00020657175616C20746172676572742E005E
:102400003D004D4255533A002076616C206368616F
:102410006E6765642E004D4255533A00204E6F772B
:102420003A00204C6173743A0020230020707265DA
:1024300066657463682000205265672F636F696C5E
:10244000206D75737420626520696E740020696E5A
:102450007465726E616C2073656E64206572726F54
:1024600072202D206E6F207265672F636F696C007C
:1024700020696E7465726E616C2073656E64206590
:1024800072726F72202D206E6F2074656D706C619A
:1024900074650020696E7465726E616C2073656E80
:1024A00064206572726F72202D206E6F2073746FBE
:1024B0007265004D425553443A20656E64506F6C0E
:1024C0006C20004D425553443A20506F6C6C2000F4
:1024D000206E6F7420666F756E64004D4255533ADE
:1024E0002020706172616D20002073656E64696EDA
:1024F000672063616E63656C6C6564004D42555383
:102500003A2020706172616D20002073656E642036
:102510006572726F722E20004D4255533A20200092
:102520004164642040563A20002056616C3A2000F5
:102530004D425553443A207375666669783A0020D7
:102540006F722073756666697820004D4255533A64
:10255000204E6F2074656D706C61746520666F72BB
:1025600020004D6F746F723A2074696D656F7574D9
:1025700000556E6B6E6F776E20636D64004D6F74E7
:102580006F723A20466F7263656420657865637583
:1025900074696F6E0056454E543A20636F6E6669DB
:1025A00067206661696C65640056454E543A20693F
:1025B0006E69740056454E543A2044652D496E6943
:1025C0007400204F75743A00205265713A005645E8
:1025D0004E543A2000206D33002066726F6D20004B
:1025E000204D6178207265713A002066616E253A4F
:1025F000002061637469766520563A0056454E5452
:102600003A20546F74616C20563A005049443A2085
:10261000616C726561647920696E697469616C6965
:102620007A6564005049443A20496E76616C696469
:1026300020706172616D2061727261792E002C00D0
:102640002C002C002C005049443A20636F6E6669C0
:1026500067206661696C65643A005049443A2063BA
:102660006F6E666967206572726F72005049443AF6
:1026700020636F6E666967206C6F6164656420001B
:102680005049443A204F7574206F66206D656D6F18
:102690007279005049443A2044652D496E6974208E
:1026A00000203C414C4D3E0020443A0020493A0075
:1026B00020503A0020696E3A00207365743A005049
:1026C00049443A20005049443A20496E76616C6989
:1026D0006420706172616D2061727261792E0053A5
:1026E0006574206F757420746F2000205049442059
:1026F000616C61726D2E20002050494420616C6134
:10270000726D3A20636C6F736564005049443A20DF
:10271000556E6B6E6F776E207375666669782000F4
:102720005049443A20556E6B6E6F776E20636D642E
:10273000200020536574706F696E743A00504944EC
:102740003A200020496E7075742076616C75653A88
:10275000005049443A200020696E697400200050FE
:10276000574D2D4F75742023002073746F70002017
:102770000050574D2D4F75742023003D0050696E59
:102780003A0020696E69740052656C61792D4F754D
:10279000742023002073746F700052656C61792D72
:1027A0004F75742023003D3E003A00707562206131
:1027B0006374696F6E200069646C65006F66660003
:1027C00068656174696E670066616E00647279693C
:1027D0006E6700636F6F6C696E670020697320001D
:1027E0004F75742000556E6B6E6F776E2073756633
:1027F0006669782000556E6B6E6F776E20636D642E
:102800002000616374696F6E0072656C6179437456
:10281000723A20005B305D3A2000202D202D202DC3
:1028200020EFBBBF003E003E31202D200000000005
:102830000000636D640000736574000076616C00D5
:102840000064656C00004853560000524742000087
:1028500066616E00006D6F6465006374726C006881
:1028600075650000736174000074656D70007261BD
:1028700077000020002E00696E00735F6F75740092
:102880006D79686F6D65004354524C2F65786563B0
:102890003A204F75744F664D656D6F72793A20001E
:1028A000202D3E20004D5154543A2000202D3E2032
:1028B00000456D69743A203C00202D3E200049748B
:1028C000656D436D643A2000202D3E2000497465FB
:1028D0006D3A200000002100240027002A002D006E
:1028E0003000330001010000040107010A0100006B
:1028F0002200250028002B002E00310034000201A8
:102900000000050108010B0105050505070508087C
:102910000808020202020A0A080804040404010169
:10292000010101010101030303030303030304077E
:1029300007070C0C0C0C0C0C0C0C02020202060615
:102940000606060606060B0B0B0B0B0B0B0B010208
:1029500010202008081020401020408002010201B1
:102960000804020101020408102040808040201069
:1029700008040201800402018040201008040201C2
:10298000080402010102040810204080010204082A
:102990001020408000000A0B02090C0D0E080703EE
:1029A0000401000000000000000000000000000022
:1029B0000000000000000000000000000000000017
:1029C00012111000000000000000000000000000D4
:1029D0000000000000000000000057726F6E6720CA
:1029E0007061796C6164004D5154543A20435452E3
:1029F0004C2F7478743A204F75744F664D656D6F27
:102A000072793A2000202D3E2041543A00436861FB
:102A10006E20747970653A004E6F2073746F726522
:102A2000642076616C756573202D20646566617520
:102A30006C743A2000536176656420455441473AEE
:102A40000053657420455441473A20003157543AA9
:102A500020427573207265736574206572726F729F
:102A6000003157543A2042757320526573657420C3
:102A7000646F6E65003157543A2044533234383213
:102A80002070726573656E742C20726573657400B6
:102A900049324320526573657400005EBCE2613FB9
:102AA000DD83C29C7E20A3FD1F419DC3217FFCA22C
:102AB000401E5F01E3BD3E6082DC237D9FC1421C5E
:102AC000FEA0E1BF5D0380DE3C62BEE0025CDF8110
:102AD000633D7C22C09E1D43A1FF4618FAA42779BE
:102AE0009BC584DA3866E5BB5907DB856739BAE4EC
:102AF00006581947A5FB7826C49A653BD987045A1E
:102B0000B8E6A7F91B45C6987A24F8A6441A99C7CF
:102B1000257B3A6486D85B05E7B98CD2306EEDB37D
:102B2000510F4E10F2AC2F7193CD114FADF3702EAB
:102B3000CC92D38D6F31B2EC0E50AFF1134DCE90DD
:102B4000722C6D33D18F0C52B0EE326C8ED0530D8F
:102B5000EFB1F0AE4C1291CF2D73CA947628ABF53D
:102B600017490856B4EA6937D58B5709EBB536686B
:102B70008AD495CB2977F4AA4816E9B7550B88D69D
:102B8000346A2B7597C94A14F6A8742AC896154B4F
:102B9000A9F7B6E80A54D7896B353E3E2000496E46
:102BA00076616C696420636F6D6D616E6400000016
:102BB00020002300260029002C002F0032000001F5
:102BC00000000301060109013E3E3E004E6F204D0C
:102BD000414320636F6E666967757265643A20735E
:102BE0006574206669726D776172652773204D4147
:102BF000430A00454550524F4D207369676E61741A
:102C0000757265206F6B00496E697469616C697AD1
:102C1000696E6720454550524F4D2E002072656108
:102C200064206572726F7220666F7220003E200011
:102C3000203C003157543A003157543A206E6F749B
:102C400020696E6974003157543A20425553592017
:102C500074696D656F7574003157543A204453326E
:102C60003438325F4552524F525F434F4E464947C8
:102C7000003157543A20312D776972652073686F9F
:102C800072746564007265616479002473746174A0
:102C90006500757074696D6500667265656865616B
:102CA00070002473746174730020457870697265D4
:102CB000640A00202D746172676574207A6F6E65F6
:102CC0002D0020416C61726D2045787069726564D9
:102CD0000A0020636D643A00204375723A00205365
:102CE00065743A002054696D65723A00204C6F6338
:102CF0006B733A0052414D3D00004D038D0211248B
:102D00001FBECFEFD1E2DEBFCDBF00E00CBF19E0A8
:102D1000A0E0B2E0EAE2F3E602E00BBF02C00790F7
:102D20000D92A232B107D9F72FE0A2E2B9E001C0BB
:102D30001D92A43FB207E1F716E1CEE7D6E100E02D
:102D400006C021970109802FFE010F945929CD3724
:102D5000D10780E00807A9F70F942A180D94833152
:102D60000C940000FC01848195810895FC01A681EA
:102D7000B781109721F118969C9118979F708EEF4C
:102D8000890F823010F091111AC019964D935D93FE
:102D90006D937C931C97A681B78118969C91189788
:102DA000907F926018969C930680F781E02D808535
:102DB000982F907F903619F48F70806A80870895DD
:102DC000FC01238130E090E080E0FC01EE0FFF1F6A
:102DD000E35AF64FA081B181A217B30761F4880FBF
:102DE000991F880F991FFC01E75BF64F40835183C1
:102DF000628373830895A081B181AB2B19F4208184
:102E00003181EDCF019685309105F9F60895FC01E9
:102E1000238130E090E080E0FC01EE0FFF1FE35AD9
:102E2000F64F408151814217530761F4880F991F73
:102E3000880F991FFC01E75BF64F608171818281E9
:102E40009381089540815181452B89F431832083FA
:102E5000880F991F880F991FFC01E75BF64F1082BE
:102E600011821282138260E070E0CB010895019616
:102E70008530910589F6F7CF880F991F880F991F24
:102E8000FC01EF5CF64F80819181A281B3810196B4
:102E9000A11DB11D80839183A283B383089585E032
:102EA00090E00C943C1784E090E00C943C1783E095
:102EB00090E00C943C1782E090E00C943C1781E089
:102EC00090E00C943C1790E080E00C943C17CF937A
:102ED000DF93EC01E881F9810484F585E02D1995F3
:102EE00029893A892F5F3F4F3A8B298BDF91CF9108
:102EF0000895CF93DF93EC018E8581110DC081E0A1
:102F000090E049895A892C853D854217530708F07E
:102F100080E0DF91CF910895E881F9810484F585FF
:102F2000E02DCE0119958F3F910549F780E090E0A3
:102F3000F0CFFC01848595856817790708F4CB01EB
:102F4000928B818B0895CF93DF93FC0126852223FA
:102F500051F0EC010190F081E02D0190F081E02D25
:102F60006FEF19951E86DF91CF910895FC0187853B
:102F70009089089581E0089590E080E00895DC0153
:102F80001296ED91FC91309761F00280F381E02D73
:102F9000309739F0862F8295807F60856F70682B1F
:102FA00060870895DC011296ED91FC91309751F005
:102FB0000280F381E02D309729F0808582958F7013
:102FC00090E0089590E080E008950F931F93CF93D1
:102FD000DF9300D000D01F921F92CDB7DEB781E003
:102FE00028960FB6F894DEBF0FBECDBFDF91CF910C
:102FF0001F910F91089590E080E0089561E679E1D6
:1030000086EF9CE00E94E4FAF0E0E0E0199584EF9E
:1030100091E008956CEC7BE0811102C067EC7BE0ED
:1030200087EA9DE00C94E4FA80917A098823B1F054
:10303000E0917B09F0917C09309731F0868197818E
:10304000909379098093780966EB76E186EF9CE0AE
:103050000E94E4FA86EF9CE00C947EF90895DC016E
:1030600055962C915597273781F4ED91FC91008C62
:10307000F18DE02D199567E678E087EA9DE00E94E2
:10308000E4FA87EA9DE00C947EF90895009789F0B0
:10309000FC0120852F70253061F40E9493C80097B1
:1030A00041F0FC0120852F70243019F48185928530
:1030B000089590E080E0089565E0FC0182819381AD
:1030C0000E9493C8009749F0FC018085982F907F5B
:1030D00021F082958F7090E0089590E080E008954F
:1030E0008F929F92AF92BF92CF92DF92EF92FF9218
:1030F0000F931F93CF93DF93E091D80EF091D90EE9
:10310000309709F467C0812EF02E932EC22EA52E83
:10311000D42EB72EE62EBC01CF010E941BC8EC01B5
:10312000892B19F481E090E057C088858F70853035
:10313000C9F760E0CE010E9493C88C0161E0CE0126
:103140000E9493C8FC01C185D285D80119962D91A2
:103150003C912130310561F13CF46F2DCE01232BE0
:1031600009F70F94FF0EDECF2230310531F1273001
:103170003105C1F6892BB1F280858F70853091F6CB
:10318000C681D781209771F288858F70843061F471
:103190000F2D182D2C2D392D4D2D5A2D6E2D7B2DAB
:1031A00089859A850E9470180A80DB81C02DEACF3C
:1031B0006F2DCE0103960F94FF0E6E2DCE010F944E
:1031C000FF0E6D2DCE0101960F94FF0E6C2DCE01DA
:1031D0000296C7CF90E080E0DF91CF911F910F91D1
:1031E000FF90EF90DF90CF90BF90AF909F908F9027
:1031F00008952F923F924F925F926F927F928F929B
:103200009F92AF92BF92CF92DF92EF92FF920F9375
:103210001F93CF93DF938091740990917509892B47
:1032200009F49AC020907309312C35942794359471
:103230002794EE24E394F12CD0E0C0E0882483941A
:10324000912C2C163D0609F487C0C0907409D090CB
:10325000750924010C2E02C0440C551C0A94E2F797
:10326000052C000C66087708F7013197EC0DFD1D61
:103270005701A4E0AA0EB11CC70160E020911C0216
:1032800030911D02AC012817390720F440911C022F
:1032900050911D022091C90E3091CA0E240F351F86
:1032A000D9012C9131913217C1F0409129095091E7
:1032B0002A0960912B0970912C0944295529662906
:1032C00077294093290950932A0960932B09709319
:1032D0002C09DF0111972C9361E001968A159B055B
:1032E00069F66623B1F1809176099091770900978C
:1032F00029F1FC0120852F70253001F56C2F0E94EB
:1033000093C8FC0190859F709430C1F481859285AB
:103310000097A1F0FE01EE0FFF1FEE0FFF1FEC0D57
:10332000FD1D038110E0228130E0EC0CFD1CD70173
:103330004C9150E0608170E00E94701880E00F9422
:10334000011560932D0970932E0980932F09909396
:1033500030092196750175CFDF91CF911F910F91A3
:10336000FF90EF90DF90CF90BF90AF909F908F90A5
:103370007F906F905F904F903F902F900895CF93E4
:10338000C1E068EE73E080E090E00E94ABD94AE0D3
:1033900050E06C2F86EF9CE00E949BF9CF5FC43118
:1033A00081F784EF91E0CF9108950F931F93CF930E
:1033B000DF93CDB7DEB769970FB6F894DEBF0FBEC7
:1033C000CDBFE091CD0EF091CE0E309709F460C0E4
:1033D0008091DA0E9091DB0E892B09F459C08FEFA2
:1033E00083871486138214821582168217821086B0
:1033F0001186128662E879E186EF9CE00E94E4FA89
:1034000086EF9CE00E947EF9BE016E5E7F4F809148
:10341000CD0E9091CE0E0F9402121816CCF5A895F1
:10342000AE014F5F5F4F68E0CE0142960F94621489
:10343000198ABE016F5F7F4F8091DA0E9091DB0E8B
:103440000E941BC88C016DE779E186EF9CE00E9429
:10345000E4FABE016F5F7F4F86EF9CE00E94CEFAD8
:103460000115110591F0C8010E9467988C01892B04
:1034700059F268E779E186EF9CE00E94E4FAB8012E
:1034800086EF9CE00E94CEFABBCF63E779E1B4CF30
:1034900088EC90E069960FB6F894DEBF0FBECDBF02
:1034A000DF91CF911F910F9108950F931F93CF93A9
:1034B000DF9300D000D0CDB7DEB70E94899A6DECC3
:1034C00076E186EF9CE00E94E4FA03ED14E01A83B3
:1034D00009831B821C821D821E82CE0103960F94DB
:1034E000F60DCE0101960E94FC951A830983809106
:1034F000060B9091070BA091080BB091090B8B83E1
:103500009C83AD83BE83CE0101960E94FC951A83F5
:1035100009831B821C821D821E8224E030E0AE01E2
:103520004D5F5F4F60E081E090E00F942501CE0198
:1035300001960E94FC951A8309831B821C821D82BE
:103540001E8224E030E0AE014D5F5F4F60E085E019
:1035500090E00F942501CE0101960E94FC9563EF47
:1035600076E186EF9CE00E94E4FA88EC90E02696F3
:103570000FB6F894DEBF0FBECDBFDF91CF911F9184
:103580000F910895CF92DF92EF92FF920F931F93C6
:10359000CF93DF9300D000D0CDB7DEB780918509FF
:1035A0008111A4C08091D60E9091D70E02970CF491
:1035B0009DC080917E0990917F09009709F496C083
:1035C00064EF74E00E941BC88C01009709F48EC060
:1035D0000E9424C9E82EF12CE114F10409F486C0FC
:1035E00070E060E0C8010E9446186C01EA94EF2880
:1035F00009F48BC061E0C8010E9493C8FC010185F9
:10360000128583ED94E09A8389831B821C821D823C
:103610001E82CE0103960F94F60DCE0101960E94F4
:103620009BD36FE972E186EF9CE00E94E4FAB60159
:1036300086EF9CE00E94CEFA67EB77E086EF9CE095
:103640000E94CEFA4AE050E0B80186EF9CE00E946A
:1036500085FA67EB77E086EF9CE00E94CEFA67E49C
:103660007AE086EF9CE00E94CEFA86EF9CE00E9412
:103670007EF962E072E085EC9DE00F94DB06D0926B
:10368000BB0DC092BA0D1093BD0D0093BC0D87E425
:103690009AE0892BE9F582EF94E09093BF0D809337
:1036A000BE0D8091780990917909009741F070E002
:1036B00060E00E9446189093870980938609809164
:1036C000860990918709009731F19093C10D8093FD
:1036D000C00D1092C30D1092C20D81E08093850938
:1036E00066E872E186EF9CE00E94E4FA26960FB647
:1036F000F894DEBF0FBECDBFDF91CF911F910F9128
:10370000FF90EF90DF90CF90089502E012E079CF24
:1037100087E49AE0C2CF8BEC93E0D7CFEF92FF9291
:103720000F931F93CF93DF930097C1F0FC0120818B
:103730002223A1F08C0189E9E82E8DE0F82EC1E06A
:10374000D0E0B701C8010F94A321892B49F021963D
:10375000F5E0EF0EF11CCE30D10599F7D0E0C0E0D6
:10376000CE01DF91CF911F910F91FF90EF900895BF
:10377000CF92DF92EF92FF920F931F93CF93DF933D
:10378000CDB7DEB7C154D1090FB6F894DEBF0FBE76
:10379000CDBF6C01AB0130E020E060E4CE010196CA
:1037A0007C010E946895F70101900020E9F73197AC
:1037B0008F010E191F09A801B701C6010F94E62D4C
:1037C000892B11F010E000E0C801CF5BDF4F0FB68E
:1037D000F894DEBF0FBECDBFDF91CF911F910F9147
:1037E000FF90EF90DF90CF900895CF92DF92EF920D
:1037F000FF920F931F93CF93DF93CDB7DEB7C054E3
:10380000D1090FB6F894DEBF0FBECDBF8091D60EA2
:103810009091D70E059709F449C06115710509F417
:1038200045C069017A018B0140E450E0CE01019668
:103830000F94F42D6FE270E0CE0101960F94BB2D32
:10384000892B41F4980143E050E060E4CE010196F9
:103850000E9468954FE350E0B601CE0101960F94A7
:10386000D62D0E9439C8882309F18091D60E9091F7
:10387000D70E0697D9F48091D10E811117C0B701E8
:10388000CE0101960E94ACDA81E090E0C05CDF4F8F
:103890000FB6F894DEBF0FBECDBFDF91CF911F9161
:1038A0000F91FF90EF90DF90CF90089590E080E02F
:1038B000EDCFCF92DF92EF92FF920F931F93CF93B2
:1038C000DF93CDB7DEB760970FB6F894DEBF0FBEBB
:1038D000CDBF7C016B01CA01B9012AE0AE014F5F87
:1038E0005F4F0F944722D701ED91FC910288F38935
:1038F000E02D9801AE014F5F5F4FB601C7011995EA
:1039000060960FB6F894DEBF0FBECDBFDF91CF91AA
:103910001F910F91FF90EF90DF90CF900895CF927D
:10392000DF92EF92FF920F931F93CF93DF93CDB768
:10393000DEB760970FB6F894DEBF0FBECDBF7C0137
:103940006B01BA01A901CE0101960E945296D701DE
:10395000ED91FC910288F389E02D9801AE014F5F53
:103960005F4FB601C701199560960FB6F894DEBF98
:103970000FBECDBFDF91CF911F910F91FF90EF90C0
:10398000DF90CF9008951F93CF93DF93FC01162F04
:10399000C389D489818992899C012F5F3F4F328BE3
:1039A000218BC80FD91FCE010F94BC28181721F006
:1039B000612FCE010F94C42881E090E0DF91CF9178
:1039C0001F910895FC01818992892485358582178C
:1039D000930740F423893489820F931F0F94BC28E6
:1039E00090E008958FEF9FEF0895CF93DF9300D07D
:1039F00000D01F921F92CDB7DEB7FC01628398E022
:103A0000DE01119601900D929A95E1F729813A8194
:103A10004B815C816D817E818F81988528960FB660
:103A2000F894DEBF0FBECDBFDF91CF910895CF9345
:103A3000DF9300D000D01F921F92CDB7DEB7FC01FC
:103A4000608398E0DE01119601900D929A95E1F75E
:103A500029813A814B815C816D817E818F8198853E
:103A600028960FB6F894DEBF0FBECDBFDF91CF9181
:103A700008952F923F924F925F926F927F928F9212
:103A80009F92AF92BF92CF92DF92EF92FF920F93ED
:103A90001F93CF93DF93CDB7DEB7A0970FB6F894FF
:103AA000DEBF0FBECDBF8C01662E6A01DC018D9199
:103AB0009C911197892B09F46AC01596ED91FC91A0
:103AC000309709F464C080818071BFEF6B1361C0CF
:103AD000D1F481E0A0960FB6F894DEBF0FBECDBF43
:103AE000DF91CF911F910F91FF90EF90DF90CF90DA
:103AF000BF90AF909F908F907F906F905F904F900E
:103B00003F902F9008954330510519F361806294DE
:103B10002FE0622264EF78E087EA9DE00E94E4FAF9
:103B20004AE050E0D80113966C9187EA9DE00E942C
:103B30009BF962EF78E087EA9DE00E94E4FAD80101
:103B40001596ED91FC9161816F704AE050E087EA33
:103B50009DE00E949BF96FEE78E087EA9DE00E946D
:103B6000E4FA4AE050E0662D87EA9DE00E949BF966
:103B700087EA9DE00E947EF9D8011596ED91FC91AF
:103B800081818F70681207C080818F7E808380E082
:103B9000A1CF8111FCCF198E1A8E1B8E1C8E1D8E0B
:103BA0001E8E1F8E18A28A8D807F8A8FD80115964F
:103BB000ED91FC9181818F708615A9F1B3E0CB1650
:103BC000D10489F16DEE78E087EA9DE00E94E4FA85
:103BD0004AE050E0F801638187EA9DE00E949BF98A
:103BE0006BEE78E087EA9DE00E94E4FAD801159632
:103BF000ED91FC9161816F704AE050E087EA9DE0B1
:103C00000E949BF968EE78E087EA9DE00E94E4FA62
:103C10004AE050E0662D87EA9DE00E949BF987EA22
:103C20009DE00E947EF9F80120813181FCE0F615CB
:103C300008F41DC1E62DF0E08827EE5DF14E8F4FB0
:103C40000D9459292F1E6C1EF41E0B1F171FF41EF6
:103C5000CD1EF41E1A1F251FE11E281F341FD80178
:103C60001596ED90FC90F70181818F70853009F4F5
:103C7000FEC050F48230C1F069E075E0C9010E94D5
:103C80001BC82C01712C4BC08730D1F08A30A1F7B2
:103C900062E075E0C9010E941BC82C01D7017C902D
:103CA00072FA772470F83BC06CEF74E0C9010E948F
:103CB0001BC82C01D7017C9070FA772470F82FC0B4
:103CC0006BEF74E0C9010E941BC82C01F7017080E2
:103CD00071FA772470F823C06EE075E0C9010E9484
:103CE0001BC82C01D8011596ED91FC91808180FBB9
:103CF000772470F8982F9E7F80FF91609083411405
:103D0000510469F461E0CE0149960E94171D298B88
:103D10003A8B4B8B5C8B6D8B7E8B8F8B988FF801E6
:103D2000E080F18064E475E0C7010E941BC81C01BB
:103D300069E475E0C7010E941BC85C016EE475E090
:103D4000C7010E941BC84C01A114B10481F42114C5
:103D5000310469F460E0CE0149960E94171D298361
:103D60003A834B835C836D837E838F839887D801EE
:103D70001596ED91FC914114510409F07CC0898D98
:103D8000811179C0B62DBF706B2E8181807F682A2A
:103D9000618280818F7E80839CCE63E175E0C90162
:103DA0000E941BC82C01D8011596ED91FC918081D1
:103DB00081FB772470F8982F9D7F81FF926090831C
:103DC000AECF69E175E0C9010E941BC82C01D80182
:103DD0001596ED91FC91808182FB772470F8982FE5
:103DE0009B7F82FF9460EBCF69E075E0C9010E9480
:103DF0001BC82C01892B09F045CF62E0CE01499602
:103E00000E94171D29873A874B875C876D877E87BD
:103E10008F87988B37CF6FE175E0C9010E941BC86F
:103E20002C01D8011596ED91FC91708045CF64E28C
:103E300075E0F3CF6AE275E0C9010E941BC82C014E
:103E4000D8011596ED91FC9142CF60E375E0F4CF77
:103E500067E375E0C9010E941BC82C01D8011596C3
:103E6000ED91FC9170801CCF6DE375E0F3CF712C68
:103E7000512C412C54CF83E0C816D104C1F0962DAB
:103E80009F70692E8181807F682A618280818F7E08
:103E900080836101E98CFA8C0B8D1C8D2D8D3E8DFC
:103EA0004F8D58A1672DC2010E94C09B12CE818107
:103EB0008F70861509F40DCE629490EF6922682AFE
:103EC00061828081806167CF7F928F929F92AF9253
:103ED000BF92CF92DF92EF92FF920F931F93CF93F7
:103EE000DF93EC014B01809167098F5F8093670935
:103EF000AB016FEFCE010E94391D8A8181FB002743
:103F000000F91B819AEC910F903110F08730E1F5A8
:103F100062E575E0888199810E941BC87C01009749
:103F200099F1FC0180858F70853071F58091E60DE7
:103F300018131DC08091E70D8034C9F48091E80DFD
:103F40009091E90D5C01990FCC08DD0860E0C70194
:103F50000E9493C8FC0181859285A385B485A8162B
:103F6000B906CA06DB060CF05CC0712C37C0109392
:103F7000E60D80E48093E70D812F0E9476D8909320
:103F8000E90D8093E80DDECF212F30E0F901EC56EA
:103F9000F64D8491F901E25BF64D1491F901E85F69
:103FA000F64DF490FF2009F439C081110E94CED65D
:103FB000EF2DF0E0EE0FFF1FE255F44DA591B49107
:103FC000EC911E2331E020E009F430E0832F922FA2
:103FD000772473940817190609F0C7CFF3E08F16FA
:103FE000910409F47EC0ED81FE81E181EF70E15022
:103FF000EC3008F076C0F0E08827EE5FFF4D8F4F81
:104000000D94592922207D21542085207D219C203A
:104010007D21CC20F4200B214721662190E080E017
:10402000D7CF61E0C7010E9493C877247394FC0145
:1040300081859285A385B4858A159B05AC05BD0550
:104040006CF693CF0E94DED99B01AC014427552723
:10405000ED81FE816281738190E080E0AA24AA94C0
:10406000BA2CC12CD12C18EEE12E13E0F12E00E079
:1040700010E00F9400148823A1F1088119816FE1E9
:1040800075E0C8010E941BC8892B41F464E275E009
:10409000C8010E941BC8892B09F4F6C0A40163E083
:1040A000CE010E94391D1DC00E94DED99B01AC01CA
:1040B00044275527ED81FE816281738190E080E085
:1040C000AA24AA94BA2CC12CD12C1CE2E12EFF24E4
:1040D000F39400E010E00F940014A40164E0811157
:1040E00079C0ED81FE81808183FB992790F9971536
:1040F00009F4BDC1982F907E09F41EC1982F907EBF
:1041000090528F71892B808339C10E94DED99B0127
:10411000AC0144275527ED81FE816281738190E0D7
:1041200080E0AA24AA94BA2CC12CD12C16E9E12E45
:10413000F12C00E010E0CFCF0E94DED99B01AC0152
:1041400044275527ED81FE816281738190E080E0F4
:10415000AA24AA94BA2CC12CD12C18EEE12E13E07B
:10416000F12E00E010E00F940014882309F4B9CF79
:10417000088119816AE275E0C8010E941BC8892B79
:1041800041F460E375E0C8010E941BC8892B09F463
:104190007BC0A40168E084CF0E94DED99B01AC0102
:1041A00044275527ED81FE816281738190E080E094
:1041B000AA24AA94BA2CC12CD12C1CE2E12EFF24F3
:1041C000F39400E010E00F940014A40169E0882348
:1041D00009F487CFCE010E94391D0E94DED9ED81FE
:1041E000FE81738362837DCF0E94DED99B01AC0187
:1041F00044275527ED81FE816281738190E080E044
:10420000AA24AA94BA2CC12CD12C16E9E12EF12CA7
:1042100000E010E0D8CF0E94DED99B01AC0144271A
:104220005527ED81FE816281738190E080E0AA24B0
:10423000AA94BA2CC12CD12C18EEE12E13E0F12E49
:1042400000E010E00F940014882309F44ACF08819D
:10425000198167E375E0C8010E941BC8892B39F4F6
:104260006DE375E0C8010E941BC8892B19F0A401F9
:104270006BE016CF69E175E0C8010E941BC8A4017C
:1042800066E0892B09F40CCFA4016DE009CF0E94F0
:10429000DED99B01AC0144275527ED81FE81628167
:1042A000738190E080E0AA24AA94BA2CC12CD12C6E
:1042B0001CE2E12EFF24F39400E010E00F940014C0
:1042C000882309F40ECFA4016CE084CF0E94DED9CC
:1042D0009B01AC0144275527ED81FE8162817381EA
:1042E00090E080E0AA24AA94BA2CC12CD12C16E923
:1042F000E12EF12C00E010E0E1CF0E94DED99B011D
:10430000AC0144275527ED81FE816281738190E0E5
:1043100080E0AA24AA94BA2CC12CD12C18E5E12E55
:1043200012E0F12E00E010E00F940014882309F44D
:10433000D8CEA40160E0B4CE0E94DED9ED81FE812A
:1043400073836283E181EF70772009F44EC0E2301D
:1043500041F148F4EE2309F445C0ED81FE818081EE
:1043600070FA83F9D0CEE530E1F0A4016AE0E730DD
:10437000A1F7CE010E94391D8111EFCF809167090D
:10438000815080936709DF91CF911F910F91FF902A
:10439000EF90DF90CF90BF90AF909F908F907F90E5
:1043A00008950881198163E175E0C8010E941BC866
:1043B000892BA9F46AE275E0C8010E941BC8892B09
:1043C00071F460E375E0C8010E941BC8892B39F4C1
:1043D0006BEF74E0C8010E941BC8892B19F0A4017F
:1043E00066E0C7CFA40161E0C4CFE150ED3008F032
:1043F000B4CFF0E08827E050FE4D8F4F0D9459293F
:104400000D22AD2110221022AD211322AD21342224
:1044100034223422342234221022A40162E0A9CFB3
:10442000A40165E0A6CF0881198163E175E0C801A8
:104430000E941BC8892BA9F46AE275E0C8010E949A
:104440001BC8892B71F460E375E0C8010E941BC88A
:10445000892B39F46BEF74E0C8010E941BC8892BCB
:1044600019F0A40167E085CFA40160E082CF8F71CD
:10447000806449CECF93DF9300D000D01F921F926B
:10448000CDB7DEB7FC019181907F9B60918344831F
:1044900055836683778388E0DE01119601900D9243
:1044A0008A95E1F729813A814B815C816D817E811A
:1044B0008F81988528960FB6F894DEBF0FBECDBFCA
:1044C000DF91CF910895CF93DF9300D000D01F925A
:1044D0001F92CDB7DEB7FC016F3F710519F014F0E4
:1044E0006FEF70E077FD60E09181892F8F708150D0
:1044F0008230C8F4648388E0DE01119601900D9249
:104500008A95E1F729813A814B815C816D817E81B9
:104510008F81988528960FB6F894DEBF0FBECDBF69
:10452000DF91CF910895907F91609183E3CFCF93F6
:10453000DF93CDB7DEB760970FB6F894DEBF0FBE3E
:10454000CDBF19821A821B821C821D821E821F828D
:1045500018868A81807F8A836FEF70E0CE01019692
:104560000E94632260960FB6F894DEBF0FBECDBFE7
:10457000DF91CF910895CF92DF92EF92FF92DC010D
:10458000362F1196EC911197EF70EC3008F0B6C011
:10459000F0E08827E153FD4D8F4F0D945929812379
:1045A000072307237E237E237E234C230E237E2393
:1045B0007E23DB22DB2214968D919D910D90BC9180
:1045C000A02D662399F0B7FD9FC08F3F9105A105EF
:1045D000B10529F024F08FEF90E0A0E0B0E02FEFDC
:1045E00030E0A901481B590BCA010CC0B7FD89C0B6
:1045F0008F3F9105A105B10529F024F08FEF90E0E0
:10460000A0E0B0E0FF90EF90DF90CF900895149677
:104610002C91822F90E06623A9F3E1CF1496CD90E0
:10462000DD90ED90FC901797662301F120E030E0DB
:10463000A901C701B6010F94982787FD65C020E046
:1046400030E04FE753E4C701B6010F94A02A1816D3
:104650000CF457C0A701960160E070E08FE793E487
:104660000F948B290F946A2ACB01CCCF20E030E045
:10467000A901C701B6010F94982787FD42C020E029
:1046800030E04FE753E4C701B6010F94A02A181693
:10469000DCF1C701B601E6CF14966D917D918D9145
:1046A0009C9117973323B1F06D395FEF750785073C
:1046B000950754F1611524E67207810591050CF503
:1046C0002CE93FEF4FEF5FEF0F940429C9018150B0
:1046D0009F4F98CF6D394FEF7407840794078CF084
:1046E000611554E675078105910574F424E630E000
:1046F00040E050E00F940429C90184CF8FEF9FEF71
:1047000081CF90E080E07ECF8FEF90E07BCFCF93A2
:10471000DF93EC01DB0189818F708630E1F128F4B1
:1047200081508230C8F080E014C0873009F18A508F
:104730008230C8F72FEF30E00F94702924E630E084
:1047400040E050E00F9404292C833D834E835F8327
:1047500081E0DF91CF9108952FEF30E00F94702921
:1047600024E630E040E050E00F9404292C83F0CFA1
:104770002FEF30E00F94702924E630E040E050E065
:104780000F940429CA01B9010F949F276C837D837C
:104790008E839F83DDCF2CE933E60F94702924E6C6
:1047A00030E040E050E00F9404292C833D834E8399
:1047B0005F83B9CFDC011196EC911197EF70E15056
:1047C000EB3008F039C0F0E08827E651FC4D8F4F00
:1047D0000D9459290D240D241C24F523F523FE23C3
:1047E000152415241524F523F52314966D917D9138
:1047F0008D919C9117970F949F27089514966D9112
:104800007D918D919C91179724E630E040E050E037
:104810000F940429CA01B901EECF14966C9170E08F
:1048200090E080E00F949D27089514966D917D91FE
:104830008D919C911797089560E070E0CB010895E9
:10484000DC011196EC911197EF70E150EB3008F01C
:1048500037C0F0E08827E05DFB4D8F4F0D9459295C
:104860004224422460243B243B24512448244824ED
:1048700048243B243B2414966D917D918D919C910D
:104880001797089514966C9170E090E080E0089579
:1048900014966D917D918D919C9117970F946A2A32
:1048A000089514966D917D918D919C91179724E6B2
:1048B00030E040E050E00F940429CA01B9010895A6
:1048C00060E070E0CB0108958F929F92AF92BF920B
:1048D000CF92DF92EF920F931F93CF93DF9300D08D
:1048E00000D01F921F92CDB7DEB7FC0109831A8357
:1048F0002B833C834D835E836F8378878281938192
:104900000097A1F490E080E028960FB6F894DEBFFF
:104910000FBECDBFDF91CF911F910F91EF90DF9030
:10492000CF90BF90AF909F908F9008958F010E947D
:1049300024C9C82ED12C86E0C816D10464F40E9484
:10494000F5CDBC01F801828193810E9402CEFFEF78
:10495000CF1ADF0AF0CF65E0F801828193810E94CF
:1049600093C88C01892B71F28981803158F6CE0170
:1049700001960E942024161617061806190644F4FC
:10498000F8018085982F9D70A1F08F70873089F095
:10499000F80180858F70808761E479E087EA9DE087
:1049A0000E94E4FA87EA9DE00E947EF981E090E0AF
:1049B000ABCF0E94DED94B015C01CE0101960E9473
:1049C0002024860E971EA81EB91EF80181869286A5
:1049D000A386B48682E0E11087E099819295907F6A
:1049E000892BF801808766E379E087EA9DE00E94E1
:1049F000E4FACE0101960E942024AB01BC012AE01A
:104A000030E087EA9DE00E943DFA60E379E087EAC2
:104A10009DE00E94E4FAF801418552856385748522
:104A20002AE030E087EA9DE00E943DFABBCFDC013E
:104A30001196EC911197EF70E150EB3008F03EC009
:104A4000F0E08827E95DFA4D8F4F0D9459293D25F7
:104A50003D255E2532253225572548254825482500
:104A60003225322514962D913D914D915C911797E9
:104A7000A4E6B0E00F942329089514966C9184E67F
:104A8000689FB0011124072E000C880B990B089524
:104A900020E030E048EC52E414966D917D918D91C8
:104AA0009C9117970F94FE270F946A2A08951496E5
:104AB0006D917D918D919C911797089560E070E0C4
:104AC000CB010895FC01A7812A2F2E7FC9F0818197
:104AD0008F7081508330A0F4A695A150BB0B2BE5BD
:104AE00031E00F94702924E630E040E050E00F946C
:104AF0000429DA01C90187569F4FAF4FBF4F089570
:104B00008FEF9FEF08952F923F924F925F926F9297
:104B10007F928F929F92AF92BF92CF92DF92EF924D
:104B2000FF920F93CF93DF9300D01F92CDB7DEB7E4
:104B30007C017A8369835C834B83DB011C92FC01DB
:104B40006081662309F44BC030FF49C0F9E06F9FD4
:104B5000B00111246F537F4ECD010F94DA21D7019C
:104B600011968C918F7041F04B815C816EEF76E0F5
:104B700089819A810F94D62DE981FA8101900020D4
:104B8000E9F7319729813A81E21BF30B19012E0EC7
:104B90003F1E4B815C814E1B5F0B415051095C8372
:104BA0004B83D7011196EC911197EF7009F4F5C082
:104BB000E150EC3008F0F1C0F0E08827ED51FA4DFB
:104BC0008F4F0D945929F2259526022761277C27BE
:104BD00040261227122712272E26162698272980CC
:104BE0003A80DFCFF7018481282F30E050E040E0A9
:104BF000002359F030E0A4E6B0E00F9436292FEFFF
:104C000030E040E050E00F9404295F934F933F93CE
:104C10002F9386E595E09F938F93FC81FF932B81E3
:104C20002F933F922F920F940E2EB2C017968C9115
:104C300017978F9316968C9116978F9315968C9144
:104C400015978F9314968C918F9389E595E09F9398
:104C50008F93BC81BF93EB81EF93E3CF17968C9139
:104C600017978F9316968C9116978F9315968C9114
:104C700015978F9314968C918F938DE595E0E7CFE0
:104C80001496CD90DD90ED90FC901797F7FE34C010
:104C900084E6882E912CA12CB12CC701B601A50168
:104CA00094010F9404299B01AC0188279927DC010A
:104CB000821B930BA40BB50BBF93AF939F938F9362
:104CC00066277727CB016C197D098E099F09A501FD
:104CD00094010F9404295F934F933F932F9381E6A0
:104CE00095E09F938F933C813F934B814F933F92ED
:104CF0002F920F940E2E4CC0C701B60124E630E06F
:104D000040E050E00F9404299F938F937F936F931B
:104D10005F934F933F932F9382E695E09F938F93FA
:104D20009C819F93AB81AF93E2CFC7010E94622524
:104D3000BC01D7011696CC9016971796DC90179762
:104D4000D0FADD24D0F814969C9114971596FC9017
:104D5000EB80BC80292F30E050E040E077FD35C08B
:104D6000011135C07F936F931F921F921F929F93E3
:104D70001F92FF92DF92CF928BE695E09F938F93E5
:104D8000FC81FF932B812F933F922F920F940E2E35
:104D90000FB6F894DEBF0FBECDBF89819A810F9008
:104DA0000F900F900F90DF91CF910F91FF90EF90A8
:104DB000DF90CF90BF90AF909F908F907F906F903B
:104DC0005F904F903F902F900895002361F0292F1E
:104DD00030E0A4E6B0E00F9436292FEF30E040E059
:104DE00050E00F9404295F934F933F932F931F92AA
:104DF000FF92DF92CF928EE695E09F938F93BF92C2
:104E0000EF9275CF15968C9115971F928F931696EA
:104E10009C91169717968C9181708F939F9381E741
:104E200095E015CF14968D909D90AD90BC901797FE
:104E300020E030E0A901C501B4010F9498272401B6
:104E4000350187FF04C077FA709477F87094C30136
:104E5000B2010F946A2A6B01072E000C880B990B84
:104E60000F949F279B01AC01C301B2010F948B29C2
:104E700020E030E04AE754E40F94FE270F94F52A2F
:104E80000F946A2A062F772E20E030E0A901C50191
:104E9000B4010F94982787FF07C07F920F93DF928A
:104EA000CF9287E795E0D3CE7F920F93DF92CF9298
:104EB00088E795E09F938F933C813F934B814F937D
:104EC000B0CE14968C9114971F928F9315968C9157
:104ED00015971F928F9316968C911F928F938EE643
:104EE00095E09F938F93BC81BF93EB81EF933F92AB
:104EF0002F920F940E2E4CCF17968C9117971F92CE
:104F00008F9314968C9114971F928F9315968C9172
:104F100015971F928F9316968C911F928F938BE605
:104F200095E09F938F93BC81BF93EB81EF93DFCE8E
:104F300014966D917C914B815C81C1010F94F42D8D
:104F40002CCFEF92FF920F93CF93DF93CDB7DEB7C5
:104F5000A0970FB6F894DEBF0FBECDBF7C0100E076
:104F600020E033E040E250E0BE016F5F7F4F0E94DF
:104F70008325BE016F5F7F4F87EA9DE00E94CEFAD6
:104F800069EA71E187EA9DE00E94E4FAF701618134
:104F90006F704AE050E087EA9DE00E949BF962EA68
:104FA00071E187EA9DE00E94E4FA4AE050E0F701EF
:104FB000628187EA9DE00E949BF987EA9DE00E945A
:104FC0007EF9A0960FB6F894DEBF0FBECDBFDF917D
:104FD000CF910F91FF90EF900895CF93DF93EC0165
:104FE0006115710539F48F8181708F8381E0DF91C4
:104FF000CF9108958981982F9F7029F180E0943096
:10500000B0F79B01770F440B550B29593109410922
:105010005109A4E6B0E00F9423292BE531E040E0EC
:1050200050E00F94042937FF02C030E020E025361D
:10503000310514F024E630E02F5F220F8F8181705C
:10504000282B2F83D3CF807F82608983DACF2F9262
:105050003F924F925F926F927F928F929F92AF9208
:10506000BF92CF92DF92EF92FF920F931F93CF9355
:10507000DF93CDB7DEB768970FB6F894DEBF0FBEEB
:10508000CDBF6C0109871A872B873C874D875E87C8
:105090006F87788B22E1E216F10480F5F701EC5E70
:1050A000FB4F3081398BCE0109960E94622597FD16
:1050B00004C0BC01C6010E94ED278B85D601129663
:1050C0008C93129789858C931196EC911197EF70C0
:1050D000EC3008F06CC0F0E08827EE58F74D8F4FA9
:1050E0000D945929D5299B289B281C2A80289A2A67
:1050F000E829262A262A262AE829E829198AD3CF48
:10510000F12C9A859F709D3008F0BBC4E92FF0E028
:105110008827E257F74D8F4F0D945929D728D22A67
:10512000F22AD22A9D2A9D2AD22AD22A412D412D05
:10513000D22AD22AA3299A859F709D3008F013C1E4
:10514000E92FF0E08827E855F74D8F4F0D94592946
:10515000D72881297429CD28B828B528582983292A
:10516000B329B32942294229A3298889F6018783D3
:105170008F85D60116968C9316978E8515968C93EF
:1051800015978D8514968C93149711968C91119781
:10519000807F892B11968C930AC08F859889F601A0
:1051A0008683878190FB80F987838E858583B98983
:1051B000BB2309F464C0F60181818F702B2F30E08E
:1051C0008217130609F45BC06FE270E187EA9DE085
:1051D0000E94E4FAD60111966C916F704AE050E09B
:1051E00087EA9DE00E949BF96CE270E187EA9DE00E
:1051F0000E94E4FA4AE050E0698987EA9DE00E9453
:105200009BF96AE270E187EA9DE00E94E4FAF60108
:10521000008119821A821B821C821D821E821F82BB
:10522000188689898F709A81907F892B8A83098358
:10523000EE24EA94FE2C1181228133814481558130
:1052400066817781CE0101960E942728D6012C9392
:1052500011963C93119712964C93129713965C9368
:10526000139714966C93149715967C93159716962E
:105270008C93169717969C93C6010E94A12788E0ED
:10528000F60169C18D859E85AF85B889B7FD0EC0D1
:105290008F3F9105A105B10529F024F08FEF90E033
:1052A000A0E0B0E0D60114968C9381CF80E0FACFD5
:1052B0006D857E858F85988920E06D39BFEF7B07EE
:1052C0008B079B076CF02FEF6115E4E67E078105E5
:1052D000910534F424E630E040E050E00F940429D6
:1052E000D60114962C9363CF8F859889F601868317
:1052F000878190FB80F987838E8585838D85848364
:1053000056CF8D85CFCF8D849E84AF84B88820E022
:1053100030E0A901C501B4010F94982760E087FD32
:105320000FC020E030E04FE753E4C501B4010F9413
:10533000A02A6FEF181624F0C501B4010F94712A4A
:10534000F601648334CFD60111968C911197807F3A
:105350008C6011968C9311978D859E8515969C93E4
:105360008E93149724CF6FEA70E187EA9DE00E9444
:10537000E4FA6A856F704AE050E087EA9DE00E9497
:105380009BF96CEA70E187EA9DE00E94E4FAF6017D
:1053900061816F704AE050E087EA9DE00E949BF9CE
:1053A00087EA9DE00E947EF902CF9A859F70119650
:1053B0008C911197807F892B11968C938D859E857A
:1053C000AF85B889F60184839583A683B783EFCE32
:1053D0009A859F70933089F09C3009F4B4CF4D8545
:1053E0005E856F857889F60144835583668377836C
:1053F0008181807F892B8183DACE60E0C6010E94A3
:10540000BB22D60114968C9314978F859889169693
:105410008C93169717968C91179790FB80F9179697
:105420008C9317978E8515968C93159711968C9162
:105430001197807F8260AECE60E0CE0109960E9417
:10544000BB22D60114968C931497F0CF9A859F7047
:105450009D3008F057C0E92FF0E08827ED5CF54D4E
:105460008F4F0D945929D7284D2A7A2AFD297A2A57
:105470007A2A402A6C2A6C2A6C2A5B2A672AA3297A
:105480008D859E85AF85B889F60184839583A68333
:10549000B7838181807F8660AECF6D8570E090E0BC
:1054A00080E00F949D27D60114966D937D938D9384
:1054B0009C9317977CCE6D857E858F8598890F94F8
:1054C0009F27F601648375838683978370CE6D85ED
:1054D0007E858F859889E5CFF6018181807F982B25
:1054E00091838D859E85AF85B88984839583A683B6
:1054F000B7835DCE11968C911197807F982B119672
:105500009C935CCF6AE970E187EA9DE00E94E4FA2F
:105510006A856F704AE050E087EA9DE00E949BF93F
:1055200067E970E187EA9DE00E94E4FAD6011196EE
:105530006C912FCFFF24F394E4CD4D855E856F856C
:105540007889F60144835583668377838181807FE0
:10555000982B918388E0DE01119601900D928A9537
:10556000E1F729813A814B815C816D817E818F8158
:10557000988568960FB6F894DEBF0FBECDBFDF9159
:10558000CF911F910F91FF90EF90DF90CF90BF9040
:10559000AF909F908F907F906F905F904F903F90D3
:1055A0002F900895963009F43BC148F46D859130F1
:1055B00071F06FEF70E0933051F060E008C0973009
:1055C00009F43AC19A506D857E859230B0F784E631
:1055D0008F8788898E7F888B1E868A85807F8260F0
:1055E0008A876D872E8530E0AFEFB0E00F943629C3
:1055F000812C912C54018A946115F4E67F07810572
:10560000910544F424E630E040E050E00F94042992
:1056100049015A0114012D852A8B022F10E0FF2029
:1056200009F474C088898695A82FA150BB0B7D0111
:10563000BFEFEB16FB0609F01FC1E0E88E169104E0
:105640000CF001C18FE790E088199909809FD00183
:10565000819FB00D909FB00D11242FEF30E00F947B
:10566000702921E83EE740E050E00F940429D6017C
:1056700017962C93ABE9B0E0A50194010F94232970
:105680003FE7432E512C612C712CA30192010F9402
:1056900004292C593F4F4F4F5F4F1901AEEFB1E036
:1056A000A50194010F942329A30192010F940429C9
:1056B000D8010F9423292FEF30E040E050E00F9401
:1056C000042989012F3F310519F014F00FEF10E084
:1056D0006AE870E187EA9DE00E94E4FA4AE050E05F
:1056E000B10187EA9DE00E9485FA6CE770E187EAE4
:1056F0009DE00E94E4FA4AE050E0B80187EA9DE0AC
:105700000E9485FA87EA9DE00E947EF9E8E0F9E2CE
:10571000E491F0E0EE0FFF1FE251F74D8591949177
:10572000EEE4F9E2E4912F8538893170AFEFBFEFF5
:105730000F9436292DE631E040E050E00F94042923
:1057400044275527AAEFB5E00F942329DC01CB01AC
:105750009058AF4FBF4FCD01BB2797FDB095AB2FF2
:105760008E3FE1E09E0708F065C1382F8F3F91051D
:1057700008F482C14EEF481B50E03FEF0F5F1F4F10
:10578000F101FF2731962094312C3E9FC0013F9FAD
:10579000900D1124292F3327220D331DD8010F948A
:1057A00070294B015C018824AA24BB245E9F9001D0
:1057B0005F9F300D1124232F3327220D331D0F94AB
:1057C0007029BB27A92F982F872F882A992AAA2AC0
:1057D0004E9F90014F9F300D1124232F3327220D10
:1057E000331DD8010F947029B82FA72F962F882723
:1057F00088279927BB2788299929AA29F601A683F2
:105800009583848360E570E187EA9DE00E94E4FA75
:10581000C6010E94A12760E080E00E9463D7C7CC48
:105820006D857E858F85988924E630E040E050E0E4
:105830000F940429B901CBCE6D857E858F8598891B
:105840000F946A2AC4CEA501940120583109410958
:105850005109ABE9B0E00F9423292FE730E040E095
:1058600050E00F9404292C593F4F4F4F5F4F1901BF
:10587000D60117961C922CCF9701AAEBBFEF0F947D
:10588000682924E630E040E050E00F940429290123
:105890003A01B4E64B0E511C611C711C26E430E049
:1058A000D7010F94702924E630E040E050E00F94D7
:1058B0000429DA01C9014E96A11DB11D8D8B9E8B65
:1058C000AF8BB88F90E8891691040CF098C08FE7E1
:1058D00090E088199909809FD001819FB00D909F19
:1058E000B00D11242D893E894F89588D0F942E2992
:1058F0009B01AC01AFEFB0E00F94232924E63AE618
:1059000040E050E00F940429D60117962C93A5018E
:105910009401240D351D461D571DAEEFB1E00F94C7
:10592000232923EE30E040E050E00F940429790170
:105930008A013C8B2B8BAFEFB0E0A50194010F9453
:1059400023292FE730E040E050E00F9404291901AB
:10595000EA89AE2FB0E0A80197010F9423292FEF19
:1059600030E040E050E00F94042989012F3F3105D9
:1059700019F014F00FEF10E066E770E187EA9DE0A0
:105980000E94E4FA2AE030E0B301A20187EA9DE038
:105990000E943DFA60E770E187EA9DE00E94E4FA28
:1059A0002AE030E04D895E896F89788D87EA9DE035
:1059B0000E943DFA68E670E187EA9DE00E94E4FA01
:1059C0004AE050E0B10187EA9DE00E9485FA60E676
:1059D00070E187EA9DE00E94E4FA4AE050E0B801F5
:1059E00087EA9DE00E9485FA67E570E187EA9DE01D
:1059F0000E94E4FA4AE050E06B897C897FCEA501E1
:105A000094012058310941095109ABE9B0E00F94E4
:105A100023292FE730E040E050E00F9404292C596F
:105A20003F4F4F4F5F4F1901D60117961C921C8AAA
:105A30001B8AA2CF8C3FF3E09F0768F48D3F22E0E2
:105A4000920728F452E0580F3FEF40E097CE3CEF2A
:105A5000381B5FEFFACF8A3F35E0930781F08B3F29
:105A6000E4E09E0728F444E0480F5FEF30E086CE84
:105A70005AEF581B30E001C050E04FEF7FCE50E0AE
:105A8000F9CF6EE370E187EA9DE00E94E4FA6A854F
:105A90006F704AE050E087EA9DE00E949BF96BE35B
:105AA00070E140CDFC019181892F8F7021F082300F
:105AB00029F080E00895907F926091839B0177FFA9
:105AC00002C030E020E02E3681E0380714F02DE6E9
:105AD00031E02683878130FB80F9878381E0089558
