:100000000C94FC090C942D0A0C942D0A0C942D0AC6
:100010000C942D0A0C942D0A0C942D0A0C942D0A84
:100020000C942D0A0C942D0A0C942D0A0C942D0A74
:100030000C942D0A0C942D0A0C942D0A0C94C64F86
:100040000C942D0A0C942D0A0C942D0A0C942D0A54
:100050000C942D0A0C942D0A0C942D0A0C940875FE
:100060000C942D0A0C94086D0C94DE6C0C942D0AE3
:100070000C942D0A0C942D0A0C942D0A0C942D0A24
:100080000C942D0A0C942D0A0C942D0A0C942D0A14
:100090000C94CE6D0C943E6D0C94856D0C9443497C
:1000A0000C942D0A0C942D0A0C942D0A0C942D0AF4
:1000B0000C942D0A0C942D0A0C942D0A0C942D0AE4
:1000C0000C942D0A0C942D0A0C942D0A0C942D0AD4
:1000D0000C942D0A0C942D0A0C94A86C0C947E6C34
:1000E0000C942D0ACE0B830B910BCE0BCE0BDC0B9D
:1000F000EA0BC80BCE0BCE0BF90EFE0E030F0D0F45
:10010000170F900F210F290F310F3B0F450F4F0F86
:100110005E0F680F900F720F7C0F860F941186117F
:100120008611941194119811A611A611941194118D
:10013000A8168316C316C316C316C316C316C31652
:10014000C316C316C3160D13E0150116FA15EB15E9
:10015000C316C316C316C316C316C316C316971603
:10016000A41C981C981CA41CA41C7F1C8C1C8C1CFC
:10017000A41CA41CEA2BD72BD72BEA2BEA2BEA2BA7
:10018000F52BF52BEA2BEA2BEC2FEF2F07301E3047
:1001900067307A309A30C368C368C368C368C06880
:1001A000C068C768C768C768C768C768C768C768DE
:1001B000C768C068C068C768C768C768C768C768D5
:1001C000C568C368697265726572697269726972BD
:1001D00072723372697269724B744E743D744174F9
:1001E00047748574527456745C74607464746A7471
:1001F0006E747274857478747C748074076342368C
:10020000B79BD8A71A39685618AEBAAB558C1D3CA7
:10021000B7CC5763BD6DEDFD753EF6177231BF006B
:100220000000803F08000000BE922449123EABAAA5
:10023000AA2ABECDCCCC4C3E00000080BEABAAAA00
:10024000AA3E00000000BF000000803F0000000048
:1002500000084178D3BB4387D1133D190E3CC3BD81
:100260004282AD2B3E68EC8276BED98FE1A93E4C2E
:1002700080EFFFBE01C4FF7F3F00000000000C9430
:1002800047740C947F1C0C94BE5D0C9466470C94D0
:10029000C1690C946E470C9467300C94E7560C942B
:1002A00092530C94EB690C94DC4D0C94030F0C945A
:1002B00078740C94910B0C94774E0C94A8160C94B3
:1002C000276B0C94026B0C94EA0B0C94E72E0C94A5
:1002D0002B2E0C942F0A0C94B6570C94290F0C94C7
:1002E000A6110C94D5530C94EF2F0C94720F0C9410
:1002F00052740C94C3680C946A4B0C9442470C944F
:10030000C1530C946A740C94F8400C94450F0C94EF
:10031000860F0C948C1C0C9480330C947C0F0C94E2
:10032000FA150C9499540C94306F0C94722D0C9413
:100330001E300C94170F0C9472720C942D6F0C9449
:10034000EC2F0C94DC0B0C94D72B0C9463330C9493
:10035000A41C0C94E64D0C9464740C9461330C94BE
:100360007C460C94F90E0C948B550C9424540C94EC
:100370000D130C94CA530C949B470C94310F0C949E
:10038000C80B0C9407300C94AF410C9493530C940D
:10039000B1530C94FA690C9489580C94BA2E0C94AD
:1003A00085740C943B4E0C94680F0C940D0F0C94B8
:1003B0007A300C94EA400C9427530C9483160C94D6
:1003C000242E0C9430560C94C64D0C94900F0C9423
:1003D00033720C9456740C94342F0C94F2310C94A8
:1003E00098110C94830B0C94981C0C94BF2D0C94B6
:1003F0007C740C94521D0C94C5680C94B12D0C9413
:10040000EC400C9460740C94EB150C94DE530C943B
:10041000FC2D0C94E0150C945E6A0C94554E0C94D3
:1004200022590C941A580C946E740C94144E0C941B
:100430001C6A0C94374E0C94046B0C94EA2B0C94AD
:10044000F2400C9495590C94C0680C94286F0C944D
:10045000E84D0C9452470C94875A0C945E0F0C9400
:10046000632D0C943D740C948F2D0C9472740C9429
:10047000F52B0C949A300C944B740C9465720C947C
:100480000E6A0C9494110C94C8560C9425480C9444
:100490004F0F0C944E740C9405590C94A92E0C9487
:1004A00037590C9441470C948C720C94CE0B0C94DD
:1004B0006C330C9489570C94C3160C9443470C94DA
:1004C0002A6C0C947D550C94AB6A0C94A9530C9433
:1004D000EA2D0C9438800C9410570C94210F0C9436
:1004E00001160C9480740C94D72E0C94C7680C944D
:1004F000495A0C9469720C9497160C9486110C94BA
:100500002C6F0C94DD530C945C740C9441740C941B
:1005100023210C94024F0C943B0F0C94AD530C947C
:10052000FE0E6364696E6F70737578585B003E3EB3
:100530003E004E6F204D414320636F6E66696775C4
:100540007265643A20736574206669726D776172B2
:10055000652773204D41430A00312D77697265206C
:10056000636F756E743A200020416464723A0064CF
:100570006576230020616C69766500204E6F6465A6
:100580003A00536561726368696E67004D6F64621B
:10059000757320706F6C6C696E67206572726F7214
:1005A0003D002D002050492056616C203A004D6FCF
:1005B0006462757320706F6C6C696E67206572720F
:1005C0006F723D002D0020464D2056616C203A0090
:1005D0004D6F6462757320706F6C6C696E67206517
:1005E00072726F723D002056616C3A20004D423AA3
:1005F00020004E6F7420737570706F727465642084
:1006000072656720747970650A00496C6C65676172
:100610006C20617267756D656E74730A0075707415
:10062000696D650066726565686561700024737444
:1006300061747300202D746172676574207A6F6E27
:10064000652D00204F464600204F4E00204F464665
:100650000020636D643A00204375723A00205365B0
:10066000743A0020457870697265640A003D00564E
:1006700043230020636D643D003D0056435F686581
:10068000617423003D0050696E3A003D0050696E70
:100690003A002048616C7465640A003D005265733D
:1006A000746F7265643A20003A204E6F2073746F45
:1006B0007265642076616C756573202D20646566B3
:1006C00061756C740A00466F7263652057686974BF
:1006D000650A00416C7265616479204163746976D2
:1006E000650A005475726E696E6720584F4E0A0095
:1006F000584F464620736B69707065642E205072A7
:10070000657620636D643A005475726E6564206F7F
:1007100066662066726F6D3A00526573746F72651B
:10072000642066726F6D3A003E20003C00205061EC
:10073000723D200020436D643D00205375623D00F2
:10074000204974656D3D0052414D3D00476F742056
:10075000495020616464726573733A0027697020A0
:100760005B69705B2C646E735B2C67775B2C7375B5
:10077000626E65745D5D5D5D27202D20736574205C
:100780007374617469632049500A004661696C653D
:100790006420746F20636F6E6669677572652045AB
:1007A000746865726E6574207573696E672044485D
:1007B00043502E20596F752063616E20736574203D
:1007C0006970206D616E75616C6C79210053746184
:1007D0007274696E67206C616E00246E6F6465735D
:1007E0000024666F726D61740024646174617479B1
:1007F000706500302D31303000696E746567657248
:100800000068737600636F6C6F72004F4E2C4F461A
:10081000462C48414C542C524553542C584F4E2C86
:10082000584F46462C544F47474C4500656E756DF2
:1008300000666C6F617400322E312E300024686FB8
:100840006D696500757074696D652C6672656568A3
:1008500065617000656136376434365F3230313936
:100860002D30362D3237004C696768744875622028
:1008700000246E616D650072656164790020747298
:100880007920616761696E20696E20352073656328
:100890006F6E6473006661696C65642C2072633DE1
:1008A000004177616974696E6720666F72207265B6
:1008B0007461696E656420746F7069637300636F3F
:1008C0006E6E65637465642061732000202E2E2E89
:1008D0000020757365723A003A000A417474656DC0
:1008E0007074696E67204D51545420636F6E6E654D
:1008F0006374696F6E20746F200024737461746573
:1009000000646973636F6E6E65637465640055732C
:10091000696E67204D5154542070617373776F7204
:10092000642066726F6D20636F6E66696700446550
:1009300076696365204E616D653A00526562696E45
:100940006420737563636573732E2049502061645E
:1009500064726573733A004572726F723A20726501
:1009600062696E64206661696C0052656E657765C8
:100970006420737563636573732E2049502061642E
:1009800064726573733A004572726F723A207265D1
:100990006E65776564206661696C004E6F206C69D6
:1009A0006E6B00416363657074696E6720636F6D81
:1009B0006D616E64732E2E2E0A002F00496E3A2050
:1009C000003D00494E3A006865617400766F6C0026
:1009D000706F77657200736574706F696E74006D07
:1009E0006F64650074656D700073657400536574A1
:1009F000436D643A002056616C3D002053746F7261
:100A00006520007267620068737600444543524572
:100A100041534500494E4352454153450066616C80
:100A20007365007472756500584F464600584F4E06
:100A30000048414C5400544F47474C4500524553E1
:100A400054004F4646004F4E0054787432436D6454
:100A50003A005265747279696E6720434D440A000A
:100A60004E6F7420737570706F7274656420726558
:100A70006720747970650A00293A0028543A003DCD
:100A80003E004D6F64627573206F70206661696C03
:100A900065640A0043757272656E74204C414E2085
:100AA000636F6E6669672869702C646E732C677754
:100AB0002C7375626E6574293A000A55736520744B
:100AC0006865736520636F6D6D616E64733A20278E
:100AD00068656C7027202D207468697320746578B0
:100AE000740A276D61632064653A61643A62653A0D
:100AF00065663A66653A3030272073657420616E0A
:100B0000642073746F7265204D41432D616464727B
:100B100065737320696E20454550524F4D0A276911
:100B200070205B69705B2C646E735B2C67775B2C49
:100B30007375626E65745D5D5D5D27202D20736544
:100B400074207374617469632049500A2773617655
:100B50006527202D207361766520636F6E66696757
:100B600020696E204E5652414D0A27676574272032
:100B70005B636F6E66696720616464725D27202D18
:100B80002067657420636F6E6669672066726F6D9B
:100B9000207072652D636F6E66696775726564207B
:100BA00055524C20616E642073746F7265206164CD
:100BB00064720A276C6F616427202D206C6F61645A
:100BC00020636F6E6669672066726F6D204E5652A5
:100BD000414D0A2770776427202D20646566696E71
:100BE00065204D5154542070617373776F72640A9D
:100BF000276B696C6C27202D2074657374207761D6
:100C0000746368646F670A27636C65617227202DBF
:100C100020636C65617220454550524F4D0A277222
:100C200065626F6F7427202D207265626F6F74206C
:100C3000636F6E74726F6C6C657200536F667420B4
:100C40007265626F6F74696E672E2E2E00444D5868
:100C5000696E2042756666657220616C6C6F6320F8
:100C600065727200496E697420696E2063683A008B
:100C700009445332343832206572726F720009525F
:100C80006573657420646F6E650009436865636B06
:100C9000696E6720666F7220312D57697265206416
:100CA0006576696365732E2E2E00445332343832D4
:100CB0002D3130302070726573656E74004453328C
:100CC0003438325F3130305F4932435F544F5F31E7
:100CD000575F42524944474520696E69740020417C
:100CE0006464723A00646576230052414D3D000A07
:100CF000312D7769726520000A6D71747420000AC5
:100D00006D6F6462757320000A696E70757473206C
:100D1000000A6974656D7320000A436F6E66696727
:100D2000757265643A002C003D0050696E3A002CE3
:100D3000003D4C4F5700546865726D6F3A004F6E1E
:100D40006520776972652052656164790A00444DB7
:100D500058206F757420737461727465642E20431B
:100D600068616E6E656C733A2000444D5820696E60
:100D700020737461727465642E204368616E6E65C1
:100D80006C733A0000002200250028002B002E0082
:100D90003100340002010000050108010B010000D0
:100DA0000A0B02090C0D0E080703040100000000E5
:100DB0000000000000000000000000000000000033
:100DC00000000000000000000000121110000000F0
:100DD0000000000000000000000000000000000013
:100DE0000000000000002100240027002A002D0040
:100DF0003000330001010000040107010A01010273
:100E0000102020080810204010204080020102011C
:100E100008040201010204081020408080402010D4
:100E2000080402018004020180402010080402012D
:100E30000804020101020408102040800102040895
:100E4000102040800505050507050808080802026E
:100E500002020A0A08080404040401010101010154
:100E600001010303030303030303040707070C0C37
:100E70000C0C0C0C0C0C02020202060606060606FE
:100E800006060B0B0B0B0B0B0B0B0A282D295245DF
:100E900053544152545F4C414E5F4F4E5F4D51543D
:100EA000545F4552524F5253000A282D294841524F
:100EB0004452455345542C207573696E6720736FF7
:100EC0006674000A282D29434F554E544552000A96
:100ED000282D29444854000A282B294F57495245A8
:100EE000000A282B294D4F44425553000A282B292C
:100EF000444D58000A282B294453323438322D31BE
:100F00003030000A282D294672656552616D2070C7
:100F100072696E74696E670043323A33453A3166DE
:100F20003A30333A31423A3145000A4669726D77B8
:100F3000617265204D414320416464726573732082
:100F4000006C617A79686F6D652E7275000A436F67
:100F50006E666967207365727665723A000A282B9F
:100F6000295741544348444F47000A282B29434FEF
:100F70004E54524F4C4C494E4F0032303131303389
:100F80004C0020432B2B2076657273696F6E3A00FC
:100F9000656136376434365F323031392D30362D65
:100FA0003237000A4C617A79686F6D652E72752050
:100FB0004C6967687448756220636F6E74726F6CF9
:100FC0006C65722000000020002300260029002C00
:100FD000002F003200000100000301060109013D5D
:100FE00000494E3A006363733831312069732061E0
:100FF0006C726561647920696E697469616C697A83
:101000006564006864633130383020697320616C36
:10101000726561647920696E697469616C697A6569
:10102000640048444331303830206E6F7420696E5C
:10103000697469616C697A6564006363733831311E
:101040003A2064617461206E6F7420617661696C0E
:1010500061626C6500636373383131206E6F742098
:10106000696E697469616C697A656400696E0073A0
:101070005F6F7574006D79686F6D6500005EBCE22E
:10108000613FDD83C29C7E20A3FD1F419DC3217F64
:10109000FCA2401E5F01E3BD3E6082DC237D9FC158
:1010A000421CFEA0E1BF5D0380DE3C62BEE0025C4C
:1010B000DF81633D7C22C09E1D43A1FF4618FAA438
:1010C00027799BC584DA3866E5BB5907DB85673924
:1010D000BAE406581947A5FB7826C49A653BD98718
:1010E000045AB8E6A7F91B45C6987A24F8A6441A0C
:1010F00099C7257B3A6486D85B05E7B98CD2306EF8
:10110000EDB3510F4E10F2AC2F7193CD114FADF3E3
:10111000702ECC92D38D6F31B2EC0E50AFF1134DD7
:10112000CE90722C6D33D18F0C52B0EE326C8ED0CB
:10113000530DEFB1F0AE4C1291CF2D73CA947628B7
:10114000ABF517490856B4EA6937D58B5709EBB5A3
:1011500036688AD495CB2977F4AA4816E9B7550B97
:1011600088D6346A2B7597C94A14F6A8742AC8968B
:10117000154BA9F7B6E80A54D7896B35436F6E6EE5
:1011800065637465642E00436F6E6E2E2061626F1E
:1011900072746564004C6F61646564006C6F6164B7
:1011A000206661696C6564004E6F2073746F7265B0
:1011B0006420636F6E666967004C6F6164696E6777
:1011C00020436F6E6669672066726F6D20454550DB
:1011D000524F4D000A72657175657374204D5154FC
:1011E0005420436F6E6669670053617665642074AE
:1011F0006F20454550524F4D00536176696E672010
:10120000636F6E66696720746F20454550524F4D7D
:101210002E2E0053617665640A005365742064794C
:101220006E616D69632049500A00454550524F4D2B
:1012300020636C65617265640A0050617373776F37
:10124000726420757064617465640A00636F756C04
:1012500064206E6F742070617273653A200055705F
:1012600064617465640A002B002D00485454502FAB
:10127000312E312025690020485454502F312E3111
:101280000D0A486F73743A2025730D0A4163636534
:1012900070743A202A2F2A0D0A436F6E6E656374AC
:1012A000696F6E3A20636C6F73650D0A00257300D9
:1012B00020000D0A00474554006661696C65642092
:1012C000746F20636F6E6E6563740A004552524FEF
:1012D000523A205365727665722072657475726E2B
:1012E00065642000446F6E652E0A004170706C7951
:1012F000696E672E0A00436F6E66696720706172BF
:1013000073696E67206661696C65640A00676F7453
:1013100020436F6E6669670A00436F6E66696720D7
:101320005552493A20687474703A2F2F0020446552
:101330006661756C7420636F6E6669672073657291
:1013400076657220757365643A20006C617A7968FD
:101350006F6D652E727500205361766564002C20D8
:10136000002E003E3E2000496E76616C6964206369
:101370006F6D6D616E64004163746976650A004744
:10138000727020636865636B3A0A002D3E005075E9
:10139000623A2000556E6B6E6F776E20636D64202D
:1013A0000A005374617475732064656666657265BE
:1013B000640A00206973200044656C6574696E6777
:1013C00020636F6E662E2052414D207761733A0084
:1013D000536B697070696E672E2E004F4F4D210060
:1013E0005D20000A5B003A004D41433A003E003E5A
:1013F000003C00543A00388011241FBECFEFD1E2E8
:10140000DEBFCDBF00E00CBF17E0A0E0B2E0EAE134
:10141000F3E201E00BBF02C007900D92A234B107C6
:10142000D9F72DE0A2E4B7E001C01D92A73EB207B4
:10143000E1F719E0CCEFD9E000E006C021970109FF
:10144000802FFE010E947A8DCB3FD10780E00807F4
:10145000A9F70E9452750C948B910C9400002F9266
:101460003F924F925F926F927F928F929F92AF9234
:10147000BF92CF92DF92EF92FF920F931F93CF9381
:10148000DF93CDB7DEB76B970FB6F894DEBF0FBE14
:10149000CDBF6C012B015B8B4A8B5901088BFF8AF6
:1014A000EE8ADC011296ED91FC911397E080F180B9
:1014B000FE0131961F010091DB0D1091DC0D01152D
:1014C000110511F407EE1DE067E477E08DEA9AE07C
:1014D0000E94496BA101401B510B052E000C660BAD
:1014E000770B2AE08DEA9AE00E94826B60E477E055
:1014F0008DEA9AE00E94496BB7018DEA9AE00E945A
:10150000706C6AE377E08DEA9AE00E94496B4AE0EA
:1015100050E06E897F898DEA9AE00E94136C64E343
:1015200077E08DEA9AE00E94496B4AE050E0B20110
:101530008DEA9AE00E94136C6DE277E08DEA9AE002
:101540000E94496BD60112968D919C911397892B1D
:1015500009F469C61B861A861D861C861F861E8690
:10156000A114B10479F185014E01BAE08B0E911CF2
:10157000E12CF12CEA89FB89EE16FF061CF5F3E05D
:10158000EF16F104F9F0D801AD90BD908D01F40192
:10159000A192B1924F016BE277E08DEA9AE00E944E
:1015A000496B4AE050E0B5018DEA9AE00E94136C65
:1015B00068E277E08DEA9AE00E94496BFFEFEF1A4C
:1015C000FF0AD8CF8DEA9AE00E946C6C60E070E070
:1015D000C6010E941A223C0124E04216510451F037
:1015E00037E04316510469F183E04816510409F0CD
:1015F00059C007C0C6010E94F671892B09F030C19D
:1016000017C6D60118968C91873009F425C360E07F
:10161000C6010E946F22853009F007C669E177E0B4
:101620008DEA9AE00E94496B4AE050E065E070E084
:101630008DEA9AE00E94136C8DEA9AE00E946C6C2D
:10164000F7C5F6018085873009F406C360E0C6015E
:101650000E946F22082F10E0863091F468E077E056
:101660008DEA9AE00E94496B4AE050E0B8018DEAA9
:101670009AE00E94136C8DEA9AE00E946C6CF0C0B4
:1016800060EF76E08DEA9AE00E94496B4AE050E014
:10169000B8018DEA9AE00E94136C8DEA9AE00E94EC
:1016A0006C6CC3C5F2E04F16510409F4D9C04CF478
:1016B0004114510489F031E04316510409F019C175
:1016C000ACC085E04816510409F4EBC096E0491619
:1016D000510409F48AC00DC1D60118968C91853049
:1016E00021F06EE0C6010E944822F601808590E05C
:1016F0008A30910508F06EC0FC018827EE58FF4F34
:101700008F4F0C947A8D8C859D85892B51F42A8975
:101710003B892330310591F48FE7D60118968C93DD
:1017200004C0EA89FB89339749F44A855B850C85B7
:101730001E85B801C6010E94BE2117C0C6010E94C5
:10174000F6217B01082F1A85AB01B801C6010E9462
:10175000BE21EA86FB86802F000F990B9D878C8720
:10176000812F110F990B9F878E87F889FF2371F1C5
:1017700001E09E01265F3F4F43E050E060E070E0F3
:10178000C6010E94F27023E030E03B8B2A8B22C01E
:101790004A855B850C851E85B80114C038893323C2
:1017A00059F001E09E01265F3F4F41E050E060E0CC
:1017B00070E0C6010E94F2704A855B85052E000C20
:1017C000660B770BC6010E94BE2104C083E090E047
:1017D0009B8B8A8B0E94FC746093A3077093A40771
:1017E0008093A5079093A60784C0C6010E94F67156
:1017F000892B39F463EE76E08DEA9AE00E94496B1A
:101800000CC063ED76E08DEA9AE00E94496BD60148
:1018100018968C91873009F008C5F60180858130D3
:1018200009F030C560E0C6010E946F22813009F0E6
:1018300029C50E94FC740091A3071091A407209170
:10184000A5073091A607DC01CB01801B910BA20BF1
:10185000B30B853F9140A105B10508F0EDC412C559
:1018600060E0C6010E946F228530B9F01B861A869F
:101870001D861C861F861E8662E0C6010E944822C5
:10188000F889FF2351F000E020E030E040E050E034
:1018900062E070E0C6010E94F270A2E04A2E512C74
:1018A00028C0C6010E94F6711816190614F51B8689
:1018B0001A861D861C861F861E8660E0C6010E9451
:1018C0006F22863011F462E001C065E0C6010E941B
:1018D000482200E020E030E040E050E062E070E0CC
:1018E000C6010E94F27062E976E08DEA9AE00E94F9
:1018F000496BEC84FD84C7010F2C000CAA0BBB0BB9
:10190000888F998FAA8FBB8FAE85BF85BD8BAC8B1F
:101910002FEF30E00E94918DF4E68F2E912CA12CB8
:10192000B12CA50194010E94258D8901F6018085C5
:10193000843009F47FC150F4813009F44CC0F0F1D7
:10194000823089F1833009F4F0C16CC4883009F425
:101950009FC338F4863009F4A6C1873009F062C409
:101960007BC1893009F404C38F3709F05BC460E0A0
:10197000C3010E94B25060E0C30101960E94B250C0
:1019800060E0C30102960E94B250AE85BF852FEF82
:1019900030E00E94918DA50194010E94258D622F57
:1019A000C301039644C12FEF30E0D7010E94918D0F
:1019B000A50194010E94258DD22E78C0AA85BB85F1
:1019C0002FEF30E00E94918DA50194010E94258D9A
:1019D000622FC3012CC193012D5F3F4F290132E3D8
:1019E000E316F1040CF049C082E390E08E199F09E0
:1019F000EC89FD898E9FD0018F9FB00D9E9FB00D09
:101A000011242FEF30E00E94918D28E833E140E06F
:101A100050E00E94258D622FC2010E94B250EC84DA
:101A2000FD842EEF31E0D7010E94918DE2E32E2E4E
:101A3000312C412C512CA20191010E94258DAE85A3
:101A4000BF850E94898DA50194010E94258D4901C1
:101A50005A019701A5E6BFEF0E94898DA20191016D
:101A60000E94258DDD24DA94D20E84010F3F1105EA
:101A7000E9F0E4F00FEF10E019C0288D398D4A8DA0
:101A80005B8D2253310941095109ABE9B0E00E9455
:101A9000448D22E330E040E050E00E94258D64E672
:101AA000D62ED20E60E0C2010E94B250AA85BB853C
:101AB0002FEF30E00E94918D2DE631E040E050E0C4
:101AC0000E94258D322F122F1F71110F110F812FA0
:101AD000880F15E5682F619F060E60E0611D1124D7
:101AE000922F9074207237FD24C091110CC02111E7
:101AF00004C0862F8095F62E14C055E5F52EF60EFF
:101B000010E06BEA36C021110FC0182F3AEA139F7C
:101B1000010E10E0111D11248BEA811B4AEAF42EFC
:101B2000F60E682F10E025C080E0F62EF094162FF8
:101B30000FC0911112C021110DC0182F2AEA129F57
:101B4000010E10E0111D11243BEAF32EF11A1B5A6D
:101B500060E00FC0162F10950BC0211104C085E561
:101B6000860F1BEA03C08AEA860F90E0161B682FD7
:101B7000F12CFFEFDF1609F42AC0DD2009F423C0A1
:101B8000662329F02D2D629F060E60E0611DFF2067
:101B900039F03F2D2D2D329F030E30E0311DF32EF5
:101BA000112329F03D2D139F010E10E0111D11246A
:101BB0002D2D2095229F020E20E0211D1124620F61
:101BC000F20E120F04C01FEFFF24FA946FEF0F3FC5
:101BD00009F422C020E0002321F0009F212D09F00C
:101BE0002F5F2223B1F0662321F0629F060E60E092
:101BF000611DFF2031F03F2D329F030E30E0311D7B
:101C0000F32E112321F0129F010E10E0111D11245B
:101C100003C010E0F12C60E0C3010E94B2506F2DB0
:101C2000C30101960E94B250612FC30102960E9427
:101C3000B250F8C2E480F580F7018085853009F064
:101C4000F1C2C7010E94B369A82EB12CF2E0AF1611
:101C5000B1040CF039C4E6C2D6011496ED91FC91A2
:101C600015978085853009F0DDC2C680D780C11404
:101C7000D10409F4D7C2F60161857285C1010E94C1
:101C80007B28EE88FF8808899E01265F3F4F4A899E
:101C90005B89B201C1010E942F0AD6011296CD9034
:101CA000DC901397E4CF77FE06C0719461947108BD
:101CB00001E010E002C000E010E0F62C61E0862DAB
:101CC0000E948674012B69F0B1E04B16510429F093
:101CD00061E0E6E04E16510409F460E0062F10E0E2
:101CE00011C0F1E04F16510451F091E080E026E080
:101CF0004216510409F090E0092F182F02C001E0AC
:101D000010E0602F8F2D0E94FD3E6DE876E08DEA99
:101D10009AE00E94496B4AE050E0B3018DEA9AE0F4
:101D20000E94136C6BE876E013C177FE06C07194D5
:101D30006194710801E010E002C000E010E0F62CB0
:101D400061E0862D0E9486748091A100887F809337
:101D5000A10080919100887F809391008091A100E3
:101D600082608093A10080919100826080939100B5
:101D7000AA85BB85012B99F0CD01BB0FAA0BBB0B2C
:101D80009C01AD012456310941095109AFEFB0E082
:101D90000E94448D2CE93FEF4FEF5FEF08C02FEF1B
:101DA00030E00E94918D24E630E040E050E00E9457
:101DB000258D890161E08F2D0E9486740115110522
:101DC00009F4B1C00F3F110509F4AFC0F301FF27BB
:101DD000E256F24FE4918E2F90E0FC013197E23110
:101DE000F10508F09DC08827E458FF4F8F4F0C94F1
:101DF0007A8D84B5806884BD07BD9BC084B5806240
:101E000084BD08BD96C0809180008068809380006A
:101E100010938900009388008CC0809180008062BC
:101E20008093800010938B0000938A0082C0809181
:101E3000800088608093800010938D0000938C0058
:101E400078C08091B00080688093B0000093B300A8
:101E500070C08091B00080628093B0000093B400A5
:101E600068C08091900080688093900010939900E2
:101E7000009398005EC080919000806280939000F3
:101E800010939B0000939A0054C08091900088604A
:101E90008093900010939D0000939C004AC0809115
:101EA000A00080688093A0008091A0008F7B809329
:101EB000A0001093A9000093A8003BC08091A0004F
:101EC00080628093A0001093AB000093AA0031C001
:101ED0008091A00088608093A0001093AD000093D3
:101EE000AC0027C08091200180688093200110936E
:101EF0002901009328011DC08091200180628093F8
:101F0000200110932B0100932A0113C0809120011E
:101F100088608093200110932D0100932C0109C04B
:101F20000038110514F460E001C061E08F2D0E94BB
:101F3000FD3E66E876E08DEA9AE00E94496B4AE051
:101F400050E0B3018DEA9AE00E94136C64E876E0F9
:101F50008DEA9AE00E94496B4AE050E0B8018DEAB0
:101F60009AE00E94136C8DEA9AE00E946C6C5AC150
:101F70001A8560E070E0C6010E941A22082FF92E2F
:101F80006FE676E08DEA9AE00E94496B4AE050E005
:101F9000602F7F2D8DEA9AE00E94136C6DE676E04B
:101FA0008DEA9AE00E94496B612F012E000C770B9D
:101FB0004AE050E08DEA9AE00E94136C8DEA9AE0C4
:101FC0000E946C6C8091240890912508892B89F0DF
:101FD00062E87AE08DEA9AE00E94496B642D6064C1
:101FE000C6010E944822412F110F550B660B770B3B
:101FF000B2C081E090E0909325088093240840E8E7
:1020000055E260E070E080E19AE00E9499660093FA
:102010001F0C80E19AE090931E0C80931D0C10928F
:102020002A0D10922C0D10922B0D80ED97E09093BD
:10203000A50C8093A40C1092A70C1092A60C11234F
:1020400039F085E090E09093A90C8093A80C04C02F
:102050001092A90C1092A80C86E00E94FC6662E324
:1020600070E080E090E00E94C27482ED97E090936F
:10207000A50C8093A40C1092A70C1092A60C34E629
:102080001302A00111245093A90C4093A80CC3C0C3
:102090000480F581E02D61857285C1010E947B2855
:1020A000C1010E94B121882309F4BCC0898589300F
:1020B00009F0B8C0142DEA8460E070E0C1010E940C
:1020C0001A22082FF92E6BE776E08DEA9AE00E943B
:1020D000496B4AE050E0602F7F2D8DEA9AE00E9424
:1020E000136C69E776E08DEA9AE00E94496B6E2DE9
:1020F0000E2C000C770B4AE050E08DEA9AE00E942B
:10210000136C63E776E08DEA9AE00E94496B4AE03F
:1021100050E0642D042C000C770B8DEA9AE00E94AD
:10212000136C8DEA9AE00E946C6C80912408909167
:102130002508892BA1F062E87AE08DEA9AE00E94F6
:10214000496B642D6064C6010E9448224E2DEE0C3E
:10215000550B660B770BC6010E94BE2163C081E060
:1021600090E0909325088093240840E855E260E0D1
:1021700070E080E19AE00E94996600931F0C80E174
:102180009AE090931E0C80931D0C10922A0D1092D1
:102190002C0D10922B0D123009F4FBC1153009F4EF
:1021A000F8C16E2DEE0C770B880B990B0E94C08B3B
:1021B00022E538EB42E152E40E94AD8D20E030E0B0
:1021C00040E251E40E941F8C2DEE3EE94CE35EE3B9
:1021D0000E94198E6B017C0120E030E0A9010E9471
:1021E000C18E20E030E040E05FE387FDCDC1C70154
:1021F000B6010E94AD8D0E948B8E83ED97E0909387
:10220000A50C8093A40C1092A70C1092A60C7093AE
:10221000A90C6093A80C86E00E94FC661092250829
:1022200010922408B9C18FEF01C08DEF9FEFB4C1A8
:1022300044244394512CF1CA66EC76E08DEA9AE08E
:102240000E94496B8FE7F60180871D861C8684E615
:1022500090E09F878E874A855B8560E074E6C601C3
:102260000E94BE21F889FF2309F443CB00E09E01C0
:10227000265F3F4F43E050E060E070E0C6010E94FF
:10228000F27037CB642DC6010E944822C6010E941D
:10229000F621F62EE72E8C01D60118962C912330CC
:1022A00008F000C1213070F46A3071058105910594
:1022B0002CF4B2E3FB2EE12C00E010E04F2D5E2D5C
:1022C000602F0AC0611571058105910519F01A305A
:1022D0000CF412E3AB01682F712FC6010E94BE21DE
:1022E0004F2D5E2DB8011416150616061706E4F5D7
:1022F000D60118968C9190E08A30910538F5FC0152
:102300008827E257FF4F8F4F0C947A8DC7019A8729
:102310008B87802F000F990B9D878C87812F110F42
:10232000990B9F878E8753C05B874A8701E07FC0E8
:102330005B874A87B889BB2309F4DBCA00E020E049
:1023400030E040E050E061E070E00AC0E889EE2350
:1023500009F4ACC000E020E030E040E050E0B20121
:10236000C6010E94F270A2C02AE030E08DEA9AE035
:102370000E94CB6B68EA76E08DEA9AE00E94496B96
:10238000D60118968C918530C9F0A0F48150823026
:1023900008F041C084E690E09B878A871D861C86F2
:1023A0009F878E8744E650E060E074E6C6010E9495
:1023B000BE210DC08630C9F0883069F584E190E017
:1023C0009B878A8744E150E060E070E02CC001E028
:1023D0009E01265F3F4F43E050E060E070E0C601A1
:1023E0000E94F27003E010E02EC084E690E09B872C
:1023F0008A8744E650E060E070E0C6010E94BE219A
:10240000B889BB23F1F000E020E030E040E050E08C
:1024100061E070E013C084E690E09B878A8744E621
:1024200050E060E070E0C6010E94BE2100E09E0125
:10243000265F3F4F41E050E060E070E0C6010E943F
:10244000F27001E010E05E01EAE0AE0EB11CE12C9A
:10245000F12CD5018D909D905D016DE976E08DEABE
:102460009AE00E94496B4AE050E0B7018DEA9AE099
:102470000E94136C6BE976E08DEA9AE00E94496B4A
:102480004AE050E0B4018DEA9AE00E94136C8DEAB4
:102490009AE00E946C6CBFEFEB1AFB0A0E151F0549
:1024A000C1F604C0243009F4FFCE1ACFF6018085AE
:1024B000813009F01ECA8C859D85892B09F019CAC7
:1024C0008FE7F601808715CA60E0C7010E940965A1
:1024D000DC0119968D919C911A97998B888B61E0FC
:1024E000C7010E940965FC0141845284638474849D
:1024F0002A843B84F2E0AF16B104E9F162E0C7013F
:102500000E940965DC0119960D911C911A97B3E0A0
:10251000AB16B10491F163E0C7010E940965FC01AB
:1025200081849284F4E0AF16B10451F064E0C701F5
:102530000E940965DC011996AD90BC901A9703C002
:1025400032E0A32EB12C8114910461F09401D101E9
:102550000E94898D24E630E040E050E00E94258D05
:10256000790101C071019501A20168897989C601CB
:102570000E94972857CE0FEF1FEF8FE3882E912CE4
:1025800092E0A92EB12CE2CFC701B6010E94AC8D1A
:1025900032CE60E070E031CE6B960FB6F894DEBFBD
:1025A0000FBECDBFDF91CF911F910F91FF90EF90A4
:1025B000DF90CF90BF90AF909F908F907F906F9063
:1025C0005F904F903F902F9008954F925F926F923F
:1025D0007F928F929F92AF92BF92CF92DF92EF92B3
:1025E000FF920F931F93CF93DF93CDB7DEB7C15AFE
:1025F000D1400FB6F894DEBF0FBECDBFE0915307B8
:10260000F09154073B96E831F10508F0BCC38827E8
:10261000E856FF4F8F4F0C947A8D0E94FC74009106
:102620000A0A10910B0A20910C0A30910D0A061724
:1026300017072807390708F0A6C308E913E0CF56A3
:10264000DE4F19830883C159D140CD56DE4F188221
:1026500019821A821B82C359D140CF57DE4F19838A
:102660000883C158D140CD57DE4F188219821A8293
:102670001B82C358D140CF59DE4F19830883C156FE
:10268000D140CD59DE4F188219821A821B82C3565F
:10269000D140CF5BDE4F19830883C154D140CD5B5D
:1026A000DE4F188219821A821B82C354D1406DEC0E
:1026B00077E08DEA9AE00E94496B8DEA9AE00E94E9
:1026C0006C6CBE016F567E4F86E090E00E94E73B47
:1026D000892B09F467C16DE374E08DEA9AE00E94EA
:1026E000706C1A830983CD56DE4F88819981AA8147
:1026F000BB81C359D1408B839C83AD83BE83CE0104
:1027000001960E945860BE016F577E4F8AE090E0AC
:102710000E94E73B892B09F42EC163E574E08DEA42
:102720009AE00E94706C1A830983CD57DE4F88812E
:102730009981AA81BB81C358D1408B839C83AD838F
:10274000BE83CE0101960E945860BE016F597E4F34
:102750008EE090E00E94E73B892B09F4DFC069E539
:1027600074E08DEA9AE00E94706C1A830983CD5957
:10277000DE4F88819981AA81BB81C356D1408B836A
:102780009C83AD83BE83CE0101960E945860BE013A
:102790006F5B7E4F82E190E00E94E73B892B09F45A
:1027A00077C06EE574E08DEA9AE00E94706C1A833F
:1027B0000983CD5BDE4F88819981AA81BB81C35497
:1027C000D1408B839C83AD83BE83CE0101960E9452
:1027D00058601A830983CD5BDE4F88819981AA8175
:1027E000BB81C354D1408B839C83AD83BE83CF57C1
:1027F000DF4F19830883C158D040CD59DE4F8881FF
:102800009981AA81BB81C356D140CD57DF4F8883C0
:102810009983AA83BB83C358D040CF53DF4F19831A
:102820000883C15CD040CD57DE4F88819981AA8151
:10283000BB81C358D140CD53DF4F88839983AA838E
:10284000BB83C35CD040CF5FDE4F19830883C15088
:10285000D140CD56DE4F88819981AA81BB81C35971
:10286000D140CD5FDE4F88839983AA83BB83C35059
:10287000D1409E012F5F3F4FAE014F575F4FBE01CA
:102880006F537F4FCE018F5F9E4F0E94CA3F85C01E
:102890001A830983CD59DE4F88819981AA81BB8132
:1028A000C356D1408B839C83AD83BE83CF57DF4F0C
:1028B00019830883C158D040CD57DE4F8881998154
:1028C000AA81BB81C358D140CD57DF4F88839983FC
:1028D000AA83BB83C358D040CF53DF4F19830883EB
:1028E000C15CD040CD56DE4F88819981AA81BB81E1
:1028F000C359D140CD53DF4F88839983AA83BB83CB
:10290000C35CD040AE014F5F5F4FBE016F577F4F3A
:10291000CE018F539F4F0E9416403FC01A830983F8
:10292000CD57DE4F88819981AA81BB81C358D140A0
:102930008B839C83AD83BE83CF57DF4F198308837E
:10294000C158D040CD56DE4F88819981AA81BB8184
:10295000C359D140CD57DF4F88839983AA83BB8366
:10296000C358D040BE016F5F7F4FCE018F579F4F3E
:102970000E94684012C01A830983CD56DE4F8881B9
:102980009981AA81BB81C359D1408B839C83AD833C
:10299000BE83CE0101960E94B3408DEA9AE00E9468
:1029A0006C6C0BC165E674E08DEA9AE00E94706C75
:1029B0000FB6F894A89580916000886180936000BC
:1029C000109260000FBE80910508811107C08AEE49
:1029D00097E00E947F5481E08093050887EA97E0A2
:1029E0009093570B8093560B0E942C3FCE0101967B
:1029F0000E94035E89819A810E94744E46E050E0F5
:102A000064E379E089E090E00E94E73288E993E0AE
:102A10009A8389831B821C821D821E82CE010396AB
:102A20000E945E4E0E94734E8091560B9091570B00
:102A3000DC0192961D921D921D921C929597FC01AD
:102A400016A217A210A611A69A961D921D921D926B
:102A50001C929D9740EE5EE260E070E046AB57ABA3
:102A600060AF71AF40EA5FE060E070E0DA964D93EE
:102A70005D936D937C93DD973E9624E1DF011D927B
:102A80002A95E9F726E0E4E3F9E0DC0118960190E5
:102A90000D922A95E1F7FC01EE5BFF4F10820E9438
:102AA0001A3A8C01019709F04AC0CE0101960E94A2
:102AB000035E89819A810E94744E6091560B7091D9
:102AC000570B625F7F4FCE0101960E94726CCE0160
:102AD00003960E945E4E6091560B7091570B6A5E92
:102AE0007F4FCE0101960E94726CCE0103960E9428
:102AF0006C4E6091560B7091570B6E5E7F4FCE01FE
:102B000001960E94726CCE0103960E94654E0E944F
:102B1000734E6091560B7091570B625E7F4FCE01E2
:102B200001960E94726C8B819C81AD81BE818093E5
:102B3000520B9093530BA093540BB093550B99E207
:102B400088E10FB6F894A895809360000FBE90932B
:102B50006000A895012B19F56BE877E08DEA9AE003
:102B60000E94496B6CE577E08DEA9AE00E94496B20
:102B700086EF9FEF90935407809353070E94FC7455
:102B8000DC01CB01805A9541AF4FBF4F80930A0AB9
:102B900090930B0AA0930C0AB0930D0AF4C06CE456
:102BA00077E08DEA9AE00E94496BCE0101960E947F
:102BB000AE60CE0101960E94586081E090E0DFC0D7
:102BC00080910D0881111AC060E070E080E090E013
:102BD0000E94805BD4C00E94FC7400910A0A10918C
:102BE0000B0A20910C0A30910D0A061717072807C7
:102BF0003907D0F10E9448648111C5C082E090E09D
:102C0000BEC0A895CF55DE4F1882C15AD140FE01F3
:102C1000EF56FE4F119211928EE0DF011D928A95C0
:102C2000E9F700912C0910912D090115110529F0E2
:102C3000C8010E94B369811138C20E9448648111A1
:102C4000A2C000912C0910912D090115110509F45C
:102C50009AC0C8010E94B369E82EF12CB2E0EB16CD
:102C6000F1040CF03FC28FC020E030E043E050E0C0
:102C700060E48E010F5F1F4FC8010E94A24C6CEAF6
:102C800076E0C8010E94A190F80101900020E9F7C8
:102C9000CF01801B910B08968138910538F50E9471
:102CA0004864882319F18091020C9091030C0196DD
:102CB00011F481E090E09093030C8093020C8091DA
:102CC000020C9091030C9093870B8093880B47E044
:102CD00050E062E87BE0C8010E94BF63AC01455050
:102CE000510962E87BE082EA0E94DF6383E090E0C2
:102CF000909354078093530763EA79E08DEA9AE052
:102D00000E94496B40C00E94FC7400910A0A109115
:102D10000B0A20910C0A30910D0A06171707280795
:102D2000390788F510925407109253072CC00E945F
:102D3000FC7400910A0A10910B0A20910C0A309140
:102D40000D0A061717072807390708F457CF1BC0C5
:102D50000E941D5B892B09F051CF0E94FC74DC019D
:102D6000CB0188579C4EAF4FBF4F80930A0A909378
:102D70000B0AA0930C0AB0930D0A86EF9FEF909375
:102D80005407809353070FB6F894A895809160007C
:102D9000886180936000109260000FBE809153079D
:102DA00090915407181619060CF059C10091560B52
:102DB0001091570B0115110509F451C10E94FC74C3
:102DC0004B015C017801FEE3EF0EF11CF7018081FD
:102DD0009181A281B381A5019401281B390B4A0B73
:102DE0005B0BCA01B901683E33E0730781059105A9
:102DF00008F446C028EE33E040E050E00E94038D26
:102E0000861A970AA80AB90AD7018D929D92AD92A7
:102E1000BC921397F80186A597A5A0A9B1A969014D
:102E20007A01CC0CDD1CEE1CFF1C8C159D05AE053B
:102E3000BF0528F416A617A610AA11AA09C0821B5E
:102E4000930BA40BB50BF80186A797A7A0ABB1AB6A
:102E5000F80182A993A9A4A9B5A98C159D05AE0571
:102E6000BF0528F412AA13AA14AA15AA09C0821B26
:102E7000930BA40BB50BF80182AB93ABA4ABB5AB32
:102E8000F80186A597A5A0A9B1A9892B8A2B8B2B20
:102E900069F4EE5BFF4F8081833041F484E08083EE
:102EA000C8010E941A3A01967C0102C0E12CF12C63
:102EB000F80182A993A9A4A9B5A9892B8A2B8B2BE8
:102EC000A1F4EE5BFF4F8081833011F081110DC0C2
:102ED0001082F8013E9684E1DF011D928A95E9F7A0
:102EE000C8010E941A3A03967C01B2E0EB16F10485
:102EF00029F0E4E0EE16F10409F04AC0CE01019693
:102F00000E94035E89819A810E94744E6091560BE3
:102F10007091570B625F7F4FCE0101960E94726CD9
:102F2000CE0103960E945E4E6091560B7091570B36
:102F30006A5E7F4FCE0101960E94726CCE010396AD
:102F40000E946C4E6091560B7091570B6E5E7F4FD6
:102F5000CE0101960E94726CCE0103960E94654ECE
:102F60000E94734E6091560B7091570B625E7F4FBB
:102F7000CE0101960E94726C8B819C81AD81BE81D5
:102F80008093520B9093530BA093540BB093550B1B
:102F9000F3E0EF16F10409F451C064F431E0E316F4
:102FA000F10451F142E0E416F10409F058C06AE678
:102FB00079E049C054E0E516F10409F442C085E027
:102FC000E816F10409F04BC06BE979E08DEA9AE06C
:102FD0000E94496B8DEA9AE00E946C6C0E944864E2
:102FE00081110E94DB600E94FC74DC01CB01805DDA
:102FF0009A48AF4FBF4F13C067E879E08DEA9AE077
:103000000E94496B0E94486481110E94DB600E940B
:10301000FC74DC01CB0188519C4FAF4FBF4F8093B4
:103020000A0A90930B0AA0930C0AB0930D0A86EF3C
:103030009FEF909354078093530711C067E579E0A1
:10304000DDCF6BE379E08DEA9AE00E94496BCE0117
:1030500001960E94AE60CE0101960E94586099E2EE
:1030600088E10FB6F894A895809360000FBE909306
:1030700060008091530790915407CF55DE4F0FB6F3
:10308000F894DEBF0FBECDBFDF91CF911F910F919E
:10309000FF90EF90DF90CF90BF90AF909F908F9078
:1030A0007F906F905F904F90089560E0C8010E94FC
:1030B0000965DC0119960D911C911A971093480926
:1030C000009347096EE279E08DEA9AE00E94496B2D
:1030D000B8018DEA9AE00E94706C8DEA9AE00E9435
:1030E0006C6CABCD61E0C8010E940965FC01618494
:1030F0007284F2E0EF16F104A9F062E0C8010E94C8
:103100000965FC0181849284F3E0EF16F10471F00B
:1031100063E0C8010E940965DC0119960D911C91BC
:103120001A9707C08BE5882E87E0982E8E010F55E1
:103130001E4F40E150E0BE016F567E4F86E390E0A7
:103140000E94D95A892B51F4B5E0EB16F1040CF02A
:103150001CC3FE01EF56FE4F7F0104C09E012F5697
:103160003E4F79017092160C6092150C9092180CDB
:103170008092170C80E39FE690930E0C80930D0CC9
:103180005E013FE7A31A3EEFB30A40E150E061E081
:1031900079E0C5010E94B5846E014FE9C41A4EEF73
:1031A000D40A20E030E041E050E060E2C6010E9435
:1031B000A24C40E250E06AEF78E0C6010E9497849A
:1031C0006AED78E08DEA9AE00E94496BB3018DEADE
:1031D0009AE00E94706C68ED78E08DEA9AE00E94B7
:1031E000496B4AE050E0B4018DEA9AE00E94136C0A
:1031F00061ED78E08DEA9AE00E94496BB8018DEAB2
:103200009AE00E94706C6CEC78E08DEA9AE00E9483
:10321000496BD8018C91811104C0E12CF12C00E0A4
:1032200010E080904709909048090E9448648111FD
:103230003BC16091150C7091160C8091800B9091A0
:10324000810B4091170C5091180CDC01ED91FC9111
:103250006115710521F00088F189E02D16C0068402
:10326000F785E02D28E933E03A8329834090110C5B
:103270005090120C6090130C7090140C4B825C8276
:103280006D827E82BE016F5F7F4F199581309105FF
:1032900009F003C19093030C8093020C87E0E4E4EF
:1032A000F2E0DE01119601900D928A95E1F7FE01A0
:1032B0003196A7E8BBE0CE01089621912D93E8173F
:1032C000F907D9F70115110529F0E114F10421F0EE
:1032D00086EF03C086E301C086EB80938E0B1092CD
:1032E0008F0B8FE08093900BF40101900020E9F7A1
:1032F000CF018819990940968138910508F0C1C01D
:103300004FE050E062E87BE0C4010E94BF63F60139
:1033100001900020E9F73197EC19FD09E80FF91F3A
:103320003296E138F10508F0ACC0AC0162E87BE010
:10333000C6010E94BF63F50101900020E9F73197B3
:10334000EA19FB09E80FF91F3296E138F10508F098
:1033500098C0AC0162E87BE0C5010E94BF63011523
:10336000110579F1F80101900020E9F73197E01B90
:10337000F10B9C012E5F3F4FE20FF31FE138F10587
:1033800008F07FC0AC0162E87BE0C8010E94BF6327
:10339000E114F104B1F0F70101900020E9F7319751
:1033A000EE19FF099C012E5F3F4FE20FF31FE1383A
:1033B000F10508F066C0AC0162E87BE0C7010E943D
:1033C000BF63AC014550510962E87BE080E10E9497
:1033D000DF630E94FC746093040C7093050C80936F
:1033E000060C9093070C6093080C7093090C809363
:1033F0000A0C90930B0C8091800B9091810BDC0157
:10340000ED91FC910084F185E02D1995892BC1F493
:103410000E94FC740091080C1091090C20910A0C78
:1034200030910B0CDC01CB01801B910BA20BB30B79
:1034300088399A43A105B105F0F28CEF9FEF1DC0CA
:10344000CE018F579F4F0E94105E0497D1F4809158
:10345000850B811111C00E94FC746093080C70935D
:10346000090C80930A0C90930B0C10920C0C109288
:103470001C0C10921B0C18C090E090931C0C8093B5
:103480001B0C8091800B9091810BDC01ED91FC91E4
:103490000488F589E02D19958BC18EEF9FEF9093ED
:1034A0001C0C80931B0C84C10091470910914809A2
:1034B0006EEB78E08DEA9AE00E94496BB8018DEAE4
:1034C0009AE00E94706C8DEA9AE00E946C6C81E038
:1034D00080930D0820E030E043E050E060E4CE014E
:1034E0008F5F9E4F0E94A24C6CEA76E0CE018F5F08
:1034F0009E4F0E94A190CE018F5F9E4F0E94A73BDE
:1035000020E030E042E050E060E4CE018F5F9E4F6B
:103510000E94A24C6CEA76E0CE018F5F9E4F0E9423
:10352000A190BE016F5F7E4F8DEA9AE00E943865E0
:10353000CE018F5F9E4F0E94A73B20E030E041E02C
:1035400050E060E4CE018F5F9E4F0E94A24C6CEA77
:1035500076E0CE018F5F9E4F0E94A190BE016F5F0B
:103560007E4F8DEA9AE00E943865CE018F5F9E4FB4
:103570000E94A73BFE01EF53FF4F119211921EE3F1
:10358000DF01212F1D922A95E9F71A821982FE0187
:1035900033968EE7DF011D928A95E9F720E030E04F
:1035A00041E050E060E4CE018F539F4F0E94A24C57
:1035B00040E450E06AEF78E0CE018F539F4F0E94C5
:1035C000978440E850E067E778E0CE0101960E94DA
:1035D000B584BE016F5F7F4FCE018F539F4F0E9416
:1035E000D16420E030E041E050E060E4CE018F5350
:1035F0009F4F0E94A24C40E450E061E778E0CE018A
:103600008F539F4F0E94978440E850E067E678E030
:10361000CE0101960E94B58440E850E064E578E070
:10362000CE0101960E949784BE016F5F7F4FCE014D
:103630008F539F4F0E94D16420E030E041E050E082
:1036400060E4CE018F539F4F0E94A24C40E450E0B3
:103650006DE276E0CE018F539F4F0E94978440E841
:1036600050E064E478E0CE0101960E94B584BE018A
:103670006F5F7F4FCE018F539F4F0E94D16420E038
:1036800030E041E050E060E4CE018F539F4F0E9454
:10369000A24C40E450E06DE378E0CE018F539F4FA1
:1036A0000E94978440E850E067E378E0CE010196FD
:1036B0000E94B584BE016F5F7F4FCE018F539F4F35
:1036C0000E94D164A0912608B0912708109709F4B0
:1036D00043C080914B0290914C02AE014F5B5E4F14
:1036E000FA01819391932EE111922A95E9F79E01B7
:1036F0002F573F4FF9018193919311921A95E9F752
:1037000016960D911C911797E0902608F0902708C7
:10371000E114F10471F00115110559F0D801189662
:103720008C918530A9F7C8010E94B369882381F381
:103730006DC020E030E041E050E060E4CE018F5306
:103740009F4F0E94A24C40E450E06AED77E0CE012A
:103750008F539F4F0E94978484E090E0909354078A
:10376000809353070E94FC74DC01CB0188579C4E68
:10377000AF4FBF4F80930A0A90930B0AA0930C0A95
:10378000B0930D0A61EA78E0B9CA64E080912C092F
:1037900090912D090E940965DC011996ED90FC902D
:1037A0001A976EE079E08DEA9AE00E94496BDACCD4
:1037B00000911B0C10911C0C65E978E08DEA9AE0F1
:1037C0000E94496B4AE050E0B8018DEA9AE00E94FD
:1037D000136C6DE778E08DEA9AE00E94496B8DEA00
:1037E0009AE00E946C6C0E94FC74DC01CB0188574B
:1037F0009C4EAF4FBF4F80930A0A90930B0AA09341
:103800000C0AB0930D0A8CE090E0B9CA60E0C801E0
:103810000E940965FC0181859285A385B4858A3063
:10382000910508F463C020E030E041E050E060E43E
:10383000CE018F539F4F0E94A24CF801608171818D
:1038400040E450E0CE018F539F4F0E94C7906BE33E
:1038500074E0CE018F539F4F0E94A19040E450E04E
:1038600069EE77E0CE018F539F4F0E949784BE018F
:103870006F5B7E4FCE018F539F4F0E94D164CF5715
:10388000DF4F8881C158D040882361F120E030E0CB
:1038900041E050E060E4CE018F539F4F0E94A24C64
:1038A000D8016D917C9140E450E0CE018F539F4F41
:1038B0000E94C7906BE374E0CE018F539F4F0E942C
:1038C000A19040E450E061EE77E0CE018F539F4F2E
:1038D0000E949784BE016F577F4FCE018F539F4F39
:1038E0000E94D164F801028113810ECFFC0140E2F5
:1038F00050E08827E055FF4F8F4F0C947A8D61E39D
:1039000078E0CE018F5B9E4F0E94B584CF57DF4F8A
:103910001882C158D04087CF6CE278E0CE018F5B2F
:103920009E4F0E94B58440E450E06BE078E017C001
:1039300065E078E0CE018F5B9E4F0E94B58440E445
:1039400050E061E078E00BC069EF77E0CE018F5B7B
:103950009E4F0E94B58440E450E063EF77E0CE01D3
:103960008F579F4F0E94B5845ECFBC018230910576
:1039700008F40895613E8EE1780748F49B0195E0D4
:10398000369527959A95E1F748E0420F01C04FEF31
:1039900091E0242F30E0290F311D35952795229F86
:1039A000F001239FF00DF00D11246E177F0718F41E
:1039B0004FEF420F04C02F3F39F091E0920F4917AB
:1039C00040F78FEF890F08958FEF0895CF93DF931E
:1039D000009709F447C0FC012081222309F442C06A
:1039E000EC0169EE79E00E948E84892BF1F164EE9E
:1039F00079E0CE010E948E84892BD1F16FED79E0C0
:103A0000CE010E948E84892BB1F166ED79E0CE0162
:103A10000E948E84892B91F160ED79E0CE010E94A5
:103A20008E84892B71F16CEC79E0CE010E948E843A
:103A3000892B51F167EC79E0CE010E948E84892BAD
:103A400031F167E07AE0CE010E948E84892B11F17A
:103A500063E07AE0CE010E948E84892BF1F489E044
:103A600090E01DC080E090E01AC081E090E017C0B7
:103A700082E090E014C083E090E011C084E090E028
:103A80000EC085E090E00BC086E090E008C087E0C3
:103A900090E005C088E090E002C08FEF9FEFDF91DB
:103AA000CF9108952F923F924F925F926F927F92A3
:103AB0008F929F92AF92BF92CF92DF92EF92FF923E
:103AC0000F931F93CF93DF93CDB7DEB72A970FB62F
:103AD000F894DEBF0FBECDBF5C016B01042F7901EE
:103AE000672B09F45BC021153105F1F0D9018C91E8
:103AF0008823D1F06FE270E0C9010E94AC9000977A
:103B000039F0FC011192CF010E94E61C4C0102C069
:103B1000812C912CC7010E94E61C7C01019731F099
:103B20008A948928D1F502C0E12CF12C66E47AE070
:103B3000C6010E948E84892B09F4C1C062E47AE038
:103B4000C6010E948E84892B09F497C06DE37AE048
:103B5000C6010E948E84892B21F543E0842E912C8E
:103B600069E47AE08DEA9AE00E94496B4AE050E00D
:103B7000B4018DEA9AE00E94136C8DEA9AE00E94EB
:103B80006C6CBFEF8B169B0611F00CF0A8C0EEEF2B
:103B90008E16EFEF9E060CF496C084C280E090E093
:103BA00081C266E37AE0C6010E948E84892B09F403
:103BB00054C061E37AE0C6010E948E84892B09F427
:103BC00050C06DE27AE0C6010E948E84892B09F410
:103BD0004CC068E27AE0C6010E948E84892B09F409
:103BE00048C063E27AE0C6010E948E84892B09F402
:103BF00066C06DE17AE0C6010E948E84892BE9F1EE
:103C000064E17AE0C6010E948E84892BD1F16BE0D9
:103C10007AE0C6010E948E84892BB9F1D6018C917D
:103C20008D32B9F190ED980F9A3098F18B37A1F160
:103C30008332B9F143E050E067E07AE0C6010E94C8
:103C4000A784892B99F143E050E063E07AE0C60154
:103C50000E94A784892B79F524C034E0832E912C0F
:103C60007FCF25E0822E912C7BCF96E0892E912C60
:103C700077CF87E0882E912C73CF12E0812E912C84
:103C80006FCFB8E08B2E912C6BCFA9E08A2E912CB0
:103C900067CF812C912C64CFFEEF8F2E99249A94BC
:103CA0005FCFEDEF8E2E99249A945ACF7CEF872E1A
:103CB00099249A9455CF88248A94982C51CF88249B
:103CC0008394912C4DCFFCEF8F16FFEF9F06E1F010
:103CD0002DEF82162FEF920609F45BC0D7C1811435
:103CE000910491F031E08316910409F0CFC1D50120
:103CF000ED91FC910190F081E02D20E030E040E07A
:103D000050E061E070E0BFC1CE0101962C01812C32
:103D1000912C182F5A863401AFEF6A1A7A0A4301A0
:103D2000F60180818823C9F06F018191882329F0F1
:103D30008D3219F080538A30B8F7C6010E9467842B
:103D40001C016CE270E0C6010E94AC906C01892BF2
:103D500039F0FFEFCF1ADF0A03C080E090E001C026
:103D6000C101D2018D939D932D01C114D10439F06D
:103D700093E06916710479F643E0842E912CD50105
:103D8000ED91FC910190F081E02D212F3A85A40165
:103D900078C1CE0107969E01275F3F4F3F932F9337
:103DA000215031093F932F939F938F9381E894E0A3
:103DB0009F938F93DF92CF920E9460910FB6F894F9
:103DC000DEBF0FBECDBF039709F0E7CE1F81888508
:103DD0008984912F811708F4982FC82C981508F41E
:103DE000C92E1C19982E9C188C189C2D90959F3FBD
:103DF00039F080E090950E94B51CD82ED09402C076
:103E0000DD24DA94892D90E0810F911D880D911D9C
:103E1000892B29F4CD2CC094D12C10E0FFC0FFEFEA
:103E2000DF16F9F0D11002C0DD24D3944D2C512CB3
:103E3000612C712C6FEF7FEF80E090E0A301920185
:103E40000E94258DA12FB0E00E94448D172FA92D2F
:103E5000B0E00E94448D972EA82DB0E00E94448DC2
:103E6000872E692C712C610E711C680C711C2FEF50
:103E700062167104FCF46114710419F466246394ED
:103E8000712C930140E050E06FEF7FEF80E090E015
:103E90000E94258DA12FB0E00E94448D172FA92DDF
:103EA000B0E00E94448D972EA82DB0E00E94448D72
:103EB000872E05C03FEF6316710409F06CF42C2DBA
:103EC000362D230F08F42FEF922F2F3F29F080E09B
:103ED0000E94B51CC82E02C0CC24CA94292D981467
:103EE00008F4282D211708F4212F21132FC0911039
:103EF0000DC0122F20E8121B08F410E020E6129FDC
:103F0000010E10E0111D1124105387C0892D90E07F
:103F1000422F50E0481B590B8417950744F4192D84
:103F200020E6129F010E10E0111D112476C016E547
:103F3000190D121B24E0121B08F410E020E6129F5A
:103F4000010E10E0111D1124105E67C092123AC0DC
:103F500081101AC02BEA722F711B08F470E0172F22
:103F60003FE2139F010E10E0111D1124792D721BE9
:103F700008F470E020E6729F070E70E0711D1124B6
:103F8000170F1695105C49C0282D30E0892D90E060
:103F9000821B930B182D2817390744F420E6129F33
:103FA000010E10E0111D1124105A37C025E5121B17
:103FB00008F410E020E3129F010E10E0111D1124FF
:103FC00010582BC011110DC0182D20E8121B08F439
:103FD00010E020E3129F010E10E0111D112418576C
:103FE0001CC0212F30E0882D90E0821B930B2817F6
:103FF000390744F420E6129F010E10E0111D112430
:1040000010560BC025E5121B08F410E020E6129FA5
:10401000010E10E0111D112410541F5F212F30E0FC
:10402000ADE6B1E00E94578D412C512C32014A94EB
:10403000A30192010E94258D3A8329832D2D30E022
:10404000A4E6B0E00E94578DA30192010E94258D45
:104050003C832B832C2D30E0A4E6B0E00E94578DEA
:10406000A30192010E94258D3E832D83D501ED9100
:10407000FC910190F081E02D9E012F5F3F4F43E0C6
:1040800050E060E070E0C50119950CC0D501ED91DC
:10409000FC910190F081E02D20E030E040E050E024
:1040A000B401F1CF2A960FB6F894DEBF0FBECDBF94
:1040B000DF91CF911F910F91FF90EF90DF90CF9004
:1040C000BF90AF909F908F907F906F905F904F9038
:1040D0003F902F9008958F929F92AF92BF92CF9270
:1040E000DF92EF92FF920F931F93CF93DF93E091B4
:1040F0002608F0912708309709F468C0812EC02F58
:10410000932EC22EA52ED42EB72ED62FBC01CF01B2
:104110000E94DC648C01009709F45BC0DC011896F6
:104120008C91853009F055C060E0C8010E94096596
:104130007C0161E0C8010E940965FC0101851285CE
:10414000D70119962D913C911A972130310569F0CC
:104150002CF4232BF1F56C2FC80118C02230310547
:1041600049F027303105A9F034C06C2FC8010396FF
:104170000E94B2506D2FC8010E94B2506D2DC8012F
:1041800001960E94B2506C2DC80102960E94B25056
:1041900020C0892BF1F080858530D9F4E680F78046
:1041A000E114F104B1F00C2F182D2C2D392D4D2DCB
:1041B0005A2D6D2F7B2DF701818592850E946B20F2
:1041C000D7011296ED90FC901397EACF80E090E033
:1041D00002C081E090E0DF91CF911F910F91FF909D
:1041E000EF90DF90CF90BF90AF909F908F90089509
:1041F000CF92DF92EF92FF920F931F93CF93DF93B3
:10420000E0913009F09131093097A1F09085953017
:1042100089F469017A01EB01682FCF010E940965D9
:10422000FC0181859285009729F09601A701BE01C6
:104230000E946B20DF91CF911F910F91FF90EF9023
:10424000DF90CF900895AF92BF92CF92DF92EF921E
:10425000FF920F931F93CF93DF9380912909909141
:104260002A09892B09F472C0E1E0F0E0C0E0D0E057
:10427000CC24C394D12CB6010C2E02C0660F771F3C
:104280000A94E2F740911208509113087F0184E0EC
:10429000E80EF11CCF01B12C9C01A0910602B09157
:1042A0000702A817B90720F42091060230910702EF
:1042B000A091CC0DB091CD0DA20FB31FAC90A091E9
:1042C0002909B0912A099C0121503109A20FB31F7D
:1042D0000A2D10E02C9130E00217130729F0462B2D
:1042E000572BAC92BB24B3940196E816F906A1F6BD
:1042F0005093130840931208BB2011F180912909B3
:1043000090912A09E80FF91F028110E0218130E025
:10431000408150E03197608170E0CE010E94F8202A
:104320000E94FC74DC01CB01845D9E4FAF4FBF4FF8
:1043300080930E0890930F08A0931008B093110873
:104340002196F701C430D10509F095CFDF91CF91C7
:104350001F910F91FF90EF90DF90CF90BF90AF90A3
:104360000895DC011296ED91FC911397309721F09E
:1043700081E09085953009F080E00895CF92DF923A
:10438000EF92FF92CF93DF93DC011696ED91FC91B3
:104390001797309721F12085223009F56A017B01BA
:1043A000EC016BEF79E08DEA9AE00E94496B65EFD2
:1043B00079E08DEA9AE00E94496B2AE030E0B7018B
:1043C000A6018DEA9AE00E94CB6B8DEA9AE00E94EA
:1043D0006C6CEE81FF81C186D286E386F486DF9124
:1043E000CF91FF90EF90DF90CF900895FC018681F0
:1043F0009781009789F0FC012085223041F025301B
:1044000079F460E00E940965009779F0FC0161850C
:1044100072858385948508956FEF7FEFCB010895B2
:104420006EEF7FEF8FEF9FEF08956DEF7FEF8FEFD0
:104430009FEF08950F931F93CF93DF93FC01C481E7
:10444000D581209799F08885823029F4672B71F403
:1044500089859A8518C0853061F48B01CE010E9450
:10446000B36990E0081719073CF003C08FEF9FEF86
:104470000AC08EEF9FEF07C0602FCE010E94096532
:10448000FC0181859285DF91CF911F910F91089555
:10449000CF93C62F63E0FC01828193810E9409655E
:1044A0000097D9F04C2F50E060E070E0FC014187AC
:1044B0005287638774876DEE79E08DEA9AE00E94F7
:1044C000496B4AE050E06C2F8DEA9AE00E941A6C2A
:1044D0008DEA9AE0CF910C946C6CCF910895CF93B4
:1044E000C62F63E0FC01828193810E9409650097D9
:1044F00031F0FC018185C11103C08F7001C08FEFC5
:10450000CF910895BF92CF92DF92EF92FF920F93D7
:104510001F93CF93DF93EC010E94B121882309F40C
:1045200041C08A819B810E94B369082F10E0C801B5
:10453000880F991F9C0125593D4F790132E0B32E18
:1045400004301105D4F4F701C190D1907F010E948D
:10455000BF31009751F0FC01B086A601DD0C660B5F
:10456000770B4187528763877487BC018A819B815F
:104570000E940F660F5F1F4FE3CF0A811B8160E02F
:10458000C8010E940965FC018185888761E0C80136
:104590000E9409659D838C8362E0C8010E940965C1
:1045A0009F838E83DF91CF911F910F91FF90EF90AA
:1045B000DF90CF90BF900895CF93DF93EC01FB0184
:1045C0002481358140815181628173810E94CB6B4E
:1045D000CE01DF91CF9108958F929F92AF92BF92BB
:1045E000CF92DF92EF92FF920F931F93CF93DF93BF
:1045F000CDB7DEB7C054D1090FB6F894DEBF0FBEF9
:10460000CDBF8C015B01FC01F38063EC79E08DEAA6
:104610009AE00E94496B4AE050E06F2D8DEA9AE0E3
:104620000E941A6C61EC79E08DEA9AE00E94496B75
:104630004AE050E0B5018DEA9AE00E94136C8DEAE1
:104640009AE00E946C6CF801C080D1806CE874E044
:10465000C6010E94DC644C0161E974E0C6010E945D
:10466000DC648C0166E974E0C6010E94DC647C01B4
:104670006BE974E0C6010E94DC646C010097D1F024
:10468000FC016185728540E450E0CE0101960E94F4
:10469000E5900E944864882369F080915007882340
:1046A00009F44BC007C0F80161857285FB01808168
:1046B000811167C08114910409F468C0F401618517
:1046C0007285CE0101960E947B28CE0101960E9440
:1046D000B121882309F45AC0AB2879F001151105DE
:1046E00051F4E12CF12C01E020E030E040E050E01A
:1046F00061E070E00EC0F80112C0E114F10471F441
:10470000E12CF12C01E020E030E040E050E062E0FC
:1047100070E0CE0101960E942F0A38C0F701618532
:104720007285FB018081882389F120E030E041E03F
:10473000CE0101960E94521D29C06FE270E0CE01A9
:1047400001960E94AC90892B51F4F60121853285A7
:1047500043E050E060E4CE0101960E94A24CA11417
:10476000B10439F00115110509F09DCF60EA74E03C
:1047700008C0E114F10419F463EA74E002C0F7011F
:1047800093CFCE0101960E94D16494CFC05CDF4FDD
:104790000FB6F894DEBF0FBECDBFDF91CF911F9152
:1047A0000F91FF90EF90DF90CF90BF90AF909F90D0
:1047B0008F900895FF920F931F93CF93DF93EC0197
:1047C0001D821C821A821B82088119810115110524
:1047D00009F456C0F8018085863009F051C08091F7
:1047E0000E0A90910F0A892B09F44AC06BE875E014
:1047F000C8010E94DC64009719F0FC0181858A835E
:10480000F801808191810E946784F82E8B8363EE8A
:1048100076E0C8010E94DC64009779F51A816CEBA0
:1048200079E08DEA9AE00E94496B4AE050E06F2DF2
:104830008DEA9AE00E941A6C6AEB79E08DEA9AE0C0
:104840000E94496B4AE050E0612F8DEA9AE00E9495
:104850001A6C8DEA9AE00E946C6C40E050E063EEC6
:1048600076E0888199810E942C6663EE76E08881EB
:1048700099810E94DC64009719F009969D838C83CE
:10488000DF91CF911F910F91FF900895EF92FF92CA
:104890000F931F93CF93DF93809112089091130889
:1048A000C4E0D0E021E030E0AC0142235323452BAB
:1048B00029F0A9014095509584239523220F331F99
:1048C000219791F790931308809312080E94FC742B
:1048D00000910E0810910F082091100830911108D6
:1048E000601771078207930708F459C0012B022B48
:1048F000032B09F454C010920E0810920F08109266
:10490000100810921108E12CF12CE0912909F09186
:104910002A09EC0FFD1F038110E0228130E0418164
:1049200050E0608170E0C7010E94F8208FEFE81A24
:10493000F80A249684E0E816F10439F7C1E0D0E0E3
:1049400080910602909107028C179D0728F48091B0
:1049500006029091070201C0CE012091CC0D30914A
:10496000CD0DF901E80FF91F4AE050E060818DEAB2
:104970009AE00E941A6C67EA74E08DEA9AE00E945D
:10498000706C2196C131D105D9F68DEA9AE0DF919C
:10499000CF911F910F91FF90EF900C946C6CDF9171
:1049A000CF911F910F91FF90EF900895CF92DF92DA
:1049B000EF92FF920F931F93CF93DF93CDB7DEB7A4
:1049C000C054D1090FB6F894DEBF0FBECDBFDC01D5
:1049D0001296ED91FC911397309719F480E090E0D6
:1049E00040C07A018B016BE974E0808191810E9463
:1049F000DC646C01009791F3FC016185728540E4F1
:104A000050E0CE0101960E94E5906FE270E0CE0189
:104A100001960E94AC90892B61F4D60119962D91D4
:104A20003C911A9743E050E060E4CE0101960E9469
:104A3000A24C40E450E0B701CE0101960E94C7901D
:104A40000E944864882351F2809153079091540743
:104A5000039721F6B801CE0101960E94D16481E04E
:104A600090E0C05CDF4F0FB6F894DEBF0FBECDBF45
:104A7000DF91CF911F910F91FF90EF90DF90CF903A
:104A80000895EF92FF920F931F93CF93DF93CDB7CB
:104A9000DEB760970FB6F894DEBF0FBECDBF8C01B6
:104AA000CB01BA017901AE014F5F5F4F0E94334DD8
:104AB000A701BE016F5F7F4FC8010E94D624609698
:104AC0000FB6F894DEBF0FBECDBFDF91CF911F911F
:104AD0000F91FF90EF9008952F923F924F925F9227
:104AE0006F927F928F929F92AF92BF92CF92DF92FE
:104AF000EF92FF920F931F93CF93DF93CDB7DEB763
:104B000028970FB6F894DEBF0FBECDBF8C016B01A6
:104B10000E94E630019609F4D3C2D801ED91FC91D0
:104B20000284F385E02DC80119957C018F3FBFEF0A
:104B30009B0709F4C5C2D801ED91FC910684F78565
:104B4000E02D682FC8011995B2E2EB16F10429F4A3
:104B5000B601C8010E940731B5C2EDE2EE16F104BC
:104B600029F0C701C0970A9708F044C1D801ED9118
:104B7000FC910284F385E02DC80119957C018F3FDB
:104B8000BFEF9B0709F49CC28D9789F4D801ED9182
:104B9000FC910284F385E02DC80119957C010196F2
:104BA00009F48EC2EFEFFFEFF887EF8304C021E036
:104BB00030E038872F83C701C097A12CB12C0A970A
:104BC000C8F49AE0992E9A9CC0019B9C900D1124E8
:104BD000B701605371095B01A80EB91ED801ED91B0
:104BE000FC910284F385E02DC80119957C01C097E2
:104BF0000A9748F3BEE2EB16F104D1F0C7018F7DAE
:104C000085349105A9F0EF81F885AE9EC001AF9E75
:104C1000900DBE9E900D1124092E000CAA0BBB0B0B
:104C2000F60181879287A387B48782E08087D8C006
:104C3000B501BB0C880B990B0E94C08B2B013C016A
:104C4000FEE2EF16F104A1F5D801ED91FC9102848A
:104C5000F385E02DC80119957C01212C312C20E031
:104C600030E040E251E4C301B2010E941F8C4B01CD
:104C70005C01B70160537109072E000C880B990B7A
:104C80000E94C08BA50194010E94AD8D2B013C01B7
:104C9000B1E02B1A3108D801ED91FC910284F38523
:104CA000E02DC80119957C01C0970A97C0F202C097
:104CB000212C312CC7018F7D8534910509F042C02C
:104CC000D801ED91FC910284F385E02DC80119957E
:104CD0007C018B32910559F4D801ED91FC9102844D
:104CE000F385E02DC80119957C01B1E00CC08D97CA
:104CF00061F4D801ED91FC910284F385E02DC801A7
:104D000019957C01BFEFBE8302C0E1E0EE83A12CC8
:104D1000B12C8AE0982EC701C0978A309105B0F473
:104D20009A9C90019B9C300D11245C01A20EB31E35
:104D3000D801ED91FC910284F385E02DC80119950D
:104D40007C01E9CFB1E0BE83A12CB12CEF81F885C5
:104D5000BF01FF0F880B990B0E94C08BA30192012A
:104D60000E941F8C2B013C01B501BB0C880B990BD9
:104D70000E94C08B4B015C01FE816F2FFF0F770BF0
:104D8000880B990B0E94C08B9B01AC01C501B4013B
:104D90000E941F8C4B015C01B101330C880B990BF5
:104DA0000E94C08B9B01AC01C501B4010E94AD8D76
:104DB0009B01AC0160E070E080E291E40E94C68E4D
:104DC0009B01AC01C301B2010E941F8CD601199650
:104DD0006D937D938D939C931C9783E018968C9391
:104DE000D801ED91FC910684F785E02D6E2DC80168
:104DF000199522C0BBE5EB16F10409F060C0D8019B
:104E0000ED91FC910284F385E02DC80119958B3555
:104E1000910509F055C185E0F6018087C8010E941F
:104E2000E630D801ED91FC910284F385E02DC801B4
:104E300019958D35910519F480E090E043C1D801B2
:104E4000ED91FC910684F785E02D682FC801199536
:104E5000BB24BA940E94BF317C01009709F430C191
:104E6000BB2021F0F6019783868308C0D4011396F6
:104E70009C938E931297FC0195828482C8010E94B4
:104E8000E630B701C8010E946C25892B09F018C1D2
:104E9000C8010E94E630D801ED91FC910284F385AF
:104EA000E02DC8011995B12C47018C32910591F282
:104EB00021E030E08D35910509F089C086C0BBE75F
:104EC000EB16F10409F088C0D801ED91FC91028441
:104ED000F385E02DC80119958B37910509F0F0C0D5
:104EE00086E0F6018087C8010E94E630D801ED9186
:104EF000FC910284F385E02DC80119958D37910549
:104F000009F49ACFD801ED91FC910684F785E02D44
:104F1000682FC801199599249A940E94BF317C0189
:104F2000009709F4CDC0992021F0F601978386837C
:104F300008C0D50113969C938E931297FC01B582FD
:104F4000A482C8010E94E630B701C8010E9407315F
:104F5000019609F4B5C0C8010E94E630D701199640
:104F60008D919C911A9711969C938E931A961C92F0
:104F70001E921997D801ED91FC910284F385E02DE2
:104F8000C8011995CA9709F09BC0C8010E94E63074
:104F9000B701C8010E946C25019609F491C0C801AF
:104FA0000E94E630D801ED91FC910284F385E02D5A
:104FB000C8011995912C57018C32910509F4ADCF98
:104FC00021E030E08D37910511F420E030E08827B2
:104FD0009927821B930B76C0BEE6EB16F10411F500
:104FE00019821A821B821C82D801ED91FC910484E3
:104FF000F585E02D44E050E0BE016F5F7F4FC801B2
:105000001995049709F05CC044E050E069EA74E047
:10501000CE0101960E94D790009709F051C0F60189
:10502000108650C0F6E6EF16F10421F59E012F5FC1
:105030003F4F790185E0D9011D928A95E9F7D801A2
:10504000ED91FC910484F585E02D45E050E0B90137
:10505000C80119950597A1F545E050E06EEA74E0A6
:10506000C7010E94D790009759F521E0F6012087EB
:10507000118628C0F4E7EF16F10411F519821A829F
:105080001B821C82D801ED91FC910484F585E02DF2
:1050900044E050E0BE016F5F7F4FC801199504974F
:1050A00079F444E050E064EB74E0CE0101960E9494
:1050B000D790009729F421E0F6012087218702C0CC
:1050C0008FEF9FEF28960FB6F894DEBF0FBECDBFCF
:1050D000DF91CF911F910F91FF90EF90DF90CF90D4
:1050E000BF90AF909F908F907F906F905F904F9008
:1050F0003F902F900895CF93DF93EC0187E792E0E4
:10510000998388836115710559F0809126089091E3
:105110002708009729F00E94DC649B838A8302C0E1
:105120001B821A82CE01DF91CF910C9482226F9262
:105130007F928F929F92AF92BF92CF92DF92EF9227
:10514000FF920F931F93CF93DF93CDB7DEB72C97CA
:105150000FB6F894DEBF0FBECDBF4C01762E672E82
:105160006A0159018091240890912508892BA1F0AA
:1051700062E87AE08DEA9AE00E94496B60E4C4013B
:105180000E944822A701FF0C660B770BC4010E9406
:10519000BE218FEF9FEF9EC081E090E090932508A5
:1051A0008093240840E855E260E070E080E19AE0F6
:1051B0000E94996670921F0C80E19AE090931E0CF9
:1051C00080931D0C10922A0D10922C0D10922B0D15
:1051D0000115110541F00130110539F4FE2CEE24C2
:1051E000EE24EA9402C0FF24FA94C701A0E0B0E0E4
:1051F0008F839887A987BA8780E190E09C878B8707
:10520000A60160E070E049835A836B837C839E83B0
:105210008D834AE050E0672D762D8DEA9AE00E945A
:10522000136C6FE77AE08DEA9AE00E94496BBE0149
:105230006F5F7F4F8DEA9AE00E94DC228C016BE762
:105240007AE00E94496B4AE050E0B501C8010E9433
:10525000136C68E77AE0C8010E94496BBE01695F80
:105260007F4FC8010E94DC220E946C6CA114B10423
:1052700091F082E0A816B10409F5D092A50CC09275
:10528000A40C1092A70C1092A60CF092A90CE0921C
:10529000A80C86E010C0D092A50CC092A40CE1101E
:1052A00003C080E090E002C080E09FEF9093A70CE5
:1052B0008093A60C85E00E94FC6606C060E67AE05A
:1052C0008DEA9AE00E94496B1092250810922408FA
:1052D00080E090E02C960FB6F894DEBF0FBECDBFF5
:1052E000DF91CF911F910F91FF90EF90DF90CF90C2
:1052F000BF90AF909F908F907F906F9008957F9216
:105300008F929F92AF92BF92CF92DF92EF92FF92D5
:105310000F931F93CF93DF938C016A017B01722E51
:105320009A01AB01C701B6010E94168F882319F0BC
:1053300069EB74E027C046015701E894B7F82FEFF6
:105340003FEF4FE75FE7C501B4010E94168F81115F
:105350000DC02FEF3FEF4FE75FE7C501B4010E949B
:10536000B98B18161CF46DEB74E00CC02FEF3FEFF7
:105370004FE75FE4C701B6010E94C18E181694F48E
:1053800061EC74E0C801DF91CF911F910F91FF9004
:10539000EF90DF90CF90BF90AF909F908F907F90D5
:1053A0000C946D6B2FEF3FEF4FE75FECC701B60139
:1053B0000E94B98B87FDE4CF20E030E0A901C7014E
:1053C000B6010E94B98B87FF0AC06DE2C8010E9436
:1053D000426BEC01F7FAF094F7F8F09402C0C0E0E9
:1053E000D0E0B12C60E070E080E09FE37B1441F0FE
:1053F00020E030E040E251E40E94198EB394F6CFF1
:10540000A70196010E94AD8D6B017C010E94928ED6
:105410004B015C012AE0AB01BC01C8010E94826B18
:10542000C80FD91F7720C1F1C501B4010E94BE8BFE
:105430009B01AC01C701B6010E94AC8D6B017C01E0
:105440006EE2C8010E94426BC80FD91F20E030E015
:1054500040E251E4C701B6010E941F8C4B015C0180
:105460000E94928E6B01E12CF12C2AE0B701A6017B
:10547000C8010E94826BC80FD91FC701B6010E94E4
:10548000BE8B9B01AC01C501B4010E94AC8D6B01C8
:105490007C017A947110DACFCE01DF91CF911F9108
:1054A0000F91FF90EF90DF90CF90BF90AF909F90C3
:1054B0008F907F9008950F931F93CF93DF93082FC2
:1054C000EB01142F6091660B8091640B9091650B3A
:1054D0000E947C4A8091640B9091650BDC01ED91F8
:1054E000FC910190F081E02D602F19958091640B63
:1054F0009091650B0E94754A81111EC0412F6091E9
:10550000660B8091640B9091650B0E94A34ACE01BB
:10551000810F911D8C018091640B9091650BDC01D2
:10552000ED91FC910084F185E02D1995892B39F0DE
:10553000C017D10739F403C082E090E010C080E0CA
:1055400090E00DC08091640B9091650BDC01ED91B2
:10555000FC910284F385E02D19958993DCCFDF91CE
:10556000CF911F910F910895CF92DF92EF92FF920A
:105570000F931F93CF93DF931F921F92CDB7DEB788
:105580006C0161E00E946F22182F86FF1BC0C601CC
:105590000E94F6217A83698362E57AE08DEA9AE0D7
:1055A0000E94496B612F70E06F7BE12CF12C01E0D0
:1055B0009E012F5F3F4F41E050E0C6010E942F0A3D
:1055C00081E001C080E00F900F90DF91CF911F919B
:1055D0000F91FF90EF90DF90CF9008958F929F9260
:1055E000AF92BF92CF92DF92EF92FF920F931F93F1
:1055F000CF93DF931F921F92CDB7DEB76C017B0173
:1056000062E070E00E941A228C0197FF03C080E0E4
:1056100090E099C063E070E0C6010E941A22AC01DC
:105620001816190614F04FE350E0E982FA820130AF
:10563000110531F48F2D880F880BF9828A8303C0FE
:10564000023011052CF489819A8199279A838983E4
:10565000A981BA8124E630E00E94918D9A01550F0C
:10566000440B550B0E94258D49015A0189013A834B
:10567000298360E0C6010E946F22E82EF12CC6014A
:105680000E94F621092C000CAA08BB0868157905B0
:105690008A059B0559F4012BE9F182E0E816F10433
:1056A00059F085E0E816F104A9F506C0012B71F167
:1056B00082E0E816F10479F500E020E030E040E017
:1056C00050E061E070E0C6010E94F27000E09E01CF
:1056D0002F5F3F4F41E050E060E070E0C6010E9464
:1056E000F27086E0E816F10439F0EA94EF2821F030
:1056F00061E0C6010E94482249815A81052E000CB2
:10570000660B770BC6010E94BE2104C085E0E81637
:10571000F10431F418C085E0E816F104B9F6CCCFF5
:1057200082E0E816F104B1F362E0C6010E9448226B
:1057300000E020E030E040E050E062E070E0C601D0
:105740000E94F270E7CF0F900F90DF91CF911F91E1
:105750000F91FF90EF90DF90CF90BF90AF909F9010
:105760008F900895CF92DF92EF92FF920F93CF9395
:10577000DF9300D000D0CDB7DEB77C0161E00E949E
:105780006F2285FF40C0C82ED12CC7010E94F62190
:10579000382F292FF701808590E08A30910528F570
:1057A000FC018827E654FF4F8F4F0C947A8D698354
:1057B0007A83832F330F990B9C838B83822F220F45
:1057C000990B9E838D8300E09E012F5F3F4F43E046
:1057D00050E008C07A83698300E09E012F5F3F4F4D
:1057E00041E050E060E070E006C000E020E030E022
:1057F00040E050E0B601C7010E94F270B6016F7D33
:10580000C7010E94482226960FB6F894DEBF0FBE4D
:10581000CDBFDF91CF910F91FF90EF90DF90CF90B0
:1058200008958F929F92AF92BF92EF92FF920F9343
:105830001F93CF93DF938C017B0149015A010E9492
:10584000BF31EC01892BF9F083E0888789869A863D
:10585000AB86BC8688819981009711F00E942F82C7
:10586000C7010E94559099838883BE01C801DF91CA
:10587000CF911F910F91FF90EF90BF90AF909F90AD
:105880008F900C940F66DF91CF911F910F91FF9035
:10589000EF90BF90AF909F908F900895FB01019083
:1058A0000020E9F73197AF01461B570B20E00C941D
:1058B00081640F931F93CF93DF93EC012097F9F04E
:1058C0000A811B81888587FD06C08E819F81009794
:1058D00011F00E94592C8885843031F489859A858D
:1058E000009711F00E942F8288819981009711F012
:1058F0000E942F82CE010E942F82E801DFCFDF912C
:10590000CF911F910F9108950F931F93CF93DF9322
:10591000009791F08C010E94BF31EC01892B61F05E
:10592000C8010E94E630BE01C8010E946C250196A4
:1059300031F4CE010E94592C80E090E001C0CE01EC
:10594000DF91CF911F910F910895DF92EF92FF9217
:105950000F931F93CF93DF93CDB7DEB729970FB681
:10596000F894DEBF0FBECDBF8C017B01AE014F5F4F
:105970005F4F0E942652D82E882309F459C0F701A0
:105980008081803109F454C08FE78D83F8018581CF
:1059900096810E949B51B701F801858196810E94F2
:1059A000515140E06EE4F801858196810E942F51AB
:1059B00040E06B81F801858196810E942F5140E083
:1059C0006C81F801858196810E942F51F7018081B9
:1059D000803139F040E06D81F801858196810E9427
:1059E0002F51F801858196810E949B51B701F801E2
:1059F000858196810E945151F801408168E485813A
:105A000096810E942F5164E170E080E090E00E9456
:105A1000C274F8018081882331F06AE070E080E090
:105A200090E00E94C274F801858196810E949B518A
:105A30008D2D29960FB6F894DEBF0FBECDBFDF9136
:105A4000CF911F910F91FF90EF90DF900895EF920B
:105A5000FF920F931F93CF93DF93EC018C01085FAC
:105A60001F4F7E01699170E084E0759567958A9576
:105A7000E1F740E150E08DEA9AE00E94136CF701F3
:105A800060816F7070E040E150E08DEA9AE00E9422
:105A9000136CC017D10729F7DF91CF911F910F9198
:105AA000FF90EF900895CF93C82F462F61E070E0EC
:105AB0000E94045561E070E08C2F0E94DA5581113C
:105AC000F9CFCF910895CF93DF93EC01E881F9816D
:105AD0000284F385E02DCE0119950196B9F7DF9187
