:100000000C943C0C0C946D0C0C946D0C0C946D0CBD
:100010000C946D0C0C946D0C0C946D0C0C946D0C7C
:100020000C946D0C0C946D0C0C946D0C0C946D0C6C
:100030000C946D0C0C946D0C0C946D0C0C944C6821
:100040000C946D0C0C946D0C0C946D0C0C946D0C4C
:100050000C946D0C0C946D0C0C946D0C0C94603421
:100060000C946D0C0C941E950C94F4940C946D0CE3
:100070000C946D0C0C946D0C0C946D0C0C946D0C1C
:100080000C946D0C0C946D0C0C946D0C0C946D0C0C
:100090000C9465970C94D5960C941C970C94D19C59
:1000A0000C946D0C0C946D0C0C946D0C0C946D0CEC
:1000B0000C946D0C0C946D0C0C946D0C0C946D0CDC
:1000C0000C946D0C0C946D0C0C946D0C0C94CA94E7
:1000D0000C94A0940C946D0C0C9476940C944C9409
:1000E0000C946D0C9C106B118412BA12BA129B12F4
:1000F0005C11BA12BA12BA126B116B116B11211189
:10010000B810C5102111211143115311C51043110D
:100110002111E411CE11CE11E411E411F111FC1101
:10012000C511E411E41143191E195E195E195E1917
:100130005E195E195E195E195E195E19A4157718AD
:100140009C18861895185E195E195E195E195E195D
:100150005E195E1932193A1F2E1F2E1F3A1F3A1FC1
:10016000151F221F221F3A1F3A1F0C272927592724
:10017000612764275927382759276E277127482771
:100180007C277F27792C7C2C942CAB2CF32C062DF0
:10019000262DE72FEA2FD92FDD2FE32F2130EE2F49
:1001A000F22FF82FFC2F003006300A300E302130AD
:1001B000143018301C30B630BB30C030CA30D430A8
:1001C0004D31DE30E630EE30F83002310C311B318B
:1001D00025314D312F3139314331F738E638E9389F
:1001E000F138F138E938E638F138F138F138E638E5
:1001F000E638E638A23D9F3D9F3DA23DA23DA43D8D
:10020000A43D573DA23DA23D4E444E444E444E4473
:100210004B444B445244524452445244524452443C
:10022000524452444B444B4452445244524452442C
:10023000524450444E44986EF76FC76EE56EF76FA8
:10024000026FF76F316F4F6F6C6F9F6FCD6F627082
:1002500079706670667079706A7079706E706E70A1
:100260006E706E706E7066701F857684F183138475
:10027000768476841384F1837684768476844C84C1
:10028000418437846284578407634236B79BD8A77A
:100290001A39685618AEBAAB558C1D3CB7CC5763AB
:1002A000BD6DEDFD753EF6177231BF000000803F59
:1002B00008000000BE922449123EABAAAA2ABECD75
:1002C000CCCC4C3E00000080BEABAAAAAA3E0000E7
:1002D0000000BF000000803F0000000000084178DF
:1002E000D3BB4387D1133D190E3CC3BD4282AD2B16
:1002F0003E68EC8276BED98FE1A93E4C80EFFFBE0E
:1003000001C4FF7F3F00000000000C94D2600C94F9
:1003100027460C94B82A0C9443310C9452440C9404
:10032000E56E0C9461270C94E8450C94236C0C94B6
:100330006E660C94062D0C94FC2F0C9409460C94BC
:10034000FC110C9444640C94BD660C9490290C949C
:10035000C3930C944A9C0C941D610C9482290C94B8
:10036000C5100C94E6380C944D310C946F810C94AC
:10037000C0300C94A1210C94792C0C9482200C9404
:100380006C660C947A4C0C940E300C94A4150C945E
:10039000F82F0C94C5110C941B310C9462660C94CC
:1003A00050440C94CE910C9401610C9457800C94A1
:1003B0002E1F0C944D480C94DA8A0C9479700C948E
:1003C00095180C94EA2F0C94E9380C94D3600C9493
:1003D0000A300C94986E0C94E9600C94B8100C944C
:1003E00029270C94641F0C944C840C940A610C947F
:1003F000C1660C948B2A0C94E72F0C94BF5A0C9472
:1004000003540C946E700C944D830C94CD6F0C942B
:1004100037840C9422540C9438930C940B220C9433
:10042000151F0C949C100C9410210C946C6F0C9460
:100430004E440C94F7380C94BB300C940B460C943F
:100440004F830C94A23D0C947F270C944E350C9452
:100450006D9C0C94A82A0C94CE110C9484120C94CC
:1004600045210C9441840C94E6300C9499620C94D0
:1004700025310C94BB290C94942C0C943A1F0C94A9
:100480008D850C94CA300C941DA20C94F1110C941F
:1004900014300C94FC290C9452800C94ED600C9454
:1004A0004B440C94221F0C9464270C9439310C9407
:1004B000AA5A0C9432190C94D4300C94015C0C940C
:1004C000F1600C94026F0C94EE2F0C9460290C9444
:1004D0009D5A0C94489C0C94CD290C94C81F0C94E4
:1004E00043190C94985A0C94262D0C94F22F0C94CA
:1004F00051350C9486180C94CD850C94216C0C9479
:10050000B12F0C9457840C9402460C94F7710C9400
:100510008C640C9434290C940E540C9402310C9479
:10052000759C0C94599C0C94BA120C9443110C9425
:1005300003860C9490810C949F3D0C94316F0C9425
:100540001B920C94573D0C9448270C9405650C9411
:100550005E800C9462700C9449350C94794C0C9428
:100560009A660C9405540C9496650C9462840C94D1
:1005700007920C9415610C94DD2F0C94C61F0C94FB
:100580005C110C94052B0C94DB660C94296C0C9478
:100590007A2A0C9421300C9438270C94F1830C9413
:1005A000915A0C94F5290C9407460C94E32F0C9463
:1005B00080250C94E4110C949D860C940C270C94CB
:1005C0009F6F0C941C300C94C76E0C9432650C9485
:1005D000B6300C94EA980C9466700C948F870C9447
:1005E00000300C9435860C94B5610C94F76F0C9424
:1005F0006B110C9459270C9451870C9476840C94AD
:1006000075920C946F5D0C9406300C9463640C949A
:100610007C2C0C949B120C94EE300C949C180C9433
:10062000AB2C0C947E2E0C9435980C94B66B0C94D9
:100630008B540C9443290C9488670C9429920C9445
:10064000FF450C94F1380C94AC630C944F800C94DF
:1006500021110C94FD660C941F850C94F8300C94B9
:100660004C660C94D92F0C944B4C0C9415930C9411
:1006700020860C944D350C9477180C94499C0C945E
:100680002F310C946F0C0C940C310C94A43D0C94F1
:1006900018300C94A29C0C9471270C946A700C94E2
:1006A000A7620C9413840C941E610C945E190C9434
:1006B00053110C947C270C941E190C94C2920C9428
:1006C0007F250C9464610C946E270C94DE300C949E
:1006D000F8910C94F32C0C9405660C944F6F6364A2
:1006E000696E6F70737578585B00445259004641CB
:1006F0004E5F4F4E4C5900584F4E0048414C5400ED
:100700003D0050696E3A003D0050696E3A00204845
:10071000616C7465640A003D00526573746F7265A4
:10072000643A20003A204E6F2073746F7265642023
:1007300076616C756573202D2064656661756C74D7
:100740000A00416C72656164792041637469766561
:100750000A005475726E696E6720584F4E0A004148
:100760006C72656164792048616C7465640A00414B
:100770006C726561647920496E6163746976650A9B
:1007800000416C7265616479204163746976650A21
:10079000005475726E696E6720584F4E0A00584FAC
:1007A000464620736B69707065642E2050726576C2
:1007B00020636D643A005475726E6564206F6666DE
:1007C0002066726F6D3A00526573746F72656420B3
:1007D00066726F6D3A00536B697020477270004902
:1007E000676E6F7265642C206368616E6E656C2045
:1007F000636D643D0029003E003C00205061723D65
:10080000280020436D643D0020537566663D00203E
:100810005375623D00204974656D3D0052414D3D68
:1008200000476F7420495020616464726573733AA5
:1008300000276970205B69705B2C646E735B2C67AA
:10084000775B2C7375626E65745D5D5D5D27202D31
:1008500020736574207374617469632049500A00C1
:100860004661696C656420746F20636F6E666967AA
:100870007572652045746865726E6574207573695C
:100880006E6720444843502E20596F752063616E77
:1008900020736574206970206D616E75616C6C7970
:1008A00021005374617274696E67206C616E00245C
:1008B0006E6F6465730024666F726D6174002464EA
:1008C0006174617479706500302D31303000696E6B
:1008D00074656765720068737600636F6C6F720091
:1008E0004F4E2C4F46462C48414C542C52455354A5
:1008F0002C584F4E2C584F46462C544F47474C458A
:1009000000656E756D00666C6F617400322E312E5D
:10091000300024686F6D696500757074696D652CB1
:1009200066726565686561700036323737613434E8
:100930005F323032302D30352D3039004C696768E8
:10094000744875622000246E616D65007265616493
:1009500079002074727920616761696E20696E2068
:1009600035207365636F6E6473006661696C6564DE
:100970002C2072633D004177616974696E6720665F
:100980006F722072657461696E656420746F70693E
:10099000637300636F6E6E656374656420617320BA
:1009A00000202E2E2E0020757365723A003A000A40
:1009B000417474656D7074696E67204D5154542094
:1009C000636F6E6E656374696F6E20746F200024B0
:1009D000737461746500646973636F6E6E656374CC
:1009E0006564005573696E67204D515454207061E1
:1009F0007373776F72642066726F6D20636F6E66BB
:100A0000696700446576696365204E616D653A00EB
:100A1000526562696E6420737563636573732E201B
:100A2000495020616464726573733A004572726F55
:100A3000723A20726562696E64206661696C005268
:100A4000656E6577656420737563636573732E20C7
:100A5000495020616464726573733A004572726F25
:100A6000723A2072656E65776564206661696C0014
:100A70004E6F206C696E6B00416363657074696EC4
:100A80006720636F6D6D616E64732E2E2E0A002FCA
:100A900000496E3A20002D3E002000230050656E74
:100AA000646564207374617465207265747269652D
:100AB0007665643A003D004C454741435920494E14
:100AC0003A00736174006875650066616E006D6F51
:100AD000646500536574436D643A00536574466CF5
:100AE00061673A00436C72466C61673A0020566158
:100AF0006C3D002053746F726520007375666669E3
:100B000078436F64653A0052474200485356004CA0
:100B10004F57004D454449554D004849474800440A
:100B20004543524541534500494E43524541534583
:100B30000044495341424C454400454E41424C45D6
:100B4000440046414C5345005452554500584F46C9
:100B50004600544F47474C45005245535400547883
:100B60007432436D643A003E3E2000496E76616CFB
:100B7000696420636F6D6D616E64003E3E3E004EA1
:100B80006F204D414320636F6E66696775726564BF
:100B90003A20736574206669726D77617265277398
:100BA000204D41430A0000002200250028002B00B0
:100BB0002E003100340002010000050108010B0184
:100BC00000000A0B02090C0D0E08070304010000C7
:100BD0000000000000000000000000000000000015
:100BE00000000000000000000000000012111000D2
:100BF00000000000000000000000000000000000F5
:100C00000000000000002076616C7565206973208B
:100C10000020756E6B6E6F776E0A0020696E6163DF
:100C2000746976650A00206163746976650A00203C
:100C30004772703A0020696E6163746976650A00D4
:100C4000206163746976650A0020696E76616C695B
:100C500064004D6F64627573206F70206661696C0B
:100C600065640A003D005643230020636D643D0027
:100C70003D0056435F6865617423002D3E0050754A
:100C8000623A2000636D6400434F4F4C0048454179
:100C900054004155544F002D3E005075623A2000DB
:100CA000736574002D3E005075623A20002D3E00A1
:100CB0005075623A2000556E6B6E6F776E20636DD3
:100CC00064200A004F4646004F4E0053746174750D
:100CD000732064656666657265640A004E6F7420F1
:100CE000737570706F7274656420726567207479B3
:100CF00070650A00293A0028543A003D3E002069F8
:100D000073200044656C6574696E6720636F6E665E
:100D10002E2052414D207761733A00556E6C6F63FF
:100D20006B696E6720636F6E666967202E2E2E00DA
:100D3000536B697070696E672E2E004F4F4D210006
:100D40005D20000A5B003A004D41433A00202D3EF1
:100D50002000202D3E2000203A2000494E3A00205D
:100D600076616C3A00556E6B6E6F776E20636D64C2
:100D7000003A204E6F2073746F7265642076616C48
:100D8000756573202D2064656661756C740A002C8E
:100D9000002C00526573746F7265643A2000206302
:100DA0006D643D002D00312D7769726520636F758C
:100DB0006E743A200020416464723A0064657623C0
:100DC0000020616C69766500204E6F64653A0053BF
:100DD0006561726368696E6700312D77697265209D
:100DE00073686F727465640053746F726564204534
:100DF00058543A003E003E003C00543A004375729D
:100E000072656E74204C414E20636F6E6669672870
:100E100069702C646E732C67772C7375626E6574C1
:100E2000293A000A55736520746865736520636FFD
:100E30006D6D616E64733A202768656C7027202D94
:100E4000207468697320746578740A276D61632063
:100E500064653A61643A62653A65663A66653A3055
:100E600030272073657420616E642073746F72651F
:100E7000204D41432D6164647265737320696E2057
:100E8000454550524F4D0A276970205B69705B2CB5
:100E9000646E735B2C67775B2C7375626E65745D33
:100EA0005D5D5D27202D2073657420737461746906
:100EB000632049500A277361766527202D207361CE
:100EC000766520636F6E66696720696E204E5652A4
:100ED000414D0A2767657427205B636F6E666967FB
:100EE00020616464725D27202D2067657420636F24
:100EF0006E6669672066726F6D207072652D636F14
:100F00006E666967757265642055524C20616E6427
:100F10002073746F726520616464720A276C6F615C
:100F20006427202D206C6F616420636F6E66696793
:100F30002066726F6D204E5652414D0A27707764BD
:100F400027202D20646566696E65204D515454201C
:100F500070617373776F72640A276B696C6C2720FA
:100F60002D2074657374207761746368646F670AF9
:100F700027636C65617227202D20636C6561722088
:100F8000454550524F4D0A277265626F6F74272096
:100F90002D207265626F6F7420636F6E74726F6C58
:100FA0006C657200536F6674207265626F6F74694E
:100FB0006E672E2E2E00444D58696E20427566666F
:100FC000657220616C6C6F632065727200496E6996
:100FD0007420696E2063683A000952657365742055
:100FE000646F6E650009436865636B696E672066B0
:100FF0006F7220312D57697265206465766963656B
:10100000732E2E2E004453323438322D313030209E
:1010100070726573656E740009445332343832203F
:101020006572726F72004453323438325F3130303F
:101030005F4932435F544F5F31575F4252494447E3
:101040004520696E69740020416464723A006465E9
:1010500076230052414D3D000A312D77697265209B
:10106000000A6D71747420000A6D6F6462757320DC
:10107000000A696E7075747320000A6974656D7377
:1010800020000A436F6E666967757265643A002CCA
:10109000003D0050696E3A002C003D4C4F57005403
:1010A0006865726D6F3A004F6E65207769726520D2
:1010B00052656164790A00444D58206F757420733D
:1010C0007461727465642E204368616E6E656C7322
:1010D0003A2000444D5820696E2073746172746523
:1010E000642E204368616E6E656C733A0048444319
:1010F00031303830206E6F7420696E697469616CAC
:10110000697A6564006363733831313A20646174CD
:1011100061206E6F7420617661696C61626C65003C
:10112000636373383131206E6F7420696E6974693E
:10113000616C697A656400005EBCE2613FDD83C278
:101140009C7E20A3FD1F419DC3217FFCA2401E5F0A
:1011500001E3BD3E6082DC237D9FC1421CFEA0E115
:10116000BF5D0380DE3C62BEE0025CDF81633D7CEC
:1011700022C09E1D43A1FF4618FAA427799BC5846F
:10118000DA3866E5BB5907DB856739BAE4065819D2
:1011900047A5FB7826C49A653BD987045AB8E6A7C9
:1011A000F91B45C6987A24F8A6441A99C7257B3AB4
:1011B0006486D85B05E7B98CD2306EEDB3510F4E23
:1011C00010F2AC2F7193CD114FADF3702ECC92D3A2
:1011D0008D6F31B2EC0E50AFF1134DCE90722C6D7D
:1011E00033D18F0C52B0EE326C8ED0530DEFB1F084
:1011F000AE4C1291CF2D73CA947628ABF5174908DF
:1012000056B4EA6937D58B5709EBB536688AD49559
:10121000CB2977F4AA4816E9B7550B88D6346A2B40
:101220007597C94A14F6A8742AC896154BA9F7B63B
:10123000E80A54D7896B35436F6E6E6563746564D5
:101240002E00436F6E6E2E2061626F7274656400B3
:101250000A282B29464153544C4544000A282B297F
:10126000535049204C4544000A282B294D4F544FD8
:101270005220435452000A282B2941432048414917
:101280004552000A282B2943435338313120262068
:1012900048444331303830000A282D2952455354F0
:1012A0004152545F4C414E5F4F4E5F4D5154545F1D
:1012B0004552524F5253000A282D29484152445258
:1012C000455345542C207573696E6720736F66749F
:1012D000000A282D29434F554E544552000A282D07
:1012E00029444854000A282B294F57495245000ADF
:1012F000282B294D4F44425553000A282B29444D91
:1013000058000A282B294453323438322D313030DA
:10131000000A282D294672656552616D2070726938
:101320006E74696E670064653A61643A62653A6535
:10133000663A66653A3037000A4669726D776172BF
:1013400065204D4143204164647265737320006CD5
:10135000617A79686F6D652E7275000A436F6E66EB
:101360006967207365727665723A000A282B2957DF
:1013700041544348444F47000A282B29434F4E54B9
:10138000524F4C4C494E4F003230313130334C00CB
:1013900020432B2B2076657273696F6E3A003632CC
:1013A00037376134345F323032302D30352D3039BB
:1013B000000A4C617A79686F6D652E7275204C69F0
:1013C00067687448756220636F6E74726F6C6C65C9
:1013D0007220003D00494E3A000000200023002604
:1013E0000029002C002F003200000100000301063C
:1013F00001090153686F77002C002C006873763A5E
:10140000200000002100240027002A002D003000C9
:10141000330001010000040107010A01010210204C
:10142000200808102040102040800201020108041A
:1014300002010102040810204080804020100804AE
:101440000201800402018040201008040201080407
:10145000020101020408102040800102040810204B
:101460004080050505050705080808080202020274
:101470000A0A080804040404010101010101010130
:101480000303030303030303040707070C0C0C0CFB
:101490000C0C0C0C020202020606060606060606E4
:1014A0000B0B0B0B0B0B0B0B5265747279696E6790
:1014B0002056432074656D7020434D440A004D6FE3
:1014C0006462757320706F6C6C696E6720657272F0
:1014D0006F723D002D002050492056616C203A006B
:1014E0004D6F6462757320706F6C6C696E672065F8
:1014F00072726F723D002D0020464D2056616C20A7
:101500003A005265747279696E6720564320434DE4
:10151000440A005265747279696E672064696D6D62
:10152000657220434D440A004D6F646275732070EC
:101530006F6C6C696E67206572726F723D00205629
:10154000616C3A20004D423A20004E6F7420737552
:1015500070706F727465642072656720747970654D
:101560000A00496C6C6567616C20617267756D6516
:101570006E74730A004C4F57004D454449554D0059
:10158000484947480046414E5F4F4E4C590044522F
:1015900059004845415400434F4F4C004155544F6A
:1015A00000726177007175656974007377696E67A1
:1015B000006C6F636B004D6F746F722074696D65A2
:1015C0006F757400556E6B6E6F776E20636D64007F
:1015D0003A204E6F2073746F7265642076616C756B
:1015E0006573202D2064656661756C740A00526510
:1015F00073746F7265643A2000466F72636564208D
:10160000657865637574696F6E004C6F61646564BD
:10161000006C6F6164206661696C6564004E6F20C8
:1016200073746F72656420636F6E666967004C6FD8
:101630006164696E6720436F6E6669672066726FCA
:101640006D20454550524F4D000A726571756573A6
:1016500074204D51545420436F6E66696700536186
:1016600076656420746F20454550524F4D0053619C
:1016700076696E6720636F6E66696720746F2045B8
:101680004550524F4D2E2E0053617665640A00532B
:1016900065742064796E616D69632049500A004564
:1016A0004550524F4D20636C65617265640A00506D
:1016B000617373776F726420757064617465640A16
:1016C00000636F756C64206E6F7420706172736557
:1016D0003A2000557064617465640A002B002D0087
:1016E000485454502F312E3120256900204854543D
:1016F000502F312E310D0A486F73743A2025730D27
:101700000A4163636570743A202A2F2A0D0A436FD9
:101710006E6E656374696F6E3A20636C6F73650DEE
:101720000A0025730020000D0A0047455400666139
:10173000696C656420746F20636F6E6E6563740AF4
:10174000004552524F523A205365727665722072AC
:10175000657475726E65642000446F6E652E0A00B4
:101760004170706C79696E672E0A00436F6E66690E
:10177000672070617273696E67206661696C656469
:101780000A00676F7420436F6E6669670A00436FD3
:101790006E666967205552493A20687474703A2F12
:1017A0002F002044656661756C7420636F6E6669F6
:1017B000672073657276657220757365643A2000E0
:1017C0006C617A79686F6D652E7275002053617651
:1017D0006564002C20002E00757074696D650066CC
:1017E00072656568656170002473746174730020AC
:1017F0002D746172676574207A6F6E652D00204FBD
:10180000464600204F4E00204F46460020636D6440
:101810003A00204375723A00205365743A0020451F
:101820007870697265640A006363733831312069C6
:101830007320616C726561647920696E6974696195
:101840006C697A656400686463313038302069738C
:1018500020616C726561647920696E697469616C7C
:10186000697A656400696E00735F6F7574006D79E5
:10187000686F6D6500001DA211241FBECFEFD1E27D
:10188000DEBFCDBF00E00CBF19E0A0E0B2E0E2ECAB
:10189000F9E601E00BBF02C007900D92A835B10731
:1018A000D9F720E1A8E5B9E001C01D92AF3EB2072B
:1018B000E1F71CE0CCE3DCE000E006C02197010981
:1018C000802FFE010E94D6AFCB33D10780E00807FE
:1018D000A9F70E94A5A00C94DFB40C9400002F92ED
:1018E0003F924F925F926F927F928F929F92AF92B0
:1018F000BF92CF92DF92EF92FF920F931F93CF93FD
:10190000DF93CDB7DEB7AE970FB6F894DEBF0FBE4C
:10191000CDBF5C012B015DA34CA34901102F170122
:10192000D9A2C8A2EC2DFD2D309719F0808181112C
:1019300014C0D5011D968C91882321F0C5010D9608
:1019400099A388A321143104A1F4E8A1F9A1309747
:1019500031F4F5012788308C0CC0EF2851F48081D8
:101960008823B9F3CE0180960E94D5211C01892BD2
:1019700081F368A079A0D5011296ED91FC9113979F
:10198000C080D180FE013196FBA3EAA3E090E31072
:10199000F090E410E114F10421F4EFEEEE2EE0E11A
:1019A000FE2E6CE178E080ED9CE00E9405944AA157
:1019B0005BA14E195F09052E000C660B770B2AE020
:1019C00030E080ED9CE00E94539365E178E080ED8B
:1019D0009CE00E940594B60180ED9CE00E943E943C
:1019E0006FE078E080ED9CE00E940594B30180ED0B
:1019F0009CE00E943E9468E078E080ED9CE00E94CC
:101A000005944AE050E0B10180ED9CE00E94BC9357
:101A100062E078E080ED9CE00E9405944AE050E0AE
:101A2000B20180ED9CE00E94BC936BEF77E080ED0B
:101A30009CE00E940594D50112968D919C9113977C
:101A4000892B09F4A3C01B8E1A8E1D8E1C8E1F8E2F
:101A50001E8E8114910479F174014E01BAE18B0E4E
:101A6000911CC12CD12CECA1FDA1CE16DF061CF5DA
:101A7000F3E0CF16D104F9F0D7016D907D907D0190
:101A8000F401619271924F0169EF77E080ED9CE083
:101A90000E9405944AE050E0B30180ED9CE00E9472
:101AA000BC9367EF77E080ED9CE00E940594FFEF28
:101AB000CF1ADF0AD8CF65EF77E080ED9CE00E9477
:101AC000059480ED9CE00E944535D5011A968C91D5
:101AD000873009F44FC0E8A0F9A0E114F10409F43B
:101AE00058C068EC7CE0C7010E94B9A6892B09F4B4
:101AF0008BC764EC7CE0C7010E94B9A6892B09F46E
:101B000087C76BEF76E0C7010E94B9A6892B09F45D
:101B100083C767EF76E0C7010E94B9A6892B09F455
:101B20007FC76DE87CE0C7010E94B9A6892B09F444
:101B30007BC768E87CE0C7010E94B9A6892B09F43D
:101B400077C762E97CE0C7010E94B9A6892B09F436
:101B500073C76EEE76E0C7010E94B9A6892B09F41F
:101B60006FC76AEE76E0C7010E94B9A6892B09F417
:101B70006BC70FC011110DC066ED77E080ED9CE0E2
:101B80000E94059480ED9CE00E9445358FEF9FEF09
:101B900099C760E070E0C5010E9484243C01C50142
:101BA0000E94E73C7C01B4E04B165104B1F04CF4C8
:101BB0004114510409F4C6C1F3E04F16510491F0E9
:101BC00024C227E042165104A9F10CF41EC28AE097
:101BD000481651040CF462C018C2181619060CF409
:101BE00047C010C2D5011A968C91873009F40DC2F6
:101BF000C5010E946225C82ED12C853009F049C745
:101C000067EC77E080ED9CE00E9405944AE050E0AC
:101C1000B60180ED9CE00E94BC9380ED9CE00E94A8
:101C20004535F5018285853009F0ECC17CE0472E11
:101C3000512CEBC1D5011A968C91873009F4E5C17E
:101C4000C5010E946225C82ED12C8630A9F466EB0E
:101C500077E080ED9CE00E9405944AE050E0B601F8
:101C600080ED9CE00E94BC9380ED9CE00E94453595
:101C700062E0462E512CC9C16EE977E080ED9CE010
:101C80000E9405944AE050E0B60180ED9CE00E947D
:101C9000BC9380ED9CE00E944535FBC6F5010285B2
:101CA000073009F4B2C12CA13DA1232B21F08A8D6C
:101CB0009B8D892B21F485E090E09B8F8A8F39E002
:101CC0004316510439F48A8D9B8D91958195910924
:101CD0009B8F8A8FC5010E946A246AA77CA78DA763
:101CE0009EA7D5011B968D919C911C97009749F05A
:101CF000DC01ED91FC91028CF38DE02D19954C01E6
:101D000002C0802E912C0AA5BCA5BEA3CDA4EEA531
:101D1000EF77DE2E68E974E080ED9CE00E943E944F
:101D20004AE050E0B60180ED9CE00E94609361EAD9
:101D300074E080ED9CE00E943E944AE050E06CA587
:101D400080ED9CE00E94669368EA74E080ED9CE080
:101D50000E943E944AE050E06AA580ED9CE00E941B
:101D6000669380ED9CE00E94453594012150310935
:101D70003BA72AA732E02316310451F024F42114A2
:101D8000310431F039C0C1010797029760F134C0C6
:101D90008A8D9B8D800F911D8536910514F084E608
:101DA00090E09B8F8A8F8A8D9B8D97FF02C01B8E40
:101DB0001A8E8A8C9B8C65EA74E080ED9CE00E9410
:101DC0003E944AE050E0B40180ED9CE00E94BC9358
:101DD00080ED9CE00E944535A1E0B0E0BDA3ACA33E
:101DE000412C512C09C0EAA5FBA5329728F0F7E059
:101DF0008F16910409F003C62AA53BA522303105B0
:101E000008F003C137E023163104D9F088E0281622
:101E1000310419F193E02916310409F0F6C08A8DD6
:101E20009B8DC80ED91EDB8ECA8E8C8D9D8DAEA16A
:101E30008A0F911D9D8F8C8F8E8D9F8D800F911D90
:101E400017C08A8D9B8DC80ED91EDB8ECA8EBEA18F
:101E50008B2F90E09D8F8C8F09C08A8D9B8DEEA17A
:101E60008E0F911D9D8F8C8FDB8ECA8E802F90E000
:101E70009F8F8E8F8A8D9B8D8E36914014F01B8E96
:101E80001A8E8A8D9B8D97FF04C08DE691E09B8F03
:101E90008A8F8C8D9D8D8536910524F084E690E0A7
:101EA0009D8F8C8F8C8D9D8D97FF02C01D8E1C8EFB
:101EB0008E8D9F8D8536910524F084E690E09F8F6E
:101EC0008E8F8E8D9F8D97FF02C01F8E1E8E4E8C23
:101ED0005F8C8C8C9D8CCA8CDB8C6CEA74E080ED02
:101EE0009CE00E943E944AE050E0B60180ED9CE008
:101EF0000E94BC9361EA74E080ED9CE00E943E94F5
:101F00004AE050E0B40180ED9CE00E94BC9368EA96
:101F100074E080ED9CE00E943E944AE050E0B20103
:101F200080ED9CE00E94BC9380ED9CE00E944535D2
:101F300052E0252E312C23E030E03DA32CA3412C90
:101F4000512C63C0D5011A969C911A97973009F4C9
:101F50005CC0ECA1FDA1319709F057C01B960D9014
:101F6000BC91A02D109749F0ED91FC911197028C36
:101F7000F38DE02DCD01199502C0892F90E00197D6
:101F80000297D8F5C5010E946A24AB01F7E02F162D
:101F90003104E1F028E022163104B9F52A8D3B8D99
:101FA000592F5F778A8F5B8FB90177277D8F6C8F71
:101FB000642F70E07F8F6E8F522FBC01C5010E948D
:101FC000322483E090E09DA38CA31FC09A8C8B8D5C
:101FD0008F779078792F782B852F90E09D8F8C8F3D
:101FE000842F90E09F8F8E8F692DC5010E9432242F
:101FF000A3E0B0E0BDA3ACA308C0C101079702975E
:1020000020F447C544244394512CF50183849484DF
:102010008114910409F484C0F5E04F16510469F16C
:1020200026E04216510431F032E04316510409F023
:102030005EC03FC0EF2809F026C561E977E080ED7A
:102040009CE00E940594D5011B968D919C911C9754
:10205000C8A0D9A0DC01ED91FC910488F589E02DA0
:102060007101012F9E01265E3F4F4CA15DA161E0F1
:1020700070E019958C0166E001C51E141F04B4F4CC
:10208000C8A0D9A0D401ED91FC910488F589E02D78
:102090007101012F9E01265E3F4F4CA15DA162E0C0
:1020A00070E0C40119958C0165E0E8C46FE677E043
:1020B000ECC4C5010E9462258530B1F0C8A0D9A04A
:1020C000D401ED91FC910488F589E02D7101012F77
:1020D0009E01265E3F4F4CA15DA162E070E0C4010D
:1020E00019958C0162E0CAC46FE577E0CEC4C8A040
:1020F000D9A0D401ED91FC910488F589E02D7101FE
:10210000012F9E01265E3F4F4CA15DA1B201C4018B
:1021100019958C014114510409F4B3C4642DAEC463
:10212000BDE04B16510408F025C2F2018827EE5895
:10213000FF4F8F4F0C94D6AF882483942114310421
:1021400021F01E141F040CF0812CC1010797029787
:1021500008F410C2F501828590E08A30910508F0FC
:10216000A2C0FC018827E158FF4F8F4F0C94D6AFD7
:102170008C8D9D8D892B49F42CA13DA123303105F7
:1021800021F48FE7D5011A968C93C5010E946A2429
:10219000D62EC72E982E092FECA1FDA1E230F10515
:1021A000C9F0E330F10529F1319759F52A8D3B8DBE
:1021B000D22E97FF26C09F778A8F9B8F872F90E024
:1021C0009D8F8C8F33273F8F2E8F23E030E03DA3F0
:1021D0002CA317C09A8C0B8D0F779078092BCC8C81
:1021E00070E07F8F6E8F006883E090E09DA38CA3EA
:1021F00008C09A8C0B8D0F779078092BCC8CDE8CD5
:1022000000684D2D5C2D692D702FC5010E94322470
:102210002114310409F042C01E141F0424F4D1100B
:102220003DC062E005C0EF28C9F5DD20B9F161E0ED
:10223000C5010E94372560E07BE0C5010E9424387B
:102240002DC04A8D5B8D052E000C660B770BC501EA
:102250000E9432242114310409F51E141F0434F4A1
:102260008A8D9B8D892B61F462E007C0EF2841F4D1
:102270008A8D9B8D892B21F061E0C5010E94372555
:1022800060E07BE00DC04A8D5B8D052E000C660B77
:10229000770BC5010E943224112329F060E07AE017
:1022A000C5010E942438811065C1D5011A968C9110
:1022B000873009F0A6C35EC1E114F10409F4EBC351
:1022C00062E477E080ED9CE00E940594F501828550
:1022D000873009F0DEC3642DC5010E9437251E1426
:1022E0001F0444F4112331F060E071E0C5010E9445
:1022F000243887C3C5010E946A24DC01CB01D82E93
:10230000C92E9A2E0B2FF5012285233018F4213087
:1023100018F012C0243009F54997A105B1053CF425
:10232000112329F038E2D32EC12C912C00E04D2D41
:102330005C2D692D702F0EC00097A105B10539F0F5
:10234000F8E1F81720F0112311F028E2D22E4D2DDC
:10235000592FBD01C5010E9432244D2D5C2D692DE0
:10236000702F411551056105710509F449C0D5016A
:102370001A968C9190E08A309105F0F5FC0188273F
:10238000E757FF4F8F4F0C94D6AF112309F4F2C0DB
:10239000C5010E94E73C892B49F184C30F779A8ECF
:1023A0000B8F8C2D90E09D8F8C8F8D2D90E09F8FCB
:1023B0008E8F112329F060E073E0C5010E9424385C
:1023C00093E0892E912C6EC05B8F4A8F112329F0E8
:1023D00060E073E0C5010E94243888248394912C26
:1023E00061C05B8F4A8F112309F4C4C060E071E0C3
:1023F000C5010E94243856C3112309F453C3F6CFF4
:102400002AE030E040E050E0BA0180ED9CE00E941C
:10241000749364E277E080ED9CE00E940594F501FE
:1024200082858530C9F0A0F48150823078F584E649
:1024300090E09B8F8A8F1D8E1C8E9F8F8E8F0078D1
:1024400044E650E064E6702FC5010E943224B1CF0B
:10245000863059F08830D1F484E190E09B8F8A8FE8
:1024600044E150E060E070E019C084E690E09B8FAA
:102470008A8F44E650E060E070E0C5010E9432249B
:10248000112309F4AACF60E071E0A4CF84E690E0C4
:102490009B8F8A8F44E650E060E070E0C5010E94A7
:1024A000322494CF6E01FAE1CF0ED11CE12CF12C35
:1024B000D601ED91FD916D01FFA3EEA369E177E0F7
:1024C00080ED9CE00E9405944AE050E0B70180ED69
:1024D0009CE00E94BC9367E177E080ED9CE00E9465
:1024E00005944AE050E06EA17FA180ED9CE00E943F
:1024F000BC9380ED9CE00E944535FFEFEF1AFF0A88
:102500008E149F04A9F6CEC2C5010E9462258530B3
:1025100089F11B8E1A8E1D8E1C8E1F8E1E8E62E000
:10252000C5010E943725112329F160E071E0C50142
:102530000E9424381FC01E141F04E4F41B8E1A8E40
:102540001D8E1C8E1F8E1E8EC5010E946225863038
:1025500011F462E001C065E0C5010E94372560E02A
:1025600071E0C5010E9424386EE077E080ED9CE0C8
:102570000E940594CC8CDD8CC6010D2C000CAA0B9E
:10258000BB0B8EA39FA3A8A7B9A78E8C9F8C282DC9
:1025900030E0AFEFB0E00E94B3AF24E630E040E0BF
:1025A00050E00E9481AF79012F3F310521F01CF0EE
:1025B000EE24EA94F12CD5011A968C91843009F41A
:1025C0001FC150F4813099F1C8F0823009F4B4C0D1
:1025D000833009F49CC115C2883009F40AC238F46A
:1025E000863009F44EC1873009F410C10AC289301F
:1025F00009F4F9C18F3709F4ECC003C216141704AB
:102600000CF0FFC12A8D30E0AFEFB0E00E94B3AF15
:1026100024E630E040E050E00E9481AFB9012F3F56
:10262000310519F014F06FEF70E0C301E6C0B2E3BA
:10263000CB16D1040CF062C0161417040CF0E0C0E5
:1026400082E390E08C199D09889DD001899DB00D91
:10265000989DB00D11242FEF30E00E94EDAF28E8D7
:1026600033E140E050E00E9481AF622FC301039646
:102670000E9438690C8D1D8D2EEF31E0D8010E942B
:10268000EDAF22E330E040E050E00E9481AF69010D
:102690007A012E8D30E0AFEFB0E00E94B3AF24E6B8
:1026A00030E040E050E00E9481AFD9012F3F31057A
:1026B00019F014F0AFEFB0E096010E94E5AF2FEFF4
:1026C00030E040E050E00E9481AF69017A0198015A
:1026D000A5E6BFEF0E94E5AF22E330E040E050E026
:1026E0000E9481AF1FEF120F7601EFEFCE16D104DB
:1026F00099F194F1EE24EA94F12C2EC016141704EB
:102700000CF07EC02EA13FA148A559A52253310946
:1027100041095109ABE9B0E00E94A0AF22E330E0EB
:1027200040E050E00E9481AF14E6120F60E0C30168
:1027300003960E94386910C0161417040CF060C08C
:102740002FEF30E0D6010E94EDAF24E630E040E00C
:1027500050E00E9481AF122F20E030E040E050E0D6
:1027600060E070E0CE0101960E945796AA8DBB8D65
:102770002FEF3FEF0E94EDAF2DE631E040E050E05B
:102780000E9481AFDA01C9014E2D612F0E94489548
:102790006B017C01BC0188279927C3010E9438691D
:1027A00099278F2D7E2D6D2DC30101960E943869CA
:1027B0006C2DC30102960E9438698A859B850E9410
:1027C0005AA48F81988597FD1CC160E00E9451300A
:1027D00018C116141704A4F460E0C3010E943869FC
:1027E00060E0C30101960E94386960E0C30102966F
:1027F0000E9438696E2DC30103960E94386901C199
:102800006A8D7B8DC5010E94273CFBC0D5011496C3
:10281000ED91FC9115978085853009F0F2C0A68076
:10282000B7808091130B8F5F8093130BA114B104B9
:1028300011F1F50180858430C1F461857285CE0186
:1028400001960E948E40C8A0D9A07101012F9E015F
:10285000265E3F4F4CA15DA1B201CE0101960E94C0
:102860006F0CCE0101960E941E41D5011296AD90CB
:10287000BC901397DBCF8091130B81508093130B87
:10288000C0C06114710409F4BCC077FE06C0719425
:102890006194710801E010E002C000E010E0F62C45
:1028A00061E0862D0E945130012B69F0B1E04B169A
:1028B000510429F061E0E6E04E16510409F460E0AD
:1028C000062F10E011C0F1E04F16510451F091E0D5
:1028D00080E026E04216510409F090E0092F182FFD
:1028E00002C001E010E0602F8F2D0E94223069E0CD
:1028F00077E080ED9CE00E9405944AE050E0B3014F
:1029000080ED9CE00E94BC9367E077E05CC06114BE
:10291000710409F468C077FE06C07194619471086F
:1029200001E010E002C000E010E0F62C61E0862D2E
:102930000E9451308091A100887F8093A1008091F6
:102940009100887F809391008091A10082608093A4
:10295000A10080919100826080939100AA8DBB8D2F
:10296000012B99F0CD01BB0FAA0BBB0B9C01AD0154
:102970002456310941095109AFEFB0E00E94A0AFE0
:102980002CE93FEF4FEF5FEF08C02FEF30E00E94E0
:10299000EDAF24E630E040E050E00E9481AF8901D5
:1029A000B9018F2D0E948D3062E077E080ED9CE0D0
:1029B0000E9405944AE050E0B30180ED9CE00E9443
:1029C000BC9360E077E080ED9CE00E9405944AE0D3
:1029D00050E0B80180ED9CE00E94BC9380ED9CE04B
:1029E0000E9445350EC0442D6A8DC5010E94753B7D
:1029F00008C0442D6A8DC5010E94643A02C080E07F
:102A000001C081E090E05EC0EE24E394F12C1FC091
:102A100072E0E72EF12C1BC065E0E62EF12C17C00A
:102A200056E0E52EF12C13C04AE0E42EF12C0FC045
:102A30003BE0E32EF12C0BC02CE0E22EF12C07C082
:102A40009DE0E92EF12C03C08EE0E82EF12CC501AB
:102A50000E946225082F90E08E159F0509F499C801
:102A60006FED77E080ED9CE00E9405944AE050E035
:102A7000602F80ED9CE00E94669384C8C5010E948F
:102A80003725C8011FC061E877E080ED9CE00E9417
:102A900005948DEF7CC862E577E080ED9CE00E94B4
:102AA000059419CCD5011A968C91813009F062CD2C
:102AB0008C8D9D8D892B09F05DCD8FE7D5011A9600
:102AC0008C9358CDAE960FB6F894DEBF0FBECDBF37
:102AD000DF91CF911F910F91FF90EF90DF90CF90FA
:102AE000BF90AF909F908F907F906F905F904F902E
:102AF0003F902F9008954F925F926F927F928F92A6
:102B00009F92AF92BF92CF92DF92EF92FF920F937C
:102B10001F93CF93DF93CDB7DEB7C25AD1400FB624
:102B2000F894DEBF0FBECDBF2091440B3091450B12
:102B3000F9013B96E831F10508F0C0C38827ED564E
:102B4000FF4F8F4F0C94D6AF0E94D43100911710D5
:102B5000109118102091191030911A1006171707AC
:102B60002807390708F0AAC30FE414E0CE56DE4F59
:102B700019830883C259D140CC56DE4F188219827E
:102B80001A821B82C459D140CE57DE4F1983088365
:102B9000C258D140CC57DE4F188219821A821B824C
:102BA000C458D140CE59DE4F19830883C256D14054
:102BB000CC59DE4F188219821A821B82C456D1402A
:102BC000CE5BDE4F19830883C254D140CC5BDE4F0D
:102BD000188219821A821B82C454D14062EA78E0BA
:102BE00080ED9CE00E94059480ED9CE00E944535BC
:102BF000BE016E567E4F86E090E00E943376892BB0
:102C000009F467C163EB74E080ED9CE00E943E94A0
:102C10001A830983CC56DE4F88819981AA81BB81B2
:102C2000C459D1408B839C83AD83BE83CE01019672
:102C30000E94748DBE016E577E4F8AE090E00E9424
:102C40003376892B09F42EC169EC74E080ED9CE0A9
:102C50000E943E941A830983CC57DE4F8881998164
:102C6000AA81BB81C458D1408B839C83AD83BE8332
:102C7000CE0101960E94748DBE016E597E4F8EE08A
:102C800090E00E943376892B09F4DFC06FEC74E08A
:102C900080ED9CE00E943E941A830983CC59DE4F5C
:102CA00088819981AA81BB81C456D1408B839C8342
:102CB000AD83BE83CE0101960E94748DBE016E5B12
:102CC0007E4F82E190E00E943376892B09F477C031
:102CD00064ED74E080ED9CE00E943E941A830983C9
:102CE000CC5BDE4F88819981AA81BB81C454D140DD
:102CF0008B839C83AD83BE83CE0101960E94748D2D
:102D00001A830983CC5BDE4F88819981AA81BB81BC
:102D1000C454D1408B839C83AD83BE83CF57DF4F98
:102D200019830883C158D040CC59DE4F88819981DE
:102D3000AA81BB81C456D140CD57DF4F8883998388
:102D4000AA83BB83C358D040CE53DF4F1983088377
:102D5000C25CD040CC57DE4F88819981AA81BB816B
:102D6000C458D140CC53DF4F88839983AA83BB8357
:102D7000C45CD040CE5FDE4F19830883C250D1407F
:102D8000CC56DE4F88819981AA81BB81C459D1403C
:102D9000CC5FDE4F88839983AA83BB83C450D14024
:102DA0009E012F5F3F4FAE014F575F4FBE016E53E5
:102DB0007F4FCE018E5F9E4F0E94137585C01A8390
:102DC0000983CC59DE4F88819981AA81BB81C45681
:102DD000D1408B839C83AD83BE83CF57DF4F198354
:102DE0000883C158D040CC57DE4F88819981AA8191
:102DF000BB81C458D140CD57DF4F88839983AA83C4
:102E0000BB83C358D040CE53DF4F19830883C25CC5
:102E1000D040CC56DE4F88819981AA81BB81C459AC
:102E2000D140CC53DF4F88839983AA83BB83C45C92
:102E3000D040AE014F5F5F4FBE016F577F4FCE0155
:102E40008E539F4F0E945F753FC01A830983CC57F2
:102E5000DE4F88819981AA81BB81C458D1408B8380
:102E60009C83AD83BE83CF57DF4F19830883C1583E
:102E7000D040CC56DE4F88819981AA81BB81C4594C
:102E8000D140CD57DF4F88839983AA83BB83C35832
:102E9000D040BE016F5F7F4FCE018F579F4F0E9482
:102EA000B17512C01A830983CC56DE4F888199818F
:102EB000AA81BB81C459D1408B839C83AD83BE83DF
:102EC000CE0101960E94FC7580ED9CE00E94453584
:102ED0000BC16BED74E080ED9CE00E943E940FB658
:102EE000F894A895809160008861809360001092AA
:102EF00060000FBE8091B609811107C08BE999E08F
:102F00000E949B6181E08093B60988E599E09093E7
:102F10007A0D8093790D0E947574CE0101960E94FE
:102F2000BB5389819A810E94FA6646E050E067E8C7
:102F30007BE089E090E00E94672F8FE494E09A8321
:102F400089831B821C821D821E82CE0103960E94F1
:102F5000E4660E94F9668091790D90917A0DDC010A
:102F600092961D921D921D921C929597FC0116A29D
:102F700017A210A611A69A961D921D921D921C9240
:102F80009D9740EE5EE260E070E046AB57AB60AF0D
:102F900071AF40EA5FE060E070E0DA964D935D93D8
:102FA0006D937C93DD973E9624E1DF011D922A9577
:102FB000E9F726E0E7E8FBE0DC01189601900D92C6
:102FC0002A95E1F7FC01EE5BFF4F10820E94A87288
:102FD0008C01019709F04AC0CE0101960E94BB53B3
:102FE00089819A810E94FA666091790D70917A0DBB
:102FF000625F7F4FCE0101960E944094CE010396FE
:103000000E94E4666091790D70917A0D6A5E7F4F3F
:10301000CE0101960E944094CE0103960E94F26672
:103020006091790D70917A0D6E5E7F4FCE010196A1
:103030000E944094CE0103960E94EB660E94F966BE
:103040006091790D70917A0D625E7F4FCE0101968D
:103050000E9440948B819C81AD81BE818093750DCF
:103060009093760DA093770DB093780D99E288E157
:103070000FB6F894A895809360000FBE90936000FF
:10308000A895012B19F560E678E080ED9CE00E94A0
:10309000059461E378E080ED9CE00E94059486EF62
:1030A0009FEF9093450B8093440B0E94D431DC0139
:1030B000CB01805A9541AF4FBF4F8093171090932B
:1030C0001810A0931910B0931A10F8C061E278E0BC
:1030D00080ED9CE00E940594CE0101960E94CA8D6D
:1030E000CE0101960E94748D81E090E0E3C0809152
:1030F000130B8111D0C68091BE0981111AC060E006
:1031000070E080E090E00E948888D4C00E94D431B2
:1031100000911710109118102091191030911A1069
:103120000617170728073907D0F10E941880811168
:10313000C5C082E090E0BEC0A895CE55DE4F188293
:10314000C25AD140FE01EE56FE4F119211928EE00E
:10315000DF011D928A95E9F700914A0B10914B0B04
:103160000115110529F0C8010E940440811121C2F6
:103170000E9418808111A2C000914A0B10914B0B44
:103180000115110509F49AC0C8010E940440E82EF7
:10319000F12CB2E0EB16F1040CF025C28FC020E058
:1031A00030E043E050E061E48E010F5F1F4FC80143
:1031B0000E94539F67EF74E0C8010E94F3B3F801C7
:1031C00001900020E9F7CF01801B910B0896813810
:1031D000910538F50E941880882319F18091250EF9
:1031E0009091260E019611F481E090E09093260EC6
:1031F0008093250E8091250E9091260E9093AA0D16
:103200008093AB0D47E050E065EA7DE0C8010E9485
:103210008F7FAC014550510965EA7DE082EA0E944A
:10322000AF7F84E090E09093450B8093440B68E778
:103230007AE080ED9CE00E94059440C00E94D43169
:1032400000911710109118102091191030911A1038
:10325000061717072807390788F51092450B1092B3
:10326000440B2CC00E94D4310091171010911810FB
:103270002091191030911A100617170728073907DF
:1032800008F457CF1BC00E942588892B09F051CF25
:103290000E94D431DC01CB0188579C4EAF4FBF4F09
:1032A0008093171090931810A0931910B0931A10D0
:1032B00086EF9FEF9093450B8093440B0FB6F894E5
:1032C000A8958091600088618093600010926000F2
:1032D0000FBE8091440B9091450B181619060CF007
:1032E00059C10091790D10917A0D0115110509F45C
:1032F00051C10E94D4314B015C017801FEE3EF0E15
:10330000F11CF70180819181A281B381A501940113
:10331000281B390B4A0B5B0BCA01B901683E33E02D
:1033200073078105910508F446C028EE33E040E0BC
:1033300050E00E945FAF861A970AA80AB90AD7011F
:103340008D929D92AD92BC921397F80186A597A598
:10335000A0A9B1A969017A01CC0CDD1CEE1CFF1CEF
:103360008C159D05AE05BF0528F416A617A610AA54
:1033700011AA09C0821B930BA40BB50BF80186A7F9
:1033800097A7A0ABB1ABF80182A993A9A4A9B5A94D
:103390008C159D05AE05BF0528F412AA13AA14AA20
:1033A00015AA09C0821B930BA40BB50BF80182ABC5
:1033B00093ABA4ABB5ABF80186A597A5A0A9B1A91D
:1033C000892B8A2B8B2B69F4EE5BFF4F8081833036
:1033D00041F484E08083C8010E94A87201967C01B8
:1033E00002C0E12CF12CF80182A993A9A4A9B5A9E6
:1033F000892B8A2B8B2BA1F4EE5BFF4F80818330CE
:1034000011F081110DC01082F8013E9684E1DF01B8
:103410001D928A95E9F7C8010E94A87203967C0163
:10342000B2E0EB16F10429F0E4E0EE16F10409F045
:103430004AC0CE0101960E94BB5389819A810E94A5
:10344000FA666091790D70917A0D625F7F4FCE01BF
:1034500001960E944094CE0103960E94E46660911A
:10346000790D70917A0D6A5E7F4FCE0101960E94B0
:103470004094CE0103960E94F2666091790D70919E
:103480007A0D6E5E7F4FCE0101960E944094CE0170
:1034900003960E94EB660E94F9666091790D709127
:1034A0007A0D625E7F4FCE0101960E9440948B811F
:1034B0009C81AD81BE818093750D9093760DA09314
:1034C000770DB093780DF3E0EF16F10409F451C0D5
:1034D00064F431E0E316F10451F142E0E416F10442
:1034E00009F058C06FE37AE049C054E0E516F104F2
:1034F00009F442C085E0E816F10409F04BC060E72A
:103500007AE080ED9CE00E94059480ED9CE00E94B2
:1035100045350E94188081110E94F78D0E94D43198
:10352000DC01CB01805D9A48AF4FBF4F13C06CE503
:103530007AE080ED9CE00E9405940E941880811141
:103540000E94F78D0E94D431DC01CB0188519C4F41
:10355000AF4FBF4F8093171090931810A09319107E
:10356000B0931A1086EF9FEF9093450B8093440B16
:1035700011C06CE27AE0DDCF60E17AE080ED9CE0A2
:103580000E940594CE0101960E94CA8DCE0101963B
:103590000E94748D99E288E10FB6F894A895809303
:1035A00060000FBE909360002091440B3091450B5A
:1035B00072C460E070E0C8010E9491A08C019093F9
:1035C00035108093341063E07AE080ED9CE00E9437
:1035D0000594B80180ED9CE00E943E9480ED9CE053
:1035E0000E944535C5CD61E070E0C8010E9491A000
:1035F0003C0192E0E916F10491F062E0C8010E94FA
:103600006F3EFC0181849284F3E0EF16F10459F0DF
:1036100063E070E0C8010E9491A08C0107C08BE5B7
:10362000882E87E0982E8E010E551E4F40E150E007
:10363000BE016E567E4F86E390E00E94E187892BA3
:1036400051F425E0E216F1040CF038C3AE014E56F9
:103650005E4F7A0104C0CE018E569E4F7C0170925F
:10366000390E6092380E90923B0E80923A0E81E5B0
:1036700095E39093310E8093300E5E019EE7A91A78
:103680009EEFB90A40E150E066ED79E0C5010E9485
:10369000E7A66E01AEE9CA1AAEEFDA0A20E030E022
:1036A00041E050E060E2C6010E94539F40E250E0DA
:1036B0006FEC79E0C6010E94C9A66FEA79E080ED5F
:1036C0009CE00E940594B30180ED9CE00E943E9432
:1036D0006DEA79E080ED9CE00E9405944AE050E0BC
:1036E000B40180ED9CE00E94BC9366EA79E080ED35
:1036F0009CE00E940594B80180ED9CE00E943E94FD
:1037000061EA79E080ED9CE00E940594F8018081F7
:10371000811104C0E12CF12C00E010E08090341005
:10372000909035100E94188081114DC18091A30D99
:103730009091A40DDC01ED91FC910688F789E02DB4
:1037400019958823B1F081E090E09093260E809344
:10375000250E87E0EAE3F2E0DE01119601900D927A
:103760008A95E1F7FE013196AAEABDE0CE010896FE
:1037700037C06091380E7091390E8091A30D9091F1
:10378000A40D40913A0E50913B0EDC01ED91FC915D
:103790006115710521F00088F189E02D16C00684BD
:1037A000F785E02D2FE434E03A8329834090340EEE
:1037B0005090350E6090360E7090370E4B825C82C2
:1037C0006D827E82BE016F5F7F4F1995019709F46C
:1037D000BACF8EEF9FEF90933F0E80933E0E7EC246
:1037E00021912D938E179F07D9F70115110529F007
:1037F000E114F10421F086EF03C086E301C086EBFB
:103800008093B10D1092B20D8FE08093B30DF4014F
:1038100001900020E9F7CF01881999094096813875
:10382000910508F0C4C04FE050E065EA7DE0C401B6
:103830000E948F7FF60101900020E9F73197EC1983
:10384000FD09E80FF91F3296E138F10508F0AFC025
:10385000AC0165EA7DE0C6010E948F7FF501019011
:103860000020E9F73197EA19FB09E80FF91F3296B2
:10387000E138F10508F09BC0AC0165EA7DE0C501C7
:103880000E948F7F0115110579F1F8010190002048
:10389000E9F73197E01BF10B9C012E5F3F4FE20FE0
:1038A000F31FE138F10508F082C0AC0165EA7DE064
:1038B000C8010E948F7FE114F104B1F0F70101907B
:1038C0000020E9F73197EE19FF099C012E5F3F4F69
:1038D000E20FF31FE138F10508F069C0AC0165EAB9
:1038E0007DE0C7010E948F7FAC014550510965EA18
:1038F0007DE080E10E94AF7F0E94D4316093270E6B
:103900007093280E8093290E90932A0E60932B0EAD
:1039100070932C0E80932D0E90932E0E8091A30DFC
:103920009091A40DDC01ED91FC910084F185E02DD6
:103930001995892BC1F40E94D43100912B0E10915E
:103940002C0E20912D0E30912E0EDC01CB01801B10
:10395000910BA20BB30B88399A43A105B105F0F284
:103960008CEF9FEF20C0CE018F579F4F0E94F98AA6
:103970006430710581059105D1F48091A80D811104
:1039800011C00E94D43160932B0E70932C0E809343
:103990002D0E90932E0E10922F0E10923F0E10921D
:1039A0003E0E11C090E090933F0E80933E0E8091AA
:1039B000A30D9091A40DDC01ED91FC910488F58993
:1039C000E02D19958BC1009134101091351063E9E9
:1039D00079E080ED9CE00E940594B80180ED9CE0C8
:1039E0000E943E9480ED9CE00E94453581E08093EA
:1039F000BE0920E030E043E050E061E4CE018F57A3
:103A00009F4F0E94539F67EF74E0CE018F579F4FE7
:103A10000E94F3B3CE018F579F4F0E94357420E070
:103A200030E042E050E061E4CE018F579F4F0E94AA
:103A3000539F6BEF74E0CE018F579F4F0E94F3B3FB
:103A4000BE016F577F4F80ED9CE00E94633FCE0127
:103A50008F579F4F0E94357420E030E041E050E0E6
:103A600061E4CE018F579F4F0E94539F6BEF74E02C
:103A7000CE018F579F4F0E94F3B3BE016F577F4F08
:103A800080ED9CE00E94633FCE018F579F4F0E94C4
:103A90003574FE01EE5FFE4F119211921EE3DF01BD
:103AA000212F1D922A95E9F71A821982FE01339679
:103AB0008EE7DF011D928A95E9F720E030E041E0D2
:103AC00050E060E4CE018E5F9E4F0E94539F40E421
:103AD00050E06FEC79E0CE018E5F9E4F0E94C9A648
:103AE00040E850E06CE479E0CE0101960E94E7A640
:103AF000BE016F5F7F4FCE018E5F9E4F0E941F3EC3
:103B000020E030E041E050E060E4CE018E5F9E4F67
:103B10000E94539F40E450E066E479E0CE018E5F5E
:103B20009E4F0E94C9A640E850E06CE379E0CE01C8
:103B300001960E94E7A640E850E069E279E0CE01F4
:103B400001960E94C9A6BE016F5F7F4FCE018E5FB6
:103B50009E4F0E941F3E20E030E041E050E060E4D4
:103B6000CE018E5F9E4F0E94539F40E450E068EE6E
:103B700077E1CE018E5F9E4F0E94C9A640E850E0DB
:103B800069E179E0CE0101960E94E7A6BE016F5F70
:103B90007F4FCE018E5F9E4F0E941F3E20E030E09F
:103BA00041E050E060E4CE018E5F9E4F0E94539F43
:103BB00040E450E062E179E0CE018E5F9E4F0E94CA
:103BC000C9A640E850E06CE079E0CE0101960E9481
:103BD000E7A6BE016F5F7F4FCE018E5F9E4F0E94B2
:103BE0001F3E8091130B8F5F8093130BA091140BDA
:103BF000B091150B109709F443C080914102909148
:103C00004202AE014E5B5E4FFA01819391932EE129
:103C100011922A95E9F79E012E533F4FF9018193A6
:103C2000919311921A95E9F716960D911C91179799
:103C3000E090140BF090150BE114F10471F00115F4
:103C4000110559F0D80118968C918530A9F7C80153
:103C50000E940440882381F36FC020E030E041E0FF
:103C600050E060E4CE018E5F9E4F0E94539F40E47F
:103C700050E06FEA78E0CE018E5F9E4F0E94C9A6A9
:103C80008091130B81508093130B83E090E090930D
:103C9000450B8093440B0E94D431DC01CB01885743
:103CA0009C4EAF4FBF4F8093171090931810A09366
:103CB0001910B0931A1066E779E0BBCA64E070E0AF
:103CC00080914A0B90914B0B0E9491A07C0163EE76
:103CD00079E080ED9CE00E940594C1CC00913E0EFD
:103CE00010913F0E6AE679E080ED9CE00E94059419
:103CF0004AE050E0B80180ED9CE00E94BC9362E590
:103D000079E080ED9CE00E94059480ED9CE00E94AB
:103D100045350E94D431DC01CB0188579C4EAF4F12
:103D2000BF4F8093171090931810A0931910B09361
:103D30001A108CE090E0BECA60E0C8010E946F3E9D
:103D4000FC0181859285A385B4858A30910508F4AC
:103D500063C020E030E041E050E060E4CE018E5FDF
:103D60009E4F0E94539FF8016081718140E450E0B2
:103D7000CE018E5F9E4F0E9419B46DEF74E0CE01AC
:103D80008E5F9E4F0E94F3B340E450E06EEB78E00C
:103D9000CE018E5F9E4F0E94C9A6BE016E5B7E4F14
:103DA000CE018E5F9E4F0E941F3ECE53DF4F888113
:103DB000C25CD040882361F120E030E041E050E077
:103DC00060E4CE018E5F9E4F0E94539FD8016D919B
:103DD0007C9140E450E0CE018E5F9E4F0E9419B46A
:103DE0006DEF74E0CE018E5F9E4F0E94F3B340E40E
:103DF00050E066EB78E0CE018E5F9E4F0E94C9A630
:103E0000BE016E537F4FCE018E5F9E4F0E941F3EBC
:103E1000F801028113810CCFFC0140E250E08827B9
:103E2000E555FF4F8F4F0C94D6AF66E079E0CE0199
:103E30008E5B9E4F0E94E7A6CE53DF4F1882C25C76
:103E4000D04087CF61E079E0CE018E5B9E4F0E942B
:103E5000E7A640E450E060EE78E017C06AED78E055
:103E6000CE018E5B9E4F0E94E7A640E450E066EDD7
:103E700078E00BC06EEC78E0CE018E5B9E4F0E9426
:103E8000E7A640E450E068EC78E0CE018E539F4F07
:103E90000E94E7A65ECFC901CE55DE4F0FB6F8945B
:103EA000DEBF0FBECDBFDF91CF911F910F91FF906D
:103EB000EF90DF90CF90BF90AF909F908F907F90CA
:103EC0006F905F904F90089584E690E00895CF93AF
:103ED000DF93009709F455C0FC012081222309F4E7
:103EE00050C0EC0160EA7CE00E94B9A6892BA1F1E8
:103EF00064E87CE0CE010E94B9A6892B81F16EECCA
:103F00007AE0CE010E94B9A6892B61F16BE07BE0DB
:103F1000CE010E94B9A6892B41F167E07BE0CE017A
:103F20000E94B9A6892B21F16AEC7AE0CE010E94A9
:103F3000B9A6892B01F166EC7AE0CE010E94B9A600
:103F4000892BE1F062EC7AE0CE010E94B9A6892BC0
:103F5000C1F488E090E017C082E090E014C081E0F6
:103F600090E011C086E090E00EC083E090E00BC0CE
:103F700084E090E008C085E090E005C087E090E034
:103F800002C080E090E0DF91CF9108950C945AA494
:103F90000C945AA48F929F92AF92BF92CF92DF92CD
:103FA000EF92FF920F931F93CF93DF93E091140B47
:103FB000F091150B309709F465C0812EF02E932EE9
:103FC000C22EA52ED42EB72EE62EBC01CF010E9404
:103FD000303EEC01892B09F458C08885853009F002
:103FE00054C060E0CE010E946F3E8C0161E0CE01C2
:103FF0000E946F3EFC01C185D285D80119962D9192
:104000003C911A972130310569F02CF4232BE9F506
:104010006F2DCE0118C02230310549F0273031050F
:10402000A9F033C06F2DCE0103960E9438696E2D22
:10403000CE010E9438696D2DCE0101960E9438692B
:104040006C2DCE0102960E9438691FC0892BE9F0C1
:1040500080858530D1F4C681D7812097B1F08885DD
:10406000843061F40F2D182D2C2D392D4D2D5A2D06
:104070006E2D7B2D89859A850E94CA1F0A80DB815F
:10408000C02DEBCF80E090E002C081E090E0DF91B6
:10409000CF911F910F91FF90EF90DF90CF90BF9045
:1040A000AF909F908F900895CF92DF92EF92FF9202
:1040B0000F931F93CF93DF93E0914E0BF0914F0B33
:1040C0003097B9F090859530A1F469017A01EB0140
:1040D000682FCF010E946F3EFC012085243049F4F7
:1040E00081859285009729F09601A701BE010E9463
:1040F000CA1FDF91CF911F910F91FF90EF90DF903A
:10410000CF900895AF92BF92CF92DF92EF92FF923D
:104110000F931F93CF93DF938091470B9091480BA0
:10412000892B09F472C0E1E0F0E0C0E0D0E0CC24DB
:10413000C394D12CB6010C2E02C0660F771F0A94CF
:10414000E2F74091C3095091C4097F0184E0E80E71
:10415000F11CCF01B12C9C01A0912E02B0912F0235
:10416000A817B90720F420912E0230912F02A091B8
:104170002E10B0912F10A20FB31FAC90A091470B3F
:10418000B091480B9C0121503109A20FB31F0A2D99
:1041900010E02C9130E00217130729F0462B572B23
:1041A000AC92BB24B3940196E816F906A1F650939D
:1041B000C4094093C309BB2011F18091470B909132
:1041C000480BE80FF91F028110E0218130E04081A7
:1041D00050E03197608170E0CE010E9454200E942F
:1041E000D431DC01CB01845D9E4FAF4FBF4F809334
:1041F000BF099093C009A093C109B093C209219649
:10420000F701C430D10509F095CFDF91CF911F910F
:104210000F91FF90EF90DF90CF90BF90AF900895F7
:10422000CF92DF92EF92FF920F931F93CF93DF9382
:10423000CDB7DEB760970FB6F894DEBF0FBECDBF27
:104240007C016B01CA01B901AE014F5F5F4F0E9453
:10425000EA9FD701ED91FC910288F389E02D980146
:10426000AE014F5F5F4FB601C701199560960FB65B
:10427000F894DEBF0FBECDBFDF91CF911F910F919C
:10428000FF90EF90DF90CF900895CF92DF92EF9262
:10429000FF920F931F93CF93DF93CDB7DEB7C05438
:1042A000D1090FB6F894DEBF0FBECDBF6115710501
:1042B00019F480E090E035C069017A018B0140E497
:1042C00050E0CE0101960E9437B46FE270E0CE015B
:1042D00001960E94FEB3892B41F4980143E050E01F
:1042E00060E4CE0101960E94539F40E450E0B60185
:1042F000CE0101960E9419B40E9418808823C9F249
:104300008091440B9091450B049799F68091120B84
:104310008111CFCFB701CE0101960E941F3E81E0EF
:1043200090E0C05CDF4F0FB6F894DEBF0FBECDBF8C
:10433000DF91CF911F910F91FF90EF90DF90CF9081
:104340000895CF92DF92EF92FF920F931F93CF9336
:10435000DF93CDB7DEB760970FB6F894DEBF0FBE20
:10436000CDBF7C016B01BA01A901CE0101960E946B
:10437000F89ED701ED91FC910288F389E02D980118
:10438000AE014F5F5F4FB601C701199560960FB63A
:10439000F894DEBF0FBECDBFDF91CF911F910F917B
:1043A000FF90EF90DF90CF9008950F931F93CF93DE
:1043B000DF938C01FC01C081D1816FE270E0CE01FE
:1043C0000E9446B40097C1F0FC011192CF010E94F7
:1043D000671FEC016BEF7AE080ED9CE00E94059492
:1043E0004AE050E0BE0180ED9CE00E94BC9380ED6D
:1043F0009CE00E94453509C0CE010E94671FEC0178
:10440000892B19F0F80111821082CE01DF91CF9132
:104410001F910F9108952F923F924F925F926F924A
:104420007F928F929F92AF92BF92CF92DF92EF9244
:10443000FF920F931F93CF93DF93CDB7DEB72B97E8
:104440000FB6F894DEBF0FBECDBF4C016B01042F39
:1044500038872F83672B09F4DDC1F901309719F0F4
:104460008081811109C0D4011D968C91882321F08F
:10447000C4010D9698878F83EF81F885309721F4DA
:10448000F401E788F08C0AC080818823C9F3CE014B
:1044900007960E94D5217C01892B91F35601D50105
:1044A0008C91882349F0082E000C990B0E9496B33A
:1044B000F50181935F01F3CFD6011C911D3209F400
:1044C000CBC080ED810F8A3008F4C6C0153209F4E4
:1044D000F6C068EC7CE0C6010E94B9A6892B09F4FD
:1044E000E6C064EC7CE0C6010E94B9A6892B09F401
:1044F000E2C069E57BE0C6010E94B9A6892B09F4F8
:10450000AEC062E57BE0C6010E94B9A6892B09F422
:10451000AAC06BEF76E0C6010E94B9A6892B09F408
:10452000A6C067EF76E0C6010E94B9A6892B09F400
:10453000A2C06DE47BE0C6010E94B9A6892B09F4F4
:104540009EC06DE87CE0C6010E94B9A6892B09F4E3
:104550009AC068E87CE0C6010E94B9A6892B09F4DC
:1045600096C062E97CE0C6010E94B9A6892B09F4D5
:1045700092C06EEE76E0C6010E94B9A6892B09F4BE
:104580008EC06AEE76E0C6010E94B9A6892B09F4B6
:104590008AC068E47BE0C6010E94B9A6892B09F4B1
:1045A00086C062E47BE0C6010E94B9A6892B09F4AB
:1045B00082C06AE37BE0C6010E94B9A6892B09F498
:1045C00076C061E37BE0C6010E94B9A6892B09F49D
:1045D00072C068E27BE0C6010E94B9A6892B09F48B
:1045E0006EC06FE17BE0C6010E94B9A6892B09F479
:1045F0006AC06AE17BE0C6010E94B9A6892B09F472
:1046000066C063E17BE0C6010E94B9A6892B09F46C
:1046100062C06FE07BE0C6010E94B9A6892B09F455
:104620005EC01B3709F45FC0133209F461C043E078
:1046300050E06BE07BE0C6010E94D9A6892B09F40B
:104640005CC043E050E067E07BE0C6010E94D9A671
:10465000892B09F057C04CC0A12CB12C56C0E3E007
:10466000AE2EB12C52C074E0A72EB12C4EC065E026
:10467000A62EB12C4AC056E0A52EB12C46C047E06C
:10468000A42EB12C42C03AE0A32EB12C3EC02BE0A8
:10469000A22EB12C3AC09CE0A92EB12C36C08DE0E0
:1046A000A82EB12C32C01EE0A12EB12C2EC0AA24FF
:1046B000A394B12C2AC0A2E0AA2EB12C26C0F8E007
:1046C000AF2EB12C22C0E9E0AE2EB12C1EC070E19D
:1046D000A72EB12C1AC061E1A62EB12C16C052E152
:1046E000A52EB12C12C04EEFA42EBB24BA940DC03F
:1046F0003DEFA32EBB24BA9408C02CEFA22EBB24FE
:10470000BA9403C0AA24AA94BA2C6EE57BE080ED8B
:104710009CE00E9405944AE050E0B50180ED9CE0E9
:104720000E94BC9380ED9CE00E944535BFEFAB1624
:10473000BB0609F064F4EEEFAE16EFEFBE060CF028
:1047400069C0FCEFAF16FFEFBF0649F053C0A114DC
:10475000B10429F0C5010897029718F04BC0A12CAD
:10476000B12CCE0101961C01612C712C8A873B86ED
:104770002301AFEF4A1A5A0A3201F60180818823D9
:10478000D1F06F018191882329F08D3219F0805387
:104790008A30B8F7C6010E9492A6182F99876CE25A
:1047A00070E0C6010E94FEB36C01892B39F0FFEF67
:1047B000CF1ADF0A03C080E090E002C0812F998504
:1047C000D1018D939D931D01C114D10439F093E063
:1047D0004916510469F683E0682E712CCF80D88485
:1047E000D401ED91FC910190F081E02D2A853B856B
:1047F000A3010CC0CF80D884D401ED91FC9101902D
:10480000F081E02D20E030E040E050E0B501C4014F
:10481000199502C080E090E02B960FB6F894DEBFA9
:104820000FBECDBFDF91CF911F910F91FF90EF9001
:10483000DF90CF90BF90AF909F908F907F906F90C0
:104840005F904F903F902F900895DC011296ED916C
:10485000FC911397309721F081E09085953009F015
:1048600080E00895CF92DF92EF92FF92CF93DF9393
:10487000DC011696ED91FC911797309721F1208578
:10488000223009F56A017B01EC0163EF7AE080EDEB
:104890009CE00E9405946DEE7AE080ED9CE00E9421
:1048A00005942AE030E0B701A60180ED9CE00E946B
:1048B000749380ED9CE00E944535EE81FF81C186B6
:1048C000D286E386F486DF91CF91FF90EF90DF9060
:1048D000CF900895FC0186819781009789F0FC01B3
:1048E0002085223041F0253059F460E00E946F3E6F
:1048F000009731F0FC016185728583859485089568
:1049000060E070E0CB0108950F931F93CF93DF9386
:10491000FC01C481D581209791F08885823029F4EB
:10492000672B69F489859A8514C0853041F48B0121
:10493000CE010E94044090E0081719071CF080E0A7
:1049400090E007C0602FCE010E946F3EFC01818580
:104950009285DF91CF911F910F9108950F931F932F
:10496000CF93DF93EB0163E0FC01828193810E948E
:104970006F3E009741F1AE01409550954F6F60E05A
:1049800070E0FC0101851285238534854023512385
:1049900062237323418752876387748764EE7AE0CA
:1049A00080ED9CE00E9405944AE050E0BE0180ED5D
:1049B0009CE00E94BC9380ED9CE0DF91CF911F9121
:1049C0000F910C944535DF91CF911F910F91089570
:1049D0000F931F93CF93DF93EB0163E0FC01828180
:1049E00093810E946F3E009731F1AE01442760E051
:1049F00070E0FC010185128523853485402B512B05
:104A0000622B732B41875287638774876BED7AE043
:104A100080ED9CE00E9405944AE050E0BE0180EDEC
:104A20009CE00E94BC9380ED9CE0DF91CF911F91B0
:104A30000F910C944535DF91CF911F910F910895FF
:104A4000CF93DF93EB0163E0FC01828193810E94AD
:104A50006F3E009739F0FC018185928588278C2371
:104A60009D2302C080E090E0DF91CF910895CF9325
:104A7000C62F63E0FC01828193810E946F3E009704
:104A8000F9F0FC01418552856385748544276627CA
:104A900077274C2B418752876387748763ED7AE0D1
:104AA00080ED9CE00E9405944AE050E06C2F80ED80
:104AB0009CE00E94669380ED9CE0CF910C9445357C
:104AC000CF91089563E0FC01828193810E946F3E43
:104AD000009719F0FC01818508958FEF0895CF9319
:104AE000DF93EC01FB01248135814081518162819A
:104AF00073810E947493CE01DF91CF910895089540
:104B000008956F927F928F929F92AF92BF92CF92B1
:104B1000DF92EF92FF920F931F93CF93DF93CDB766
:104B2000DEB7C054D1090FB6F894DEBF0FBECDBFBB
:104B30003C014B01FC01E080F1806FEF74E0C701A4
:104B40000E94303E5C0164E075E0C7010E94303E87
:104B50006C01A114B10419F4892B09F4D3C069E0E4
:104B600075E0C7010E94303E8C016EE075E0C70120
:104B70000E94303E7C01F301738067EB7AE080EDA8
:104B80009CE00E9405944AE050E0672D80ED9CE097
:104B90000E94669365EB7AE080ED9CE00E940594AC
:104BA0004AE050E0B40180ED9CE00E94BC9380EDAF
:104BB0009CE00E944535C114D104D1F1F6018085F5
:104BC0008430B1F56185728540E450E0CE010196F4
:104BD0000E9437B40E941880882351F18091120BF3
:104BE000811126C06FE270E0CE0101960E94FEB3F3
:104BF000892B51F4F6012185328543E050E060E4D1
:104C0000CE0101960E94539F8114910409F469C05A
:104C10000115110509F462C0F8018085843009F09E
:104C20005DC0F80161857285FB018081811165C0DD
:104C3000A114B10409F466C0F5018085843009F03F
:104C400061C061857285CE0101960E948E40CE01C1
:104C500001960E9425248823E1F18928A9F00115F5
:104C6000110521F0F8018085843061F0C12CD12C30
:104C7000E12CF12C01E020E030E040E050E061E088
:104C800070E014C0F80118C0E114F10421F0F7013C
:104C90008085843081F0C12CD12CE12CF12C01E0F5
:104CA00020E030E040E050E062E070E0CE010196AC
:104CB0000E946F0C0EC0F70161857285FB01808137
:104CC000882339F020E030E041E0CE0101960E94D7
:104CD0000B22CE0101960E941E4114C063E175E0D3
:104CE0000CC0E114F10421F0F7018085843019F43F
:104CF00066E175E002C0F70195CFCE0101960E94F2
:104D00001F3E96CFC05CDF4F0FB6F894DEBF0FBEDC
:104D1000CDBFDF91CF911F910F91FF90EF90DF906A
:104D2000CF90BF90AF909F908F907F906F9008959D
:104D3000CF92DF92FF920F931F93CF93DF93EC01FB
:104D4000F62E8A0188819981892B09F412C1EC81A0
:104D5000FD81309709F40DC180819FEF691318C060
:104D600084FF05C14330510509F401C1F180F2947B
:104D70008FE0F8226DE97AE080ED9CE00E940594D6
:104D80004AE050E06F2D80ED9CE00E94669302C0E7
:104D900084FDEFC0EC81FD8181818F70D82EF816E3
:104DA00061F1CB806BE97AE080ED9CE00E94059494
:104DB0004AE050E06C2D80ED9CE00E94669369E92A
:104DC0007AE080ED9CE00E9405944AE050E06D2D71
:104DD00080ED9CE00E94669366E97AE080ED9CE0BD
:104DE0000E9405944AE050E06F2D80ED9CE00E9407
:104DF000669380ED9CE00E9445358F2D90E08D30CC
:104E0000910508F089C0FC01CC80DD808827EB5437
:104E1000FF4F8F4F0C94D6AFF6019181292F2F7041
:104E2000253009F479C088819981263028F4223010
:104E300069F46BE175E04CC0273029F02A3031F479
:104E400061E275E060C06AE175E04FC06EE075E058
:104E500034C069E075E0888199810E94303EF60196
:104E60002081422F4170322F309530FB20F91FC036
:104E700068E275E0888199810E94303EF6012081C8
:104E800021FB442740F931E0342730FB21F90FC0E2
:104E90006EE275E0888199810E94303EF6012081A2
:104EA00022FB442740F931E0342730FB22F92083EC
:104EB00031C06EE075E0888199810E94303E40E00B
:104EC00029C064E375E002C069E375E088819981D7
:104ED0000E94303EF601408141701CC06FE375E0D6
:104EE00002C065E475E0888199810E94303EF60138
:104EF0004081469541700EC06CE475E002C062E5E9
:104F000075E0888199810E94303EF601408142FB24
:104F1000442740F9009751F4EC81FD818F2D8F706B
:104F20009181907FF92EF82AF18221C0EC81FD81D8
:104F30000330110581F02F2D2F703181307FF32E3A
:104F4000F22AF182BC01CE010E943241EC81FD8146
:104F500080818F7E0BC081818F70982F9295907F7A
:104F6000892B8183EC81FD8180818061808381E058
:104F700001C080E0DF91CF911F910F91FF90DF90F2
:104F8000CF900895FF920F931F93CF93DF93EC017F
:104F90001D821C821A821B8208811981011511054C
:104FA00009F456C0F8018085863009F051C080911F
:104FB0001B1090911C10892B09F44AC068E877E017
:104FC000C8010E94303E009719F0FC0181858A8358
:104FD000F801808191810E9492A6F82E8B8364ED66
:104FE00075E0C8010E94303E009779F51A8161E9A9
:104FF0007AE080ED9CE00E9405944AE050E06F2D3D
:1050000080ED9CE00E9466936FE87AE080ED9CE082
:105010000E9405944AE050E0612F80ED9CE00E94E0
:10502000669380ED9CE00E94453540E050E064EDE1
:1050300075E0888199810E94DA3F64ED75E088818E
:1050400099810E94303E009719F009969D838C83C8
:10505000DF91CF911F910F91FF900895EF92FF92F2
:105060000F931F93CF93DF938091C3099091C4094D
:10507000C4E0D0E021E030E0AC0142235323452BD3
:1050800029F0A9014095509584239523220F331FC1
:10509000219791F79093C4098093C3090E94D4315A
:1050A0000091BF091091C0092091C1093091C20936
:1050B000601771078207930708F459C0012B022B70
:1050C000032B09F454C01092BF091092C00910922A
:1050D000C1091092C209E12CF12CE091470BF0912B
:1050E000480BEC0FFD1F038110E0228130E041816D
:1050F00050E0608170E0C7010E9454208FEFE81AF1
:10510000F80A249684E0E816F10439F7C1E0D0E00B
:1051100080912E0290912F028C179D0728F4809188
:105120002E0290912F0201C0CE0120912E103091BD
:105130002F10F901E80FF91F4AE050E0608180ED7F
:105140009CE00E94669369E575E080ED9CE00E941A
:105150003E942196C131D105D9F680ED9CE0DF91D6
:10516000CF911F910F91FF90EF900C944535DF91F7
:10517000CF911F910F91FF90EF900895EF92FF92C2
:105180000F931F93CF93DF93DC011296ED91FC9167
:105190001397309701F18A017B01EC0164E075E01F
:1051A000808191810E94303E0097A9F0FC0120850A
:1051B000243089F461857285E881F9810288F38958
:1051C000E02D9801A701CE01DF91CF911F910F91A2
:1051D000FF90EF90199480E090E0DF91CF911F91C4
:1051E0000F91FF90EF900895EF92FF920F931F930E
:1051F000CF93DF93CDB7DEB760970FB6F894DEBFDD
:105200000FBECDBF8C01CB01BA017901AE014F5F5A
:105210005F4F0E94EA9FA701BE016F5F7F4FC801E9
:105220000E94BE2860960FB6F894DEBF0FBECDBFB9
:10523000DF91CF911F910F91FF90EF900895FB01A7
:1052400024813581428153812417350758F44081E8
:105250005181DA01A20FB31F8C938481958101964D
:105260009583848380E00895CF93DF93EC01E881F8
:10527000F9810284F385E02DCE0119950196B9F7E5
:10528000DF91CF910895FC01A285B3851097A9F015
:1052900086859785029788F0CD010196938782874E
:1052A0006C93868597850197978786870284F38517
:1052B000E02D108281E090E0089580E090E0089574
:1052C000FC01868197818F3F2FEF920729F02FEF06
:1052D0003FEF378326830895A085B185109789F025
:1052E000248535852115310561F0CD010196918721
:1052F00080878C912150310935872487082E000C36
:10530000990B0895FC0186819781019639F481E01B
:1053100024853585232B19F480E0089581E00895D4
:10532000CF92DF92EF92FF920F931F93CF93DF9371
:105330007C016A018B01C0E0D0E0CC15DD0589F06D
:10534000D701ED91FC910284F385E02DC7011995F9
:105350008F3FBFEF9B0729F0F80181938F012196C2
:10536000ECCFCE01DF91CF911F910F91FF90EF9085
:10537000DF90CF900895CF93C62FDC01ED91FC9183
:105380000088F189E02D1995DC01ED91FC910190E7
:10539000F081E02D6C2FCF911994CF93DF93EC0126
:1053A0008E819F810196D9F4288539858A859B85D0
:1053B000820F931F81159041A0F4E881F981028446
:1053C000F385E02DCE011995813291056CF3E881CA
:1053D000F9810684F785E02D682FCE01199581E0CB
:1053E00001C080E0DF91CF910895062E000C770B6D
:1053F000FC01778366830895CF93DF93EC018E8160
:105400009F81019611F5E881F9810088F189E02DED
:10541000CE011995DC01ED91FC910084F185E02D20
:105420001995892BA1F0E881F9810284F385E02D9B
:10543000CE0119958132910534F3E881F981068412
:10544000F785E02D682FCE01199581E001C080E03D
:10545000DF91CF9108950F931F93CF93DF93EC01CA
:105460008B016BE575E00E943E9401151105B9F1C1
:10547000F80161918F01662391F1603220F0623270
:1054800011F06C3541F56CE5CE010E946D93F80189
:10549000319780818C30D1F044F48930D9F08A3052
:1054A000B9F0883029F762E616C0823259F024F448
:1054B0008D30F1F662E70FC08F3231F08C35C1F6D6
:1054C0006CE509C062E207C06FE205C066E603C092
:1054D0006EE601C064E7CE010E946D93C9CF62E21F
:1054E000CE010E946D9380E090E0DF91CF911F91FB
:1054F0000F910895FC012085318582859385AC014B
:105500004F5F5F4F53874287820F931F0E9441AFC7
:1055100081E090E00895FC01868197818F3F2FEF15
:10552000920729F02FEF3FEF3783268308952085D8
:10553000318582859385AC014F5F5F4F53874287EA
:10554000820F931F0E9439AF082E000C990B08950B
:10555000FC01868197818F3F2FEF920729F02FEF73
:105560003FEF378326830895808591850C94A5A706
:10557000CF92DF92EF92FF92CF93DF93EC018E8177
:105580009F818F3F2FEF920759F02FEF3FEF3F831F
:105590002E83DF91CF91FF90EF90DF90CF90089511
:1055A0000E94D4316B017C01A4EFCA0EA1E0DA1E87
:1055B000E11CF11CE881F9810088F189E02DCE0120
:1055C0001995DC01ED91FC910084F185E02D199590
:1055D000892B39F40E94D4316C157D058E059F0509
:1055E00048F3E881F9810088F189E02DCE01199511
:1055F000DC01ED91FC910284F385E02DDF91CF91E8
:10560000FF90EF90DF90CF901994EF92FF920F935D
:105610001F93CF93DF93009719F48FEF9FEF82C012
:10562000FC01E484F584D7010D911C91D801ED9122
:10563000FC910688F789E02DC8011995882369F344
:10564000D801ED91FC910084F185E02DC8011995F8
:10565000D801ED91FC91892B61F30284F385E02D53
:10566000C8011995EC010196C1F2F80185898823DA
:1056700039F04AE050E06C2F80ED9CE00E94669388
:10568000D70112968C91882309F44BC0C532D105FD
:1056900009F047C0D801ED91FC910084F185E02D1F
:1056A000C801199502975CF0D801ED91FC9106882C
:1056B000F789E02DC80119958111ECCFAECFD1E06B
:1056C000C0E0D801ED91FC910284F385E02DC80182
:1056D00019958F3FBFEF9B0709F49FCF9C01215481
:1056E00031092A31310530F09C01215631092A3126
:1056F000310538F48D2F8295807F829FC00D112453
:105700000AC0C0978A30910530F49D2F9295907F02
:10571000989FC00D1124D150A0F68C2FCC0F990B5F
:1057200001C0CE01DF91CF911F910F91FF90EF90BB
:105730000895CF92DF92EF92FF920F931F93CF9332
:10574000DF93CDB7DEB7EC970FB6F894DEBF0FBE90
:10575000CDBFDC012C91222309F451C06FE379E025
:105760000E94F6A69A8389837E01B3E0EB0EF11CBA
:1057700001E010E0D02EC12E6FE379E080E090E0F0
:105780000E94F6A6F701819391937F010E311105D6
:1057900039F400911D1010911E10E980FA8008C0A4
:1057A0000F5F1F4F892B31F7F4CFF801048115816A
:1057B00001151105A1F0D8016D917C91C7010E94DE
:1057C00009B4892B91F7D8011296ED91FC911397AA
:1057D000BE016F5F7F4F8D2D9C2D199506C06BE626
:1057E0007BE080ED9CE00E945D3E80ED9CE00E94AD
:1057F000453567E67BE080ED9CE00E940594EC96E1
:105800000FB6F894DEBF0FBECDBFDF91CF911F91D1
:105810000F91FF90EF90DF90CF900895CF9380EDA0
:105820009CE00E942992892BF1F180ED9CE00E947E
:105830000792C82F8A3029F08D3019F0883009F589
:1058400013C0E091030BF0E0EB53F54F10826DE5D0
:1058500075E080ED9CE00E943E9485EC9AE00E9409
:10586000992B1092030BDBCF68E080ED9CE00E9447
:105870006D938091030B882391F281508093030BE9
:10588000CECF682F80ED9CE00E946D93E091030BDA
:10589000EB3328F681E08E0F8093030BF0E0EB539F
:1058A000F54FC083BCCFCF9108958F929F92AF9256
:1058B000BF92CF92DF92EF92FF920F931F93CF93FD
:1058C000DF936115710509F4FEC0FB010085002E10
:1058D000000C110B220B330B0730110508F0F3C03D
:1058E000DB01EC01F8018827EE53FF4F8F4F0C943A
:1058F000D6AF60E675E006C019968C91882389F0D2
:1059000065E675E0CE01DF91CF911F910F91FF9079
:10591000EF90DF90CF90BF90AF909F908F900C94BE
:1059200029946AE675E0EECF19964D915D916D91DF
:105930007C911C972AE030E0CE01DF91CF911F913E
:105940000F91FF90EF90DF90CF90BF90AF909F901E
:105950008F900C9474931996CD90DD90ED90FC90FF
:105960001C9720E030E0A901C701B6010E9415AEE6
:1059700087FF09C060E775E0CE010E943E94F7FA08
:10598000F094F7F8F094C701B6010E94EEB04B0115
:105990005C012AE030E0AB01BC01CE010E945393D0
:1059A00061EF76E0CE010E943E94C501B4010E94F1
:1059B0001AAE9B01AC01C701B6010E9408B02DECE4
:1059C0003CEC4CE45DE30E9409B020E030E040E2B2
:1059D00051E40E947BAE0E94EEB04AE050E0CE015E
:1059E0000E94609370C019966D917C911A97CE01B8
:1059F000DF91CF911F910F91FF90EF90DF90CF90AB
:105A0000BF90AF909F908F900C942B2A16960D917B
:105A10001C9117976BE5CE010E946D93019619F4C6
:105A20008FEF9FEF52C00115110571F0B801CE0143
:105A30000E94552C0196A1F3F801028113810115F2
:105A4000110589F36CE2E7CF6DE52FC016960D9135
:105A50001C9117976BE7CE010E946D93019601F39D
:105A60000115110509F1F80160817181CE010E94D3
:105A70002B2A0196A9F26AE3CE010E946D9301964A
:105A800079F2B801CE010E94552C019649F2F80135
:105A9000028113810115110519F36CE2CE010E94F8
:105AA0006D930196E9F6BCCF6DE7CE010E946D9330
:105AB00021E030E0019611F020E030E088279927BE
:105AC000821B930B02C080E090E0DF91CF911F9189
:105AD0000F91FF90EF90DF90CF90BF90AF909F908D
