:100000000C9487120C94B8120C94B8120C94B81279
:100010000C94B8120C94B8120C94B8120C94B81238
:100020000C94B8120C94B8120C94B8120C94B81228
:100030000C94B8120C94B8120C94B8120C94B81218
:100040000C94B8120C94B8120C94B8120C94B81208
:100050000C94B8120C94B8120C94B8120C94A7AF6C
:100060000C94B8120C94648E0C943A8E0C94B812C2
:100070000C94B8120C94B8120C94B8120C94B812D8
:100080000C94B8120C94B8120C94B8120C94B812C8
:100090000C94108E0C94E68D0C94B8120C9458238A
:1000A0000C94B8120C94B8120C94B8120C94B812A8
:1000B0000C94B8120C94B8120C94B8120C94B81298
:1000C0000C94B8120C94B8120C94B8120C94BC8D09
:1000D0000C94928D0C94B8120C94688D0C943E8DF7
:1000E0000C94B81207634236B79BD8A71A396856E2
:1000F00018AEBAAB558C1D3CB7CC5763BD6DEDFD4A
:10010000753EF6177231BF000000803F0800000006
:10011000BE922449123EABAAAA2ABECDCCCC4C3EFC
:1001200000000080BEABAAAAAA3E00000000BF00EB
:100130000000803F0000000000084178D3BB4387E7
:10014000D1133D190E3CC3BD4282AD2B3E68EC82FB
:1001500076BED98FE1A93E4C80EFFFBE01C4FF7F80
:100160003F00000000000C944B330C947D150C9460
:10017000E85B0C9424150C949D140C9434910C940D
:10018000ED310C9433380C9463360C9401200C94AC
:10019000D79B0C9480140C94DD510C94E1800C944A
:1001A000556B0C940F320C9442A10C940B380C94A8
:1001B000F42F0C94A0C60C9411200C946F140C9482
:1001C00054310C94857B0C9443330C9427810C940C
:1001D00017160C94CA170C9479440C94C3A80C9469
:1001E000BB670C9421370C9418180C94CD4D0C94CB
:1001F0003F1F0C940C910C947F1D0C94779B0C94D6
:100200000F820C94E7540C94BD540C94BFA80C942A
:1002100073440C94F11E0C947BC10C94EF380C9435
:1002200054A10C947C4E0C9491170C943D190C9491
:100230002C830C94AF170C94B5A80C948EC10C941D
:10024000D6150C94D34C0C94E6440C949D180C9445
:100250005D370C94DD740C9461140C94D0120C94E2
:100260002A1A0C94EA380C9443380C945D310C949F
:10027000A0380C946E360C948D140C9424160C94A7
:10028000F5120C9499A80C946A410C94F2320C94D7
:10029000EA120C94253B0C94F9190C94D3700C942D
:1002A00033160C94F0350C94D4120C94A7C10C9412
:1002B000E61B0C949B140C948F220C9407380C941E
:1002C000912D0C9460300C9444150C9472C00C94D5
:1002D0009E1C0C9481A80C94D0A00C9479890C9449
:1002E000ADA80C94AB6A0C947A7F0C94C3380C9430
:1002F00095A80C943E370C9470360C946C160C94A4
:100300002D1F0C94EF680C94046D0C94A3A80C940E
:1003100061520C9472140C94D31B0C94D0380C942E
:10032000C0140C94C8370C94C5810C94096B0C94C0
:10033000E44C0C94FB670C9414830C94A8140C9458
:10034000A9380C94FC310C945F390C949ABA0C9433
:1003500031360C94CF680C94151F0C9442C20C9447
:1003600027220C94BA130C9406370C94CC680C9486
:1003700023B20C94301E0C94FA760C94E8520C9430
:10038000DA800C94DA680C9495800C948B4C0C9465
:1003900034340C94F6170C9428390C946A4C0C9451
:1003A000E6310C94BC1D0C94BA9B0C94AC140C94C8
:1003B00051310C944C880C9462310C94B3320C94EF
:1003C0005A310C94F9400C9473810C9449330C9479
:1003D000F27F0C94B2680C9481820C94C1B80C9496
:1003E00060530C943B370C94386C0C94B0A00C9474
:1003F000994D0C9475320C94D07F0C9434680C9405
:1004000057310C9447680C94326D0C943BBB0C94A0
:10041000886B0C9496160C9465150C9419520C94D8
:1004200028190C94A62E0C941C340C94DD680C94A2
:10043000FE6C0C946A150C9467150C94C16B0C94AB
:100440000B320C943E4E0C94261A0C9412150C94FC
:10045000D9830C94FB370C94C0680C9495320C949F
:10046000C7310C948DA10C94BD680C94AB4E0C94C8
:10047000613F0C9465330C947B7F0C94DE380C94B4
:10048000A7A80C94CEBC0C94B0160C94F4820C94D7
:10049000B1A80C9403330C94A9310C94A0310C94A2
:1004A000C17F0C94A86B0C944D160C94C2450C940F
:1004B000EB2F0C947B530C94C4130C9420680C9475
:1004C00061150C94F9350C9489140C94A0140C94B7
:1004D00078830C9457320C94687F0C945C530C9482
:1004E000281A0C9468820C94EA800C94F3C10C9442
:1004F000919B0C944E2A0C94E9730C9445360C9401
:10050000721A0C9418210C9453370C945F340C9489
:100510000A6D0C946A440C942F890C94EA220C9472
:10052000E4800C9482380C94FF6B0C94F2810C9450
:1005300018750C94B0140C94DDC10C948D9B0C9424
:10054000993E0C9433330C944E150C94B4240C94B3
:1005500048800C94C0150C94C6A80C94E47F0C94AD
:100560008B1C0C94BAC10C948BA80C94C0310C94C5
:10057000794C0C942A390C94DF6A0C946D380C94E5
:10058000FD380C94B8310C9460200C94B9A00C94F4
:1005900075140C94709B0C9416530C945A380C944C
:1005A000C7A80C9458220C94541B0C948FA80C943C
:1005B000BD130C941F6C0C9474C10C9426340C94D1
:1005C000ED210C94BF220C94E3810C94BA120C948C
:1005D00091140C94B9160C9447330C9496830C9494
:1005E000AA520C9467300C949FA80C94E4B30C941A
:1005F000BB540C941E360C9497200C9459360C94D2
:10060000E3200C945A810C943E820C9438530C9441
:10061000622B0C94F52C0C9490150C9467740C942C
:100620007B200C9437210C94F3310C942DC20C9444
:1006300052140C9407530C944D2A0C949FA00C94C4
:10064000EE2F0C94BBA80C949CB70C941E170C9422
:100650002C6D0C9487A80C94941F0C94371D0C944B
:1006600030820C94DE370C942C1A0C9403360C94C4
:10067000C2160C948D350C947F390C947A820C94AC
:10068000CFC10C940C360C940F1A4E414E494E4972
:100690005459494E46CDCCCC3D0AD7233C17B7D14F
:1006A0003877CC2B329595E6241FB14F0A000020F5
:1006B000410000C84200401C4620BCBE4CCA1B0E74
:1006C0005AAEC59D746364696E6F70737578585BBC
:1006D00000454F46003D00494E3A000000200023EF
:1006E00000260029002C002F00320000010000032A
:1006F0000106010901416374697661746520696EC0
:100700002000416374697661746520696E20002D54
:100710003E00200023002D3E00200050656E6465E1
:10072000643A2023002D3E00456D69743A002D3E49
:1007300000456D69743A002D3E00456D69743A00BC
:100740002D3E00456D69743A003D004C45474143DC
:100750005920494E3A0020666F7220286D73293A5D
:10076000004354524C3A205363686564756C6520AD
:10077000636D642000206D730020666F722000435B
:1007800054524C3A2041726D6564200020446973D4
:1007900061726D6564004354524C3A2000207469C4
:1007A0006D653A004354524C3A205265733A004307
:1007B00054524C3A206D6F6D656E7461727920658C
:1007C00076656E74002054533A0020543A00544821
:1007D00045524D3A00436C65616E696E6720616CED
:1007E00061726D20003D0050696E3A004354524CD6
:1007F0003A20436F6D6D616E6420626C6F636B6550
:100800006420627920647269766572004354524CA8
:100810003A204F4E3A416C726561647920416374AD
:100820006976650A004354524C3A2048414C543A88
:10083000416C726561647920496E616374697665A3
:100840000A004354524C3A20584F4E3A20446973A0
:1008500061626C65640A004354524C3A20584F4E12
:100860003A416C7265616479204163746976650A06
:10087000004354524C3A20584F464620736B6970DF
:100880007065642E205072657620636D643A004373
:1008900054524C3A205475726E6564206F6666201F
:1008A00066726F6D3A004354524C3A20526573742D
:1008B0006F7265642066726F6D3A004354524C3A11
:1008C0002049676E6F7265642C206368616E6E6587
:1008D0006C20636D643D0020457865633A004354A5
:1008E000524C3A204163746976653A004354524C45
:1008F0003A2048414C543A416C7265616479204910
:100900006E6163746976650A004354524C3A20580C
:100910004F4E3A2044697361626C65640A00435427
:10092000524C3A20584F4E3A416C726561647920BE
:100930004163746976650A004354524C3A20584F1B
:10094000464620736B69707065642E205072657620
:1009500020636D643A004354524C3A205475726ED1
:100960006564206F66662066726F6D3A004354526C
:100970004C3A20526573746F7265642066726F6DB5
:100980003A0044697361726D696E67206E6F7420FE
:10099000617574686F72697A6564004354524C3AA9
:1009A00020636F6D6D616E64206A75737420666F6D
:1009B0007220004354524C3A204E6F7420656E6F83
:1009C000756768206D656D6F727920666F7220673C
:1009D000726F7570206F7065726174696F6E004917
:1009E0006E76616C69642061726700496E76616C35
:1009F00069642061726700496E76616C6964206188
:100A00007267004354524C3A20556E6B6E6F776E8E
:100A10002073756666697800536B697070696E67DC
:100A2000207363686564756C65642067726F7570A8
:100A30002065786563004354524C3A206368616EC8
:100A40006E656C2066726F7A656E004354524C3A44
:100A5000206368616E6E656C2066726F7A656E00E9
:100A6000536B697070656420686F6D69652073747D
:100A7000756666002000205375623D00204974654C
:100A80006D3D004354524C3A2052414D3D00435479
:100A9000524C3A204F75744F664D656D6F72793ABE
:100AA0002000282D292000282B2920002076616C89
:100AB0007565206973200020756E6B6E6F776E0A06
:100AC000005D3D005B0020696E76616C696400200A
:100AD000004143544956453A00206F6B003A0020CC
:100AE0006661696C6564003A005265747279696E7A
:100AF0006720434D440A004354524C2F706F6C6C76
:100B00003A204F75744F664D656D6F72793A2000CB
:100B1000207365632072656D61696E696E6700534D
:100B200074617475732064656666657265640A0035
:100B30002D3E005075623A20002D3E005075623AFD
:100B400020002D3E005075623A2000000000000099
:100B5000636D640000736574000076616C0000646E
:100B6000656C000048535600005247420000666121
:100B70006E00006D6F6465006374726C006875656B
:100B80000000736174000074656D7000726177001D
:100B9000002D3E005075623A20002D3E00507562D7
:100BA0003A200053454E445354415455533A20552E
:100BB0006E6B6E6F776E20636D64200A000000001C
:100BC000000000000000004F4E0000000000000088
:100BD000004F4646000000000000005245535400FC
:100BE0000000000000544F47474C450000000048FB
:100BF000414C54000000000000584F4E000000001F
:100C0000000000584F4646000000000000494E43D7
:100C10005245415345000044454352454153450028
:100C200000454E41424C45000000004449534142BA
:100C30004C45000000554E465245455A4500004679
:100C40005245455A45000000004155544F000000F0
:100C500000000046414E5F4F4E4C59000048494746
:100C6000480000000000004D454449554D0000007B
:100C7000004C4F5700000000000000484541545F01
:100C8000434F4F4C004845415400000000000043D2
:100C90004F4F4C000000000000445259000000007B
:100CA0000000005247420000000000000048535678
:100CB00000000000000000444D580000000000004B
:100CC000444D58524742570000444D585247420045
:100CD000000050574D0000000000004D42555344A5
:100CE000494D0000544845524D4F00000052454CBC
:100CF00041590000000047524F5550000000005677
:100D00004354454D500000004D425553564300009A
:100D1000004143484149455200005350494C454425
:100D20000000004D4F544F52000000005049440055
:100D300000000000004D42555300000000005541E6
:100D40005254425244470052454C415950574D006D
:100D5000444D5852474257570056454E5453000091
:100D60000000454C455641544F5200434F554E5498
:100D70004552000048554D0000000000004D45520E
:100D800043555259000020002D3E00436F6E76659A
:100D90007274696E6720002D3E0057726F6E672077
:100DA00041737369676E6D656E74200052474278B7
:100DB0003A20004853562064697361626C65640090
:100DC00020764C6576656C3A0020436F6E76563A15
:100DD0000020436F6E76533A0020486F743A004308
:100DE0006F6C643A0020436F6E76657274656420A0
:100DF000563A00436F6E76657274656420533A000C
:100E00002D3E0057726F6E672041737369676E6D78
:100E1000656E7420002D3E0057726F6E672041731F
:100E20007369676E6D656E74200020537566663A4F
:100E3000002041543A0053746F7070696E67204906
:100E40006E7075747300206973200044656C65745E
:100E5000696E6720636F6E662E2052414D20776168
:100E6000733A0053746F70706564006E6F746869D4
:100E70006E6720746F2073746F700053746F70709E
:100E8000696E67206368616E6E656C73202E2E2E0E
:100E90000043616E206E6F7420636C65616E202D5F
:100EA000206C6F636B656400436F6E6669672063D7
:100EB00068616E676564206C6F63616C6C792C206F
:100EC000706F7274616C2064697361626C65640038
:100ED0002F636F6E6669672E6A736F6E007265624C
:100EE0006F6F742000436D643A20002F636F6D6D47
:100EF000616E642F002F72616D2F002F6974656D14
:100F00002F002F6974656D2F0022687474703A2F5A
:100F10002F6C617A79686F6D652E72752F707761AD
:100F200022004C6F636174696F6E3A20687474704C
:100F30003A2F2F003F6D61633D002669703D00260A
:100F4000706F72743D00266E616D653D002F00204C
:100F5000004D5154543A20436F6D706C6574652E8A
:100F60002052656D6F766520746F70696320002470
:100F7000636F6D6D616E64004D5154543A20436C43
:100F800065616E55702072657461696E6564207468
:100F90006F7069632000220022004F75744F664D08
:100FA000656D6F727921005D20003A5B004D5154F0
:100FB000543A005D00456D7074793A205B000A0078
:100FC0003A004D41433A00554450205379736C6FB9
:100FD0006720696E697469616C697A65642E0A00BC
:100FE0005379736C6F6720706172616D733A004D55
:100FF0005154543A20736574206669727374206288
:10100000726F6B65720043757272656E74204C412D
:101010004E20636F6E6669672869702C646E732C4E
:1010200067772C7375626E6574293A000A5573658B
:1010300020746865736520636F6D6D616E64733ACB
:10104000202768656C7027202D20746869732074D0
:101050006578740A276D61632064653A61643A6259
:10106000653A65663A66653A3030272073657420C4
:10107000616E642073746F7265204D41432D61640D
:10108000647265737320696E20454550524F4D0A56
:10109000276970205B69705B2C646E735B2C6777CB
:1010A0005B2C7375626E65745D5D5D5D27202D2020
:1010B000736574207374617469632049500A2773DF
:1010C00061766527202D20736176652063757272C5
:1010D000656E7420636F6E66696720696E204E5678
:1010E00052414D3B204F4E7C4F4646202D20656E91
:1010F00061626C652F64697361626C6520617574EF
:101100006F736176650A2767657427205B636F6E6E
:1011100066696720616464725D27202D20676574AD
:1011200020636F6E6669672066726F6D20707265EE
:101130002D636F6E666967757265642055524C2029
:10114000616E642073746F726520616464722C2018
:101150004F4E7C4F4646202D20656E61626C652F98
:1011600064697361626C6520646F776E6C6F616433
:10117000206F6E20737461727475700A276C6F61D2
:101180006427202D206C6F616420636F6E66696731
:101190002066726F6D204E5652414D0A277077645B
:1011A00027202D20646566696E6520616E6420735A
:1011B000746F7265204D5154542070617373776F52
:1011C00072640A276F746170776427202D2064652C
:1011D00066696E6520616E642073746F7265204865
:1011E000545450204150492070617373776F72647A
:1011F0000A276C6F67205B73657269616C5F6C6F47
:10120000676C6576656C5D205B7564705F6C6F679D
:101210006C6576656C5D27202D20646566696E655A
:10122000206C6F67206C6576656C2028302E2E3719
:10123000290A276B696C6C27202D20746573742034
:101240007761746368646F670A27636C65617227EE
:10125000202D20636C65617220454550524F4D0A28
:10126000277265626F6F7427202D207265626F6F21
:101270007420636F6E74726F6C6C657200536F666E
:1012800074207265626F6F74696E672E2E2E005225
:10129000414D3D000A5379736C6F6720000A6D71F0
:1012A000747420000A696E7075747320000A697482
:1012B000656D7320000A436F6E66696775726564B9
:1012C0003A002F00496E3A2000496E697469616CDA
:1012D000697A696E6720496E70757473003B003DD2
:1012E0000050696E3A003B003D4C4F570054686512
:1012F000726D6F3A0042726F6B65727320636F6E2E
:10130000666967757265643A004170706C79696EE0
:101310006720636F6E666967004C6F616465642067
:10132000455441473A004E6F2073746F72656420D4
:10133000636F6E666967004C6F61646564206672F6
:101340006F6D20454550524F4D006C6F61642066B3
:1013500061696C6564004A534F4E2064657465632F
:10136000746564004C6F6164696E6720436F6E66DC
:1013700069672066726F6D20454550524F4D00439E
:101380006F6E666967206175746F736176653A0088
:101390000A5379736C6F67206465627567206C65AA
:1013A00076656C3A0053657269616C20646562759C
:1013B00067206C6576656C3A0053617665640A0057
:1013C0005365742064796E616D69632049500A0029
:1013D0004F54412050617373776F7264207570644D
:1013E000617465640A004E6F204950206164726523
:1013F000737300205361766564004C6F6164696E9D
:1014000067204854545020636F6E666967206F6E82
:1014100020737461727475703A000000000000005F
:10142000000000004F4E00000000000000004F468A
:101430004600000000000000524553540000000028
:101440000000544F47474C450000000048414C54B1
:10145000000000000000584F4E0000000000000097
:10146000584F4646000000000000494E4352454197
:101470005345000044454352454153450000454E05
:1014800041424C450000000044495341424C450054
:101490000000554E465245455A45000046524545C6
:1014A0005A45000000004155544F00000000000064
:1014B00046414E5F4F4E4C59000048494748000096
:1014C000000000004D454449554D000000004C4FC0
:1014D0005700000000000000484541545F434F4F53
:1014E0004C0048454154000000000000434F4F4C61
:1014F00000000000000044525900000000000000FD
:10150000524742000000000000004853560000000F
:1015100000000000636F756C64206E6F7420706152
:101520007273653A2000557064617465640A004501
:101530004550524F4D20636C65617265640A004DE1
:101540005154542050617373776F726420757064C6
:10155000617465640A002B002D00455461673A20D0
:101560000047657420455441473A20004854545080
:101570002F312E310025733A2025730D0A002048A3
:101580005454502F312E310D0A486F73743A202570
:10159000730D0A4163636570743A202A2F2A0D0A7D
:1015A000436F6E6E656374696F6E3A20636C6F7320
:1015B000650D0A0025730020000D0A004745540000
:1015C0006661696C656420746F20636F6E6E65631D
:1015D000740A004552524F523A2053657276657232
:1015E0002072657475726E65642000436F6E666963
:1015F00067206E6F74206368616E6765640A0044DB
:101600006F6E652E0A00436F6E66696720706172A7
:1016100073696E67206661696C65640A004765746A
:101620002061626F7274656400676F7420436F6E2F
:101630006669670A006874747020726574636F6409
:10164000652000667265652000436F6E66696720DD
:101650005552493A20687474703A2F2F002044651F
:101660006661756C7420636F6E666967207365725E
:1016700076657220757365643A20006C617A7968CA
:101680006F6D652E7275000A282D294352595054EA
:10169000000A282D2950554C5345206F6E20504983
:1016A0004E3132000A282D2943414E000A282D29A7
:1016B0004D455243555259000A282D294D554C5439
:1016C0004956454E54000A282B2950574D5F524524
:1016D0004C4159000A282D294D444E53000A282D0B
:1016E0002955415254425249444745000A282B2962
:1016F0005359534C4F47000A282D29504944000A9A
:10170000282D294D43503233303137000A282D29F6
:101710004152544E4554000A282B294F5441000A87
:10172000282D29535049204C4544000A282D294D85
:101730004F544F5220435452000A282B2941432032
:101740004841494552206F6E2053657269616C3380
:10175000000A282D2943435338313120262048449C
:101760004331303830000A282B2952455354415216
:10177000545F4C414E5F4F4E5F4D5154545F455244
:10178000524F5253000A282D294841524452455382
:1017900045542C207573696E6720736F6674000A58
:1017A000282D29434F554E544552000A282D2944CF
:1017B0004854000A282D294F57495245000A282D20
:1017C0002949504D4F44425553000A282D294D4F69
:1017D00044425553000A282D29444D58000A282B0D
:1017E0002957697A6E657435783030000A282B29BC
:1017F0004672656552616D207072696E74696E67BC
:10180000000A282B295741544348444F47006C6134
:101810007A79686F6D652E7275000A436F6E66691E
:1018200067207365727665723A0032303137303333
:101830004C0020432B2B2076657273696F6E3A0043
:10184000303864656436325F323032362D30312DB7
:101850003039000A4C617A79686F6D652E72752097
:101860004C6967687448756220636F6E74726F6C40
:101870006C65722000204F464600204F4E002042EB
:10188000595041535300536176656420746F20456D
:101890004550524F4D00536176696E6720636F6EFD
:1018A00066696720746F20454550524F4D2E2E00BB
:1018B000203C3C200041433A0041433A20536572AA
:1018C00069616C2075736564206279204143202D25
:1018D0002064697361626C696E6720736572696107
:1018E0006C206C6F6767696E6720616E6420636D42
:1018F000640041433A204F7574206F66206D656D1A
:101900006F72790041433A20496E69743A20004170
:10191000433A2044652D496E69743A20004552527D
:101920000041433A20426164204352430041433A1C
:10193000204F4B00203E3E200041433A0041433AB5
:1019400020506F6C6C696E670041433A20556E6D94
:1019500075746500000000000000000000004F4E9C
:1019600000000000000000004F464600000000009C
:10197000000052455354000000000000544F4747F8
:101980004C450000000048414C540000000000009D
:10199000584F4E00000000000000584F464600001F
:1019A00000000000494E4352454153450000444564
:1019B0004352454153450000454E41424C450000CD
:1019C000000044495341424C45000000554E4652E8
:1019D00045455A450000465245455A45000000001D
:1019E0004155544F00000000000046414E5F4F4EED
:1019F0004C590000484947480000000000004D4590
:101A00004449554D000000004C4F570000000000B5
:101A10000000484541545F434F4F4C0048454154F6
:101A2000000000000000434F4F4C00000000000089
:101A300044525900000000000000524742000000DC
:101A400000000000485356000000000000007261D2
:101A500077007175656974007377696E67006C6FE4
:101A6000636B0020696E69740070696E2300726593
:101A70006C61794374723A20002073746F70005265
:101A8000656C61792D4F757420230072656C6179E6
:101A90004374723A200069646C65006F6666006882
:101AA000656174696E670066616E00647279696E63
:101AB0006700636F6F6C696E6700616374696F6E56
:101AC0000020697320004F7574200072656C617985
:101AD0004374723A2000556E6B6E6F776E2073758B
:101AE00066666978200072656C61794374723A2089
:101AF00000556E6B6E6F776E20636D6420007265AB
:101B00006C61794374723A2000616374696F6E008E
:101B100072656C61794374723A20005B305D3A20E3
:101B200000202D202D202D20EFBBBF003E003E3198
:101B3000202D20005B305D3A2000202D202D202D0F
:101B400020EFBBBF003E003E31202D2000537973B3
:101B50006C6F6720726573756D6564005379736C83
:101B60006F6720726573756D6564005379736C6F70
:101B7000672073757370656E646564000000000013
:101B800000636D640000736574000076616C000092
:101B900064656C00004853560000524742000066DE
:101BA000616E00006D6F6465006374726C0068752F
:101BB000650000736174000074656D700072617778
:101BC000000020002E00696E00735F6F7574006D59
:101BD00079686F6D65004354524C2F657865633AA0
:101BE000204F75744F664D656D6F72793A200020F5
:101BF0002D3E20004D5154543A2000202D3E20000F
:101C0000456D69743A203C00202D3E2000497465E2
:101C10006D436D643A2000202D3E20004974656DAF
:101C20003A20003E3E2000496E76616C6964206374
:101C30006F6D6D616E64003E3E3E004E6F204D4103
:101C40004320636F6E666967757265643A207365D9
:101C500074206669726D776172652773204D414308
:101C60000A00454550524F4D207369676E61747587
:101C70007265206F6B00496E697469616C697A697D
:101C80006E6720454550524F4D2E00476F742049D6
:101C90005020616464726573733A00276970205B39
:101CA00069705B2C646E735B2C67775B2C73756259
:101CB0006E65745D5D5D5D27202D207365742073F6
:101CC00074617469632049500A004661696C6564F7
:101CD00020746F20636F6E66696775726520457446
:101CE0006865726E6574207573696E672044484339
:101CF000502E20596F752063616E207365742069C2
:101D000070206D616E75616C6C792100204D4153BE
:101D10004B3A002047573A0020444E533A004C6F4C
:101D2000616465642066726F6D20666C6173682003
:101D300049503A000A7573657320444843500A00BD
:101D40005374617274696E67206C616E0041424326
:101D50004445464748494A4B4C4D4E4F50515253CB
:101D60005455565758595A61626364656667686985
:101D70006A6B6C6D6E6F707172737475767778794B
:101D80007A303132333435363738392B2F3D0042F3
:101D90006173696320003A004F544120696E697491
:101DA00069616C697A65640A0044454641554C5442
:101DB0002070617373776F726420666F72204F5466
:101DC00041204150492E20557365206F7461707712
:101DD0006420636F6D6D616E6420746F2073657431
:101DE0000070617373776F7264004D5154543A20E0
:101DF00074727969796E67206E656E78742062728C
:101E00006F6B6572004D5154543A20546F6F206DC2
:101E1000616E7920636F6E6E656374696F6E2065A5
:101E200072726F72732E2052657374617274204CDB
:101E3000414E002074727920616761696E20696E7D
:101E40002035207365636F6E6473004D5154543AAE
:101E5000206661696C65642C2072633D004D5154AD
:101E6000543A204177616974696E6720666F722009
:101E700072657461696E656420746F706963730064
:101E8000636F6E6E65637465642061732000202E3D
:101E90002E2E0020757365723A003A000A4D515497
:101EA000543A20417474656D7074696E6720636F75
:101EB0006E6E656374696F6E20746F200064697361
:101EC000636F6E6E6563746564005573696E672039
:101ED0004D5154542070617373776F726420667231
:101EE0006F6D20636F6E6669670044657669636530
:101EF000204E616D653A004D5154543A2041742092
:101F00006C6561737420646576696365206E616DCC
:101F10006520616E642062726F6B6572204950208B
:101F20006D75737420626520636F6E666967757284
:101F3000656400757074696D652C667265656865A9
:101F4000617000303864656436325F323032362D6D
:101F500030312D3039004C69676874487562200053
:101F6000246E616D6500526562696E6420737563ED
:101F7000636573732E2049502061646472657373C6
:101F80003A004572726F723A20726562696E64201F
:101F90006661696C0052656E657765642073756370
:101FA000636573732E204950206164647265737396
:101FB0003A004572726F723A2072656E6577656499
:101FC000206661696C000A4E6F206C696E6B00437D
:101FD0006F6E74696E7565207769746820707265BC
:101FE00076696F75736C79206C6F616465642063CA
:101FF0006F6E6669670033307320454550524F4D10
:10200000206973206E6F742072656C6F6164656403
:102010002E205265626F6F74004D5154543A204126
:102020006363657074696E6720636F6D6D616E6464
:10203000732E2E2E0A004E6F204D51545420636F84
:102040006E66696775726564004C6F6164696E677E
:1020500020636F6E6669672066726F6D20706F72A5
:1020600074616C2064697361626C65642E207573A1
:102070006520676574204F4E20746F20656E616225
:102080006C6500436F6E6669672069732076616CCA
:10209000696400436F6E74696E7565207769746852
:1020A0002070726576696F75736C79206C6F6164EE
:1020B000656420636F6E6669670053657475702090
:1020C0004F544100726561647900247374617465D2
:1020D00000757074696D650066726565686561702C
:1020E00000247374617473002045787069726564AC
:1020F0000A00202D746172676574207A6F6E652DF9
:102100000020416C61726D20457870697265640AC7
:102110000020636D643A00204375723A00205365D5
:10212000743A002054696D65723A00204C6F636BFD
:10213000733A0052414D3D00000021002400270069
:102140002A002D00300033000101000004010701C6
:102150000A0100002200250028002B002E0031007B
:10216000340002010000050108010B010505050509
:10217000070508080808020202020A0A08080404FF
:10218000040401010101010101010303030303032D
:102190000303040707070C0C0C0C0C0C0C0C0202BC
:1021A000020206060606060606060B0B0B0B0B0BB9
:1021B0000B0B050505080807070404040A0A0A0AA8
:1021C0000A0A010210202008081020401020408038
:1021D00002010201080402010102040810204080EB
:1021E0008040201008040201800402018040201079
:1021F00008040201080402010102040810204080C2
:10220000010204081020408004408004800810105F
:10221000204004081020408000000B0C030A0D0E23
:102220000F09080405020000000000000000000083
:10223000000000000000000000000000000000009E
:102240000000000013121100000000000000000058
:10225000000000000000000000000000000000007E
:1022600000000000000000000000000000006F639C
:102270007465742F73747265616D006170706C6940
:10228000636174696F6E2F6A736F6E007465787422
:102290002F706C61696E00436F6E74656E742D549F
:1022A0007970653A2000436F6E6E656374696F6E76
:1022B0003A20636C6F7365004163636573732D43EC
:1022C0006F6E74726F6C2D416C6C6F772D4F7269ED
:1022D00067696E3A202A00556E6B6E6F776E004EFE
:1022E0006F74204D6F646966696564004F4B004DE3
:1022F0006F766564207065726D616E656E746C7961
:1023000000496E7465726E616C20536572766572F9
:10231000204572726F72005061796C6F6164205455
:102320006F6F204C61726765004E6F7420666F7529
:102330006E64005757572D41757468656E746963F4
:102340006174653A204261736963207265616C6DE6
:102350003D224163636573732072657374726963B0
:102360007465642200556E617574686F72697A6570
:1023700064005061796C6F61642073697A652077BD
:10238000726F6E6700426164207265717565737467
:1023900000485454502F312E3120002000000000FE
:1023A000000000000000004F4E0000000000000090
:1023B000004F464600000000000000524553540004
:1023C0000000000000544F47474C45000000004803
:1023D000414C54000000000000584F4E0000000027
:1023E000000000584F4646000000000000494E43E0
:1023F0005245415345000044454352454153450031
:1024000000454E41424C45000000004449534142C2
:102410004C45000000554E465245455A4500004681
:102420005245455A45000000004155544F000000F8
:1024300000000046414E5F4F4E4C5900004849474E
:10244000480000000000004D454449554D00000083
:10245000004C4F5700000000000000484541545F09
:10246000434F4F4C004845415400000000000043DA
:102470004F4F4C0000000000004452590000000083
:102480000000005247420000000000000048535680
:102490000000000000000057726F6E6720706179C5
:1024A0006C6164004D5154543A204354524C2F7483
:1024B00078743A204F75744F664D656D6F72793A36
:1024C0002000202D3E2041543A004368616E207464
:1024D0007970653A004E6F2073746F726564207670
:1024E000616C756573202D2064656661756C743A46
:1024F0002000536176656420455441473A00536596
:102500007420455441473A200000A0C623B211244C
:102510001FBECFEFD1E2DEBFCDBF00E00CBF16E0A3
:10252000A0E0B2E0ECE0F8EB01E00BBF02C00790E6
:102530000D92A439B107D9F72DE0A4E9B6E001C0A6
:102540001D92AF34B207E1F712E1C6E8D2E100E034
:1025500006C021970109802FFE010E94D6D3C538FD
:10256000D10780E00807A9F70E9435B20C94F4DB8C
:102570000C940000CF93DF931F92CDB7DEB7698331
:10258000DC01ED91FC910280F381E02D41E050E00F
:10259000BE016F5F7F4F19950F90DF91CF91089526
:1025A000FC01818D928D0895CF93DF931F92CDB75B
:1025B000DEB76983DC01ED91FC910280F381E02DAF
:1025C00041E050E0BE016F5F7F4F19950F90DF91A2
:1025D000CF910895FC019485FB018485981303C075
:1025E00081E0983008F080E00895CF93DF931F9248
:1025F000CDB7DEB76983DC01ED91FC910280F381F8
:10260000E02D41E050E0BE016F5F7F4F19950F90C4
:10261000DF91CF91089585ED8093BC008091BC003F
:1026200084FDFCCF10925107089520912D07260FAD
:102630003327331F21323105ECF420915107FC017F
:1026400090E080E0243069F082E00895A0912D07A9
:102650002191AC01435F584FA40FB52FB11D2C93AE
:102660000196861798F380912D07680F60932D07C8
:1026700080E0089581E008958FEF9FEF08958FEF38
:102680009FEF089580910C0790E0919581959109B5
:102690000895CF93DF93CB01EA01642F0E941513B5
:1026A000CE01DF91CF910895CF93DF931F92CDB7E5
:1026B000DEB7698361E0CE0101960E94151381E0C7
:1026C00090E00F90DF91CF91089590E0FC01E459E4
:1026D000FE4DE491F0E0EE0FFF1FEE5AFE4DA59186
:1026E000B4912C918E539E4DFC018491822391E0F4
:1026F00009F490E0892F0895FC01DC018D9181118E
:10270000FDCF30E020E050E040E08AE09191992355
:1027100001F1443051055CF59E3271F42F3F3105D3
:1027200009F02CF5DB01A40FB51F12962C934F5F17
:102730005F4F30E020E0EACF829FD001839FB00D51
:102740001124292F990F330B205331092A0F3B1FD6
:10275000DDCF2F3F310509F054F4443051053CF4EE
:10276000640F751FFB01228381E090E0089590E0E3
:1027700080E0089590E080E00895DC01ED91FC9107
:102780000284F385E02D1994DF92EF92FF920F936C
:102790001F93CF93DF93EC010C891D89011511055F
:1027A00059F01D8A1C8AC801DF91CF911F910F91AA
:1027B000FF90EF90DF900895EC85FD858E859F85D5
:1027C000DF01A80FB91F2C91243209F055C01196D2
:1027D0002C912B3709F050C00296E80FF91FF12C0D
:1027E000E12CDF01D190DD2009F446C08DE7D81639
:1027F000E9F08FEFE81AF80AF4CF198A188A2C85C5
:102800003D852115310579F08E859F85280F391F6B
:10281000F9012081222321F001969F878E873EC0F7
:102820001D861C86C0CF0FEF1FEFBDCFE114F10452
:1028300019F11C928E859F8502966C857D85680FA7
:10284000791FE881F9810684F785E02DCE0119957D
:10285000998B888B1B8A1A8AEC85FD858E859F85CE
:10286000E80FF91FEE0DFF1DD2828E859F8503961E
:10287000E80EF91EFF86EE86288939892115310573
:1028800009F4BDCF8A899B89280F391FF90120815E
:10289000222309F4B2CF01969B8B8A8B022F220F41
:1028A000110B81CFDC011C96ED91FC911D971E96BA
:1028B0008D919C91E80FF91F8081082E000C990BD7
:1028C0000895DC0115968D919C91009739F0DC01FB
:1028D000ED91FC910680F781E02D1994089583E035
:1028E00090E0089585E090E00895DC011496ED9164
:1028F000FC9180E0309711F085A1817090E00895FF
:102900008FE090E09093CE088093CD0888EC90E023
:102910000895FC01848195810895FC01768765877F
:102920000895DC01ED91FC9102A0F3A1E02D199531
:1029300091E089270895862F089581E086270895DC
:1029400021E0FC018485883008F020E0822F089582
:10295000FC01848595850895FC01848995890895F5
:102960002FE034E0FC0131832083FB014089518951
:1029700062897389FC01428353836483758308955C
:10298000DC01ED91FC91048CF58DE02D1994FC0196
:10299000A7812A2F2E7FC9F081818F7081508330CB
:1029A000A0F4A695A150BB0B2BE531E00E94EDD31E
:1029B00024E630E040E050E00E9481D3DA01C90112
:1029C00087569F4FAF4FBF4F08958FEF9FEF0895EA
:1029D000FC01A681B781109721F118969C91189758
:1029E0009F708EEF890F823010F091111AC01996E6
:1029F0004D935D936D937C931C97A681B781189638
:102A00009C911897907F926018969C930680F7810E
:102A1000E02D8085982F907F903619F48F70806A12
:102A200080870895CF93DF93EC01E881F9810484D6
:102A3000F585E02D199529893A892F5F3F4F3A8B0B
:102A4000298BDF91CF910895CF93DF93EC018E8591
:102A500081110DC081E090E049895A892C853D851E
:102A60004217530708F080E0DF91CF910895E88185
:102A7000F9810484F585E02DCE0119958F3F9105EC
:102A800049F780E090E0F0CFFC01848595856817D8
:102A9000790708F4CB01928B818B0895CF93DF9354
:102AA000FC012685222351F0EC010190F081E02DFC
:102AB0000190F081E02D6FEF19951E86DF91CF9187
:102AC0000895FC0187859089089581E0089590E03C
:102AD00080E00895DC011296ED91FC91309761F051
:102AE0000280F381E02D309739F0862F8295807F28
:102AF00060856F70682B60870895DC011296ED91F8
:102B0000FC91309751F00280F381E02D309729F04D
:102B1000808582958F7090E0089590E080E0089520
:102B2000CF93DF93CDB7DEB760970FB6F894DEBFD3
:102B30000FBECDBF19821A821B821C821D821E828B
:102B40001F8218868A81807F81608A836FEF3E8131
:102B50009F81888529817A815B814C814C873E8762
:102B6000888B372F452F5C857E85892F98896096C5
:102B70000FB6F894DEBF0FBECDBFDF91CF910895A1
:102B80000F931F93CF93DF9300D000D01F921F921B
:102B9000CDB7DEB781E028960FB6F894DEBF0FBE42
:102BA000CDBFDF91CF911F910F910895CF92DF920A
:102BB000EF92FF920F931F93CF93DF9300D000D03B
:102BC000CDB7DEB78C016B017A01FC01808D8830B6
:102BD00010F40E94C0968FE094E09A838983F601F6
:102BE00082819381A481B5818B839C83AD83BE83D5
:102BF000B701CE0101960E947FA7F801808F88302F
:102C0000A0F4F586E486128E118E81E026960FB62A
:102C1000F894DEBF0FBECDBFDF91CF911F910F9112
:102C2000FF90EF90DF90CF90089580E0EFCFCF93AB
:102C3000DF93EC01888D883020F40E94C09688E0F4
:102C4000888FDF91CF910895FC01808D883040F40A
:102C5000218D328D232B21F00E94929590E00895D2
:102C60008FEF9FEF0895CF93DF93FC0124852830E9
:102C700028F08FEF9FEFDF91CF910895EC01019045
:102C8000F081E02D0084F185E02D1995892B89F3E1
:102C90008C850E94929590E0EECFCF93DF93FC015C
:102CA000218D328D2115310529F48FEF9FEFDF91B2
:102CB000CF910895EC01808D4217530708F0A901C8
:102CC0000E94E1951816190684F7298D3A8D281B64
:102CD000390B3A8F298FEBCF0F931F93CF93DF934D
:102CE0001F92CDB7DEB7FC01218D328D232B41F42D
:102CF0008FEF9FEF0F90DF91CF911F910F9108956C
:102D00008C0141E050E0BE016F5F7F4FFC01808D80
:102D10000E94E195181619065CF7F801818D928DD5
:102D20000197928F818F898190E0E4CFCF93DF93D9
:102D30001F92CDB7DEB741E050E0BE016F5F7F4F1D
:102D4000FC0184850E94E1951816190634F48981E6
:102D500090E00F90DF91CF9108958FEF9FEFF9CF23
:102D6000FC018485883010F40C94E19590E080E0BB
:102D70000895FC018485883010F40C94BA9590E095
:102D800080E008950F931F93CF93DF9300D000D07E
:102D90001F921F92CDB7DEB78C01D80159964D9185
:102DA0005C915A974115510551F0ED91FC91048CBD
:102DB000F58DE02D70E060E0C8011995EECFF801C7
:102DC000808D0E94BA95892BB1F148E050E0BE0198
:102DD0006F5F7F4FD80158968C910E94E19518162D
:102DE0001906F4F4D801509684E0FE013196019062
:102DF0000D928A95E1F78D8190E0982F88272E819A
:102E0000820F911DF801958B848B8F81282F30E0E4
:102E1000322F22278885820F932F911D928F818FC9
:102E200028960FB6F894DEBF0FBECDBFDF91CF91CD
:102E30001F910F91089590E080E0F2CFCF92DF9242
:102E4000EF92FF920F931F93CF93DF93CDB7DEB72F
:102E5000AF970FB6F894DEBF0FBECDBF7C016A01FD
:102E60000FE014E01A8309831C861B8688EE93E02A
:102E7000A0E0B0E08D879E87AF87B88B85EE93E0AA
:102E80009A878987188F0F8B198E1A8E1B8E1C8E2E
:102E900088E089A31BA70AA71CA61DA61EA61FA61D
:102EA0008091CE0A9091CF0AA091D00AB091D10A18
:102EB0008EA39FA3A8A7B9A78B839C83AD83BE8352
:102EC00018861F82AE01465D5F4FCE0101960E94BB
:102ED00042AD81309105B1F4D701ED91FC910488A8
:102EE000F589E02D1DA30CA38CA59DA5AEA5BFA5BE
:102EF0008EA39FA3A8A7B9A7A601BE016C5D7F4FB3
:102F0000C7011995AF960FB6F894DEBF0FBECDBFBF
:102F1000DF91CF911F910F91FF90EF90DF90CF90B5
:102F200008950F931F93CF93DF93EC018B01888D4E
:102F3000883010F40E94C096B80182E00E94099780
:102F4000888F883050F41D870C871A8E198E81E087
:102F5000DF91CF911F910F91089580E0F9CF0F93EA
:102F60001F93CF93DF938C01EA01FC0184858830A5
:102F700048F40E943095892B39F481E090E0F80103
:102F800093838283D0E0C0E0CE01DF91CF911F9187
:102F90000F910895EF92FF920F931F93CF93DF93BA
:102FA0007C018091BA08D4E0833309F0D8E00AEAC2
:102FB00018E0C0E0F801219131918F01F70184817F
:102FC00095812817390729F0CF5FDC13F3CF80E014
:102FD00006C08C2F0E94CE968431B1F781E0DF913C
:102FE000CF911F910F91FF90EF900895CF93DF93B2
:102FF000EC018C858830D0F40E94CE96843189F023
:10300000882379F0883169F021E08C3159F4E88126
:10301000F9810084F185E02DCE01199521E0892BFD
:1030200009F420E0822FDF91CF91089580E0FBCF5B
:103030006F927F928F929F92AF92BF92CF92DF92C8
:10304000EF92FF920F931F93CF93DF938C015B015D
:103050007A018091BA08882309F46CC024E0622EBA
:10306000833311F098E0692E8AEAC82E88E0D82EC2
:103070004601712CC0E0D4012D913D914D01F80124
:10308000848195812817390799F48C2F0E94CE9658
:10309000D82F873119F08C3109F040C08C2F0E9455
:1030A000BA95892B29F4DC3119F48C2F0E94B29641
:1030B000CF5F6C12E0CF711008C0D801ED91FC9188
:1030C0000084F185E02DC8011995D0E0F601219129
:1030D00031916F01D80114968D919C912817390771
:1030E00051F48D2F0E94CE96873129F4A701B501A6
:1030F0008D2F0E943095DF5FDC13E8CFC701DF9191
:10310000CF911F910F91FF90EF90DF90CF90BF90E4
:10311000AF909F908F907F906F900895843139F099
:103120008111C6CFF401329711821082C1CF77246A
:103130007394BECFF12CE12CE1CFCF92DF92EF92CE
:10314000FF920F931F93CF93DF93CDB7DEB7AF9767
:103150000FB6F894DEBF0FBECDBF8C016B017A01B4
:103160008FE094E09A8389831B821C821D821E82D9
:103170001C861B8648EE53E060E070E04D875E875A
:103180006F87788B25EE33E03A872987988F8F8B6E
:10319000198E1A8E1B8E1C8E28E029A39BA78AA746
:1031A0001CA61DA61EA61FA6D8011C968C918830B1
:1031B00060F40E94CE96882321F0F80184850E9455
:1031C000B29688E0D8011C968C938091CE0A90919B
:1031D000CF0AA091D00AB091D10A8EA39FA3A8A72D
:1031E000B9A78B839C83AD83BE8318861F82AE01F3
:1031F000465D5F4FB601CE0101960E9442AD009739
:10320000C1F0D801ED91FC910684F785E02D8FE0A7
:1032100094E09DA38CA38CA59DA5AEA5BFA58EA370
:103220009FA3A8A7B9A7A701BE016C5D7F4FC801E6
:103230001995AF960FB6F894DEBF0FBECDBFDF91E4
:10324000CF911F910F91FF90EF90DF90CF90089555
:10325000CF93DF93EC018C85883060F40E94CE968A
:10326000873111F08C3131F48C850E9413958115D2
:10327000984088F3DF91CF910895FC0184858830D0
:1032800010F40C94139590E080E0089565E0FC0143
:10329000828193810E94439B009749F0FC018085C5
:1032A000982F907F21F082958F7090E0089590E0A4
:1032B00080E00895CF92DF92EF92FF926A017B0146
:1032C00063E0FC01828193810E94439BFC01892B76
:1032D000A9F080858D7091F4C094D094E094F0941E
:1032E000CC24CA9481859285A385B4858C219D21A7
:1032F000AE21BF2181879287A387B487FF90EF908B
:10330000DF90CF900895CF92DF92EF92FF926A0103
:103310007B0163E0FC01828193810E94439BFC015D
:10332000892BA9F09085892F8D7089F4907F926008
:103330009087CC24FF2441855285638574854C2970
:103340005D296E297F294187528763877487FF90A3
:10335000EF90DF90CF900895CF92DF92EF92FF929F
:103360006A017B0163E0FC01828193810E94439B9F
:10337000009791F0FC0120852F70223069F461855F
:103380007285838594856C217D218E219F21FF90FC
:10339000EF90DF90CF90089560E070E0CB01F7CF21
:1033A000CF93C62F63E0FC01828193810E94439BEF
:1033B000FC01892B91F09085892F8D7071F4907F9D
:1033C0009260908781859285A385B4858827BB27E5
:1033D0008C2B81879287A387B487CF91089566E568
:1033E00075E1811102C068E575E185E59BE00C940B
:1033F000C8896DE772E185E59BE00E94C889F0E02D
:10340000E0E0199584EF91E0089567EA7AE0811190
:1034100002C062EA7AE086E09CE00C94C889DC0194
:1034200055962C915597273781F4ED91FC91008C9E
:10343000F18DE02D199561ED76E086E09CE00E942B
:10344000C88986E09CE00C94418808950C9483CA56
:103450000C9483CA0C9483CAEF92FF920F931F932C
:10346000CF93DF93EC018B0180910A0790910B07BA
:103470000097A9F0FC0120852F70263081F40E946E
:10348000CB9AFC0190859F70943049F48185928598
:10349000DF91CF911F910F91FF90EF900895EE88EB
:1034A000FF88C70101970D97D0F461E174E0C8016E
:1034B0000E9437D8892B99F48FE2888F85E08E9D02
:1034C000B0018F9D700D11246458744E46E050E099
:1034D000CE0149960E9457CCCE014896D9CF90E0B4
:1034E00080E0D6CFCF93C1E068EE73E080E090E05B
:1034F0000E9479A94AE050E06C2F85E59BE00E948C
:103500004588CF5FC43181F784EF91E0CF91089572
:10351000EF92FF920F931F93CF93DF936115710585
:1035200011F480E090C0EB018C0188858F708230AF
:1035300009F442C08430A9F762E077E086E09CE0BD
:103540000E94C8894AE050E0F801638186E09CE06F
:103550000E94458865E174E086E09CE00E947189E4
:1035600069857A8586E09CE00E94718986E09CE00E
:103570000E944188F801E080F180E114F10489F2B1
:103580006AE174E0C7010E94CB9A8C01009749F26E
:10359000FC0180858F70863021F669857A856115FA
:1035A000710509F44CC0FB018081882309F447C0F0
:1035B000C8010E94CB9A42C065EF76E086E09CE0AD
:1035C0000E94C8894AE050E0F801638186E09CE0EF
:1035D0000E94458865E174E086E09CE00E94718964
:1035E00049855A856B857C852AE030E086E09CE041
:1035F0000E94E78886E09CE00E944188F801E08014
:10360000F180E114F10409F48CCF6AE174E0C701A0
:103610000E94CB9A8C01009709F483CFFC0180852E
:103620008F708550823008F07CCF6985862F9A850F
:10363000892B29F06150C8010E94439B7C01F8014D
:10364000F286E18681E0DF91CF911F910F91FF908B
:10365000EF900895EF92FF920F931F93CF93DF9314
:103660000097C1F0FC0120812223A1F08C0180E5AC
:10367000E82E8BE0F82EC1E0D0E0B701C8010E942F
:1036800020CC892B49F02196F5E0EF0EF11CCE30CD
:10369000D10599F7D0E0C0E0CE01DF91CF911F9125
:1036A0000F91FF90EF900895CF93DF93EC016BE8BB
:1036B0007AE186E09CE00E94C8896FE77AE186E0C3
:1036C0009CE00E94C8896C817D8186E09CE00E941C
:1036D000399F69E77AE186E09CE00E94C88986E02C
:1036E0009CE00E94418860E08C810E94F8A8E881FB
:1036F000F9810484F585E02D60E0CE01199581E023
:1037000090E0DF91CF910895CF93DF9300D000D068
:103710001F921F92CDB7DEB7EFE3FBE0128A118A4A
:1037200080E090E19587848784E890E0948B838B98
:1037300081E0868780E090E2908B878787E7858BA2
:103740001C821B8283E892E09A838983FE83ED8347
:103750008FEF9FEF98878F8366E978E185E59BE09F
:103760000E94C8896091AC067091AD06CE010196A9
:103770000E9476A08FE39BE00E940F1A66E878E132
:1037800085E59BE00E94C88985E59BE00E94418811
:103790000E9472B028960FB6F894DEBF0FBECDBF60
:1037A000DF91CF910895892B71F0FB018281938184
:1037B0000E948A9C6FE375E185E59BE00E94C889C1
:1037C00088EC90E0089590E080E0F2CF0F931F9393
:1037D000CF93DF93EB0102970CF483C00A811B8126
:1037E00064E274E1C8010E9402CC892B51F481E0AB
:1037F0000E941A9F88EC90E0DF91CF911F910F916A
:1038000008956EE274E1C8010E9402CC892B11F484
:1038100080E0EECF6AEF73E185E59BE00E94C88906
:103820000E947A9E672F6095617070E085E59BE04D
:103830000E94399F85E59BE00E9441888091310B71
:103840009091320B892BE9F10A811B810E941B9C0C
:103850008823B9F1F80101900020E9F73197E01BC6
:10386000F10BB09770F582E70E94069C8091310BB6
:103870009091320BDC01ED91FC910088F189E02DF3
:1038800060E270E01995B8018091310B9091320B94
:103890000E9471898091310B9091320BDC01ED9186
:1038A000FC910190F081E02D60E019958091310B41
:1038B0009091320BDC01ED91FC910488F589E02DAB
:1038C00019956A817B8185E59BE00E94718963EF90
:1038D00073E185E59BE00E94C88985E59BE00E9435
:1038E00041888091CD089091CE0802973CF080EFFE
:1038F0009FEF9093CE088093CD087CCF66EE73E166
:103900008FE59BE00E94C8898FE59BE00E9441887B
:1039100084EF91E071CF892B71F0FB01828193815B
:103920000E94D89C60ED73E185E59BE00E94C88908
:1039300088EC90E0089590E080E0F2CFEF92FF9263
:103940000F931F93CF93DF93CDB7DEB72C970FB6AE
:10395000F894DEBF0FBECDBF8C017B018FE094E0F9
:103960009A8389831B821C821D821E8298878F8383
:1039700019861A861B861C8605301105ECF0BE01DF
:10398000695F7F4FF701808591850E947C13892BA9
:1039900099F0CE0107960E947B9DBE01695F7F4F23
:1039A000F701868197810E947C13892B61F0CE01FB
:1039B00007960E94259E0EC0CE0101960E947B9D17
:1039C0000430110554F7CE0101960E94259E033064
:1039D0001105A4F1BE01695F7F4FF70184819581D4
:1039E0000E947C13892B51F1CE0107960E94D09D35
:1039F000BE01695F7F4FF701828193810E947C1332
:103A0000892B19F1CE0107960E94269D69EB73E17F
:103A100085E59BE00E94C88980E00E94119F88ECA8
:103A200090E02C960FB6F894DEBF0FBECDBFDF91AD
:103A3000CF911F910F91FF90EF900895CE010196C5
:103A40000E94D09D023011059CF6CE0101960E9485
:103A5000269D01301105D1F6CE0101960E94269DCA
:103A600060EC73E185E59BE00E94C889CFCF0F939E
:103A70001F93CF93DF938C01EB010297C4F08A81EF
:103A80009B810E94B4CB80932A0299270E94249F95
:103A90000230110549F08C819D810E94B4CB809346
:103AA000290299270E942E9FC8ECD0E002C0C0E9ED
:103AB000D1E065EA73E185E59BE00E94C8894AE0B0
:103AC00050E060912A0285E59BE00E94458860E90C
:103AD00073E185E59BE00E94C8894AE050E060916F
:103AE000290285E59BE00E94458885E59BE00E94D0
:103AF0004188CE01DF91CF911F910F910895CF930F
:103B0000DF93EB010297ACF164E274E18A819B815F
:103B10000E9402CC892B29F40E947A9E7D7F0E940C
:103B2000C19E6EE274E18A819B810E9402CC892B46
:103B300029F40E947A9E72600E94C19E6FE773E131
:103B400085E59BE00E94C8890E947A9E71FB6627EA
:103B500060F971E0672770E085E59BE00E94399F7E
:103B600085E59BE00E94418888EC90E0DF91CF9151
:103B700008950E94841BF8CF0F931F93CF93DF9378
:103B8000FC01738362836115710509F448C08B01E0
:103B9000EC011682CB010E949A9F97FD45C09D8340
:103BA0008C838C819D81009719F08635910524F0D6
:103BB00080E290E09D838C83F801048115810115DA
:103BC000110509F440C0F80180858F708530D9F562
:103BD000C8010E948A9F8230B0F161E0C8010E9452
:103BE000439BFC01892B79F180858F70823021F510
:103BF00061857285838594850E941CD220E030E027
:103C00004AE754E40E947BD20E94DAD46115710520
:103C100081059105E1F06F83788789879A87DF9125
:103C2000CF911F910F9108959195819591099D8351
:103C30008C8381E08E83B5CF833029F461857285D2
:103C400083859485DBCF60E070E0CB01D7CF88E837
:103C500093E1A0E0B0E08F839887A987BA87DFCF90
:103C60000F931F93CF93DF93EC017B836A836115DE
:103C7000710509F442C0FB01A085B185109771F16F
:103C800018968C9118978F70823041F516968D9109
:103C90009C919D838C8380ED98E098878F83FB01B6
:103CA000A481B581109709F18B0118969C91189702
:103CB0009F70923039F09530C1F4CD010E948A9FF7
:103CC000882399F0C8010E949A9F8E83813091F0D9
:103CD00040F0823051F48DE699E005C090E080E03C
:103CE000D8CF89E69BE098878F83DF91CF911F9192
:103CF0000F9108958AE09AE0F6CF1D821C82F5CFDD
:103D00002F923F924F925F926F927F928F929F92EB
:103D1000AF92BF92CF92DF92EF92FF920F93CF9329
:103D2000DF9300D01F92CDB7DEB77C017A83698321
:103D30005C834B83DB011C92FC0160818FEF860F5B
:103D4000883108F04BC034FF49C0FAE06F9FB001E2
:103D5000112463567C4DCD010E9457CCD70111969A
:103D60008C918F7041F04B815C8160EB74E08981B4
:103D70009A810E9447D8E981FA8101900020E9F7F1
:103D8000319729813A81E21BF30B19012E0E3F1E58
:103D90004B815C814E1B5F0B415051095C834B830F
:103DA000D7011196EC911197EF7009F4F5C0E1502D
:103DB000EC3008F0F1C0F0E08827EE51F14E8F4F63
:103DC0000C94D6D3F11E941F012060207B203F1F4E
:103DD0001120112011202D1F151F972029803A80B6
:103DE000DFCFF7018481282F30E050E040E000234E
:103DF00059F030E0A4E6B0E00E94B3D32FEF30E0FA
:103E000040E050E00E9481D35F934F933F932F9304
:103E10008EE194E09F938F93FC81FF932B812F93EE
:103E20003F922F920E947FD8B2C017968C9117971D
:103E30008F9316968C9116978F9315968C91159754
:103E40008F9314968C918F9381E294E09F938F933C
:103E5000BC81BF93EB81EF93E3CF17968C911797BB
:103E60008F9316968C9116978F9315968C91159724
:103E70008F9314968C918F9385E294E0E7CF1496FC
:103E8000CD90DD90ED90FC901797F7FE34C084E65E
:103E9000882E912CA12CB12CC701B601A50194014B
:103EA0000E9481D39B01AC0188279927DC01821BEA
:103EB000930BA40BB50BBF93AF939F938F93662780
:103EC0007727CB016C197D098E099F09A501940103
:103ED0000E9481D35F934F933F932F9389E294E0A5
:103EE0009F938F933C813F934B814F933F922F92AF
:103EF0000E947FD84CC0C701B60124E630E040E004
:103F000050E00E9481D39F938F937F936F935F9331
:103F10004F933F932F938AE294E09F938F939C81DA
:103F20009F93AB81AF93E2CFC7010E94C714BC013E
:103F3000D7011696CC9016971796DC901797D0FA63
:103F4000DD24D0F814969C9114971596FC90EB8084
:103F5000BC80292F30E050E040E077FD35C00111F2
:103F600035C07F936F931F921F921F929F931F9252
:103F7000FF92DF92CF9283E394E09F938F93FC8133
:103F8000FF932B812F933F922F920E947FD80FB6E1
:103F9000F894DEBF0FBECDBF89819A810F900F903C
:103FA0000F900F90DF91CF910F91FF90EF90DF90E6
:103FB000CF90BF90AF909F908F907F906F905F90C9
:103FC0004F903F902F900895002361F0292F30E00B
:103FD000A4E6B0E00E94B3D32FEF30E040E050E021
:103FE0000E9481D35F934F933F932F931F92FF9231
:103FF000DF92CF9286E394E09F938F93BF92EF92EC
:1040000075CF15968C9115971F928F9316969C914C
:10401000169717968C9181708F939F9389E394E004
:1040200015CF14968D909D90AD90BC90179720E081
:1040300030E0A901C501B4010E9415D22401350167
:1040400087FF04C077FA709477F87094C301B201C7
:104050000E94D3D46B01072E000C880B990B0E9491
:104060001CD29B01AC01C301B2010E94F4D320E039
:1040700030E04AE754E40E947BD20E945ED50E9461
:10408000D3D4062F772E20E030E0A901C501B4017A
:104090000E9415D287FF07C07F920F93DF92CF92C5
:1040A0008FE394E0D3CE7F920F93DF92CF9280E4A0
:1040B00094E09F938F933C813F934B814F93B0CE7D
:1040C00014968C9114971F928F9315968C91159737
:1040D0001F928F9316968C911F928F9386E394E094
:1040E0009F938F93BC81BF93EB81EF933F922F926D
:1040F0000E947FD84CCF17968C9117971F928F9361
:1041000014968C9114971F928F9315968C911597F6
:104110001F928F9316968C911F928F9383E394E056
:104120009F938F93BC81BF93EB81EF93DFCE149667
:104130006D917C914B815C81C1010E9465D82CCF2F
:10414000EF92FF920F931F93CF93DF93EC017B01CC
:1041500088859985892BA9F48A819B810E948A9FF1
:10416000082F10E00530110564F40E947D9F9987A7
:104170008887BC018A819B810E945F9F0F5F1F4FD0
:10418000F1CFE885F9853097D9F08085982F9F7019
:10419000A9F4807F82608087E885F9851186128680
:1041A00013861486E885F985F782E682C701DF91D8
:1041B000CF911F910F91FF90EF900895923061F38E
:1041C000F12CE12CF3CFCF93DF93FC0122813381DB
:1041D000232B59F1EC016FE079E186E09CE00E942D
:1041E000C8894AE050E06E8186E09CE00E944588E4
:1041F00086E09CE00E9441888C819D810E9483CA58
:1042000070E060E08A819B810E94A0201D821C8258
:10421000E881F9810484F585E02D60E0CE011995EF
:1042200081E090E0DF91CF91089590E080E0FACFB7
:104230001F93CF93DF93FC01162FC389D489818903
:1042400092899C012F5F3F4F328B218BC80FD91F62
:10425000CE010E9439D3181721F0612FCE010E94A0
:1042600041D381E090E0DF91CF911F910895FC014F
:1042700081899289248535858217930740F42389A3
:104280003489820F931F0E9439D390E008958FEFF5
:104290009FEF0895EF92FF920F931F93CF93DF93B9
:1042A000CDB7DEB760970FB6F894DEBF0FBECDBFB7
:1042B0007B01CA01B9012AE0AE014F5F5F4F0E9446
:1042C000C4CCA801BE016F5F7F4FC7010E9497AAAF
:1042D00060960FB6F894DEBF0FBECDBFDF91CF91D1
:1042E0001F910F91FF90EF900895DA01E091570729
:1042F000F0E0FE2FEE27E60FF71F90E0982F8827BB
:10430000A901BD018E0F9F1F0C948592CF93DF935F
:104310001F92CDB7DEB72091570730E0322F22270A
:10432000260F371F90E0982F8827498341E050E0FF
:10433000BE016F5F7F4F820F931F0E9485920F9087
:10434000DF91CF910895CF93DF931F92CDB7DEB762
:1043500041E050E0BE016F5F7F4F0E94FA9189817A
:104360000F90DF91CF9108952091570730E0322FC1
:104370002227620F731F90E0982F8827860F971FC0
:104380000C94A32163E070E00C94B421DA01E09175
:104390005707F0E0FE2FEE27E60FF71F90E0982F6B
:1043A0008827A901BD018E0F9F1F0C94FA9144E04C
:1043B00050E0BC018FE090E00C94859244E050E026
:1043C000BC0185E090E00C94859244E050E0BC0193
:1043D00081E090E00C94859208959F92AF92BF92F5
:1043E000CF92DF92EF92FF920F931F93CF93DF93C1
:1043F0008C015B01942EE52EFC01C688D788F08CD9
:1044000080E591E00E9489A48F2D0E94D694C92D49
:10441000DE2D8C179D0708F4EC019E01A501B60165
:104420008F2D0E945394F801868997898C0F9D1FC8
:10443000978B868BCE01DF91CF911F910F91FF90CB
:10444000EF90DF90CF90BF90AF909F900895CF9363
:10445000FC01C08D80E591E00E9489A460E270E0DB
:104460008C2F0E94EA9162E070E08C2F0E94B421B0
:1044700084FD16C062E070E08C2F0E94B42183FF9F
:104480000AC048E162E070E08C2F0E94862180E043
:1044900090E0CF91089580E591E00E9489A4E3CF58
:1044A00040E162E070E08C2F0E94862181E0F0CF35
:1044B000FF920F931F93CF93DF93EB01FC01178AB9
:1044C000168A2A81211109C02B81211106C02C8155
:1044D000211103C02D81222301F141155105E9F07D
:1044E0008A01FC01F08C80E591E00E9489A4AE0174
:1044F0004E5F5F4F24E030E06CE070E08F2D0E9453
:104500007521B8018F2D0E94DD9681E090E0DF914A
:10451000CF911F910F91FF90089580E0F7CF0F93F7
:104520001F93CF938C01FC016481758181E20E940D
:104530000997C82F8830F8F480E591E00E9489A49B
:104540008C2F0E94C221833131F08C2FCF911F918B
:104550000F910C94B29662E070E08C2F0E94EA9169
:10456000F80184819581EC2FF0E0EE0FFF1FE655F6
:10457000F74F91838083CF911F910F9108950F93EF
:104580001F93CF93DF931F921F92CDB7DEB7FC012D
:1045900024852830E0F48C0180E591E00E9489A414
:1045A00022E030E0AE014F5F5F4F60E170E0F80164
:1045B00084850E94C62189819A8198278927982716
:1045C0000F900F90DF91CF911F910F91089590E080
:1045D00080E0F6CF0F931F93CF93DF931F921F922C
:1045E000CDB7DEB7FC0124852830E0F48C0180E5EE
:1045F00091E00E9489A422E030E0AE014F5F5F4F5E
:1046000064E070E0F80184850E94C62189819A8166
:104610009827892798270F900F90DF91CF911F91AE
:104620000F91089590E080E0F6CFCF93DF93EC01F7
:104630008FE094E0998388831A821B821C821D82FA
:1046400080E591E00E9489A4BE016E5F7F4F44E047
:1046500050E08FE090E00E94FA91CE01DF91CF917F
:1046600008950E944693882331F08091BA088433DC
:1046700029F0873381F090E080E0089580E591E0B3
:104680000E9489A485E390E00E94A32185FD0DC0CE
:1046900082E090E0089580E591E00E9489A48EE296
:1046A00090E00E94A32180FFF3CF81E090E0089585
:1046B0001F920F920FB60F9211240BB60F922F93E9
:1046C0003F934F935F936F937F938F939F93AF939A
:1046D000BF93EF93FF938091B900887F803609F4F0
:1046E0004DC008F040C0883209F4A7C028F58031D9
:1046F00009F49BC0C8F4882309F4F1C0883009F498
:1047000094C0FF91EF91BF91AF919F918F917F9155
:104710006F915F914F913F912F910F900BBE0F9032
:104720000FBE0F901F901895883109F486C0803213
:1047300041F78093500714C0803409F497C040F4C7
:104740008033B9F38833E9F68093500785ECA8C02D
:10475000803509F481C0883509F490C0883489F621
:104760000E940B13CECF883909F486C038F58837FC
:1047700029F050F4883611F0803719F683E08093E1
:10478000510710924F0755C0883809F475C0803919
:1047900019F0803809F0B5CF80914F07803208F0CA
:1047A0006BC0E0914F0781E08E0F80934F0780919F
:1047B000BB00F0E0E15DF84F80833BC0803B39F007
:1047C000D0F4803A09F471C0883A09F09ACF84E0B5
:1047D0008093510710922E0710922D07F0E0E0E031
:1047E000199580912D0781110FC081E080932D07CD
:1047F00010920D0709C0803C09F4A8CF883C09F449
:10480000A5CF883B09F07DCFE0912E0781E08E0F88
:1048100080932E07F0E0E35FF84F80818093BB0028
:1048200090912E0780912D0725C080915607809387
:10483000BB0085EC8093BC0064CF909155078091BC
:104840005407981728F5E091550781E08E0F809363
:104850005507F0E08081EBCFE091550781E08E0FA6
:10486000809355078091BB00F0E0808390915507BD
:10487000809154079817E8F285E8DCCFE09155075E
:1048800081E08E0F809355078091BB00F0E080831C
:1048900080915307811164CF81E08093520784EAAD
:1048A0008093BC00109251072CCF85EC8093BC0004
:1048B0001092510780914F07803230F4E0914F07FA
:1048C000F0E0E15DF84F108260914F0770E08FE2F9
:1048D00097E0F0E0E0E0199510924F0712CF1092A8
:1048E00050073ECF009789F0FC0120852F702530BE
:1048F00061F40E94439B009741F0FC0120852F70DA
:10490000243019F481859285089590E080E008951F
:10491000CF92DF92EF92FF920F931F93182F6A01AD
:104920007B010E94ABA904C0969587957795679502
:104930001A95D2F76C217D218E219F218B019C013C
:1049400001501109210931090E3F1F4F2F4F3F4FD1
:1049500020F061E070E080E090E01F910F91FF9007
:10496000EF90DF90CF9008953F924F925F926F92B9
:104970007F928F929F92AF92BF92CF92DF92EF92EF
:10498000FF920F931F93CF93DF9300D000D0CDB74A
:10499000DEB77C01362E80910907882309F40DC10A
:1049A000D70114969C9180912902891708F405C1BA
:1049B0008091070790910807BAE06B1318C28E54D4
:1049C000994FFC011082D70118968D919C91892BEB
:1049D00009F4EFC08091AE069091AF06A091B006A9
:1049E000B091B106892B8A2B8B2B09F0CEC00E9487
:1049F000ABA92B013C01F70100851185D80119965F
:104A00006D917C916115710599F4F801858096800E
:104A1000A780B0848091C80A9091C90AA091CA0A5F
:104A2000B091CB0A88169906AA06BB0609F487C07E
:104A3000D8011B964D915C911C974115510509F4C5
:104A40007EC0F701248153968C91539790E0322FCA
:104A5000377002C0959587953A95E2F780FF6FC051
:104A6000C22ED12CC601887F9370892B39F45196C0
:104A70008D919C91887F9370C82AD92AD8018D91F5
:104A80009C91DC01ED91FC916115710509F4C4C0A4
:104A90000688F789E02D1995019709F050C06CE35D
:104AA000F801808191810E94E088A60170E060E0B9
:104AB0002AE0D8018D919C910E94F587F80122810E
:104AC000808191816EE27BE1222311F06CE27BE137
:104AD0000E94C889D8011D966D917C911E978D9179
:104AE0009C910E94718960E2F801808191810E940D
:104AF000E088D8011F966D917C9150978D919C9183
:104B00000E947189F80122818081918161E27BE1BB
:104B1000222311F06BE17BE10E94C88962EB76E011
:104B2000D8018D919C910E947189F80180819181B9
:104B3000DC01ED91FC91008CF18DE02D19950E9426
:104B4000ABA9AB01BC014419550966097709F70106
:104B500085819681453651056105710508F472C05D
:104B6000009721F06BE67BE10E94EC894FEF5FEF4D
:104B7000BA0180E00E9488246093AE067093AF066D
:104B80008093B0069093B10614C00E94ABA9009127
:104B9000AE061091AF062091B0063091B106601BB1
:104BA000710B820B930B603375478105910508F0FB
:104BB0001ECF1092080710920707D70115968D9106
:104BC0009C911697009771F014963C9120912A02BF
:104BD000231740F0DC01ED91FC910190F081E02D74
:104BE000632D199581E090E026960FB6F894DEBF0C
:104BF0000FBECDBFDF91CF911F910F91FF90EF902E
:104C0000DF90CF90BF90AF909F908F907F906F90EC
:104C10005F904F903F9008950488F589E02D2FE034
:104C200034E03A832983D80115968D909D90AD90FC
:104C3000BC9018978B829C82AD82BE82BE016F5F52
:104C40007F4F29CF4091AE065091AF066091B006DC
:104C50007091B106452B462B472B09F4AACF00973C
:104C600021F06CE57BE10E94EC891092AE06109277
:104C7000AF061092B0061092B106D70118960D91AA
:104C80001C91F801618572856115710591F445806B
:104C90005680678070848091C80A9091C90AA0915B
:104CA000CA0AB091CB0A481659066A067B0609F46F
:104CB00080CFD8011B964D915C911C9741155105F1
:104CC00009F477CFF701248153968C91539790E0A4
:104CD000322F377002C0959587953A95E2F780FF9D
:104CE00068CFC22ED12CC601887F9370892B39F4EE
:104CF00051968D919C91887F9370C82AD92AD801AA
:104D00008D919C91DC01ED91FC916115710509F487
:104D100058C00688F789E02D1995019709F049CF09
:104D20006CE3F801808191810E94E088A60170E027
:104D300060E02AE0D8018D919C910E94F587F801EE
:104D400022818081918167E47BE1222311F065E477
:104D50007BE10E94C889D8011D966D917C911E97B8
:104D60008D919C910E94718960E2F801808191810E
:104D70000E94E088D8011F966D917C9150978D918B
:104D80009C910E947189F8012281808191816AE35E
:104D90007BE1222311F064E37BE10E94C8896DE48A
:104DA0007BE1D8018D919C910E94C889F801808196
:104DB0009181DC01ED91FC91008CF18DE02D199534
:104DC000F8CE0488F589E02D2FE034E03A8329837A
:104DD000D80115964D905D906D907C9018974B8200
:104DE0005C826D827E82BE016F5F7F4F95CF84357E
:104DF00091050CF0E2CEBDE06B1709F4DECE9C010C
:104E00002F5F3F4F30930807209307078E54994F29
:104E1000FC016083D2CECF92DF92EF92FF920F938C
:104E20001F93CF93DF93EC01EC81FD81309709F460
:104E3000A4C08A819B81892B09F49FC0808188232B
:104E400009F49BC07A016B01E881F9810284F38542
:104E5000E02DCE0119950397D9F4EC81FD8180A551
:104E600091A5A2A5B3A5892B8A2B8B2B89F00E9433
:104E7000ABA9EC81FD8100A511A522A533A5601B7E
:104E8000710B820B930B663971058105910528F32F
:104E90008F81988521E0E21AF108DC01ED91FC9107
:104EA0000280F381E02DA701B60119958F819885C5
:104EB000DC01ED91FC910190F081E02DD60112967C
:104EC00060E09D012C193D092E153F0518F42D9128
:104ED000620FF7CF19950C811D814FEF5FEFBA017B
:104EE00080E00E948824F80160A771A782A793A799
:104EF00065EB78E186E09CE00E94C8894AE050E0DA
:104F00006E8186E09CE00E94458860EB78E186E057
:104F10009CE00E94C8898601C8018C199D098E15E4
:104F20009F05B8F4D8016C9140E150E06A3050F42C
:104F300068E474E086E09CE00E94718940E150E002
:104F4000F801608186E09CE00E9445880F5F1F4F5A
:104F5000E3CF86E09CE00E944188E881F9810484E7
:104F6000F585E02D63E0CE01DF91CF911F910F9188
:104F7000FF90EF90DF90CF901994DF91CF911F9128
:104F80000F91FF90EF90DF90CF9008958F929F92B6
:104F9000AF92BF92CF92DF92EF92FF920F931F9347
:104FA000CF93DF937C014A015901C0910A07D09148
:104FB0000B07062F660F110B209709F45CC088853C
:104FC0008F70863009F055C06AE474E0CE010E940B
:104FD000CB9A6C0182E08816910449F06FE474E08A
:104FE000E3E08E16910429F0D0E0C0E006C063E54E
:104FF00074E0CE010E94CB9AEC01C114D104D9F126
:10500000F60180858F708430B1F561857285A801C5
:10501000C7010E9465D8A80168E574E0C7010E9435
:1050200047D8209779F188858F70843059F5698544
:105030007A85A801C7010E9447D8A80168E574E0F5
:10504000C7010E9447D8A114B10429F0A801B501F5
:10505000C7010E9447D8C701DF91CF911F910F91DF
:10506000FF90EF90DF90CF90BF90AF909F908F9088
:105070000895D0E0C0E0A8016FEC7BE1C7010E9479
:1050800057CCC9CFF2E08F16910481F083E08816E7
:10509000910429F060915A0770915B07CACFA8016B
:1050A00069EC7BE1C7010E9439CCC7CFA80166EC4F
:1050B0007BE1F8CFCF92DF92EF92FF920F931F9395
:1050C000CF93DF93CDB7DEB7C154D1090FB6F894B3
:1050D000DEBF0FBECDBF6C01AB0130E020E060E46D
:1050E000CE0101967C010E94C627F70101900020A5
:1050F000E9F731978F010E191F09A801B701C60101
:105100000E9457D8892B11F010E000E0C801CF5B56
:10511000DF4F0FB6F894DEBF0FBECDBFDF91CF914A
:105120001F910F91FF90EF90DF90CF900895EF9235
:10513000FF920F931F93CF937C018C01C0E0C3308B
:10514000E1F0F801428150E070E060E02AE030E0F8
:1051500085E59BE00E94E78864EC7BE185E59BE0C8
:105160000E94C889CF5F0F5F1F4FC43041F7CF91B6
:105170001F910F91FF90EF900895F701458150E046
:1051800070E060E02AE030E085E59BE00E94E7887F
:1051900062EC7BE1E3CFCF93DF931F921F92CDB7F9
:1051A000DEB78091430D9091440D009711F48FE488
:1051B0009DE0BE016F5F7F4F681B790B072E000CCF
:1051C000880B990B0F900F90DF91CF9108954F921C
:1051D0005F926F927F929F92AF92BF92CF92DF9237
:1051E000EF92FF920F931F93CF93DF93CDB7DEB76C
:1051F00060970FB6F894DEBF0FBECDBFFC011986D5
:105200001A861B861C868A85807F8A87A081B18149
:10521000109709F4EEC08C91882309F4EAC000814C
:105220001181D8019C91992309F452C09D3209F44F
:10523000E4C090539A3028F00F5F1F4F1183008312
:10524000EECFC801912CDC016D01C81AD90A2D914D
:10525000022E000C330B205331092A303105A0F304
:105260007F016EE270E0C8010E942CD8FC01DC01D5
:10527000892B91F5CD2809F0C5C01D861E861F8695
:10528000188A88E0FE013996DE01119601900D9290
:105290008A95E1F729813A814B815C816D817E811C
:1052A0008F81988560960FB6F894DEBF0FBECDBF94
:1052B000DF91CF911F910F91FF90EF90DF90CF90F2
:1052C000BF90AF909F907F906F905F904F900895A8
:1052D000912CD12CC12CC4CF5D01AE1ABF0A1196FE
:1052E0008C911197082E000C990BC09711960A9774
:1052F00098F32181022E000C330B205331092A3000
:105300003105F0F52A30310514F029E030E037FF9F
:1053100002C030E020E0032E000C440B550BAAE045
:10532000B0E00E94A0D32B013C018281082E000C2A
:10533000990BC0978A30910588F48A30910514F052
:1053400089E090E097FF02C090E080E0092E000C19
:10535000AA0BBB0B480E591E6A1E7B1EA114B1047A
:1053600009F488CFF3E0AF16B10474F0C8010E94CD
:10537000B0CB2B013C018A85807F87608A8723C060
:1053800020E030E0A901CBCFB8E0CB16D10474F710
:10539000C8010E94D2CB9B01AC01A4E6B0E00E9400
:1053A000A0D3992041F07094609450944094411C93
:1053B000511C611C711C2A85207F26602A87460E9D
:1053C000571E681E791E6CE270E0F70180819181A2
:1053D0000E942CD8009741F4D7011D921C924D8653
:1053E0005E866F86788A4DCF0196F7019183808320
:1053F000F6CF412C512C3201F2CFC80101969924ED
:10540000939421CFC8010E94D2CB2A85207F2A60A5
:105410002A872B013C01D7CFCF92DF92EF92FF92E8
:105420000F931F93CF93DF93EC01A881B98110975D
:1054300081F18C91882369F108811981F8019081AB
:10544000992351F09D3241F090539A3028F00F5F2C
:105450001F4F19830883F0CFC8010E94D2CB6B0184
:105460007C016CE270E0C8010E942CD8009769F4BE
:1054700019821882C701B601DF91CF911F910F9158
:10548000FF90EF90DF90CF900895019699838883E5
:10549000F1CFC12CD12C7601EDCF08950895EF9274
:1054A000FF921F93CF93DF93192F7B01C82FD92F22
:1054B000D7FF03C0D195C195D10961E08C2F0E941F
:1054C000F8A882E0E816F10499F460E08C2F0E94BD
:1054D000CAA86EE778E186E09CE00E94C88986E071
:1054E0009CE0DF91CF911F91FF90EF900C94418849
:1054F000612FEF2851F46095661F6627661F8C2F79
:105500000E94CAA86AE778E1E6CF661F6627661F91
:105510008C2F0E94CAA865E778E1DDCF63E578E1CA
:1055200085E59BE00E94C88960E478E185E59BE021
:105530000E94C88962E378E185E59BE00E94C88902
:105540006AE278E185E59BE00E94C88985E59BE0F9
:105550000E9441886AE178E185E59BE00E94C88964
:105560006EE078E185E59BE00E94C88961E078E122
:1055700085E59BE00E94C8896CEE77E185E59BE0BC
:105580000E94C8896DED77E185E59BE00E94C8899E
:1055900065ED77E185E59BE00E94C8896AEC77E1DB
:1055A00085E59BE00E94C8896DEB77E185E59BE08E
:1055B0000E94C88963EB77E185E59BE00E94C8897A
:1055C0006BEA77E185E59BE00E94C8896FE977E1A6
:1055D00085E59BE00E94C88965E877E185E59BE069
:1055E0000E94C88966E677E185E59BE00E94C8894C
:1055F00061E577E185E59BE00E94C88969E377E191
:1056000085E59BE00E94C8896BE277E185E59BE038
:105610000E94C8896FE177E185E59BE00E94C88917
:1056200067E177E185E59BE00E94C8896CE077E15E
:1056300085E59BE00E94C8896FEF76E185E59BE0F8
:105640000E94C88967EF76E185E59BE00E94C889E2
:105650006CEE76E185E59BE00E94C8896DED76E110
:1056600085E59BE00E94C88964ED76E185E59BE0D5
:105670000E94C88966EC76E185E59BE00E94C889B6
:1056800068EB76E185E59BE00E94C8896CEA76E1EB
:1056900085E59BE00E94C88964EA76E185E59BE0A8
:1056A0000E94C88961E976E185E59BE00E94C8898E
:1056B00067E876E185E59BE00E94C88985E59BE087
:1056C0000C9441880F931F93CF93DF9300D000D0A9
:1056D000CDB7DEB70E948E2A66E070E185E59BE0DB
:1056E0000E94C889CE0101960E941523CE01019621
:1056F0000E9497280FE014E01A8309838091CE0A54
:105700009091CF0AA091D00AB091D10A8B839C834B
:10571000AD83BE83CE0101960E9497281A83098328
:105720001B821C821D821E8280E591E00E9489A45A
:1057300044E050E0BE016D5F7F4F81E090E00E9449
:10574000FA91CE0101960E9497281A8309831B8241
:105750001C821D821E8280E591E00E9489A444E0A3
:1057600050E0BE016D5F7F4F85E090E00E94FA91AE
:10577000CE0101960E9497286CE270E185E59BE0DE
:105780000E94C88988EC90E026960FB6F894DEBF98
:105790000FBECDBFDF91CF911F910F9108958091E2
:1057A00059078823B1F0E091A206F091A306309743
:1057B00031F08681978190935D0780935C076FEE4F
:1057C0007FE085E59BE00E94C88985E59BE00C941D
:1057D00041880895CF92DF92EF92FF920F931F932B
:1057E000CF93DF9300D000D0CDB7DEB7809109070B
:1057F00081119AC08091CD089091CE0802970CF447
:1058000093C08091AC069091AD06009709F48CC0CE
:105810006CE574E00E94CB9A8C01009709F484C077
:105820000E948A9FE82EF12CE114F10409F47CC057
:1058300070E060E0C8010E9472246C01EA94EF28D5
:1058400009F481C061E0C8010E94439BFC0101850D
:105850001285CE0101960E941523CE0101960E9469
:105860008CA460EE7FE085E59BE00E94C889B601CC
:1058700085E59BE00E9471896BEC74E085E59BE017
:105880000E947189B80185E59BE00E94399F6BEC0D
:1058900074E085E59BE00E9471896BEB78E085E51B
:1058A0009BE00E94718985E59BE00E94418862E04F
:1058B00072E084E29CE00E949117D0921A0CC09290
:1058C000190C10931C0C00931B0C8BEB98E0892B8C
:1058D000E9F58AE594E090931E0C80931D0C80916D
:1058E0005C0790915D07009741F070E060E00E94D6
:1058F000722490935B0780935A0780915A07909186
:105900005B07009731F19093200C80931F0C10924D
:10591000220C1092210C81E08093090767EC7FE054
:1059200085E59BE00E94C88926960FB6F894DEBFF5
:105930000FBECDBFDF91CF911F910F91FF90EF90E0
:10594000DF90CF90089502E012E083CF8BEB98E0D8
:10595000C2CF8CEC92E0892B19F48AE594E0D3CF86
:105960008CEC92E0D0CF0F931F93CF9362EC7FE04B
:1059700085E59BE00E94C88909E31BE0C0E0F801CF
:1059800081918F01803130F468E474E085E59BE01B
:105990000E947189C530C9F0F8013197408150E00B
:1059A00070E060E020E130E085E59BE00E94E78860
:1059B00060EC7FE085E59BE00E94C889CF5FC63040
:1059C000F1F6CF911F910F91089540913E0B50E059
:1059D00070E060E020E130E085E59BE00E94E78830
:1059E00085E59BE00E944188E9CFEF92FF920F93FB
:1059F0001F93CF93DF9300D000D01F92CDB7DEB7B7
:105A00007B01CE0107969F938F9301979F938F936E
:105A100001979F938F9301979F938F9301979F93E4
:105A20008F9301979F938F938E010F5F1F4F1F934B
:105A30000F9383E694E09F938F93DB0113968C91F1
:105A400013978F9312968C918F930E94ECD80FB678
:105A5000F894DEBF0FBECDBF0697ECF464E175E1AC
:105A60008FE59BE00E94C889D70112966D917C91C9
:105A70008FE59BE00E94718980E991E027960FB63F
:105A8000F894DEBF0FBECDBFDF91CF911F910F9174
:105A9000FF90EF9008958091310B9091320B892BFC
:105AA000A9F10E941B9C882389F182E70E94069C31
:105AB0008091310B9091320BDC01ED91FC910088CB
:105AC000F189E02D64E070E019958091310B90919F
:105AD000320BDC01ED91FC910280F381E02D46E078
