:100000000C9461100C9492100C9492100C94921019
:100010000C9492100C9492100C9492100C949210D8
:100020000C9492100C9492100C9492100C949210C8
:100030000C9492100C9492100C9492100C949210B8
:100040000C9492100C9492100C9492100C949210A8
:100050000C9492100C9492100C9492100C946CAC22
:100060000C9492100C944F8B0C94258B0C94921042
:100070000C9492100C9492100C9492100C94921078
:100080000C9492100C9492100C9492100C94921068
:100090000C94FB8A0C94D18A0C9492100C94A8298D
:1000A0000C9492100C9492100C9492100C94921048
:1000B0000C9492100C9492100C9492100C94921038
:1000C0000C9492100C9492100C9492100C94A78A99
:1000D0000C947D8A0C9492100C94538A0C94298A67
:1000E0000C94921007634236B79BD8A71A3968560A
:1000F00018AEBAAB558C1D3CB7CC5763BD6DEDFD4A
:10010000753EF6177231BF000000803F0800000006
:10011000BE922449123EABAAAA2ABECDCCCC4C3EFC
:1001200000000080BEABAAAAAA3E00000000BF00EB
:100130000000803F0000000000084178D3BB4387E7
:10014000D1133D190E3CC3BD4282AD2B3E68EC82FB
:1001500076BED98FE1A93E4C80EFFFBE01C4FF7F80
:100160003F00000000000C94FB390C942E150C94F9
:10017000CD7E0C94CA230C94C17D0C949F1E0C94CC
:10018000963C0C944E120C94B4200C94A13A0C940E
:10019000BA140C946E3C0C94E0C10C94523D0C9437
:1001A000005F0C94FEA50C9451120C94B6140C94A0
:1001B000115E0C9431180C941A860C9431630C94D3
:1001C00014160C943A290C941D160C943D280C948A
:1001D0003E5F0C94E0380C94454D0C946E480C94A2
:1001E0004EB80C94CE370C94203C0C947E140C9496
:1001F000CB130C9462140C94EAC20C94B6610C9468
:100200006CC20C940B3D0C948D380C9477280C9494
:100210005C140C940F290C94AE100C9445120C94A1
:100220006A120C94524D0C945F140C94FF390C9488
:10023000F55E0C94623D0C94F5210C9413C30C9460
:100240007F620C9473120C9414490C94157D0C94D9
:10025000B5BD0C94B23B0C94AC190C9457A60C94FD
:10026000633D0C94AA190C946F210C94A6120C9463
:10027000007C0C9431A50C944C260C94AA100C9480
:1002800061310C948DC20C940B130C9481120C945C
:10029000693A0C948A130C94A2690C94D24C0C9475
:1002A000253D0C9451170C946B7C0C9476710C9436
:1002B0007AA60C9419120C94747D0C9484200C94DE
:1002C000BC5E0C94B0360C9473170C945F7E0C9447
:1002D00066620C94A8150C9433400C9427A50C94DA
:1002E000794D0C9439620C946A3C0C94AE190C94C0
:1002F0008F1F0C941F120C94B21D0C94B5740C94A7
:10030000825A0C948A380C9425170C9446120C943B
:10031000C0200C94258D0C9486120C94FA140C9425
:1003200006550C940E8D0C94477C0C9445400C940F
:1003300055A50C944B180C94EB130C94797C0C94ED
:1003400043A50C94C1620C944DA50C9428130C94F5
:10035000708D0C94BF270C943A180C9458A50C94EB
:100360007B7E0C949E140C94EC610C94CD380C9410
:100370000BA60C94B0190C9407B60C9483730C94D0
:100380007F480C947F150C94A6C40C948EA60C94F4
:10039000923D0C94F25E0C94643B0C94D3470C9405
:1003A0006C140C9466180C948E120C94B7380C9440
:1003B0001C180C94F91E0C945A7D0C94C8C40C940F
:1003C00005620C9416120C946D780C9429A60C946A
:1003D000D6140C94B47E0C94AC130C940D7E0C9437
:1003E000035F0C94787F0C94B9490C949C3B0C945B
:1003F000413D0C9458C20C945E3C0C9466A60C943F
:100400002F800C94E93D0C94CF5E0C94413C0C94ED
:10041000D7370C94E65E0C94A8200C94A85E0C943C
:10042000C3350C941DA50C9439A50C9419A50C94F6
:10043000333D0C94FE8E0C94B0630C94E4230C9426
:10044000563A0C9421A50C94E3620C94561A0C9421
:1004500098A60C9406A60C9431390C9483490C94FC
:1004600059A50C94DD690C94FC620C94AF1D0C949E
:1004700098380C9479160C9435A50C9415A60C9408
:1004800039260C94F01B0C94CF100C944DA60C94B0
:10049000847D0C94A8140C94B4190C9459210C94D8
:1004A0008E150C94BE380C94C7150C946F120C94D6
:1004B00072150C947E7D0C94FA4C0C94851E0C9451
:1004C00007120C94F3390C94C4390C944E5E0C94BE
:1004D00043A60C94D9210C9403130C94201E0C9465
:1004E00080610C94B21E0C940B160C942BA50C94EA
:1004F00083120C9432380C94F2130C94D16C0C943B
:10050000CA3C0C94058D0C94F47D0C94E3130C946C
:1005100084A60C94607F0C9413A50C9496120C94F2
:1005200023780C9405C30C94E6480C94E2470C9491
:1005300092120C9437850C94C51E0C9431150C94B2
:10054000BE210C943FA50C9415120C94D71F0C944B
:1005500079390C942A2B0C941A260C94CE7C0C948A
:100560008A7E0C94A8280C94C4100C9477120C94D6
:100570001FA60C942B380C9440120C9460120C940F
:1005800009BD0C944D3D0C9411340C94F3200C9443
:10059000BB8D0C94013A0C9450390C94033A0C9492
:1005A00093730C9449120C94E9390C9451A50C9452
:1005B000577C0C940F5F0C94C93D0C9465140C94FB
:1005C0002B3C0C94013D0C94F1150C94364D0C947D
:1005D0008F3D0C948F2E0C94C47F0C948C630C94E0
:1005E0001D4D0C9490380C94D1370C945F120C94E0
:1005F00031A60C9493380C945D3A0C9434130C94FB
:10060000407F0C947F3B0C94E03C0C9489630C94E9
:10061000143A0C94BC140C940C6D0C94993B0C94EF
:1006200070A60C94BF140C94EC490C94B2190C9461
:10063000C67E0C947B7D0C9463120C9436BB0C9498
:10064000D4130C9454B80C94C4380C9404540C94E3
:10065000828D0C9410330C94EE7B0C940A170C943E
:1006600094100C945EC20C94A63C0C94DC380C9450
:10067000A2410C9447A50C94904C0C947C180C94BB
:10068000AB390C9439A60C94EC160C948F630C9433
:100690001E120C94F48C0C94DF280C94F4470C94E8
:1006A0006D3A0C94017C6364696E6F707375785851
:1006B0005B004E414E494E495459494E46CDCCCC33
:1006C0003D0AD7233C17B7D13877CC2B329595E626
:1006D000241FB14F0A000020410000C84200401C06
:1006E0004620BCBE4CCA1B0E5AAEC59D74556E6BDF
:1006F0006E6F776E207375666669782000556E6B35
:100700006E6F776E20636D642000636C7243747249
:100710003A20002F00496E3A20003D00494E3A0031
:100720003D004C454741435920494E3A00000020C6
:10073000002300260029002C002F003200000100B9
:10074000000301060109012D3E00200023002D3E7B
:1007500000200050656E6465643A20230072617762
:100760000076616C0074656D70007361740068756B
:10077000650066616E0052474200485356006D6F37
:10078000646500536574436D643A0053746F726519
:1007900064204558543A00737566666978436F64FF
:1007A000653A00584F4E0048414C54002074696D22
:1007B000653A004374726C205265733A00205453BA
:1007C0003A0020543A003D0050696E3A004F4E3ACC
:1007D000416C7265616479204163746976650A00D1
:1007E00048414C543A416C726561647920496E61AC
:1007F00063746976650A00584F4E3A416C726561C0
:100800006479204163746976650A00584F46462032
:10081000736B69707065642E205072657620636D0D
:10082000643A005475726E6564206F666620667265
:100830006F6D3A00526573746F7265642066726FF3
:100840006D3A0049676E6F7265642C206368616E53
:100850006E656C20636D643D0020457865633A00E9
:100860004163746976653A0048414C543A416C7270
:100870006561647920496E6163746976650A005820
:100880004F4E3A416C7265616479204163746976B8
:10089000650A00584F464620736B69707065642E78
:1008A000205072657620636D643A005475726E65EF
:1008B00064206F66662066726F6D3A0052657374CD
:1008C0006F7265642066726F6D3A004E6F742065BA
:1008D0006E6F756768206D656D6F727920666F72D7
:1008E0002067726F7570206F7065726174696F6ECA
:1008F00000206D73203A0041726D656420666F724E
:1009000020002044697361726D656400536B6970E7
:1009100070656420686F6D69652073747566660024
:100920004F75744F664D656D6F7279210A00200016
:10093000205375623D00204974656D3D0052414D64
:100940003D00282D292000282B2920002076616CCD
:100950007565206973200020756E6B6E6F776E0A67
:10096000005D3D005B0020696E76616C696400206B
:1009700000206F6B003A00206661696C6564003A84
:10098000005265747279696E67206D6F6462757369
:1009900020434D440A00207365632072656D6169D0
:1009A0006E696E6700537461747573206465666662
:1009B000657265640A002D3E005075623A2000633E
:1009C0006D640046414E5F4F4E4C590044525900F1
:1009D000434F4F4C0048454154004155544F002D62
:1009E0003E005075623A20007365740064656C00C7
:1009F0002D3E005075623A20002D3E005075623A3F
:100A00002000556E6B6E6F776E20636D64200A0058
:100A10004F4646004F4E0020002D3E00436F6E763D
:100A2000657274696E6720002D3E0057726F6E67A5
:100A30002041737369676E6D656E74200052474282
:100A4000783A200020764C6576656C3A0020436F3A
:100A50006E76563A0020436F6E76533A0020486F08
:100A6000743A00436F6C643A0020436F6E7665728F
:100A700074656420563A00436F6E766572746564DF
:100A800020533A002D3E0057726F6E6720417373FA
:100A900069676E6D656E7420002D3E0057726F6E33
:100AA000672041737369676E6D656E7420005361D2
:100AB0007665643A0020537566663A002041543AE0
:100AC00000436F6E666967206368616E67656420C6
:100AD0006C6F63616C6C792C20706F7274616C2028
:100AE00064697361626C6564002F636F6E66696729
:100AF0002E6A736F6E007265626F6F742000436DB3
:100B0000643A20002F636F6D6D616E642F002F7249
:100B1000616D2F002F6974656D2F002F6974656DED
:100B20002F004C6F636174696F6E3A206874747043
:100B30003A2F2F6C617A79686F6D652E72752F7000
:100B40007761003F6D61633D002669703D0026704E
:100B50006F72743D00266E616D653D002F002000B0
:100B6000436F6D706C6574652E2052656D6F766590
:100B700020746F706963200024636F6D6D616E6413
:100B800000536B697070696E672E2E00436C65614F
:100B90006E55702072657461696E656420746F7043
:100BA00069632000220022004F75744F664D656D09
:100BB0006F727921005D20003A5B000A005D0045FC
:100BC0006D7074793A205B000A003A004D41433A57
:100BD00000554450205379736C6F6720696E6974B7
:100BE00069616C697A65642E0A005379736C6F676A
:100BF00020706172616D733A0043757272656E7434
:100C0000204C414E20636F6E6669672869702C64C2
:100C10006E732C67772C7375626E6574293A000ABF
:100C200055736520746865736520636F6D6D616EC3
:100C300064733A202768656C7027202D20746869DA
:100C40007320746578740A276D61632064653A6166
:100C5000643A62653A65663A66653A3030272073D1
:100C6000657420616E642073746F7265204D41431A
:100C70002D6164647265737320696E20454550521E
:100C80004F4D0A276970205B69705B2C646E735B43
:100C90002C67775B2C7375626E65745D5D5D5D2797
:100CA000202D20736574207374617469632049502A
:100CB0000A277361766527202D207361766520638E
:100CC000757272656E7420636F6E66696720696EF7
:100CD000204E5652414D3B204F4E7C4F4646202DD4
:100CE00020656E61626C652F64697361626C65205A
:100CF0006175746F736176650A2767657427205B79
:100D0000636F6E66696720616464725D27202D20C1
:100D100067657420636F6E6669672066726F6D2009
:100D20007072652D636F6E666967757265642055B4
:100D3000524C20616E642073746F7265206164642C
:100D4000722C204F4E7C4F4646202D20656E6162EE
:100D50006C652F64697361626C6520646F776E6C7B
:100D60006F6164206F6E20737461727475700A27EE
:100D70006C6F616427202D206C6F616420636F6E3F
:100D80006669672066726F6D204E5652414D0A2784
:100D900070776427202D20646566696E6520616E1A
:100DA000642073746F7265204D51545420706173C8
:100DB00073776F72640A276F746170776427202DD0
:100DC00020646566696E6520616E642073746F725D
:100DD0006520485454502041504920706173737706
:100DE0006F72640A276C6F67205B73657269616C50
:100DF0005F6C6F676C6576656C5D205B7564705FBA
:100E00006C6F676C6576656C5D27202D2064656668
:100E1000696E65206C6F67206C6576656C20283084
:100E20002E2E37290A276B696C6C27202D207465BC
:100E30007374207761746368646F670A27636C65F5
:100E4000617227202D20636C6561722045455052E8
:100E50004F4D0A277265626F6F7427202D207265CF
:100E6000626F6F7420636F6E74726F6C6C6572006A
:100E7000536F6674207265626F6F74696E672E2E91
:100E80002E0052414D3D000A5379736C6F6720006C
:100E90000A6D71747420000A696E70757473200095
:100EA0000A6974656D7320000A436F6E6669677521
:100EB0007265643A003B003D0050696E3A003B00A9
:100EC0003D4C4F5700546865726D6F3A0041707029
:100ED0006C79696E6720636F6E666967004C6F613D
:100EE00064656420455441473A004E6F2073746F27
:100EF00072656420636F6E666967004C6F6164653C
:100F0000642066726F6D20454550524F4D006C6FE6
:100F10006164206661696C6564004C6F6164696E30
:100F20006720436F6E6669672066726F6D20454566
:100F300050524F4D00436F6E666967206175746F44
:100F4000736176653A000A5379736C6F6720646544
:100F5000627567206C6576656C3A005365726961ED
:100F60006C206465627567206C6576656C3A005329
:100F7000617665640A005365742064796E616D69F9
:100F8000632049500A00454550524F4D20636C651F
:100F9000617265640A004D51545420506173737737
:100FA0006F726420757064617465640A004F544107
:100FB0002050617373776F7264207570646174651B
:100FC000640A00636F756C64206E6F7420706172C8
:100FD00073653A2000557064617465640A004E6F51
:100FE000204950206164726573730052656C6561BD
:100FF00073696E6720736F636B657420616E642024
:10100000726574727900205361766564004C6F617B
:1010100064696E67204854545020636F6E66696738
:10102000206F6E20737461727475703A004F46467B
:10103000004F4E002B002D00455461673A200047B9
:10104000657420455441473A2000485454502F318C
:101050002E312025690025733A2025730D0A0020C2
:10106000485454502F312E310D0A486F73743A2072
:1010700025730D0A4163636570743A202A2F2A0D87
:101080000A436F6E6E656374696F6E3A20636C6FAE
:1010900073650D0A0025730020000D0A00474554B2
:1010A000006661696C656420746F20636F6E6E65A5
:1010B00063740A004552524F523A20536572766566
:1010C000722072657475726E65642000436F6E667F
:1010D0006967206E6F74206368616E6765640A00DB
:1010E000446F6E652E0A00436F6E666967207061FB
:1010F0007273696E67206661696C65640A00676F68
:101100007420436F6E6669670A0066726565200029
:10111000436F6E666967205552493A20687474704F
:101120003A2F2F002044656661756C7420636F6EE2
:101130006669672073657276657220757365643AB7
:1011400020006C617A79686F6D652E7275000A28CF
:101150002B29454C455641544F52000A282B294D06
:10116000554C544956454E54000A282B2950574D8A
:101170005F52454C4159000A282D294D444E5300D9
:101180000A282D2955415254425249444745000AE4
:10119000282B295359534C4F47000A282D295049D1
:1011A00044000A282D294D43503233303137000A8C
:1011B000282D294152544E4554000A282B294F54BA
:1011C00041000A282D29535049204C4544000A2843
:1011D0002D294D4F544F5220435452000A282B2999
:1011E0004143204841494552206F6E205365726942
:1011F000616C33000A282D294343533831312026AE
:101200002048444331303830000A282B29524553B6
:10121000544152545F4C414E5F4F4E5F4D515454B8
:101220005F4552524F5253000A282D2948415244DB
:1012300052455345542C207573696E6720736F6651
:1012400074000A282D29434F554E544552000A2850
:101250002D29444854000A282D294F57495245004A
:101260000A282D294D4F44425553000A282D294460
:101270004D58000A282B2957697A6E6574357830E5
:1012800030000A282B294672656552616D20707204
:10129000696E74696E67000A282B295741544348C8
:1012A000444F47000A4669726D77617265204D416F
:1012B0004320416464726573732064653A30313A47
:1012C00032333A30303A30303A3031006C617A792A
:1012D000686F6D652E7275000A436F6E66696720D0
:1012E0007365727665723A003230313730334C00B4
:1012F00020432B2B2076657273696F6E3A0036346B
:1013000065656130375F323032322D30352D313006
:10131000000A4C617A79686F6D652E7275204C6990
:1013200067687448756220636F6E74726F6C6C6569
:10133000722000204F464600204F4E002042595058
:1013400041535300757074696D6500667265656818
:10135000656170002054696D65723A00204C6F63BE
:101360006B733A002000204C6F636B733A000A5293
:10137000414D3D0020457870697265640A00202D5A
:10138000746172676574207A6F6E652D0020416C00
:1013900061726D20457870697265640A0020636D22
:1013A000643A00204375723A00205365743A005342
:1013B0006176656420746F20454550524F4D00534F
:1013C0006176696E6720636F6E66696720746F204F
:1013D000454550524F4D2E2E002069732000446524
:1013E0006C6574696E6720636F6E662E2052414D86
:1013F000207761733A0053746F70706564005374A2
:101400006F7070696E67206368616E6E656C7320C3
:101410002E2E2E004E6F7420756E6C6F636B65649C
:1014200020696E20313073202D20636F6E74696ED9
:101430007565202E2E2E00556E6C6F636B696E677E
:1014400020636F6E666967202E2E2E00414320496F
:101450006E69740041432044652D496E69740045EE
:101460005252004452590046414E5F4F4E4C590073
:101470004845415400434F4F4C00506F6C6C696EAF
:1014800067004C4F57004D454449554D004849476A
:1014900048004155544F0072617700717565697459
:1014A000007377696E67006C6F636B0044656661FB
:1014B000756C742073657269616C206D6F64652052
:1014C0004E38312075736564003845310026003888
:1014D0004E31000600384532002E00384E32000EE4
:1014E00000384F31003600384F32003E003745316A
:1014F000002400374532002C00374F3100340037CC
:101500004F32003C00374E31000400374E32000CA1
:1015100000203D3E002C002C002C002C00456C656A
:101520007661746F723A20636F6E666967206661D8
:10153000696C65643A00456C657661746F7220630E
:101540006F6E666967206572726F7200456C6576B2
:1015500061746F7220636F6E666967206C6F61647F
:1015600065642000456C657661746F723A204F7532
:1015700074206F66206D656D6F727900456C6576BD
:1015800061746F722044652D496E6974004030307B
:1015900052523030303030313030334630303431E8
:1015A0003043303034322A00403030525230303004
:1015B0003030323030374630303032313030303306
:1015C000302A0040303052523030303030343030F9
:1015D0003346303038343134303033382A003C0030
:1015E0003E00556E6B6E6F776E2073756666697818
:1015F0002000556E6B6E6F776E20636D6420005314
:101600006574206E6F7420696D706C656D656E74A5
:10161000656400466F726365642065786563757400
:10162000696F6E00454C45563A20004D756C7469E3
:1016300056656E7420636F6E666967206661696CBB
:101640006564004D756C746956656E7420696E69C9
:1016500074004D756C746976656E742044652D490F
:101660006E697400204F75743A00206D3300206657
:10167000726F6D2000204D61782072657175657301
:10168000743A002066616E253A00206163746976C1
:101690006520563A00546F74616C20563A002069F8
:1016A0006E69740050574D2D4F75742023002073C0
:1016B000746F700050574D2D4F75742023003D00FE
:1016C00050696E3A0020696E69740052656C6179E8
:1016D0002D4F75742023002073746F700052656C59
:1016E00061792D4F75742023003D3E003A007075DE
:1016F0006220616374696F6E200069646C65006FBD
:1017000066660068656174696E670066616E006494
:101710007279696E6700636F6F6C696E670020692C
:101720007320004F75742000556E6B6E6F776E20BE
:101730007375666669782000556E6B6E6F776E20E4
:10174000636D642000616374696F6E0072656C6123
:10175000794374723A20005B305D3A2000202D20DE
:101760002D202D20EFBBBF003E003E31202D20005C
:1017700020002E00696E00735F6F7574006D7968CC
:101780006F6D6500202D3E2000456D69743A200084
:10179000202D3E20004974656D436D643A20002081
:1017A0002D3E20004974656D3A20003E3E200049E0
:1017B0006E76616C696420636F6D6D616E64003E6E
:1017C0003E3E004E6F204D414320636F6E66696759
:1017D000757265643A20736574206669726D77610D
:1017E00072652773204D41430A004E6F2076616C6D
:1017F000696420454550524F4D20646174612E202C
:10180000496E697469616C697A696E672E00476F09
:101810007420495020616464726573733A002769CB
:1018200070205B69705B2C646E735B2C67775B2C3C
:101830007375626E65745D5D5D5D27202D20736537
:1018400074207374617469632049500A00466169A9
:101850006C656420746F20636F6E6669677572656E
:101860002045746865726E6574207573696E6720B3
:10187000444843502E20596F752063616E20736574
:1018800074206970206D616E75616C6C7921000A3D
:101890007573657320444843500A00204D41534BF3
:1018A0003A002047573A0020444E533A004C6F61AB
:1018B0006465642066726F6D20666C617368204990
:1018C000503A005374617274696E67206C616E00E7
:1018D0004142434445464748494A4B4C4D4E4F5080
:1018E0005152535455565758595A6162636465664C
:1018F0006768696A6B6C6D6E6F7071727374757600
:101900007778797A303132333435363738392B2F8E
:101910003D004261736963200061726475696E6F96
:101920003A004F544120696E697469616C697A6547
:10193000640A0044454641554C54207061737377E6
:101940006F726420666F72204F5441204150492EBF
:1019500020557365206F746170776420636F6D6DBF
:10196000616E6420746F20736574007061737377A7
:101970006F726400757074696D652C667265656858
:101980006561700024737461747300363465656139
:1019900030375F323032322D30352D3130004C69E6
:1019A0006768744875622000246E616D6500726519
:1019B00061647900546F6F206D616E79204D5154D0
:1019C0005420636F6E6E656374696F6E206572720A
:1019D0006F72732E2052657374617274204C414E85
:1019E000002074727920616761696E20696E20350C
:1019F000207365636F6E6473006661696C65642C47
:101A00002072633D004177616974696E6720666F7B
:101A1000722072657461696E656420746F706963A9
:101A20007300636F6E6E656374656420617320007C
:101A3000202E2E2E0020757365723A003A000A415E
:101A40007474656D7074696E67204D5154542063D1
:101A50006F6E6E656374696F6E20746F20002473FF
:101A60007461746500646973636F6E6E6563746539
:101A700064005573696E67204D5154542070617332
:101A800073776F72642066726F6D20636F6E666924
:101A90006700446576696365204E616D653A004173
:101AA00074206C6561737420646576696365206E6B
:101AB000616D6520616E642062726F6B6572204992
:101AC00050206D75737420626520636F6E66696760
:101AD0007572656400526562696E64207375636334
:101AE0006573732E20495020616464726573733A84
:101AF000004572726F723A20726562696E64206688
:101B000061696C0052656E65776564207375636307
:101B10006573732E20495020616464726573733A53
:101B2000004572726F723A2072656E657765642047
:101B30006661696C000A4E6F206C696E6B005265BD
:101B400073746F72696E6720636F6E666967206673
:101B5000726F6D20454550524F4D00416363657073
:101B600074696E6720636F6D6D616E64732E2E2EC7
:101B70000A004E6F204D51545420636F6E666967A2
:101B800075726564004C6F6164696E6720636F6E87
:101B90006669672066726F6D20706F7274616C2069
:101BA00064697361626C65642E2075736520676576
:101BB00074204F4E20746F20656E61626C65004327
:101BC0006F6E6669672069732076616C6964004393
:101BD0006F6E74696E7565207769746820707265C0
:101BE00076696F75736C79206C6F616465642063CE
:101BF0006F6E6669670000002100240027002A003C
:101C00002D003000330001010000040107010A012A
:101C100000002200250028002B002E003100340097
:101C200002010000050108010B0105050505070576
:101C300008080808020202020A0A08080404040448
:101C40000101010101010101030303030303030374
:101C5000040707070C0C0C0C0C0C0C0C0202020203
:101C600006060606060606060B0B0B0B0B0B0B0BEC
:101C7000050505080807070404040A0A0A0A0A0AEF
:101C8000010210202008081020401020408002018E
:101C90000201080402010102040810204080804073
:101CA0002010080402018004020180402010080472
:101CB0000201080402010102040810204080010210
:101CC0000408102040800440800480081010204048
:101CD00004081020408000000B0C030A0D0E0F09B1
:101CE00008040502000000000000000000000000E1
:101CF00000000000000000000000000000000000E4
:101D0000000013121100000000000000000000009D
:101D100000000000000000000000000000000000C3
:101D20000000000000000000000000002F6461744B
:101D300061002F736B65746368004163636573733F
:101D40002D436F6E74726F6C2D526571756573746F
:101D50002D507269766174652D4E6574776F726B64
:101D60003A2074727565004163636573732D436F28
:101D70006E74726F6C2D416C6C6F772D4865616469
:101D80006572733A202A004163636573732D436F54
:101D90006E74726F6C2D416C6C6F772D4D6574682D
:101DA0006F64733A20504F53542C4745542C4F5076
:101DB00054494F4E53004163636573732D436F6EF7
:101DC00074726F6C2D416C6C6F772D437265646516
:101DD0006E7469616C733A2074727565004F50546B
:101DE000494F4E530044454C45544500505554000E
:101DF00047455400504F535400617574686F7269C1
:101E00007A6174696F6E3A2000417574686F726907
:101E10007A6174696F6E3A2000436F6E74656E74F8
:101E20002D4C656E6774683A20006F637465742F7B
:101E300073747265616D00696D6167652F6A7065A5
:101E40006700696D6167652F6769660074657874FE
:101E50002F68746D6C006170706C69636174696F78
:101E60006E2F6A736F6E00746578742F706C616981
:101E70006E00436F6E74656E742D547970653A20F0
:101E800000436F6E6E656374696F6E3A20636C6FAA
:101E90007365004163636573732D436F6E74726F76
:101EA0006C2D416C6C6F772D4F726967696E3A20AB
:101EB000687474703A2F2F6C617A79686F6D652E33
:101EC000727500556E6B6E6F776E004E6F74204D9D
:101ED0006F646966696564004F4B004D6F76656499
:101EE000207065726D616E656E746C7900496E74F8
:101EF00065726E616C2053657276657220457272F0
:101F00006F72005061796C6F616420546F6F204C68
:101F100061726765004E6F7420666F756E6400575E
:101F200057572D41757468656E7469636174653ABD
:101F3000204261736963207265616C6D3D2241636B
:101F40006365737320726573747269637465642268
:101F500000556E617574686F72697A6564005061CE
:101F6000796C6F61642073697A652077726F6E6730
:101F70000042616420726571756573740048545441
:101F8000502F312E31200020000000000000000002
:101F900000004F4E000000000000004F46460000C9
:101FA00000000000524553540000000000544F4709
:101FB000474C4500000048414C54000000000058C8
:101FC0004F4E000000000000584F46460000000041
:101FD00000494E4352454153450044454352454113
:101FE000534500484541540000000000434F4F4C0A
:101FF00000000000004155544F0000000000464121
:102000004E5F4F4E4C5900445259000000000000F2
:1020100053544F500000000000484947480000005A
:1020200000004D454449554D0000004C4F570000FD
:102030000000000054525545000000000046414C8D
:10204000534500000000454E41424C4544000044C9
:10205000495341424C4544005247420000000000B1
:102060000048535600000000000057726F6E672052
:102070007061796C616400202D3E2041543A004328
:1020800068616E20747970653A004E6F2073746FCA
:102090007265642076616C756573202D20646566B9
:1020A00061756C743A200053617665642045544133
:1020B000473A0053657420455441473A2000C8C44C
:1020C000A6C411241FBECFEFD1E2DEBFCDBF00E01A
:1020D0000CBF16E0A0E0B2E0E6EEF6EB01E00BBFCD
:1020E00002C007900D92A83DB107D9F720E1A8EDF5
:1020F000B6E001C01D92A236B207E1F710E1C0E6DA
:10210000D0E100E006C021970109802FFE010E9466
:1021100029D6CF35D10780E00807A9F70E9462B41D
:102120000C9461DB0C940000CF93DF931F92CDB72A
:10213000DEB76983DC01ED91FC910280F381E02D33
:1021400041E050E0BE016F5F7F4F19950F90DF9126
:10215000CF910895FC01818D928D0895CF93DF93E7
:102160001F92CDB7DEB76983DC01ED91FC9102804F
:10217000F381E02D41E050E0BE016F5F7F4F199584
:102180000F90DF91CF910895FC019485FB01848528
:10219000981303C081E0983008F080E00895CF9351
:1021A000DF931F92CDB7DEB76983DC01ED91FC911F
:1021B0000280F381E02D41E050E0BE016F5F7F4F70
:1021C00019950F90DF91CF91089585ED8093BC0014
:1021D0008091BC0084FDFCCF10926008089520918E
:1021E0003C08260F3327331F21323105ECF42091B0
:1021F0006008FC0190E080E0243069F082E00895FE
:10220000A0913C082191AC01445E574FA40FB52F1B
:10221000B11D2C930196861798F380913C08680FA6
:1022200060933C0880E0089581E008958FEF9FEF70
:1022300008958FEF9FEF089580911B0890E091958E
:10224000819591090895CF93DF93CB01EA01642F23
:102250000E94EF10CE01DF91CF910895CF93DF93CD
:102260001F92CDB7DEB7698361E0CE0101960E946F
:10227000EF1081E090E00F90DF91CF91089590E012
:10228000FC01E65DF34EE491F0E0EE0FFF1FE05F2E
:10229000F34EA591B4912C918058934EFC018491FA
:1022A000822391E009F490E0892F08958F929F9204
:1022B000AF92BF92CF92DF92EF92FF920F931F9354
:1022C000CF93DF9300D000D000D01F921F92CDB7E4
:1022D000DEB77C018E010F5F1F4F68018AE0882EF8
:1022E000912CA12CB12CC601801B910B41155105DD
:1022F0006105710581F0CB01BA01A50194010E942D
:102300009ED5942F852F605DF60161936F01A90121
:10231000692F782FE8CFF801E80FF91FD701015096
:10232000110922912D93E017F107D9F7E80EF91E54
:10233000F70110822B960FB6F894DEBF0FBECDBF0B
:10234000DF91CF911F910F91FF90EF90DF90CF9091
:10235000BF90AF909F908F900895FC01DC018D910C
:102360008111FDCF30E020E050E040E08AE0919123
:10237000992301F1443051055CF59E3271F42F3FF1
:10238000310509F02CF5DB01A40FB51F12962C9333
:102390004F5F5F4F30E020E0EACF829FD001839F04
:1023A000B00D1124292F990F330B205331092A0F17
:1023B0003B1FDDCF2F3F310509F054F44430510568
:1023C0003CF4640F751FFB01228381E090E00895C7
:1023D00090E080E00895CF93DF931F921F92CDB7D6
:1023E000DEB78091561090915710009711F482E655
:1023F00090E1BE016F5F7F4F681B790B072E000CC9
:10240000880B990B0F900F90DF91CF910895DC010D
:1024100015968D919C91009739F0DC01ED91FC911E
:102420000680F781E02D19940895089583E090E0E7
:1024300008958091C3079091C40708950895DC0121
:102440001296ED91FC9113973097B9F016968D91F5
:102450009C918430910541F08530910541F00397BE
:1024600049F482E090E0089581E090E0089581E1F0
:1024700090E00895808590E0089590E080E00895D0
:102480008091C1079091C2070895089590E080E07F
:1024900008958091BF079091C007089584E090E06F
:1024A0000895DC011496ED91FC91309729F080811C
:1024B000082E000C990B089590E080E0089508958F
:1024C00085E090E008958091080790910907817058
:1024D000992708958091F7069091F8060895FC01D8
:1024E000848195810895FC01768765870895DC01D4
:1024F000ED91FC91068CF78DE02D199591E08927DF
:102500000895862F089581E08627089521E0FC0133
:102510008485883008F020E0822F0895FC018485AE
:1025200095850895FC0184899589089522E334E016
:10253000FC0131832083FB014089518962897389C1
:10254000FC0142835383648375830895DC01ED911C
:10255000FC91048CF58DE02D1994CF93DF9300D07E
:1025600000D01F921F92CDB7DEB7FC016F3F7105FF
:1025700019F014F06FEF70E077FD60E09181892F22
:1025800082958F7081508230C8F4648388E0DE01C8
:10259000119601900D928A95E1F729813A814B813C
:1025A0005C816D817E818F81988528960FB6F89425
:1025B000DEBF0FBECDBFDF91CF9108959F709061B8
:1025C0009183E3CF0F931F93CF93DF93DC01C62F4B
:1025D0001196EC911197E295EF70EC3008F0BCC0C9
:1025E000F0E08827E950FD4E8F4F0C9429D6031355
:1025F00028132813AC13AC13AC138A133413AC1385
:10260000AC130B130B1370E060E0CB01DF91CF91A3
:102610001F910F91089514968D919D910D90BC91ED
:10262000A02D8F3F9105A105B10529F024F08FEF72
:1026300090E0A0E0B0E0B7FF03C080E090E0DC01F4
:102640006FEF70E0681B790BC111DFCFBC01DDCFEC
:1026500014966C9170E0CC23C1F28FEF90E09C0156
:10266000261B370BB901D1CF862F14960C911497E6
:1026700015961C9115971696DC9116971796CC9186
:1026800020E030E0A901B801882331F18D2F9C2F83
:102690000E9454D487FD1BC020E030E04FE753E494
:1026A000B8018D2F9C2F0E945CD7181624F400E0EF
:1026B00010E0DFE7C3E498014D2F5C2F60E070E08D
:1026C0008FE793E40E9447D60E9426D79ECF00E072
:1026D00010E0D0E0C0E0EFCF8D2F9C2F0E9454D4AB
:1026E00087FD13C020E030E04FE753E4B8018D2FA1
:1026F0009C2F0E945CD7181624F400E010E0DFE75E
:10270000C3E4B8018D2F9C2FDFCF00E010E0D0E0B4
:10271000C0E0F7CF14966D917D918D919C911797A4
:1027200024E630E040E050E00E94C0D52F3F310564
:102730004105510529F024F02FEF30E040E050E052
:1027400057FF03C020E030E0A9016FEF70E0621B8B
:10275000730BC1115ACF86CF6FEF7FEF56CFDC01DD
:102760001196EC911197E295EF70E150EB3008F083
:1027700039C0F0E08827E054FC4E8F4F0C9429D6E6
:10278000E313E313F213CB13CB13D413EB13EB13B9
:10279000EB13CB13CB1314966D917D918D919C917E
:1027A00017970E945BD4089514966D917D918D9139
:1027B0009C91179724E630E040E050E00E94C0D59D
:1027C000CA01B901EECF14966C9170E090E080E000
:1027D0000E9459D4089514966D917D918D919C918C
:1027E0001797089560E070E0CB010895FC01A78180
:1027F0002A2F2E7FD1F0818182958F708150833076
:10280000A0F4A695A150BB0B2BE531E00E9440D669
:1028100024E630E040E050E00E94C0D5DA01C90172
:1028200087569F4FAF4FBF4F08958FEF9FEF08958B
:10283000DC01ED91FC91309729F090859F7081E04B
:10284000953009F080E00895FC01A481B5811097CE
:1028500021F118969C9118979F708EEF890F823006
:1028600010F091111AC019964D935D936D937C935E
:102870001C97A481B58118969C911897907F9260BF
:1028800018969C930480F581E02D8085982F907F89
:10289000903619F48F70806A80870895DC0119964C
:1028A0008D919C91009739F0DC01ED91FC910280B3
:1028B000F381E02D199408958AE090E0089581E075
:1028C00090E0089588E090E00895DC01ED91FC919E
:1028D000008CF18DE02D1994CF93DF93EC01E8810A
:1028E000F9810484F585E02D199529893A892F5FAE
:1028F0003F4F3A8B298BDF91CF910895CF93DF9390
:10290000EC018E8581110DC081E090E049895A89E2
:102910002C853D854217530708F080E0DF91CF9169
:102920000895E881F9810484F585E02DCE0119959B
:102930008F3F910549F780E090E0F0CFFC0184855E
:1029400095856817790708F4CB01928B818B0895E0
:10295000DC011E962C911E97222339F0ED91FC91FB
:102960000190F081E02D6FEF19940895FC018785A7
:102970009089089581E0089590E080E00895FC0139
:1029800022813381232B49F0868197818130910503
:1029900039F01CF00397039730F090E080E0089541
:1029A00081E090E0089582E090E00895CF93DF9376
:1029B000CDB7DEB760970FB6F894DEBF0FBECDBFC0
:1029C00019821A821B821C821D821E821F82188617
:1029D0008A818F708A836FEF70E0CE0101960E942A
:1029E000AD1260960FB6F894DEBF0FBECDBFDF917B
:1029F000CF910895CF92DF92EF92FF920F931F93A2
:102A0000CF93DF93CDB7DEB760970FB6F894DEBFF4
:102A10000FBECDBF7C016B01BA01A901CE010196A9
:102A20000E945611D701ED91FC910288F389E02DA7
:102A30009801AE014F5F5F4FB601C70119956096CF
:102A40000FB6F894DEBF0FBECDBFDF91CF911F91BF
:102A50000F91FF90EF90DF90CF90089590E080E08D
:102A60000895CF92DF92EF92FF920F931F93CF932F
:102A7000DF9300D000D0CDB7DEB78C016B017A01B7
:102A8000FC01808D883010F40E948A9482E394E0E7
:102A90009A838983F60182819381A481B5818B8396
:102AA0009C83AD83BE83B701CE0101960E9411A421
:102AB000F801808F8830A0F4F586E486128E118E9E
:102AC00081E026960FB6F894DEBF0FBECDBFDF9132
:102AD000CF911F910F91FF90EF90DF90CF900895CD
:102AE00080E0EFCFCF93DF93EC01888D883020F426
:102AF0000E948A9488E0888FDF91CF910895FC012D
:102B0000808D883040F4218D328D232B21F00E945E
:102B10005C9390E008958FEF9FEF0895CF93DF933C
:102B2000FC012485283028F08FEF9FEFDF91CF91B3
:102B30000895EC010190F081E02D0084F185E02DF5
:102B40001995892B89F38C850E945C9390E0EECFD8
:102B5000CF93DF93FC01218D328D2115310529F4AE
:102B60008FEF9FEFDF91CF910895EC01808D421799
:102B7000530708F0A9010E94AB931816190684F7B1
:102B8000298D3A8D281B390B3A8F298FEBCF0F9364
:102B90001F93CF93DF931F92CDB7DEB7FC01218D3A
:102BA000328D232B41F48FEF9FEF0F90DF91CF9168
:102BB0001F910F9108958C0141E050E0BE016F5FBD
:102BC0007F4FFC01808D0E94AB93181619065CF7AD
:102BD000F801818D928D0197928F818F898190E08C
:102BE000E4CFCF93DF931F92CDB7DEB741E050E043
:102BF000BE016F5F7F4FFC0184850E94AB93181666
:102C0000190634F4898190E00F90DF91CF910895F7
:102C10008FEF9FEFF9CFFC018485883010F40C947E
:102C2000AB9390E080E00895FC018485883010F437
:102C30000C94849390E080E008950F931F93CF93BA
:102C4000DF9300D000D01F921F92CDB7DEB78C016A
:102C5000D80159964D915C915A974115510551F003
:102C6000ED91FC91048CF58DE02D70E060E0C801E1
:102C70001995EECFF801808D0E948493892BB1F1D4
:102C800048E050E0BE016F5F7F4FD80158968C91AD
:102C90000E94AB9318161906F4F4D801509684E0FC
:102CA000FE01319601900D928A95E1F78D8190E0B9
:102CB000982F88272E81820F911DF801958B848B88
:102CC0008F81282F30E0322F22278885820F932F83
:102CD000911D928F818F28960FB6F894DEBF0FBE9C
:102CE000CDBFDF91CF911F910F91089590E080E0CB
:102CF000F2CFCF92DF92EF92FF920F931F93CF9379
:102D0000DF93CDB7DEB7AF970FB6F894DEBF0FBE37
:102D1000CDBF7C016A0102E314E01A8309831C869B
:102D20001B8688EE93E0A0E0B0E08D879E87AF879A
:102D3000B88B88E094E09A878987188F0F8B198E5B
:102D40001A8E1B8E1C8E88E089A31BA70AA71CA6BF
:102D50001DA61EA61FA68091600D9091610DA091E9
:102D6000620DB091630D8EA39FA3A8A7B9A78B8313
:102D70009C83AD83BE8318861F82AE01465D5F4F84
:102D8000CE0101960E9407AA81309105B1F4D701C6
:102D9000ED91FC910488F589E02D1DA30CA38CA571
:102DA0009DA5AEA5BFA58EA39FA3A8A7B9A7A60161
:102DB000BE016C5D7F4FC7011995AF960FB6F894B1
:102DC000DEBF0FBECDBFDF91CF911F910F91FF905E
:102DD000EF90DF90CF9008950F931F93CF93DF93E1
:102DE000EC018B01888D883010F40E948A94B80120
:102DF00082E00E94D394888F883050F41D870C871E
:102E00001A8E198E81E0DF91CF911F910F91089555
:102E100080E0F9CF0F931F93CF93DF938C01EA01EA
:102E2000FC018485883048F40E94FA92892B39F499
:102E300081E090E0F80193838283D0E0C0E0CE018E
:102E4000DF91CF911F910F910895EF92FF920F9311
:102E50001F93CF93DF937C018091CF09D4E083331C
:102E600009F0D8E00FEB19E0C0E0F80121913191B1
:102E70008F01F701848195812817390729F0CF5FE9
:102E8000DC13F3CF80E006C08C2F0E94989484312D
:102E9000B1F781E0DF91CF911F910F91FF90EF90FB
:102EA0000895CF93DF93EC018C858830D0F40E9495
:102EB0009894843189F0882379F0883169F021E091
:102EC0008C3159F4E881F9810084F185E02DCE013F
:102ED000199521E0892B09F420E0822FDF91CF9111
:102EE000089580E0FBCFCF92DF92EF92FF920F9395
:102EF0001F93CF93DF93CDB7DEB7AF970FB6F8949C
:102F0000DEBF0FBECDBF8C016B017A0182E394E07E
:102F10009A8389831B821C821D821E821C861B86CB
:102F200048EE53E060E070E04D875E876F87788BF6
:102F300028E034E03A872987988F8F8B198E1A8E74
:102F40001B8E1C8E28E029A39BA78AA71CA61DA662
:102F50001EA61FA6D8011C968C91883060F40E9492
:102F60009894882321F0F80184850E947C9488E05D
:102F7000D8011C968C938091600D9091610DA09169
:102F8000620DB091630D8EA39FA3A8A7B9A78B83F1
:102F90009C83AD83BE8318861F82AE01465D5F4F62
:102FA000B601CE0101960E9407AA0097C1F0D80190
:102FB000ED91FC910684F785E02D82E394E09DA3DA
:102FC0008CA38CA59DA5AEA5BFA58EA39FA3A8A7E6
:102FD000B9A7A701BE016C5D7F4FC8011995AF96D7
:102FE0000FB6F894DEBF0FBECDBFDF91CF911F911A
:102FF0000F91FF90EF90DF90CF9008950F931F9364
:10300000182F0E9414A704C0969587957795679509
:103010001A95D2F78B019C01015011092109310940
:103020000E3F1F4F2F4F3F4F20F061E070E080E0D8
:1030300090E01F910F910895CF93DF93EC018C8561
:10304000883060F40E949894873111F08C3131F40B
:103050008C850E94DD928115984088F3DF91CF9195
:103060000895FC018485883010F40C94DD9290E082
:1030700080E0089562E576E18BE19FE00E94C286E0
:103080008BE19FE00E942C851092C0071092BF0731
:1030900081E090E0089564E574E18BE19FE00E9497
:1030A000C2868BE19FE00E942C851092F806109258
:1030B000F70681E090E0089564E370E1811102C0B9
:1030C00066E370E18AEE9DE00C94C28660E77EE0E4
:1030D0008AEE9DE00E94C286F0E0E0E0199584EF60
:1030E00091E0089567E479E0811102C062E479E03B
:1030F0008BE19FE00C94C2864F925F926F927F9219
:10310000AF92BF92DF92EF92FF920F931F93CF93F4
:10311000DF9300D000D0CDB7DEB77C01D62E8091F2
:103120001708882309F4BEC0D70114969C9180919A
:103130002A02891708F4B6C08091150890911608E4
:10314000BAE06B13F0C08B53984FFC011082D7018B
:1031500018960D911C910115110509F49FC0F801F5
:10316000618572856115710591F44580568067808F
:10317000708480915A0D90915B0DA0915C0DB0917F
:103180005D0D481659066A067B0609F487C0D8010A
:103190001B964D915C911C974115510509F47EC019
:1031A000F701248153968C91539790E0322F37701A
:1031B00002C0959587953A95E2F780FF6FC0A22EE1
:1031C000B12CC501887F9370892B39F451968D916C
:1031D0009C91887F9370A82AB92AD8018D919C91DF
:1031E000DC01ED91FC916115710509F486C006883A
:1031F000F789E02D1995019709F050C06CE3F801AB
:10320000808191810E94CB85A50170E060E02AE079
:10321000D8018D919C910E94E084F80122818081E7
:1032200091816AE677E1222311F068E677E10E9456
:10323000C286D8011D966D917C911E978D919C91AF
:103240000E945C8660E2F801808191810E94CB85BA
:10325000D8011F966D917C9150978D919C910E9401
:103260005C86F8012281808191816DE577E12223DE
:1032700011F067E577E10E94C28665EC77E0D8013E
:103280008D919C910E945C86F80180819181DC0186
:10329000ED91FC91008CF18DE02D1995109216089E
:1032A00010921508D70115968D919C91169700974D
:1032B00009F44DC014963C9120912B02231708F479
:1032C00046C0DC01ED91FC910190F081E02D6D2D67
:1032D000199526960FB6F894DEBF0FBECDBFDF91CD
:1032E000CF911F910F91FF90EF90DF90BF90AF9023
:1032F0007F906F905F904F9008950488F589E02D3E
:1033000022E334E03A832983D80115964D905D90ED
:103310006D907C9018974B825C826D827E82BE019C
:103320006F5F7F4F67CF8F3491050CF0BBCFBDE04F
:103330006B1709F4B7CF9C012F5F3F4F30931608EE
:10334000209315088B53984FFC016083ABCF81E02D
:1033500090E0BFCF0C94DEC80C94DEC80C94DEC89D
:103360000C94DEC80C94DEC8CF93C1E068EE73E025
:1033700080E090E00E94E2A64AE050E06C2F8AEEE6
:103380009DE00E943085CF5FC43181F784EF91E0EA
:10339000CF910895CF93DF93009709F484C0FC0187
:1033A0002081222309F47FC0EC0168EE79E00E94BD
:1033B0007ECB892B09F456C06FEB79E0CE010E94D9
:1033C0007ECB892B09F451C06EE777E0CE010E94D5
:1033D0007ECB892B09F44CC06AE777E0CE010E94CE
:1033E0007ECB892B09F447C066E777E0CE010E94C7
:1033F0007ECB892B09F442C062E777E0CE010E94C0
:103400007ECB892BF1F16EE677E0CE010E947ECB78
:10341000892BD1F16AE677E0CE010E947ECB892B21
:10342000B1F165E677E0CE010E947ECB892B91F168
:1034300061E677E0CE010E947ECB892B71F16CEEC4
:1034400079E0CE010E947ECB892B51F16DE577E0CA
:10345000CE010E947ECB892B31F58EE090E0DF918A
:10346000CF91089582E090E0FACF81E090E0F7CF2D
:1034700088E090E0F4CF85E090E0F1CF86E090E046
:10348000EECF87E090E0EBCF89E090E0E8CF8AE0F4
:1034900090E0E5CF8BE090E0E2CF8CE090E0DFCFF2
:1034A0008DE090E0DCCF90E080E0D9CFCF93DF9348
:1034B000EC016DED76E18BE19FE00E94C2866C81AC
:1034C0007D818BE19FE00E94879967ED76E18BE13A
:1034D0009FE00E94C2868BE19FE00E942C8560E005
:1034E0008C810E948AA51092C4071092C30781E0C4
:1034F00090E0DF91CF910895EF92FF921F93CF93C9
:10350000DF93192F7B01C82FD92FD7FF03C0D19587
:10351000C195D10961E08C2F0E948AA582E0E8164E
:10352000F10499F460E08C2F0E945CA56CE373E1D8
:103530008BE19FE00E94C2868BE19FE0DF91CF91FB
:103540001F91FF90EF900C942C85612FEF2851F480
:103550006095661F6627661F8C2F0E945CA568E336
:1035600073E1E6CF661F6627661F8C2F0E945CA55D
:1035700063E373E1DDCFCF93DF93EC01FB012481A3
:10358000358140815181628173810E94D285CE0153
:10359000DF91CF910895EF92FF920F931F93CF93F6
:1035A000DF93EC018B011D821C821A821B82E88052
:1035B000F980E114F10409F45DC08091F206909164
:1035C000F306892B09F456C0672B09F48701F8012B
:1035D00080858F708630A9F460E474E0C8010E9491
:1035E0000599009719F0FC0181858A8369EC76E0E2
:1035F000C8010E940599009709F443C0FC01818528
:103600008B8362E474E0C7010E940599009779F505
:1036100065E177E08BE19FE00E94C2864AE050E0DE
:103620006B818BE19FE00E94308563E177E08BE165
:103630009FE00E94C2864AE050E06A818BE19FE0F1
:103640000E9430858BE19FE00E942C8520E030E0D5
:10365000A90162E474E0888199810E94BA9D62E4C4
:1036600074E0888199810E940599009719F0099664
:103670009D838C83DF91CF911F910F91FF90EF90ED
:103680000895F801808191810E9412CBB9CFCF9328
:10369000DF9300D000D01F921F92CDB7DEB7E5EDCB
:1036A000FDE0128A118A80E090E19587848784E8A2
:1036B00090E0948B838B81E0868780E090E2908B12
:1036C00087871C821B8282E293E09A838983FE8330
:1036D000ED838FEF9FEF98878F836FEB73E18AEE17
:1036E0009DE00E94C2866091F2067091F306CE01C1
:1036F00001960E94C68C85ED9DE00E9465146FEADC
:1037000073E18AEE9DE00E94C2868AEE9DE00E94EF
:103710002C850E94B6AC28960FB6F894DEBF0FBE7B
:10372000CDBFDF91CF910895FC01868197810097ED
:1037300099F0FC0120852F70223029F46185728573
:10374000838594850895253039F460E00E947A9944
:10375000009711F0FC01F2CF60E070E0CB0108951A
:103760000F931F93CF93DF93FC01C281D3812097E6
:10377000F9F088858F70823049F4672BC9F4898508
:103780009A85DF91CF911F910F910895853081F433
:103790008B01CE010E948F998017110649F044F0E9
:1037A000602FCE010E947A99FC0181859285E9CF34
:1037B00090E080E0E6CFFC016115710519F4848189
:1037C0009581089586819781681779072CF0848107
:1037D0009581860F971F0895828193810C94B01B69
:1037E000CF93DF93EC0164EB76E18BE19FE00E94E5
:1037F000C2866C817D818BE19FE00E9487996EEA91
:1038000076E18BE19FE00E94C2868BE19FE00E94FF
:103810002C85E881F981028CF38DE02DCE0119957C
:103820008130910529F0029759F060E08C811AC02F
:1038300063E070E0CE010E94DB1B60E00E948AA57D
:1038400060E08C810E948AA561E070E0CE010E9458
:10385000DB1B60E00E948AA562E070E0CE010E945E
:10386000DB1B60E00E948AA51092C2071092C1077C
:1038700081E090E0DF91CF910895CF93DF93EB014A
:1038800063E0FC01808191810E947A99FC01892B7F
:10389000A9F080858D7091F4C095D095CF6FAE0161
:1038A00070E060E081859285A385B4858C239523A3
:1038B000A623B72381879287A387B487DF91CF910F
:1038C0000895CF93DF93EB0163E0FC018081918148
:1038D0000E947A99FC01892BB9F09085892F8D700F
:1038E00099F4907F92609087CC27CE01B0E0A0E061
:1038F0004185528563857485842B952BA62BB72B28
:1039000081879287A387B487DF91CF910895CF9362
:10391000DF93EB0163E0FC01808191810E947A9941
:10392000009761F0FC0120852F70223039F48185E9
:1039300092858C239D23DF91CF91089590E080E0C4
:10394000FACFCF93C62F63E0FC01808191810E9462
:103950007A99FC01892B29F19085892F8D7009F5C1
:10396000907F9260908781859285A385B485882712
:10397000AA27BB278C2B81879287A387B48763E80C
:1039800077E08BE19FE00E94C2864AE050E06C2F16
:103990008BE19FE00E9430858BE19FE0CF910C94FA
:1039A0002C85CF91089563E0FC01808191810E9474
:1039B0007A99009719F0FC01818508958FEF089599
:1039C000FF920F931F93CF93DF93CDB7DEB764972A
:1039D0000FB6F894DEBF0FBECDBF8C01F62E8FE27E
:1039E00090E09A838983FE01339688E0DF011D927F
:1039F0008A95E9F7F8016681FF2011F081E06827D8
:103A0000D80114968C910E945CA5F801878190855D
:103A1000A185B285883E9340A105B10508F48BC00D
:103A200063E277E18BE19FE00E94C286D8011496A1
:103A30006D917C918BE19FE00E9487996EE177E127
:103A40008BE19FE00E94C2866F2D70E08BE19FE0CA
:103A50000E9487998BE19FE00E942C8565E477E1C5
:103A6000CE0101960E9473CBF801828193810E945E
:103A7000D31CFF2009F46BC06BE077E18D3051F06F
:103A80006FE077E18E3031F066E177E18B3011F055
:103A900063E077E1CE010B960E9487CB6EEE76E174
:103AA0008BE19FE00E94C286D8011296ED91FC91B5
:103AB00013970190F081E02D60817181ED91FC916F
:103AC0000288F389E02D9E012F5F3F4FAE01455FD5
:103AD0005F4FC8011995BC018BE19FE00E94879957
:103AE0006CEE76E18BE19FE00E94C286D8011296CF
:103AF000ED91FC910190F081E02D608171818BE16D
:103B00009FE00E945C86BE016F5F7F4F8BE19FE06C
:103B10000E945C8669EE76E18BE19FE00E94C2869E
:103B2000BE01655F7F4F8BE19FE00E945C868BE169
:103B30009FE00E942C8564960FB6F894DEBF0FBEFE
:103B4000CDBFDF91CF911F910F91FF9008956FEF3F
:103B500076E1823009F49ECF6AEF76E19BCF81E077
:103B600090E00895CF93DF93EC0164EA76E18BE176
:103B70009FE00E94C2866C817D818BE19FE00E9464
:103B800087996EE976E18BE19FE00E94C2868BE126
:103B90009FE00E942C858A819B81892B09F44DC06E
:103BA0008C819D81892B09F048C0E881F981028CC4
:103BB000F38DE02DCE0119958130910529F0029702
:103BC00059F061E08C811AC063E070E0CE010E9480
:103BD000DB1B61E00E948AA561E08C810E948AA5BE
:103BE00061E070E0CE010E94DB1B61E00E948AA5CB
:103BF00062E070E0CE010E94DB1B61E00E948AA5BA
:103C00008091A100887F8093A10080919100887F9E
:103C1000809391008091A10082608093A1008091A7
:103C2000910082608093910081E090E09093C207C0
:103C30008093C107DF91CF91089590E080E0FACFA3
:103C4000CF93DF93DC011496ED91FC91309709F44A
:103C50004FC0C681D7812097C1F1E881F9813097A3
:103C600081F18081882369F16BED74E0CE010E94BF
:103C70000599892B41F42FEF3FEFA9016BED74E01B
:103C8000CE010E94BA9D6CEE74E0CE010E940599AF
:103C9000892B41F42FEF3FEFA9016CEE74E0CE01C8
:103CA0000E94BA9D65E474E0CE010E940599892BBB
:103CB00041F42FEF3FEFA90165E474E0CE010E94CB
:103CC000BA9D0A80DB81C02DC6CF63E476E18BE12B
:103CD0009FE00E94C2868BE19FE00E942C8581E0DC
:103CE00090E09093C0078093BF07DF91CF91089534
:103CF0006BE276E18BE19FE00E94C2868BE19FE060
:103D00000E942C8590E080E0F0CF6CE474E18BE1C0
:103D10009FE00E94C2868BE19FE00E942C8526E0F6
:103D200040E855E260E070E082EE99E00E94798B15
:103D300081E090E09093F8068093F7060895892B30
:103D400071F0FB01828193810E94AC9A6DEA7FE061
:103D50008AEE9DE00E94C28688EC90E0089590E093
:103D600080E0F2CF892B71F0FB01828193810E9468
:103D7000499A66E97FE08AEE9DE00E94C28688EC5F
:103D800090E0089590E080E0F2CF8091C70D90918F
:103D9000C80D892B51F00E94E0AD882331F066E810
:103DA0007FE08AEE9DE00E94C2861092E70D10929D
:103DB000E60D80E090E19093E20D8093E10D84E8C0
:103DC00090E09093E90D8093E80D81E08093E30DFE
:103DD00080E090E29093E50D8093E40D85ED9DE009
:103DE0000E94A81485ED9DE00E94651488EC90E087
:103DF0000895EF92FF920F931F93CF93DF93CDB768
:103E0000DEB72C970FB6F894DEBF0FBECDBF8C0186
:103E10007B0182E394E09A8389831B821C821D824A
:103E20001E8298878F8319861A861B861C8605300A
:103E30001105ECF0BE01695F7F4FF7018085918528
:103E40000E94AD11892B99F0CE0107960E947A9BB2
:103E5000BE01695F7F4FF701868197810E94AD1196
:103E6000892B61F0CE0107960E94509C0EC0CE01B6
:103E700001960E947A9B0430110554F7CE010196F9
:103E80000E94509C033011058CF1BE01695F7F4F89
:103E9000F701848195810E94AD11892B39F1CE0102
:103EA00007960E94E59BBE01695F7F4FF701828103
:103EB00093810E94AD11892B01F1CE0107960E94DA
:103EC0000F9B6FE67FE08AEE9DE00E94C28688EC41
:103ED00090E02C960FB6F894DEBF0FBECDBFDF91F9
:103EE000CF911F910F91FF90EF900895CE01019611
:103EF0000E94E59B02301105B4F6CE0101960E94A6
:103F00000F9B01301105E9F6CE0101960E940F9B2F
:103F100066E77FE08AEE9DE00E94C286D2CF0F93D3
:103F20001F93CF93DF938C01EB010297C4F08A813A
:103F30009B810E9412CB80932B0299270E94889D1F
:103F40000230110549F08C819D810E9412CB809333
:103F50002A0299270E94929DC8ECD0E002C0C0E9D5
:103F6000D1E06BE57FE08AEE9DE00E94C2864AE0E8
:103F700050E060912B028AEE9DE00E94308566E45D
:103F80007FE08AEE9DE00E94C2864AE050E06091A8
:103F90002A028AEE9DE00E9430858AEE9DE00E9412
:103FA0002C85CE01DF91CF911F910F910895CF9372
:103FB000DF93EB010297A4F161E370E18A819B81B9
:103FC0000E9460CB892B29F40E94BB9C6F770E94D2
:103FD000189D6DE270E18A819B810E9460CB892BE4
:103FE00029F40E94BB9C60680E94189D65E37FE0F5
:103FF0008AEE9DE00E94C2860E94BB9C6095661F6F
:104000006627661F70E08AEE9DE00E9487998AEE1F
:104010009DE00E942C8588EC90E0DF91CF9108957F
:104020000E94471BF8CF2F923F924F925F926F9260
:104030007F928F929F92AF92BF92CF92DF92EF9238
:10404000FF920F93CF93DF9300D01F92CDB7DEB7CF
:104050007C017A8369835C834B83DB011C92FC01C6
:104060006081662309F44DC030FF4BC0F9E06F9FBB
:10407000B00111246757704ECD010E94B5CBD70116
:1040800011968C91807F41F04B815C8169E474E0F2
:1040900089819A810E949ADAE981FA81019000204F
:1040A000E9F7319789819A81E81BF90B1C012E0EE3
:1040B0003F1EAB81BC81AE1BBF0B1197BC83AB8392
:1040C000D7011196EC9111978E2F807F09F4BCC017
:1040D000E295EF70E150EC3008F0B6C0F0E08827D0
:1040E000EB58FF4D8F4F0C9429D68420F320592193
:1040F000BE21D921C0206F216F216F21B420A820BB
:10410000F52129803A80DCCFF7018481282F30E027
:1041100050E040E0002359F030E0A4E6B0E00E9417
:10412000F2D52FEF30E040E050E00E94C0D55F9321
:104130004F933F932F938BE494E09F938F93FC8155
:10414000FF938B818F933F922F920E94D2DA77C098
:10415000F70187818F9386818F9385818F938481E7
:104160008F938EE494E0E9CFF70187818F93868166
:104170008F9385818F9384818F9382E594E0DDCF47
:10418000F701C480D580E680F780C701B60124E638
:1041900030E040E050E00E94C0D597FF07C0909506
:1041A0008095709561957F4F8F4F9F4F9F938F9311
:1041B0007F936F93C701B60124E630E040E050E002
:1041C0000E94C0D55F934F933F932F9386E594E071
:1041D0009F938F93FC81FF938B818F933F922F92BC
:1041E0000E94D2DA2CC0C7010E94F613BC01F7016D
:1041F000C680D780D0FADD24D0F89481F580EB809A
:10420000BC80292F30E050E040E077FD35C001113F
:1042100035C07F936F931F921F921F929F931F929F
:10422000FF92DF92CF928FE594E09F938F939C81D2
:104230009F93AB81AF933F922F920E94D2DA0FB639
:10424000F894DEBF0FBECDBF89819A810F900F9089
:104250000F900F90DF91CF910F91FF90EF90DF9033
:10426000CF90BF90AF909F908F907F906F905F9016
:104270004F903F902F900895002361F0292F30E058
:10428000A4E6B0E00E94F2D52FEF30E040E050E02D
:104290000E94C0D55F934F933F932F931F92FF923D
:1042A000DF92CF9282E694E09F938F93BF92EF923A
:1042B00095CF15968C9115971F928F9316969C917A
:1042C000169717968C9181708F939F9385E694E053
:1042D0009F938F93BC81BF93EB81EF9334CF149660
:1042E0008D909D90AD90BC90179720E030E0A90193
:1042F000C501B4010E9454D42401350187FF04C0D4
:1043000077FA709477F87094C301B2010E9426D7AF
:104310006B01072E000C880B990B0E945BD49B014C
:10432000AC01C301B2010E9447D620E030E04AE769
:1043300054E40E94BAD40E94B1D70E9426D7062F17
:10434000772E20E030E0A901C501B4010E9454D4C9
:1043500087FF07C07F920F93DF92CF928BE694E0A6
:10436000B7CF7F920F93DF92CF928CE694E09F932A
:104370008F939C819F93AB81AF93E5CE14968C91E4
:1043800014971F928F9315968C9115971F928F9368
:1043900016968C911F928F9382E694E09F938F9351
:1043A000BC81BF93EB81EF933F922F920E94D2DAB0
:1043B00046CF17968C9117971F928F9314968C91D6
:1043C00014971F928F9315968C9115971F928F9328
:1043D00016968C911F928F938FE594E09F938F9305
:1043E000BC81BF93EB81EF93F9CE14966D917C91D4
:1043F0004B815C81C1010E94B8DA26CFCF92DF9257
:10440000EF92FF920F931F93CF93DF93EC0188817C
:1044100099810E948F99082F10E0043011059CF4B7
:104420000E94CB8E009739F0DC0118962C911897DA
:10443000207F18962C93BC01888199810E949E9DB3
:104440000F5F1F4FEACFC880D98060E0C6010E948D
:104450007A99FC01F184F88661E0C6010E947A999C
:104460008C019B838A8362E0C6010E947A999D83B6
:104470008C8364E0C6010E947A996C019F838E83CD
:10448000F0E1FF1609F48AC0FF1580F083E0F8160A
:1044900089F1AAE0FA1609F473C0DF91CF911F9158
:1044A0000F91FF90EF90DF90CF900895B2E1FB164F
:1044B00009F4F3C0E3E1FE12F0CF86E090E00E9441
:1044C00042C8FC01D383C2838CE392E09183808352
:1044D000C114D10409F4FCC0D60118968C91189728
:1044E0008F70823009F0F4C016968D919C9195835F
:1044F0008483EBC08AE090E00E9442C87C01DC012A
:104500001396DC93CE9312978EE592E08D939C9355
:1045100070E060E0CE010E94B01B97FD22C0F70161
:10452000958384830115110541F1F80180858F7011
:10453000823001F1853009F5C8010E948F9990E021
:10454000D70117969C938E93169782E892E0119666
:104550009C938E9319961C921E921897FA86E98660
:104560009CCF919581959109D70115969C938E9337
:104570001497D8CF81E090E0E3CF90E080E0E0CFE7
:1045800084E090E00E9442C8FC01D383C2832AEEFB
:1045900032E0318320839A8789877FCF8BE090E058
:1045A0000E9442C87C01DC011396DC93CE931297E3
:1045B00088EC92E011969C938E9316961C9270E074
:1045C00060E0CE010E94B01B97FD46C0F7019583C5
:1045D0008483F70184819581009719F086359105D0
:1045E0003CF080E290E0D70115969C938E9314974F
:1045F0000115110509F443C0F80180858F708530DD
:10460000F1F5C8010E948F998230C8F161E0C801BC
:104610000E947A99FC01892B91F180858F708230FC
:1046200039F561857285838594850E945BD420E08D
:1046300030E04AE754E40E94BAD40E942DD76115B5
:10464000710581059105F9F0D70117966D937D935A
:104650008D939C931A9782CF919581959109D7015B
:1046600015969C938E93149781E016968C93B1CFF8
:10467000833029F46185728583859485D8CF60E085
:1046800070E0CB01D4CF88E893E1A0E0B0E0F7017F
:1046900087839087A187B28761CF86E090E00E94F0
:1046A00042C8FC01D383C28386EA92E0918380836F
:1046B000158214820115110541F0D80118968C91CC
:1046C0008F70863011F415830483FA87E987E5CE6D
:1046D00090E080E00CCFCF93DF93EC017983688387
:1046E0001A8619861B861C8E1B8E0E94181488231E
:1046F00029F0CE01DF91CF910C94FE21DF91CF9173
:104700000895EF92FF920F931F93CF93DF93EC01E5
:104710007B018E819F81892BD9F4888199810E94A8
:104720008F99082F10E00530110594F40E94CB8E6C
:10473000009721F0FC012085207F20879F838E83B6
:10474000BC01888199810E949E9D0F5F1F4FEBCF16
:10475000EE81FF813097D9F08085982F9F70A9F462
:10476000807F82608087EE81FF81118612861386AA
:104770001486EE81FF81F782E682C701DF91CF9137
:104780001F910F91FF90EF900895923061F3F12CFB
:10479000E12CF3CFCF93DF93EC016CE775E18BE174
:1047A0009FE00E94E6868C819D810E94DEC870E0B9
:1047B00060E08A819B810E9481231D821C8281E0AE
:1047C00090E0DF91CF910895CF92DF92EF92FF9228
:1047D0000F931F93CF93DF93EC018C819D81892BE5
:1047E00061F40A811B8185E090E00E9442C8BC010F
:1047F000C8010E9481239D838C83EC80FD80E1149D
:10480000F104A9F464E675E184EF9DE00E94C2869C
:1048100084EF9DE00E942C8590E080E0DF91CF91B5
:104820001F910F91FF90EF90DF90CF90089510921D
:10483000BA071092B9071092B4071092B3071092FA
:10484000BB071092BC071092BD071092BE071092D2
:10485000B5071092B6071092B7071092B8071092DA
:10486000310710927307EA81FB81309759F08281FA
:104870009381009739F0DC0118962C912F70263027
:1048800009F468C06DE175E184EF9DE00E94C28685
:1048900061E070E08C819D81892B11F470E060E013
:1048A00084EF9DE00E9487996BE175E184EF9DE0C4
:1048B0000E94C28661E070E08A819B81892B11F49D
:1048C00070E060E084EF9DE00E94879969E175E106
:1048D00084EF9DE00E94C286EA81FB8161E070E086
:1048E00082819381892B11F470E060E084EF9DE078
:1048F0000E94879967E175E184EF9DE00E94C2867E
:10490000EA81FB810280F381E02D80858F7061E078
:1049100070E0863011F470E060E084EF9DE00E946A
:10492000879965E175E184EF9DE00E94C28684EF7E
:104930009DE00E942C8566E375E184EF9DE00E9476
:10494000C28684EF9DE00E942C85EC81FD8182E08F
:10495000808362CF64E774E00E940599009709F4B0
:10496000A8C0FC0120852F70243009F0A2C0C184AA
:10497000D284B6018BE19FE00E945C8661E175E123
:104980008BE19FE00E94C28610E000E0C114D104D8
:1049900009F486C0B80167537B4EC6010E947ECBE6
:1049A000892B09F077C0F801E353FB4E2591349130
:1049B000922F832FD70113969C93139714968C9361
:1049C000EA81FB816BE774E0828193810E94059903
:1049D000EC81FD81009709F472C0DC0118962C91DE
:1049E00018972F70223009F06AC019964D915D9189
:1049F0006D917C911C97411551056105710509F474
:104A00005EC05283418341815281052E000C660BAA
:104A1000770B23818CE19CE00E94798BEC81FD81F6
:104A200041815281052E000C660B770B23818FEF9D
:104A30009AE00E94798BEA81FB8161E075E08281D6
:104A400093810E940599009739F0FC018185928538
:104A500090937207809371076CE475E18AEE9DE094
:104A60000E94C286EA81FB810190F081E02D608185
:104A700071818AEE9DE00E945C868AEE9DE00E9434
:104A80002C85EC81FD8181E080838093290281E087
:104A900090E0C4CE0A5F1F4F0834110509F076CFAD
:104AA0006CEA74E18BE19FE00E94C28696E080E0B0
:104AB00081CF86E090E0F7019483838381CF80E00B
:104AC0009BE4928381839FCFCF92DF92EF92FF92FC
:104AD0000F931F93CF93DF93EC016A017B018E81CB
:104AE0009F81892BD9F4888199810E948F99082F01
:104AF00010E00530110594F40E94CB8E009721F050
:104B0000FC012085207F20879F838E83BC018881C4
:104B100099810E949E9D0F5F1F4FEBCFEE81FF8119
:104B2000309749F18085982F9F7019F5807F8260BA
:104B30008087EE81FF81C186D286E386F4866BE8AA
:104B400077E08BE19FE00E94C2862AE030E0B70167
:104B5000A6018BE19FE00E94D2858BE19FE0DF916F
:104B6000CF911F910F91FF90EF90DF90CF900C9419
:104B70002C859230F1F2DF91CF911F910F91FF9030
:104B8000EF90DF90CF900895EF92FF920F931F93D5
:104B9000CF93DF93EC017B018A0101501109A80139
:104BA00082EE99E00E94017CF701329660E0CF012D
:104BB0008E199F098017910718F48191680FF7CF1C
:104BC00082EE99E00E94CE7C0A80DB81C02D80E0DD
:104BD0000E94FE17AB01BC01CE010E94642560E873
:104BE00074E08BE19FE00E945C86E701CE018E19A4
:104BF0009F0980179107A0F4688140E150E06A3076
:104C000048F469E874E08BE19FE00E945C8640E133
:104C100050E068818BE19FE00E9430852196E6CFCD
:104C20008BE19FE0DF91CF911F910F91FF90EF906B
:104C30000C942C851F93CF93DF93FC01162FC3890F
:104C4000D489818992899C012F5F3F4F328B218BC0
:104C5000C80FD91FCE010E9478D5181721F0612FF7
:104C6000CE010E9480D581E090E0DF91CF911F912D
:104C70000895FC01818992892485358582179307DF
:104C800040F423893489820F931F0E9478D590E0E5
:104C900008958FEF9FEF08952F923F924F925F926A
:104CA0006F927F928F929F92AF92BF92CF92DF923C
:104CB000EF92FF920F931F93CF93DF93CDB7DEB7A1
:104CC00062970FB6F894DEBF0FBECDBF5C014B01FB
:104CD00029013A01CA01B9010E9426D71B013F925E
:104CE0006F9388E694E09F938F93CE0101967C01A9
:104CF0009F938F930E940FDB0F900F900F900F9058
:104D00000F900F9020E030E0A901C301B2010E9492
:104D10005CD7181624F077FA709477F87094F7013E
:104D200001900020E9F731976F01CE18DF088EE27D
:104D30008083A2E0B0E0AC0FBD1FAC0DBD1DBA8BEF
:104D4000A98BB10137FE03C0719561957109072EDA
:104D5000000C880B990B0E945BD49B01AC01C30132
:104D6000B2010E9447D620E030E040E251E40E94C8
:104D7000BAD40E9426D7605DE989FA896083FE0172
:104D8000EC0DFD1D1382D501ED91FC910288F38994
:104D9000E02D9801A701B401C501199562960FB6DF
:104DA000F894DEBF0FBECDBFDF91CF911F910F9161
:104DB000FF90EF90DF90CF90BF90AF909F908F903B
:104DC0007F906F905F904F903F902F900895DA0101
:104DD000E0918608F0E0FE2FEE27E60FF71F90E047
:104DE000982F8827A901BD018E0F9F1F0C944F900B
:104DF000CF93DF931F92CDB7DEB72091860830E0C6
:104E0000322F2227260F371F90E0982F88274983BB
:104E100041E050E0BE016F5F7F4F820F931F0E9401
:104E20004F900F90DF91CF910895CF93DF931F9212
:104E3000CDB7DEB741E050E0BE016F5F7F4F0E940B
:104E4000C48F89810F90DF91CF91089520918608BA
:104E500030E0322F2227620F731F90E0982F8827AF
:104E6000860F971F0C94152763E070E00C9426279B
:104E70009F92AF92BF92CF92DF92EF92FF920F93E9
:104E80001F93CF93DF93EC017B018091CF098111B8
:104E900021C01B821A8288EE93E0A0E0B0E08C83F0
:104EA0009D83AE83BF838CEB93E09983888388E0F6
:104EB0008C8788EE93E09E878D87CE01DF91CF911E
:104EC0001F910F91FF90EF90DF90CF90BF90AF9028
:104ED0009F90089534E0932E833311F028E0922EB2
:104EE0008FEBC82E89E0D82E10E098E0B92EA12CC7
:104EF000D6012D913D916D01F7018481958128178F
:104F0000390791F4812F0E949894082F873111F06E
:104F10008C3139F5812F0E948493892B59F50C31FE
:104F200019F4812F0E947C941F5F9112E1CFA11090
:104F300008C0D701ED91FC910084F185E02DC701F7
:104F400019951B821A8288EE93E0A0E0B0E08C8372
:104F50009D83AE83BF838CEB93E099838883BC866B
:104F6000A8CF843149F08111DFCFF6013297118249
:104F70001082DACFB12ED8CFAA24A394D5CF8F92A6
:104F80009F92AF92BF92CF92DF92EF92FF920F93D8
:104F90001F93CF93DF93CDB7DEB72F970FB6F8945B
:104FA000DEBF0FBECDBF5C014B017A018091CF09FE
:104FB0008823C9F104E0833309F008E0B501CE018C
:104FC00001960E9438278FEBC82E89E0D82E10E07A
:104FD000F601219131916F01F501848195812817A6
:104FE000390751F4812F0E949894873129F4A70141
:104FF000B401812F0E94FA921F5F0113E9CFC7010C
:105000002F960FB6F894DEBF0FBECDBFDF91CF91C4
:105010001F910F91FF90EF90DF90CF90BF90AF90D6
:105020009F908F900895F12CE12CE9CFDA01E09167
:105030008608F0E0FE2FEE27E60FF71F90E0982F8E
:105040008827A901BD018E0F9F1F0C94C48F44E0D7
:1050500050E0BC018FE090E00C944F9044E050E0B1
:10506000BC0185E090E00C944F9044E050E0BC011E
:1050700081E090E00C944F9008959F92AF92BF9280
:10508000CF92DF92EF92FF920F931F93CF93DF9314
:105090008C015B01942EE52EFC01C688D788F08C2C
:1050A00080E591E00E944EA28F2D0E94A092C92D12
:1050B000DE2D8C179D0708F4EC019E01A501B601B9
:1050C0008F2D0E941D92F801868997898C0F9D1F54
:1050D000978B868BCE01DF91CF911F910F91FF901F
:1050E000EF90DF90CF90BF90AF909F900895CF93B7
:1050F000FC01C08D80E591E00E944EA260E270E06C
:105100008C2F0E94B48F62E070E08C2F0E942627C3
:1051100084FD16C062E070E08C2F0E94262783FF7A
:105120000AC048E162E070E08C2F0E94F82680E01F
:1051300090E0CF91089580E591E00E944EA2E3CFE8
:1051400040E162E070E08C2F0E94F82681E0F0CF11
:10515000FF920F931F93CF93DF93EB01FC01178A0C
:10516000168A2A81211109C02B81211106C02C81A8
:10517000211103C02D81222301F141155105E9F0D0
:105180008A01FC01F08C80E591E00E944EA2AE0104
:105190004E5F5F4F24E030E06CE070E08F2D0E94A6
:1051A000E726B8018F2D0E94A79481E090E0DF915F
:1051B000CF911F910F91FF90089580E0F7CF0F934B
:1051C0001F93CF938C01FC016481758181E20E9461
:1051D000D394C82F8830F8F480E591E00E944EA265
:1051E0008C2F0E943427833131F08C2FCF911F9167
:1051F0000F910C947C9462E070E08C2F0E94B48F2D
:10520000F80184819581EC2FF0E0EE0FFF1FE1544F
:10521000F64F91838083CF911F910F9108950F9343
:105220001F93CF93DF931F921F92CDB7DEB7FC0180
:1052300024852830E0F48C0180E591E00E944EA2A4
:1052400022E030E0AE014F5F5F4F60E170E0F801B7
:1052500084850E94162889819A8198278927982712
:105260000F900F90DF91CF911F910F91089590E0D3
:1052700080E0F6CF0F931F93CF93DF931F921F927F
:10528000CDB7DEB7FC0124852830E0F48C0180E541
:1052900091E00E944EA222E030E0AE014F5F5F4FEE
:1052A00064E070E0F80184850E94162889819A8163
:1052B0009827892798270F900F90DF91CF911F9102
:1052C0000F91089590E080E0F6CFCF93DF93EC014B
:1052D00082E394E0998388831A821B821C821D8258
:1052E00080E591E00E944EA2BE016E5F7F4F44E0D8
:1052F00050E08FE090E00E94C48FCE01DF91CF910B
:1053000008950E941091882331F08091CF09843351
:1053100029F0873381F090E080E0089580E591E006
:105320000E944EA285E390E00E94152785FD0DC0E6
:1053300082E090E0089580E591E00E944EA28EE226
:1053400090E00E94152780FFF3CF81E090E0089560
:105350001F920F920FB60F9211240BB60F922F933C
:105360003F934F935F936F937F938F939F93AF93ED
:10537000BF93EF93FF938091B900887F803609F443
:105380004DC008F040C0883209F4A7C028F580312C
:1053900009F49BC0C8F4882309F4F7C0883009F4E5
:1053A00094C0FF91EF91BF91AF919F918F917F91A9
:1053B0006F915F914F913F912F910F900BBE0F9086
:1053C0000FBE0F901F901895883109F486C0803267
:1053D00041F780935F0814C0803409F49BC040F407
:1053E0008033B9F38833E9F680935F0885ECAEC06B
:1053F000803509F483C0883509F494C0883489F66F
:105400000E94E510CECF883909F48AC038F5883774
:1054100029F050F4883611F0803719F683E0809334
:10542000600810925E0855C0883809F479C0803948
:1054300019F0803809F0B5CF80915E08803208F00D
:105440006FC0E0915E0881E08E0F80935E088091CE
:10545000BB00F0E0E25CF74F80833BC0803B39F05B
:10546000D0F4803A09F477C0883A09F09ACF84E002
:105470008093600810923D0810923C08F0E0E0E054
:10548000199580913C0881110FC081E080933C0800
:1054900010921C0809C0803C09F4A8CF883C09F48C
:1054A000A5CF883B09F07DCFE0913D0881E08E0FCC
:1054B00080933D08F0E0E45EF74F80818093BB006D
:1054C00090913D0880913C0829C080918508809387
:1054D000BB0085EC8093BC0064CF909184088091E0
:1054E0008308981758F5E091840881E08E0F809327
:1054F0008408F0E0ED59F74F8081E9CFE09184080E
:1055000081E08E0F809384088091BB00F0E0ED591C
:10551000F74F808390918408809183089817C8F290
:1055200085E8D8CFE091840881E08E0F80938408CD
:105530008091BB00F0E0ED59F74F808380916208C5
:1055400081115ECF81E08093610884EA8093BC0082
:105550001092600826CF85EC8093BC001092600802
:1055600080915E08803230F4E0915E08F0E0E25C09
:10557000F74F108260915E0870E08EE398E0F0E0F3
:10558000E0E0199510925E080CCF10925F0838CFBA
:105590004F925F926F927F92AF92BF92CF92DF92C3
:1055A000EF92FF920F931F93CF93DF9300D01F9240
:1055B000CDB7DEB72B013C0129833A834B835C8353
:1055C000A6019501C801B701640D751D861D971DC3
:1055D000211531054105510511F00E949ED5298103
:1055E0003A814B815C816217730784079507D0F479
:1055F000241535054605570530F521E0822F0F901B
:105600000F900F900F90DF91CF911F910F91FF900E
:10561000EF90DF90CF90BF90AF907F906F905F90B2
:105620004F900895461657066806790650F421E013
:1056300089819A81AB81BC8184159505A605B70542
:10564000E8F220E0DBCF21E046165706680679062F
:10565000A8F2F7CF8F929F92AF92BF92CF92DF9234
:10566000EF92FF920F931F93CF93DF9300D000D060
:1056700000D01F92CDB7DEB76130710509F07BC253
:105680004C010E9414A79B01AC016091040770912A
:1056900005078091060790910707A12CB12C6501A1
:1056A00018E8E12E13E1F12E00E010E00E94C82A74
:1056B0008823C1F080E00E94FE1760930407709376
:1056C000050780930607909307076AE774E18BE16B
:1056D0009FE00E94E6864DE050E062E072E0C40187
:1056E0000E94C42582EE99E00E94797C8597ACF4F3
:1056F00081E090E02A960FB6F894DEBF0FBECDBFD2
:10570000DF91CF911F910F91FF90EF90DF90CF909D
:10571000BF90AF909F908F90089545E250E06AE06F
:1057200077E082EE99E00E94AE8482EE99E00E94DA
:10573000797C892B59F062E070E080E090E00E9473
:10574000E2A682EE99E00E94577CEFCF80912E076F
:1057500090910307891761F28093030780912D07C9
:1057600090E09C01205F3F4F3093300720932F073C
:10577000499708F0BDCF8091170790E090930207FA
:10578000809301078091210790E090930007809318
:10579000FF068091230790E09093FE068093FD061C
:1057A0008091250790E09093FC068093FB06809102
:1057B000270790E0909309078093080780912607B8
:1057C00090E09093FA068093F906D401ED91FC9154
:1057D00011970288F389E02D12968D919C91DC013E
:1057E0008D919C91DC016D917C91809129072BE832
:1057F00034E042E954E080FD02C045E954E0C401D0
:1058000019958091F9069091FA0680389105A9F4CE
:10581000D4011296ED91FC9113970190F081E02D47
:1058200060817181ED91FC910288F389E02D29E975
:1058300034E042E954E0C40119958091F906909151
:10584000FA06892BA9F4D4011296ED91FC911397D5
:105850000190F081E02D60817181ED91FC910288D1
:10586000F389E02D29E934E045E954E0C4011995B4
:105870006FE974E08BE19FE00E945C86609108070D
:10588000709109078BE19FE00E9487998BE19FE06F
:105890000E942C8580910807F40120813181A2812A
:1058A000B3810D90BC91A02D6D917C91D901529640
:1058B000ED91FC9126EA34E042E954E083FD02C018
:1058C00045E954E0C4011995D401ED91FC9111977B
:1058D0000288F389E02D12968D919C91DC018D91C7
:1058E0009C91DC016D917C91809108072DEA34E058
:1058F00042E954E081FD02C045E954E0C401199534
:105900002091FB063091FC06032E000C440B550B36
:10591000D4011296ED91FC9113970190F081E02D46
:1059200060817181ED91FC910684F785E02D09EB92
:1059300014E0C40119958091FD069091FE06892B13
:10594000A9F4D4011296ED91FC9113970190F08186
:10595000E02D60817181ED91FC910288F389E02D49
:1059600020EC34E045EC54E0C40119958091FD062B
:105970009091FE060197A9F4D4011296ED91FC9145
:1059800013970190F081E02D60817181ED91FC9180
:105990000288F389E02D20EC34E04AEC54E0C401A5
:1059A00019958091FD069091FE060297A9F4D40105
:1059B0001296ED91FC9113970190F081E02D60819A
:1059C0007181ED91FC910288F389E02D20EC34E0A7
:1059D00041ED54E0C40119958091FD069091FE06B9
:1059E0000397A9F4D4011296ED91FC9113970190BD
:1059F000F081E02D60817181ED91FC910288F38945
:105A0000E02D20EC34E045ED54E0C4011995D401BB
:105A1000ED91FC9111970288F389E02D12968D91FA
:105A20009C91DC018D919C91DC016D917C91809128
:105A3000FB069091FC0629EB34E045E954E0892B04
:105A400011F042E954E0C401199520912F073091DB
:105A50003007032E000C440B550BD4011296ED9128
:105A6000FC9113970190F081E02D60817181ED919F
:105A7000FC910684F785E02D0AED14E0C401199528
:105A800020910107309102072F3F3105B9F0032E15
:105A9000000C440B550BD4011296ED91FC91139719
:105AA0000190F081E02D60817181ED91FC9106847F
:105AB000F785E02D0FED14E0C4011995198280914E
:105AC000FF069091000762E974E10097C9F065E76D
:105AD00074E181309105A1F060E774E182309105B5
