:100000000C9485130C94B6130C94B6130C94B6137D
:100010000C94B6130C94B6130C94B6130C94B6133C
:100020000C94B6130C94B6130C94B6130C94B6132C
:100030000C94B6130C94B6130C94B6130C94B6131C
:100040000C94B6130C94B6130C94B6130C94B6130C
:100050000C94B6130C94B6130C94B6130C9468C994
:100060000C94B6130C94E49C0C94BA9C0C94B613A8
:100070000C94B6130C94B6130C94B6130C94B613DC
:100080000C94B6130C94B6130C94B6130C94B613CC
:100090000C94909C0C94669C0C94B6130C94BB230B
:1000A0000C94B6130C94B6130C94B6130C94B613AC
:1000B0000C94B6130C94B6130C94B6130C94B6139C
:1000C0000C94B6130C94B6130C94B6130C943C9C7D
:1000D0000C94129C0C94B6130C94E89B0C94BE9B4D
:1000E0000C94B61307634236B79BD8A71A396856E3
:1000F00018AEBAAB558C1D3CB7CC5763BD6DEDFD4A
:10010000753EF6177231BF000000803F0800000006
:10011000BE922449123EABAAAA2ABECDCCCC4C3EFC
:1001200000000080BEABAAAAAA3E00000000BF00EB
:100130000000803F0000000000084178D3BB4387E7
:10014000D1133D190E3CC3BD4282AD2B3E68EC82FB
:1001500076BED98FE1A93E4C80EFFFBE01C4FF7F80
:100160003F00000000000C9405BF0C9444C00C94A8
:100170002E660C9491920C94C5A70C94D11A0C94F1
:1001800055250C94B37C0C942BC00C94B4630C9444
:10019000A71A0C94DA5E0C94F5680C9461A20C9486
:1001A0000CBC0C94ED670C94E1590C94E7BE0C94D4
:1001B0006CC00C9452950C94A75B0C94EA580C9468
:1001C00022650C94ED290C949F930C94045A0C9482
:1001D00026910C94DD130C9410260C94CE670C948D
:1001E000CF2A0C944A210C94BE3B0C94B02E0C9454
:1001F00025BF0C945F730C94E2620C943C690C94E0
:10020000BB700C94C9930C946E910C94A3290C941C
:1002100021BF0C94C2580C94E1650C94AC530C941F
:1002200005590C9409BF0C940DC00C94A65A0C945B
:100230006DC20C9480150C94BA5D0C942A5C0C94DD
:100240002E5B0C94FC1C0C94941F0C94F1290C94C0
:10025000CB670C94417E0C9446690C94D2BF0C94ED
:1002600072930C946B940C94D1700C948C630C94DA
:10027000E8610C9473580C9421C00C945D590C9453
:10028000BA190C9450410C94295F0C9482700C9410
:1002900049590C94D9290C948B220C94F8730C9422
:1002A0003D5C0C94085E0C94D55A0C94B0580C9498
:1002B00065530C94CD640C9497680C94F5910C9450
:1002C0008F180C94A5C40C94CC170C9485170C941F
:1002D0000B5C0C94F3590C946D830C9440200C949B
:1002E000F5730C94CC300C943AC00C941A650C94B1
:1002F000CB140C94683A0C94DB1E0C94C2190C9429
:10030000085A0C945D5E0C94C1BB0C946A5A0C9410
:100310008C690C94DE5D0C9414290C9439290C948E
:10032000ECE40C94331B0C9430A60C9457770C948B
:10033000182B0C9427660C9467700C94BF5A0C947D
:10034000A3940C9430220C9404830C94BD820C94DE
:1003500037730C940EA80C94D5830C94BC690C9440
:1003600067170C94D3640C94EF840C9468310C944C
:10037000B5150C9473570C942CBF0C949F170C94C8
:100380007A820C94F5590C9480730C9407640C9445
:10039000752E0C941D690C94F1BE0C947C5A0C942F
:1003A000D5140C9476C20C94B1670C94FF7D0C9418
:1003B000F1990C94DD2A0C9470C20C94F5BE0C9447
:1003C00057290C94605F0C947C170C94C52A0C94EC
:1003D00087920C94F9210C940DBF0C944EC00C9490
:1003E000F3BF0C94AE280C9483150C948B680C947A
:1003F000DD580C947B690C9492290C94898D0C9493
:1004000096670C94C3150C9401660C949A690C942D
:1004100060220C941E9B0C949C5A0C9470700C944B
:10042000138D0C9455700C94A8700C94B3830C9499
:10043000E4A70C94E2930C94F5840C943D640C9422
:100440006D690C94861C0C94B4610C94FDBF0C94E3
:100450004E7C0C94A7730C943B5B0C94CC150C94C1
:100460003F7C0C9490930C949CC40C9499830C94B2
:1004700091910C94EE1E0C946D640C94DB930C948F
:10048000D7610C94E9590C94A4150C94A1610C94B7
:10049000EA650C9485510C94E21C0C94FC2F0C948E
:1004A000D8830C94EF940C948B940C94D3680C9494
:1004B00017C00C943F650C94607C0C94BA690C9442
:1004C00008690C9463150C94F46F0C944FBB0C9456
:1004D000445F0C947B580C9472150C94CA5E0C9477
:1004E000116A0C9408660C94EDBE0C948F580C9411
:1004F0002DBF0C94E5830C94D49A0C9428910C9401
:10050000D0640C94F1840C9488200C944C160C94B8
:10051000C0730C9455940C94DABF0C946E680C94D0
:10052000F65D0C9445630C94B8130C94FBBE0C94CC
:1005300095700C94A27C0C94CDC30C9473730C94A2
:10054000F1690C94005A0C94BE190C94D85C0C946C
:100550006A160C945C630C94BC190C9438BB0C9414
:10056000EF290C94CF700C949F910C94D3BB0C94F6
:1005700042920C94E85A0C94B61B0C9493720C940F
:10058000A71F0C94F9650C9485160C9426640C94A2
:10059000487D0C94586C0C94DFBF0C948E920C9494
:1005A00058C00C9427910C942BA30C94C25A0C9411
:1005B00062C00C94B8150C94352D0C945E170C94F5
:1005C000F4610C94CE140C9437A00C9487690C94AD
:1005D000A1650C941EBB0C945D270C94372D0C94D4
:1005E0008A830C94C3680C94DA610C943D660C9475
:1005F00034660C942C610C94F4640C94E23D0C94DD
:100600003F160C9420930C94E9BF0C94BFE40C9417
:10061000D3160C9449180C947D910C94A8170C9443
:1006200007930C945E700C9413BF0C942FBB0C9426
:10063000F8590C9497920C94CB630C94C0190C94B9
:100640004E770C94C5700C94D4C30C94EF600C944A
:100650000B2A0C94CB610C94342D0C9433830C94A2
:10066000185B0C94C8210C94BD5A0C94E9290C9485
:1006700043C20C94E3670C94747E0C944B650C9409
:1006800014630C94BC130C94D4920C94AD1C0C9475
:10069000134A0C9417BF0C948C510C9460690C9401
:1006A000A03C0C9458680C94E5610C949B680C94E5
:1006B0005D770C949FC40C941BBF0C94D2130C94C4
:1006C0008D610C94B1160C944C660C94F6280C9425
:1006D000C3650C94E5590C94A7150C94B95A0C9465
:1006E000AAC40C94185A0C94362D0C94FB340C9418
:1006F00012270C9427500C9429BF0C94797D0C94EC
:10070000A2C40C9405C00C94FFBE4E414E494E4904
:100710005459494E46CDCCCC3D0AD7233C17B7D1CE
:100720003877CC2B329595E6241FB14F0A00002074
:10073000410000C84200401C4620BCBE4CCA1B0EF3
:100740005AAEC59D746364696E6F70737578585B3B
:10075000004D5154543A20436F6D706C6574652E92
:100760002052656D6F766520746F70696320002478
:10077000636F6D6D616E64004D5154543A20436C4B
:1007800065616E55702072657461696E6564207470
:100790006F7069632000220022004F75744F664D10
:1007A000656D6F727921005D20003A5B004D5154F8
:1007B000543A005D00456D7074793A205B000A0080
:1007C0003A004D41433A00554450205379736C6FC1
:1007D0006720696E697469616C697A65642E0A00C4
:1007E0005379736C6F6720706172616D733A002E7C
:1007F0006C6F63616C005365727669636520726526
:10080000636F72643A20006D444E532072657370BA
:100810006F6E64657220737461727465642E004536
:1008200072726F722073657474696E6720757020C0
:100830004D444E5320726573706F6E646572210073
:10084000476F7420495020616464726573733A0085
:10085000276970205B69705B2C646E735B2C677713
:100860005B2C7375626E65745D5D5D5D27202D2068
:10087000736574207374617469632049500A00467B
:1008800061696C656420746F20636F6E666967755B
:1008900072652045746865726E6574207573696E43
:1008A0006720444843502E20596F752063616E20A5
:1008B000736574206970206D616E75616C6C79214F
:1008C00000204D41534B3A002047573A0020444EF8
:1008D000533A004C6F616465642066726F6D2066E8
:1008E0006C6173682049503A000A7573657320443F
:1008F0004843500A005374617274696E67206C61DA
:100900006E004142434445464748494A4B4C4D4E90
:100910004F505152535455565758595A6162636457
:1009200065666768696A6B6C6D6E6F7071727374FF
:1009300075767778797A30313233343536373839DD
:100940002B2F3D00426173696320003A004F5441F0
:1009500020696E697469616C697A65640A0044454E
:100960004641554C542070617373776F72642066F2
:100970006F72204F5441204150492E2055736520FD
:100980006F746170776420636F6D6D616E64207445
:100990006F207365740070617373776F7264004DBC
:1009A0005154543A2074727969796E67206E656E7D
:1009B00078742062726F6B6572004D5154543A2006
:1009C000546F6F206D616E7920636F6E6E65637416
:1009D000696F6E206572726F72732E205265737428
:1009E000617274204C414E002074727920616761FD
:1009F000696E20696E2035207365636F6E647300C5
:100A00004D5154543A206661696C65642C207263C0
:100A10003D004D5154543A204177616974696E67C5
:100A200020666F722072657461696E656420746FF0
:100A30007069637300636F6E6E65637465642061D3
:100A4000732000202E2E2E0020757365723A003A16
:100A5000000A4D5154543A20417474656D707469A4
:100A60006E6720636F6E6E656374696F6E20746F5E
:100A70002000646973636F6E6E656374656400550E
:100A800073696E67204D5154542070617373776F92
:100A900072642066726F6D20636F6E666967002EE8
:100AA0006C6F63616C006D444E53206E616D652008
:100AB000757064617465643A2000446576696365A5
:100AC000204E616D653A004D5154543A20417420D6
:100AD0006C6561737420646576696365206E616D11
:100AE0006520616E642062726F6B657220495020D0
:100AF0006D75737420626520636F6E6669677572C9
:100B0000656400757074696D652C667265656865ED
:100B1000617000653231353431615F323032342DED
:100B200030382D3232004C69676874487562200095
:100B3000246E616D6500526562696E642073756331
:100B4000636573732E20495020616464726573730A
:100B50003A004572726F723A20726562696E642063
:100B60006661696C0052656E6577656420737563B4
:100B7000636573732E2049502061646472657373DA
:100B80003A004572726F723A2072656E65776564DD
:100B9000206661696C000A4E6F206C696E6B0043C1
:100BA0006F6E74696E756520776974682070726500
:100BB00076696F75736C79206C6F6164656420630E
:100BC0006F6E6669670033307320454550524F4D54
:100BD000206973206E6F742072656C6F6164656448
:100BE0002E205265626F6F74004D5154543A20416B
:100BF0006363657074696E6720636F6D6D616E64A9
:100C0000732E2E2E0A004E6F204D51545420636FC8
:100C10006E66696775726564004C6F6164696E67C2
:100C200020636F6E6669672066726F6D20706F72E9
:100C300074616C2064697361626C65642E207573E5
:100C40006520676574204F4E20746F20656E616269
:100C50006C6500436F6E6669672069732076616C0E
:100C6000696400436F6E74696E7565207769746896
:100C70002070726576696F75736C79206C6F616432
:100C8000656420636F6E66696700536574757020D4
:100C90004F5441004D5154543A2073657420666995
:100CA0007273742062726F6B657200437572726545
:100CB0006E74204C414E20636F6E666967286970C0
:100CC0002C646E732C67772C7375626E6574293A89
:100CD000000A55736520746865736520636F6D6DD8
:100CE000616E64733A202768656C7027202D20742C
:100CF00068697320746578740A276D616320646580
:100D00003A61643A62653A65663A66653A30302718
:100D10002073657420616E642073746F7265204D5A
:100D200041432D6164647265737320696E2045458B
:100D300050524F4D0A276970205B69705B2C646EBE
:100D4000735B2C67775B2C7375626E65745D5D5D9C
:100D50005D27202D2073657420737461746963208E
:100D600049500A277361766527202D2073617665C7
:100D70002063757272656E7420636F6E666967209A
:100D8000696E204E5652414D3B204F4E7C4F464699
:100D9000202D20656E61626C652F64697361626CE1
:100DA00065206175746F736176650A2767657427BE
:100DB000205B636F6E66696720616464725D2720E3
:100DC0002D2067657420636F6E6669672066726F99
:100DD0006D207072652D636F6E66696775726564EC
:100DE0002055524C20616E642073746F72652061CF
:100DF0006464722C204F4E7C4F4646202D20656E39
:100E000061626C652F64697361626C6520646F77E1
:100E10006E6C6F6164206F6E207374617274757094
:100E20000A276C6F616427202D206C6F616420633A
:100E30006F6E6669672066726F6D204E5652414D27
:100E40000A2770776427202D20646566696E652007
:100E5000616E642073746F7265204D51545420701C
:100E6000617373776F72640A276F74617077642798
:100E7000202D20646566696E6520616E6420737440
:100E80006F7265204854545020415049207061735E
:100E900073776F72640A276C6F67205B7365726982
:100EA000616C5F6C6F676C6576656C5D205B75640B
:100EB000705F6C6F676C6576656C5D27202D2064B4
:100EC0006566696E65206C6F67206C6576656C2061
:100ED00028302E2E37290A276B696C6C27202D208D
:100EE00074657374207761746368646F670A27633D
:100EF0006C65617227202D20636C65617220454509
:100F000050524F4D0A277265626F6F7427202D2053
:100F10007265626F6F7420636F6E74726F6C6C6554
:100F20007200536F6674207265626F6F74696E67CA
:100F30002E2E2E0052414D3D000A5379736C6F677F
:100F400020000A6D71747420000A696E70757473E4
:100F500020000A6974656D7320000A436F6E66692C
:100F600067757265643A00496E697469616C697A83
:100F7000696E6720496E70757473003B003D0050C8
:100F8000696E3A003B003D4C4F5700546865726DE6
:100F90006F3A0042726F6B65727320636F6E6669A1
:100FA00067757265643A004170706C79696E67208C
:100FB000636F6E666967004C6F61646564204554B9
:100FC00041473A004E6F2073746F72656420636FFF
:100FD0006E666967004C6F616465642066726F6D50
:100FE00020454550524F4D006C6F61642066616929
:100FF0006C6564004A534F4E206465746563746584
:1010000064004C6F6164696E6720436F6E66696748
:101010002066726F6D20454550524F4D00436F6EF4
:10102000666967206175746F736176653A000A536B
:1010300079736C6F67206465627567206C6576658F
:101040006C3A0053657269616C2064656275672053
:101050006C6576656C3A0053617665640A00536589
:10106000742064796E616D69632049500A004F54A1
:10107000412050617373776F72642075706461747E
:1010800065640A004E6F2049502061647265737375
:1010900000205361766564004C6F6164696E67205F
:1010A0004854545020636F6E666967206F6E2073DA
:1010B0007461727475703A00000000000000000056
:1010C000004F4E000000000000004F4646000000A8
:1010D000000000524553540000000000544F4747A1
:1010E0004C4500000048414C540000000000584F9F
:1010F0004E000000000000584F464600000000006F
:10110000494E43524541534500444543524541539E
:101110004500454E41424C45000000444953414280
:101120004C450000554E465245455A4500465245ED
:10113000455A450000004155544F0000000000464C
:10114000414E5F4F4E4C590048494748000000004F
:10115000004D454449554D0000004C4F57000000DC
:10116000000000484541540000000000434F4F4C30
:1011700000000000004452590000000000005354D9
:101180004F500000000000524742000000000000E5
:10119000485356000000000000636F756C64206EB9
:1011A0006F742070617273653A20005570646174C9
:1011B00065640A00454550524F4D20636C6561726D
:1011C00065640A004D5154542050617373776F72F7
:1011D0006420757064617465640A002B002D0045FD
:1011E0005461673A200047657420455441473A20CE
:1011F00000485454502F312E310025733A20257366
:101200000D0A0020485454502F312E310D0A486FDA
:1012100073743A2025730D0A4163636570743A2034
:101220002A2F2A0D0A436F6E6E656374696F6E3ADA
:1012300020636C6F73650D0A0025730020000D0A92
:1012400000474554006661696C656420746F2063D3
:101250006F6E6E6563740A004552524F523A2053C6
:1012600065727665722072657475726E65642000B1
:10127000436F6E666967206E6F74206368616E6786
:1012800065640A00446F6E652E0A00436F6E6669DE
:10129000672070617273696E67206661696C65644E
:1012A0000A004765742061626F7274656400676F3D
:1012B0007420436F6E6669670A00687474702072E8
:1012C0006574636F64652000667265652000436F16
:1012D0006E666967205552493A20687474703A2FD7
:1012E0002F002044656661756C7420636F6E6669BB
:1012F000672073657276657220757365643A2000A5
:101300006C617A79686F6D652E7275000A282D29D7
:1013100043414E000A282D294D455243555259004C
:101320000A282B29454C455641544F52000A282D76
:10133000294D554C544956454E54000A282B2950E6
:10134000574D5F52454C4159000A282B294D444EB8
:1013500053000A282D2955415254425249444745C9
:10136000000A282B295359534C4F47000A282D298E
:10137000504944000A282D294D435032333031372B
:10138000000A282D294152544E4554000A282B2981
:101390004F5441000A282D29535049204C45440000
:1013A0000A282D294D4F544F5220435452000A28E9
:1013B0002B294143204841494552206F6E205365F7
:1013C0007269616C33000A282D2943435338313147
:1013D00020262048444331303830000A282B295237
:1013E0004553544152545F4C414E5F4F4E5F4D51F7
:1013F00054545F4552524F5253000A282D294841F8
:10140000524452455345542C207573696E672073BE
:101410006F6674000A282D29434F554E54455200DB
:101420000A282D29444854000A282D294F5749528B
:1014300045000A282D2949504D4F44425553000A72
:10144000282D294D4F44425553000A282D29444D3B
:1014500058000A282B2957697A6E65743578303020
:10146000000A282B294672656552616D20707269E9
:101470006E74696E67000A282B295741544348440B
:101480004F47006C617A79686F6D652E7275000A3E
:10149000436F6E666967207365727665723A0032D3
:1014A00030313730334C0020432B2B20766572735C
:1014B000696F6E3A00653231353431615F323032F6
:1014C000342D30382D3232000A4C617A79686F6DD4
:1014D000652E7275204C6967687448756220636F69
:1014E0006E74726F6C6C65722000204F464600204F
:1014F0004F4E00204259504153530053617665646A
:1015000020746F20454550524F4D00536176696EEF
:101510006720636F6E66696720746F20454550527F
:101520004F4D2E2E00203C3C0041433A20004143C9
:101530003A2053657269616C207573656420627925
:10154000204143202D2064697361626C696E6720BD
:1015500073657269616C206C6F6767696E67206183
:101560006E6420636D640041433A204F7574206FB0
:1015700066206D656D6F72790041433A20496E694E
:10158000743A200041433A2044652D496E69743A0B
:1015900020004552520041433A204F4B00203E3E2E
:1015A000200041433A200041433A20506F6C6C695F
:1015B0006E670041433A20556E6D757465000000FA
:1015C000000000000000004F4E000000000000007E
:1015D0004F464600000000000052455354000000F2
:1015E0000000544F47474C4500000048414C540010
:1015F00000000000584F4E000000000000584F4609
:10160000460000000000494E435245415345004406
:101610004543524541534500454E41424C4500002B
:101620000044495341424C450000554E4652454501
:101630005A4500465245455A450000004155544F11
:10164000000000000046414E5F4F4E4C5900484993
:10165000474800000000004D454449554D0000003A
:101660004C4F570000000000004845415400000066
:101670000000434F4F4C000000000044525900004E
:101680000000000053544F50000000000052474239
:1016900000000000000048535600000000000072E7
:1016A0006177007175656974007377696E67006CA6
:1016B0006F636B0044656661756C74207365726955
:1016C000616C206D6F6465204E38312075736564E0
:1016D00000384531002600384E31000600384532CA
:1016E000002E00384E32000E00384F3100360038E0
:1016F0004F32003E00374531002400374532002C80
:1017000000374F31003400374F32003C00374E3144
:10171000000400374E32000C002C002C002C002C52
:1017200000456C657661746F723A20636F6E66690E
:1017300067206661696C65643A00456C6576617422
:101740006F7220636F6E666967206572726F7200D8
:10175000456C657661746F7220636F6E6669672091
:101760006C6F616465642000456C657661746F72AE
:101770003A204F7574206F66206D656D6F72790029
:10178000456C657661746F722044652D496E69748D
:10179000004030305252303030303031303033460B
:1017A000303034313043303034322A00403030521F
:1017B00052303030303032303037463030303231E5
:1017C00030303033302A00403030525230303030F8
:1017D00030343030334630303834313430303338D0
:1017E0002A003C003E00556E6B6E6F776E2073755D
:1017F000666669782000556E6B6E6F776E20636D3C
:10180000642000536574206E6F7420696D706C6580
:101810006D656E74656400466F72636564206578FB
:1018200065637574696F6E00556E6B6E6F776E20B1
:1018300073756666697800454C45563A2000206904
:101840006E697400200050574D2D4F757420230091
:101850002073746F7000200050574D2D4F75742009
:1018600023003D0050696E3A0020696E6974005291
:10187000656C61792D4F75742023002073746F702F
:101880000052656C61792D4F75742023003D3E0038
:101890003A0070756220616374696F6E200069643C
:1018A0006C65006F66660068656174696E670066E6
:1018B000616E00647279696E6700636F6F6C696E48
:1018C000670020697320004F75742000556E6B6EA1
:1018D0006F776E207375666669782000556E6B6E43
:1018E0006F776E20636D642000616374696F6E00B2
:1018F00072656C61794374723A20005B305D3A2006
:1019000000202D202D202D20EFBBBF003E003E31BA
:10191000202D20000000000000636D64000073654E
:1019200074000076616C000064656C0000485356DA
:101930000000524742000066616E00006D6F6465F2
:10194000006374726C006875650000736174000058
:1019500074656D7000726177000020002E00696E62
:1019600000735F6F7574006D79686F6D6500435427
:10197000524C2F657865633A204F75744F664D65FC
:101980006D6F72793A2000202D3E20004D51545445
:101990003A2000202D3E2000456D69743A203C001D
:1019A000202D3E20004974656D436D643A2000206F
:1019B0002D3E20004974656D3A2000556E6B6E6FA8
:1019C000776E207375666669782000556E6B6E6F52
:1019D000776E20636D642000636C724374723A20EA
:1019E00000454F46002F00496E3A20002D3E002052
:1019F0000023002D3E00200050656E6465643A208F
:101A00002300000020002300260029002C002F00C6
:101A10003200000100000301060109013D00494EAA
:101A20003A003D004C454741435920494E3A002079
:101A3000666F7220286D73293A004354524C3A2045
:101A40005363686564756C6520636D642000206D68
:101A500073203A0041726D656420666F7220002029
:101A600044697361726D6564002074696D653A0044
:101A70004354524C3A205265733A002054533A0072
:101A800020543A00544845524D3A00436C65616E0B
:101A9000696E6720616C61726D20003D0050696E57
:101AA0003A004354524C3A20436F6D6D616E64208E
:101AB000626C6F636B65642062792064726976651D
:101AC00072206F72206368616E6E656C2066726F43
:101AD0007A656E004354524C3A204F4E3A416C7234
:101AE00065616479204163746976650A00435452E4
:101AF0004C3A2048414C543A416C726561647920FB
:101B0000496E6163746976650A004354524C3A2009
:101B1000584F4E3A2044697361626C65640A004311
:101B200054524C3A20584F4E3A416C726561647978
:101B3000204163746976650A004354524C3A205838
:101B40004F464620736B69707065642E2050726535
:101B50007620636D643A004354524C3A20547572B7
:101B60006E6564206F66662066726F6D3A0043543E
:101B7000524C3A20526573746F7265642066726FBE
:101B80006D3A004354524C3A2049676E6F72656457
:101B90002C206368616E6E656C20636D643D00206F
:101BA000457865633A004354524C3A204163746966
:101BB00076653A004354524C3A2048414C543A41DD
:101BC0006C726561647920496E6163746976650A37
:101BD000004354524C3A20584F4E3A2044697361A6
:101BE000626C65640A004354524C3A20584F4E3A96
:101BF000416C7265616479204163746976650A009D
:101C00004354524C3A20584F464620736B697070CB
:101C100065642E205072657620636D643A004354EB
:101C2000524C3A205475726E6564206F6666206669
:101C3000726F6D3A004354524C3A20526573746F80
:101C40007265642066726F6D3A004354524C3A20BC
:101C50004E6F7420656E6F756768206D656D6F726D
:101C60007920666F722067726F7570206F70657271
:101C70006174696F6E00496E76616C69642061728F
:101C80006700496E76616C69642061726700435435
:101C9000524C3A20556E6B6E6F776E207375666688
:101CA000697800536B697070656420686F6D696551
:101CB000207374756666002000205375623D002015
:101CC0004974656D3D004354524C3A2052414D3D9C
:101CD000004354524C3A204F75744F664D656D6FFA
:101CE00072793A2000282D292000282B2920002055
:101CF00076616C7565206973200020756E6B6E6F60
:101D0000776E0A005D3D005B0020696E76616C694C
:101D1000640020004143544956453A00206F6B004F
:101D20003A00206661696C6564003A00526574721D
:101D300079696E6720434D440A004354524C2F701A
:101D40006F6C6C3A204F75744F664D656D6F72798C
:101D50003A2000207365632072656D61696E696E5B
:101D60006700537461747573206465666665726597
:101D7000640A00444D58000000000000444D5852D1
:101D80004742570000444D58524742000000505708
:101D90004D0000000000004D42555344494D0000E5
:101DA000544845524D4F00000052454C41590000E7
:101DB000000047524F555000000000564354454D17
:101DC000500000004D425553564300000041434827
:101DD0004149455200005350494C45440000004DD4
:101DE0004F544F52000000005049440000000000D2
:101DF000004D4255530000000000554152544252DC
:101E000044470052454C415950574D00444D58529B
:101E1000474257570056454E545300000000454C6A
:101E2000455641544F5200434F554E5445520000C1
:101E300048554D0000000000004D45524355525991
:101E4000000020002D3E00436F6E76657274696E4F
:101E50006720002D3E0057726F6E672041737369D3
:101E6000676E6D656E742000524742783A200020FC
:101E7000764C6576656C3A0020436F6E76563A0074
:101E800020436F6E76533A0020486F743A00436FD8
:101E90006C643A0020436F6E7665727465642056F8
:101EA0003A00436F6E76657274656420533A002D74
:101EB0003E0057726F6E672041737369676E6D6580
:101EC0006E7420002D3E0057726F6E672041737351
:101ED00069676E6D656E74200020537566663A0002
:101EE0002041543A00206973200044656C65746990
:101EF0006E6720636F6E662E2052414D20776173AE
:101F00003A0053746F70706564006E6F7468696E28
:101F10006720746F2073746F700053746F707069F2
:101F20006E67206368616E6E656C73202E2E2E00C6
:101F300043616E206E6F7420636C65616E202D208E
:101F40006C6F636B656400436F6E666967206368DE
:101F5000616E676564206C6F63616C6C792C2070B6
:101F60006F7274616C2064697361626C6564002FC8
:101F7000636F6E6669672E6A736F6E007265626F5B
:101F80006F742000436D643A20002F636F6D6D61A4
:101F90006E642F002F72616D2F002F6974656D2F95
:101FA000002F6974656D2F004C6F636174696F6EEB
:101FB0003A20687474703A2F2F6C617A79686F6D6B
:101FC000652E72752F707761003F6D61633D00264D
:101FD00069703D0026706F72743D00266E616D65FC
:101FE0003D002F0020003E3E2000496E76616C6966
:101FF0006420636F6D6D616E64003E3E3E004E6F07
:10200000204D414320636F6E666967757265643A5F
:1020100020736574206669726D776172652773201D
:102020004D41430A00454550524F4D207369676E3C
:102030006174757265206F6B00496E697469616CBB
:10204000697A696E6720454550524F4D2E002F64C6
:10205000617461002F736B6574636800416363652D
:1020600073732D436F6E74726F6C2D52657175654D
:1020700073742D507269766174652D4E6574776F37
:10208000726B3A2074727565004163636573732DDA
:10209000436F6E74726F6C2D416C6C6F772D486559
:1020A00061646572733A202A004163636573732D1E
:1020B000436F6E74726F6C2D416C6C6F772D4D6534
:1020C00074686F64733A20504F53542C4745542C16
:1020D0004F5054494F4E53004163636573732D4312
:1020E0006F6E74726F6C2D416C6C6F772D437265DF
:1020F00064656E7469616C733A2074727565004F23
:102100005054494F4E530044454C4554450050559A
:10211000540047455400504F535400617574686F24
:1021200072697A6174696F6E3A2000417574686FE4
:1021300072697A6174696F6E3A2000436F6E7465DC
:102140006E742D4C656E6774683A20007265616428
:10215000790024737461746500757074696D65002D
:1021600066726565686561700024737461747300DC
:1021700020457870697265640A00202D7461726769
:102180006574207A6F6E652D0020416C61726D2040
:10219000457870697265640A0020636D643A0020B6
:1021A0004375723A00205365743A002054696D6596
:1021B000723A00204C6F636B733A0052414D3D0000
:1021C00000002100240027002A002D0030003300E9
:1021D00001010000040107010A010000220025009E
:1021E00028002B002E003100340002010000050100
:1021F00008010B0105050505070508080808020286
:1022000002020A0A08080404040401010101010190
:1022100001010303030303030303040707070C0C73
:102220000C0C0C0C0C0C020202020606060606063A
:1022300006060B0B0B0B0B0B0B0B05050508080714
:10224000070404040A0A0A0A0A0A010210202008E4
:102250000810204010204080020102010804020101
:102260000102040810204080804020100804020170
:1022700080040201804020100804020108040201C9
:102280000102040810204080010204081020408050
:102290000440800480081010204004081020408072
:1022A00000000B0C030A0D0E0F09080405020000C4
:1022B000000000000000000000000000000000001E
:1022C00000000000000000000000000013121100D8
:1022D00000000000000000000000000000000000FE
:1022E00000000000000000000000000000000000EE
:1022F0000000000000006F637465742F73747265D2
:10230000616D00696D6167652F6A70656700696D51
:102310006167652F67696600746578742F68746DEE
:102320006C006170706C69636174696F6E2F6A73A1
:102330006F6E00746578742F706C61696E00436F06
:102340006E74656E742D547970653A2000436F6E1B
:102350006E656374696F6E3A20636C6F73650041DC
:1023600063636573732D436F6E74726F6C2D416C74
:102370006C6F772D4F726967696E3A202A00556E2F
:102380006B6E6F776E004E6F74204D6F6469666977
:102390006564004F4B004D6F766564207065726D0B
:1023A000616E656E746C7900496E7465726E616CF5
:1023B00020536572766572204572726F72005061AB
:1023C000796C6F616420546F6F204C617267650097
:1023D0004E6F7420666F756E64005757572D4175A8
:1023E0007468656E7469636174653A2042617369EB
:1023F00063207265616C6D3D224163636573732078
:10240000726573747269637465642200556E6175D8
:1024100074686F72697A6564005061796C6F616489
:102420002073697A652077726F6E6700426164205D
:102430007265717565737400485454502F312E3194
:10244000200020000000000000000000004F4E00AF
:102450000000000000004F4646000000000000524F
:102460004553540000000000544F47474C450000BE
:102470000048414C540000000000584F4E0000003E
:10248000000000584F46460000000000494E4352ED
:102490004541534500444543524541534500454E4F
:1024A00041424C4500000044495341424C45000024
:1024B000554E465245455A4500465245455A4500F7
:1024C00000004155544F000000000046414E5F4F50
:1024D0004E4C59004849474800000000004D454413
:1024E00049554D0000004C4F5700000000000048C7
:1024F0004541540000000000434F4F4C00000000D5
:102500000044525900000000000053544F50000096
:1025100000000052474200000000000048535600EF
:10252000000000000057726F6E67207061796C6167
:1025300064004D5154543A204354524C2F747874D3
:102540003A204F75744F664D656D6F72793A200071
:10255000202D3E2041543A004368616E207479700A
:10256000653A004E6F2073746F7265642076616CFB
:10257000756573202D2064656661756C743A200062
:10258000536176656420455441473A005365742091
:10259000455441473A20002D3E005075623A2000D4
:1025A0002D3E005075623A20002D3E005075623A73
:1025B00020000000000000636D640000736574007B
:1025C0000076616C000064656C00004853560000A2
:1025D000524742000066616E00006D6F64650063E3
:1025E00074726C0068756500007361740000746536
:1025F0006D700072617700002D3E005075623A20C8
:10260000002D3E005075623A200053454E4453540D
:10261000415455533A20556E6B6E6F776E20636D43
:1026200064200A000000000000000000004F4E007F
:102630000000000000004F4646000000000000526D
:102640004553540000000000544F47474C450000DC
:102650000048414C540000000000584F4E0000005C
:10266000000000584F46460000000000494E43520B
:102670004541534500444543524541534500454E6D
:1026800041424C4500000044495341424C45000042
:10269000554E465245455A4500465245455A450015
:1026A00000004155544F000000000046414E5F4F6E
:1026B0004E4C59004849474800000000004D454431
:1026C00049554D0000004C4F5700000000000048E5
:1026D0004541540000000000434F4F4C00000000F3
:1026E0000044525900000000000053544F500000B5
:1026F000000000524742000000000000485356000E
:10270000000000000000ECE4BFE411241FBECFEF86
:10271000D1E2DEBFCDBF00E00CBF17E0A0E0B2E029
:10272000EAE9F5EF01E00BBF02C007900D92A23875
:10273000B107D9F72FE0A2E8B7E001C01D92AC3194
:10274000B207E1F713E1C4E8D3E100E006C0219746
:102750000109802FFE010E949DF2C338D10780E05D
:102760000807A9F70E94BCCE0C94BBFA0C94000099
:10277000FC01818D928D0895CF93DF931F92CDB789
:10278000DEB76983DC01ED91FC910280F381E02DDD
:1027900041E050E0BE016F5F7F4F19950F90DF91D0
:1027A000CF910895FC019485FB018485981303C0A3
:1027B00081E0983008F080E00895CF93DF931F9276
:1027C000CDB7DEB76983DC01ED91FC910280F38126
:1027D000E02D41E050E0BE016F5F7F4F19950F90F3
:1027E000DF91CF91089585ED8093BC008091BC006E
:1027F00084FDFCCF10922B09089520910709260F24
:102800003327331F21323105ECF420912B09FC01D1
:1028100090E080E0243069F082E00895A0910709FB
:102820002191AC014951574FA40FB52FB11D2C93E5
:102830000196861798F380910709680F609307093E
:1028400080E0089581E008958FEF9FEF08958FEF66
:102850009FEF08958091E60890E091958195910908
:102860000895CF93DF93CB01EA01642F0E94FD13FB
:10287000CE01DF91CF910895CF93DF931F92CDB713
:10288000DEB7698361E0CE0101960E94FD1381E00D
:1028900090E00F90DF91CF910895CF93DF93EA01FD
:1028A000282FDC01ED91F0E094E0F595E7959A95FD
:1028B000E1F7E653FD4F80818883FD013197E08188
:1028C000EF70F0E0E653FD4F8081898322968A2FD6
:1028D000821B861738F3615070E0660F771F460F32
:1028E000571FFA011282DF91CF91089590E0FC0109
:1028F000EC50FE4DE491F0E0EE0FFF1FE652FE4D6E
:10290000A591B4912C91865B9D4DFC01849182230D
:1029100091E009F490E0892F0895FC01DC018D918C
:102920008111FDCF30E020E050E040E08AE091915D
:10293000992301F1443051055CF59E3271F42F3F2B
:10294000310509F02CF5DB01A40FB51F12962C936D
:102950004F5F5F4F30E020E0EACF829FD001839F3E
:10296000B00D1124292F990F330B205331092A0F51
:102970003B1FDDCF2F3F310509F054F444305105A2
:102980003CF4640F751FFB01228381E090E0089501
:1029900090E080E0089590E080E00895DC01ED9102
:1029A000FC910284F385E02D1994DF92EF92FF925F
:1029B0000F931F93CF93DF93EC010C891D890115B1
:1029C000110559F01D8A1C8AC801DF91CF911F9112
:1029D0000F91FF90EF90DF900895EC85FD858E8537
:1029E0009F85DF01A80FB91F2C91243209F055C033
:1029F00011962C912B3709F050C00296E80FF91F61
:102A0000F12CE12CDF01D190DD2009F446C08DE7E7
:102A1000D816E9F08FEFE81AF80AF4CF198A188A65
:102A20002C853D852115310579F08E859F85280FF0
:102A3000391FF9012081222321F001969F878E877B
:102A40003EC01D861C86C0CF0FEF1FEFBDCFE11427
:102A5000F10419F11C928E859F8502966C857D8507
:102A6000680F791FE881F9810684F785E02DCE0192
:102A70001995998B888B1B8A1A8AEC85FD858E8522
:102A80009F85E80FF91FEE0DFF1DD2828E859F8571
:102A90000396E80EF91EFF86EE86288939892115EE
:102AA000310509F4BDCF8A899B89280F391FF901A7
:102AB0002081222309F4B2CF01969B8B8A8B022FAF
:102AC000220F110B81CFDC011C96ED91FC911D971B
:102AD0001E968D919C91E80FF91F8081082E000CA5
:102AE000990B0895DC0115968D919C91009739F012
:102AF000DC01ED91FC910680F781E02D1994089599
:102B000083E090E00895DC011296ED91FC9113971B
:102B10003097B9F016968D919C918430910541F0D3
:102B20008530910541F0039749F482E090E00895E3
:102B300081E090E0089581E190E00895828590E041
:102B4000089590E080E0089584E090E00895DC012D
:102B50001496ED91FC91309729F08081082E000C9D
:102B6000990B089590E080E0089585E090E0089545
:102B7000DC011496ED91FC9180E0309711F085A175
:102B8000817090E008958FE090E0909348098093E1
:102B9000470988EC90E00895CF92DF92EF92FF9280
:102BA0000F931F93CF93DF93CDB7DEB7AF970FB6D9
:102BB000F894DEBF0FBECDBF7C016A010DE714E0C3
:102BC0001A8309831C861B8688EE93E0A0E0B0E0A0
:102BD0008D879E87AF87B88B83E594E09A87898736
:102BE000188F0F8B198E1A8E1B8E1C8E88E089A36E
:102BF0001BA70AA71CA61DA61EA61FA68091420CF5
:102C00009091430CA091440CB091450C8EA39FA3CE
:102C1000A8A7B9A78B839C83AD83BE8318861F8228
:102C2000AE01465D5F4FCE0101960E9403C7813021
:102C30009105B1F4D701ED91FC910488F589E02D5F
:102C40001DA30CA38CA59DA5AEA5BFA58EA39FA378
:102C5000A8A7B9A7A601BE016C5D7F4FC701199552
:102C6000AF960FB6F894DEBF0FBECDBFDF91CF9108
:102C70001F910F91FF90EF90DF90CF900895CF9329
:102C8000DF93EC01888D883020F40E9422A688E032
:102C9000888FDF91CF9108950F931F93CF93DF9388
:102CA000EC018B01888D883010F40E9422A6B801B7
:102CB00082E00E949EAB888F883050F41D870C877D
:102CC0001A8E198E81E0DF91CF911F910F91089597
:102CD00080E0F9CF0F931F93CF93DF938C01EA012C
:102CE000FC018485883048F40E9492A6892B39F42F
:102CF00081E090E0F80193838283D0E0C0E0CE01D0
:102D0000DF91CF911F910F910895EF92FF920F9352
:102D10001F93CF93DF937C018091300AD4E08333FB
:102D200009F0D8E000E21AE0C0E0F8012191319109
:102D30008F01F701848195812817390729F0CF5F2A
:102D4000DC13F3CF80E006C08C2F0E948FAB843160
:102D5000B1F781E0DF91CF911F910F91FF90EF903C
:102D60000895CF93DF93EC018C858830D0F40E94D6
:102D70008FAB843189F0882379F0883169F021E0C4
:102D80008C3159F4E881F9810084F185E02DCE0180
:102D9000199521E0892B09F420E0822FDF91CF9152
:102DA000089580E0FBCFCF92DF92EF92FF920F93D6
:102DB0001F93CF93DF93CDB7DEB7AF970FB6F894DD
:102DC000DEBF0FBECDBF8C016B017A018DE794E0B1
:102DD0009A8389831B821C821D821E821C861B860D
:102DE00048EE53E060E070E04D875E876F87788B38
:102DF00023E534E03A872987988F8F8B198E1A8EB6
:102E00001B8E1C8E28E029A39BA78AA71CA61DA6A3
:102E10001EA61FA6D8011C968C91883060F40E94D3
:102E20008FAB882321F0F80184850E9414A688E0E6
:102E3000D8011C968C938091420C9091430CA091E8
:102E4000440CB091450C8EA39FA3A8A7B9A78B8370
:102E50009C83AD83BE8318861F82AE01465D5F4FA3
:102E6000B601CE0101960E9403C70097C1F0D801B8
:102E7000ED91FC910684F785E02D8DE794E09DA30C
:102E80008CA38CA59DA5AEA5BFA58EA39FA3A8A727
:102E9000B9A7A701BE016C5D7F4FC8011995AF9618
:102EA0000FB6F894DEBF0FBECDBFDF91CF911F915B
:102EB0000F91FF90EF90DF90CF900895FC018485F3
:102EC000883010F40C9470A290E080E00895CF93C5
:102ED000DF93EC018C85883060F40E948FAB8731E2
:102EE00011F08C3131F48C850E9475A681159840C3
:102EF00088F3DF91CF910895FC018485883010F428
:102F00000C9475A690E080E00895CF93DF931F9214
:102F1000CDB7DEB741E050E0BE016F5F7F4FFC01EF
:102F200084850E94F4A61816190634F4898190E06D
:102F30000F90DF91CF9108958FEF9FEFF9CFFC01B4
:102F40008485883010F40C94F4A690E080E0089515
:102F5000CF93DF93FC012485283028F08FEF9FEF7B
:102F6000DF91CF910895EC010190F081E02D008474
:102F7000F185E02D1995892B89F38C850E9439A262
:102F800090E0EECF6BED71E1811102C06DED71E16A
:102F90008FE09DE00C946D9B62E27FE08FE09DE00E
:102FA0000E946D9BF0E0E0E0199584EF91E00895B8
:102FB000809185078823B1F0E0918607F09187071B
:102FC000309731F0868197819093840780938307AF
:102FD00064E97CE08FE09DE00E946D9B8FE09DE0C6
:102FE0000C94E6990895AF92BF92CF92DF92EF9240
:102FF000FF921F93CF93DF9300D000D0CDB7DEB701
:103000006C017C0110E08AE0A82EB12C133061F134
:10301000F701828190E0B0E0A0E089839A83AB83DE
:10302000BC83BE82AD82BE016F5F7F4F8FE09DE0AB
:103030000E94F88B6CE579E10E946D9B1F5FFFEFAA
:10304000EF1AFF0A143011F726960FB6F894DEBF78
:103050000FBECDBFDF91CF911F91FF90EF90DF901A
:10306000CF90BF90AF900895F601858190E0B0E0D9
:10307000A0E089839A83AB83BC83BE82AD82BE010C
:103080006F5F7F4F8FE09DE00E94F88B6AE579E1EA
:10309000D3CFEF92FF920F931F93CF93DF93EC0167
:1030A0008B0180918E0790918F070097A9F0FC010A
:1030B00020852F70263081F40E9457B1FC01908545
:1030C0009F70943049F481859285DF91CF911F9153
:1030D0000F91FF90EF900895EE88FF88C701019748
:1030E0000D97D0F46BE874E0C8010E94FEF6892BBE
:1030F00099F48FE2888F85E08E9DB0018F9D700DD1
:1031000011246C5E764E46E050E0CE0149960E9456
:103110001EEBCE014896D9CF90E080E0D6CF4F92FB
:103120005F926F927F92AF92BF92DF92EF92FF9287
:103130000F931F93CF93DF9300D000D0CDB7DEB7AE
:103140007C01D62E80918B07882309F4BEC0D7015D
:1031500014969C9180912802891708F4B6C080913A
:10316000E4089091E508BAE06B13F0C08C56974FD5
:10317000FC011082D70118960D911C9101151105C3
:1031800009F49FC0F801618572856115710591F49C
:10319000458056806780708480913C0C90913D0CF6
:1031A000A0913E0CB0913F0C481659066A067B066A
:1031B00009F487C0D8011B964D915C911C9741156D
:1031C000510509F47EC0F701248153968C915397E1
:1031D00090E0322F377002C0959587953A95E2F7C7
:1031E00080FF6FC0A22EB12CC501887F9370892B00
:1031F00039F451968D919C91887F9370A82AB92AB1
:10320000D8018D919C91DC01ED91FC9161157105C6
:1032100009F486C00688F789E02D1995019709F011
:1032200050C06CE3F801808191810E94859AA501CC
:1032300070E060E02AE0D8018D919C910E949A99FB
:10324000F8012281808191816EE079E1222311F0E1
:103250006CE079E10E946D9BD8011D966D917C9187
:103260001E978D919C910E94169B60E2F8018081CF
:1032700091810E94859AD8011F966D917C915097FB
:103280008D919C910E94169BF801228180819181F1
:1032900061E079E1222311F06BEF78E10E946D9BF0
:1032A00064E978E0D8018D919C910E94169BF80109
:1032B00080819181DC01ED91FC91008CF18DE02DFC
:1032C00019951092E5081092E408D70115968D9192
:1032D0009C911697009771F014963C9120912902C9
:1032E000231740F0DC01ED91FC910190F081E02D7D
:1032F0006D2D199581E090E026960FB6F894DEBF0B
:103300000FBECDBFDF91CF911F910F91FF90EF9036
:10331000DF90BF90AF907F906F905F904F90089537
:103320000488F589E02D2DE734E03A832983D8011C
:1033300015964D905D906D907C9018974B825C82B5
:103340006D827E82BE016F5F7F4F67CF8F349105A4
:103350000CF0BBCFBDE06B1709F4B7CF9C012F5F1A
:103360003F4F3093E5082093E4088C56974FFC01BB
:103370006083ABCF0C944AE90C944AE90C944AE977
:103380000C944AE9CF93C1E068EE73E080E090E0EE
:103390000E94B6C04AE050E06C2F8FE09DE00E9492
:1033A000EA99CF5FC43181F784EF91E0CF9108951E
:1033B000FF920F931F93CF93DF93CDB7DEB7649740
:1033C0000FB6F894DEBF0FBECDBF8C01F62E8FE294
:1033D00090E09A838983FE01339688E0DF011D9295
:1033E0008A95E9F7F8016681FF2011F081E06827EE
:1033F000D80114968C910E9430BFF8018781908586
:10340000A185B285883E9340A105B10508F48BC023
:1034100067EC78E180EC9DE00E946D9BD8011496EA
:103420006D917C9180EC9DE00E94DEB162EC78E1D0
:1034300080EC9DE00E946D9B6F2D70E080EC9DE024
:103440000E94DEB180EC9DE00E94E69969EE78E191
:10345000CE0101960E94DCEAF801828193810E94EC
:103460009E71FF2009F46BC06AEB78E1843151F062
:1034700063EB78E1853131F067EA78E18F3011F460
:103480006FEA78E1CE010B960E94F0EA62E978E1FA
:1034900080EC9DE00E946D9BD8011296ED91FC910D
:1034A00013970280F381E02D60817181ED91FC9191
:1034B0000288F389E02D9E012F5F3F4FAE01455FEB
:1034C0005F4FC8011995BC0180EC9DE00E94DEB100
:1034D00060E978E180EC9DE00E946D9BD801129636
:1034E000ED91FC910280F381E02D6081718180EC8F
:1034F0009DE00E94169BBE016F5F7F4F80EC9DE0B8
:103500000E94169B6DE878E180EC9DE00E946D9B27
:10351000BE01655F7F4F80EC9DE00E94169B80ECB2
:103520009DE00E94E69964960FB6F894DEBF0FBE48
:10353000CDBFDF91CF911F910F91FF90089563EA66
:1035400078E1823009F49ECF6EE978E19BCFCF938A
:10355000DF93EC0161E878E180EC9DE00E946D9BD7
:103560006C817D8180EC9DE00E94DEB16BE778E1AB
:1035700080EC9DE00E946D9B80EC9DE00E94E699AE
:1035800060E08C810E945EBFE881F9810484F5854A
:10359000E02D60E0CE01199581E090E0DF91CF91C0
:1035A0000895CF93DF93EC0168E578E180EC9DE02E
:1035B0000E946D9B6C817D8180EC9DE00E94DEB15C
:1035C00066E578E180EC9DE00E946D9BEA81FB81DD
:1035D0000280F381E02D6081718180EC9DE00E948A
:1035E000169B60E578E180EC9DE00E946D9B80EC8D
:1035F0009DE00E94E699E881F981048CF58DE02D2B
:10360000CE0119958130910529F0029759F060E0BB
:103610008C811AC063E070E0CE010E94FE8C60E0F5
:103620000E945EBF60E08C810E945EBF61E070E03E
:10363000CE010E94FE8C60E00E945EBF62E070E0FE
:10364000CE010E94FE8C60E00E945EBFE881F9819D
:103650000484F585E02D60E0CE01199581E090E0CD
:10366000DF91CF910895CF93DF93EC0166E478E189
:1036700080EC9DE00E946D9B6C817D8180EC9DE0E3
:103680000E94DEB164E478E180EC9DE00E946D9BD5
:10369000EA81FB810280F381E02D6081718180EC01
:1036A0009DE00E94169B6EE378E180EC9DE00E9415
:1036B0006D9B80EC9DE00E94E6998A819B81892B1D
:1036C00009F451C08C819D81892B09F04CC0E8819F
:1036D000F981048CF58DE02DCE011995813091058D
:1036E00029F0029759F061E08C811AC063E070E024
:1036F000CE010E94FE8C61E00E945EBF61E08C8181
:103700000E945EBF61E070E0CE010E94FE8C61E02D
:103710000E945EBF62E070E0CE010E94FE8C61E01C
:103720000E945EBF8091A100887F8093A10080915C
:103730009100887F809391008091A10082608093A6
:10374000A10080919100826080939100E881F981CD
:103750000484F585E02D62E0CE01199581E090E0CA
:10376000DF91CF91089590E080E0FACFAF92BF92C1
:10377000CF92DF92EF92FF920F931F93CF93DF933D
:10378000CDB7DEB768970FB6F894DEBF0FBECDBFDA
:10379000FC01098B1A8B2B8B3C8B4D8B5E8B6F8BBB
:1037A000788F82819381009709F49DC024813581AF
:1037B000232B09F498C0CC2009F495C06F0170E068
:1037C00060E00E94576D192FD601ED91FC91048C99
:1037D000F58DE02DC60119955C018230910509F443
:1037E00076C0039709F445C095E0F1E0AF16B10447
:1037F00009F091E019861A861B861C861D861E8696
:103800001F86188A8A85807F892B8A87EE24EA940E
:10381000FE2C09891A892B893C894D895E896F891B
:10382000788DCE0109960E943D67F1E0AF16B10494
:1038300009F44FC082E0A816B10409F045C06F85B5
:1038400070E0D60114968C910E949ABF61E070E0FE
:10385000C6010E94FE8C6E8570E00E949ABF62E0F5
:1038600070E0C6010E94FE8C6D8570E00E949ABFD8
:103870002BC0612F661F6627661FCE0141960E94EE
:10388000FA645C01BC01D60114968C910E949ABF27
:1038900064E678E180EC9DE00E946D9BF601648116
:1038A000758180EC9DE00E94DEB162E678E180ECFB
:1038B0009DE00E946D9BB50180EC9DE00E94DEB111
:1038C00080EC9DE00E94E69981E090E00EC094E0DB
:1038D00091CF63E070E0C6010E94FE8C688970E0C1
:1038E0000E949ABFACCF90E080E068960FB6F89443
:1038F000DEBF0FBECDBFDF91CF911F910F91FF9023
:10390000EF90DF90CF90BF90AF9008950F931F93EB
:10391000CF93DF9300D000D01F921F92CDB7DEB7B8
:10392000FC0182819381009759F040E050E061E012
:1039300070E00E947E6F21E0672B682B692B09F0F5
:1039400020E0822F28960FB6F894DEBF0FBECDBFC1
:10395000DF91CF911F910F910895CF93DF93FC01D9
:1039600022813381232B59F1EC0164E875E180EC6D
:103970009DE00E946D9B4AE050E06E8180EC9DE0EE
:103980000E94EA9980EC9DE00E94E6998C819D81DD
:103990000E944AE970E060E08A819B810E94B76CD6
:1039A0001D821C82E881F9810484F585E02D60E0A8
:1039B000CE01199581E090E0DF91CF91089590E0DC
:1039C00080E0FACFCF93DF93EC0160E877E180EC01
:1039D0009DE00E94919B8C819D810E944AE970E04C
:1039E00060E08A819B810E94B76C1D821C8281E00D
:1039F00090E0DF91CF910895CF92DF92EF92FF9206
:103A00000F931F93CF93DF93EC018C819D81892BC2
:103A100061F40A811B8185E090E00E94AEE8BC0160
:103A2000C8010E94B76C9D838C83EC80FD80E114FB
:103A3000F104A9F468E677E189E19DE00E946D9BBD
:103A400089E19DE00E94E69990E080E0DF91CF91CE
:103A50001F910F91FF90EF90DF90CF9008951092FB
:103A60008F0810928E081092890810928808109280
:103A70009008109291081092920810929308109258
:103A80008A0810928B0810928C0810928D08109260
:103A9000060810924808EA81FB81309759F084812A
:103AA0009581009739F0DC0118962C912F70263003
:103AB00009F468C061E277E189E19DE00E946D9BB5
:103AC00061E070E08C819D81892B11F470E060E0F1
:103AD00089E19DE00E94DEB16FE177E189E19DE03F
:103AE0000E946D9B61E070E08A819B81892B11F4BB
:103AF00070E060E089E19DE00E94DEB16DE177E178
:103B000089E19DE00E946D9BEA81FB8161E070E0AC
:103B100084819581892B11F470E060E089E19DE05A
:103B20000E94DEB16BE177E189E19DE00E946D9B2F
:103B3000EA81FB810480F581E02D80858F7061E052
:103B400070E0863011F470E060E089E19DE00E9451
:103B5000DEB169E177E189E19DE00E946D9B89E139
:103B60009DE00E94E6996AE377E189E19DE00E9489
:103B70006D9B89E19DE00E94E699EC81FD8181E0E9
:103B8000808362CF6FE874E00E9457B1009709F418
:103B9000A2C0FC0120852F70243009F09CC0C18494
:103BA000D28410E000E0C114D10409F487C0B80148
:103BB0006F52794EC6010E94E7EA892B09F078C05E
:103BC000F801EB52F94E25913491922F832FD701B2
:103BD00013969C93139714968C93EA81FB8166E964
:103BE00074E0848195810E9457B1EC81FD8100973A
:103BF00009F477C0DC0118962C9118972F702230A9
:103C000009F06FC019964D915D916D917C911C9753
:103C1000411551056105710509F463C05283418363
:103C200041815281052E000C660B770B23818EE7B4
:103C30009BE00E940E9DEC81FD8141815281052E09
:103C4000000C660B770B238181EE9AE00E940E9D9B
:103C5000EA81FB8160EA74E0848195810E9457B11A
:103C6000009739F0FC0181859285909347088093F5
:103C7000460860E577E18FE09DE00E946D9BEA8158
:103C8000FB810280F381E02D608171818FE09DE0F6
:103C90000E94169B8FE09DE00E94E699EC81FD81D9
:103CA00082E0808381E08093270281E090E0CECEA5
:103CB0000A5F1F4F0834110509F075CF64EB76E1F8
:103CC00080EC9DE00E946D9B80EC9DE00E94E69957
:103CD00096E080E07CCF86E090E0F70194838383D8
:103CE0007CCF80E09BE4928381839ACF009789F018
:103CF000FC0120852F70253061F40E94CFB1009720
:103D000041F0FC0120852F70243019F481859285C3
:103D1000089590E080E00895CF93DF9300D000D025
:103D20001F921F92CDB7DEB7E9EFFCE0128A118A2D
:103D300080E090E19587848784E890E0948B838B82
:103D400081E0868780E090E2908B878787E7858B8C
:103D50001C821B8284EA92E09A838983FE83ED832E
:103D60008FEF9FEF98878F836BE075E18FE09DE089
:103D70000E946D9B6091890770918A07CE01019620
:103D80000E94F6BA89EF9CE00E943B5B6BEF74E106
:103D90008FE09DE00E946D9B8FE09DE00E94E69980
:103DA0000E9421CA28960FB6F894DEBF0FBECDBF81
:103DB000DF91CF910895892B71F0FB01828193816E
:103DC0000E94A6B264EC71E18FE09DE00E946D9BC1
:103DD00088EC90E0089590E080E0F2CF0F931F937D
:103DE000CF93DF93EB0102970CF484C00A811B810F
:103DF00061EC70E1C8010E94C9EA892B51F481E0AD
:103E00000E9436B588EC90E0DF91CF911F910F9121
:103E100008956AEC70E1C8010E94C9EA892B11F487
:103E200080E0EECF68E970E18FE09DE00E946D9B3D
:103E30000E9496B46295617081E0682770E08FE01F
:103E40009DE00E94DEB18FE09DE00E94E6998091A6
:103E5000EB0C9091EC0C892BE9F10A811B810E94FB
:103E600037B28823B9F1F80101900020E9F73197C2
:103E7000E01BF10BB09770F582E70E9422B28091AF
:103E8000EB0C9091EC0CDC01ED91FC910088F18938
:103E9000E02D60E270E01995B8018091EB0C9091F3
:103EA000EC0C0E94169B8091EB0C9091EC0CDC01C9
:103EB000ED91FC910190F081E02D60E019958091E9
:103EC000EB0C9091EC0CDC01ED91FC910488F589F0
:103ED000E02D19956A817B818FE09DE00E94169B01
:103EE00061E970E18FE09DE00E946D9B8FE09DE0B5
:103EF0000E94E699809147099091480902973CF009
:103F000080EF9FEF90934809809347097BCF64E847
:103F100070E189E19DE00E946D9B89E19DE00E9436
:103F2000E69984EF91E070CF892B71F0FB018281DB
:103F300093810E94F4B26EE670E18FE09DE00E94F2
:103F40006D9B88EC90E0089590E080E0F2CFEF92D6
:103F5000FF920F931F93CF93DF93CDB7DEB72C97CC
:103F60000FB6F894DEBF0FBECDBF8C017B018DE78D
:103F700094E09A8389831B821C821D821E8298870B
:103F80008F8319861A861B861C8605301105ECF076
:103F9000BE01695F7F4FF701808591850E948D1476
:103FA000892B99F0CE0107960E9497B3BE01695FF5
:103FB0007F4FF701868197810E948D14892B61F0D4
:103FC000CE0107960E9441B40EC0CE0101960E9418
:103FD00097B30430110554F7CE0101960E9441B405
:103FE00003301105A4F1BE01695F7F4FF7018481A1
:103FF00095810E948D14892B51F1CE0107960E9464
:10400000ECB3BE01695F7F4FF701828193810E940B
:104010008D14892B19F1CE0107960E9442B367E5F2
:1040200070E18FE09DE00E946D9B80E00E942DB5C5
:1040300088EC90E02C960FB6F894DEBF0FBECDBF93
:10404000DF91CF911F910F91FF90EF900895CE01D6
:1040500001960E94ECB3023011059CF6CE01019648
:104060000E9442B301301105D1F6CE0101960E94A3
:1040700042B36EE570E18FE09DE00E946D9BCFCF73
:104080000F931F93CF93DF938C01EB010297C4F042
:104090008A819B810E947BEA8093290299270E9452
:1040A00040B50230110549F08C819D810E947BEA68
:1040B0008093280299270E944AB5C8ECD0E002C03C
:1040C000C0E9D1E063E470E18FE09DE00E946D9B68
:1040D0004AE050E0609129028FE09DE00E94EA9959
:1040E0006EE270E18FE09DE00E946D9B4AE050E03F
:1040F000609128028FE09DE00E94EA998FE09DE0A8
:104100000E94E699CE01DF91CF911F910F91089502
:10411000CF93DF93EB0102979CF161EC70E18A8110
:104120009B810E94C9EA892B29F40E9496B47E7F64
:104130000E94DDB46AEC70E18A819B810E94C9EA29
:10414000892B29F40E9496B471600E94DDB46DE160
:1041500070E18FE09DE00E946D9B0E9496B4672FF6
:104160006095617070E08FE09DE00E94DEB18FE0AD
:104170009DE00E94E69988EC90E0DF91CF91089550
:104180000E948C1EF8CF9F92AF92BF92CF92DF9287
:10419000EF92FF920F931F93CF93DF93EC017B017C
:1041A0008091300A811121C01B821A8288EE93E02F
:1041B000A0E0B0E08C839D83AE83BF8387E094E072
:1041C0009983888388E08C8788EE93E09E878D872B
:1041D000CE01DF91CF911F910F91FF90EF90DF9073
:1041E000CF90BF90AF909F90089534E0932E83338B
:1041F00011F028E0922E80E2C82E8AE0D82E10E03E
:1042000098E0B92EA12CD6012D913D916D01F701B9
:10421000848195812817390791F4812F0E948FABF3
:10422000082F873111F08C3139F5812F0E9470A24F
:10423000892B59F50C3119F4812F0E9414A61F5FA8
:104240009112E1CFA11008C0D701ED91FC9100843B
:10425000F185E02DC70119951B821A8288EE93E043
:10426000A0E0B0E08C839D83AE83BF8387E094E0C1
:1042700099838883BC86A8CF843149F08111DFCF30
:10428000F601329711821082DACFB12ED8CFAA244C
:10429000A394D5CF8F929F92AF92BF92CF92DF928D
:1042A000EF92FF920F931F93CF93DF93CDB7DEB7BB
:1042B0002F970FB6F894DEBF0FBECDBF5C014B0148
:1042C0007A018091300A8823C9F104E0833309F030
:1042D00008E0B501CE0101960E94C32080E2C82EFD
:1042E0008AE0D82E10E0F601219131916F01F5019D
:1042F000848195812817390751F4812F0E948FAB53
:10430000873129F4A701B401812F0E9492A61F5F73
:104310000113E9CFC7012F960FB6F894DEBF0FBE89
:10432000CDBFDF91CF911F910F91FF90EF90DF9064
:10433000CF90BF90AF909F908F900895F12CE12C7B
:10434000E9CFDA01E0913F09F0E0FE2FEE27E60F1A
:10435000F71F90E0982F8827A901BD018E0F9F1F9E
:104360000C94EDA044E050E0BC018FE090E00C9490
:1043700078A144E050E0BC0185E090E00C9478A185
:1043800044E050E0BC0181E090E00C9478A10895F5
:10439000CF93FC01C08D80E591E00E94DAB860E225
:1043A00070E08C2F0E9404A662E070E08C2F0E94C7
:1043B000F6A584FD16C062E070E08C2F0E94F6A581
:1043C00083FF0AC048E162E070E08C2F0E94A1A444
:1043D00080E090E0CF91089580E591E00E94DAB806
:1043E000E3CF40E162E070E08C2F0E94A1A481E065
:1043F000F0CFFF920F931F93CF93DF93EB01FC015C
:10440000178A168A2A81211109C02B81211106C021
:104410002C81211103C02D81222301F14115510569
:10442000E9F08A01FC01F08C80E591E00E94DAB8A5
:10443000AE014E5F5F4F24E030E06CE070E08F2D06
:104440000E9497A2B8018F2D0E9475A481E090E090
:10445000DF91CF911F910F91FF90089580E0F7CFEA
:104460000F931F93CF938C01FC016481758181E2CE
:104470000E949EABC82F8830F8F480E591E00E943E
:10448000DAB88C2F0E9471A6833131F08C2FCF9136
:104490001F910F910C9414A662E070E08C2F0E9483
:1044A00004A6F80184819581EC2FF0E0EE0FFF1F48
:1044B000E05EF54F91838083CF911F910F91089516
:1044C0000F931F93CF93DF931F921F92CDB7DEB749
:1044D000FC0124852830E0F48C0180E591E00E9405
:1044E000DAB822E030E0AE014F5F5F4F60E170E08C
:1044F000F80184850E94A12189819A8198278927C2
:1045000098270F900F90DF91CF911F910F910895F1
:1045100090E080E0F6CF0F931F93CF93DF931F922D
:104520001F92CDB7DEB7FC0124852830E0F48C0162
:1045300080E591E00E94DAB822E030E0AE014F5F02
:104540005F4F64E070E0F80184850E94A1218981B9
:104550009A819827892798270F900F90DF91CF9104
:104560001F910F91089590E080E0F6CFCF93DF93F5
:10457000EC018DE794E0998388831A821B821C8268
:104580001D8280E591E00E94DAB8BE016E5F7F4F28
:1045900044E050E08FE090E00E94EDA0CE01DF917A
:1045A000CF910895CF92DF92EF92FF920F931F93D6
:1045B000CF93DF9300D000D0CDB7DEB780918B07CB
:1045C00081119AC0809147099091480902970CF493
:1045D00093C08091890790918A07009709F48CC055
:1045E0006DE974E00E9457B18C01009709F484C012
:1045F0000E94E6B1E82EF12CE114F10409F47CC02C
:1046000070E060E0C8010E94761E6C01EA94EF2819
:1046100009F481C061E0C8010E94CFB1FC010185AD
:104620001285CE0101960E94B622CE0101960E940B
:10463000DDB860EE77E08FE09DE00E946D9BB601F3
:104640008FE09DE00E94169B61EE76E08FE09DE09A
:104650000E94169BB8018FE09DE00E94DEB161EEE2
:1046600076E08FE09DE00E94169B61E37AE08FE0A8
:104670009DE00E94169B8FE09DE00E94E69962E01B
:1046800072E08EED9DE00E944C16D092D40DC09247
:10469000D30D1093D60D0093D50D81E39AE0892BAD
:1046A000E9F58BE994E09093D80D8093D70D809134
:1046B000830790918407009741F070E060E00E94CA
:1046C000761E90938D0780938C0780918C07909134
:1046D0008D07009731F19093DA0D8093D90D1092E8
:1046E000DC0D1092DB0D81E080938B0767EC77E0A7
:1046F0008FE09DE00E946D9B26960FB6F894DEBF7A
:104700000FBECDBFDF91CF911F910F91FF90EF9022
:10471000DF90CF90089502E012E083CF81E39AE02A
:10472000C2CF81E892E0D7CF0E94E9A4882331F07C
:104730008091300A843329F0873381F090E080E063
:10474000089580E591E00E94DAB885E390E00E9448
:10475000BEA485FD0DC082E090E0089580E591E063
:104760000E94DAB88EE290E00E94BEA480FFF3CFF0
:1047700081E090E008951F920F920FB60F921124DE
:104780000BB60F922F933F934F935F936F937F934B
:104790008F939F93AF93BF93EF93FF938091B90053
:1047A000887F803609F44DC008F040C0883209F493
:1047B000A7C028F5803109F49BC0C8F4882309F408
:1047C000F1C0883009F494C0FF91EF91BF91AF918F
:1047D0009F918F917F916F915F914F913F912F9119
:1047E0000F900BBE0F900FBE0F901F901895883141
:1047F00009F486C0803241F780932A0914C08034BE
:1048000009F497C040F48033B9F38833E9F6809314
:104810002A0985ECA8C0803509F481C0883509F4DF
:1048200090C0883489F60E94F313CECF883909F4FA
:1048300086C038F5883729F050F4883611F0803773
:1048400019F683E080932B091092290955C0883806
:1048500009F475C0803919F0803809F0B5CF80911E
:104860002909803208F06BC0E091290981E08E0FA0
:10487000809329098091BB00F0E0E75FF64F8083C9
:104880003BC0803B39F0D0F4803A09F471C0883ADB
:1048900009F09ACF84E080932B09109208091092B6
:1048A0000709F0E0E0E019958091070981110FC038
:1048B00081E0809307091092E70809C0803C09F461
:1048C000A8CF883C09F4A5CF883B09F07DCFE091C3
:1048D000080981E08E0F80930809F0E0E951F74F55
:1048E00080818093BB00909108098091070925C0C1
:1048F000809130098093BB0085EC8093BC0064CF2D
:1049000090912F0980912E09981728F5E0912F0991
:1049100081E08E0F80932F09F0E08081EBCFE09152
:104920002F0981E08E0F80932F098091BB00F0E06A
:10493000808390912F0980912E099817E8F285E8DD
:10494000DCCFE0912F0981E08E0F80932F098091B9
:10495000BB00F0E0808380912D09811164CF81E05C
:1049600080932C0984EA8093BC0010922B092CCFF1
:1049700085EC8093BC0010922B098091290980322C
:1049800030F4E0912909F0E0E75FF64F1082609182
:10499000290970E089E099E0F0E0E0E019951092D3
:1049A000290912CF10922A093ECF4F925F926F923F
:1049B0007F92AF92BF92CF92DF92EF92FF920F93CE
:1049C0001F93CF93DF9300D01F92CDB7DEB72B019B
:1049D0003C0129833A834B835C83A6019501C8017E
:1049E000B701640D751D861D971D21153105410503
:1049F000510511F00E9426F229813A814B815C8198
:104A00006217730784079507D0F42415350546050A
:104A1000570530F521E0822F0F900F900F900F90E7
:104A2000DF91CF911F910F91FF90EF90DF90CF908A
:104A3000BF90AF907F906F905F904F900895461613
:104A400057066806790650F421E089819A81AB8186
:104A5000BC8184159505A605B705E8F220E0DBCFFB
:104A600021E04616570668067906A8F2F7CF0F939D
:104A70001F93182F0E94E8C004C0969587957795DC
:104A800067951A95D2F78B019C01015011092109F4
:104A900031090E3F1F4F2F4F3F4F20F061E070E074
:104AA00080E090E01F910F910895AF92BF92CF9256
:104AB000EF92FF920F931F93CF93DF9300D000D01C
:104AC0001F921F92CDB7DEB75C0109831A832B8337
:104AD0003C834D835E836F83788760EF78E180EC61
:104AE0009DE00E946D9BCE0101960E94695FE114DA
:104AF000F10439F069EE78E1C7010E94E7EA009716
:104B000019F1F5010281138101151105D9F089818F
:104B100081115AC08B81813009F45EC038F1823036
:104B200019F1082F10E06CEC78E180EC9DE00E9418
:104B30006D9BB80180EC9DE00E94DEB180EC9DE0B1
:104B40000E94E69990E080E028960FB6F894DEBFC8
:104B50000FBECDBFDF91CF911F910F91FF90EF90CE
:104B6000CF90BF90AF900895CC20C1F060E0CE010F
:104B700001960E94FA64892B09F447C0C8010E947B
:104B80003B6D672B682B692BE1F480E00E94372591
:104B9000AB01BC01C8010E94FA6C13C0C8010E949D
:104BA0009E718E3019F050F4813059F460E0CE01DE
:104BB00001960E94FA64892B21F0E0CF8351833063
:104BC000A8F381E090E0C0CF8031D0F48E30B0F611
:104BD0008130A1F28230C9F06CED78E180EC9DE08B
:104BE0000E946D9B4AE050E0698180EC9DE00E944C
:104BF000EA9980EC9DE00E94E69901E010E093CFF5
:104C00008351833008F4BACFE7CF40E050E0BA01D7
:104C1000C8010E94FA6C60E0C5010E94D819D1CF8A
:104C20002F923F924F925F926F927F928F929F92BC
:104C3000AF92BF92CF92DF92EF92FF920F931F93AA
:104C4000CF93DF93CDB7DEB760970FB6F894DEBF92
:104C50000FBECDBF6130710509F495C0DC0112961D
:104C60006D917C916115710509F48DC04C0119821B
:104C70001A821B821C821D821E821F8218868A81D4
:104C8000807F8A8340E052E0CE0101960E94AB71A2
:104C900060E0CE0101960E94FA641C01F401828159
:104CA00093810E943B6D2B013C01D40117962D91FD
:104CB0003D914D915C911A97D1010E9472F22FEFB4
:104CC00030E040E050E00E9426F229873A874B8787
:104CD0005C870E94E8C09B01AC0189859A85AB8501
:104CE000BC850097A105B10509F468C0A12CB12CC1
:104CF00065017C018D01C301B2010E94D524898721
:104D00004114510461047104F1F1D40117968D919D
:104D10009D910D90BC91A02D8D879E87AF87B88BFC
:104D20000E94E8C09B01AC018D859E85AF85B88946
:104D30000097A105B10561F0A12CB12C65017C01A2
:104D40008D01C301B2010E94D524882309F451C00A
:104D5000D40112966D907C9080E00E943725AB01C3
:104D6000BC01C3010E94FA6C232869F0F40184811C
:104D70000E947614D40116969C91891304C061E0B8
:104D8000C4010E94D81990E080E060960FB6F894B4
:104D9000DEBF0FBECDBFDF91CF911F910F91FF906E
:104DA000EF90DF90CF90BF90AF909F908F907F90CB
:104DB0006F905F904F903F902F90089591E099876A
:104DC0009FCFB985BB23F1F060E0C4010E94D819E0
:104DD000F401828193810E94C076892BA1F640E084
:104DE00050E0BA01D40112968D919C910E94FA6C08
:104DF000CACFF40184810E947614D40116969C9146
:104E00008913DFCF232809F4BECFF40184810E94E7
:104E10007614D40116969C918913B5CFB985B1113A
:104E2000B2CFADCFCF93DF93EC016FE678E180ECAA
:104E30009DE00E946D9B6C817D8180EC9DE00E94D5
:104E4000DEB169E678E180EC9DE00E946D9B80EC2C
:104E50009DE00E94E69961E08C810E945EBF6E81B8
:104E60008C810E9430BF8A819B81009729F040E0AD
:104E700050E0BA010E94FA6CE881F9810484F5855A
:104E8000E02D62E0CE0119958A819B81009781F027
:104E90000E94C076181619065CF40A80DB81C02DCA
:104EA00080E00E943725AB01BC01CE010E94FA6C64
:104EB00081E090E0DF91CF9108950F931F93CF93FE
:104EC000DF93DC0112962D913C91232B81F1EC01B3
:104ED00069E775E180EC9DE00E946D9B4AE050E03F
:104EE0006E8180EC9DE00E94EA9980EC9DE00E943A
:104EF000E6998C819D81892B61F40A811B818CE26A
:104F000090E00E94AEE8BC01C8010E94B76C9D838E
:104F10008C83EC81FD81309769F467E675E189E166
:104F20009DE00E946D9B89E19DE00E94E69990E0E2
:104F300080E044C085E2DF011D928A95E9F7EC81AB
:104F4000FD8116A2EC81FD8115A2EC81FD8117A2E5
:104F50000C811D8180E00E943725F80160A771A7B0
:104F600082A793A78E81811116C062E00E945EBF66
:104F70006EE275E18FE09DE00E946D9B8FE09DE009
:104F80000E94E69983E29DE00E94429210922902DB
:104F900081E08093400926E040E855E260E070E05F
:104FA0008F8198850E940E9DE881F9810484F585A2
:104FB000E02D62E0CE01199581E090E0DF91CF9184
:104FC0001F910F9108956F927F928F929F92AF924F
:104FD000BF92CF92DF92EF92FF920F931F93CF93E6
:104FE000DF93EC018C819D81892B09F4A8C08A8113
:104FF0009B81892B09F4A3C03A014B01E881F98117
:105000000284F385E02DCE011995039701F5EC811B
:10501000FD8180A591A5A2A5B3A5892B8A2B8B2BF9
:10502000B1F00E94E8C09B01AC01EC81FD8160A55C
:1050300071A582A593A5A12CB12C650116E9E12EDD
:10504000F12C00E010E00E94D524882301F38F8129
:10505000988521E0621A7108DC01ED91FC910280D3
:10506000F381E02DA301B40119958F819885DC01AE
:10507000ED91FC910190F081E02DD401129660E059
:105080009D01281939092615370518F42D91620F4D
:10509000F7CF19950C811D8180E00E943725F8011A
:1050A00060A771A782A793A769E275E180EC9DE0F4
:1050B0000E946D9B4AE050E06E8180EC9DE00E9472
:1050C000EA9965E275E180EC9DE00E946D9B8401A8
:1050D000C8018819990986159705B8F4D8016C910B
:1050E00040E150E06A3050F464EA74E080EC9DE006
:1050F0000E94169B40E150E0F801608180EC9DE049
:105100000E94EA990F5F1F4FE3CF80EC9DE00E9461
:10511000E699E881F9810484F585E02D63E0CE010C
:10512000DF91CF911F910F91FF90EF90DF90CF9083
:10513000BF90AF909F908F907F906F901994DF9168
:10514000CF911F910F91FF90EF90DF90CF90BF9084
:10515000AF909F908F907F906F900895CF92DF9245
:10516000EF92FF920F931F93CF93DF93CDB7DEB7EC
:1051700062970FB6F894DEBF0FBECDBF6C010B87F0
:105180001C872D873E874F87588B698B7A8B6FEAF8
:1051900076E1C7010E94E7EAEEE0F0E0892BF1F04A
:1051A00069EA76E1C7010E94E7EAE0E1F0E0892BD5
:1051B000A9F063EA76E1C7010E94E7EAEFE0F0E0D8
:1051C000892B61F01D856FE976E1C7010E94E7EA4E
:1051D000E12FF0E0892B11F4EDE0F0E09B859923BD
:1051E00041F0309731F4EF2809F461C08FEF9FEF61
:1051F000D1C0E131F10508F03CC08827ED5FF64DE4
:105200008F4F0C949DF2F6285729142939293929F2
:10521000392939290B2AC52A39293929392939291E
:105220003929CF2A182BDD2ACE010B960E940C6655
:1052300020EF260F2931D0F6D6011496ED91FC917E
:10524000159723A39B01AC013327442755271296BA
:10525000ED91FC9113970280F381E02D60817181C3
:10526000ED91FC910684F785E02D06EA14E0C60175
:105270001995D6011496ED91FC911597118A149603
:10528000ED91FC91159781E081871496ED91FC9149
:1052900015978DE482871496ED91FC9115978FE513
:1052A000838714966D917C9145E250E048C0F601E9
:1052B0000481158180E00E943725D80198966D936E
:1052C0007D938D939C939B97D601ED91FC910484E3
:1052D000F585E02D64E0C6011995EB85E150E531D7
:1052E00040F6F0E0D60114962D913C911597882751
:1052F000E358F64D8F4F0C949DF29229A32939293A
:105300003929A329922939293929392939293929CA
:1053100039293929D929F129392939293929ED2971
:10532000E929EF29F90185A1858F1496ED91FC916A
:10533000858D8160858F4DE050E06AE172E0C601A5
:105340000E94E32725C0F90185A1858F1496ED9170
:10535000FC91858D8E7F858F4DE050E06DE072E091
:10536000C6010E94E327D6011296ED91FC91139796
:105370000280F381E02D60817181ED91FC910288C2
:10538000F389E02D2BEA34E040EB54E0C601199597
:1053900081E090E062960FB6F894DEBF0FBECDBFFD
:1053A000DF91CF911F910F91FF90EF90DF90CF9001
:1053B0000895F901178AD6011496ED91FC9115977D
:1053C00085A1858F1496ED91FC91858D8160858FE7
:1053D00050CF81E0F901878BEECF82E0FBCF84E0F4
:1053E000F9CF83E0F901878B1496ED91FC91159725
:1053F00085A1858F1496ED91FC911597858D81601F
:10540000858F1496ED91FC91818D833009F031CF19
:1054100082E0818F2ECF1982F601048115819031AF
:10542000F1F190F4923009F446C09E30B9F0CE010B
:105430000B960E940C66611571058105910509F0B6
:105440005BC0F80117A246C0913171F1923179F732
:1054500082E0F801818F60E676E106C083E0D80142
:1054600059968C936CE376E1CE0101960E94F0EAA6
:10547000D6011296ED91FC9113970280F381E02DF5
:1054800060817181ED91FC910288F389E02D24EB1C
:1054900034E0AE014F5F5F4FC6011995EACEF801C7
:1054A000118E6EE476E1E0CF81E0D80159968C93BD
:1054B00067E576E1D9CFD80197961C9204811581D2
:1054C00080E00E943725D80198966D937D938D9347
:1054D0009C939B97D6011496ED91FC91159785A10D
:1054E000858F1496ED91FC91858D8E7F858F4DE093
:1054F00050E06DE072E023CFD80197961C92615086
:10550000710981099109660F771F881F991F2EEF76
:1055100030E040E050E00E9448F2DA01C901019613
:10552000A11DB11D813071F0A8F2823029F18330C4
:1055300009F09ECFD6011496ED91FC91118E6EE488
:1055400076E108C0D6011496ED91FC9182E0818F3E
:1055500060E676E1CE0101960E94F0EAD60114964B
:10556000ED91FC91159785A1858F1496ED91FC9195
:10557000858D8160858F7CCFD6011496ED91FC914D
:1055800081E0818F67E576E1E5CFCE010B960E9441
:105590000C66D6011496ED91FC91678B6ACED6010C
:1055A0001496ED91FC91913029F0923009F061CE82
:1055B000148E5FCE80E5848F5CCEF6010481158168
:1055C000913049F09230F1F0CE010B960E940C66BA
:1055D000F801638F4ECE83E0D8015B968C93D601A1
:1055E0000280F381E02D0280F381E02D60817181E2
:1055F000ED91FC910288F389E02D29EB34E040EC39
:1056000054E04ACFF801138ED6011296ED91FC9129
:1056100013970280F381E02D60817181ED91FC91FF
:105620000288F389E02D29EB34E040EB54E034CFDD
:10563000D6011496ED91FC91913031F0923009F041
:1056400018CE858D877FC3CE858D8860C0CE8F9222
:105650009F92AF92BF92CF92DF92EF92FF920F9301
:105660001F93CF93DF937C014A015901C0918E07AC
:10567000D0918F07062F660F110B209709F45CC09D
:1056800088858F70863009F055C063EC74E0CE01D8
:105690000E9457B16C0182E08816910449F068ECD1
:1056A00074E0E3E08E16910429F0D0E0C0E006C07B
:1056B0006CEC74E0CE010E9457B1EC01C114D1042E
:1056C000D9F1F60180858F708430B1F561857285DE
:1056D000A801C7010E942CF7A80161ED74E0C70181
:1056E0000E940EF7209779F188858F70843059F5E4
:1056F00069857A85A801C7010E940EF7A80161EDAE
:1057000074E0C7010E940EF7A114B10429F0A801AA
:10571000B501C7010E940EF7C701DF91CF911F911C
:105720000F91FF90EF90DF90CF90BF90AF909F9040
:105730008F900895D0E0C0E0A80167E679E1C70145
:105740000E941EEBC9CFF2E08F16910481F083E036
:105750008816910429F060918C0770918D07CACF4B
:10576000A80161E679E1C7010E9400EBC7CFA8015B
:105770006EE579E1F8CFCF93DF931F921F92CDB7FB
:10578000DEB78091100F9091110F009711F48CE10A
:105790009FE0BE016F5F7F4F681B790B072E000CE7
:1057A000880B990B0F900F90DF91CF9108954F9236
:1057B0005F926F927F929F92AF92BF92CF92DF9251
:1057C000EF92FF920F931F93CF93DF93CDB7DEB786
:1057D00060970FB6F894DEBF0FBECDBFFC011986EF
:1057E0001A861B861C869A85907F96609A87A08170
:1057F000B181109709F4EEC08C91882309F4EAC0B6
:1058000000811181D8019C91992309F466C09D32D1
:1058100009F4E4C090539A3028F00F5F1F4F1183B2
:105820000083EECFC801912CDC016D01C81AD90AA2
:105830002D91022E000C330B205331092A303105F3
:10584000A0F37F016EE270E0C8010E94F3F6FC0154
:10585000DC01892B09F045C0C8010E9499EA2A851C
:10586000207F2A602A872B013C016CE270E0D7017F
:105870008D919C910E94F3F6009709F0A6C0F70164
:10588000118210824D865E866F86788A88E0FE01DE
:105890003996DE01119601900D928A95E1F72981E2
:1058A0003A814B815C816D817E818F819885609684
:1058B0000FB6F894DEBF0FBECDBFDF91CF911F9121
:1058C0000F91FF90EF90DF90CF90BF90AF909F909F
:1058D0007F906F905F904F900895912CD12CC12CA8
:1058E000B0CF5D01AE1ABF0A11968C911197082EA8
:1058F000000C990BC09711960A9798F32181022EFC
:10590000000C330B205331092A30310508F050C008
:105910002A30310514F029E030E037FF02C030E0D2
:1059200020E0032E000C440B550BAAE0B0E00E94CF
:1059300067F22B013C018281082E000C990BC09765
:105940008A30910588F48A30910514F089E090E05E
:1059500097FF02C090E080E0092E000CAA0BBB0B61
:10596000480E591E6A1E7B1EA114B10409F474CF9F
:10597000C801B3E0AB16B104FCF4E8E0CE16D104E4
:10598000DCF40E9499EA9B01AC01A4E6B0E00E941D
:1059900067F2992041F07094609450944094411CB7
:1059A000511C611C711C460E571E681E791E5DCF6E
:1059B00020E030E0A901B9CF0E9477EA2B013C0139
:1059C0008A85807F87608A8750CF0196D7018D9323
:1059D0009C9358CF412C512C320154CFC8010196D1
:1059E0009924939421CFCF92DF92EF92FF920F935D
:1059F0001F93CF93DF93EC01A881B981109781F1B8
:105A00008C91882369F108811981F801908199238B
:105A100051F09D3241F090539A3028F00F5F1F4FA4
:105A200019830883F0CFC8010E9499EA6B017C01B9
:105A30006CE270E0C8010E94F3F6009769F41982E5
:105A40001882C701B601DF91CF911F910F91FF908E
:105A5000EF90DF90CF900895019699838883F1CFDE
:105A6000C12CD12C7601EDCF0895089508950895A5
:105A7000EF92FF921F93CF93DF93192F7B01C82FD3
:105A8000D92FD7FF03C0D195C195D10961E08C2FE3
:105A90000E945EBF82E0E816F10499F460E08C2F6A
:105AA0000E9430BF63EF74E180EC9DE00E946D9B2B
:105AB00080EC9DE0DF91CF911F91FF90EF900C94CF
:105AC000E699612FEF2851F46095661F6627661FDF
:105AD0008C2F0E9430BF6FEE74E1E6CF661F662701
